{
	"data": {
		"bytecode": {
			"linkReferences": {},
			"object": "608060405260016005553480156200001657600080fd5b506040516200315638038062003156833981016040819052620000399162000131565b6200004433620000e1565b600380546001600160a01b03191673326c977e6efc84e512bb9c30f76e30c160ed06fb1790556007805473c8d925525ca8759812d0c299b90247917d4d4b7c6001600160a01b0319918216179091557f3765636237343735336534313462353462323665643162393131623838643637600855662386f26fc10000600955600a80549091166001600160a01b039290921691909117905562000163565b600080546001600160a01b038381166001600160a01b0319831681178455604051919092169283917f8be0079c531659141344cd1fd0a4f28419497f9722a3daafe3b4186f6b6457e09190a35050565b6000602082840312156200014457600080fd5b81516001600160a01b03811681146200015c57600080fd5b9392505050565b612fe380620001736000396000f3fe6080604052600436106100a75760003560e01c80639201de55116100645780639201de5514610164578063a9583d3214610192578063db3174ec146101c0578063e603c219146101e0578063f2fde38b146101f3578063f96cb2df1461021357600080fd5b8063042f2b65146100ac578063100a56c5146100ce5780633195d58d146100e15780636920f52b146100f4578063715018a6146101315780638da5cb5b14610146575b600080fd5b3480156100b857600080fd5b506100cc6100c73660046126d8565b610243565b005b6100cc6100dc36600461277a565b6103d3565b6100cc6100ef3660046127f8565b61052b565b34801561010057600080fd5b50600a54610114906001600160a01b031681565b6040516001600160a01b0390911681526020015b60405180910390f35b34801561013d57600080fd5b506100cc610663565b34801561015257600080fd5b506000546001600160a01b0316610114565b34801561017057600080fd5b5061018461017f366004612844565b6106c9565b6040516101289291906128b5565b34801561019e57600080fd5b506101b26101ad36600461297d565b610874565b604051908152602001610128565b3480156101cc57600080fd5b506101b26101db3660046129c1565b6108dc565b6100cc6101ee36600461277a565b610f4b565b3480156101ff57600080fd5b506100cc61020e366004612a76565b6110d3565b34801561021f57600080fd5b5061023361022e366004612a9f565b61119e565b6040519015158152602001610128565b60008281526006602052604090205482906001600160a01b031633146102c15760405162461bcd60e51b815260206004820152602860248201527f536f75726365206d75737420626520746865206f7261636c65206f6620746865604482015267081c995c5d595cdd60c21b60648201526084015b60405180910390fd5b60008181526006602052604080822080546001600160a01b03191690555182917f7cc135e0cebb02c3480ae5d74d377283180a2601f8f644edf7987b009316c63a91a2600080610310846106c9565b91509150806012836040516103259190612afd565b908152604051908190036020019020805460ff9290921660ff199092169190911790556000600b8360405161035a9190612afd565b9081526040519081900360200190205460ff16600181111561037e5761037e612b19565b146103cc5761038c826112bd565b6001600b8360405161039e9190612afd565b908152604051908190036020019020805460ff1916600183818111156103c6576103c6612b19565b02179055505b5050505050565b85856001600b83836040516103e9929190612b2f565b9081526040519081900360200190205460ff16600181111561040d5761040d612b19565b1415610430578181604051631b21b92160e01b81526004016102b8929190612b68565b346000811161045557604051630d59f5ff60e41b8152600481018290526024016102b8565b8461ffff166103e8811161047f576040516328317cc360e21b8152600481018290526024016102b8565b3485146104da5760405162461bcd60e51b8152602060048201526024808201527f416d6f756e7420616e642073656e642076616c756520617265206e6f7420657160448201526375616c2160e01b60648201526084016102b8565b61051f8a8a8080601f016020809104026020016040519081016040528093929190818152602001838380828437600092018290525092508c91508b90508a8a336117cc565b50505050505050505050565b600a5460405163563d572160e11b8152336004820152602481018390526001600160a01b039091169063ac7aae4290604401600060405180830381600087803b15801561057757600080fd5b505af115801561058b573d6000803e3d6000fd5b50505050601083836040516105a1929190612b2f565b90815260408051602092819003830190206000848152925290205460ff166105f65760405162461bcd60e51b815260206004820152600860248201526710995d081b1bdcdd60c21b60448201526064016102b8565b61063133600f858560405161060c929190612b2f565b9081526020016040518091039020600084815260200190815260200160002054611b99565b600f8383604051610643929190612b2f565b908152604080516020928190038301902060009384529091528120555050565b6000546001600160a01b031633146106bd5760405162461bcd60e51b815260206004820181905260248201527f4f776e61626c653a2063616c6c6572206973206e6f7420746865206f776e657260448201526064016102b8565b6106c76000611bd4565b565b606060008080805b60208360ff161080156107055750858360ff16602081106106f4576106f4612b7c565b1a60f81b6001600160f81b03191615155b1561071c578261071481612ba8565b9350506106d1565b6000610729600185612bc8565b905060008160ff1667ffffffffffffffff811115610749576107496128da565b6040519080825280601f01601f191660200182016040528015610773576020820181803683370190505b509050600094505b60208560ff161080156107af5750878560ff166020811061079e5761079e612b7c565b1a60f81b6001600160f81b03191615155b1561085a578160ff168560ff16101561080857878560ff16602081106107d7576107d7612b7c565b1a60f81b818660ff16815181106107f0576107f0612b7c565b60200101906001600160f81b031916908160001a9053505b6030888660ff166020811061081f5761081f612b7c565b61082b9291901a612bc8565b935060ff841661083c84600a612beb565b6108469190612c0a565b92508461085281612ba8565b95505061077b565b80610866600a85612c38565b965096505050505050915091565b60008061088b6008543063042f2b6560e01b611c24565b604080518082019091526009815268199a5e1d1d5c99525960ba1b60208201529091506108ba90829085611c49565b6007546009546108d5916001600160a01b0316908390611c67565b9392505050565b600080805b600d8b8b6040516108f3929190612b2f565b908152602001604051809103902060008a600181111561091557610915612b19565b600181111561092657610926612b19565b8152602001908152602001600020600089600081111561094857610948612b19565b801561095657610956612b19565b81526020808201929092526040908101600090812060ff8b168252909252902054811015610c1957336001600160a01b0316600d8c8c60405161099a929190612b2f565b908152602001604051809103902060008b60018111156109bc576109bc612b19565b60018111156109cd576109cd612b19565b815260200190815260200160002060008a60008111156109ef576109ef612b19565b80156109fd576109fd612b19565b815260200190815260200160002060008960ff1660ff1681526020019081526020016000208281548110610a3357610a33612b7c565b60009182526020909120600290910201600101546201000090046001600160a01b0316148015610b2857508561ffff16600d8c8c604051610a75929190612b2f565b908152602001604051809103902060008b6001811115610a9757610a97612b19565b6001811115610aa857610aa8612b19565b815260200190815260200160002060008a6000811115610aca57610aca612b19565b8015610ad857610ad8612b19565b815260200190815260200160002060008960ff1660ff1681526020019081526020016000208281548110610b0e57610b0e612b7c565b600091825260209091206001600290920201015461ffff16145b15610c07576001600d8c8c604051610b41929190612b2f565b908152602001604051809103902060008b6001811115610b6357610b63612b19565b6001811115610b7457610b74612b19565b815260200190815260200160002060008a6000811115610b9657610b96612b19565b8015610ba457610ba4612b19565b815260200190815260200160002060008960ff1660ff1681526020019081526020016000208281548110610bda57610bda612b7c565b906000526020600020906002020160010160166101000a81548160ff021916908315150217905550600191505b80610c1181612c4c565b9150506108e1565b5080610c585760405162461bcd60e51b815260206004820152600e60248201526d139bc813585d18da19590810995d60921b60448201526064016102b8565b600060118b8b604051610c6c929190612b2f565b908152602001604051809103902054905060118b8b604051610c8f929190612b2f565b9081526040519081900360200190208054906000610cac83612c4c565b91905055506000610cf98c8c8080601f0160208091040260200160405190810160405280939291908181526020018383808284376000920191909152508e92508d91508c90508b33611c86565b9050600a60009054906101000a90046001600160a01b03166001600160a01b031663e86f636733838f8f878c8c6040518863ffffffff1660e01b8152600401610d489796959493929190612c67565b600060405180830381600087803b158015610d6257600080fd5b505af1158015610d76573d6000803e3d6000fd5b50505050600e8c8c604051610d8c929190612b2f565b908152602001604051809103902060008b6001811115610dae57610dae612b19565b6001811115610dbf57610dbf612b19565b815260200190815260200160002060008a6000811115610de157610de1612b19565b8015610def57610def612b19565b81526020808201929092526040908101600090812060ff8c168252835281812061ffff8b168252835281812033825290925290819020549051600f90610e38908f908f90612b2f565b908152604080519182900360209081018320600086815291522091909155600e90610e66908e908e90612b2f565b908152602001604051809103902060008b6001811115610e8857610e88612b19565b6001811115610e9957610e99612b19565b815260200190815260200160002060008a6000811115610ebb57610ebb612b19565b8015610ec957610ec9612b19565b81526020808201929092526040908101600090812060ff8c168252835281812061ffff8b168252835281812033825290925280822091909155517f5089770ecce0ed387baf1e3b000fcc13bd3c2205d6205f06afeb547db5f2321e90610f34908e908e908590612cb6565b60405180910390a19b9a5050505050505050505050565b85856001600b8383604051610f61929190612b2f565b9081526040519081900360200190205460ff166001811115610f8557610f85612b19565b1415610fa8578181604051631b21b92160e01b81526004016102b8929190612b68565b3460008111610fcd57604051630d59f5ff60e41b8152600481018290526024016102b8565b8461ffff166103e88111610ff7576040516328317cc360e21b8152600481018290526024016102b8565b60006103e86110068189612cda565b6110149061ffff1688612beb565b61101e9190612cfd565b905034811461107e5760405162461bcd60e51b815260206004820152602660248201527f4c6971696469747920616e642073656e642076616c756520617265206e6f7420604482015265657175616c2160d01b60648201526084016102b8565b6110c68b8b8080601f016020809104026020016040519081016040528093929190818152602001838380828437600092019190915250600192508d91508c90508b8b336117cc565b5050505050505050505050565b6000546001600160a01b0316331461112d5760405162461bcd60e51b815260206004820181905260248201527f4f776e61626c653a2063616c6c6572206973206e6f7420746865206f776e657260448201526064016102b8565b6001600160a01b0381166111925760405162461bcd60e51b815260206004820152602660248201527f4f776e61626c653a206e6577206f776e657220697320746865207a65726f206160448201526564647265737360d01b60648201526084016102b8565b61119b81611bd4565b50565b6000806012856040516111b19190612afd565b9081526040519081900360200190205460ff169050806111ff5760405162461bcd60e51b8152602060048201526009602482015268139bc81c995cdd5b1d60ba1b60448201526064016102b8565b60ff831661124057600084600181111561121b5761121b612b19565b1415611230578060ff166001149150506108d5565b8060ff16600114159150506108d5565b8260ff166001141561128557600084600181111561126057611260612b19565b1415611275578060ff166003149150506108d5565b8060ff16600314159150506108d5565b600084600181111561129957611299612b19565b14156112ae578060ff166002149150506108d5565b60ff1660021415949350505050565b6001600b826040516112cf9190612afd565b908152604051908190036020019020805460ff1916600183818111156112f7576112f7612b19565b021790555060005b60018160ff1610156117c857600060ff8216801561131f5761131f612b19565b905060005b60038160ff1610156117b35780600061133e86828461119e565b90506000600182151514611353576001611356565b60005b90506000600d8860405161136a9190612afd565b9081526020016040518091039020600083600181111561138c5761138c612b19565b600181111561139d5761139d612b19565b815260200190815260200160002060008760008111156113bf576113bf612b19565b80156113cd576113cd612b19565b815260200190815260200160002060008560ff1660ff168152602001908152602001600020805480602002602001604051908101604052809291908181526020016000905b8282101561147e57600084815260209081902060408051608081018252600286029092018054835260019081015461ffff8116848601526201000081046001600160a01b031692840192909252600160b01b90910460ff16151560608301529083529092019101611412565b50505050905060005b815181101561179b578181815181106114a2576114a2612b7c565b602002602001015160600151156115415760006114fd8a858a898787815181106114ce576114ce612b7c565b6020026020010151602001518888815181106114ec576114ec612b7c565b602002602001015160400151611c86565b9050600160108b6040516115119190612afd565b90815260408051602092819003830190206000948552909152909120805460ff1916911515919091179055611789565b61167682828151811061155657611556612b7c565b602002602001015160400151600e8b6040516115729190612afd565b9081526020016040518091039020600086600181111561159457611594612b19565b60018111156115a5576115a5612b19565b815260200190815260200160002060008a60008111156115c7576115c7612b19565b80156115d5576115d5612b19565b815260200190815260200160002060008860ff1660ff168152602001908152602001600020600085858151811061160e5761160e612b7c565b60200260200101516020015161ffff1661ffff168152602001908152602001600020600085858151811061164457611644612b7c565b6020026020010151604001516001600160a01b03166001600160a01b0316815260200190815260200160002054611b99565b600e896040516116869190612afd565b908152602001604051809103902060008460018111156116a8576116a8612b19565b60018111156116b9576116b9612b19565b815260200190815260200160002060008860008111156116db576116db612b19565b80156116e9576116e9612b19565b815260200190815260200160002060008660ff1660ff168152602001908152602001600020600083838151811061172257611722612b7c565b60200260200101516020015161ffff1661ffff168152602001908152602001600020600083838151811061175857611758612b7c565b6020026020010151604001516001600160a01b03166001600160a01b03168152602001908152602001600020600090555b8061179381612c4c565b915050611487565b505050505080806117ab90612ba8565b915050611324565b505080806117c090612ba8565b9150506112ff565b5050565b60008660018111156117e0576117e0612b19565b156117ec5760006117ef565b60015b90506000600c896040516118039190612afd565b9081526020016040518091039020600083600181111561182557611825612b19565b600181111561183657611836612b19565b8152602001908152602001600020600088600081111561185857611858612b19565b801561186657611866612b19565b81526020808201929092526040908101600090812060ff8a168252835281812061ffff891682528352818120805483518186028101860190945280845292939092919084015b828210156118f45760008481526020908190206040805180820190915260028502909101805482526001908101546001600160a01b03168284015290835290920191016118ac565b50505050905080516000141561191a5761191389898989898989611cca565b5050611b90565b8360005b8251811015611b6857600083828151811061193b5761193b612b7c565b6020026020010151600001518311156119815783828151811061196057611960612b7c565b6020026020010151600001519050808361197a9190612d11565b9250611990565b508161198d8180612d11565b92505b6119bc8c868c8c8c868a89815181106119ab576119ab612b7c565b602002602001015160200151611e07565b8382815181106119ce576119ce612b7c565b602002602001015160000151811415611a87577f0ade976e65f3978aa3968af04901755321152ba32b08ee0175e035760c11c1b58c868c8c8c868a8981518110611a1a57611a1a612b7c565b602002602001015160200151604051611a399796959493929190612d4c565b60405180910390a1838281518110611a5357611a53612b7c565b60200260200101611a8060405180604001604052806000815260200160006001600160a01b031681525090565b9052611b37565b80848381518110611a9a57611a9a612b7c565b6020026020010151600001818151611ab29190612d11565b915081815250507f3f3925f6afe1ab09977ba289dc98c6334b2773372c1f7eaf605cedb85c643f018c868c8c8c898881518110611af157611af1612b7c565b6020026020010151600001518a8981518110611b0f57611b0f612b7c565b602002602001015160200151604051611b2e9796959493929190612d4c565b60405180910390a15b82611b5557611b4b8c8c8c8c8c8c8c611e07565b5050505050611b90565b5080611b6081612c4c565b91505061191e565b50611b818a8a8a8a8a611b7b878c612d11565b8a611e07565b61051f8a8a8a8a8a868a611cca565b50505050505050565b6040516001600160a01b0383169082156108fc029083906000818181858888f19350505050158015611bcf573d6000803e3d6000fd5b505050565b600080546001600160a01b038381166001600160a01b0319831681178455604051919092169283917f8be0079c531659141344cd1fd0a4f28419497f9722a3daafe3b4186f6b6457e09190a35050565b611c2c61269d565b611c3461269d565b611c408186868661207c565b95945050505050565b6080830151611c5890836120b9565b6080830151611bcf90826120b9565b6000611c7e84848460016320214ca360e11b6120d0565b949350505050565b6000868287878787604051602001611ca396959493929190612db0565b60408051601f198184030181529190528051602090910120610fff16979650505050505050565b600c87604051611cda9190612afd565b90815260200160405180910390206000876001811115611cfc57611cfc612b19565b6001811115611d0d57611d0d612b19565b81526020019081526020016000206000866000811115611d2f57611d2f612b19565b8015611d3d57611d3d612b19565b81526020808201929092526040908101600090812060ff88168252835281812061ffff871682528352818120825180840184528681526001600160a01b0386811682870190815283546001808201865594865296909420915160029096029091019485559151930180546001600160a01b0319169390911692909217909155517fd9ead39440c1245780b4d6d60aa95d35bbac48e0d9cdf2b29e0e33f5e75aedbe90611df6908990899089908990899089908990612d4c565b60405180910390a150505050505050565b816000876001811115611e1c57611e1c612b19565b1415611e4a576103e8611e2f8186612cda565b611e3d9061ffff1685612beb565b611e479190612cfd565b90505b80600e89604051611e5b9190612afd565b90815260200160405180910390206000896001811115611e7d57611e7d612b19565b6001811115611e8e57611e8e612b19565b81526020019081526020016000206000886000811115611eb057611eb0612b19565b8015611ebe57611ebe612b19565b81526020808201929092526040908101600090812060ff8a168252835281812061ffff8916825283528181206001600160a01b038716825290925281208054909190611f0b908490612c0a565b9091555050604051600d90611f21908a90612afd565b90815260200160405180910390206000886001811115611f4357611f43612b19565b6001811115611f5457611f54612b19565b81526020019081526020016000206000876000811115611f7657611f76612b19565b8015611f8457611f84612b19565b81526020808201929092526040908101600090812060ff891682528352818120825160808101845287815261ffff808a168287019081526001600160a01b03808a168488019081526060850187815286546001818101895597895299909720945160029099029094019788559051969093018054925194511515600160b01b0260ff60b01b199590941662010000026001600160b01b03199093169690911695909517179190911617909155517f0fca364a96d7ed643a08a7b3f2be55b7e2993632ce10f4c978dc379198544f7d9061206a908a908a908a908a908a908a908a90612d4c565b60405180910390a15050505050505050565b61208461269d565b61209485608001516101006122dc565b50509183526001600160a01b031660208301526001600160e01b031916604082015290565b6120c68260038351612347565b611bcf828261241b565b6005546040516bffffffffffffffffffffffff193060601b166020820152603481019190915260009060540160408051808303601f19018152918152815160209283012060055460608901526000818152600690935281832080546001600160a01b0319166001600160a01b038b16179055905190925082917fb5e6e01e79f91267dc17b4e6314d5d4d03593d2ceee0fbb452b750bd70ea5af991a2600082600080886000015189602001518a604001518b606001518a8d60800151600001516040516024016121a7989796959493929190612e0c565b60408051601f198184030181529181526020820180516001600160e01b03166001600160e01b0319909416939093179092526003549151630200057560e51b81529092506001600160a01b0390911690634000aea09061220f908a9089908690600401612e74565b602060405180830381600087803b15801561222957600080fd5b505af115801561223d573d6000803e3d6000fd5b505050506040513d601f19601f820116820180604052508101906122619190612e9b565b6122b95760405162461bcd60e51b815260206004820152602360248201527f756e61626c6520746f207472616e73666572416e6443616c6c20746f206f7261604482015262636c6560e81b60648201526084016102b8565b6001600560008282546122cc9190612c0a565b9091555091979650505050505050565b6040805180820190915260608152600060208201526122fc602083612c38565b156123245761230c602083612c38565b612317906020612d11565b6123219083612c0a565b91505b506020808301829052604080518085526000815283019091019052815b92915050565b60178111612368576123628360e0600585901b168317612442565b50505050565b60ff811161239257612385836018611fe0600586901b1617612442565b5061236283826001612467565b61ffff81116123bd576123b0836019611fe0600586901b1617612442565b5061236283826002612467565b63ffffffff81116123ea576123dd83601a611fe0600586901b1617612442565b5061236283826004612467565b67ffffffffffffffff8111611bcf5761240e83601b611fe0600586901b1617612442565b5061236283826008612467565b6040805180820190915260608152600060208201526108d58384600001515184855161248d565b6040805180820190915260608152600060208201526108d58384600001515184612592565b604080518082019091526060815260006020820152611c7e8485600001515185856125ee565b60408051808201909152606081526000602082015282518211156124b057600080fd5b60208501516124bf8386612c0a565b11156124f2576124f2856124e2876020015187866124dd9190612c0a565b61266f565b6124ed906002612beb565b612686565b6000808651805187602083010193508088870111156125115787860182525b505050602084015b602084106125515780518252612530602083612c0a565b915061253d602082612c0a565b905061254a602085612d11565b9350612519565b60006001612560866020612d11565b61256c90610100612fa1565b6125769190612d11565b9151835183169219169190911790915250849050949350505050565b604080518082019091526060815260006020820152836020015183106125c7576125c784856020015160026124ed9190612beb565b8351805160208583010184815350808514156125e4576001810182525b5093949350505050565b60408051808201909152606081526000602082015260208501516126128584612c0a565b111561262657612626856124e28685612c0a565b6000600161263684610100612fa1565b6126409190612d11565b90508551838682010185831982511617815250805184870111156126645783860181525b509495945050505050565b600081831115612680575081612341565b50919050565b815161269283836122dc565b50612362838261241b565b6040805160a0810182526000808252602080830182905282840182905260608084018390528451808601909552845283015290608082015290565b600080604083850312156126eb57600080fd5b50508035926020909101359150565b60008083601f84011261270c57600080fd5b50813567ffffffffffffffff81111561272457600080fd5b60208301915083602082850101111561273c57600080fd5b9250929050565b80356001811061275257600080fd5b919050565b803560ff8116811461275257600080fd5b803561ffff8116811461275257600080fd5b60008060008060008060a0878903121561279357600080fd5b863567ffffffffffffffff8111156127aa57600080fd5b6127b689828a016126fa565b90975095506127c9905060208801612743565b93506127d760408801612757565b92506127e560608801612768565b9150608087013590509295509295509295565b60008060006040848603121561280d57600080fd5b833567ffffffffffffffff81111561282457600080fd5b612830868287016126fa565b909790965060209590950135949350505050565b60006020828403121561285657600080fd5b5035919050565b60005b83811015612878578181015183820152602001612860565b838111156123625750506000910152565b600081518084526128a181602086016020860161285d565b601f01601f19169290920160200192915050565b6040815260006128c86040830185612889565b905060ff831660208301529392505050565b634e487b7160e01b600052604160045260246000fd5b600082601f83011261290157600080fd5b813567ffffffffffffffff8082111561291c5761291c6128da565b604051601f8301601f19908116603f01168101908282118183101715612944576129446128da565b8160405283815286602085880101111561295d57600080fd5b836020870160208301376000602085830101528094505050505092915050565b60006020828403121561298f57600080fd5b813567ffffffffffffffff8111156129a657600080fd5b611c7e848285016128f0565b80356002811061275257600080fd5b60008060008060008060008060c0898b0312156129dd57600080fd5b883567ffffffffffffffff808211156129f557600080fd5b612a018c838d016126fa565b909a509850889150612a1560208c016129b2565b9750612a2360408c01612743565b9650612a3160608c01612757565b9550612a3f60808c01612768565b945060a08b0135915080821115612a5557600080fd5b50612a628b828c016126fa565b999c989b5096995094979396929594505050565b600060208284031215612a8857600080fd5b81356001600160a01b03811681146108d557600080fd5b600080600060608486031215612ab457600080fd5b833567ffffffffffffffff811115612acb57600080fd5b612ad7868287016128f0565b935050612ae6602085016129b2565b9150612af460408501612757565b90509250925092565b60008251612b0f81846020870161285d565b9190910192915050565b634e487b7160e01b600052602160045260246000fd5b8183823760009101908152919050565b81835281816020850137506000828201602090810191909152601f909101601f19169091010190565b602081526000611c7e602083018486612b3f565b634e487b7160e01b600052603260045260246000fd5b634e487b7160e01b600052601160045260246000fd5b600060ff821660ff811415612bbf57612bbf612b92565b60010192915050565b600060ff821660ff841680821015612be257612be2612b92565b90039392505050565b6000816000190483118215151615612c0557612c05612b92565b500290565b60008219821115612c1d57612c1d612b92565b500190565b634e487b7160e01b600052601260045260246000fd5b600082612c4757612c47612c22565b500690565b6000600019821415612c6057612c60612b92565b5060010190565b60018060a01b038816815286602082015260a060408201526000612c8f60a083018789612b3f565b8560608401528281036080840152612ca8818587612b3f565b9a9950505050505050505050565b604081526000612cca604083018587612b3f565b9050826020830152949350505050565b600061ffff83811690831681811015612cf557612cf5612b92565b039392505050565b600082612d0c57612d0c612c22565b500490565b600082821015612d2357612d23612b92565b500390565b60028110612d3857612d38612b19565b9052565b60018110612d3857612d38612b19565b60e081526000612d5f60e083018a612889565b9050612d6e6020830189612d28565b612d7b6040830188612d3c565b60ff95909516606082015261ffff93909316608084015260a08301919091526001600160a01b031660c0909101529392505050565b60c081526000612dc360c0830189612889565b6001600160a01b03881660208401529050612de16040830187612d28565b612dee6060830186612d3c565b60ff8416608083015261ffff831660a0830152979650505050505050565b6001600160a01b0389811682526020820189905260408201889052861660608201526001600160e01b03198516608082015260a0810184905260c0810183905261010060e08201819052600090612e6583820185612889565b9b9a5050505050505050505050565b60018060a01b0384168152826020820152606060408201526000611c406060830184612889565b600060208284031215612ead57600080fd5b815180151581146108d557600080fd5b600181815b80851115612ef8578160001904821115612ede57612ede612b92565b80851615612eeb57918102915b93841c9390800290612ec2565b509250929050565b600082612f0f57506001612341565b81612f1c57506000612341565b8160018114612f325760028114612f3c57612f58565b6001915050612341565b60ff841115612f4d57612f4d612b92565b50506001821b612341565b5060208310610133831016604e8410600b8410161715612f7b575081810a612341565b612f858383612ebd565b8060001904821115612f9957612f99612b92565b029392505050565b60006108d58383612f0056fea2646970667358221220519a48f52fa855b2c38f7c30795e38080d87216d741b14a673220e7504a3351f64736f6c63430008090033",
			"opcodes": "PUSH1 0x80 PUSH1 0x40 MSTORE PUSH1 0x1 PUSH1 0x5 SSTORE CALLVALUE DUP1 ISZERO PUSH3 0x16 JUMPI PUSH1 0x0 DUP1 REVERT JUMPDEST POP PUSH1 0x40 MLOAD PUSH3 0x3156 CODESIZE SUB DUP1 PUSH3 0x3156 DUP4 CODECOPY DUP2 ADD PUSH1 0x40 DUP2 SWAP1 MSTORE PUSH3 0x39 SWAP2 PUSH3 0x131 JUMP JUMPDEST PUSH3 0x44 CALLER PUSH3 0xE1 JUMP JUMPDEST PUSH1 0x3 DUP1 SLOAD PUSH1 0x1 PUSH1 0x1 PUSH1 0xA0 SHL SUB NOT AND PUSH20 0x326C977E6EFC84E512BB9C30F76E30C160ED06FB OR SWAP1 SSTORE PUSH1 0x7 DUP1 SLOAD PUSH20 0xC8D925525CA8759812D0C299B90247917D4D4B7C PUSH1 0x1 PUSH1 0x1 PUSH1 0xA0 SHL SUB NOT SWAP2 DUP3 AND OR SWAP1 SWAP2 SSTORE PUSH32 0x3765636237343735336534313462353462323665643162393131623838643637 PUSH1 0x8 SSTORE PUSH7 0x2386F26FC10000 PUSH1 0x9 SSTORE PUSH1 0xA DUP1 SLOAD SWAP1 SWAP2 AND PUSH1 0x1 PUSH1 0x1 PUSH1 0xA0 SHL SUB SWAP3 SWAP1 SWAP3 AND SWAP2 SWAP1 SWAP2 OR SWAP1 SSTORE PUSH3 0x163 JUMP JUMPDEST PUSH1 0x0 DUP1 SLOAD PUSH1 0x1 PUSH1 0x1 PUSH1 0xA0 SHL SUB DUP4 DUP2 AND PUSH1 0x1 PUSH1 0x1 PUSH1 0xA0 SHL SUB NOT DUP4 AND DUP2 OR DUP5 SSTORE PUSH1 0x40 MLOAD SWAP2 SWAP1 SWAP3 AND SWAP3 DUP4 SWAP2 PUSH32 0x8BE0079C531659141344CD1FD0A4F28419497F9722A3DAAFE3B4186F6B6457E0 SWAP2 SWAP1 LOG3 POP POP JUMP JUMPDEST PUSH1 0x0 PUSH1 0x20 DUP3 DUP5 SUB SLT ISZERO PUSH3 0x144 JUMPI PUSH1 0x0 DUP1 REVERT JUMPDEST DUP2 MLOAD PUSH1 0x1 PUSH1 0x1 PUSH1 0xA0 SHL SUB DUP2 AND DUP2 EQ PUSH3 0x15C JUMPI PUSH1 0x0 DUP1 REVERT JUMPDEST SWAP4 SWAP3 POP POP POP JUMP JUMPDEST PUSH2 0x2FE3 DUP1 PUSH3 0x173 PUSH1 0x0 CODECOPY PUSH1 0x0 RETURN INVALID PUSH1 0x80 PUSH1 0x40 MSTORE PUSH1 0x4 CALLDATASIZE LT PUSH2 0xA7 JUMPI PUSH1 0x0 CALLDATALOAD PUSH1 0xE0 SHR DUP1 PUSH4 0x9201DE55 GT PUSH2 0x64 JUMPI DUP1 PUSH4 0x9201DE55 EQ PUSH2 0x164 JUMPI DUP1 PUSH4 0xA9583D32 EQ PUSH2 0x192 JUMPI DUP1 PUSH4 0xDB3174EC EQ PUSH2 0x1C0 JUMPI DUP1 PUSH4 0xE603C219 EQ PUSH2 0x1E0 JUMPI DUP1 PUSH4 0xF2FDE38B EQ PUSH2 0x1F3 JUMPI DUP1 PUSH4 0xF96CB2DF EQ PUSH2 0x213 JUMPI PUSH1 0x0 DUP1 REVERT JUMPDEST DUP1 PUSH4 0x42F2B65 EQ PUSH2 0xAC JUMPI DUP1 PUSH4 0x100A56C5 EQ PUSH2 0xCE JUMPI DUP1 PUSH4 0x3195D58D EQ PUSH2 0xE1 JUMPI DUP1 PUSH4 0x6920F52B EQ PUSH2 0xF4 JUMPI DUP1 PUSH4 0x715018A6 EQ PUSH2 0x131 JUMPI DUP1 PUSH4 0x8DA5CB5B EQ PUSH2 0x146 JUMPI JUMPDEST PUSH1 0x0 DUP1 REVERT JUMPDEST CALLVALUE DUP1 ISZERO PUSH2 0xB8 JUMPI PUSH1 0x0 DUP1 REVERT JUMPDEST POP PUSH2 0xCC PUSH2 0xC7 CALLDATASIZE PUSH1 0x4 PUSH2 0x26D8 JUMP JUMPDEST PUSH2 0x243 JUMP JUMPDEST STOP JUMPDEST PUSH2 0xCC PUSH2 0xDC CALLDATASIZE PUSH1 0x4 PUSH2 0x277A JUMP JUMPDEST PUSH2 0x3D3 JUMP JUMPDEST PUSH2 0xCC PUSH2 0xEF CALLDATASIZE PUSH1 0x4 PUSH2 0x27F8 JUMP JUMPDEST PUSH2 0x52B JUMP JUMPDEST CALLVALUE DUP1 ISZERO PUSH2 0x100 JUMPI PUSH1 0x0 DUP1 REVERT JUMPDEST POP PUSH1 0xA SLOAD PUSH2 0x114 SWAP1 PUSH1 0x1 PUSH1 0x1 PUSH1 0xA0 SHL SUB AND DUP2 JUMP JUMPDEST PUSH1 0x40 MLOAD PUSH1 0x1 PUSH1 0x1 PUSH1 0xA0 SHL SUB SWAP1 SWAP2 AND DUP2 MSTORE PUSH1 0x20 ADD JUMPDEST PUSH1 0x40 MLOAD DUP1 SWAP2 SUB SWAP1 RETURN JUMPDEST CALLVALUE DUP1 ISZERO PUSH2 0x13D JUMPI PUSH1 0x0 DUP1 REVERT JUMPDEST POP PUSH2 0xCC PUSH2 0x663 JUMP JUMPDEST CALLVALUE DUP1 ISZERO PUSH2 0x152 JUMPI PUSH1 0x0 DUP1 REVERT JUMPDEST POP PUSH1 0x0 SLOAD PUSH1 0x1 PUSH1 0x1 PUSH1 0xA0 SHL SUB AND PUSH2 0x114 JUMP JUMPDEST CALLVALUE DUP1 ISZERO PUSH2 0x170 JUMPI PUSH1 0x0 DUP1 REVERT JUMPDEST POP PUSH2 0x184 PUSH2 0x17F CALLDATASIZE PUSH1 0x4 PUSH2 0x2844 JUMP JUMPDEST PUSH2 0x6C9 JUMP JUMPDEST PUSH1 0x40 MLOAD PUSH2 0x128 SWAP3 SWAP2 SWAP1 PUSH2 0x28B5 JUMP JUMPDEST CALLVALUE DUP1 ISZERO PUSH2 0x19E JUMPI PUSH1 0x0 DUP1 REVERT JUMPDEST POP PUSH2 0x1B2 PUSH2 0x1AD CALLDATASIZE PUSH1 0x4 PUSH2 0x297D JUMP JUMPDEST PUSH2 0x874 JUMP JUMPDEST PUSH1 0x40 MLOAD SWAP1 DUP2 MSTORE PUSH1 0x20 ADD PUSH2 0x128 JUMP JUMPDEST CALLVALUE DUP1 ISZERO PUSH2 0x1CC JUMPI PUSH1 0x0 DUP1 REVERT JUMPDEST POP PUSH2 0x1B2 PUSH2 0x1DB CALLDATASIZE PUSH1 0x4 PUSH2 0x29C1 JUMP JUMPDEST PUSH2 0x8DC JUMP JUMPDEST PUSH2 0xCC PUSH2 0x1EE CALLDATASIZE PUSH1 0x4 PUSH2 0x277A JUMP JUMPDEST PUSH2 0xF4B JUMP JUMPDEST CALLVALUE DUP1 ISZERO PUSH2 0x1FF JUMPI PUSH1 0x0 DUP1 REVERT JUMPDEST POP PUSH2 0xCC PUSH2 0x20E CALLDATASIZE PUSH1 0x4 PUSH2 0x2A76 JUMP JUMPDEST PUSH2 0x10D3 JUMP JUMPDEST CALLVALUE DUP1 ISZERO PUSH2 0x21F JUMPI PUSH1 0x0 DUP1 REVERT JUMPDEST POP PUSH2 0x233 PUSH2 0x22E CALLDATASIZE PUSH1 0x4 PUSH2 0x2A9F JUMP JUMPDEST PUSH2 0x119E JUMP JUMPDEST PUSH1 0x40 MLOAD SWAP1 ISZERO ISZERO DUP2 MSTORE PUSH1 0x20 ADD PUSH2 0x128 JUMP JUMPDEST PUSH1 0x0 DUP3 DUP2 MSTORE PUSH1 0x6 PUSH1 0x20 MSTORE PUSH1 0x40 SWAP1 KECCAK256 SLOAD DUP3 SWAP1 PUSH1 0x1 PUSH1 0x1 PUSH1 0xA0 SHL SUB AND CALLER EQ PUSH2 0x2C1 JUMPI PUSH1 0x40 MLOAD PUSH3 0x461BCD PUSH1 0xE5 SHL DUP2 MSTORE PUSH1 0x20 PUSH1 0x4 DUP3 ADD MSTORE PUSH1 0x28 PUSH1 0x24 DUP3 ADD MSTORE PUSH32 0x536F75726365206D75737420626520746865206F7261636C65206F6620746865 PUSH1 0x44 DUP3 ADD MSTORE PUSH8 0x81C995C5D595CDD PUSH1 0xC2 SHL PUSH1 0x64 DUP3 ADD MSTORE PUSH1 0x84 ADD JUMPDEST PUSH1 0x40 MLOAD DUP1 SWAP2 SUB SWAP1 REVERT JUMPDEST PUSH1 0x0 DUP2 DUP2 MSTORE PUSH1 0x6 PUSH1 0x20 MSTORE PUSH1 0x40 DUP1 DUP3 KECCAK256 DUP1 SLOAD PUSH1 0x1 PUSH1 0x1 PUSH1 0xA0 SHL SUB NOT AND SWAP1 SSTORE MLOAD DUP3 SWAP2 PUSH32 0x7CC135E0CEBB02C3480AE5D74D377283180A2601F8F644EDF7987B009316C63A SWAP2 LOG2 PUSH1 0x0 DUP1 PUSH2 0x310 DUP5 PUSH2 0x6C9 JUMP JUMPDEST SWAP2 POP SWAP2 POP DUP1 PUSH1 0x12 DUP4 PUSH1 0x40 MLOAD PUSH2 0x325 SWAP2 SWAP1 PUSH2 0x2AFD JUMP JUMPDEST SWAP1 DUP2 MSTORE PUSH1 0x40 MLOAD SWAP1 DUP2 SWAP1 SUB PUSH1 0x20 ADD SWAP1 KECCAK256 DUP1 SLOAD PUSH1 0xFF SWAP3 SWAP1 SWAP3 AND PUSH1 0xFF NOT SWAP1 SWAP3 AND SWAP2 SWAP1 SWAP2 OR SWAP1 SSTORE PUSH1 0x0 PUSH1 0xB DUP4 PUSH1 0x40 MLOAD PUSH2 0x35A SWAP2 SWAP1 PUSH2 0x2AFD JUMP JUMPDEST SWAP1 DUP2 MSTORE PUSH1 0x40 MLOAD SWAP1 DUP2 SWAP1 SUB PUSH1 0x20 ADD SWAP1 KECCAK256 SLOAD PUSH1 0xFF AND PUSH1 0x1 DUP2 GT ISZERO PUSH2 0x37E JUMPI PUSH2 0x37E PUSH2 0x2B19 JUMP JUMPDEST EQ PUSH2 0x3CC JUMPI PUSH2 0x38C DUP3 PUSH2 0x12BD JUMP JUMPDEST PUSH1 0x1 PUSH1 0xB DUP4 PUSH1 0x40 MLOAD PUSH2 0x39E SWAP2 SWAP1 PUSH2 0x2AFD JUMP JUMPDEST SWAP1 DUP2 MSTORE PUSH1 0x40 MLOAD SWAP1 DUP2 SWAP1 SUB PUSH1 0x20 ADD SWAP1 KECCAK256 DUP1 SLOAD PUSH1 0xFF NOT AND PUSH1 0x1 DUP4 DUP2 DUP2 GT ISZERO PUSH2 0x3C6 JUMPI PUSH2 0x3C6 PUSH2 0x2B19 JUMP JUMPDEST MUL OR SWAP1 SSTORE POP JUMPDEST POP POP POP POP POP JUMP JUMPDEST DUP6 DUP6 PUSH1 0x1 PUSH1 0xB DUP4 DUP4 PUSH1 0x40 MLOAD PUSH2 0x3E9 SWAP3 SWAP2 SWAP1 PUSH2 0x2B2F JUMP JUMPDEST SWAP1 DUP2 MSTORE PUSH1 0x40 MLOAD SWAP1 DUP2 SWAP1 SUB PUSH1 0x20 ADD SWAP1 KECCAK256 SLOAD PUSH1 0xFF AND PUSH1 0x1 DUP2 GT ISZERO PUSH2 0x40D JUMPI PUSH2 0x40D PUSH2 0x2B19 JUMP JUMPDEST EQ ISZERO PUSH2 0x430 JUMPI DUP2 DUP2 PUSH1 0x40 MLOAD PUSH4 0x1B21B921 PUSH1 0xE0 SHL DUP2 MSTORE PUSH1 0x4 ADD PUSH2 0x2B8 SWAP3 SWAP2 SWAP1 PUSH2 0x2B68 JUMP JUMPDEST CALLVALUE PUSH1 0x0 DUP2 GT PUSH2 0x455 JUMPI PUSH1 0x40 MLOAD PUSH4 0xD59F5FF PUSH1 0xE4 SHL DUP2 MSTORE PUSH1 0x4 DUP2 ADD DUP3 SWAP1 MSTORE PUSH1 0x24 ADD PUSH2 0x2B8 JUMP JUMPDEST DUP5 PUSH2 0xFFFF AND PUSH2 0x3E8 DUP2 GT PUSH2 0x47F JUMPI PUSH1 0x40 MLOAD PUSH4 0x28317CC3 PUSH1 0xE2 SHL DUP2 MSTORE PUSH1 0x4 DUP2 ADD DUP3 SWAP1 MSTORE PUSH1 0x24 ADD PUSH2 0x2B8 JUMP JUMPDEST CALLVALUE DUP6 EQ PUSH2 0x4DA JUMPI PUSH1 0x40 MLOAD PUSH3 0x461BCD PUSH1 0xE5 SHL DUP2 MSTORE PUSH1 0x20 PUSH1 0x4 DUP3 ADD MSTORE PUSH1 0x24 DUP1 DUP3 ADD MSTORE PUSH32 0x416D6F756E7420616E642073656E642076616C756520617265206E6F74206571 PUSH1 0x44 DUP3 ADD MSTORE PUSH4 0x75616C21 PUSH1 0xE0 SHL PUSH1 0x64 DUP3 ADD MSTORE PUSH1 0x84 ADD PUSH2 0x2B8 JUMP JUMPDEST PUSH2 0x51F DUP11 DUP11 DUP1 DUP1 PUSH1 0x1F ADD PUSH1 0x20 DUP1 SWAP2 DIV MUL PUSH1 0x20 ADD PUSH1 0x40 MLOAD SWAP1 DUP2 ADD PUSH1 0x40 MSTORE DUP1 SWAP4 SWAP3 SWAP2 SWAP1 DUP2 DUP2 MSTORE PUSH1 0x20 ADD DUP4 DUP4 DUP1 DUP3 DUP5 CALLDATACOPY PUSH1 0x0 SWAP3 ADD DUP3 SWAP1 MSTORE POP SWAP3 POP DUP13 SWAP2 POP DUP12 SWAP1 POP DUP11 DUP11 CALLER PUSH2 0x17CC JUMP JUMPDEST POP POP POP POP POP POP POP POP POP POP JUMP JUMPDEST PUSH1 0xA SLOAD PUSH1 0x40 MLOAD PUSH4 0x563D5721 PUSH1 0xE1 SHL DUP2 MSTORE CALLER PUSH1 0x4 DUP3 ADD MSTORE PUSH1 0x24 DUP2 ADD DUP4 SWAP1 MSTORE PUSH1 0x1 PUSH1 0x1 PUSH1 0xA0 SHL SUB SWAP1 SWAP2 AND SWAP1 PUSH4 0xAC7AAE42 SWAP1 PUSH1 0x44 ADD PUSH1 0x0 PUSH1 0x40 MLOAD DUP1 DUP4 SUB DUP2 PUSH1 0x0 DUP8 DUP1 EXTCODESIZE ISZERO DUP1 ISZERO PUSH2 0x577 JUMPI PUSH1 0x0 DUP1 REVERT JUMPDEST POP GAS CALL ISZERO DUP1 ISZERO PUSH2 0x58B JUMPI RETURNDATASIZE PUSH1 0x0 DUP1 RETURNDATACOPY RETURNDATASIZE PUSH1 0x0 REVERT JUMPDEST POP POP POP POP PUSH1 0x10 DUP4 DUP4 PUSH1 0x40 MLOAD PUSH2 0x5A1 SWAP3 SWAP2 SWAP1 PUSH2 0x2B2F JUMP JUMPDEST SWAP1 DUP2 MSTORE PUSH1 0x40 DUP1 MLOAD PUSH1 0x20 SWAP3 DUP2 SWAP1 SUB DUP4 ADD SWAP1 KECCAK256 PUSH1 0x0 DUP5 DUP2 MSTORE SWAP3 MSTORE SWAP1 KECCAK256 SLOAD PUSH1 0xFF AND PUSH2 0x5F6 JUMPI PUSH1 0x40 MLOAD PUSH3 0x461BCD PUSH1 0xE5 SHL DUP2 MSTORE PUSH1 0x20 PUSH1 0x4 DUP3 ADD MSTORE PUSH1 0x8 PUSH1 0x24 DUP3 ADD MSTORE PUSH8 0x10995D081B1BDCDD PUSH1 0xC2 SHL PUSH1 0x44 DUP3 ADD MSTORE PUSH1 0x64 ADD PUSH2 0x2B8 JUMP JUMPDEST PUSH2 0x631 CALLER PUSH1 0xF DUP6 DUP6 PUSH1 0x40 MLOAD PUSH2 0x60C SWAP3 SWAP2 SWAP1 PUSH2 0x2B2F JUMP JUMPDEST SWAP1 DUP2 MSTORE PUSH1 0x20 ADD PUSH1 0x40 MLOAD DUP1 SWAP2 SUB SWAP1 KECCAK256 PUSH1 0x0 DUP5 DUP2 MSTORE PUSH1 0x20 ADD SWAP1 DUP2 MSTORE PUSH1 0x20 ADD PUSH1 0x0 KECCAK256 SLOAD PUSH2 0x1B99 JUMP JUMPDEST PUSH1 0xF DUP4 DUP4 PUSH1 0x40 MLOAD PUSH2 0x643 SWAP3 SWAP2 SWAP1 PUSH2 0x2B2F JUMP JUMPDEST SWAP1 DUP2 MSTORE PUSH1 0x40 DUP1 MLOAD PUSH1 0x20 SWAP3 DUP2 SWAP1 SUB DUP4 ADD SWAP1 KECCAK256 PUSH1 0x0 SWAP4 DUP5 MSTORE SWAP1 SWAP2 MSTORE DUP2 KECCAK256 SSTORE POP POP JUMP JUMPDEST PUSH1 0x0 SLOAD PUSH1 0x1 PUSH1 0x1 PUSH1 0xA0 SHL SUB AND CALLER EQ PUSH2 0x6BD JUMPI PUSH1 0x40 MLOAD PUSH3 0x461BCD PUSH1 0xE5 SHL DUP2 MSTORE PUSH1 0x20 PUSH1 0x4 DUP3 ADD DUP2 SWAP1 MSTORE PUSH1 0x24 DUP3 ADD MSTORE PUSH32 0x4F776E61626C653A2063616C6C6572206973206E6F7420746865206F776E6572 PUSH1 0x44 DUP3 ADD MSTORE PUSH1 0x64 ADD PUSH2 0x2B8 JUMP JUMPDEST PUSH2 0x6C7 PUSH1 0x0 PUSH2 0x1BD4 JUMP JUMPDEST JUMP JUMPDEST PUSH1 0x60 PUSH1 0x0 DUP1 DUP1 DUP1 JUMPDEST PUSH1 0x20 DUP4 PUSH1 0xFF AND LT DUP1 ISZERO PUSH2 0x705 JUMPI POP DUP6 DUP4 PUSH1 0xFF AND PUSH1 0x20 DUP2 LT PUSH2 0x6F4 JUMPI PUSH2 0x6F4 PUSH2 0x2B7C JUMP JUMPDEST BYTE PUSH1 0xF8 SHL PUSH1 0x1 PUSH1 0x1 PUSH1 0xF8 SHL SUB NOT AND ISZERO ISZERO JUMPDEST ISZERO PUSH2 0x71C JUMPI DUP3 PUSH2 0x714 DUP2 PUSH2 0x2BA8 JUMP JUMPDEST SWAP4 POP POP PUSH2 0x6D1 JUMP JUMPDEST PUSH1 0x0 PUSH2 0x729 PUSH1 0x1 DUP6 PUSH2 0x2BC8 JUMP JUMPDEST SWAP1 POP PUSH1 0x0 DUP2 PUSH1 0xFF AND PUSH8 0xFFFFFFFFFFFFFFFF DUP2 GT ISZERO PUSH2 0x749 JUMPI PUSH2 0x749 PUSH2 0x28DA JUMP JUMPDEST PUSH1 0x40 MLOAD SWAP1 DUP1 DUP3 MSTORE DUP1 PUSH1 0x1F ADD PUSH1 0x1F NOT AND PUSH1 0x20 ADD DUP3 ADD PUSH1 0x40 MSTORE DUP1 ISZERO PUSH2 0x773 JUMPI PUSH1 0x20 DUP3 ADD DUP2 DUP1 CALLDATASIZE DUP4 CALLDATACOPY ADD SWAP1 POP JUMPDEST POP SWAP1 POP PUSH1 0x0 SWAP5 POP JUMPDEST PUSH1 0x20 DUP6 PUSH1 0xFF AND LT DUP1 ISZERO PUSH2 0x7AF JUMPI POP DUP8 DUP6 PUSH1 0xFF AND PUSH1 0x20 DUP2 LT PUSH2 0x79E JUMPI PUSH2 0x79E PUSH2 0x2B7C JUMP JUMPDEST BYTE PUSH1 0xF8 SHL PUSH1 0x1 PUSH1 0x1 PUSH1 0xF8 SHL SUB NOT AND ISZERO ISZERO JUMPDEST ISZERO PUSH2 0x85A JUMPI DUP2 PUSH1 0xFF AND DUP6 PUSH1 0xFF AND LT ISZERO PUSH2 0x808 JUMPI DUP8 DUP6 PUSH1 0xFF AND PUSH1 0x20 DUP2 LT PUSH2 0x7D7 JUMPI PUSH2 0x7D7 PUSH2 0x2B7C JUMP JUMPDEST BYTE PUSH1 0xF8 SHL DUP2 DUP7 PUSH1 0xFF AND DUP2 MLOAD DUP2 LT PUSH2 0x7F0 JUMPI PUSH2 0x7F0 PUSH2 0x2B7C JUMP JUMPDEST PUSH1 0x20 ADD ADD SWAP1 PUSH1 0x1 PUSH1 0x1 PUSH1 0xF8 SHL SUB NOT AND SWAP1 DUP2 PUSH1 0x0 BYTE SWAP1 MSTORE8 POP JUMPDEST PUSH1 0x30 DUP9 DUP7 PUSH1 0xFF AND PUSH1 0x20 DUP2 LT PUSH2 0x81F JUMPI PUSH2 0x81F PUSH2 0x2B7C JUMP JUMPDEST PUSH2 0x82B SWAP3 SWAP2 SWAP1 BYTE PUSH2 0x2BC8 JUMP JUMPDEST SWAP4 POP PUSH1 0xFF DUP5 AND PUSH2 0x83C DUP5 PUSH1 0xA PUSH2 0x2BEB JUMP JUMPDEST PUSH2 0x846 SWAP2 SWAP1 PUSH2 0x2C0A JUMP JUMPDEST SWAP3 POP DUP5 PUSH2 0x852 DUP2 PUSH2 0x2BA8 JUMP JUMPDEST SWAP6 POP POP PUSH2 0x77B JUMP JUMPDEST DUP1 PUSH2 0x866 PUSH1 0xA DUP6 PUSH2 0x2C38 JUMP JUMPDEST SWAP7 POP SWAP7 POP POP POP POP POP POP SWAP2 POP SWAP2 JUMP JUMPDEST PUSH1 0x0 DUP1 PUSH2 0x88B PUSH1 0x8 SLOAD ADDRESS PUSH4 0x42F2B65 PUSH1 0xE0 SHL PUSH2 0x1C24 JUMP JUMPDEST PUSH1 0x40 DUP1 MLOAD DUP1 DUP3 ADD SWAP1 SWAP2 MSTORE PUSH1 0x9 DUP2 MSTORE PUSH9 0x199A5E1D1D5C995259 PUSH1 0xBA SHL PUSH1 0x20 DUP3 ADD MSTORE SWAP1 SWAP2 POP PUSH2 0x8BA SWAP1 DUP3 SWAP1 DUP6 PUSH2 0x1C49 JUMP JUMPDEST PUSH1 0x7 SLOAD PUSH1 0x9 SLOAD PUSH2 0x8D5 SWAP2 PUSH1 0x1 PUSH1 0x1 PUSH1 0xA0 SHL SUB AND SWAP1 DUP4 SWAP1 PUSH2 0x1C67 JUMP JUMPDEST SWAP4 SWAP3 POP POP POP JUMP JUMPDEST PUSH1 0x0 DUP1 DUP1 JUMPDEST PUSH1 0xD DUP12 DUP12 PUSH1 0x40 MLOAD PUSH2 0x8F3 SWAP3 SWAP2 SWAP1 PUSH2 0x2B2F JUMP JUMPDEST SWAP1 DUP2 MSTORE PUSH1 0x20 ADD PUSH1 0x40 MLOAD DUP1 SWAP2 SUB SWAP1 KECCAK256 PUSH1 0x0 DUP11 PUSH1 0x1 DUP2 GT ISZERO PUSH2 0x915 JUMPI PUSH2 0x915 PUSH2 0x2B19 JUMP JUMPDEST PUSH1 0x1 DUP2 GT ISZERO PUSH2 0x926 JUMPI PUSH2 0x926 PUSH2 0x2B19 JUMP JUMPDEST DUP2 MSTORE PUSH1 0x20 ADD SWAP1 DUP2 MSTORE PUSH1 0x20 ADD PUSH1 0x0 KECCAK256 PUSH1 0x0 DUP10 PUSH1 0x0 DUP2 GT ISZERO PUSH2 0x948 JUMPI PUSH2 0x948 PUSH2 0x2B19 JUMP JUMPDEST DUP1 ISZERO PUSH2 0x956 JUMPI PUSH2 0x956 PUSH2 0x2B19 JUMP JUMPDEST DUP2 MSTORE PUSH1 0x20 DUP1 DUP3 ADD SWAP3 SWAP1 SWAP3 MSTORE PUSH1 0x40 SWAP1 DUP2 ADD PUSH1 0x0 SWAP1 DUP2 KECCAK256 PUSH1 0xFF DUP12 AND DUP3 MSTORE SWAP1 SWAP3 MSTORE SWAP1 KECCAK256 SLOAD DUP2 LT ISZERO PUSH2 0xC19 JUMPI CALLER PUSH1 0x1 PUSH1 0x1 PUSH1 0xA0 SHL SUB AND PUSH1 0xD DUP13 DUP13 PUSH1 0x40 MLOAD PUSH2 0x99A SWAP3 SWAP2 SWAP1 PUSH2 0x2B2F JUMP JUMPDEST SWAP1 DUP2 MSTORE PUSH1 0x20 ADD PUSH1 0x40 MLOAD DUP1 SWAP2 SUB SWAP1 KECCAK256 PUSH1 0x0 DUP12 PUSH1 0x1 DUP2 GT ISZERO PUSH2 0x9BC JUMPI PUSH2 0x9BC PUSH2 0x2B19 JUMP JUMPDEST PUSH1 0x1 DUP2 GT ISZERO PUSH2 0x9CD JUMPI PUSH2 0x9CD PUSH2 0x2B19 JUMP JUMPDEST DUP2 MSTORE PUSH1 0x20 ADD SWAP1 DUP2 MSTORE PUSH1 0x20 ADD PUSH1 0x0 KECCAK256 PUSH1 0x0 DUP11 PUSH1 0x0 DUP2 GT ISZERO PUSH2 0x9EF JUMPI PUSH2 0x9EF PUSH2 0x2B19 JUMP JUMPDEST DUP1 ISZERO PUSH2 0x9FD JUMPI PUSH2 0x9FD PUSH2 0x2B19 JUMP JUMPDEST DUP2 MSTORE PUSH1 0x20 ADD SWAP1 DUP2 MSTORE PUSH1 0x20 ADD PUSH1 0x0 KECCAK256 PUSH1 0x0 DUP10 PUSH1 0xFF AND PUSH1 0xFF AND DUP2 MSTORE PUSH1 0x20 ADD SWAP1 DUP2 MSTORE PUSH1 0x20 ADD PUSH1 0x0 KECCAK256 DUP3 DUP2 SLOAD DUP2 LT PUSH2 0xA33 JUMPI PUSH2 0xA33 PUSH2 0x2B7C JUMP JUMPDEST PUSH1 0x0 SWAP2 DUP3 MSTORE PUSH1 0x20 SWAP1 SWAP2 KECCAK256 PUSH1 0x2 SWAP1 SWAP2 MUL ADD PUSH1 0x1 ADD SLOAD PUSH3 0x10000 SWAP1 DIV PUSH1 0x1 PUSH1 0x1 PUSH1 0xA0 SHL SUB AND EQ DUP1 ISZERO PUSH2 0xB28 JUMPI POP DUP6 PUSH2 0xFFFF AND PUSH1 0xD DUP13 DUP13 PUSH1 0x40 MLOAD PUSH2 0xA75 SWAP3 SWAP2 SWAP1 PUSH2 0x2B2F JUMP JUMPDEST SWAP1 DUP2 MSTORE PUSH1 0x20 ADD PUSH1 0x40 MLOAD DUP1 SWAP2 SUB SWAP1 KECCAK256 PUSH1 0x0 DUP12 PUSH1 0x1 DUP2 GT ISZERO PUSH2 0xA97 JUMPI PUSH2 0xA97 PUSH2 0x2B19 JUMP JUMPDEST PUSH1 0x1 DUP2 GT ISZERO PUSH2 0xAA8 JUMPI PUSH2 0xAA8 PUSH2 0x2B19 JUMP JUMPDEST DUP2 MSTORE PUSH1 0x20 ADD SWAP1 DUP2 MSTORE PUSH1 0x20 ADD PUSH1 0x0 KECCAK256 PUSH1 0x0 DUP11 PUSH1 0x0 DUP2 GT ISZERO PUSH2 0xACA JUMPI PUSH2 0xACA PUSH2 0x2B19 JUMP JUMPDEST DUP1 ISZERO PUSH2 0xAD8 JUMPI PUSH2 0xAD8 PUSH2 0x2B19 JUMP JUMPDEST DUP2 MSTORE PUSH1 0x20 ADD SWAP1 DUP2 MSTORE PUSH1 0x20 ADD PUSH1 0x0 KECCAK256 PUSH1 0x0 DUP10 PUSH1 0xFF AND PUSH1 0xFF AND DUP2 MSTORE PUSH1 0x20 ADD SWAP1 DUP2 MSTORE PUSH1 0x20 ADD PUSH1 0x0 KECCAK256 DUP3 DUP2 SLOAD DUP2 LT PUSH2 0xB0E JUMPI PUSH2 0xB0E PUSH2 0x2B7C JUMP JUMPDEST PUSH1 0x0 SWAP2 DUP3 MSTORE PUSH1 0x20 SWAP1 SWAP2 KECCAK256 PUSH1 0x1 PUSH1 0x2 SWAP1 SWAP3 MUL ADD ADD SLOAD PUSH2 0xFFFF AND EQ JUMPDEST ISZERO PUSH2 0xC07 JUMPI PUSH1 0x1 PUSH1 0xD DUP13 DUP13 PUSH1 0x40 MLOAD PUSH2 0xB41 SWAP3 SWAP2 SWAP1 PUSH2 0x2B2F JUMP JUMPDEST SWAP1 DUP2 MSTORE PUSH1 0x20 ADD PUSH1 0x40 MLOAD DUP1 SWAP2 SUB SWAP1 KECCAK256 PUSH1 0x0 DUP12 PUSH1 0x1 DUP2 GT ISZERO PUSH2 0xB63 JUMPI PUSH2 0xB63 PUSH2 0x2B19 JUMP JUMPDEST PUSH1 0x1 DUP2 GT ISZERO PUSH2 0xB74 JUMPI PUSH2 0xB74 PUSH2 0x2B19 JUMP JUMPDEST DUP2 MSTORE PUSH1 0x20 ADD SWAP1 DUP2 MSTORE PUSH1 0x20 ADD PUSH1 0x0 KECCAK256 PUSH1 0x0 DUP11 PUSH1 0x0 DUP2 GT ISZERO PUSH2 0xB96 JUMPI PUSH2 0xB96 PUSH2 0x2B19 JUMP JUMPDEST DUP1 ISZERO PUSH2 0xBA4 JUMPI PUSH2 0xBA4 PUSH2 0x2B19 JUMP JUMPDEST DUP2 MSTORE PUSH1 0x20 ADD SWAP1 DUP2 MSTORE PUSH1 0x20 ADD PUSH1 0x0 KECCAK256 PUSH1 0x0 DUP10 PUSH1 0xFF AND PUSH1 0xFF AND DUP2 MSTORE PUSH1 0x20 ADD SWAP1 DUP2 MSTORE PUSH1 0x20 ADD PUSH1 0x0 KECCAK256 DUP3 DUP2 SLOAD DUP2 LT PUSH2 0xBDA JUMPI PUSH2 0xBDA PUSH2 0x2B7C JUMP JUMPDEST SWAP1 PUSH1 0x0 MSTORE PUSH1 0x20 PUSH1 0x0 KECCAK256 SWAP1 PUSH1 0x2 MUL ADD PUSH1 0x1 ADD PUSH1 0x16 PUSH2 0x100 EXP DUP2 SLOAD DUP2 PUSH1 0xFF MUL NOT AND SWAP1 DUP4 ISZERO ISZERO MUL OR SWAP1 SSTORE POP PUSH1 0x1 SWAP2 POP JUMPDEST DUP1 PUSH2 0xC11 DUP2 PUSH2 0x2C4C JUMP JUMPDEST SWAP2 POP POP PUSH2 0x8E1 JUMP JUMPDEST POP DUP1 PUSH2 0xC58 JUMPI PUSH1 0x40 MLOAD PUSH3 0x461BCD PUSH1 0xE5 SHL DUP2 MSTORE PUSH1 0x20 PUSH1 0x4 DUP3 ADD MSTORE PUSH1 0xE PUSH1 0x24 DUP3 ADD MSTORE PUSH14 0x139BC813585D18DA19590810995D PUSH1 0x92 SHL PUSH1 0x44 DUP3 ADD MSTORE PUSH1 0x64 ADD PUSH2 0x2B8 JUMP JUMPDEST PUSH1 0x0 PUSH1 0x11 DUP12 DUP12 PUSH1 0x40 MLOAD PUSH2 0xC6C SWAP3 SWAP2 SWAP1 PUSH2 0x2B2F JUMP JUMPDEST SWAP1 DUP2 MSTORE PUSH1 0x20 ADD PUSH1 0x40 MLOAD DUP1 SWAP2 SUB SWAP1 KECCAK256 SLOAD SWAP1 POP PUSH1 0x11 DUP12 DUP12 PUSH1 0x40 MLOAD PUSH2 0xC8F SWAP3 SWAP2 SWAP1 PUSH2 0x2B2F JUMP JUMPDEST SWAP1 DUP2 MSTORE PUSH1 0x40 MLOAD SWAP1 DUP2 SWAP1 SUB PUSH1 0x20 ADD SWAP1 KECCAK256 DUP1 SLOAD SWAP1 PUSH1 0x0 PUSH2 0xCAC DUP4 PUSH2 0x2C4C JUMP JUMPDEST SWAP2 SWAP1 POP SSTORE POP PUSH1 0x0 PUSH2 0xCF9 DUP13 DUP13 DUP1 DUP1 PUSH1 0x1F ADD PUSH1 0x20 DUP1 SWAP2 DIV MUL PUSH1 0x20 ADD PUSH1 0x40 MLOAD SWAP1 DUP2 ADD PUSH1 0x40 MSTORE DUP1 SWAP4 SWAP3 SWAP2 SWAP1 DUP2 DUP2 MSTORE PUSH1 0x20 ADD DUP4 DUP4 DUP1 DUP3 DUP5 CALLDATACOPY PUSH1 0x0 SWAP3 ADD SWAP2 SWAP1 SWAP2 MSTORE POP DUP15 SWAP3 POP DUP14 SWAP2 POP DUP13 SWAP1 POP DUP12 CALLER PUSH2 0x1C86 JUMP JUMPDEST SWAP1 POP PUSH1 0xA PUSH1 0x0 SWAP1 SLOAD SWAP1 PUSH2 0x100 EXP SWAP1 DIV PUSH1 0x1 PUSH1 0x1 PUSH1 0xA0 SHL SUB AND PUSH1 0x1 PUSH1 0x1 PUSH1 0xA0 SHL SUB AND PUSH4 0xE86F6367 CALLER DUP4 DUP16 DUP16 DUP8 DUP13 DUP13 PUSH1 0x40 MLOAD DUP9 PUSH4 0xFFFFFFFF AND PUSH1 0xE0 SHL DUP2 MSTORE PUSH1 0x4 ADD PUSH2 0xD48 SWAP8 SWAP7 SWAP6 SWAP5 SWAP4 SWAP3 SWAP2 SWAP1 PUSH2 0x2C67 JUMP JUMPDEST PUSH1 0x0 PUSH1 0x40 MLOAD DUP1 DUP4 SUB DUP2 PUSH1 0x0 DUP8 DUP1 EXTCODESIZE ISZERO DUP1 ISZERO PUSH2 0xD62 JUMPI PUSH1 0x0 DUP1 REVERT JUMPDEST POP GAS CALL ISZERO DUP1 ISZERO PUSH2 0xD76 JUMPI RETURNDATASIZE PUSH1 0x0 DUP1 RETURNDATACOPY RETURNDATASIZE PUSH1 0x0 REVERT JUMPDEST POP POP POP POP PUSH1 0xE DUP13 DUP13 PUSH1 0x40 MLOAD PUSH2 0xD8C SWAP3 SWAP2 SWAP1 PUSH2 0x2B2F JUMP JUMPDEST SWAP1 DUP2 MSTORE PUSH1 0x20 ADD PUSH1 0x40 MLOAD DUP1 SWAP2 SUB SWAP1 KECCAK256 PUSH1 0x0 DUP12 PUSH1 0x1 DUP2 GT ISZERO PUSH2 0xDAE JUMPI PUSH2 0xDAE PUSH2 0x2B19 JUMP JUMPDEST PUSH1 0x1 DUP2 GT ISZERO PUSH2 0xDBF JUMPI PUSH2 0xDBF PUSH2 0x2B19 JUMP JUMPDEST DUP2 MSTORE PUSH1 0x20 ADD SWAP1 DUP2 MSTORE PUSH1 0x20 ADD PUSH1 0x0 KECCAK256 PUSH1 0x0 DUP11 PUSH1 0x0 DUP2 GT ISZERO PUSH2 0xDE1 JUMPI PUSH2 0xDE1 PUSH2 0x2B19 JUMP JUMPDEST DUP1 ISZERO PUSH2 0xDEF JUMPI PUSH2 0xDEF PUSH2 0x2B19 JUMP JUMPDEST DUP2 MSTORE PUSH1 0x20 DUP1 DUP3 ADD SWAP3 SWAP1 SWAP3 MSTORE PUSH1 0x40 SWAP1 DUP2 ADD PUSH1 0x0 SWAP1 DUP2 KECCAK256 PUSH1 0xFF DUP13 AND DUP3 MSTORE DUP4 MSTORE DUP2 DUP2 KECCAK256 PUSH2 0xFFFF DUP12 AND DUP3 MSTORE DUP4 MSTORE DUP2 DUP2 KECCAK256 CALLER DUP3 MSTORE SWAP1 SWAP3 MSTORE SWAP1 DUP2 SWAP1 KECCAK256 SLOAD SWAP1 MLOAD PUSH1 0xF SWAP1 PUSH2 0xE38 SWAP1 DUP16 SWAP1 DUP16 SWAP1 PUSH2 0x2B2F JUMP JUMPDEST SWAP1 DUP2 MSTORE PUSH1 0x40 DUP1 MLOAD SWAP2 DUP3 SWAP1 SUB PUSH1 0x20 SWAP1 DUP2 ADD DUP4 KECCAK256 PUSH1 0x0 DUP7 DUP2 MSTORE SWAP2 MSTORE KECCAK256 SWAP2 SWAP1 SWAP2 SSTORE PUSH1 0xE SWAP1 PUSH2 0xE66 SWAP1 DUP15 SWAP1 DUP15 SWAP1 PUSH2 0x2B2F JUMP JUMPDEST SWAP1 DUP2 MSTORE PUSH1 0x20 ADD PUSH1 0x40 MLOAD DUP1 SWAP2 SUB SWAP1 KECCAK256 PUSH1 0x0 DUP12 PUSH1 0x1 DUP2 GT ISZERO PUSH2 0xE88 JUMPI PUSH2 0xE88 PUSH2 0x2B19 JUMP JUMPDEST PUSH1 0x1 DUP2 GT ISZERO PUSH2 0xE99 JUMPI PUSH2 0xE99 PUSH2 0x2B19 JUMP JUMPDEST DUP2 MSTORE PUSH1 0x20 ADD SWAP1 DUP2 MSTORE PUSH1 0x20 ADD PUSH1 0x0 KECCAK256 PUSH1 0x0 DUP11 PUSH1 0x0 DUP2 GT ISZERO PUSH2 0xEBB JUMPI PUSH2 0xEBB PUSH2 0x2B19 JUMP JUMPDEST DUP1 ISZERO PUSH2 0xEC9 JUMPI PUSH2 0xEC9 PUSH2 0x2B19 JUMP JUMPDEST DUP2 MSTORE PUSH1 0x20 DUP1 DUP3 ADD SWAP3 SWAP1 SWAP3 MSTORE PUSH1 0x40 SWAP1 DUP2 ADD PUSH1 0x0 SWAP1 DUP2 KECCAK256 PUSH1 0xFF DUP13 AND DUP3 MSTORE DUP4 MSTORE DUP2 DUP2 KECCAK256 PUSH2 0xFFFF DUP12 AND DUP3 MSTORE DUP4 MSTORE DUP2 DUP2 KECCAK256 CALLER DUP3 MSTORE SWAP1 SWAP3 MSTORE DUP1 DUP3 KECCAK256 SWAP2 SWAP1 SWAP2 SSTORE MLOAD PUSH32 0x5089770ECCE0ED387BAF1E3B000FCC13BD3C2205D6205F06AFEB547DB5F2321E SWAP1 PUSH2 0xF34 SWAP1 DUP15 SWAP1 DUP15 SWAP1 DUP6 SWAP1 PUSH2 0x2CB6 JUMP JUMPDEST PUSH1 0x40 MLOAD DUP1 SWAP2 SUB SWAP1 LOG1 SWAP12 SWAP11 POP POP POP POP POP POP POP POP POP POP POP JUMP JUMPDEST DUP6 DUP6 PUSH1 0x1 PUSH1 0xB DUP4 DUP4 PUSH1 0x40 MLOAD PUSH2 0xF61 SWAP3 SWAP2 SWAP1 PUSH2 0x2B2F JUMP JUMPDEST SWAP1 DUP2 MSTORE PUSH1 0x40 MLOAD SWAP1 DUP2 SWAP1 SUB PUSH1 0x20 ADD SWAP1 KECCAK256 SLOAD PUSH1 0xFF AND PUSH1 0x1 DUP2 GT ISZERO PUSH2 0xF85 JUMPI PUSH2 0xF85 PUSH2 0x2B19 JUMP JUMPDEST EQ ISZERO PUSH2 0xFA8 JUMPI DUP2 DUP2 PUSH1 0x40 MLOAD PUSH4 0x1B21B921 PUSH1 0xE0 SHL DUP2 MSTORE PUSH1 0x4 ADD PUSH2 0x2B8 SWAP3 SWAP2 SWAP1 PUSH2 0x2B68 JUMP JUMPDEST CALLVALUE PUSH1 0x0 DUP2 GT PUSH2 0xFCD JUMPI PUSH1 0x40 MLOAD PUSH4 0xD59F5FF PUSH1 0xE4 SHL DUP2 MSTORE PUSH1 0x4 DUP2 ADD DUP3 SWAP1 MSTORE PUSH1 0x24 ADD PUSH2 0x2B8 JUMP JUMPDEST DUP5 PUSH2 0xFFFF AND PUSH2 0x3E8 DUP2 GT PUSH2 0xFF7 JUMPI PUSH1 0x40 MLOAD PUSH4 0x28317CC3 PUSH1 0xE2 SHL DUP2 MSTORE PUSH1 0x4 DUP2 ADD DUP3 SWAP1 MSTORE PUSH1 0x24 ADD PUSH2 0x2B8 JUMP JUMPDEST PUSH1 0x0 PUSH2 0x3E8 PUSH2 0x1006 DUP2 DUP10 PUSH2 0x2CDA JUMP JUMPDEST PUSH2 0x1014 SWAP1 PUSH2 0xFFFF AND DUP9 PUSH2 0x2BEB JUMP JUMPDEST PUSH2 0x101E SWAP2 SWAP1 PUSH2 0x2CFD JUMP JUMPDEST SWAP1 POP CALLVALUE DUP2 EQ PUSH2 0x107E JUMPI PUSH1 0x40 MLOAD PUSH3 0x461BCD PUSH1 0xE5 SHL DUP2 MSTORE PUSH1 0x20 PUSH1 0x4 DUP3 ADD MSTORE PUSH1 0x26 PUSH1 0x24 DUP3 ADD MSTORE PUSH32 0x4C6971696469747920616E642073656E642076616C756520617265206E6F7420 PUSH1 0x44 DUP3 ADD MSTORE PUSH6 0x657175616C21 PUSH1 0xD0 SHL PUSH1 0x64 DUP3 ADD MSTORE PUSH1 0x84 ADD PUSH2 0x2B8 JUMP JUMPDEST PUSH2 0x10C6 DUP12 DUP12 DUP1 DUP1 PUSH1 0x1F ADD PUSH1 0x20 DUP1 SWAP2 DIV MUL PUSH1 0x20 ADD PUSH1 0x40 MLOAD SWAP1 DUP2 ADD PUSH1 0x40 MSTORE DUP1 SWAP4 SWAP3 SWAP2 SWAP1 DUP2 DUP2 MSTORE PUSH1 0x20 ADD DUP4 DUP4 DUP1 DUP3 DUP5 CALLDATACOPY PUSH1 0x0 SWAP3 ADD SWAP2 SWAP1 SWAP2 MSTORE POP PUSH1 0x1 SWAP3 POP DUP14 SWAP2 POP DUP13 SWAP1 POP DUP12 DUP12 CALLER PUSH2 0x17CC JUMP JUMPDEST POP POP POP POP POP POP POP POP POP POP POP JUMP JUMPDEST PUSH1 0x0 SLOAD PUSH1 0x1 PUSH1 0x1 PUSH1 0xA0 SHL SUB AND CALLER EQ PUSH2 0x112D JUMPI PUSH1 0x40 MLOAD PUSH3 0x461BCD PUSH1 0xE5 SHL DUP2 MSTORE PUSH1 0x20 PUSH1 0x4 DUP3 ADD DUP2 SWAP1 MSTORE PUSH1 0x24 DUP3 ADD MSTORE PUSH32 0x4F776E61626C653A2063616C6C6572206973206E6F7420746865206F776E6572 PUSH1 0x44 DUP3 ADD MSTORE PUSH1 0x64 ADD PUSH2 0x2B8 JUMP JUMPDEST PUSH1 0x1 PUSH1 0x1 PUSH1 0xA0 SHL SUB DUP2 AND PUSH2 0x1192 JUMPI PUSH1 0x40 MLOAD PUSH3 0x461BCD PUSH1 0xE5 SHL DUP2 MSTORE PUSH1 0x20 PUSH1 0x4 DUP3 ADD MSTORE PUSH1 0x26 PUSH1 0x24 DUP3 ADD MSTORE PUSH32 0x4F776E61626C653A206E6577206F776E657220697320746865207A65726F2061 PUSH1 0x44 DUP3 ADD MSTORE PUSH6 0x646472657373 PUSH1 0xD0 SHL PUSH1 0x64 DUP3 ADD MSTORE PUSH1 0x84 ADD PUSH2 0x2B8 JUMP JUMPDEST PUSH2 0x119B DUP2 PUSH2 0x1BD4 JUMP JUMPDEST POP JUMP JUMPDEST PUSH1 0x0 DUP1 PUSH1 0x12 DUP6 PUSH1 0x40 MLOAD PUSH2 0x11B1 SWAP2 SWAP1 PUSH2 0x2AFD JUMP JUMPDEST SWAP1 DUP2 MSTORE PUSH1 0x40 MLOAD SWAP1 DUP2 SWAP1 SUB PUSH1 0x20 ADD SWAP1 KECCAK256 SLOAD PUSH1 0xFF AND SWAP1 POP DUP1 PUSH2 0x11FF JUMPI PUSH1 0x40 MLOAD PUSH3 0x461BCD PUSH1 0xE5 SHL DUP2 MSTORE PUSH1 0x20 PUSH1 0x4 DUP3 ADD MSTORE PUSH1 0x9 PUSH1 0x24 DUP3 ADD MSTORE PUSH9 0x139BC81C995CDD5B1D PUSH1 0xBA SHL PUSH1 0x44 DUP3 ADD MSTORE PUSH1 0x64 ADD PUSH2 0x2B8 JUMP JUMPDEST PUSH1 0xFF DUP4 AND PUSH2 0x1240 JUMPI PUSH1 0x0 DUP5 PUSH1 0x1 DUP2 GT ISZERO PUSH2 0x121B JUMPI PUSH2 0x121B PUSH2 0x2B19 JUMP JUMPDEST EQ ISZERO PUSH2 0x1230 JUMPI DUP1 PUSH1 0xFF AND PUSH1 0x1 EQ SWAP2 POP POP PUSH2 0x8D5 JUMP JUMPDEST DUP1 PUSH1 0xFF AND PUSH1 0x1 EQ ISZERO SWAP2 POP POP PUSH2 0x8D5 JUMP JUMPDEST DUP3 PUSH1 0xFF AND PUSH1 0x1 EQ ISZERO PUSH2 0x1285 JUMPI PUSH1 0x0 DUP5 PUSH1 0x1 DUP2 GT ISZERO PUSH2 0x1260 JUMPI PUSH2 0x1260 PUSH2 0x2B19 JUMP JUMPDEST EQ ISZERO PUSH2 0x1275 JUMPI DUP1 PUSH1 0xFF AND PUSH1 0x3 EQ SWAP2 POP POP PUSH2 0x8D5 JUMP JUMPDEST DUP1 PUSH1 0xFF AND PUSH1 0x3 EQ ISZERO SWAP2 POP POP PUSH2 0x8D5 JUMP JUMPDEST PUSH1 0x0 DUP5 PUSH1 0x1 DUP2 GT ISZERO PUSH2 0x1299 JUMPI PUSH2 0x1299 PUSH2 0x2B19 JUMP JUMPDEST EQ ISZERO PUSH2 0x12AE JUMPI DUP1 PUSH1 0xFF AND PUSH1 0x2 EQ SWAP2 POP POP PUSH2 0x8D5 JUMP JUMPDEST PUSH1 0xFF AND PUSH1 0x2 EQ ISZERO SWAP5 SWAP4 POP POP POP POP JUMP JUMPDEST PUSH1 0x1 PUSH1 0xB DUP3 PUSH1 0x40 MLOAD PUSH2 0x12CF SWAP2 SWAP1 PUSH2 0x2AFD JUMP JUMPDEST SWAP1 DUP2 MSTORE PUSH1 0x40 MLOAD SWAP1 DUP2 SWAP1 SUB PUSH1 0x20 ADD SWAP1 KECCAK256 DUP1 SLOAD PUSH1 0xFF NOT AND PUSH1 0x1 DUP4 DUP2 DUP2 GT ISZERO PUSH2 0x12F7 JUMPI PUSH2 0x12F7 PUSH2 0x2B19 JUMP JUMPDEST MUL OR SWAP1 SSTORE POP PUSH1 0x0 JUMPDEST PUSH1 0x1 DUP2 PUSH1 0xFF AND LT ISZERO PUSH2 0x17C8 JUMPI PUSH1 0x0 PUSH1 0xFF DUP3 AND DUP1 ISZERO PUSH2 0x131F JUMPI PUSH2 0x131F PUSH2 0x2B19 JUMP JUMPDEST SWAP1 POP PUSH1 0x0 JUMPDEST PUSH1 0x3 DUP2 PUSH1 0xFF AND LT ISZERO PUSH2 0x17B3 JUMPI DUP1 PUSH1 0x0 PUSH2 0x133E DUP7 DUP3 DUP5 PUSH2 0x119E JUMP JUMPDEST SWAP1 POP PUSH1 0x0 PUSH1 0x1 DUP3 ISZERO ISZERO EQ PUSH2 0x1353 JUMPI PUSH1 0x1 PUSH2 0x1356 JUMP JUMPDEST PUSH1 0x0 JUMPDEST SWAP1 POP PUSH1 0x0 PUSH1 0xD DUP9 PUSH1 0x40 MLOAD PUSH2 0x136A SWAP2 SWAP1 PUSH2 0x2AFD JUMP JUMPDEST SWAP1 DUP2 MSTORE PUSH1 0x20 ADD PUSH1 0x40 MLOAD DUP1 SWAP2 SUB SWAP1 KECCAK256 PUSH1 0x0 DUP4 PUSH1 0x1 DUP2 GT ISZERO PUSH2 0x138C JUMPI PUSH2 0x138C PUSH2 0x2B19 JUMP JUMPDEST PUSH1 0x1 DUP2 GT ISZERO PUSH2 0x139D JUMPI PUSH2 0x139D PUSH2 0x2B19 JUMP JUMPDEST DUP2 MSTORE PUSH1 0x20 ADD SWAP1 DUP2 MSTORE PUSH1 0x20 ADD PUSH1 0x0 KECCAK256 PUSH1 0x0 DUP8 PUSH1 0x0 DUP2 GT ISZERO PUSH2 0x13BF JUMPI PUSH2 0x13BF PUSH2 0x2B19 JUMP JUMPDEST DUP1 ISZERO PUSH2 0x13CD JUMPI PUSH2 0x13CD PUSH2 0x2B19 JUMP JUMPDEST DUP2 MSTORE PUSH1 0x20 ADD SWAP1 DUP2 MSTORE PUSH1 0x20 ADD PUSH1 0x0 KECCAK256 PUSH1 0x0 DUP6 PUSH1 0xFF AND PUSH1 0xFF AND DUP2 MSTORE PUSH1 0x20 ADD SWAP1 DUP2 MSTORE PUSH1 0x20 ADD PUSH1 0x0 KECCAK256 DUP1 SLOAD DUP1 PUSH1 0x20 MUL PUSH1 0x20 ADD PUSH1 0x40 MLOAD SWAP1 DUP2 ADD PUSH1 0x40 MSTORE DUP1 SWAP3 SWAP2 SWAP1 DUP2 DUP2 MSTORE PUSH1 0x20 ADD PUSH1 0x0 SWAP1 JUMPDEST DUP3 DUP3 LT ISZERO PUSH2 0x147E JUMPI PUSH1 0x0 DUP5 DUP2 MSTORE PUSH1 0x20 SWAP1 DUP2 SWAP1 KECCAK256 PUSH1 0x40 DUP1 MLOAD PUSH1 0x80 DUP2 ADD DUP3 MSTORE PUSH1 0x2 DUP7 MUL SWAP1 SWAP3 ADD DUP1 SLOAD DUP4 MSTORE PUSH1 0x1 SWAP1 DUP2 ADD SLOAD PUSH2 0xFFFF DUP2 AND DUP5 DUP7 ADD MSTORE PUSH3 0x10000 DUP2 DIV PUSH1 0x1 PUSH1 0x1 PUSH1 0xA0 SHL SUB AND SWAP3 DUP5 ADD SWAP3 SWAP1 SWAP3 MSTORE PUSH1 0x1 PUSH1 0xB0 SHL SWAP1 SWAP2 DIV PUSH1 0xFF AND ISZERO ISZERO PUSH1 0x60 DUP4 ADD MSTORE SWAP1 DUP4 MSTORE SWAP1 SWAP3 ADD SWAP2 ADD PUSH2 0x1412 JUMP JUMPDEST POP POP POP POP SWAP1 POP PUSH1 0x0 JUMPDEST DUP2 MLOAD DUP2 LT ISZERO PUSH2 0x179B JUMPI DUP2 DUP2 DUP2 MLOAD DUP2 LT PUSH2 0x14A2 JUMPI PUSH2 0x14A2 PUSH2 0x2B7C JUMP JUMPDEST PUSH1 0x20 MUL PUSH1 0x20 ADD ADD MLOAD PUSH1 0x60 ADD MLOAD ISZERO PUSH2 0x1541 JUMPI PUSH1 0x0 PUSH2 0x14FD DUP11 DUP6 DUP11 DUP10 DUP8 DUP8 DUP2 MLOAD DUP2 LT PUSH2 0x14CE JUMPI PUSH2 0x14CE PUSH2 0x2B7C JUMP JUMPDEST PUSH1 0x20 MUL PUSH1 0x20 ADD ADD MLOAD PUSH1 0x20 ADD MLOAD DUP9 DUP9 DUP2 MLOAD DUP2 LT PUSH2 0x14EC JUMPI PUSH2 0x14EC PUSH2 0x2B7C JUMP JUMPDEST PUSH1 0x20 MUL PUSH1 0x20 ADD ADD MLOAD PUSH1 0x40 ADD MLOAD PUSH2 0x1C86 JUMP JUMPDEST SWAP1 POP PUSH1 0x1 PUSH1 0x10 DUP12 PUSH1 0x40 MLOAD PUSH2 0x1511 SWAP2 SWAP1 PUSH2 0x2AFD JUMP JUMPDEST SWAP1 DUP2 MSTORE PUSH1 0x40 DUP1 MLOAD PUSH1 0x20 SWAP3 DUP2 SWAP1 SUB DUP4 ADD SWAP1 KECCAK256 PUSH1 0x0 SWAP5 DUP6 MSTORE SWAP1 SWAP2 MSTORE SWAP1 SWAP2 KECCAK256 DUP1 SLOAD PUSH1 0xFF NOT AND SWAP2 ISZERO ISZERO SWAP2 SWAP1 SWAP2 OR SWAP1 SSTORE PUSH2 0x1789 JUMP JUMPDEST PUSH2 0x1676 DUP3 DUP3 DUP2 MLOAD DUP2 LT PUSH2 0x1556 JUMPI PUSH2 0x1556 PUSH2 0x2B7C JUMP JUMPDEST PUSH1 0x20 MUL PUSH1 0x20 ADD ADD MLOAD PUSH1 0x40 ADD MLOAD PUSH1 0xE DUP12 PUSH1 0x40 MLOAD PUSH2 0x1572 SWAP2 SWAP1 PUSH2 0x2AFD JUMP JUMPDEST SWAP1 DUP2 MSTORE PUSH1 0x20 ADD PUSH1 0x40 MLOAD DUP1 SWAP2 SUB SWAP1 KECCAK256 PUSH1 0x0 DUP7 PUSH1 0x1 DUP2 GT ISZERO PUSH2 0x1594 JUMPI PUSH2 0x1594 PUSH2 0x2B19 JUMP JUMPDEST PUSH1 0x1 DUP2 GT ISZERO PUSH2 0x15A5 JUMPI PUSH2 0x15A5 PUSH2 0x2B19 JUMP JUMPDEST DUP2 MSTORE PUSH1 0x20 ADD SWAP1 DUP2 MSTORE PUSH1 0x20 ADD PUSH1 0x0 KECCAK256 PUSH1 0x0 DUP11 PUSH1 0x0 DUP2 GT ISZERO PUSH2 0x15C7 JUMPI PUSH2 0x15C7 PUSH2 0x2B19 JUMP JUMPDEST DUP1 ISZERO PUSH2 0x15D5 JUMPI PUSH2 0x15D5 PUSH2 0x2B19 JUMP JUMPDEST DUP2 MSTORE PUSH1 0x20 ADD SWAP1 DUP2 MSTORE PUSH1 0x20 ADD PUSH1 0x0 KECCAK256 PUSH1 0x0 DUP9 PUSH1 0xFF AND PUSH1 0xFF AND DUP2 MSTORE PUSH1 0x20 ADD SWAP1 DUP2 MSTORE PUSH1 0x20 ADD PUSH1 0x0 KECCAK256 PUSH1 0x0 DUP6 DUP6 DUP2 MLOAD DUP2 LT PUSH2 0x160E JUMPI PUSH2 0x160E PUSH2 0x2B7C JUMP JUMPDEST PUSH1 0x20 MUL PUSH1 0x20 ADD ADD MLOAD PUSH1 0x20 ADD MLOAD PUSH2 0xFFFF AND PUSH2 0xFFFF AND DUP2 MSTORE PUSH1 0x20 ADD SWAP1 DUP2 MSTORE PUSH1 0x20 ADD PUSH1 0x0 KECCAK256 PUSH1 0x0 DUP6 DUP6 DUP2 MLOAD DUP2 LT PUSH2 0x1644 JUMPI PUSH2 0x1644 PUSH2 0x2B7C JUMP JUMPDEST PUSH1 0x20 MUL PUSH1 0x20 ADD ADD MLOAD PUSH1 0x40 ADD MLOAD PUSH1 0x1 PUSH1 0x1 PUSH1 0xA0 SHL SUB AND PUSH1 0x1 PUSH1 0x1 PUSH1 0xA0 SHL SUB AND DUP2 MSTORE PUSH1 0x20 ADD SWAP1 DUP2 MSTORE PUSH1 0x20 ADD PUSH1 0x0 KECCAK256 SLOAD PUSH2 0x1B99 JUMP JUMPDEST PUSH1 0xE DUP10 PUSH1 0x40 MLOAD PUSH2 0x1686 SWAP2 SWAP1 PUSH2 0x2AFD JUMP JUMPDEST SWAP1 DUP2 MSTORE PUSH1 0x20 ADD PUSH1 0x40 MLOAD DUP1 SWAP2 SUB SWAP1 KECCAK256 PUSH1 0x0 DUP5 PUSH1 0x1 DUP2 GT ISZERO PUSH2 0x16A8 JUMPI PUSH2 0x16A8 PUSH2 0x2B19 JUMP JUMPDEST PUSH1 0x1 DUP2 GT ISZERO PUSH2 0x16B9 JUMPI PUSH2 0x16B9 PUSH2 0x2B19 JUMP JUMPDEST DUP2 MSTORE PUSH1 0x20 ADD SWAP1 DUP2 MSTORE PUSH1 0x20 ADD PUSH1 0x0 KECCAK256 PUSH1 0x0 DUP9 PUSH1 0x0 DUP2 GT ISZERO PUSH2 0x16DB JUMPI PUSH2 0x16DB PUSH2 0x2B19 JUMP JUMPDEST DUP1 ISZERO PUSH2 0x16E9 JUMPI PUSH2 0x16E9 PUSH2 0x2B19 JUMP JUMPDEST DUP2 MSTORE PUSH1 0x20 ADD SWAP1 DUP2 MSTORE PUSH1 0x20 ADD PUSH1 0x0 KECCAK256 PUSH1 0x0 DUP7 PUSH1 0xFF AND PUSH1 0xFF AND DUP2 MSTORE PUSH1 0x20 ADD SWAP1 DUP2 MSTORE PUSH1 0x20 ADD PUSH1 0x0 KECCAK256 PUSH1 0x0 DUP4 DUP4 DUP2 MLOAD DUP2 LT PUSH2 0x1722 JUMPI PUSH2 0x1722 PUSH2 0x2B7C JUMP JUMPDEST PUSH1 0x20 MUL PUSH1 0x20 ADD ADD MLOAD PUSH1 0x20 ADD MLOAD PUSH2 0xFFFF AND PUSH2 0xFFFF AND DUP2 MSTORE PUSH1 0x20 ADD SWAP1 DUP2 MSTORE PUSH1 0x20 ADD PUSH1 0x0 KECCAK256 PUSH1 0x0 DUP4 DUP4 DUP2 MLOAD DUP2 LT PUSH2 0x1758 JUMPI PUSH2 0x1758 PUSH2 0x2B7C JUMP JUMPDEST PUSH1 0x20 MUL PUSH1 0x20 ADD ADD MLOAD PUSH1 0x40 ADD MLOAD PUSH1 0x1 PUSH1 0x1 PUSH1 0xA0 SHL SUB AND PUSH1 0x1 PUSH1 0x1 PUSH1 0xA0 SHL SUB AND DUP2 MSTORE PUSH1 0x20 ADD SWAP1 DUP2 MSTORE PUSH1 0x20 ADD PUSH1 0x0 KECCAK256 PUSH1 0x0 SWAP1 SSTORE JUMPDEST DUP1 PUSH2 0x1793 DUP2 PUSH2 0x2C4C JUMP JUMPDEST SWAP2 POP POP PUSH2 0x1487 JUMP JUMPDEST POP POP POP POP POP DUP1 DUP1 PUSH2 0x17AB SWAP1 PUSH2 0x2BA8 JUMP JUMPDEST SWAP2 POP POP PUSH2 0x1324 JUMP JUMPDEST POP POP DUP1 DUP1 PUSH2 0x17C0 SWAP1 PUSH2 0x2BA8 JUMP JUMPDEST SWAP2 POP POP PUSH2 0x12FF JUMP JUMPDEST POP POP JUMP JUMPDEST PUSH1 0x0 DUP7 PUSH1 0x1 DUP2 GT ISZERO PUSH2 0x17E0 JUMPI PUSH2 0x17E0 PUSH2 0x2B19 JUMP JUMPDEST ISZERO PUSH2 0x17EC JUMPI PUSH1 0x0 PUSH2 0x17EF JUMP JUMPDEST PUSH1 0x1 JUMPDEST SWAP1 POP PUSH1 0x0 PUSH1 0xC DUP10 PUSH1 0x40 MLOAD PUSH2 0x1803 SWAP2 SWAP1 PUSH2 0x2AFD JUMP JUMPDEST SWAP1 DUP2 MSTORE PUSH1 0x20 ADD PUSH1 0x40 MLOAD DUP1 SWAP2 SUB SWAP1 KECCAK256 PUSH1 0x0 DUP4 PUSH1 0x1 DUP2 GT ISZERO PUSH2 0x1825 JUMPI PUSH2 0x1825 PUSH2 0x2B19 JUMP JUMPDEST PUSH1 0x1 DUP2 GT ISZERO PUSH2 0x1836 JUMPI PUSH2 0x1836 PUSH2 0x2B19 JUMP JUMPDEST DUP2 MSTORE PUSH1 0x20 ADD SWAP1 DUP2 MSTORE PUSH1 0x20 ADD PUSH1 0x0 KECCAK256 PUSH1 0x0 DUP9 PUSH1 0x0 DUP2 GT ISZERO PUSH2 0x1858 JUMPI PUSH2 0x1858 PUSH2 0x2B19 JUMP JUMPDEST DUP1 ISZERO PUSH2 0x1866 JUMPI PUSH2 0x1866 PUSH2 0x2B19 JUMP JUMPDEST DUP2 MSTORE PUSH1 0x20 DUP1 DUP3 ADD SWAP3 SWAP1 SWAP3 MSTORE PUSH1 0x40 SWAP1 DUP2 ADD PUSH1 0x0 SWAP1 DUP2 KECCAK256 PUSH1 0xFF DUP11 AND DUP3 MSTORE DUP4 MSTORE DUP2 DUP2 KECCAK256 PUSH2 0xFFFF DUP10 AND DUP3 MSTORE DUP4 MSTORE DUP2 DUP2 KECCAK256 DUP1 SLOAD DUP4 MLOAD DUP2 DUP7 MUL DUP2 ADD DUP7 ADD SWAP1 SWAP5 MSTORE DUP1 DUP5 MSTORE SWAP3 SWAP4 SWAP1 SWAP3 SWAP2 SWAP1 DUP5 ADD JUMPDEST DUP3 DUP3 LT ISZERO PUSH2 0x18F4 JUMPI PUSH1 0x0 DUP5 DUP2 MSTORE PUSH1 0x20 SWAP1 DUP2 SWAP1 KECCAK256 PUSH1 0x40 DUP1 MLOAD DUP1 DUP3 ADD SWAP1 SWAP2 MSTORE PUSH1 0x2 DUP6 MUL SWAP1 SWAP2 ADD DUP1 SLOAD DUP3 MSTORE PUSH1 0x1 SWAP1 DUP2 ADD SLOAD PUSH1 0x1 PUSH1 0x1 PUSH1 0xA0 SHL SUB AND DUP3 DUP5 ADD MSTORE SWAP1 DUP4 MSTORE SWAP1 SWAP3 ADD SWAP2 ADD PUSH2 0x18AC JUMP JUMPDEST POP POP POP POP SWAP1 POP DUP1 MLOAD PUSH1 0x0 EQ ISZERO PUSH2 0x191A JUMPI PUSH2 0x1913 DUP10 DUP10 DUP10 DUP10 DUP10 DUP10 DUP10 PUSH2 0x1CCA JUMP JUMPDEST POP POP PUSH2 0x1B90 JUMP JUMPDEST DUP4 PUSH1 0x0 JUMPDEST DUP3 MLOAD DUP2 LT ISZERO PUSH2 0x1B68 JUMPI PUSH1 0x0 DUP4 DUP3 DUP2 MLOAD DUP2 LT PUSH2 0x193B JUMPI PUSH2 0x193B PUSH2 0x2B7C JUMP JUMPDEST PUSH1 0x20 MUL PUSH1 0x20 ADD ADD MLOAD PUSH1 0x0 ADD MLOAD DUP4 GT ISZERO PUSH2 0x1981 JUMPI DUP4 DUP3 DUP2 MLOAD DUP2 LT PUSH2 0x1960 JUMPI PUSH2 0x1960 PUSH2 0x2B7C JUMP JUMPDEST PUSH1 0x20 MUL PUSH1 0x20 ADD ADD MLOAD PUSH1 0x0 ADD MLOAD SWAP1 POP DUP1 DUP4 PUSH2 0x197A SWAP2 SWAP1 PUSH2 0x2D11 JUMP JUMPDEST SWAP3 POP PUSH2 0x1990 JUMP JUMPDEST POP DUP2 PUSH2 0x198D DUP2 DUP1 PUSH2 0x2D11 JUMP JUMPDEST SWAP3 POP JUMPDEST PUSH2 0x19BC DUP13 DUP7 DUP13 DUP13 DUP13 DUP7 DUP11 DUP10 DUP2 MLOAD DUP2 LT PUSH2 0x19AB JUMPI PUSH2 0x19AB PUSH2 0x2B7C JUMP JUMPDEST PUSH1 0x20 MUL PUSH1 0x20 ADD ADD MLOAD PUSH1 0x20 ADD MLOAD PUSH2 0x1E07 JUMP JUMPDEST DUP4 DUP3 DUP2 MLOAD DUP2 LT PUSH2 0x19CE JUMPI PUSH2 0x19CE PUSH2 0x2B7C JUMP JUMPDEST PUSH1 0x20 MUL PUSH1 0x20 ADD ADD MLOAD PUSH1 0x0 ADD MLOAD DUP2 EQ ISZERO PUSH2 0x1A87 JUMPI PUSH32 0xADE976E65F3978AA3968AF04901755321152BA32B08EE0175E035760C11C1B5 DUP13 DUP7 DUP13 DUP13 DUP13 DUP7 DUP11 DUP10 DUP2 MLOAD DUP2 LT PUSH2 0x1A1A JUMPI PUSH2 0x1A1A PUSH2 0x2B7C JUMP JUMPDEST PUSH1 0x20 MUL PUSH1 0x20 ADD ADD MLOAD PUSH1 0x20 ADD MLOAD PUSH1 0x40 MLOAD PUSH2 0x1A39 SWAP8 SWAP7 SWAP6 SWAP5 SWAP4 SWAP3 SWAP2 SWAP1 PUSH2 0x2D4C JUMP JUMPDEST PUSH1 0x40 MLOAD DUP1 SWAP2 SUB SWAP1 LOG1 DUP4 DUP3 DUP2 MLOAD DUP2 LT PUSH2 0x1A53 JUMPI PUSH2 0x1A53 PUSH2 0x2B7C JUMP JUMPDEST PUSH1 0x20 MUL PUSH1 0x20 ADD ADD PUSH2 0x1A80 PUSH1 0x40 MLOAD DUP1 PUSH1 0x40 ADD PUSH1 0x40 MSTORE DUP1 PUSH1 0x0 DUP2 MSTORE PUSH1 0x20 ADD PUSH1 0x0 PUSH1 0x1 PUSH1 0x1 PUSH1 0xA0 SHL SUB AND DUP2 MSTORE POP SWAP1 JUMP JUMPDEST SWAP1 MSTORE PUSH2 0x1B37 JUMP JUMPDEST DUP1 DUP5 DUP4 DUP2 MLOAD DUP2 LT PUSH2 0x1A9A JUMPI PUSH2 0x1A9A PUSH2 0x2B7C JUMP JUMPDEST PUSH1 0x20 MUL PUSH1 0x20 ADD ADD MLOAD PUSH1 0x0 ADD DUP2 DUP2 MLOAD PUSH2 0x1AB2 SWAP2 SWAP1 PUSH2 0x2D11 JUMP JUMPDEST SWAP2 POP DUP2 DUP2 MSTORE POP POP PUSH32 0x3F3925F6AFE1AB09977BA289DC98C6334B2773372C1F7EAF605CEDB85C643F01 DUP13 DUP7 DUP13 DUP13 DUP13 DUP10 DUP9 DUP2 MLOAD DUP2 LT PUSH2 0x1AF1 JUMPI PUSH2 0x1AF1 PUSH2 0x2B7C JUMP JUMPDEST PUSH1 0x20 MUL PUSH1 0x20 ADD ADD MLOAD PUSH1 0x0 ADD MLOAD DUP11 DUP10 DUP2 MLOAD DUP2 LT PUSH2 0x1B0F JUMPI PUSH2 0x1B0F PUSH2 0x2B7C JUMP JUMPDEST PUSH1 0x20 MUL PUSH1 0x20 ADD ADD MLOAD PUSH1 0x20 ADD MLOAD PUSH1 0x40 MLOAD PUSH2 0x1B2E SWAP8 SWAP7 SWAP6 SWAP5 SWAP4 SWAP3 SWAP2 SWAP1 PUSH2 0x2D4C JUMP JUMPDEST PUSH1 0x40 MLOAD DUP1 SWAP2 SUB SWAP1 LOG1 JUMPDEST DUP3 PUSH2 0x1B55 JUMPI PUSH2 0x1B4B DUP13 DUP13 DUP13 DUP13 DUP13 DUP13 DUP13 PUSH2 0x1E07 JUMP JUMPDEST POP POP POP POP POP PUSH2 0x1B90 JUMP JUMPDEST POP DUP1 PUSH2 0x1B60 DUP2 PUSH2 0x2C4C JUMP JUMPDEST SWAP2 POP POP PUSH2 0x191E JUMP JUMPDEST POP PUSH2 0x1B81 DUP11 DUP11 DUP11 DUP11 DUP11 PUSH2 0x1B7B DUP8 DUP13 PUSH2 0x2D11 JUMP JUMPDEST DUP11 PUSH2 0x1E07 JUMP JUMPDEST PUSH2 0x51F DUP11 DUP11 DUP11 DUP11 DUP11 DUP7 DUP11 PUSH2 0x1CCA JUMP JUMPDEST POP POP POP POP POP POP POP JUMP JUMPDEST PUSH1 0x40 MLOAD PUSH1 0x1 PUSH1 0x1 PUSH1 0xA0 SHL SUB DUP4 AND SWAP1 DUP3 ISZERO PUSH2 0x8FC MUL SWAP1 DUP4 SWAP1 PUSH1 0x0 DUP2 DUP2 DUP2 DUP6 DUP9 DUP9 CALL SWAP4 POP POP POP POP ISZERO DUP1 ISZERO PUSH2 0x1BCF JUMPI RETURNDATASIZE PUSH1 0x0 DUP1 RETURNDATACOPY RETURNDATASIZE PUSH1 0x0 REVERT JUMPDEST POP POP POP JUMP JUMPDEST PUSH1 0x0 DUP1 SLOAD PUSH1 0x1 PUSH1 0x1 PUSH1 0xA0 SHL SUB DUP4 DUP2 AND PUSH1 0x1 PUSH1 0x1 PUSH1 0xA0 SHL SUB NOT DUP4 AND DUP2 OR DUP5 SSTORE PUSH1 0x40 MLOAD SWAP2 SWAP1 SWAP3 AND SWAP3 DUP4 SWAP2 PUSH32 0x8BE0079C531659141344CD1FD0A4F28419497F9722A3DAAFE3B4186F6B6457E0 SWAP2 SWAP1 LOG3 POP POP JUMP JUMPDEST PUSH2 0x1C2C PUSH2 0x269D JUMP JUMPDEST PUSH2 0x1C34 PUSH2 0x269D JUMP JUMPDEST PUSH2 0x1C40 DUP2 DUP7 DUP7 DUP7 PUSH2 0x207C JUMP JUMPDEST SWAP6 SWAP5 POP POP POP POP POP JUMP JUMPDEST PUSH1 0x80 DUP4 ADD MLOAD PUSH2 0x1C58 SWAP1 DUP4 PUSH2 0x20B9 JUMP JUMPDEST PUSH1 0x80 DUP4 ADD MLOAD PUSH2 0x1BCF SWAP1 DUP3 PUSH2 0x20B9 JUMP JUMPDEST PUSH1 0x0 PUSH2 0x1C7E DUP5 DUP5 DUP5 PUSH1 0x1 PUSH4 0x20214CA3 PUSH1 0xE1 SHL PUSH2 0x20D0 JUMP JUMPDEST SWAP5 SWAP4 POP POP POP POP JUMP JUMPDEST PUSH1 0x0 DUP7 DUP3 DUP8 DUP8 DUP8 DUP8 PUSH1 0x40 MLOAD PUSH1 0x20 ADD PUSH2 0x1CA3 SWAP7 SWAP6 SWAP5 SWAP4 SWAP3 SWAP2 SWAP1 PUSH2 0x2DB0 JUMP JUMPDEST PUSH1 0x40 DUP1 MLOAD PUSH1 0x1F NOT DUP2 DUP5 SUB ADD DUP2 MSTORE SWAP2 SWAP1 MSTORE DUP1 MLOAD PUSH1 0x20 SWAP1 SWAP2 ADD KECCAK256 PUSH2 0xFFF AND SWAP8 SWAP7 POP POP POP POP POP POP POP JUMP JUMPDEST PUSH1 0xC DUP8 PUSH1 0x40 MLOAD PUSH2 0x1CDA SWAP2 SWAP1 PUSH2 0x2AFD JUMP JUMPDEST SWAP1 DUP2 MSTORE PUSH1 0x20 ADD PUSH1 0x40 MLOAD DUP1 SWAP2 SUB SWAP1 KECCAK256 PUSH1 0x0 DUP8 PUSH1 0x1 DUP2 GT ISZERO PUSH2 0x1CFC JUMPI PUSH2 0x1CFC PUSH2 0x2B19 JUMP JUMPDEST PUSH1 0x1 DUP2 GT ISZERO PUSH2 0x1D0D JUMPI PUSH2 0x1D0D PUSH2 0x2B19 JUMP JUMPDEST DUP2 MSTORE PUSH1 0x20 ADD SWAP1 DUP2 MSTORE PUSH1 0x20 ADD PUSH1 0x0 KECCAK256 PUSH1 0x0 DUP7 PUSH1 0x0 DUP2 GT ISZERO PUSH2 0x1D2F JUMPI PUSH2 0x1D2F PUSH2 0x2B19 JUMP JUMPDEST DUP1 ISZERO PUSH2 0x1D3D JUMPI PUSH2 0x1D3D PUSH2 0x2B19 JUMP JUMPDEST DUP2 MSTORE PUSH1 0x20 DUP1 DUP3 ADD SWAP3 SWAP1 SWAP3 MSTORE PUSH1 0x40 SWAP1 DUP2 ADD PUSH1 0x0 SWAP1 DUP2 KECCAK256 PUSH1 0xFF DUP9 AND DUP3 MSTORE DUP4 MSTORE DUP2 DUP2 KECCAK256 PUSH2 0xFFFF DUP8 AND DUP3 MSTORE DUP4 MSTORE DUP2 DUP2 KECCAK256 DUP3 MLOAD DUP1 DUP5 ADD DUP5 MSTORE DUP7 DUP2 MSTORE PUSH1 0x1 PUSH1 0x1 PUSH1 0xA0 SHL SUB DUP7 DUP2 AND DUP3 DUP8 ADD SWAP1 DUP2 MSTORE DUP4 SLOAD PUSH1 0x1 DUP1 DUP3 ADD DUP7 SSTORE SWAP5 DUP7 MSTORE SWAP7 SWAP1 SWAP5 KECCAK256 SWAP2 MLOAD PUSH1 0x2 SWAP1 SWAP7 MUL SWAP1 SWAP2 ADD SWAP5 DUP6 SSTORE SWAP2 MLOAD SWAP4 ADD DUP1 SLOAD PUSH1 0x1 PUSH1 0x1 PUSH1 0xA0 SHL SUB NOT AND SWAP4 SWAP1 SWAP2 AND SWAP3 SWAP1 SWAP3 OR SWAP1 SWAP2 SSTORE MLOAD PUSH32 0xD9EAD39440C1245780B4D6D60AA95D35BBAC48E0D9CDF2B29E0E33F5E75AEDBE SWAP1 PUSH2 0x1DF6 SWAP1 DUP10 SWAP1 DUP10 SWAP1 DUP10 SWAP1 DUP10 SWAP1 DUP10 SWAP1 DUP10 SWAP1 DUP10 SWAP1 PUSH2 0x2D4C JUMP JUMPDEST PUSH1 0x40 MLOAD DUP1 SWAP2 SUB SWAP1 LOG1 POP POP POP POP POP POP POP JUMP JUMPDEST DUP2 PUSH1 0x0 DUP8 PUSH1 0x1 DUP2 GT ISZERO PUSH2 0x1E1C JUMPI PUSH2 0x1E1C PUSH2 0x2B19 JUMP JUMPDEST EQ ISZERO PUSH2 0x1E4A JUMPI PUSH2 0x3E8 PUSH2 0x1E2F DUP2 DUP7 PUSH2 0x2CDA JUMP JUMPDEST PUSH2 0x1E3D SWAP1 PUSH2 0xFFFF AND DUP6 PUSH2 0x2BEB JUMP JUMPDEST PUSH2 0x1E47 SWAP2 SWAP1 PUSH2 0x2CFD JUMP JUMPDEST SWAP1 POP JUMPDEST DUP1 PUSH1 0xE DUP10 PUSH1 0x40 MLOAD PUSH2 0x1E5B SWAP2 SWAP1 PUSH2 0x2AFD JUMP JUMPDEST SWAP1 DUP2 MSTORE PUSH1 0x20 ADD PUSH1 0x40 MLOAD DUP1 SWAP2 SUB SWAP1 KECCAK256 PUSH1 0x0 DUP10 PUSH1 0x1 DUP2 GT ISZERO PUSH2 0x1E7D JUMPI PUSH2 0x1E7D PUSH2 0x2B19 JUMP JUMPDEST PUSH1 0x1 DUP2 GT ISZERO PUSH2 0x1E8E JUMPI PUSH2 0x1E8E PUSH2 0x2B19 JUMP JUMPDEST DUP2 MSTORE PUSH1 0x20 ADD SWAP1 DUP2 MSTORE PUSH1 0x20 ADD PUSH1 0x0 KECCAK256 PUSH1 0x0 DUP9 PUSH1 0x0 DUP2 GT ISZERO PUSH2 0x1EB0 JUMPI PUSH2 0x1EB0 PUSH2 0x2B19 JUMP JUMPDEST DUP1 ISZERO PUSH2 0x1EBE JUMPI PUSH2 0x1EBE PUSH2 0x2B19 JUMP JUMPDEST DUP2 MSTORE PUSH1 0x20 DUP1 DUP3 ADD SWAP3 SWAP1 SWAP3 MSTORE PUSH1 0x40 SWAP1 DUP2 ADD PUSH1 0x0 SWAP1 DUP2 KECCAK256 PUSH1 0xFF DUP11 AND DUP3 MSTORE DUP4 MSTORE DUP2 DUP2 KECCAK256 PUSH2 0xFFFF DUP10 AND DUP3 MSTORE DUP4 MSTORE DUP2 DUP2 KECCAK256 PUSH1 0x1 PUSH1 0x1 PUSH1 0xA0 SHL SUB DUP8 AND DUP3 MSTORE SWAP1 SWAP3 MSTORE DUP2 KECCAK256 DUP1 SLOAD SWAP1 SWAP2 SWAP1 PUSH2 0x1F0B SWAP1 DUP5 SWAP1 PUSH2 0x2C0A JUMP JUMPDEST SWAP1 SWAP2 SSTORE POP POP PUSH1 0x40 MLOAD PUSH1 0xD SWAP1 PUSH2 0x1F21 SWAP1 DUP11 SWAP1 PUSH2 0x2AFD JUMP JUMPDEST SWAP1 DUP2 MSTORE PUSH1 0x20 ADD PUSH1 0x40 MLOAD DUP1 SWAP2 SUB SWAP1 KECCAK256 PUSH1 0x0 DUP9 PUSH1 0x1 DUP2 GT ISZERO PUSH2 0x1F43 JUMPI PUSH2 0x1F43 PUSH2 0x2B19 JUMP JUMPDEST PUSH1 0x1 DUP2 GT ISZERO PUSH2 0x1F54 JUMPI PUSH2 0x1F54 PUSH2 0x2B19 JUMP JUMPDEST DUP2 MSTORE PUSH1 0x20 ADD SWAP1 DUP2 MSTORE PUSH1 0x20 ADD PUSH1 0x0 KECCAK256 PUSH1 0x0 DUP8 PUSH1 0x0 DUP2 GT ISZERO PUSH2 0x1F76 JUMPI PUSH2 0x1F76 PUSH2 0x2B19 JUMP JUMPDEST DUP1 ISZERO PUSH2 0x1F84 JUMPI PUSH2 0x1F84 PUSH2 0x2B19 JUMP JUMPDEST DUP2 MSTORE PUSH1 0x20 DUP1 DUP3 ADD SWAP3 SWAP1 SWAP3 MSTORE PUSH1 0x40 SWAP1 DUP2 ADD PUSH1 0x0 SWAP1 DUP2 KECCAK256 PUSH1 0xFF DUP10 AND DUP3 MSTORE DUP4 MSTORE DUP2 DUP2 KECCAK256 DUP3 MLOAD PUSH1 0x80 DUP2 ADD DUP5 MSTORE DUP8 DUP2 MSTORE PUSH2 0xFFFF DUP1 DUP11 AND DUP3 DUP8 ADD SWAP1 DUP2 MSTORE PUSH1 0x1 PUSH1 0x1 PUSH1 0xA0 SHL SUB DUP1 DUP11 AND DUP5 DUP9 ADD SWAP1 DUP2 MSTORE PUSH1 0x60 DUP6 ADD DUP8 DUP2 MSTORE DUP7 SLOAD PUSH1 0x1 DUP2 DUP2 ADD DUP10 SSTORE SWAP8 DUP10 MSTORE SWAP10 SWAP1 SWAP8 KECCAK256 SWAP5 MLOAD PUSH1 0x2 SWAP1 SWAP10 MUL SWAP1 SWAP5 ADD SWAP8 DUP9 SSTORE SWAP1 MLOAD SWAP7 SWAP1 SWAP4 ADD DUP1 SLOAD SWAP3 MLOAD SWAP5 MLOAD ISZERO ISZERO PUSH1 0x1 PUSH1 0xB0 SHL MUL PUSH1 0xFF PUSH1 0xB0 SHL NOT SWAP6 SWAP1 SWAP5 AND PUSH3 0x10000 MUL PUSH1 0x1 PUSH1 0x1 PUSH1 0xB0 SHL SUB NOT SWAP1 SWAP4 AND SWAP7 SWAP1 SWAP2 AND SWAP6 SWAP1 SWAP6 OR OR SWAP2 SWAP1 SWAP2 AND OR SWAP1 SWAP2 SSTORE MLOAD PUSH32 0xFCA364A96D7ED643A08A7B3F2BE55B7E2993632CE10F4C978DC379198544F7D SWAP1 PUSH2 0x206A SWAP1 DUP11 SWAP1 DUP11 SWAP1 DUP11 SWAP1 DUP11 SWAP1 DUP11 SWAP1 DUP11 SWAP1 DUP11 SWAP1 PUSH2 0x2D4C JUMP JUMPDEST PUSH1 0x40 MLOAD DUP1 SWAP2 SUB SWAP1 LOG1 POP POP POP POP POP POP POP POP JUMP JUMPDEST PUSH2 0x2084 PUSH2 0x269D JUMP JUMPDEST PUSH2 0x2094 DUP6 PUSH1 0x80 ADD MLOAD PUSH2 0x100 PUSH2 0x22DC JUMP JUMPDEST POP POP SWAP2 DUP4 MSTORE PUSH1 0x1 PUSH1 0x1 PUSH1 0xA0 SHL SUB AND PUSH1 0x20 DUP4 ADD MSTORE PUSH1 0x1 PUSH1 0x1 PUSH1 0xE0 SHL SUB NOT AND PUSH1 0x40 DUP3 ADD MSTORE SWAP1 JUMP JUMPDEST PUSH2 0x20C6 DUP3 PUSH1 0x3 DUP4 MLOAD PUSH2 0x2347 JUMP JUMPDEST PUSH2 0x1BCF DUP3 DUP3 PUSH2 0x241B JUMP JUMPDEST PUSH1 0x5 SLOAD PUSH1 0x40 MLOAD PUSH12 0xFFFFFFFFFFFFFFFFFFFFFFFF NOT ADDRESS PUSH1 0x60 SHL AND PUSH1 0x20 DUP3 ADD MSTORE PUSH1 0x34 DUP2 ADD SWAP2 SWAP1 SWAP2 MSTORE PUSH1 0x0 SWAP1 PUSH1 0x54 ADD PUSH1 0x40 DUP1 MLOAD DUP1 DUP4 SUB PUSH1 0x1F NOT ADD DUP2 MSTORE SWAP2 DUP2 MSTORE DUP2 MLOAD PUSH1 0x20 SWAP3 DUP4 ADD KECCAK256 PUSH1 0x5 SLOAD PUSH1 0x60 DUP10 ADD MSTORE PUSH1 0x0 DUP2 DUP2 MSTORE PUSH1 0x6 SWAP1 SWAP4 MSTORE DUP2 DUP4 KECCAK256 DUP1 SLOAD PUSH1 0x1 PUSH1 0x1 PUSH1 0xA0 SHL SUB NOT AND PUSH1 0x1 PUSH1 0x1 PUSH1 0xA0 SHL SUB DUP12 AND OR SWAP1 SSTORE SWAP1 MLOAD SWAP1 SWAP3 POP DUP3 SWAP2 PUSH32 0xB5E6E01E79F91267DC17B4E6314D5D4D03593D2CEEE0FBB452B750BD70EA5AF9 SWAP2 LOG2 PUSH1 0x0 DUP3 PUSH1 0x0 DUP1 DUP9 PUSH1 0x0 ADD MLOAD DUP10 PUSH1 0x20 ADD MLOAD DUP11 PUSH1 0x40 ADD MLOAD DUP12 PUSH1 0x60 ADD MLOAD DUP11 DUP14 PUSH1 0x80 ADD MLOAD PUSH1 0x0 ADD MLOAD PUSH1 0x40 MLOAD PUSH1 0x24 ADD PUSH2 0x21A7 SWAP9 SWAP8 SWAP7 SWAP6 SWAP5 SWAP4 SWAP3 SWAP2 SWAP1 PUSH2 0x2E0C JUMP JUMPDEST PUSH1 0x40 DUP1 MLOAD PUSH1 0x1F NOT DUP2 DUP5 SUB ADD DUP2 MSTORE SWAP2 DUP2 MSTORE PUSH1 0x20 DUP3 ADD DUP1 MLOAD PUSH1 0x1 PUSH1 0x1 PUSH1 0xE0 SHL SUB AND PUSH1 0x1 PUSH1 0x1 PUSH1 0xE0 SHL SUB NOT SWAP1 SWAP5 AND SWAP4 SWAP1 SWAP4 OR SWAP1 SWAP3 MSTORE PUSH1 0x3 SLOAD SWAP2 MLOAD PUSH4 0x2000575 PUSH1 0xE5 SHL DUP2 MSTORE SWAP1 SWAP3 POP PUSH1 0x1 PUSH1 0x1 PUSH1 0xA0 SHL SUB SWAP1 SWAP2 AND SWAP1 PUSH4 0x4000AEA0 SWAP1 PUSH2 0x220F SWAP1 DUP11 SWAP1 DUP10 SWAP1 DUP7 SWAP1 PUSH1 0x4 ADD PUSH2 0x2E74 JUMP JUMPDEST PUSH1 0x20 PUSH1 0x40 MLOAD DUP1 DUP4 SUB DUP2 PUSH1 0x0 DUP8 DUP1 EXTCODESIZE ISZERO DUP1 ISZERO PUSH2 0x2229 JUMPI PUSH1 0x0 DUP1 REVERT JUMPDEST POP GAS CALL ISZERO DUP1 ISZERO PUSH2 0x223D JUMPI RETURNDATASIZE PUSH1 0x0 DUP1 RETURNDATACOPY RETURNDATASIZE PUSH1 0x0 REVERT JUMPDEST POP POP POP POP PUSH1 0x40 MLOAD RETURNDATASIZE PUSH1 0x1F NOT PUSH1 0x1F DUP3 ADD AND DUP3 ADD DUP1 PUSH1 0x40 MSTORE POP DUP2 ADD SWAP1 PUSH2 0x2261 SWAP2 SWAP1 PUSH2 0x2E9B JUMP JUMPDEST PUSH2 0x22B9 JUMPI PUSH1 0x40 MLOAD PUSH3 0x461BCD PUSH1 0xE5 SHL DUP2 MSTORE PUSH1 0x20 PUSH1 0x4 DUP3 ADD MSTORE PUSH1 0x23 PUSH1 0x24 DUP3 ADD MSTORE PUSH32 0x756E61626C6520746F207472616E73666572416E6443616C6C20746F206F7261 PUSH1 0x44 DUP3 ADD MSTORE PUSH3 0x636C65 PUSH1 0xE8 SHL PUSH1 0x64 DUP3 ADD MSTORE PUSH1 0x84 ADD PUSH2 0x2B8 JUMP JUMPDEST PUSH1 0x1 PUSH1 0x5 PUSH1 0x0 DUP3 DUP3 SLOAD PUSH2 0x22CC SWAP2 SWAP1 PUSH2 0x2C0A JUMP JUMPDEST SWAP1 SWAP2 SSTORE POP SWAP2 SWAP8 SWAP7 POP POP POP POP POP POP POP JUMP JUMPDEST PUSH1 0x40 DUP1 MLOAD DUP1 DUP3 ADD SWAP1 SWAP2 MSTORE PUSH1 0x60 DUP2 MSTORE PUSH1 0x0 PUSH1 0x20 DUP3 ADD MSTORE PUSH2 0x22FC PUSH1 0x20 DUP4 PUSH2 0x2C38 JUMP JUMPDEST ISZERO PUSH2 0x2324 JUMPI PUSH2 0x230C PUSH1 0x20 DUP4 PUSH2 0x2C38 JUMP JUMPDEST PUSH2 0x2317 SWAP1 PUSH1 0x20 PUSH2 0x2D11 JUMP JUMPDEST PUSH2 0x2321 SWAP1 DUP4 PUSH2 0x2C0A JUMP JUMPDEST SWAP2 POP JUMPDEST POP PUSH1 0x20 DUP1 DUP4 ADD DUP3 SWAP1 MSTORE PUSH1 0x40 DUP1 MLOAD DUP1 DUP6 MSTORE PUSH1 0x0 DUP2 MSTORE DUP4 ADD SWAP1 SWAP2 ADD SWAP1 MSTORE DUP2 JUMPDEST SWAP3 SWAP2 POP POP JUMP JUMPDEST PUSH1 0x17 DUP2 GT PUSH2 0x2368 JUMPI PUSH2 0x2362 DUP4 PUSH1 0xE0 PUSH1 0x5 DUP6 SWAP1 SHL AND DUP4 OR PUSH2 0x2442 JUMP JUMPDEST POP POP POP POP JUMP JUMPDEST PUSH1 0xFF DUP2 GT PUSH2 0x2392 JUMPI PUSH2 0x2385 DUP4 PUSH1 0x18 PUSH2 0x1FE0 PUSH1 0x5 DUP7 SWAP1 SHL AND OR PUSH2 0x2442 JUMP JUMPDEST POP PUSH2 0x2362 DUP4 DUP3 PUSH1 0x1 PUSH2 0x2467 JUMP JUMPDEST PUSH2 0xFFFF DUP2 GT PUSH2 0x23BD JUMPI PUSH2 0x23B0 DUP4 PUSH1 0x19 PUSH2 0x1FE0 PUSH1 0x5 DUP7 SWAP1 SHL AND OR PUSH2 0x2442 JUMP JUMPDEST POP PUSH2 0x2362 DUP4 DUP3 PUSH1 0x2 PUSH2 0x2467 JUMP JUMPDEST PUSH4 0xFFFFFFFF DUP2 GT PUSH2 0x23EA JUMPI PUSH2 0x23DD DUP4 PUSH1 0x1A PUSH2 0x1FE0 PUSH1 0x5 DUP7 SWAP1 SHL AND OR PUSH2 0x2442 JUMP JUMPDEST POP PUSH2 0x2362 DUP4 DUP3 PUSH1 0x4 PUSH2 0x2467 JUMP JUMPDEST PUSH8 0xFFFFFFFFFFFFFFFF DUP2 GT PUSH2 0x1BCF JUMPI PUSH2 0x240E DUP4 PUSH1 0x1B PUSH2 0x1FE0 PUSH1 0x5 DUP7 SWAP1 SHL AND OR PUSH2 0x2442 JUMP JUMPDEST POP PUSH2 0x2362 DUP4 DUP3 PUSH1 0x8 PUSH2 0x2467 JUMP JUMPDEST PUSH1 0x40 DUP1 MLOAD DUP1 DUP3 ADD SWAP1 SWAP2 MSTORE PUSH1 0x60 DUP2 MSTORE PUSH1 0x0 PUSH1 0x20 DUP3 ADD MSTORE PUSH2 0x8D5 DUP4 DUP5 PUSH1 0x0 ADD MLOAD MLOAD DUP5 DUP6 MLOAD PUSH2 0x248D JUMP JUMPDEST PUSH1 0x40 DUP1 MLOAD DUP1 DUP3 ADD SWAP1 SWAP2 MSTORE PUSH1 0x60 DUP2 MSTORE PUSH1 0x0 PUSH1 0x20 DUP3 ADD MSTORE PUSH2 0x8D5 DUP4 DUP5 PUSH1 0x0 ADD MLOAD MLOAD DUP5 PUSH2 0x2592 JUMP JUMPDEST PUSH1 0x40 DUP1 MLOAD DUP1 DUP3 ADD SWAP1 SWAP2 MSTORE PUSH1 0x60 DUP2 MSTORE PUSH1 0x0 PUSH1 0x20 DUP3 ADD MSTORE PUSH2 0x1C7E DUP5 DUP6 PUSH1 0x0 ADD MLOAD MLOAD DUP6 DUP6 PUSH2 0x25EE JUMP JUMPDEST PUSH1 0x40 DUP1 MLOAD DUP1 DUP3 ADD SWAP1 SWAP2 MSTORE PUSH1 0x60 DUP2 MSTORE PUSH1 0x0 PUSH1 0x20 DUP3 ADD MSTORE DUP3 MLOAD DUP3 GT ISZERO PUSH2 0x24B0 JUMPI PUSH1 0x0 DUP1 REVERT JUMPDEST PUSH1 0x20 DUP6 ADD MLOAD PUSH2 0x24BF DUP4 DUP7 PUSH2 0x2C0A JUMP JUMPDEST GT ISZERO PUSH2 0x24F2 JUMPI PUSH2 0x24F2 DUP6 PUSH2 0x24E2 DUP8 PUSH1 0x20 ADD MLOAD DUP8 DUP7 PUSH2 0x24DD SWAP2 SWAP1 PUSH2 0x2C0A JUMP JUMPDEST PUSH2 0x266F JUMP JUMPDEST PUSH2 0x24ED SWAP1 PUSH1 0x2 PUSH2 0x2BEB JUMP JUMPDEST PUSH2 0x2686 JUMP JUMPDEST PUSH1 0x0 DUP1 DUP7 MLOAD DUP1 MLOAD DUP8 PUSH1 0x20 DUP4 ADD ADD SWAP4 POP DUP1 DUP9 DUP8 ADD GT ISZERO PUSH2 0x2511 JUMPI DUP8 DUP7 ADD DUP3 MSTORE JUMPDEST POP POP POP PUSH1 0x20 DUP5 ADD JUMPDEST PUSH1 0x20 DUP5 LT PUSH2 0x2551 JUMPI DUP1 MLOAD DUP3 MSTORE PUSH2 0x2530 PUSH1 0x20 DUP4 PUSH2 0x2C0A JUMP JUMPDEST SWAP2 POP PUSH2 0x253D PUSH1 0x20 DUP3 PUSH2 0x2C0A JUMP JUMPDEST SWAP1 POP PUSH2 0x254A PUSH1 0x20 DUP6 PUSH2 0x2D11 JUMP JUMPDEST SWAP4 POP PUSH2 0x2519 JUMP JUMPDEST PUSH1 0x0 PUSH1 0x1 PUSH2 0x2560 DUP7 PUSH1 0x20 PUSH2 0x2D11 JUMP JUMPDEST PUSH2 0x256C SWAP1 PUSH2 0x100 PUSH2 0x2FA1 JUMP JUMPDEST PUSH2 0x2576 SWAP2 SWAP1 PUSH2 0x2D11 JUMP JUMPDEST SWAP2 MLOAD DUP4 MLOAD DUP4 AND SWAP3 NOT AND SWAP2 SWAP1 SWAP2 OR SWAP1 SWAP2 MSTORE POP DUP5 SWAP1 POP SWAP5 SWAP4 POP POP POP POP JUMP JUMPDEST PUSH1 0x40 DUP1 MLOAD DUP1 DUP3 ADD SWAP1 SWAP2 MSTORE PUSH1 0x60 DUP2 MSTORE PUSH1 0x0 PUSH1 0x20 DUP3 ADD MSTORE DUP4 PUSH1 0x20 ADD MLOAD DUP4 LT PUSH2 0x25C7 JUMPI PUSH2 0x25C7 DUP5 DUP6 PUSH1 0x20 ADD MLOAD PUSH1 0x2 PUSH2 0x24ED SWAP2 SWAP1 PUSH2 0x2BEB JUMP JUMPDEST DUP4 MLOAD DUP1 MLOAD PUSH1 0x20 DUP6 DUP4 ADD ADD DUP5 DUP2 MSTORE8 POP DUP1 DUP6 EQ ISZERO PUSH2 0x25E4 JUMPI PUSH1 0x1 DUP2 ADD DUP3 MSTORE JUMPDEST POP SWAP4 SWAP5 SWAP4 POP POP POP POP JUMP JUMPDEST PUSH1 0x40 DUP1 MLOAD DUP1 DUP3 ADD SWAP1 SWAP2 MSTORE PUSH1 0x60 DUP2 MSTORE PUSH1 0x0 PUSH1 0x20 DUP3 ADD MSTORE PUSH1 0x20 DUP6 ADD MLOAD PUSH2 0x2612 DUP6 DUP5 PUSH2 0x2C0A JUMP JUMPDEST GT ISZERO PUSH2 0x2626 JUMPI PUSH2 0x2626 DUP6 PUSH2 0x24E2 DUP7 DUP6 PUSH2 0x2C0A JUMP JUMPDEST PUSH1 0x0 PUSH1 0x1 PUSH2 0x2636 DUP5 PUSH2 0x100 PUSH2 0x2FA1 JUMP JUMPDEST PUSH2 0x2640 SWAP2 SWAP1 PUSH2 0x2D11 JUMP JUMPDEST SWAP1 POP DUP6 MLOAD DUP4 DUP7 DUP3 ADD ADD DUP6 DUP4 NOT DUP3 MLOAD AND OR DUP2 MSTORE POP DUP1 MLOAD DUP5 DUP8 ADD GT ISZERO PUSH2 0x2664 JUMPI DUP4 DUP7 ADD DUP2 MSTORE JUMPDEST POP SWAP5 SWAP6 SWAP5 POP POP POP POP POP JUMP JUMPDEST PUSH1 0x0 DUP2 DUP4 GT ISZERO PUSH2 0x2680 JUMPI POP DUP2 PUSH2 0x2341 JUMP JUMPDEST POP SWAP2 SWAP1 POP JUMP JUMPDEST DUP2 MLOAD PUSH2 0x2692 DUP4 DUP4 PUSH2 0x22DC JUMP JUMPDEST POP PUSH2 0x2362 DUP4 DUP3 PUSH2 0x241B JUMP JUMPDEST PUSH1 0x40 DUP1 MLOAD PUSH1 0xA0 DUP2 ADD DUP3 MSTORE PUSH1 0x0 DUP1 DUP3 MSTORE PUSH1 0x20 DUP1 DUP4 ADD DUP3 SWAP1 MSTORE DUP3 DUP5 ADD DUP3 SWAP1 MSTORE PUSH1 0x60 DUP1 DUP5 ADD DUP4 SWAP1 MSTORE DUP5 MLOAD DUP1 DUP7 ADD SWAP1 SWAP6 MSTORE DUP5 MSTORE DUP4 ADD MSTORE SWAP1 PUSH1 0x80 DUP3 ADD MSTORE SWAP1 JUMP JUMPDEST PUSH1 0x0 DUP1 PUSH1 0x40 DUP4 DUP6 SUB SLT ISZERO PUSH2 0x26EB JUMPI PUSH1 0x0 DUP1 REVERT JUMPDEST POP POP DUP1 CALLDATALOAD SWAP3 PUSH1 0x20 SWAP1 SWAP2 ADD CALLDATALOAD SWAP2 POP JUMP JUMPDEST PUSH1 0x0 DUP1 DUP4 PUSH1 0x1F DUP5 ADD SLT PUSH2 0x270C JUMPI PUSH1 0x0 DUP1 REVERT JUMPDEST POP DUP2 CALLDATALOAD PUSH8 0xFFFFFFFFFFFFFFFF DUP2 GT ISZERO PUSH2 0x2724 JUMPI PUSH1 0x0 DUP1 REVERT JUMPDEST PUSH1 0x20 DUP4 ADD SWAP2 POP DUP4 PUSH1 0x20 DUP3 DUP6 ADD ADD GT ISZERO PUSH2 0x273C JUMPI PUSH1 0x0 DUP1 REVERT JUMPDEST SWAP3 POP SWAP3 SWAP1 POP JUMP JUMPDEST DUP1 CALLDATALOAD PUSH1 0x1 DUP2 LT PUSH2 0x2752 JUMPI PUSH1 0x0 DUP1 REVERT JUMPDEST SWAP2 SWAP1 POP JUMP JUMPDEST DUP1 CALLDATALOAD PUSH1 0xFF DUP2 AND DUP2 EQ PUSH2 0x2752 JUMPI PUSH1 0x0 DUP1 REVERT JUMPDEST DUP1 CALLDATALOAD PUSH2 0xFFFF DUP2 AND DUP2 EQ PUSH2 0x2752 JUMPI PUSH1 0x0 DUP1 REVERT JUMPDEST PUSH1 0x0 DUP1 PUSH1 0x0 DUP1 PUSH1 0x0 DUP1 PUSH1 0xA0 DUP8 DUP10 SUB SLT ISZERO PUSH2 0x2793 JUMPI PUSH1 0x0 DUP1 REVERT JUMPDEST DUP7 CALLDATALOAD PUSH8 0xFFFFFFFFFFFFFFFF DUP2 GT ISZERO PUSH2 0x27AA JUMPI PUSH1 0x0 DUP1 REVERT JUMPDEST PUSH2 0x27B6 DUP10 DUP3 DUP11 ADD PUSH2 0x26FA JUMP JUMPDEST SWAP1 SWAP8 POP SWAP6 POP PUSH2 0x27C9 SWAP1 POP PUSH1 0x20 DUP9 ADD PUSH2 0x2743 JUMP JUMPDEST SWAP4 POP PUSH2 0x27D7 PUSH1 0x40 DUP9 ADD PUSH2 0x2757 JUMP JUMPDEST SWAP3 POP PUSH2 0x27E5 PUSH1 0x60 DUP9 ADD PUSH2 0x2768 JUMP JUMPDEST SWAP2 POP PUSH1 0x80 DUP8 ADD CALLDATALOAD SWAP1 POP SWAP3 SWAP6 POP SWAP3 SWAP6 POP SWAP3 SWAP6 JUMP JUMPDEST PUSH1 0x0 DUP1 PUSH1 0x0 PUSH1 0x40 DUP5 DUP7 SUB SLT ISZERO PUSH2 0x280D JUMPI PUSH1 0x0 DUP1 REVERT JUMPDEST DUP4 CALLDATALOAD PUSH8 0xFFFFFFFFFFFFFFFF DUP2 GT ISZERO PUSH2 0x2824 JUMPI PUSH1 0x0 DUP1 REVERT JUMPDEST PUSH2 0x2830 DUP7 DUP3 DUP8 ADD PUSH2 0x26FA JUMP JUMPDEST SWAP1 SWAP8 SWAP1 SWAP7 POP PUSH1 0x20 SWAP6 SWAP1 SWAP6 ADD CALLDATALOAD SWAP5 SWAP4 POP POP POP POP JUMP JUMPDEST PUSH1 0x0 PUSH1 0x20 DUP3 DUP5 SUB SLT ISZERO PUSH2 0x2856 JUMPI PUSH1 0x0 DUP1 REVERT JUMPDEST POP CALLDATALOAD SWAP2 SWAP1 POP JUMP JUMPDEST PUSH1 0x0 JUMPDEST DUP4 DUP2 LT ISZERO PUSH2 0x2878 JUMPI DUP2 DUP2 ADD MLOAD DUP4 DUP3 ADD MSTORE PUSH1 0x20 ADD PUSH2 0x2860 JUMP JUMPDEST DUP4 DUP2 GT ISZERO PUSH2 0x2362 JUMPI POP POP PUSH1 0x0 SWAP2 ADD MSTORE JUMP JUMPDEST PUSH1 0x0 DUP2 MLOAD DUP1 DUP5 MSTORE PUSH2 0x28A1 DUP2 PUSH1 0x20 DUP7 ADD PUSH1 0x20 DUP7 ADD PUSH2 0x285D JUMP JUMPDEST PUSH1 0x1F ADD PUSH1 0x1F NOT AND SWAP3 SWAP1 SWAP3 ADD PUSH1 0x20 ADD SWAP3 SWAP2 POP POP JUMP JUMPDEST PUSH1 0x40 DUP2 MSTORE PUSH1 0x0 PUSH2 0x28C8 PUSH1 0x40 DUP4 ADD DUP6 PUSH2 0x2889 JUMP JUMPDEST SWAP1 POP PUSH1 0xFF DUP4 AND PUSH1 0x20 DUP4 ADD MSTORE SWAP4 SWAP3 POP POP POP JUMP JUMPDEST PUSH4 0x4E487B71 PUSH1 0xE0 SHL PUSH1 0x0 MSTORE PUSH1 0x41 PUSH1 0x4 MSTORE PUSH1 0x24 PUSH1 0x0 REVERT JUMPDEST PUSH1 0x0 DUP3 PUSH1 0x1F DUP4 ADD SLT PUSH2 0x2901 JUMPI PUSH1 0x0 DUP1 REVERT JUMPDEST DUP2 CALLDATALOAD PUSH8 0xFFFFFFFFFFFFFFFF DUP1 DUP3 GT ISZERO PUSH2 0x291C JUMPI PUSH2 0x291C PUSH2 0x28DA JUMP JUMPDEST PUSH1 0x40 MLOAD PUSH1 0x1F DUP4 ADD PUSH1 0x1F NOT SWAP1 DUP2 AND PUSH1 0x3F ADD AND DUP2 ADD SWAP1 DUP3 DUP3 GT DUP2 DUP4 LT OR ISZERO PUSH2 0x2944 JUMPI PUSH2 0x2944 PUSH2 0x28DA JUMP JUMPDEST DUP2 PUSH1 0x40 MSTORE DUP4 DUP2 MSTORE DUP7 PUSH1 0x20 DUP6 DUP9 ADD ADD GT ISZERO PUSH2 0x295D JUMPI PUSH1 0x0 DUP1 REVERT JUMPDEST DUP4 PUSH1 0x20 DUP8 ADD PUSH1 0x20 DUP4 ADD CALLDATACOPY PUSH1 0x0 PUSH1 0x20 DUP6 DUP4 ADD ADD MSTORE DUP1 SWAP5 POP POP POP POP POP SWAP3 SWAP2 POP POP JUMP JUMPDEST PUSH1 0x0 PUSH1 0x20 DUP3 DUP5 SUB SLT ISZERO PUSH2 0x298F JUMPI PUSH1 0x0 DUP1 REVERT JUMPDEST DUP2 CALLDATALOAD PUSH8 0xFFFFFFFFFFFFFFFF DUP2 GT ISZERO PUSH2 0x29A6 JUMPI PUSH1 0x0 DUP1 REVERT JUMPDEST PUSH2 0x1C7E DUP5 DUP3 DUP6 ADD PUSH2 0x28F0 JUMP JUMPDEST DUP1 CALLDATALOAD PUSH1 0x2 DUP2 LT PUSH2 0x2752 JUMPI PUSH1 0x0 DUP1 REVERT JUMPDEST PUSH1 0x0 DUP1 PUSH1 0x0 DUP1 PUSH1 0x0 DUP1 PUSH1 0x0 DUP1 PUSH1 0xC0 DUP10 DUP12 SUB SLT ISZERO PUSH2 0x29DD JUMPI PUSH1 0x0 DUP1 REVERT JUMPDEST DUP9 CALLDATALOAD PUSH8 0xFFFFFFFFFFFFFFFF DUP1 DUP3 GT ISZERO PUSH2 0x29F5 JUMPI PUSH1 0x0 DUP1 REVERT JUMPDEST PUSH2 0x2A01 DUP13 DUP4 DUP14 ADD PUSH2 0x26FA JUMP JUMPDEST SWAP1 SWAP11 POP SWAP9 POP DUP9 SWAP2 POP PUSH2 0x2A15 PUSH1 0x20 DUP13 ADD PUSH2 0x29B2 JUMP JUMPDEST SWAP8 POP PUSH2 0x2A23 PUSH1 0x40 DUP13 ADD PUSH2 0x2743 JUMP JUMPDEST SWAP7 POP PUSH2 0x2A31 PUSH1 0x60 DUP13 ADD PUSH2 0x2757 JUMP JUMPDEST SWAP6 POP PUSH2 0x2A3F PUSH1 0x80 DUP13 ADD PUSH2 0x2768 JUMP JUMPDEST SWAP5 POP PUSH1 0xA0 DUP12 ADD CALLDATALOAD SWAP2 POP DUP1 DUP3 GT ISZERO PUSH2 0x2A55 JUMPI PUSH1 0x0 DUP1 REVERT JUMPDEST POP PUSH2 0x2A62 DUP12 DUP3 DUP13 ADD PUSH2 0x26FA JUMP JUMPDEST SWAP10 SWAP13 SWAP9 SWAP12 POP SWAP7 SWAP10 POP SWAP5 SWAP8 SWAP4 SWAP7 SWAP3 SWAP6 SWAP5 POP POP POP JUMP JUMPDEST PUSH1 0x0 PUSH1 0x20 DUP3 DUP5 SUB SLT ISZERO PUSH2 0x2A88 JUMPI PUSH1 0x0 DUP1 REVERT JUMPDEST DUP2 CALLDATALOAD PUSH1 0x1 PUSH1 0x1 PUSH1 0xA0 SHL SUB DUP2 AND DUP2 EQ PUSH2 0x8D5 JUMPI PUSH1 0x0 DUP1 REVERT JUMPDEST PUSH1 0x0 DUP1 PUSH1 0x0 PUSH1 0x60 DUP5 DUP7 SUB SLT ISZERO PUSH2 0x2AB4 JUMPI PUSH1 0x0 DUP1 REVERT JUMPDEST DUP4 CALLDATALOAD PUSH8 0xFFFFFFFFFFFFFFFF DUP2 GT ISZERO PUSH2 0x2ACB JUMPI PUSH1 0x0 DUP1 REVERT JUMPDEST PUSH2 0x2AD7 DUP7 DUP3 DUP8 ADD PUSH2 0x28F0 JUMP JUMPDEST SWAP4 POP POP PUSH2 0x2AE6 PUSH1 0x20 DUP6 ADD PUSH2 0x29B2 JUMP JUMPDEST SWAP2 POP PUSH2 0x2AF4 PUSH1 0x40 DUP6 ADD PUSH2 0x2757 JUMP JUMPDEST SWAP1 POP SWAP3 POP SWAP3 POP SWAP3 JUMP JUMPDEST PUSH1 0x0 DUP3 MLOAD PUSH2 0x2B0F DUP2 DUP5 PUSH1 0x20 DUP8 ADD PUSH2 0x285D JUMP JUMPDEST SWAP2 SWAP1 SWAP2 ADD SWAP3 SWAP2 POP POP JUMP JUMPDEST PUSH4 0x4E487B71 PUSH1 0xE0 SHL PUSH1 0x0 MSTORE PUSH1 0x21 PUSH1 0x4 MSTORE PUSH1 0x24 PUSH1 0x0 REVERT JUMPDEST DUP2 DUP4 DUP3 CALLDATACOPY PUSH1 0x0 SWAP2 ADD SWAP1 DUP2 MSTORE SWAP2 SWAP1 POP JUMP JUMPDEST DUP2 DUP4 MSTORE DUP2 DUP2 PUSH1 0x20 DUP6 ADD CALLDATACOPY POP PUSH1 0x0 DUP3 DUP3 ADD PUSH1 0x20 SWAP1 DUP2 ADD SWAP2 SWAP1 SWAP2 MSTORE PUSH1 0x1F SWAP1 SWAP2 ADD PUSH1 0x1F NOT AND SWAP1 SWAP2 ADD ADD SWAP1 JUMP JUMPDEST PUSH1 0x20 DUP2 MSTORE PUSH1 0x0 PUSH2 0x1C7E PUSH1 0x20 DUP4 ADD DUP5 DUP7 PUSH2 0x2B3F JUMP JUMPDEST PUSH4 0x4E487B71 PUSH1 0xE0 SHL PUSH1 0x0 MSTORE PUSH1 0x32 PUSH1 0x4 MSTORE PUSH1 0x24 PUSH1 0x0 REVERT JUMPDEST PUSH4 0x4E487B71 PUSH1 0xE0 SHL PUSH1 0x0 MSTORE PUSH1 0x11 PUSH1 0x4 MSTORE PUSH1 0x24 PUSH1 0x0 REVERT JUMPDEST PUSH1 0x0 PUSH1 0xFF DUP3 AND PUSH1 0xFF DUP2 EQ ISZERO PUSH2 0x2BBF JUMPI PUSH2 0x2BBF PUSH2 0x2B92 JUMP JUMPDEST PUSH1 0x1 ADD SWAP3 SWAP2 POP POP JUMP JUMPDEST PUSH1 0x0 PUSH1 0xFF DUP3 AND PUSH1 0xFF DUP5 AND DUP1 DUP3 LT ISZERO PUSH2 0x2BE2 JUMPI PUSH2 0x2BE2 PUSH2 0x2B92 JUMP JUMPDEST SWAP1 SUB SWAP4 SWAP3 POP POP POP JUMP JUMPDEST PUSH1 0x0 DUP2 PUSH1 0x0 NOT DIV DUP4 GT DUP3 ISZERO ISZERO AND ISZERO PUSH2 0x2C05 JUMPI PUSH2 0x2C05 PUSH2 0x2B92 JUMP JUMPDEST POP MUL SWAP1 JUMP JUMPDEST PUSH1 0x0 DUP3 NOT DUP3 GT ISZERO PUSH2 0x2C1D JUMPI PUSH2 0x2C1D PUSH2 0x2B92 JUMP JUMPDEST POP ADD SWAP1 JUMP JUMPDEST PUSH4 0x4E487B71 PUSH1 0xE0 SHL PUSH1 0x0 MSTORE PUSH1 0x12 PUSH1 0x4 MSTORE PUSH1 0x24 PUSH1 0x0 REVERT JUMPDEST PUSH1 0x0 DUP3 PUSH2 0x2C47 JUMPI PUSH2 0x2C47 PUSH2 0x2C22 JUMP JUMPDEST POP MOD SWAP1 JUMP JUMPDEST PUSH1 0x0 PUSH1 0x0 NOT DUP3 EQ ISZERO PUSH2 0x2C60 JUMPI PUSH2 0x2C60 PUSH2 0x2B92 JUMP JUMPDEST POP PUSH1 0x1 ADD SWAP1 JUMP JUMPDEST PUSH1 0x1 DUP1 PUSH1 0xA0 SHL SUB DUP9 AND DUP2 MSTORE DUP7 PUSH1 0x20 DUP3 ADD MSTORE PUSH1 0xA0 PUSH1 0x40 DUP3 ADD MSTORE PUSH1 0x0 PUSH2 0x2C8F PUSH1 0xA0 DUP4 ADD DUP8 DUP10 PUSH2 0x2B3F JUMP JUMPDEST DUP6 PUSH1 0x60 DUP5 ADD MSTORE DUP3 DUP2 SUB PUSH1 0x80 DUP5 ADD MSTORE PUSH2 0x2CA8 DUP2 DUP6 DUP8 PUSH2 0x2B3F JUMP JUMPDEST SWAP11 SWAP10 POP POP POP POP POP POP POP POP POP POP JUMP JUMPDEST PUSH1 0x40 DUP2 MSTORE PUSH1 0x0 PUSH2 0x2CCA PUSH1 0x40 DUP4 ADD DUP6 DUP8 PUSH2 0x2B3F JUMP JUMPDEST SWAP1 POP DUP3 PUSH1 0x20 DUP4 ADD MSTORE SWAP5 SWAP4 POP POP POP POP JUMP JUMPDEST PUSH1 0x0 PUSH2 0xFFFF DUP4 DUP2 AND SWAP1 DUP4 AND DUP2 DUP2 LT ISZERO PUSH2 0x2CF5 JUMPI PUSH2 0x2CF5 PUSH2 0x2B92 JUMP JUMPDEST SUB SWAP4 SWAP3 POP POP POP JUMP JUMPDEST PUSH1 0x0 DUP3 PUSH2 0x2D0C JUMPI PUSH2 0x2D0C PUSH2 0x2C22 JUMP JUMPDEST POP DIV SWAP1 JUMP JUMPDEST PUSH1 0x0 DUP3 DUP3 LT ISZERO PUSH2 0x2D23 JUMPI PUSH2 0x2D23 PUSH2 0x2B92 JUMP JUMPDEST POP SUB SWAP1 JUMP JUMPDEST PUSH1 0x2 DUP2 LT PUSH2 0x2D38 JUMPI PUSH2 0x2D38 PUSH2 0x2B19 JUMP JUMPDEST SWAP1 MSTORE JUMP JUMPDEST PUSH1 0x1 DUP2 LT PUSH2 0x2D38 JUMPI PUSH2 0x2D38 PUSH2 0x2B19 JUMP JUMPDEST PUSH1 0xE0 DUP2 MSTORE PUSH1 0x0 PUSH2 0x2D5F PUSH1 0xE0 DUP4 ADD DUP11 PUSH2 0x2889 JUMP JUMPDEST SWAP1 POP PUSH2 0x2D6E PUSH1 0x20 DUP4 ADD DUP10 PUSH2 0x2D28 JUMP JUMPDEST PUSH2 0x2D7B PUSH1 0x40 DUP4 ADD DUP9 PUSH2 0x2D3C JUMP JUMPDEST PUSH1 0xFF SWAP6 SWAP1 SWAP6 AND PUSH1 0x60 DUP3 ADD MSTORE PUSH2 0xFFFF SWAP4 SWAP1 SWAP4 AND PUSH1 0x80 DUP5 ADD MSTORE PUSH1 0xA0 DUP4 ADD SWAP2 SWAP1 SWAP2 MSTORE PUSH1 0x1 PUSH1 0x1 PUSH1 0xA0 SHL SUB AND PUSH1 0xC0 SWAP1 SWAP2 ADD MSTORE SWAP4 SWAP3 POP POP POP JUMP JUMPDEST PUSH1 0xC0 DUP2 MSTORE PUSH1 0x0 PUSH2 0x2DC3 PUSH1 0xC0 DUP4 ADD DUP10 PUSH2 0x2889 JUMP JUMPDEST PUSH1 0x1 PUSH1 0x1 PUSH1 0xA0 SHL SUB DUP9 AND PUSH1 0x20 DUP5 ADD MSTORE SWAP1 POP PUSH2 0x2DE1 PUSH1 0x40 DUP4 ADD DUP8 PUSH2 0x2D28 JUMP JUMPDEST PUSH2 0x2DEE PUSH1 0x60 DUP4 ADD DUP7 PUSH2 0x2D3C JUMP JUMPDEST PUSH1 0xFF DUP5 AND PUSH1 0x80 DUP4 ADD MSTORE PUSH2 0xFFFF DUP4 AND PUSH1 0xA0 DUP4 ADD MSTORE SWAP8 SWAP7 POP POP POP POP POP POP POP JUMP JUMPDEST PUSH1 0x1 PUSH1 0x1 PUSH1 0xA0 SHL SUB DUP10 DUP2 AND DUP3 MSTORE PUSH1 0x20 DUP3 ADD DUP10 SWAP1 MSTORE PUSH1 0x40 DUP3 ADD DUP9 SWAP1 MSTORE DUP7 AND PUSH1 0x60 DUP3 ADD MSTORE PUSH1 0x1 PUSH1 0x1 PUSH1 0xE0 SHL SUB NOT DUP6 AND PUSH1 0x80 DUP3 ADD MSTORE PUSH1 0xA0 DUP2 ADD DUP5 SWAP1 MSTORE PUSH1 0xC0 DUP2 ADD DUP4 SWAP1 MSTORE PUSH2 0x100 PUSH1 0xE0 DUP3 ADD DUP2 SWAP1 MSTORE PUSH1 0x0 SWAP1 PUSH2 0x2E65 DUP4 DUP3 ADD DUP6 PUSH2 0x2889 JUMP JUMPDEST SWAP12 SWAP11 POP POP POP POP POP POP POP POP POP POP POP JUMP JUMPDEST PUSH1 0x1 DUP1 PUSH1 0xA0 SHL SUB DUP5 AND DUP2 MSTORE DUP3 PUSH1 0x20 DUP3 ADD MSTORE PUSH1 0x60 PUSH1 0x40 DUP3 ADD MSTORE PUSH1 0x0 PUSH2 0x1C40 PUSH1 0x60 DUP4 ADD DUP5 PUSH2 0x2889 JUMP JUMPDEST PUSH1 0x0 PUSH1 0x20 DUP3 DUP5 SUB SLT ISZERO PUSH2 0x2EAD JUMPI PUSH1 0x0 DUP1 REVERT JUMPDEST DUP2 MLOAD DUP1 ISZERO ISZERO DUP2 EQ PUSH2 0x8D5 JUMPI PUSH1 0x0 DUP1 REVERT JUMPDEST PUSH1 0x1 DUP2 DUP2 JUMPDEST DUP1 DUP6 GT ISZERO PUSH2 0x2EF8 JUMPI DUP2 PUSH1 0x0 NOT DIV DUP3 GT ISZERO PUSH2 0x2EDE JUMPI PUSH2 0x2EDE PUSH2 0x2B92 JUMP JUMPDEST DUP1 DUP6 AND ISZERO PUSH2 0x2EEB JUMPI SWAP2 DUP2 MUL SWAP2 JUMPDEST SWAP4 DUP5 SHR SWAP4 SWAP1 DUP1 MUL SWAP1 PUSH2 0x2EC2 JUMP JUMPDEST POP SWAP3 POP SWAP3 SWAP1 POP JUMP JUMPDEST PUSH1 0x0 DUP3 PUSH2 0x2F0F JUMPI POP PUSH1 0x1 PUSH2 0x2341 JUMP JUMPDEST DUP2 PUSH2 0x2F1C JUMPI POP PUSH1 0x0 PUSH2 0x2341 JUMP JUMPDEST DUP2 PUSH1 0x1 DUP2 EQ PUSH2 0x2F32 JUMPI PUSH1 0x2 DUP2 EQ PUSH2 0x2F3C JUMPI PUSH2 0x2F58 JUMP JUMPDEST PUSH1 0x1 SWAP2 POP POP PUSH2 0x2341 JUMP JUMPDEST PUSH1 0xFF DUP5 GT ISZERO PUSH2 0x2F4D JUMPI PUSH2 0x2F4D PUSH2 0x2B92 JUMP JUMPDEST POP POP PUSH1 0x1 DUP3 SHL PUSH2 0x2341 JUMP JUMPDEST POP PUSH1 0x20 DUP4 LT PUSH2 0x133 DUP4 LT AND PUSH1 0x4E DUP5 LT PUSH1 0xB DUP5 LT AND OR ISZERO PUSH2 0x2F7B JUMPI POP DUP2 DUP2 EXP PUSH2 0x2341 JUMP JUMPDEST PUSH2 0x2F85 DUP4 DUP4 PUSH2 0x2EBD JUMP JUMPDEST DUP1 PUSH1 0x0 NOT DIV DUP3 GT ISZERO PUSH2 0x2F99 JUMPI PUSH2 0x2F99 PUSH2 0x2B92 JUMP JUMPDEST MUL SWAP4 SWAP3 POP POP POP JUMP JUMPDEST PUSH1 0x0 PUSH2 0x8D5 DUP4 DUP4 PUSH2 0x2F00 JUMP INVALID LOG2 PUSH5 0x6970667358 0x22 SLT KECCAK256 MLOAD SWAP11 BASEFEE CREATE2 0x2F 0xA8 SSTORE 0xB2 0xC3 DUP16 PUSH29 0x30795E38080D87216D741B14A673220E7504A3351F64736F6C63430008 MULMOD STOP CALLER "
		},
		"gasEstimates": {
			"creation": {
				"codeDepositCost": "2451800",
				"executionCost": "infinite",
				"totalCost": "infinite"
			},
			"external": {
				"betNFT()": "2393",
				"bytes32ToString(bytes32)": "infinite",
				"createBackBet(string,uint8,uint8,uint16,uint256)": "infinite",
				"createLayBet(string,uint8,uint8,uint16,uint256)": "infinite",
				"fulfill(bytes32,bytes32)": "infinite",
				"hasMatchWinnerWon(string,uint8,uint8)": "infinite",
				"owner()": "2431",
				"renounceOwnership()": "28203",
				"requestResult(string)": "infinite",
				"transferBetToNFT(string,uint8,uint8,uint8,uint16,string)": "infinite",
				"transferOwnership(address)": "28362",
				"withdrawWithNFT(string,uint256)": "infinite"
			},
			"internal": {
				"getTokenId(string memory,enum BettingAIO.BetSide,enum BettingAIO.BetType,uint8,uint16,address)": "infinite",
				"placeBet(string memory,enum BettingAIO.BetSide,enum BettingAIO.BetType,uint8,uint16,uint256,address)": "infinite",
				"placeMatchedBet(string memory,enum BettingAIO.BetSide,enum BettingAIO.BetType,uint8,uint16,uint256,address)": "infinite",
				"placeUnmatchedBet(string memory,enum BettingAIO.BetSide,enum BettingAIO.BetType,uint8,uint16,uint256,address)": "infinite",
				"transferAmount(address,uint256)": "infinite",
				"withdraw(string memory)": "infinite"
			}
		},
		"methodIdentifiers": {
			"betNFT()": "6920f52b",
			"bytes32ToString(bytes32)": "9201de55",
			"createBackBet(string,uint8,uint8,uint16,uint256)": "100a56c5",
			"createLayBet(string,uint8,uint8,uint16,uint256)": "e603c219",
			"fulfill(bytes32,bytes32)": "042f2b65",
			"hasMatchWinnerWon(string,uint8,uint8)": "f96cb2df",
			"owner()": "8da5cb5b",
			"renounceOwnership()": "715018a6",
			"requestResult(string)": "a9583d32",
			"transferBetToNFT(string,uint8,uint8,uint8,uint16,string)": "db3174ec",
			"transferOwnership(address)": "f2fde38b",
			"withdrawWithNFT(string,uint256)": "3195d58d"
		}
	},
	"abi": [
		{
			"inputs": [
				{
					"internalType": "contract BetNFT",
					"name": "_betNFT",
					"type": "address"
				}
			],
			"stateMutability": "nonpayable",
			"type": "constructor"
		},
		{
			"inputs": [
				{
					"internalType": "uint256",
					"name": "amount",
					"type": "uint256"
				}
			],
			"name": "AmountToLow",
			"type": "error"
		},
		{
			"inputs": [
				{
					"internalType": "string",
					"name": "apiId",
					"type": "string"
				}
			],
			"name": "GameAlreadyEnded",
			"type": "error"
		},
		{
			"inputs": [
				{
					"internalType": "uint256",
					"name": "odds",
					"type": "uint256"
				}
			],
			"name": "OddsToLow",
			"type": "error"
		},
		{
			"anonymous": false,
			"inputs": [
				{
					"indexed": false,
					"internalType": "string",
					"name": "apiId",
					"type": "string"
				},
				{
					"indexed": false,
					"internalType": "uint256",
					"name": "tokenId",
					"type": "uint256"
				}
			],
			"name": "BetConverted",
			"type": "event"
		},
		{
			"anonymous": false,
			"inputs": [
				{
					"indexed": true,
					"internalType": "bytes32",
					"name": "id",
					"type": "bytes32"
				}
			],
			"name": "ChainlinkCancelled",
			"type": "event"
		},
		{
			"anonymous": false,
			"inputs": [
				{
					"indexed": true,
					"internalType": "bytes32",
					"name": "id",
					"type": "bytes32"
				}
			],
			"name": "ChainlinkFulfilled",
			"type": "event"
		},
		{
			"anonymous": false,
			"inputs": [
				{
					"indexed": true,
					"internalType": "bytes32",
					"name": "id",
					"type": "bytes32"
				}
			],
			"name": "ChainlinkRequested",
			"type": "event"
		},
		{
			"anonymous": false,
			"inputs": [
				{
					"indexed": false,
					"internalType": "string",
					"name": "apiId",
					"type": "string"
				},
				{
					"indexed": false,
					"internalType": "enum BettingAIO.BetSide",
					"name": "betSide",
					"type": "uint8"
				},
				{
					"indexed": false,
					"internalType": "enum BettingAIO.BetType",
					"name": "betType",
					"type": "uint8"
				},
				{
					"indexed": false,
					"internalType": "uint8",
					"name": "selection",
					"type": "uint8"
				},
				{
					"indexed": false,
					"internalType": "uint16",
					"name": "odds",
					"type": "uint16"
				},
				{
					"indexed": false,
					"internalType": "uint256",
					"name": "amount",
					"type": "uint256"
				},
				{
					"indexed": false,
					"internalType": "address",
					"name": "from",
					"type": "address"
				}
			],
			"name": "MatchedBetPlaced",
			"type": "event"
		},
		{
			"anonymous": false,
			"inputs": [
				{
					"indexed": true,
					"internalType": "address",
					"name": "previousOwner",
					"type": "address"
				},
				{
					"indexed": true,
					"internalType": "address",
					"name": "newOwner",
					"type": "address"
				}
			],
			"name": "OwnershipTransferred",
			"type": "event"
		},
		{
			"anonymous": false,
			"inputs": [
				{
					"indexed": false,
					"internalType": "string",
					"name": "apiId",
					"type": "string"
				},
				{
					"indexed": false,
					"internalType": "enum BettingAIO.BetSide",
					"name": "betSide",
					"type": "uint8"
				},
				{
					"indexed": false,
					"internalType": "enum BettingAIO.BetType",
					"name": "betType",
					"type": "uint8"
				},
				{
					"indexed": false,
					"internalType": "uint8",
					"name": "selection",
					"type": "uint8"
				},
				{
					"indexed": false,
					"internalType": "uint16",
					"name": "odds",
					"type": "uint16"
				},
				{
					"indexed": false,
					"internalType": "uint256",
					"name": "amount",
					"type": "uint256"
				},
				{
					"indexed": false,
					"internalType": "address",
					"name": "from",
					"type": "address"
				}
			],
			"name": "UnmatchedBetPlaced",
			"type": "event"
		},
		{
			"anonymous": false,
			"inputs": [
				{
					"indexed": false,
					"internalType": "string",
					"name": "apiId",
					"type": "string"
				},
				{
					"indexed": false,
					"internalType": "enum BettingAIO.BetSide",
					"name": "betSide",
					"type": "uint8"
				},
				{
					"indexed": false,
					"internalType": "enum BettingAIO.BetType",
					"name": "betType",
					"type": "uint8"
				},
				{
					"indexed": false,
					"internalType": "uint8",
					"name": "selection",
					"type": "uint8"
				},
				{
					"indexed": false,
					"internalType": "uint16",
					"name": "odds",
					"type": "uint16"
				},
				{
					"indexed": false,
					"internalType": "uint256",
					"name": "amount",
					"type": "uint256"
				},
				{
					"indexed": false,
					"internalType": "address",
					"name": "from",
					"type": "address"
				}
			],
			"name": "UnmatchedBetRemoved",
			"type": "event"
		},
		{
			"anonymous": false,
			"inputs": [
				{
					"indexed": false,
					"internalType": "string",
					"name": "apiId",
					"type": "string"
				},
				{
					"indexed": false,
					"internalType": "enum BettingAIO.BetSide",
					"name": "betSide",
					"type": "uint8"
				},
				{
					"indexed": false,
					"internalType": "enum BettingAIO.BetType",
					"name": "betType",
					"type": "uint8"
				},
				{
					"indexed": false,
					"internalType": "uint8",
					"name": "selection",
					"type": "uint8"
				},
				{
					"indexed": false,
					"internalType": "uint16",
					"name": "odds",
					"type": "uint16"
				},
				{
					"indexed": false,
					"internalType": "uint256",
					"name": "amount",
					"type": "uint256"
				},
				{
					"indexed": false,
					"internalType": "address",
					"name": "from",
					"type": "address"
				}
			],
			"name": "UnmatchedBetUpdated",
			"type": "event"
		},
		{
			"inputs": [],
			"name": "betNFT",
			"outputs": [
				{
					"internalType": "contract BetNFT",
					"name": "",
					"type": "address"
				}
			],
			"stateMutability": "view",
			"type": "function"
		},
		{
			"inputs": [
				{
					"internalType": "bytes32",
					"name": "_bytes32",
					"type": "bytes32"
				}
			],
			"name": "bytes32ToString",
			"outputs": [
				{
					"internalType": "string",
					"name": "",
					"type": "string"
				},
				{
					"internalType": "uint8",
					"name": "",
					"type": "uint8"
				}
			],
			"stateMutability": "pure",
			"type": "function"
		},
		{
			"inputs": [
				{
					"internalType": "string",
					"name": "_objectId",
					"type": "string"
				},
				{
					"internalType": "enum BettingAIO.BetType",
					"name": "_betType",
					"type": "uint8"
				},
				{
					"internalType": "uint8",
					"name": "_selection",
					"type": "uint8"
				},
				{
					"internalType": "uint16",
					"name": "_odds",
					"type": "uint16"
				},
				{
					"internalType": "uint256",
					"name": "_amount",
					"type": "uint256"
				}
			],
			"name": "createBackBet",
			"outputs": [],
			"stateMutability": "payable",
			"type": "function"
		},
		{
			"inputs": [
				{
					"internalType": "string",
					"name": "_objectId",
					"type": "string"
				},
				{
					"internalType": "enum BettingAIO.BetType",
					"name": "_betType",
					"type": "uint8"
				},
				{
					"internalType": "uint8",
					"name": "_selection",
					"type": "uint8"
				},
				{
					"internalType": "uint16",
					"name": "_odds",
					"type": "uint16"
				},
				{
					"internalType": "uint256",
					"name": "_amount",
					"type": "uint256"
				}
			],
			"name": "createLayBet",
			"outputs": [],
			"stateMutability": "payable",
			"type": "function"
		},
		{
			"inputs": [
				{
					"internalType": "bytes32",
					"name": "_requestId",
					"type": "bytes32"
				},
				{
					"internalType": "bytes32",
					"name": "_data",
					"type": "bytes32"
				}
			],
			"name": "fulfill",
			"outputs": [],
			"stateMutability": "nonpayable",
			"type": "function"
		},
		{
			"inputs": [
				{
					"internalType": "string",
					"name": "_objectId",
					"type": "string"
				},
				{
					"internalType": "enum BettingAIO.BetSide",
					"name": "_betSide",
					"type": "uint8"
				},
				{
					"internalType": "uint8",
					"name": "_selection",
					"type": "uint8"
				}
			],
			"name": "hasMatchWinnerWon",
			"outputs": [
				{
					"internalType": "bool",
					"name": "",
					"type": "bool"
				}
			],
			"stateMutability": "view",
			"type": "function"
		},
		{
			"inputs": [],
			"name": "owner",
			"outputs": [
				{
					"internalType": "address",
					"name": "",
					"type": "address"
				}
			],
			"stateMutability": "view",
			"type": "function"
		},
		{
			"inputs": [],
			"name": "renounceOwnership",
			"outputs": [],
			"stateMutability": "nonpayable",
			"type": "function"
		},
		{
			"inputs": [
				{
					"internalType": "string",
					"name": "_objectId",
					"type": "string"
				}
			],
			"name": "requestResult",
			"outputs": [
				{
					"internalType": "bytes32",
					"name": "requestId",
					"type": "bytes32"
				}
			],
			"stateMutability": "nonpayable",
			"type": "function"
		},
		{
			"inputs": [
				{
					"internalType": "string",
					"name": "_objectId",
					"type": "string"
				},
				{
					"internalType": "enum BettingAIO.BetSide",
					"name": "_betSide",
					"type": "uint8"
				},
				{
					"internalType": "enum BettingAIO.BetType",
					"name": "_betType",
					"type": "uint8"
				},
				{
					"internalType": "uint8",
					"name": "_selection",
					"type": "uint8"
				},
				{
					"internalType": "uint16",
					"name": "_odds",
					"type": "uint16"
				},
				{
					"internalType": "string",
					"name": "_tokenURI",
					"type": "string"
				}
			],
			"name": "transferBetToNFT",
			"outputs": [
				{
					"internalType": "uint256",
					"name": "",
					"type": "uint256"
				}
			],
			"stateMutability": "nonpayable",
			"type": "function"
		},
		{
			"inputs": [
				{
					"internalType": "address",
					"name": "newOwner",
					"type": "address"
				}
			],
			"name": "transferOwnership",
			"outputs": [],
			"stateMutability": "nonpayable",
			"type": "function"
		},
		{
			"inputs": [
				{
					"internalType": "string",
					"name": "_objectId",
					"type": "string"
				},
				{
					"internalType": "uint256",
					"name": "tokenId",
					"type": "uint256"
				}
			],
			"name": "withdrawWithNFT",
			"outputs": [],
			"stateMutability": "payable",
			"type": "function"
		}
	]
}