{
	"data": {
		"bytecode": {
			"linkReferences": {},
			"object": "608060405260016005553480156200001657600080fd5b50604051620050843803806200508483398181016040528101906200003c9190620002e1565b6200005c620000506200015360201b60201c565b6200015b60201b60201c565b6200008173326c977e6efc84e512bb9c30f76e30c160ed06fb6200021f60201b60201c565b73c8d925525ca8759812d0c299b90247917d4d4b7c600760006101000a81548173ffffffffffffffffffffffffffffffffffffffff021916908373ffffffffffffffffffffffffffffffffffffffff1602179055507f3765636237343735336534313462353462323665643162393131623838643637600881905550662386f26fc1000060098190555080600a60006101000a81548173ffffffffffffffffffffffffffffffffffffffff021916908373ffffffffffffffffffffffffffffffffffffffff1602179055505062000313565b600033905090565b60008060009054906101000a900473ffffffffffffffffffffffffffffffffffffffff169050816000806101000a81548173ffffffffffffffffffffffffffffffffffffffff021916908373ffffffffffffffffffffffffffffffffffffffff1602179055508173ffffffffffffffffffffffffffffffffffffffff168173ffffffffffffffffffffffffffffffffffffffff167f8be0079c531659141344cd1fd0a4f28419497f9722a3daafe3b4186f6b6457e060405160405180910390a35050565b80600360006101000a81548173ffffffffffffffffffffffffffffffffffffffff021916908373ffffffffffffffffffffffffffffffffffffffff16021790555050565b600080fd5b600073ffffffffffffffffffffffffffffffffffffffff82169050919050565b6000620002958262000268565b9050919050565b6000620002a98262000288565b9050919050565b620002bb816200029c565b8114620002c757600080fd5b50565b600081519050620002db81620002b0565b92915050565b600060208284031215620002fa57620002f962000263565b5b60006200030a84828501620002ca565b91505092915050565b614d6180620003236000396000f3fe6080604052600436106100c25760003560e01c80639201de551161007f578063db3174ec11610059578063db3174ec14610246578063e603c21914610283578063f2fde38b1461029f578063f96cb2df146102c8576100c2565b80639201de55146101a2578063a9583d32146101e0578063c80e476e1461021d576100c2565b8063042f2b65146100c7578063100a56c5146100f05780633195d58d1461010c5780636920f52b14610135578063715018a6146101605780638da5cb5b14610177575b600080fd5b3480156100d357600080fd5b506100ee60048036038101906100e9919061353a565b610305565b005b61010a600480360381019061010591906136ad565b610506565b005b34801561011857600080fd5b50610133600480360381019061012e9190613747565b6106d6565b005b34801561014157600080fd5b5061014a610858565b6040516101579190613826565b60405180910390f35b34801561016c57600080fd5b5061017561087e565b005b34801561018357600080fd5b5061018c610906565b6040516101999190613862565b60405180910390f35b3480156101ae57600080fd5b506101c960048036038101906101c4919061387d565b61092f565b6040516101d7929190613952565b60405180910390f35b3480156101ec57600080fd5b5061020760048036038101906102029190613ab2565b610b4c565b6040516102149190613b0a565b60405180910390f35b34801561022957600080fd5b50610244600480360381019061023f9190613b4a565b610be6565b005b34801561025257600080fd5b5061026d60048036038101906102689190613bf9565b610f9b565b60405161027a9190613cd7565b60405180910390f35b61029d600480360381019061029891906136ad565b611743565b005b3480156102ab57600080fd5b506102c660048036038101906102c19190613d1e565b611940565b005b3480156102d457600080fd5b506102ef60048036038101906102ea9190613d4b565b611a38565b6040516102fc9190613dd5565b60405180910390f35b816006600082815260200190815260200160002060009054906101000a900473ffffffffffffffffffffffffffffffffffffffff1673ffffffffffffffffffffffffffffffffffffffff163373ffffffffffffffffffffffffffffffffffffffff16146103a7576040517f08c379a000000000000000000000000000000000000000000000000000000000815260040161039e90613e62565b60405180910390fd5b6006600082815260200190815260200160002060006101000a81549073ffffffffffffffffffffffffffffffffffffffff0219169055807f7cc135e0cebb02c3480ae5d74d377283180a2601f8f644edf7987b009316c63a60405160405180910390a26000806104168461092f565b915091508060128360405161042b9190613ebe565b908152602001604051809103902060006101000a81548160ff021916908360ff1602179055506000600181111561046557610464613ed5565b5b600b836040516104759190613ebe565b908152602001604051809103902060000160009054906101000a900460ff1660018111156104a6576104a5613ed5565b5b146104ff576104b482611baf565b6001600b836040516104c69190613ebe565b908152602001604051809103902060000160006101000a81548160ff021916908360018111156104f9576104f8613ed5565b5b02179055505b5050505050565b858560018081111561051b5761051a613ed5565b5b600b838360405161052d929190613f29565b908152602001604051809103902060000160009054906101000a900460ff16600181111561055e5761055d613ed5565b5b14156105a35781816040517f1b21b92100000000000000000000000000000000000000000000000000000000815260040161059a929190613f6f565b60405180910390fd5b34600081116105e957806040517fd59f5ff00000000000000000000000000000000000000000000000000000000081526004016105e09190613cd7565b60405180910390fd5b8461ffff166103e8811161063457806040517fa0c5f30c00000000000000000000000000000000000000000000000000000000815260040161062b9190613cd7565b60405180910390fd5b348514610676576040517f08c379a000000000000000000000000000000000000000000000000000000000815260040161066d90614005565b60405180910390fd5b6106ca8a8a8080601f016020809104026020016040519081016040528093929190818152602001838380828437600081840152601f19601f8201169050808301925050505050505060008a8a8a8a33612193565b50505050505050505050565b600a60009054906101000a900473ffffffffffffffffffffffffffffffffffffffff1673ffffffffffffffffffffffffffffffffffffffff1663ac7aae4233836040518363ffffffff1660e01b8152600401610733929190614025565b600060405180830381600087803b15801561074d57600080fd5b505af1158015610761573d6000803e3d6000fd5b5050505060108383604051610777929190613f29565b9081526020016040518091039020600082815260200190815260200160002060009054906101000a900460ff166107e3576040517f08c379a00000000000000000000000000000000000000000000000000000000081526004016107da9061409a565b60405180910390fd5b61081e33600f85856040516107f9929190613f29565b90815260200160405180910390206000848152602001908152602001600020546125dc565b600f8383604051610830929190613f29565b9081526020016040518091039020600082815260200190815260200160002060009055505050565b600a60009054906101000a900473ffffffffffffffffffffffffffffffffffffffff1681565b610886612627565b73ffffffffffffffffffffffffffffffffffffffff166108a4610906565b73ffffffffffffffffffffffffffffffffffffffff16146108fa576040517f08c379a00000000000000000000000000000000000000000000000000000000081526004016108f190614106565b60405180910390fd5b610904600061262f565b565b60008060009054906101000a900473ffffffffffffffffffffffffffffffffffffffff16905090565b6060600080600090506000805b60208360ff1610801561098e5750600060f81b868460ff166020811061096557610964614126565b5b1a60f81b7effffffffffffffffffffffffffffffffffffffffffffffffffffffffffffff191614155b156109a657828061099e90614184565b93505061093c565b60006001846109b591906141ae565b905060008160ff1667ffffffffffffffff8111156109d6576109d5613987565b5b6040519080825280601f01601f191660200182016040528015610a085781602001600182028036833780820191505090505b509050600094505b60208560ff16108015610a625750600060f81b888660ff1660208110610a3957610a38614126565b5b1a60f81b7effffffffffffffffffffffffffffffffffffffffffffffffffffffffffffff191614155b15610b30578160ff168560ff161015610ad557878560ff1660208110610a8b57610a8a614126565b5b1a60f81b818660ff1681518110610aa557610aa4614126565b5b60200101907effffffffffffffffffffffffffffffffffffffffffffffffffffffffffffff1916908160001a9053505b6030888660ff1660208110610aed57610aec614126565b5b1a60f81b60f81c610afe91906141ae565b93508360ff16600a84610b1191906141e2565b610b1b919061423c565b92508480610b2890614184565b955050610a10565b80600a84610b3e91906142c1565b965096505050505050915091565b600080610b636008543063042f2b6560e01b6126f3565b9050610baf6040518060400160405280600981526020017f666978747572654964000000000000000000000000000000000000000000000081525084836127249092919063ffffffff16565b610bde600760009054906101000a900473ffffffffffffffffffffffffffffffffffffffff1682600954612757565b915050919050565b6000600c8888604051610bfa929190613f29565b90815260200160405180910390206000876001811115610c1d57610c1c613ed5565b5b6001811115610c2f57610c2e613ed5565b5b81526020019081526020016000206000866000811115610c5257610c51613ed5565b5b6000811115610c6457610c63613ed5565b5b815260200190815260200160002060008560ff1660ff16815260200190815260200160002060008461ffff1661ffff168152602001908152602001600020805480602002602001604051908101604052809291908181526020016000905b82821015610d545783829060005260206000209060020201604051806040016040529081600082015481526020016001820160009054906101000a900473ffffffffffffffffffffffffffffffffffffffff1673ffffffffffffffffffffffffffffffffffffffff1673ffffffffffffffffffffffffffffffffffffffff168152505081526020019060010190610cc2565b5050505090506000805b8251811015610f4f573373ffffffffffffffffffffffffffffffffffffffff16838281518110610d9157610d90614126565b5b60200260200101516020015173ffffffffffffffffffffffffffffffffffffffff16148015610ddd575083838281518110610dcf57610dce614126565b5b602002602001015160000151145b15610f3c57600191507f0ade976e65f3978aa3968af04901755321152ba32b08ee0175e035760c11c1b58a8a8a8a8a8a8a33604051610e23989796959493929190614391565b60405180910390a1600c8a8a604051610e3d929190613f29565b90815260200160405180910390206000896001811115610e6057610e5f613ed5565b5b6001811115610e7257610e71613ed5565b5b81526020019081526020016000206000886000811115610e9557610e94613ed5565b5b6000811115610ea757610ea6613ed5565b5b815260200190815260200160002060008760ff1660ff16815260200190815260200160002060008661ffff1661ffff1681526020019081526020016000208181548110610ef757610ef6614126565b5b90600052602060002090600202016000808201600090556001820160006101000a81549073ffffffffffffffffffffffffffffffffffffffff02191690555050610f4f565b8080610f4790614409565b915050610d5e565b5080610f90576040517f08c379a0000000000000000000000000000000000000000000000000000000008152600401610f879061449e565b60405180910390fd5b505050505050505050565b6000806000905060005b600d8b8b604051610fb7929190613f29565b908152602001604051809103902060008a6001811115610fda57610fd9613ed5565b5b6001811115610fec57610feb613ed5565b5b8152602001908152602001600020600089600081111561100f5761100e613ed5565b5b600081111561102157611020613ed5565b5b815260200190815260200160002060008860ff1660ff16815260200190815260200160002080549050811015611343573373ffffffffffffffffffffffffffffffffffffffff16600d8c8c60405161107a929190613f29565b908152602001604051809103902060008b600181111561109d5761109c613ed5565b5b60018111156110af576110ae613ed5565b5b815260200190815260200160002060008a60008111156110d2576110d1613ed5565b5b60008111156110e4576110e3613ed5565b5b815260200190815260200160002060008960ff1660ff168152602001908152602001600020828154811061111b5761111a614126565b5b906000526020600020906002020160010160029054906101000a900473ffffffffffffffffffffffffffffffffffffffff1673ffffffffffffffffffffffffffffffffffffffff1614801561124957508561ffff16600d8c8c604051611182929190613f29565b908152602001604051809103902060008b60018111156111a5576111a4613ed5565b5b60018111156111b7576111b6613ed5565b5b815260200190815260200160002060008a60008111156111da576111d9613ed5565b5b60008111156111ec576111eb613ed5565b5b815260200190815260200160002060008960ff1660ff168152602001908152602001600020828154811061122357611222614126565b5b906000526020600020906002020160010160009054906101000a900461ffff1661ffff16145b15611330576001600d8c8c604051611262929190613f29565b908152602001604051809103902060008b600181111561128557611284613ed5565b5b600181111561129757611296613ed5565b5b815260200190815260200160002060008a60008111156112ba576112b9613ed5565b5b60008111156112cc576112cb613ed5565b5b815260200190815260200160002060008960ff1660ff168152602001908152602001600020828154811061130357611302614126565b5b906000526020600020906002020160010160166101000a81548160ff021916908315150217905550600191505b808061133b90614409565b915050610fa5565b5080611384576040517f08c379a000000000000000000000000000000000000000000000000000000000815260040161137b9061450a565b60405180910390fd5b600060118b8b604051611398929190613f29565b908152602001604051809103902054905060118b8b6040516113bb929190613f29565b908152602001604051809103902060008154809291906113da90614409565b919050555060006114338c8c8080601f016020809104026020016040519081016040528093929190818152602001838380828437600081840152601f19601f820116905080830192505050505050508b8b8b8b33612777565b9050600a60009054906101000a900473ffffffffffffffffffffffffffffffffffffffff1673ffffffffffffffffffffffffffffffffffffffff1663e86f636733838f8f878c8c6040518863ffffffff1660e01b815260040161149c979695949392919061452a565b600060405180830381600087803b1580156114b657600080fd5b505af11580156114ca573d6000803e3d6000fd5b50505050600e8c8c6040516114e0929190613f29565b908152602001604051809103902060008b600181111561150357611502613ed5565b5b600181111561151557611514613ed5565b5b815260200190815260200160002060008a600081111561153857611537613ed5565b5b600081111561154a57611549613ed5565b5b815260200190815260200160002060008960ff1660ff16815260200190815260200160002060008861ffff1661ffff16815260200190815260200160002060003373ffffffffffffffffffffffffffffffffffffffff1673ffffffffffffffffffffffffffffffffffffffff16815260200190815260200160002054600f8d8d6040516115d8929190613f29565b9081526020016040518091039020600083815260200190815260200160002081905550600e8c8c60405161160d929190613f29565b908152602001604051809103902060008b60018111156116305761162f613ed5565b5b600181111561164257611641613ed5565b5b815260200190815260200160002060008a600081111561166557611664613ed5565b5b600081111561167757611676613ed5565b5b815260200190815260200160002060008960ff1660ff16815260200190815260200160002060008861ffff1661ffff16815260200190815260200160002060003373ffffffffffffffffffffffffffffffffffffffff1673ffffffffffffffffffffffffffffffffffffffff168152602001908152602001600020600090557f5089770ecce0ed387baf1e3b000fcc13bd3c2205d6205f06afeb547db5f2321e8c8c836040516117299392919061458f565b60405180910390a180935050505098975050505050505050565b858560018081111561175857611757613ed5565b5b600b838360405161176a929190613f29565b908152602001604051809103902060000160009054906101000a900460ff16600181111561179b5761179a613ed5565b5b14156117e05781816040517f1b21b9210000000000000000000000000000000000000000000000000000000081526004016117d7929190613f6f565b60405180910390fd5b346000811161182657806040517fd59f5ff000000000000000000000000000000000000000000000000000000000815260040161181d9190613cd7565b60405180910390fd5b8461ffff166103e8811161187157806040517fa0c5f30c0000000000000000000000000000000000000000000000000000000081526004016118689190613cd7565b60405180910390fd5b60006103e8808861188291906145c1565b61ffff168761189191906141e2565b61189b91906145f5565b90503481146118df576040517f08c379a00000000000000000000000000000000000000000000000000000000081526004016118d690614698565b60405180910390fd5b6119338b8b8080601f016020809104026020016040519081016040528093929190818152602001838380828437600081840152601f19601f8201169050808301925050505050505060018b8b8b8b33612193565b5050505050505050505050565b611948612627565b73ffffffffffffffffffffffffffffffffffffffff16611966610906565b73ffffffffffffffffffffffffffffffffffffffff16146119bc576040517f08c379a00000000000000000000000000000000000000000000000000000000081526004016119b390614106565b60405180910390fd5b600073ffffffffffffffffffffffffffffffffffffffff168173ffffffffffffffffffffffffffffffffffffffff161415611a2c576040517f08c379a0000000000000000000000000000000000000000000000000000000008152600401611a239061472a565b60405180910390fd5b611a358161262f565b50565b600080601285604051611a4b9190613ebe565b908152602001604051809103902060009054906101000a900460ff16905060008160ff161415611ab0576040517f08c379a0000000000000000000000000000000000000000000000000000000008152600401611aa790614796565b60405180910390fd5b60008360ff161415611b085760006001811115611ad057611acf613ed5565b5b846001811115611ae357611ae2613ed5565b5b1415611af85760018160ff1614915050611ba8565b60018160ff161415915050611ba8565b60018360ff161415611b605760006001811115611b2857611b27613ed5565b5b846001811115611b3b57611b3a613ed5565b5b1415611b505760038160ff1614915050611ba8565b60038160ff161415915050611ba8565b60006001811115611b7457611b73613ed5565b5b846001811115611b8757611b86613ed5565b5b1415611b9c5760028160ff1614915050611ba8565b60028160ff1614159150505b9392505050565b6001600b82604051611bc19190613ebe565b908152602001604051809103902060000160006101000a81548160ff02191690836001811115611bf457611bf3613ed5565b5b021790555060005b60018160ff16101561218f5760008160ff166000811115611c2057611c1f613ed5565b5b905060005b60038160ff16101561217a5760008190506000611c4486600084611a38565b905060006001151582151514611c5b576001611c5e565b60005b90506000600d88604051611c729190613ebe565b90815260200160405180910390206000836001811115611c9557611c94613ed5565b5b6001811115611ca757611ca6613ed5565b5b81526020019081526020016000206000876000811115611cca57611cc9613ed5565b5b6000811115611cdc57611cdb613ed5565b5b815260200190815260200160002060008560ff1660ff168152602001908152602001600020805480602002602001604051908101604052809291908181526020016000905b82821015611dee5783829060005260206000209060020201604051806080016040529081600082015481526020016001820160009054906101000a900461ffff1661ffff1661ffff1681526020016001820160029054906101000a900473ffffffffffffffffffffffffffffffffffffffff1673ffffffffffffffffffffffffffffffffffffffff1673ffffffffffffffffffffffffffffffffffffffff1681526020016001820160169054906101000a900460ff16151515158152505081526020019060010190611d21565b50505050905060005b815181101561216257818181518110611e1357611e12614126565b5b60200260200101516060015115611ec0576000611e708a858a89878781518110611e4057611e3f614126565b5b602002602001015160200151888881518110611e5f57611e5e614126565b5b602002602001015160400151612777565b9050600160108b604051611e849190613ebe565b9081526020016040518091039020600083815260200190815260200160002060006101000a81548160ff0219169083151502179055505061214f565b612019828281518110611ed657611ed5614126565b5b602002602001015160400151600e8b604051611ef29190613ebe565b90815260200160405180910390206000866001811115611f1557611f14613ed5565b5b6001811115611f2757611f26613ed5565b5b815260200190815260200160002060008a6000811115611f4a57611f49613ed5565b5b6000811115611f5c57611f5b613ed5565b5b815260200190815260200160002060008860ff1660ff1681526020019081526020016000206000858581518110611f9657611f95614126565b5b60200260200101516020015161ffff1661ffff1681526020019081526020016000206000858581518110611fcd57611fcc614126565b5b60200260200101516040015173ffffffffffffffffffffffffffffffffffffffff1673ffffffffffffffffffffffffffffffffffffffff168152602001908152602001600020546125dc565b600e896040516120299190613ebe565b9081526020016040518091039020600084600181111561204c5761204b613ed5565b5b600181111561205e5761205d613ed5565b5b8152602001908152602001600020600088600081111561208157612080613ed5565b5b600081111561209357612092613ed5565b5b815260200190815260200160002060008660ff1660ff16815260200190815260200160002060008383815181106120cd576120cc614126565b5b60200260200101516020015161ffff1661ffff168152602001908152602001600020600083838151811061210457612103614126565b5b60200260200101516040015173ffffffffffffffffffffffffffffffffffffffff1673ffffffffffffffffffffffffffffffffffffffff168152602001908152602001600020600090555b808061215a90614409565b915050611df7565b5050505050808061217290614184565b915050611c25565b5050808061218790614184565b915050611bfc565b5050565b60008660018111156121a8576121a7613ed5565b5b600060018111156121bc576121bb613ed5565b5b146121c85760006121cb565b60015b90506000600c896040516121df9190613ebe565b9081526020016040518091039020600083600181111561220257612201613ed5565b5b600181111561221457612213613ed5565b5b8152602001908152602001600020600088600081111561223757612236613ed5565b5b600081111561224957612248613ed5565b5b815260200190815260200160002060008760ff1660ff16815260200190815260200160002060008661ffff1661ffff168152602001908152602001600020805480602002602001604051908101604052809291908181526020016000905b828210156123395783829060005260206000209060020201604051806040016040529081600082015481526020016001820160009054906101000a900473ffffffffffffffffffffffffffffffffffffffff1673ffffffffffffffffffffffffffffffffffffffff1673ffffffffffffffffffffffffffffffffffffffff1681525050815260200190600101906122a7565b50505050905060008151141561235f57612358898989898989896127bd565b50506125d3565b600084905060005b82518110156125a557600083828151811061238557612384614126565b5b6020026020010151600001518311156123cc578382815181106123ab576123aa614126565b5b602002602001015160000151905080836123c591906147b6565b92506123de565b82905080836123db91906147b6565b92505b61240b8c868c8c8c868a89815181106123fa576123f9614126565b5b602002602001015160200151612968565b83828151811061241e5761241d614126565b5b6020026020010151600001518114156124bc577f0ade976e65f3978aa3968af04901755321152ba32b08ee0175e035760c11c1b58c868c8c8c868a898151811061246b5761246a614126565b5b60200260200101516020015160405161248a97969594939291906147ea565b60405180910390a18382815181106124a5576124a4614126565b5b602002602001016124b4613439565b81525061256f565b808483815181106124d0576124cf614126565b5b60200260200101516000018181516124e891906147b6565b915081815250507f3f3925f6afe1ab09977ba289dc98c6334b2773372c1f7eaf605cedb85c643f018c868c8c8c89888151811061252857612527614126565b5b6020026020010151600001518a898151811061254757612546614126565b5b60200260200101516020015160405161256697969594939291906147ea565b60405180910390a15b6000831415612591576125878c8c8c8c8c8c8c612968565b50505050506125d3565b50808061259d90614409565b915050612367565b506125c08a8a8a8a8a868b6125ba91906147b6565b8a612968565b6125cf8a8a8a8a8a868a6127bd565b5050505b50505050505050565b8173ffffffffffffffffffffffffffffffffffffffff166108fc829081150290604051600060405180830381858888f19350505050158015612622573d6000803e3d6000fd5b505050565b600033905090565b60008060009054906101000a900473ffffffffffffffffffffffffffffffffffffffff169050816000806101000a81548173ffffffffffffffffffffffffffffffffffffffff021916908373ffffffffffffffffffffffffffffffffffffffff1602179055508173ffffffffffffffffffffffffffffffffffffffff168173ffffffffffffffffffffffffffffffffffffffff167f8be0079c531659141344cd1fd0a4f28419497f9722a3daafe3b4186f6b6457e060405160405180910390a35050565b6126fb613469565b612703613469565b61271a85858584612cba909392919063ffffffff16565b9150509392505050565b61273b828460800151612d6a90919063ffffffff16565b612752818460800151612d6a90919063ffffffff16565b505050565b600061276e8484846001634042994660e01b612d8f565b90509392505050565b6000610fff87838888888860405160200161279796959493929190614860565b6040516020818303038152906040528051906020012060001c1690509695505050505050565b600c876040516127cd9190613ebe565b908152602001604051809103902060008760018111156127f0576127ef613ed5565b5b600181111561280257612801613ed5565b5b8152602001908152602001600020600086600081111561282557612824613ed5565b5b600081111561283757612836613ed5565b5b815260200190815260200160002060008560ff1660ff16815260200190815260200160002060008461ffff1661ffff16815260200190815260200160002060405180604001604052808481526020018373ffffffffffffffffffffffffffffffffffffffff1681525090806001815401808255809150506001900390600052602060002090600202016000909190919091506000820151816000015560208201518160010160006101000a81548173ffffffffffffffffffffffffffffffffffffffff021916908373ffffffffffffffffffffffffffffffffffffffff16021790555050507fd9ead39440c1245780b4d6d60aa95d35bbac48e0d9cdf2b29e0e33f5e75aedbe8787878787878760405161295797969594939291906147ea565b60405180910390a150505050505050565b60008290506000600181111561298157612980613ed5565b5b87600181111561299457612993613ed5565b5b14156129c5576103e880856129a991906145c1565b61ffff16846129b891906141e2565b6129c291906145f5565b90505b80600e896040516129d69190613ebe565b908152602001604051809103902060008960018111156129f9576129f8613ed5565b5b6001811115612a0b57612a0a613ed5565b5b81526020019081526020016000206000886000811115612a2e57612a2d613ed5565b5b6000811115612a4057612a3f613ed5565b5b815260200190815260200160002060008760ff1660ff16815260200190815260200160002060008661ffff1661ffff16815260200190815260200160002060008473ffffffffffffffffffffffffffffffffffffffff1673ffffffffffffffffffffffffffffffffffffffff1681526020019081526020016000206000828254612aca919061423c565b92505081905550600d88604051612ae19190613ebe565b90815260200160405180910390206000886001811115612b0457612b03613ed5565b5b6001811115612b1657612b15613ed5565b5b81526020019081526020016000206000876000811115612b3957612b38613ed5565b5b6000811115612b4b57612b4a613ed5565b5b815260200190815260200160002060008660ff1660ff16815260200190815260200160002060405180608001604052808581526020018661ffff1681526020018473ffffffffffffffffffffffffffffffffffffffff1681526020016000151581525090806001815401808255809150506001900390600052602060002090600202016000909190919091506000820151816000015560208201518160010160006101000a81548161ffff021916908361ffff16021790555060408201518160010160026101000a81548173ffffffffffffffffffffffffffffffffffffffff021916908373ffffffffffffffffffffffffffffffffffffffff16021790555060608201518160010160166101000a81548160ff02191690831515021790555050507f0fca364a96d7ed643a08a7b3f2be55b7e2993632ce10f4c978dc379198544f7d88888888888888604051612ca897969594939291906147ea565b60405180910390a15050505050505050565b612cc2613469565b612cd28560800151610100612ff7565b508385600001818152505082856020019073ffffffffffffffffffffffffffffffffffffffff16908173ffffffffffffffffffffffffffffffffffffffff16815250508185604001907bffffffffffffffffffffffffffffffffffffffffffffffffffffffff191690817bffffffffffffffffffffffffffffffffffffffffffffffffffffffff191681525050849050949350505050565b612d778260038351613061565b612d8a81836131a690919063ffffffff16565b505050565b600030600554604051602001612da6929190614943565b604051602081830303815290604052805190602001209050600554856060018181525050856006600083815260200190815260200160002060006101000a81548173ffffffffffffffffffffffffffffffffffffffff021916908373ffffffffffffffffffffffffffffffffffffffff160217905550807fb5e6e01e79f91267dc17b4e6314d5d4d03593d2ceee0fbb452b750bd70ea5af960405160405180910390a2600082600080886000015189602001518a604001518b606001518a8d6080015160000151604051602401612e849897969594939291906149ff565b604051602081830303815290604052907bffffffffffffffffffffffffffffffffffffffffffffffffffffffff19166020820180517bffffffffffffffffffffffffffffffffffffffffffffffffffffffff83818316178352505050509050600360009054906101000a900473ffffffffffffffffffffffffffffffffffffffff1673ffffffffffffffffffffffffffffffffffffffff16634000aea08887846040518463ffffffff1660e01b8152600401612f4293929190614a84565b602060405180830381600087803b158015612f5c57600080fd5b505af1158015612f70573d6000803e3d6000fd5b505050506040513d601f19601f82011682018060405250810190612f949190614aee565b612fd3576040517f08c379a0000000000000000000000000000000000000000000000000000000008152600401612fca90614b8d565b60405180910390fd5b600160056000828254612fe6919061423c565b925050819055505095945050505050565b612fff6134d6565b600060208361300e91906142c1565b1461303a5760208261302091906142c1565b602061302c91906147b6565b82613037919061423c565b91505b81836020018181525050604051808452600081528281016020016040525082905092915050565b6017811161308e576130888160058460ff16901b60ff1617846131c890919063ffffffff16565b506131a1565b60ff81116130d0576130b3601860058460ff16901b17846131c890919063ffffffff16565b506130ca816001856131e89092919063ffffffff16565b506131a0565b61ffff8111613113576130f6601960058460ff16901b17846131c890919063ffffffff16565b5061310d816002856131e89092919063ffffffff16565b5061319f565b63ffffffff81116131585761313b601a60058460ff16901b17846131c890919063ffffffff16565b50613152816004856131e89092919063ffffffff16565b5061319e565b67ffffffffffffffff811161319d57613184601b60058460ff16901b17846131c890919063ffffffff16565b5061319b816008856131e89092919063ffffffff16565b505b5b5b5b5b505050565b6131ae6134d6565b6131c08384600001515184855161320a565b905092915050565b6131d06134d6565b6131e08384600001515184613314565b905092915050565b6131f06134d6565b61320184856000015151858561336b565b90509392505050565b6132126134d6565b825182111561322057600080fd5b84602001518285613231919061423c565b11156132665761326585600261325688602001518887613251919061423c565b6133f9565b61326091906141e2565b613415565b5b6000808651805187602083010193508088870111156132855787860182525b60208701925050505b602084106132cc57805182526020826132a7919061423c565b91506020816132b6919061423c565b90506020846132c591906147b6565b935061328e565b600060018560206132dd91906147b6565b6101006132ea9190614ce0565b6132f491906147b6565b905080198251168184511681811785525050879350505050949350505050565b61331c6134d6565b8360200151831061334257613341846002866020015161333c91906141e2565b613415565b5b835180516020858301018481538186141561335e576001820183525b5050508390509392505050565b6133736134d6565b84602001518483613384919061423c565b11156133ac576133ab856002868561339c919061423c565b6133a691906141e2565b613415565b5b60006001836101006133be9190614ce0565b6133c891906147b6565b905085518386820101858319825116178152815185880111156133eb5784870182525b505085915050949350505050565b60008183111561340b5782905061340f565b8190505b92915050565b6000826000015190506134288383612ff7565b5061343383826131a6565b50505050565b604051806040016040528060008152602001600073ffffffffffffffffffffffffffffffffffffffff1681525090565b6040518060a0016040528060008019168152602001600073ffffffffffffffffffffffffffffffffffffffff16815260200160007bffffffffffffffffffffffffffffffffffffffffffffffffffffffff19168152602001600081526020016134d06134d6565b81525090565b604051806040016040528060608152602001600081525090565b6000604051905090565b600080fd5b600080fd5b6000819050919050565b61351781613504565b811461352257600080fd5b50565b6000813590506135348161350e565b92915050565b60008060408385031215613551576135506134fa565b5b600061355f85828601613525565b925050602061357085828601613525565b9150509250929050565b600080fd5b600080fd5b600080fd5b60008083601f84011261359f5761359e61357a565b5b8235905067ffffffffffffffff8111156135bc576135bb61357f565b5b6020830191508360018202830111156135d8576135d7613584565b5b9250929050565b600181106135ec57600080fd5b50565b6000813590506135fe816135df565b92915050565b600060ff82169050919050565b61361a81613604565b811461362557600080fd5b50565b60008135905061363781613611565b92915050565b600061ffff82169050919050565b6136548161363d565b811461365f57600080fd5b50565b6000813590506136718161364b565b92915050565b6000819050919050565b61368a81613677565b811461369557600080fd5b50565b6000813590506136a781613681565b92915050565b60008060008060008060a087890312156136ca576136c96134fa565b5b600087013567ffffffffffffffff8111156136e8576136e76134ff565b5b6136f489828a01613589565b9650965050602061370789828a016135ef565b945050604061371889828a01613628565b935050606061372989828a01613662565b925050608061373a89828a01613698565b9150509295509295509295565b6000806000604084860312156137605761375f6134fa565b5b600084013567ffffffffffffffff81111561377e5761377d6134ff565b5b61378a86828701613589565b9350935050602061379d86828701613698565b9150509250925092565b600073ffffffffffffffffffffffffffffffffffffffff82169050919050565b6000819050919050565b60006137ec6137e76137e2846137a7565b6137c7565b6137a7565b9050919050565b60006137fe826137d1565b9050919050565b6000613810826137f3565b9050919050565b61382081613805565b82525050565b600060208201905061383b6000830184613817565b92915050565b600061384c826137a7565b9050919050565b61385c81613841565b82525050565b60006020820190506138776000830184613853565b92915050565b600060208284031215613893576138926134fa565b5b60006138a184828501613525565b91505092915050565b600081519050919050565b600082825260208201905092915050565b60005b838110156138e45780820151818401526020810190506138c9565b838111156138f3576000848401525b50505050565b6000601f19601f8301169050919050565b6000613915826138aa565b61391f81856138b5565b935061392f8185602086016138c6565b613938816138f9565b840191505092915050565b61394c81613604565b82525050565b6000604082019050818103600083015261396c818561390a565b905061397b6020830184613943565b9392505050565b600080fd5b7f4e487b7100000000000000000000000000000000000000000000000000000000600052604160045260246000fd5b6139bf826138f9565b810181811067ffffffffffffffff821117156139de576139dd613987565b5b80604052505050565b60006139f16134f0565b90506139fd82826139b6565b919050565b600067ffffffffffffffff821115613a1d57613a1c613987565b5b613a26826138f9565b9050602081019050919050565b82818337600083830152505050565b6000613a55613a5084613a02565b6139e7565b905082815260208101848484011115613a7157613a70613982565b5b613a7c848285613a33565b509392505050565b600082601f830112613a9957613a9861357a565b5b8135613aa9848260208601613a42565b91505092915050565b600060208284031215613ac857613ac76134fa565b5b600082013567ffffffffffffffff811115613ae657613ae56134ff565b5b613af284828501613a84565b91505092915050565b613b0481613504565b82525050565b6000602082019050613b1f6000830184613afb565b92915050565b60028110613b3257600080fd5b50565b600081359050613b4481613b25565b92915050565b600080600080600080600060c0888a031215613b6957613b686134fa565b5b600088013567ffffffffffffffff811115613b8757613b866134ff565b5b613b938a828b01613589565b97509750506020613ba68a828b01613b35565b9550506040613bb78a828b016135ef565b9450506060613bc88a828b01613628565b9350506080613bd98a828b01613662565b92505060a0613bea8a828b01613698565b91505092959891949750929550565b60008060008060008060008060c0898b031215613c1957613c186134fa565b5b600089013567ffffffffffffffff811115613c3757613c366134ff565b5b613c438b828c01613589565b98509850506020613c568b828c01613b35565b9650506040613c678b828c016135ef565b9550506060613c788b828c01613628565b9450506080613c898b828c01613662565b93505060a089013567ffffffffffffffff811115613caa57613ca96134ff565b5b613cb68b828c01613589565b92509250509295985092959890939650565b613cd181613677565b82525050565b6000602082019050613cec6000830184613cc8565b92915050565b613cfb81613841565b8114613d0657600080fd5b50565b600081359050613d1881613cf2565b92915050565b600060208284031215613d3457613d336134fa565b5b6000613d4284828501613d09565b91505092915050565b600080600060608486031215613d6457613d636134fa565b5b600084013567ffffffffffffffff811115613d8257613d816134ff565b5b613d8e86828701613a84565b9350506020613d9f86828701613b35565b9250506040613db086828701613628565b9150509250925092565b60008115159050919050565b613dcf81613dba565b82525050565b6000602082019050613dea6000830184613dc6565b92915050565b7f536f75726365206d75737420626520746865206f7261636c65206f662074686560008201527f2072657175657374000000000000000000000000000000000000000000000000602082015250565b6000613e4c6028836138b5565b9150613e5782613df0565b604082019050919050565b60006020820190508181036000830152613e7b81613e3f565b9050919050565b600081905092915050565b6000613e98826138aa565b613ea28185613e82565b9350613eb28185602086016138c6565b80840191505092915050565b6000613eca8284613e8d565b915081905092915050565b7f4e487b7100000000000000000000000000000000000000000000000000000000600052602160045260246000fd5b6000613f108385613e82565b9350613f1d838584613a33565b82840190509392505050565b6000613f36828486613f04565b91508190509392505050565b6000613f4e83856138b5565b9350613f5b838584613a33565b613f64836138f9565b840190509392505050565b60006020820190508181036000830152613f8a818486613f42565b90509392505050565b7f416d6f756e7420616e642073656e642076616c756520617265206e6f7420657160008201527f75616c2100000000000000000000000000000000000000000000000000000000602082015250565b6000613fef6024836138b5565b9150613ffa82613f93565b604082019050919050565b6000602082019050818103600083015261401e81613fe2565b9050919050565b600060408201905061403a6000830185613853565b6140476020830184613cc8565b9392505050565b7f426574206c6f7374000000000000000000000000000000000000000000000000600082015250565b60006140846008836138b5565b915061408f8261404e565b602082019050919050565b600060208201905081810360008301526140b381614077565b9050919050565b7f4f776e61626c653a2063616c6c6572206973206e6f7420746865206f776e6572600082015250565b60006140f06020836138b5565b91506140fb826140ba565b602082019050919050565b6000602082019050818103600083015261411f816140e3565b9050919050565b7f4e487b7100000000000000000000000000000000000000000000000000000000600052603260045260246000fd5b7f4e487b7100000000000000000000000000000000000000000000000000000000600052601160045260246000fd5b600061418f82613604565b915060ff8214156141a3576141a2614155565b5b600182019050919050565b60006141b982613604565b91506141c483613604565b9250828210156141d7576141d6614155565b5b828203905092915050565b60006141ed82613677565b91506141f883613677565b9250817fffffffffffffffffffffffffffffffffffffffffffffffffffffffffffffffff048311821515161561423157614230614155565b5b828202905092915050565b600061424782613677565b915061425283613677565b9250827fffffffffffffffffffffffffffffffffffffffffffffffffffffffffffffffff0382111561428757614286614155565b5b828201905092915050565b7f4e487b7100000000000000000000000000000000000000000000000000000000600052601260045260246000fd5b60006142cc82613677565b91506142d783613677565b9250826142e7576142e6614292565b5b828206905092915050565b6002811061430357614302613ed5565b5b50565b6000819050614314826142f2565b919050565b600061432482614306565b9050919050565b61433481614319565b82525050565b6001811061434b5761434a613ed5565b5b50565b600081905061435c8261433a565b919050565b600061436c8261434e565b9050919050565b61437c81614361565b82525050565b61438b8161363d565b82525050565b600060e08201905081810360008301526143ac818a8c613f42565b90506143bb602083018961432b565b6143c86040830188614373565b6143d56060830187613943565b6143e26080830186614382565b6143ef60a0830185613cc8565b6143fc60c0830184613853565b9998505050505050505050565b600061441482613677565b91507fffffffffffffffffffffffffffffffffffffffffffffffffffffffffffffffff82141561444757614446614155565b5b600182019050919050565b7f4e6f204265740000000000000000000000000000000000000000000000000000600082015250565b60006144886006836138b5565b915061449382614452565b602082019050919050565b600060208201905081810360008301526144b78161447b565b9050919050565b7f4e6f204d61746368656420426574000000000000000000000000000000000000600082015250565b60006144f4600e836138b5565b91506144ff826144be565b602082019050919050565b60006020820190508181036000830152614523816144e7565b9050919050565b600060a08201905061453f600083018a613853565b61454c6020830189613cc8565b818103604083015261455f818789613f42565b905061456e6060830186613cc8565b8181036080830152614581818486613f42565b905098975050505050505050565b600060408201905081810360008301526145aa818587613f42565b90506145b96020830184613cc8565b949350505050565b60006145cc8261363d565b91506145d78361363d565b9250828210156145ea576145e9614155565b5b828203905092915050565b600061460082613677565b915061460b83613677565b92508261461b5761461a614292565b5b828204905092915050565b7f4c6971696469747920616e642073656e642076616c756520617265206e6f742060008201527f657175616c210000000000000000000000000000000000000000000000000000602082015250565b60006146826026836138b5565b915061468d82614626565b604082019050919050565b600060208201905081810360008301526146b181614675565b9050919050565b7f4f776e61626c653a206e6577206f776e657220697320746865207a65726f206160008201527f6464726573730000000000000000000000000000000000000000000000000000602082015250565b60006147146026836138b5565b915061471f826146b8565b604082019050919050565b6000602082019050818103600083015261474381614707565b9050919050565b7f4e6f20726573756c740000000000000000000000000000000000000000000000600082015250565b60006147806009836138b5565b915061478b8261474a565b602082019050919050565b600060208201905081810360008301526147af81614773565b9050919050565b60006147c182613677565b91506147cc83613677565b9250828210156147df576147de614155565b5b828203905092915050565b600060e0820190508181036000830152614804818a61390a565b9050614813602083018961432b565b6148206040830188614373565b61482d6060830187613943565b61483a6080830186614382565b61484760a0830185613cc8565b61485460c0830184613853565b98975050505050505050565b600060c082019050818103600083015261487a818961390a565b90506148896020830188613853565b614896604083018761432b565b6148a36060830186614373565b6148b06080830185613943565b6148bd60a0830184614382565b979650505050505050565b60006148d3826137f3565b9050919050565b60008160601b9050919050565b60006148f2826148da565b9050919050565b6000614904826148e7565b9050919050565b61491c614917826148c8565b6148f9565b82525050565b6000819050919050565b61493d61493882613677565b614922565b82525050565b600061494f828561490b565b60148201915061495f828461492c565b6020820191508190509392505050565b60007fffffffff0000000000000000000000000000000000000000000000000000000082169050919050565b6149a48161496f565b82525050565b600081519050919050565b600082825260208201905092915050565b60006149d1826149aa565b6149db81856149b5565b93506149eb8185602086016138c6565b6149f4816138f9565b840191505092915050565b600061010082019050614a15600083018b613853565b614a22602083018a613cc8565b614a2f6040830189613afb565b614a3c6060830188613853565b614a49608083018761499b565b614a5660a0830186613cc8565b614a6360c0830185613cc8565b81810360e0830152614a7581846149c6565b90509998505050505050505050565b6000606082019050614a996000830186613853565b614aa66020830185613cc8565b8181036040830152614ab881846149c6565b9050949350505050565b614acb81613dba565b8114614ad657600080fd5b50565b600081519050614ae881614ac2565b92915050565b600060208284031215614b0457614b036134fa565b5b6000614b1284828501614ad9565b91505092915050565b7f756e61626c6520746f207472616e73666572416e6443616c6c20746f206f726160008201527f636c650000000000000000000000000000000000000000000000000000000000602082015250565b6000614b776023836138b5565b9150614b8282614b1b565b604082019050919050565b60006020820190508181036000830152614ba681614b6a565b9050919050565b60008160011c9050919050565b6000808291508390505b6001851115614c0457808604811115614be057614bdf614155565b5b6001851615614bef5780820291505b8081029050614bfd85614bad565b9450614bc4565b94509492505050565b600082614c1d5760019050614cd9565b81614c2b5760009050614cd9565b8160018114614c415760028114614c4b57614c7a565b6001915050614cd9565b60ff841115614c5d57614c5c614155565b5b8360020a915084821115614c7457614c73614155565b5b50614cd9565b5060208310610133831016604e8410600b8410161715614caf5782820a905083811115614caa57614ca9614155565b5b614cd9565b614cbc8484846001614bba565b92509050818404811115614cd357614cd2614155565b5b81810290505b9392505050565b6000614ceb82613677565b9150614cf683613677565b9250614d237fffffffffffffffffffffffffffffffffffffffffffffffffffffffffffffffff8484614c0d565b90509291505056fea2646970667358221220d43c8c76f3474524392b232e033b02ecbc871de7d73e3e1618717badca344d1164736f6c63430008090033",
			"opcodes": "PUSH1 0x80 PUSH1 0x40 MSTORE PUSH1 0x1 PUSH1 0x5 SSTORE CALLVALUE DUP1 ISZERO PUSH3 0x16 JUMPI PUSH1 0x0 DUP1 REVERT JUMPDEST POP PUSH1 0x40 MLOAD PUSH3 0x5084 CODESIZE SUB DUP1 PUSH3 0x5084 DUP4 CODECOPY DUP2 DUP2 ADD PUSH1 0x40 MSTORE DUP2 ADD SWAP1 PUSH3 0x3C SWAP2 SWAP1 PUSH3 0x2E1 JUMP JUMPDEST PUSH3 0x5C PUSH3 0x50 PUSH3 0x153 PUSH1 0x20 SHL PUSH1 0x20 SHR JUMP JUMPDEST PUSH3 0x15B PUSH1 0x20 SHL PUSH1 0x20 SHR JUMP JUMPDEST PUSH3 0x81 PUSH20 0x326C977E6EFC84E512BB9C30F76E30C160ED06FB PUSH3 0x21F PUSH1 0x20 SHL PUSH1 0x20 SHR JUMP JUMPDEST PUSH20 0xC8D925525CA8759812D0C299B90247917D4D4B7C PUSH1 0x7 PUSH1 0x0 PUSH2 0x100 EXP DUP2 SLOAD DUP2 PUSH20 0xFFFFFFFFFFFFFFFFFFFFFFFFFFFFFFFFFFFFFFFF MUL NOT AND SWAP1 DUP4 PUSH20 0xFFFFFFFFFFFFFFFFFFFFFFFFFFFFFFFFFFFFFFFF AND MUL OR SWAP1 SSTORE POP PUSH32 0x3765636237343735336534313462353462323665643162393131623838643637 PUSH1 0x8 DUP2 SWAP1 SSTORE POP PUSH7 0x2386F26FC10000 PUSH1 0x9 DUP2 SWAP1 SSTORE POP DUP1 PUSH1 0xA PUSH1 0x0 PUSH2 0x100 EXP DUP2 SLOAD DUP2 PUSH20 0xFFFFFFFFFFFFFFFFFFFFFFFFFFFFFFFFFFFFFFFF MUL NOT AND SWAP1 DUP4 PUSH20 0xFFFFFFFFFFFFFFFFFFFFFFFFFFFFFFFFFFFFFFFF AND MUL OR SWAP1 SSTORE POP POP PUSH3 0x313 JUMP JUMPDEST PUSH1 0x0 CALLER SWAP1 POP SWAP1 JUMP JUMPDEST PUSH1 0x0 DUP1 PUSH1 0x0 SWAP1 SLOAD SWAP1 PUSH2 0x100 EXP SWAP1 DIV PUSH20 0xFFFFFFFFFFFFFFFFFFFFFFFFFFFFFFFFFFFFFFFF AND SWAP1 POP DUP2 PUSH1 0x0 DUP1 PUSH2 0x100 EXP DUP2 SLOAD DUP2 PUSH20 0xFFFFFFFFFFFFFFFFFFFFFFFFFFFFFFFFFFFFFFFF MUL NOT AND SWAP1 DUP4 PUSH20 0xFFFFFFFFFFFFFFFFFFFFFFFFFFFFFFFFFFFFFFFF AND MUL OR SWAP1 SSTORE POP DUP2 PUSH20 0xFFFFFFFFFFFFFFFFFFFFFFFFFFFFFFFFFFFFFFFF AND DUP2 PUSH20 0xFFFFFFFFFFFFFFFFFFFFFFFFFFFFFFFFFFFFFFFF AND PUSH32 0x8BE0079C531659141344CD1FD0A4F28419497F9722A3DAAFE3B4186F6B6457E0 PUSH1 0x40 MLOAD PUSH1 0x40 MLOAD DUP1 SWAP2 SUB SWAP1 LOG3 POP POP JUMP JUMPDEST DUP1 PUSH1 0x3 PUSH1 0x0 PUSH2 0x100 EXP DUP2 SLOAD DUP2 PUSH20 0xFFFFFFFFFFFFFFFFFFFFFFFFFFFFFFFFFFFFFFFF MUL NOT AND SWAP1 DUP4 PUSH20 0xFFFFFFFFFFFFFFFFFFFFFFFFFFFFFFFFFFFFFFFF AND MUL OR SWAP1 SSTORE POP POP JUMP JUMPDEST PUSH1 0x0 DUP1 REVERT JUMPDEST PUSH1 0x0 PUSH20 0xFFFFFFFFFFFFFFFFFFFFFFFFFFFFFFFFFFFFFFFF DUP3 AND SWAP1 POP SWAP2 SWAP1 POP JUMP JUMPDEST PUSH1 0x0 PUSH3 0x295 DUP3 PUSH3 0x268 JUMP JUMPDEST SWAP1 POP SWAP2 SWAP1 POP JUMP JUMPDEST PUSH1 0x0 PUSH3 0x2A9 DUP3 PUSH3 0x288 JUMP JUMPDEST SWAP1 POP SWAP2 SWAP1 POP JUMP JUMPDEST PUSH3 0x2BB DUP2 PUSH3 0x29C JUMP JUMPDEST DUP2 EQ PUSH3 0x2C7 JUMPI PUSH1 0x0 DUP1 REVERT JUMPDEST POP JUMP JUMPDEST PUSH1 0x0 DUP2 MLOAD SWAP1 POP PUSH3 0x2DB DUP2 PUSH3 0x2B0 JUMP JUMPDEST SWAP3 SWAP2 POP POP JUMP JUMPDEST PUSH1 0x0 PUSH1 0x20 DUP3 DUP5 SUB SLT ISZERO PUSH3 0x2FA JUMPI PUSH3 0x2F9 PUSH3 0x263 JUMP JUMPDEST JUMPDEST PUSH1 0x0 PUSH3 0x30A DUP5 DUP3 DUP6 ADD PUSH3 0x2CA JUMP JUMPDEST SWAP2 POP POP SWAP3 SWAP2 POP POP JUMP JUMPDEST PUSH2 0x4D61 DUP1 PUSH3 0x323 PUSH1 0x0 CODECOPY PUSH1 0x0 RETURN INVALID PUSH1 0x80 PUSH1 0x40 MSTORE PUSH1 0x4 CALLDATASIZE LT PUSH2 0xC2 JUMPI PUSH1 0x0 CALLDATALOAD PUSH1 0xE0 SHR DUP1 PUSH4 0x9201DE55 GT PUSH2 0x7F JUMPI DUP1 PUSH4 0xDB3174EC GT PUSH2 0x59 JUMPI DUP1 PUSH4 0xDB3174EC EQ PUSH2 0x246 JUMPI DUP1 PUSH4 0xE603C219 EQ PUSH2 0x283 JUMPI DUP1 PUSH4 0xF2FDE38B EQ PUSH2 0x29F JUMPI DUP1 PUSH4 0xF96CB2DF EQ PUSH2 0x2C8 JUMPI PUSH2 0xC2 JUMP JUMPDEST DUP1 PUSH4 0x9201DE55 EQ PUSH2 0x1A2 JUMPI DUP1 PUSH4 0xA9583D32 EQ PUSH2 0x1E0 JUMPI DUP1 PUSH4 0xC80E476E EQ PUSH2 0x21D JUMPI PUSH2 0xC2 JUMP JUMPDEST DUP1 PUSH4 0x42F2B65 EQ PUSH2 0xC7 JUMPI DUP1 PUSH4 0x100A56C5 EQ PUSH2 0xF0 JUMPI DUP1 PUSH4 0x3195D58D EQ PUSH2 0x10C JUMPI DUP1 PUSH4 0x6920F52B EQ PUSH2 0x135 JUMPI DUP1 PUSH4 0x715018A6 EQ PUSH2 0x160 JUMPI DUP1 PUSH4 0x8DA5CB5B EQ PUSH2 0x177 JUMPI JUMPDEST PUSH1 0x0 DUP1 REVERT JUMPDEST CALLVALUE DUP1 ISZERO PUSH2 0xD3 JUMPI PUSH1 0x0 DUP1 REVERT JUMPDEST POP PUSH2 0xEE PUSH1 0x4 DUP1 CALLDATASIZE SUB DUP2 ADD SWAP1 PUSH2 0xE9 SWAP2 SWAP1 PUSH2 0x353A JUMP JUMPDEST PUSH2 0x305 JUMP JUMPDEST STOP JUMPDEST PUSH2 0x10A PUSH1 0x4 DUP1 CALLDATASIZE SUB DUP2 ADD SWAP1 PUSH2 0x105 SWAP2 SWAP1 PUSH2 0x36AD JUMP JUMPDEST PUSH2 0x506 JUMP JUMPDEST STOP JUMPDEST CALLVALUE DUP1 ISZERO PUSH2 0x118 JUMPI PUSH1 0x0 DUP1 REVERT JUMPDEST POP PUSH2 0x133 PUSH1 0x4 DUP1 CALLDATASIZE SUB DUP2 ADD SWAP1 PUSH2 0x12E SWAP2 SWAP1 PUSH2 0x3747 JUMP JUMPDEST PUSH2 0x6D6 JUMP JUMPDEST STOP JUMPDEST CALLVALUE DUP1 ISZERO PUSH2 0x141 JUMPI PUSH1 0x0 DUP1 REVERT JUMPDEST POP PUSH2 0x14A PUSH2 0x858 JUMP JUMPDEST PUSH1 0x40 MLOAD PUSH2 0x157 SWAP2 SWAP1 PUSH2 0x3826 JUMP JUMPDEST PUSH1 0x40 MLOAD DUP1 SWAP2 SUB SWAP1 RETURN JUMPDEST CALLVALUE DUP1 ISZERO PUSH2 0x16C JUMPI PUSH1 0x0 DUP1 REVERT JUMPDEST POP PUSH2 0x175 PUSH2 0x87E JUMP JUMPDEST STOP JUMPDEST CALLVALUE DUP1 ISZERO PUSH2 0x183 JUMPI PUSH1 0x0 DUP1 REVERT JUMPDEST POP PUSH2 0x18C PUSH2 0x906 JUMP JUMPDEST PUSH1 0x40 MLOAD PUSH2 0x199 SWAP2 SWAP1 PUSH2 0x3862 JUMP JUMPDEST PUSH1 0x40 MLOAD DUP1 SWAP2 SUB SWAP1 RETURN JUMPDEST CALLVALUE DUP1 ISZERO PUSH2 0x1AE JUMPI PUSH1 0x0 DUP1 REVERT JUMPDEST POP PUSH2 0x1C9 PUSH1 0x4 DUP1 CALLDATASIZE SUB DUP2 ADD SWAP1 PUSH2 0x1C4 SWAP2 SWAP1 PUSH2 0x387D JUMP JUMPDEST PUSH2 0x92F JUMP JUMPDEST PUSH1 0x40 MLOAD PUSH2 0x1D7 SWAP3 SWAP2 SWAP1 PUSH2 0x3952 JUMP JUMPDEST PUSH1 0x40 MLOAD DUP1 SWAP2 SUB SWAP1 RETURN JUMPDEST CALLVALUE DUP1 ISZERO PUSH2 0x1EC JUMPI PUSH1 0x0 DUP1 REVERT JUMPDEST POP PUSH2 0x207 PUSH1 0x4 DUP1 CALLDATASIZE SUB DUP2 ADD SWAP1 PUSH2 0x202 SWAP2 SWAP1 PUSH2 0x3AB2 JUMP JUMPDEST PUSH2 0xB4C JUMP JUMPDEST PUSH1 0x40 MLOAD PUSH2 0x214 SWAP2 SWAP1 PUSH2 0x3B0A JUMP JUMPDEST PUSH1 0x40 MLOAD DUP1 SWAP2 SUB SWAP1 RETURN JUMPDEST CALLVALUE DUP1 ISZERO PUSH2 0x229 JUMPI PUSH1 0x0 DUP1 REVERT JUMPDEST POP PUSH2 0x244 PUSH1 0x4 DUP1 CALLDATASIZE SUB DUP2 ADD SWAP1 PUSH2 0x23F SWAP2 SWAP1 PUSH2 0x3B4A JUMP JUMPDEST PUSH2 0xBE6 JUMP JUMPDEST STOP JUMPDEST CALLVALUE DUP1 ISZERO PUSH2 0x252 JUMPI PUSH1 0x0 DUP1 REVERT JUMPDEST POP PUSH2 0x26D PUSH1 0x4 DUP1 CALLDATASIZE SUB DUP2 ADD SWAP1 PUSH2 0x268 SWAP2 SWAP1 PUSH2 0x3BF9 JUMP JUMPDEST PUSH2 0xF9B JUMP JUMPDEST PUSH1 0x40 MLOAD PUSH2 0x27A SWAP2 SWAP1 PUSH2 0x3CD7 JUMP JUMPDEST PUSH1 0x40 MLOAD DUP1 SWAP2 SUB SWAP1 RETURN JUMPDEST PUSH2 0x29D PUSH1 0x4 DUP1 CALLDATASIZE SUB DUP2 ADD SWAP1 PUSH2 0x298 SWAP2 SWAP1 PUSH2 0x36AD JUMP JUMPDEST PUSH2 0x1743 JUMP JUMPDEST STOP JUMPDEST CALLVALUE DUP1 ISZERO PUSH2 0x2AB JUMPI PUSH1 0x0 DUP1 REVERT JUMPDEST POP PUSH2 0x2C6 PUSH1 0x4 DUP1 CALLDATASIZE SUB DUP2 ADD SWAP1 PUSH2 0x2C1 SWAP2 SWAP1 PUSH2 0x3D1E JUMP JUMPDEST PUSH2 0x1940 JUMP JUMPDEST STOP JUMPDEST CALLVALUE DUP1 ISZERO PUSH2 0x2D4 JUMPI PUSH1 0x0 DUP1 REVERT JUMPDEST POP PUSH2 0x2EF PUSH1 0x4 DUP1 CALLDATASIZE SUB DUP2 ADD SWAP1 PUSH2 0x2EA SWAP2 SWAP1 PUSH2 0x3D4B JUMP JUMPDEST PUSH2 0x1A38 JUMP JUMPDEST PUSH1 0x40 MLOAD PUSH2 0x2FC SWAP2 SWAP1 PUSH2 0x3DD5 JUMP JUMPDEST PUSH1 0x40 MLOAD DUP1 SWAP2 SUB SWAP1 RETURN JUMPDEST DUP2 PUSH1 0x6 PUSH1 0x0 DUP3 DUP2 MSTORE PUSH1 0x20 ADD SWAP1 DUP2 MSTORE PUSH1 0x20 ADD PUSH1 0x0 KECCAK256 PUSH1 0x0 SWAP1 SLOAD SWAP1 PUSH2 0x100 EXP SWAP1 DIV PUSH20 0xFFFFFFFFFFFFFFFFFFFFFFFFFFFFFFFFFFFFFFFF AND PUSH20 0xFFFFFFFFFFFFFFFFFFFFFFFFFFFFFFFFFFFFFFFF AND CALLER PUSH20 0xFFFFFFFFFFFFFFFFFFFFFFFFFFFFFFFFFFFFFFFF AND EQ PUSH2 0x3A7 JUMPI PUSH1 0x40 MLOAD PUSH32 0x8C379A000000000000000000000000000000000000000000000000000000000 DUP2 MSTORE PUSH1 0x4 ADD PUSH2 0x39E SWAP1 PUSH2 0x3E62 JUMP JUMPDEST PUSH1 0x40 MLOAD DUP1 SWAP2 SUB SWAP1 REVERT JUMPDEST PUSH1 0x6 PUSH1 0x0 DUP3 DUP2 MSTORE PUSH1 0x20 ADD SWAP1 DUP2 MSTORE PUSH1 0x20 ADD PUSH1 0x0 KECCAK256 PUSH1 0x0 PUSH2 0x100 EXP DUP2 SLOAD SWAP1 PUSH20 0xFFFFFFFFFFFFFFFFFFFFFFFFFFFFFFFFFFFFFFFF MUL NOT AND SWAP1 SSTORE DUP1 PUSH32 0x7CC135E0CEBB02C3480AE5D74D377283180A2601F8F644EDF7987B009316C63A PUSH1 0x40 MLOAD PUSH1 0x40 MLOAD DUP1 SWAP2 SUB SWAP1 LOG2 PUSH1 0x0 DUP1 PUSH2 0x416 DUP5 PUSH2 0x92F JUMP JUMPDEST SWAP2 POP SWAP2 POP DUP1 PUSH1 0x12 DUP4 PUSH1 0x40 MLOAD PUSH2 0x42B SWAP2 SWAP1 PUSH2 0x3EBE JUMP JUMPDEST SWAP1 DUP2 MSTORE PUSH1 0x20 ADD PUSH1 0x40 MLOAD DUP1 SWAP2 SUB SWAP1 KECCAK256 PUSH1 0x0 PUSH2 0x100 EXP DUP2 SLOAD DUP2 PUSH1 0xFF MUL NOT AND SWAP1 DUP4 PUSH1 0xFF AND MUL OR SWAP1 SSTORE POP PUSH1 0x0 PUSH1 0x1 DUP2 GT ISZERO PUSH2 0x465 JUMPI PUSH2 0x464 PUSH2 0x3ED5 JUMP JUMPDEST JUMPDEST PUSH1 0xB DUP4 PUSH1 0x40 MLOAD PUSH2 0x475 SWAP2 SWAP1 PUSH2 0x3EBE JUMP JUMPDEST SWAP1 DUP2 MSTORE PUSH1 0x20 ADD PUSH1 0x40 MLOAD DUP1 SWAP2 SUB SWAP1 KECCAK256 PUSH1 0x0 ADD PUSH1 0x0 SWAP1 SLOAD SWAP1 PUSH2 0x100 EXP SWAP1 DIV PUSH1 0xFF AND PUSH1 0x1 DUP2 GT ISZERO PUSH2 0x4A6 JUMPI PUSH2 0x4A5 PUSH2 0x3ED5 JUMP JUMPDEST JUMPDEST EQ PUSH2 0x4FF JUMPI PUSH2 0x4B4 DUP3 PUSH2 0x1BAF JUMP JUMPDEST PUSH1 0x1 PUSH1 0xB DUP4 PUSH1 0x40 MLOAD PUSH2 0x4C6 SWAP2 SWAP1 PUSH2 0x3EBE JUMP JUMPDEST SWAP1 DUP2 MSTORE PUSH1 0x20 ADD PUSH1 0x40 MLOAD DUP1 SWAP2 SUB SWAP1 KECCAK256 PUSH1 0x0 ADD PUSH1 0x0 PUSH2 0x100 EXP DUP2 SLOAD DUP2 PUSH1 0xFF MUL NOT AND SWAP1 DUP4 PUSH1 0x1 DUP2 GT ISZERO PUSH2 0x4F9 JUMPI PUSH2 0x4F8 PUSH2 0x3ED5 JUMP JUMPDEST JUMPDEST MUL OR SWAP1 SSTORE POP JUMPDEST POP POP POP POP POP JUMP JUMPDEST DUP6 DUP6 PUSH1 0x1 DUP1 DUP2 GT ISZERO PUSH2 0x51B JUMPI PUSH2 0x51A PUSH2 0x3ED5 JUMP JUMPDEST JUMPDEST PUSH1 0xB DUP4 DUP4 PUSH1 0x40 MLOAD PUSH2 0x52D SWAP3 SWAP2 SWAP1 PUSH2 0x3F29 JUMP JUMPDEST SWAP1 DUP2 MSTORE PUSH1 0x20 ADD PUSH1 0x40 MLOAD DUP1 SWAP2 SUB SWAP1 KECCAK256 PUSH1 0x0 ADD PUSH1 0x0 SWAP1 SLOAD SWAP1 PUSH2 0x100 EXP SWAP1 DIV PUSH1 0xFF AND PUSH1 0x1 DUP2 GT ISZERO PUSH2 0x55E JUMPI PUSH2 0x55D PUSH2 0x3ED5 JUMP JUMPDEST JUMPDEST EQ ISZERO PUSH2 0x5A3 JUMPI DUP2 DUP2 PUSH1 0x40 MLOAD PUSH32 0x1B21B92100000000000000000000000000000000000000000000000000000000 DUP2 MSTORE PUSH1 0x4 ADD PUSH2 0x59A SWAP3 SWAP2 SWAP1 PUSH2 0x3F6F JUMP JUMPDEST PUSH1 0x40 MLOAD DUP1 SWAP2 SUB SWAP1 REVERT JUMPDEST CALLVALUE PUSH1 0x0 DUP2 GT PUSH2 0x5E9 JUMPI DUP1 PUSH1 0x40 MLOAD PUSH32 0xD59F5FF000000000000000000000000000000000000000000000000000000000 DUP2 MSTORE PUSH1 0x4 ADD PUSH2 0x5E0 SWAP2 SWAP1 PUSH2 0x3CD7 JUMP JUMPDEST PUSH1 0x40 MLOAD DUP1 SWAP2 SUB SWAP1 REVERT JUMPDEST DUP5 PUSH2 0xFFFF AND PUSH2 0x3E8 DUP2 GT PUSH2 0x634 JUMPI DUP1 PUSH1 0x40 MLOAD PUSH32 0xA0C5F30C00000000000000000000000000000000000000000000000000000000 DUP2 MSTORE PUSH1 0x4 ADD PUSH2 0x62B SWAP2 SWAP1 PUSH2 0x3CD7 JUMP JUMPDEST PUSH1 0x40 MLOAD DUP1 SWAP2 SUB SWAP1 REVERT JUMPDEST CALLVALUE DUP6 EQ PUSH2 0x676 JUMPI PUSH1 0x40 MLOAD PUSH32 0x8C379A000000000000000000000000000000000000000000000000000000000 DUP2 MSTORE PUSH1 0x4 ADD PUSH2 0x66D SWAP1 PUSH2 0x4005 JUMP JUMPDEST PUSH1 0x40 MLOAD DUP1 SWAP2 SUB SWAP1 REVERT JUMPDEST PUSH2 0x6CA DUP11 DUP11 DUP1 DUP1 PUSH1 0x1F ADD PUSH1 0x20 DUP1 SWAP2 DIV MUL PUSH1 0x20 ADD PUSH1 0x40 MLOAD SWAP1 DUP2 ADD PUSH1 0x40 MSTORE DUP1 SWAP4 SWAP3 SWAP2 SWAP1 DUP2 DUP2 MSTORE PUSH1 0x20 ADD DUP4 DUP4 DUP1 DUP3 DUP5 CALLDATACOPY PUSH1 0x0 DUP2 DUP5 ADD MSTORE PUSH1 0x1F NOT PUSH1 0x1F DUP3 ADD AND SWAP1 POP DUP1 DUP4 ADD SWAP3 POP POP POP POP POP POP POP PUSH1 0x0 DUP11 DUP11 DUP11 DUP11 CALLER PUSH2 0x2193 JUMP JUMPDEST POP POP POP POP POP POP POP POP POP POP JUMP JUMPDEST PUSH1 0xA PUSH1 0x0 SWAP1 SLOAD SWAP1 PUSH2 0x100 EXP SWAP1 DIV PUSH20 0xFFFFFFFFFFFFFFFFFFFFFFFFFFFFFFFFFFFFFFFF AND PUSH20 0xFFFFFFFFFFFFFFFFFFFFFFFFFFFFFFFFFFFFFFFF AND PUSH4 0xAC7AAE42 CALLER DUP4 PUSH1 0x40 MLOAD DUP4 PUSH4 0xFFFFFFFF AND PUSH1 0xE0 SHL DUP2 MSTORE PUSH1 0x4 ADD PUSH2 0x733 SWAP3 SWAP2 SWAP1 PUSH2 0x4025 JUMP JUMPDEST PUSH1 0x0 PUSH1 0x40 MLOAD DUP1 DUP4 SUB DUP2 PUSH1 0x0 DUP8 DUP1 EXTCODESIZE ISZERO DUP1 ISZERO PUSH2 0x74D JUMPI PUSH1 0x0 DUP1 REVERT JUMPDEST POP GAS CALL ISZERO DUP1 ISZERO PUSH2 0x761 JUMPI RETURNDATASIZE PUSH1 0x0 DUP1 RETURNDATACOPY RETURNDATASIZE PUSH1 0x0 REVERT JUMPDEST POP POP POP POP PUSH1 0x10 DUP4 DUP4 PUSH1 0x40 MLOAD PUSH2 0x777 SWAP3 SWAP2 SWAP1 PUSH2 0x3F29 JUMP JUMPDEST SWAP1 DUP2 MSTORE PUSH1 0x20 ADD PUSH1 0x40 MLOAD DUP1 SWAP2 SUB SWAP1 KECCAK256 PUSH1 0x0 DUP3 DUP2 MSTORE PUSH1 0x20 ADD SWAP1 DUP2 MSTORE PUSH1 0x20 ADD PUSH1 0x0 KECCAK256 PUSH1 0x0 SWAP1 SLOAD SWAP1 PUSH2 0x100 EXP SWAP1 DIV PUSH1 0xFF AND PUSH2 0x7E3 JUMPI PUSH1 0x40 MLOAD PUSH32 0x8C379A000000000000000000000000000000000000000000000000000000000 DUP2 MSTORE PUSH1 0x4 ADD PUSH2 0x7DA SWAP1 PUSH2 0x409A JUMP JUMPDEST PUSH1 0x40 MLOAD DUP1 SWAP2 SUB SWAP1 REVERT JUMPDEST PUSH2 0x81E CALLER PUSH1 0xF DUP6 DUP6 PUSH1 0x40 MLOAD PUSH2 0x7F9 SWAP3 SWAP2 SWAP1 PUSH2 0x3F29 JUMP JUMPDEST SWAP1 DUP2 MSTORE PUSH1 0x20 ADD PUSH1 0x40 MLOAD DUP1 SWAP2 SUB SWAP1 KECCAK256 PUSH1 0x0 DUP5 DUP2 MSTORE PUSH1 0x20 ADD SWAP1 DUP2 MSTORE PUSH1 0x20 ADD PUSH1 0x0 KECCAK256 SLOAD PUSH2 0x25DC JUMP JUMPDEST PUSH1 0xF DUP4 DUP4 PUSH1 0x40 MLOAD PUSH2 0x830 SWAP3 SWAP2 SWAP1 PUSH2 0x3F29 JUMP JUMPDEST SWAP1 DUP2 MSTORE PUSH1 0x20 ADD PUSH1 0x40 MLOAD DUP1 SWAP2 SUB SWAP1 KECCAK256 PUSH1 0x0 DUP3 DUP2 MSTORE PUSH1 0x20 ADD SWAP1 DUP2 MSTORE PUSH1 0x20 ADD PUSH1 0x0 KECCAK256 PUSH1 0x0 SWAP1 SSTORE POP POP POP JUMP JUMPDEST PUSH1 0xA PUSH1 0x0 SWAP1 SLOAD SWAP1 PUSH2 0x100 EXP SWAP1 DIV PUSH20 0xFFFFFFFFFFFFFFFFFFFFFFFFFFFFFFFFFFFFFFFF AND DUP2 JUMP JUMPDEST PUSH2 0x886 PUSH2 0x2627 JUMP JUMPDEST PUSH20 0xFFFFFFFFFFFFFFFFFFFFFFFFFFFFFFFFFFFFFFFF AND PUSH2 0x8A4 PUSH2 0x906 JUMP JUMPDEST PUSH20 0xFFFFFFFFFFFFFFFFFFFFFFFFFFFFFFFFFFFFFFFF AND EQ PUSH2 0x8FA JUMPI PUSH1 0x40 MLOAD PUSH32 0x8C379A000000000000000000000000000000000000000000000000000000000 DUP2 MSTORE PUSH1 0x4 ADD PUSH2 0x8F1 SWAP1 PUSH2 0x4106 JUMP JUMPDEST PUSH1 0x40 MLOAD DUP1 SWAP2 SUB SWAP1 REVERT JUMPDEST PUSH2 0x904 PUSH1 0x0 PUSH2 0x262F JUMP JUMPDEST JUMP JUMPDEST PUSH1 0x0 DUP1 PUSH1 0x0 SWAP1 SLOAD SWAP1 PUSH2 0x100 EXP SWAP1 DIV PUSH20 0xFFFFFFFFFFFFFFFFFFFFFFFFFFFFFFFFFFFFFFFF AND SWAP1 POP SWAP1 JUMP JUMPDEST PUSH1 0x60 PUSH1 0x0 DUP1 PUSH1 0x0 SWAP1 POP PUSH1 0x0 DUP1 JUMPDEST PUSH1 0x20 DUP4 PUSH1 0xFF AND LT DUP1 ISZERO PUSH2 0x98E JUMPI POP PUSH1 0x0 PUSH1 0xF8 SHL DUP7 DUP5 PUSH1 0xFF AND PUSH1 0x20 DUP2 LT PUSH2 0x965 JUMPI PUSH2 0x964 PUSH2 0x4126 JUMP JUMPDEST JUMPDEST BYTE PUSH1 0xF8 SHL PUSH31 0xFFFFFFFFFFFFFFFFFFFFFFFFFFFFFFFFFFFFFFFFFFFFFFFFFFFFFFFFFFFFFF NOT AND EQ ISZERO JUMPDEST ISZERO PUSH2 0x9A6 JUMPI DUP3 DUP1 PUSH2 0x99E SWAP1 PUSH2 0x4184 JUMP JUMPDEST SWAP4 POP POP PUSH2 0x93C JUMP JUMPDEST PUSH1 0x0 PUSH1 0x1 DUP5 PUSH2 0x9B5 SWAP2 SWAP1 PUSH2 0x41AE JUMP JUMPDEST SWAP1 POP PUSH1 0x0 DUP2 PUSH1 0xFF AND PUSH8 0xFFFFFFFFFFFFFFFF DUP2 GT ISZERO PUSH2 0x9D6 JUMPI PUSH2 0x9D5 PUSH2 0x3987 JUMP JUMPDEST JUMPDEST PUSH1 0x40 MLOAD SWAP1 DUP1 DUP3 MSTORE DUP1 PUSH1 0x1F ADD PUSH1 0x1F NOT AND PUSH1 0x20 ADD DUP3 ADD PUSH1 0x40 MSTORE DUP1 ISZERO PUSH2 0xA08 JUMPI DUP2 PUSH1 0x20 ADD PUSH1 0x1 DUP3 MUL DUP1 CALLDATASIZE DUP4 CALLDATACOPY DUP1 DUP3 ADD SWAP2 POP POP SWAP1 POP JUMPDEST POP SWAP1 POP PUSH1 0x0 SWAP5 POP JUMPDEST PUSH1 0x20 DUP6 PUSH1 0xFF AND LT DUP1 ISZERO PUSH2 0xA62 JUMPI POP PUSH1 0x0 PUSH1 0xF8 SHL DUP9 DUP7 PUSH1 0xFF AND PUSH1 0x20 DUP2 LT PUSH2 0xA39 JUMPI PUSH2 0xA38 PUSH2 0x4126 JUMP JUMPDEST JUMPDEST BYTE PUSH1 0xF8 SHL PUSH31 0xFFFFFFFFFFFFFFFFFFFFFFFFFFFFFFFFFFFFFFFFFFFFFFFFFFFFFFFFFFFFFF NOT AND EQ ISZERO JUMPDEST ISZERO PUSH2 0xB30 JUMPI DUP2 PUSH1 0xFF AND DUP6 PUSH1 0xFF AND LT ISZERO PUSH2 0xAD5 JUMPI DUP8 DUP6 PUSH1 0xFF AND PUSH1 0x20 DUP2 LT PUSH2 0xA8B JUMPI PUSH2 0xA8A PUSH2 0x4126 JUMP JUMPDEST JUMPDEST BYTE PUSH1 0xF8 SHL DUP2 DUP7 PUSH1 0xFF AND DUP2 MLOAD DUP2 LT PUSH2 0xAA5 JUMPI PUSH2 0xAA4 PUSH2 0x4126 JUMP JUMPDEST JUMPDEST PUSH1 0x20 ADD ADD SWAP1 PUSH31 0xFFFFFFFFFFFFFFFFFFFFFFFFFFFFFFFFFFFFFFFFFFFFFFFFFFFFFFFFFFFFFF NOT AND SWAP1 DUP2 PUSH1 0x0 BYTE SWAP1 MSTORE8 POP JUMPDEST PUSH1 0x30 DUP9 DUP7 PUSH1 0xFF AND PUSH1 0x20 DUP2 LT PUSH2 0xAED JUMPI PUSH2 0xAEC PUSH2 0x4126 JUMP JUMPDEST JUMPDEST BYTE PUSH1 0xF8 SHL PUSH1 0xF8 SHR PUSH2 0xAFE SWAP2 SWAP1 PUSH2 0x41AE JUMP JUMPDEST SWAP4 POP DUP4 PUSH1 0xFF AND PUSH1 0xA DUP5 PUSH2 0xB11 SWAP2 SWAP1 PUSH2 0x41E2 JUMP JUMPDEST PUSH2 0xB1B SWAP2 SWAP1 PUSH2 0x423C JUMP JUMPDEST SWAP3 POP DUP5 DUP1 PUSH2 0xB28 SWAP1 PUSH2 0x4184 JUMP JUMPDEST SWAP6 POP POP PUSH2 0xA10 JUMP JUMPDEST DUP1 PUSH1 0xA DUP5 PUSH2 0xB3E SWAP2 SWAP1 PUSH2 0x42C1 JUMP JUMPDEST SWAP7 POP SWAP7 POP POP POP POP POP POP SWAP2 POP SWAP2 JUMP JUMPDEST PUSH1 0x0 DUP1 PUSH2 0xB63 PUSH1 0x8 SLOAD ADDRESS PUSH4 0x42F2B65 PUSH1 0xE0 SHL PUSH2 0x26F3 JUMP JUMPDEST SWAP1 POP PUSH2 0xBAF PUSH1 0x40 MLOAD DUP1 PUSH1 0x40 ADD PUSH1 0x40 MSTORE DUP1 PUSH1 0x9 DUP2 MSTORE PUSH1 0x20 ADD PUSH32 0x6669787475726549640000000000000000000000000000000000000000000000 DUP2 MSTORE POP DUP5 DUP4 PUSH2 0x2724 SWAP1 SWAP3 SWAP2 SWAP1 PUSH4 0xFFFFFFFF AND JUMP JUMPDEST PUSH2 0xBDE PUSH1 0x7 PUSH1 0x0 SWAP1 SLOAD SWAP1 PUSH2 0x100 EXP SWAP1 DIV PUSH20 0xFFFFFFFFFFFFFFFFFFFFFFFFFFFFFFFFFFFFFFFF AND DUP3 PUSH1 0x9 SLOAD PUSH2 0x2757 JUMP JUMPDEST SWAP2 POP POP SWAP2 SWAP1 POP JUMP JUMPDEST PUSH1 0x0 PUSH1 0xC DUP9 DUP9 PUSH1 0x40 MLOAD PUSH2 0xBFA SWAP3 SWAP2 SWAP1 PUSH2 0x3F29 JUMP JUMPDEST SWAP1 DUP2 MSTORE PUSH1 0x20 ADD PUSH1 0x40 MLOAD DUP1 SWAP2 SUB SWAP1 KECCAK256 PUSH1 0x0 DUP8 PUSH1 0x1 DUP2 GT ISZERO PUSH2 0xC1D JUMPI PUSH2 0xC1C PUSH2 0x3ED5 JUMP JUMPDEST JUMPDEST PUSH1 0x1 DUP2 GT ISZERO PUSH2 0xC2F JUMPI PUSH2 0xC2E PUSH2 0x3ED5 JUMP JUMPDEST JUMPDEST DUP2 MSTORE PUSH1 0x20 ADD SWAP1 DUP2 MSTORE PUSH1 0x20 ADD PUSH1 0x0 KECCAK256 PUSH1 0x0 DUP7 PUSH1 0x0 DUP2 GT ISZERO PUSH2 0xC52 JUMPI PUSH2 0xC51 PUSH2 0x3ED5 JUMP JUMPDEST JUMPDEST PUSH1 0x0 DUP2 GT ISZERO PUSH2 0xC64 JUMPI PUSH2 0xC63 PUSH2 0x3ED5 JUMP JUMPDEST JUMPDEST DUP2 MSTORE PUSH1 0x20 ADD SWAP1 DUP2 MSTORE PUSH1 0x20 ADD PUSH1 0x0 KECCAK256 PUSH1 0x0 DUP6 PUSH1 0xFF AND PUSH1 0xFF AND DUP2 MSTORE PUSH1 0x20 ADD SWAP1 DUP2 MSTORE PUSH1 0x20 ADD PUSH1 0x0 KECCAK256 PUSH1 0x0 DUP5 PUSH2 0xFFFF AND PUSH2 0xFFFF AND DUP2 MSTORE PUSH1 0x20 ADD SWAP1 DUP2 MSTORE PUSH1 0x20 ADD PUSH1 0x0 KECCAK256 DUP1 SLOAD DUP1 PUSH1 0x20 MUL PUSH1 0x20 ADD PUSH1 0x40 MLOAD SWAP1 DUP2 ADD PUSH1 0x40 MSTORE DUP1 SWAP3 SWAP2 SWAP1 DUP2 DUP2 MSTORE PUSH1 0x20 ADD PUSH1 0x0 SWAP1 JUMPDEST DUP3 DUP3 LT ISZERO PUSH2 0xD54 JUMPI DUP4 DUP3 SWAP1 PUSH1 0x0 MSTORE PUSH1 0x20 PUSH1 0x0 KECCAK256 SWAP1 PUSH1 0x2 MUL ADD PUSH1 0x40 MLOAD DUP1 PUSH1 0x40 ADD PUSH1 0x40 MSTORE SWAP1 DUP2 PUSH1 0x0 DUP3 ADD SLOAD DUP2 MSTORE PUSH1 0x20 ADD PUSH1 0x1 DUP3 ADD PUSH1 0x0 SWAP1 SLOAD SWAP1 PUSH2 0x100 EXP SWAP1 DIV PUSH20 0xFFFFFFFFFFFFFFFFFFFFFFFFFFFFFFFFFFFFFFFF AND PUSH20 0xFFFFFFFFFFFFFFFFFFFFFFFFFFFFFFFFFFFFFFFF AND PUSH20 0xFFFFFFFFFFFFFFFFFFFFFFFFFFFFFFFFFFFFFFFF AND DUP2 MSTORE POP POP DUP2 MSTORE PUSH1 0x20 ADD SWAP1 PUSH1 0x1 ADD SWAP1 PUSH2 0xCC2 JUMP JUMPDEST POP POP POP POP SWAP1 POP PUSH1 0x0 DUP1 JUMPDEST DUP3 MLOAD DUP2 LT ISZERO PUSH2 0xF4F JUMPI CALLER PUSH20 0xFFFFFFFFFFFFFFFFFFFFFFFFFFFFFFFFFFFFFFFF AND DUP4 DUP3 DUP2 MLOAD DUP2 LT PUSH2 0xD91 JUMPI PUSH2 0xD90 PUSH2 0x4126 JUMP JUMPDEST JUMPDEST PUSH1 0x20 MUL PUSH1 0x20 ADD ADD MLOAD PUSH1 0x20 ADD MLOAD PUSH20 0xFFFFFFFFFFFFFFFFFFFFFFFFFFFFFFFFFFFFFFFF AND EQ DUP1 ISZERO PUSH2 0xDDD JUMPI POP DUP4 DUP4 DUP3 DUP2 MLOAD DUP2 LT PUSH2 0xDCF JUMPI PUSH2 0xDCE PUSH2 0x4126 JUMP JUMPDEST JUMPDEST PUSH1 0x20 MUL PUSH1 0x20 ADD ADD MLOAD PUSH1 0x0 ADD MLOAD EQ JUMPDEST ISZERO PUSH2 0xF3C JUMPI PUSH1 0x1 SWAP2 POP PUSH32 0xADE976E65F3978AA3968AF04901755321152BA32B08EE0175E035760C11C1B5 DUP11 DUP11 DUP11 DUP11 DUP11 DUP11 DUP11 CALLER PUSH1 0x40 MLOAD PUSH2 0xE23 SWAP9 SWAP8 SWAP7 SWAP6 SWAP5 SWAP4 SWAP3 SWAP2 SWAP1 PUSH2 0x4391 JUMP JUMPDEST PUSH1 0x40 MLOAD DUP1 SWAP2 SUB SWAP1 LOG1 PUSH1 0xC DUP11 DUP11 PUSH1 0x40 MLOAD PUSH2 0xE3D SWAP3 SWAP2 SWAP1 PUSH2 0x3F29 JUMP JUMPDEST SWAP1 DUP2 MSTORE PUSH1 0x20 ADD PUSH1 0x40 MLOAD DUP1 SWAP2 SUB SWAP1 KECCAK256 PUSH1 0x0 DUP10 PUSH1 0x1 DUP2 GT ISZERO PUSH2 0xE60 JUMPI PUSH2 0xE5F PUSH2 0x3ED5 JUMP JUMPDEST JUMPDEST PUSH1 0x1 DUP2 GT ISZERO PUSH2 0xE72 JUMPI PUSH2 0xE71 PUSH2 0x3ED5 JUMP JUMPDEST JUMPDEST DUP2 MSTORE PUSH1 0x20 ADD SWAP1 DUP2 MSTORE PUSH1 0x20 ADD PUSH1 0x0 KECCAK256 PUSH1 0x0 DUP9 PUSH1 0x0 DUP2 GT ISZERO PUSH2 0xE95 JUMPI PUSH2 0xE94 PUSH2 0x3ED5 JUMP JUMPDEST JUMPDEST PUSH1 0x0 DUP2 GT ISZERO PUSH2 0xEA7 JUMPI PUSH2 0xEA6 PUSH2 0x3ED5 JUMP JUMPDEST JUMPDEST DUP2 MSTORE PUSH1 0x20 ADD SWAP1 DUP2 MSTORE PUSH1 0x20 ADD PUSH1 0x0 KECCAK256 PUSH1 0x0 DUP8 PUSH1 0xFF AND PUSH1 0xFF AND DUP2 MSTORE PUSH1 0x20 ADD SWAP1 DUP2 MSTORE PUSH1 0x20 ADD PUSH1 0x0 KECCAK256 PUSH1 0x0 DUP7 PUSH2 0xFFFF AND PUSH2 0xFFFF AND DUP2 MSTORE PUSH1 0x20 ADD SWAP1 DUP2 MSTORE PUSH1 0x20 ADD PUSH1 0x0 KECCAK256 DUP2 DUP2 SLOAD DUP2 LT PUSH2 0xEF7 JUMPI PUSH2 0xEF6 PUSH2 0x4126 JUMP JUMPDEST JUMPDEST SWAP1 PUSH1 0x0 MSTORE PUSH1 0x20 PUSH1 0x0 KECCAK256 SWAP1 PUSH1 0x2 MUL ADD PUSH1 0x0 DUP1 DUP3 ADD PUSH1 0x0 SWAP1 SSTORE PUSH1 0x1 DUP3 ADD PUSH1 0x0 PUSH2 0x100 EXP DUP2 SLOAD SWAP1 PUSH20 0xFFFFFFFFFFFFFFFFFFFFFFFFFFFFFFFFFFFFFFFF MUL NOT AND SWAP1 SSTORE POP POP PUSH2 0xF4F JUMP JUMPDEST DUP1 DUP1 PUSH2 0xF47 SWAP1 PUSH2 0x4409 JUMP JUMPDEST SWAP2 POP POP PUSH2 0xD5E JUMP JUMPDEST POP DUP1 PUSH2 0xF90 JUMPI PUSH1 0x40 MLOAD PUSH32 0x8C379A000000000000000000000000000000000000000000000000000000000 DUP2 MSTORE PUSH1 0x4 ADD PUSH2 0xF87 SWAP1 PUSH2 0x449E JUMP JUMPDEST PUSH1 0x40 MLOAD DUP1 SWAP2 SUB SWAP1 REVERT JUMPDEST POP POP POP POP POP POP POP POP POP JUMP JUMPDEST PUSH1 0x0 DUP1 PUSH1 0x0 SWAP1 POP PUSH1 0x0 JUMPDEST PUSH1 0xD DUP12 DUP12 PUSH1 0x40 MLOAD PUSH2 0xFB7 SWAP3 SWAP2 SWAP1 PUSH2 0x3F29 JUMP JUMPDEST SWAP1 DUP2 MSTORE PUSH1 0x20 ADD PUSH1 0x40 MLOAD DUP1 SWAP2 SUB SWAP1 KECCAK256 PUSH1 0x0 DUP11 PUSH1 0x1 DUP2 GT ISZERO PUSH2 0xFDA JUMPI PUSH2 0xFD9 PUSH2 0x3ED5 JUMP JUMPDEST JUMPDEST PUSH1 0x1 DUP2 GT ISZERO PUSH2 0xFEC JUMPI PUSH2 0xFEB PUSH2 0x3ED5 JUMP JUMPDEST JUMPDEST DUP2 MSTORE PUSH1 0x20 ADD SWAP1 DUP2 MSTORE PUSH1 0x20 ADD PUSH1 0x0 KECCAK256 PUSH1 0x0 DUP10 PUSH1 0x0 DUP2 GT ISZERO PUSH2 0x100F JUMPI PUSH2 0x100E PUSH2 0x3ED5 JUMP JUMPDEST JUMPDEST PUSH1 0x0 DUP2 GT ISZERO PUSH2 0x1021 JUMPI PUSH2 0x1020 PUSH2 0x3ED5 JUMP JUMPDEST JUMPDEST DUP2 MSTORE PUSH1 0x20 ADD SWAP1 DUP2 MSTORE PUSH1 0x20 ADD PUSH1 0x0 KECCAK256 PUSH1 0x0 DUP9 PUSH1 0xFF AND PUSH1 0xFF AND DUP2 MSTORE PUSH1 0x20 ADD SWAP1 DUP2 MSTORE PUSH1 0x20 ADD PUSH1 0x0 KECCAK256 DUP1 SLOAD SWAP1 POP DUP2 LT ISZERO PUSH2 0x1343 JUMPI CALLER PUSH20 0xFFFFFFFFFFFFFFFFFFFFFFFFFFFFFFFFFFFFFFFF AND PUSH1 0xD DUP13 DUP13 PUSH1 0x40 MLOAD PUSH2 0x107A SWAP3 SWAP2 SWAP1 PUSH2 0x3F29 JUMP JUMPDEST SWAP1 DUP2 MSTORE PUSH1 0x20 ADD PUSH1 0x40 MLOAD DUP1 SWAP2 SUB SWAP1 KECCAK256 PUSH1 0x0 DUP12 PUSH1 0x1 DUP2 GT ISZERO PUSH2 0x109D JUMPI PUSH2 0x109C PUSH2 0x3ED5 JUMP JUMPDEST JUMPDEST PUSH1 0x1 DUP2 GT ISZERO PUSH2 0x10AF JUMPI PUSH2 0x10AE PUSH2 0x3ED5 JUMP JUMPDEST JUMPDEST DUP2 MSTORE PUSH1 0x20 ADD SWAP1 DUP2 MSTORE PUSH1 0x20 ADD PUSH1 0x0 KECCAK256 PUSH1 0x0 DUP11 PUSH1 0x0 DUP2 GT ISZERO PUSH2 0x10D2 JUMPI PUSH2 0x10D1 PUSH2 0x3ED5 JUMP JUMPDEST JUMPDEST PUSH1 0x0 DUP2 GT ISZERO PUSH2 0x10E4 JUMPI PUSH2 0x10E3 PUSH2 0x3ED5 JUMP JUMPDEST JUMPDEST DUP2 MSTORE PUSH1 0x20 ADD SWAP1 DUP2 MSTORE PUSH1 0x20 ADD PUSH1 0x0 KECCAK256 PUSH1 0x0 DUP10 PUSH1 0xFF AND PUSH1 0xFF AND DUP2 MSTORE PUSH1 0x20 ADD SWAP1 DUP2 MSTORE PUSH1 0x20 ADD PUSH1 0x0 KECCAK256 DUP3 DUP2 SLOAD DUP2 LT PUSH2 0x111B JUMPI PUSH2 0x111A PUSH2 0x4126 JUMP JUMPDEST JUMPDEST SWAP1 PUSH1 0x0 MSTORE PUSH1 0x20 PUSH1 0x0 KECCAK256 SWAP1 PUSH1 0x2 MUL ADD PUSH1 0x1 ADD PUSH1 0x2 SWAP1 SLOAD SWAP1 PUSH2 0x100 EXP SWAP1 DIV PUSH20 0xFFFFFFFFFFFFFFFFFFFFFFFFFFFFFFFFFFFFFFFF AND PUSH20 0xFFFFFFFFFFFFFFFFFFFFFFFFFFFFFFFFFFFFFFFF AND EQ DUP1 ISZERO PUSH2 0x1249 JUMPI POP DUP6 PUSH2 0xFFFF AND PUSH1 0xD DUP13 DUP13 PUSH1 0x40 MLOAD PUSH2 0x1182 SWAP3 SWAP2 SWAP1 PUSH2 0x3F29 JUMP JUMPDEST SWAP1 DUP2 MSTORE PUSH1 0x20 ADD PUSH1 0x40 MLOAD DUP1 SWAP2 SUB SWAP1 KECCAK256 PUSH1 0x0 DUP12 PUSH1 0x1 DUP2 GT ISZERO PUSH2 0x11A5 JUMPI PUSH2 0x11A4 PUSH2 0x3ED5 JUMP JUMPDEST JUMPDEST PUSH1 0x1 DUP2 GT ISZERO PUSH2 0x11B7 JUMPI PUSH2 0x11B6 PUSH2 0x3ED5 JUMP JUMPDEST JUMPDEST DUP2 MSTORE PUSH1 0x20 ADD SWAP1 DUP2 MSTORE PUSH1 0x20 ADD PUSH1 0x0 KECCAK256 PUSH1 0x0 DUP11 PUSH1 0x0 DUP2 GT ISZERO PUSH2 0x11DA JUMPI PUSH2 0x11D9 PUSH2 0x3ED5 JUMP JUMPDEST JUMPDEST PUSH1 0x0 DUP2 GT ISZERO PUSH2 0x11EC JUMPI PUSH2 0x11EB PUSH2 0x3ED5 JUMP JUMPDEST JUMPDEST DUP2 MSTORE PUSH1 0x20 ADD SWAP1 DUP2 MSTORE PUSH1 0x20 ADD PUSH1 0x0 KECCAK256 PUSH1 0x0 DUP10 PUSH1 0xFF AND PUSH1 0xFF AND DUP2 MSTORE PUSH1 0x20 ADD SWAP1 DUP2 MSTORE PUSH1 0x20 ADD PUSH1 0x0 KECCAK256 DUP3 DUP2 SLOAD DUP2 LT PUSH2 0x1223 JUMPI PUSH2 0x1222 PUSH2 0x4126 JUMP JUMPDEST JUMPDEST SWAP1 PUSH1 0x0 MSTORE PUSH1 0x20 PUSH1 0x0 KECCAK256 SWAP1 PUSH1 0x2 MUL ADD PUSH1 0x1 ADD PUSH1 0x0 SWAP1 SLOAD SWAP1 PUSH2 0x100 EXP SWAP1 DIV PUSH2 0xFFFF AND PUSH2 0xFFFF AND EQ JUMPDEST ISZERO PUSH2 0x1330 JUMPI PUSH1 0x1 PUSH1 0xD DUP13 DUP13 PUSH1 0x40 MLOAD PUSH2 0x1262 SWAP3 SWAP2 SWAP1 PUSH2 0x3F29 JUMP JUMPDEST SWAP1 DUP2 MSTORE PUSH1 0x20 ADD PUSH1 0x40 MLOAD DUP1 SWAP2 SUB SWAP1 KECCAK256 PUSH1 0x0 DUP12 PUSH1 0x1 DUP2 GT ISZERO PUSH2 0x1285 JUMPI PUSH2 0x1284 PUSH2 0x3ED5 JUMP JUMPDEST JUMPDEST PUSH1 0x1 DUP2 GT ISZERO PUSH2 0x1297 JUMPI PUSH2 0x1296 PUSH2 0x3ED5 JUMP JUMPDEST JUMPDEST DUP2 MSTORE PUSH1 0x20 ADD SWAP1 DUP2 MSTORE PUSH1 0x20 ADD PUSH1 0x0 KECCAK256 PUSH1 0x0 DUP11 PUSH1 0x0 DUP2 GT ISZERO PUSH2 0x12BA JUMPI PUSH2 0x12B9 PUSH2 0x3ED5 JUMP JUMPDEST JUMPDEST PUSH1 0x0 DUP2 GT ISZERO PUSH2 0x12CC JUMPI PUSH2 0x12CB PUSH2 0x3ED5 JUMP JUMPDEST JUMPDEST DUP2 MSTORE PUSH1 0x20 ADD SWAP1 DUP2 MSTORE PUSH1 0x20 ADD PUSH1 0x0 KECCAK256 PUSH1 0x0 DUP10 PUSH1 0xFF AND PUSH1 0xFF AND DUP2 MSTORE PUSH1 0x20 ADD SWAP1 DUP2 MSTORE PUSH1 0x20 ADD PUSH1 0x0 KECCAK256 DUP3 DUP2 SLOAD DUP2 LT PUSH2 0x1303 JUMPI PUSH2 0x1302 PUSH2 0x4126 JUMP JUMPDEST JUMPDEST SWAP1 PUSH1 0x0 MSTORE PUSH1 0x20 PUSH1 0x0 KECCAK256 SWAP1 PUSH1 0x2 MUL ADD PUSH1 0x1 ADD PUSH1 0x16 PUSH2 0x100 EXP DUP2 SLOAD DUP2 PUSH1 0xFF MUL NOT AND SWAP1 DUP4 ISZERO ISZERO MUL OR SWAP1 SSTORE POP PUSH1 0x1 SWAP2 POP JUMPDEST DUP1 DUP1 PUSH2 0x133B SWAP1 PUSH2 0x4409 JUMP JUMPDEST SWAP2 POP POP PUSH2 0xFA5 JUMP JUMPDEST POP DUP1 PUSH2 0x1384 JUMPI PUSH1 0x40 MLOAD PUSH32 0x8C379A000000000000000000000000000000000000000000000000000000000 DUP2 MSTORE PUSH1 0x4 ADD PUSH2 0x137B SWAP1 PUSH2 0x450A JUMP JUMPDEST PUSH1 0x40 MLOAD DUP1 SWAP2 SUB SWAP1 REVERT JUMPDEST PUSH1 0x0 PUSH1 0x11 DUP12 DUP12 PUSH1 0x40 MLOAD PUSH2 0x1398 SWAP3 SWAP2 SWAP1 PUSH2 0x3F29 JUMP JUMPDEST SWAP1 DUP2 MSTORE PUSH1 0x20 ADD PUSH1 0x40 MLOAD DUP1 SWAP2 SUB SWAP1 KECCAK256 SLOAD SWAP1 POP PUSH1 0x11 DUP12 DUP12 PUSH1 0x40 MLOAD PUSH2 0x13BB SWAP3 SWAP2 SWAP1 PUSH2 0x3F29 JUMP JUMPDEST SWAP1 DUP2 MSTORE PUSH1 0x20 ADD PUSH1 0x40 MLOAD DUP1 SWAP2 SUB SWAP1 KECCAK256 PUSH1 0x0 DUP2 SLOAD DUP1 SWAP3 SWAP2 SWAP1 PUSH2 0x13DA SWAP1 PUSH2 0x4409 JUMP JUMPDEST SWAP2 SWAP1 POP SSTORE POP PUSH1 0x0 PUSH2 0x1433 DUP13 DUP13 DUP1 DUP1 PUSH1 0x1F ADD PUSH1 0x20 DUP1 SWAP2 DIV MUL PUSH1 0x20 ADD PUSH1 0x40 MLOAD SWAP1 DUP2 ADD PUSH1 0x40 MSTORE DUP1 SWAP4 SWAP3 SWAP2 SWAP1 DUP2 DUP2 MSTORE PUSH1 0x20 ADD DUP4 DUP4 DUP1 DUP3 DUP5 CALLDATACOPY PUSH1 0x0 DUP2 DUP5 ADD MSTORE PUSH1 0x1F NOT PUSH1 0x1F DUP3 ADD AND SWAP1 POP DUP1 DUP4 ADD SWAP3 POP POP POP POP POP POP POP DUP12 DUP12 DUP12 DUP12 CALLER PUSH2 0x2777 JUMP JUMPDEST SWAP1 POP PUSH1 0xA PUSH1 0x0 SWAP1 SLOAD SWAP1 PUSH2 0x100 EXP SWAP1 DIV PUSH20 0xFFFFFFFFFFFFFFFFFFFFFFFFFFFFFFFFFFFFFFFF AND PUSH20 0xFFFFFFFFFFFFFFFFFFFFFFFFFFFFFFFFFFFFFFFF AND PUSH4 0xE86F6367 CALLER DUP4 DUP16 DUP16 DUP8 DUP13 DUP13 PUSH1 0x40 MLOAD DUP9 PUSH4 0xFFFFFFFF AND PUSH1 0xE0 SHL DUP2 MSTORE PUSH1 0x4 ADD PUSH2 0x149C SWAP8 SWAP7 SWAP6 SWAP5 SWAP4 SWAP3 SWAP2 SWAP1 PUSH2 0x452A JUMP JUMPDEST PUSH1 0x0 PUSH1 0x40 MLOAD DUP1 DUP4 SUB DUP2 PUSH1 0x0 DUP8 DUP1 EXTCODESIZE ISZERO DUP1 ISZERO PUSH2 0x14B6 JUMPI PUSH1 0x0 DUP1 REVERT JUMPDEST POP GAS CALL ISZERO DUP1 ISZERO PUSH2 0x14CA JUMPI RETURNDATASIZE PUSH1 0x0 DUP1 RETURNDATACOPY RETURNDATASIZE PUSH1 0x0 REVERT JUMPDEST POP POP POP POP PUSH1 0xE DUP13 DUP13 PUSH1 0x40 MLOAD PUSH2 0x14E0 SWAP3 SWAP2 SWAP1 PUSH2 0x3F29 JUMP JUMPDEST SWAP1 DUP2 MSTORE PUSH1 0x20 ADD PUSH1 0x40 MLOAD DUP1 SWAP2 SUB SWAP1 KECCAK256 PUSH1 0x0 DUP12 PUSH1 0x1 DUP2 GT ISZERO PUSH2 0x1503 JUMPI PUSH2 0x1502 PUSH2 0x3ED5 JUMP JUMPDEST JUMPDEST PUSH1 0x1 DUP2 GT ISZERO PUSH2 0x1515 JUMPI PUSH2 0x1514 PUSH2 0x3ED5 JUMP JUMPDEST JUMPDEST DUP2 MSTORE PUSH1 0x20 ADD SWAP1 DUP2 MSTORE PUSH1 0x20 ADD PUSH1 0x0 KECCAK256 PUSH1 0x0 DUP11 PUSH1 0x0 DUP2 GT ISZERO PUSH2 0x1538 JUMPI PUSH2 0x1537 PUSH2 0x3ED5 JUMP JUMPDEST JUMPDEST PUSH1 0x0 DUP2 GT ISZERO PUSH2 0x154A JUMPI PUSH2 0x1549 PUSH2 0x3ED5 JUMP JUMPDEST JUMPDEST DUP2 MSTORE PUSH1 0x20 ADD SWAP1 DUP2 MSTORE PUSH1 0x20 ADD PUSH1 0x0 KECCAK256 PUSH1 0x0 DUP10 PUSH1 0xFF AND PUSH1 0xFF AND DUP2 MSTORE PUSH1 0x20 ADD SWAP1 DUP2 MSTORE PUSH1 0x20 ADD PUSH1 0x0 KECCAK256 PUSH1 0x0 DUP9 PUSH2 0xFFFF AND PUSH2 0xFFFF AND DUP2 MSTORE PUSH1 0x20 ADD SWAP1 DUP2 MSTORE PUSH1 0x20 ADD PUSH1 0x0 KECCAK256 PUSH1 0x0 CALLER PUSH20 0xFFFFFFFFFFFFFFFFFFFFFFFFFFFFFFFFFFFFFFFF AND PUSH20 0xFFFFFFFFFFFFFFFFFFFFFFFFFFFFFFFFFFFFFFFF AND DUP2 MSTORE PUSH1 0x20 ADD SWAP1 DUP2 MSTORE PUSH1 0x20 ADD PUSH1 0x0 KECCAK256 SLOAD PUSH1 0xF DUP14 DUP14 PUSH1 0x40 MLOAD PUSH2 0x15D8 SWAP3 SWAP2 SWAP1 PUSH2 0x3F29 JUMP JUMPDEST SWAP1 DUP2 MSTORE PUSH1 0x20 ADD PUSH1 0x40 MLOAD DUP1 SWAP2 SUB SWAP1 KECCAK256 PUSH1 0x0 DUP4 DUP2 MSTORE PUSH1 0x20 ADD SWAP1 DUP2 MSTORE PUSH1 0x20 ADD PUSH1 0x0 KECCAK256 DUP2 SWAP1 SSTORE POP PUSH1 0xE DUP13 DUP13 PUSH1 0x40 MLOAD PUSH2 0x160D SWAP3 SWAP2 SWAP1 PUSH2 0x3F29 JUMP JUMPDEST SWAP1 DUP2 MSTORE PUSH1 0x20 ADD PUSH1 0x40 MLOAD DUP1 SWAP2 SUB SWAP1 KECCAK256 PUSH1 0x0 DUP12 PUSH1 0x1 DUP2 GT ISZERO PUSH2 0x1630 JUMPI PUSH2 0x162F PUSH2 0x3ED5 JUMP JUMPDEST JUMPDEST PUSH1 0x1 DUP2 GT ISZERO PUSH2 0x1642 JUMPI PUSH2 0x1641 PUSH2 0x3ED5 JUMP JUMPDEST JUMPDEST DUP2 MSTORE PUSH1 0x20 ADD SWAP1 DUP2 MSTORE PUSH1 0x20 ADD PUSH1 0x0 KECCAK256 PUSH1 0x0 DUP11 PUSH1 0x0 DUP2 GT ISZERO PUSH2 0x1665 JUMPI PUSH2 0x1664 PUSH2 0x3ED5 JUMP JUMPDEST JUMPDEST PUSH1 0x0 DUP2 GT ISZERO PUSH2 0x1677 JUMPI PUSH2 0x1676 PUSH2 0x3ED5 JUMP JUMPDEST JUMPDEST DUP2 MSTORE PUSH1 0x20 ADD SWAP1 DUP2 MSTORE PUSH1 0x20 ADD PUSH1 0x0 KECCAK256 PUSH1 0x0 DUP10 PUSH1 0xFF AND PUSH1 0xFF AND DUP2 MSTORE PUSH1 0x20 ADD SWAP1 DUP2 MSTORE PUSH1 0x20 ADD PUSH1 0x0 KECCAK256 PUSH1 0x0 DUP9 PUSH2 0xFFFF AND PUSH2 0xFFFF AND DUP2 MSTORE PUSH1 0x20 ADD SWAP1 DUP2 MSTORE PUSH1 0x20 ADD PUSH1 0x0 KECCAK256 PUSH1 0x0 CALLER PUSH20 0xFFFFFFFFFFFFFFFFFFFFFFFFFFFFFFFFFFFFFFFF AND PUSH20 0xFFFFFFFFFFFFFFFFFFFFFFFFFFFFFFFFFFFFFFFF AND DUP2 MSTORE PUSH1 0x20 ADD SWAP1 DUP2 MSTORE PUSH1 0x20 ADD PUSH1 0x0 KECCAK256 PUSH1 0x0 SWAP1 SSTORE PUSH32 0x5089770ECCE0ED387BAF1E3B000FCC13BD3C2205D6205F06AFEB547DB5F2321E DUP13 DUP13 DUP4 PUSH1 0x40 MLOAD PUSH2 0x1729 SWAP4 SWAP3 SWAP2 SWAP1 PUSH2 0x458F JUMP JUMPDEST PUSH1 0x40 MLOAD DUP1 SWAP2 SUB SWAP1 LOG1 DUP1 SWAP4 POP POP POP POP SWAP9 SWAP8 POP POP POP POP POP POP POP POP JUMP JUMPDEST DUP6 DUP6 PUSH1 0x1 DUP1 DUP2 GT ISZERO PUSH2 0x1758 JUMPI PUSH2 0x1757 PUSH2 0x3ED5 JUMP JUMPDEST JUMPDEST PUSH1 0xB DUP4 DUP4 PUSH1 0x40 MLOAD PUSH2 0x176A SWAP3 SWAP2 SWAP1 PUSH2 0x3F29 JUMP JUMPDEST SWAP1 DUP2 MSTORE PUSH1 0x20 ADD PUSH1 0x40 MLOAD DUP1 SWAP2 SUB SWAP1 KECCAK256 PUSH1 0x0 ADD PUSH1 0x0 SWAP1 SLOAD SWAP1 PUSH2 0x100 EXP SWAP1 DIV PUSH1 0xFF AND PUSH1 0x1 DUP2 GT ISZERO PUSH2 0x179B JUMPI PUSH2 0x179A PUSH2 0x3ED5 JUMP JUMPDEST JUMPDEST EQ ISZERO PUSH2 0x17E0 JUMPI DUP2 DUP2 PUSH1 0x40 MLOAD PUSH32 0x1B21B92100000000000000000000000000000000000000000000000000000000 DUP2 MSTORE PUSH1 0x4 ADD PUSH2 0x17D7 SWAP3 SWAP2 SWAP1 PUSH2 0x3F6F JUMP JUMPDEST PUSH1 0x40 MLOAD DUP1 SWAP2 SUB SWAP1 REVERT JUMPDEST CALLVALUE PUSH1 0x0 DUP2 GT PUSH2 0x1826 JUMPI DUP1 PUSH1 0x40 MLOAD PUSH32 0xD59F5FF000000000000000000000000000000000000000000000000000000000 DUP2 MSTORE PUSH1 0x4 ADD PUSH2 0x181D SWAP2 SWAP1 PUSH2 0x3CD7 JUMP JUMPDEST PUSH1 0x40 MLOAD DUP1 SWAP2 SUB SWAP1 REVERT JUMPDEST DUP5 PUSH2 0xFFFF AND PUSH2 0x3E8 DUP2 GT PUSH2 0x1871 JUMPI DUP1 PUSH1 0x40 MLOAD PUSH32 0xA0C5F30C00000000000000000000000000000000000000000000000000000000 DUP2 MSTORE PUSH1 0x4 ADD PUSH2 0x1868 SWAP2 SWAP1 PUSH2 0x3CD7 JUMP JUMPDEST PUSH1 0x40 MLOAD DUP1 SWAP2 SUB SWAP1 REVERT JUMPDEST PUSH1 0x0 PUSH2 0x3E8 DUP1 DUP9 PUSH2 0x1882 SWAP2 SWAP1 PUSH2 0x45C1 JUMP JUMPDEST PUSH2 0xFFFF AND DUP8 PUSH2 0x1891 SWAP2 SWAP1 PUSH2 0x41E2 JUMP JUMPDEST PUSH2 0x189B SWAP2 SWAP1 PUSH2 0x45F5 JUMP JUMPDEST SWAP1 POP CALLVALUE DUP2 EQ PUSH2 0x18DF JUMPI PUSH1 0x40 MLOAD PUSH32 0x8C379A000000000000000000000000000000000000000000000000000000000 DUP2 MSTORE PUSH1 0x4 ADD PUSH2 0x18D6 SWAP1 PUSH2 0x4698 JUMP JUMPDEST PUSH1 0x40 MLOAD DUP1 SWAP2 SUB SWAP1 REVERT JUMPDEST PUSH2 0x1933 DUP12 DUP12 DUP1 DUP1 PUSH1 0x1F ADD PUSH1 0x20 DUP1 SWAP2 DIV MUL PUSH1 0x20 ADD PUSH1 0x40 MLOAD SWAP1 DUP2 ADD PUSH1 0x40 MSTORE DUP1 SWAP4 SWAP3 SWAP2 SWAP1 DUP2 DUP2 MSTORE PUSH1 0x20 ADD DUP4 DUP4 DUP1 DUP3 DUP5 CALLDATACOPY PUSH1 0x0 DUP2 DUP5 ADD MSTORE PUSH1 0x1F NOT PUSH1 0x1F DUP3 ADD AND SWAP1 POP DUP1 DUP4 ADD SWAP3 POP POP POP POP POP POP POP PUSH1 0x1 DUP12 DUP12 DUP12 DUP12 CALLER PUSH2 0x2193 JUMP JUMPDEST POP POP POP POP POP POP POP POP POP POP POP JUMP JUMPDEST PUSH2 0x1948 PUSH2 0x2627 JUMP JUMPDEST PUSH20 0xFFFFFFFFFFFFFFFFFFFFFFFFFFFFFFFFFFFFFFFF AND PUSH2 0x1966 PUSH2 0x906 JUMP JUMPDEST PUSH20 0xFFFFFFFFFFFFFFFFFFFFFFFFFFFFFFFFFFFFFFFF AND EQ PUSH2 0x19BC JUMPI PUSH1 0x40 MLOAD PUSH32 0x8C379A000000000000000000000000000000000000000000000000000000000 DUP2 MSTORE PUSH1 0x4 ADD PUSH2 0x19B3 SWAP1 PUSH2 0x4106 JUMP JUMPDEST PUSH1 0x40 MLOAD DUP1 SWAP2 SUB SWAP1 REVERT JUMPDEST PUSH1 0x0 PUSH20 0xFFFFFFFFFFFFFFFFFFFFFFFFFFFFFFFFFFFFFFFF AND DUP2 PUSH20 0xFFFFFFFFFFFFFFFFFFFFFFFFFFFFFFFFFFFFFFFF AND EQ ISZERO PUSH2 0x1A2C JUMPI PUSH1 0x40 MLOAD PUSH32 0x8C379A000000000000000000000000000000000000000000000000000000000 DUP2 MSTORE PUSH1 0x4 ADD PUSH2 0x1A23 SWAP1 PUSH2 0x472A JUMP JUMPDEST PUSH1 0x40 MLOAD DUP1 SWAP2 SUB SWAP1 REVERT JUMPDEST PUSH2 0x1A35 DUP2 PUSH2 0x262F JUMP JUMPDEST POP JUMP JUMPDEST PUSH1 0x0 DUP1 PUSH1 0x12 DUP6 PUSH1 0x40 MLOAD PUSH2 0x1A4B SWAP2 SWAP1 PUSH2 0x3EBE JUMP JUMPDEST SWAP1 DUP2 MSTORE PUSH1 0x20 ADD PUSH1 0x40 MLOAD DUP1 SWAP2 SUB SWAP1 KECCAK256 PUSH1 0x0 SWAP1 SLOAD SWAP1 PUSH2 0x100 EXP SWAP1 DIV PUSH1 0xFF AND SWAP1 POP PUSH1 0x0 DUP2 PUSH1 0xFF AND EQ ISZERO PUSH2 0x1AB0 JUMPI PUSH1 0x40 MLOAD PUSH32 0x8C379A000000000000000000000000000000000000000000000000000000000 DUP2 MSTORE PUSH1 0x4 ADD PUSH2 0x1AA7 SWAP1 PUSH2 0x4796 JUMP JUMPDEST PUSH1 0x40 MLOAD DUP1 SWAP2 SUB SWAP1 REVERT JUMPDEST PUSH1 0x0 DUP4 PUSH1 0xFF AND EQ ISZERO PUSH2 0x1B08 JUMPI PUSH1 0x0 PUSH1 0x1 DUP2 GT ISZERO PUSH2 0x1AD0 JUMPI PUSH2 0x1ACF PUSH2 0x3ED5 JUMP JUMPDEST JUMPDEST DUP5 PUSH1 0x1 DUP2 GT ISZERO PUSH2 0x1AE3 JUMPI PUSH2 0x1AE2 PUSH2 0x3ED5 JUMP JUMPDEST JUMPDEST EQ ISZERO PUSH2 0x1AF8 JUMPI PUSH1 0x1 DUP2 PUSH1 0xFF AND EQ SWAP2 POP POP PUSH2 0x1BA8 JUMP JUMPDEST PUSH1 0x1 DUP2 PUSH1 0xFF AND EQ ISZERO SWAP2 POP POP PUSH2 0x1BA8 JUMP JUMPDEST PUSH1 0x1 DUP4 PUSH1 0xFF AND EQ ISZERO PUSH2 0x1B60 JUMPI PUSH1 0x0 PUSH1 0x1 DUP2 GT ISZERO PUSH2 0x1B28 JUMPI PUSH2 0x1B27 PUSH2 0x3ED5 JUMP JUMPDEST JUMPDEST DUP5 PUSH1 0x1 DUP2 GT ISZERO PUSH2 0x1B3B JUMPI PUSH2 0x1B3A PUSH2 0x3ED5 JUMP JUMPDEST JUMPDEST EQ ISZERO PUSH2 0x1B50 JUMPI PUSH1 0x3 DUP2 PUSH1 0xFF AND EQ SWAP2 POP POP PUSH2 0x1BA8 JUMP JUMPDEST PUSH1 0x3 DUP2 PUSH1 0xFF AND EQ ISZERO SWAP2 POP POP PUSH2 0x1BA8 JUMP JUMPDEST PUSH1 0x0 PUSH1 0x1 DUP2 GT ISZERO PUSH2 0x1B74 JUMPI PUSH2 0x1B73 PUSH2 0x3ED5 JUMP JUMPDEST JUMPDEST DUP5 PUSH1 0x1 DUP2 GT ISZERO PUSH2 0x1B87 JUMPI PUSH2 0x1B86 PUSH2 0x3ED5 JUMP JUMPDEST JUMPDEST EQ ISZERO PUSH2 0x1B9C JUMPI PUSH1 0x2 DUP2 PUSH1 0xFF AND EQ SWAP2 POP POP PUSH2 0x1BA8 JUMP JUMPDEST PUSH1 0x2 DUP2 PUSH1 0xFF AND EQ ISZERO SWAP2 POP POP JUMPDEST SWAP4 SWAP3 POP POP POP JUMP JUMPDEST PUSH1 0x1 PUSH1 0xB DUP3 PUSH1 0x40 MLOAD PUSH2 0x1BC1 SWAP2 SWAP1 PUSH2 0x3EBE JUMP JUMPDEST SWAP1 DUP2 MSTORE PUSH1 0x20 ADD PUSH1 0x40 MLOAD DUP1 SWAP2 SUB SWAP1 KECCAK256 PUSH1 0x0 ADD PUSH1 0x0 PUSH2 0x100 EXP DUP2 SLOAD DUP2 PUSH1 0xFF MUL NOT AND SWAP1 DUP4 PUSH1 0x1 DUP2 GT ISZERO PUSH2 0x1BF4 JUMPI PUSH2 0x1BF3 PUSH2 0x3ED5 JUMP JUMPDEST JUMPDEST MUL OR SWAP1 SSTORE POP PUSH1 0x0 JUMPDEST PUSH1 0x1 DUP2 PUSH1 0xFF AND LT ISZERO PUSH2 0x218F JUMPI PUSH1 0x0 DUP2 PUSH1 0xFF AND PUSH1 0x0 DUP2 GT ISZERO PUSH2 0x1C20 JUMPI PUSH2 0x1C1F PUSH2 0x3ED5 JUMP JUMPDEST JUMPDEST SWAP1 POP PUSH1 0x0 JUMPDEST PUSH1 0x3 DUP2 PUSH1 0xFF AND LT ISZERO PUSH2 0x217A JUMPI PUSH1 0x0 DUP2 SWAP1 POP PUSH1 0x0 PUSH2 0x1C44 DUP7 PUSH1 0x0 DUP5 PUSH2 0x1A38 JUMP JUMPDEST SWAP1 POP PUSH1 0x0 PUSH1 0x1 ISZERO ISZERO DUP3 ISZERO ISZERO EQ PUSH2 0x1C5B JUMPI PUSH1 0x1 PUSH2 0x1C5E JUMP JUMPDEST PUSH1 0x0 JUMPDEST SWAP1 POP PUSH1 0x0 PUSH1 0xD DUP9 PUSH1 0x40 MLOAD PUSH2 0x1C72 SWAP2 SWAP1 PUSH2 0x3EBE JUMP JUMPDEST SWAP1 DUP2 MSTORE PUSH1 0x20 ADD PUSH1 0x40 MLOAD DUP1 SWAP2 SUB SWAP1 KECCAK256 PUSH1 0x0 DUP4 PUSH1 0x1 DUP2 GT ISZERO PUSH2 0x1C95 JUMPI PUSH2 0x1C94 PUSH2 0x3ED5 JUMP JUMPDEST JUMPDEST PUSH1 0x1 DUP2 GT ISZERO PUSH2 0x1CA7 JUMPI PUSH2 0x1CA6 PUSH2 0x3ED5 JUMP JUMPDEST JUMPDEST DUP2 MSTORE PUSH1 0x20 ADD SWAP1 DUP2 MSTORE PUSH1 0x20 ADD PUSH1 0x0 KECCAK256 PUSH1 0x0 DUP8 PUSH1 0x0 DUP2 GT ISZERO PUSH2 0x1CCA JUMPI PUSH2 0x1CC9 PUSH2 0x3ED5 JUMP JUMPDEST JUMPDEST PUSH1 0x0 DUP2 GT ISZERO PUSH2 0x1CDC JUMPI PUSH2 0x1CDB PUSH2 0x3ED5 JUMP JUMPDEST JUMPDEST DUP2 MSTORE PUSH1 0x20 ADD SWAP1 DUP2 MSTORE PUSH1 0x20 ADD PUSH1 0x0 KECCAK256 PUSH1 0x0 DUP6 PUSH1 0xFF AND PUSH1 0xFF AND DUP2 MSTORE PUSH1 0x20 ADD SWAP1 DUP2 MSTORE PUSH1 0x20 ADD PUSH1 0x0 KECCAK256 DUP1 SLOAD DUP1 PUSH1 0x20 MUL PUSH1 0x20 ADD PUSH1 0x40 MLOAD SWAP1 DUP2 ADD PUSH1 0x40 MSTORE DUP1 SWAP3 SWAP2 SWAP1 DUP2 DUP2 MSTORE PUSH1 0x20 ADD PUSH1 0x0 SWAP1 JUMPDEST DUP3 DUP3 LT ISZERO PUSH2 0x1DEE JUMPI DUP4 DUP3 SWAP1 PUSH1 0x0 MSTORE PUSH1 0x20 PUSH1 0x0 KECCAK256 SWAP1 PUSH1 0x2 MUL ADD PUSH1 0x40 MLOAD DUP1 PUSH1 0x80 ADD PUSH1 0x40 MSTORE SWAP1 DUP2 PUSH1 0x0 DUP3 ADD SLOAD DUP2 MSTORE PUSH1 0x20 ADD PUSH1 0x1 DUP3 ADD PUSH1 0x0 SWAP1 SLOAD SWAP1 PUSH2 0x100 EXP SWAP1 DIV PUSH2 0xFFFF AND PUSH2 0xFFFF AND PUSH2 0xFFFF AND DUP2 MSTORE PUSH1 0x20 ADD PUSH1 0x1 DUP3 ADD PUSH1 0x2 SWAP1 SLOAD SWAP1 PUSH2 0x100 EXP SWAP1 DIV PUSH20 0xFFFFFFFFFFFFFFFFFFFFFFFFFFFFFFFFFFFFFFFF AND PUSH20 0xFFFFFFFFFFFFFFFFFFFFFFFFFFFFFFFFFFFFFFFF AND PUSH20 0xFFFFFFFFFFFFFFFFFFFFFFFFFFFFFFFFFFFFFFFF AND DUP2 MSTORE PUSH1 0x20 ADD PUSH1 0x1 DUP3 ADD PUSH1 0x16 SWAP1 SLOAD SWAP1 PUSH2 0x100 EXP SWAP1 DIV PUSH1 0xFF AND ISZERO ISZERO ISZERO ISZERO DUP2 MSTORE POP POP DUP2 MSTORE PUSH1 0x20 ADD SWAP1 PUSH1 0x1 ADD SWAP1 PUSH2 0x1D21 JUMP JUMPDEST POP POP POP POP SWAP1 POP PUSH1 0x0 JUMPDEST DUP2 MLOAD DUP2 LT ISZERO PUSH2 0x2162 JUMPI DUP2 DUP2 DUP2 MLOAD DUP2 LT PUSH2 0x1E13 JUMPI PUSH2 0x1E12 PUSH2 0x4126 JUMP JUMPDEST JUMPDEST PUSH1 0x20 MUL PUSH1 0x20 ADD ADD MLOAD PUSH1 0x60 ADD MLOAD ISZERO PUSH2 0x1EC0 JUMPI PUSH1 0x0 PUSH2 0x1E70 DUP11 DUP6 DUP11 DUP10 DUP8 DUP8 DUP2 MLOAD DUP2 LT PUSH2 0x1E40 JUMPI PUSH2 0x1E3F PUSH2 0x4126 JUMP JUMPDEST JUMPDEST PUSH1 0x20 MUL PUSH1 0x20 ADD ADD MLOAD PUSH1 0x20 ADD MLOAD DUP9 DUP9 DUP2 MLOAD DUP2 LT PUSH2 0x1E5F JUMPI PUSH2 0x1E5E PUSH2 0x4126 JUMP JUMPDEST JUMPDEST PUSH1 0x20 MUL PUSH1 0x20 ADD ADD MLOAD PUSH1 0x40 ADD MLOAD PUSH2 0x2777 JUMP JUMPDEST SWAP1 POP PUSH1 0x1 PUSH1 0x10 DUP12 PUSH1 0x40 MLOAD PUSH2 0x1E84 SWAP2 SWAP1 PUSH2 0x3EBE JUMP JUMPDEST SWAP1 DUP2 MSTORE PUSH1 0x20 ADD PUSH1 0x40 MLOAD DUP1 SWAP2 SUB SWAP1 KECCAK256 PUSH1 0x0 DUP4 DUP2 MSTORE PUSH1 0x20 ADD SWAP1 DUP2 MSTORE PUSH1 0x20 ADD PUSH1 0x0 KECCAK256 PUSH1 0x0 PUSH2 0x100 EXP DUP2 SLOAD DUP2 PUSH1 0xFF MUL NOT AND SWAP1 DUP4 ISZERO ISZERO MUL OR SWAP1 SSTORE POP POP PUSH2 0x214F JUMP JUMPDEST PUSH2 0x2019 DUP3 DUP3 DUP2 MLOAD DUP2 LT PUSH2 0x1ED6 JUMPI PUSH2 0x1ED5 PUSH2 0x4126 JUMP JUMPDEST JUMPDEST PUSH1 0x20 MUL PUSH1 0x20 ADD ADD MLOAD PUSH1 0x40 ADD MLOAD PUSH1 0xE DUP12 PUSH1 0x40 MLOAD PUSH2 0x1EF2 SWAP2 SWAP1 PUSH2 0x3EBE JUMP JUMPDEST SWAP1 DUP2 MSTORE PUSH1 0x20 ADD PUSH1 0x40 MLOAD DUP1 SWAP2 SUB SWAP1 KECCAK256 PUSH1 0x0 DUP7 PUSH1 0x1 DUP2 GT ISZERO PUSH2 0x1F15 JUMPI PUSH2 0x1F14 PUSH2 0x3ED5 JUMP JUMPDEST JUMPDEST PUSH1 0x1 DUP2 GT ISZERO PUSH2 0x1F27 JUMPI PUSH2 0x1F26 PUSH2 0x3ED5 JUMP JUMPDEST JUMPDEST DUP2 MSTORE PUSH1 0x20 ADD SWAP1 DUP2 MSTORE PUSH1 0x20 ADD PUSH1 0x0 KECCAK256 PUSH1 0x0 DUP11 PUSH1 0x0 DUP2 GT ISZERO PUSH2 0x1F4A JUMPI PUSH2 0x1F49 PUSH2 0x3ED5 JUMP JUMPDEST JUMPDEST PUSH1 0x0 DUP2 GT ISZERO PUSH2 0x1F5C JUMPI PUSH2 0x1F5B PUSH2 0x3ED5 JUMP JUMPDEST JUMPDEST DUP2 MSTORE PUSH1 0x20 ADD SWAP1 DUP2 MSTORE PUSH1 0x20 ADD PUSH1 0x0 KECCAK256 PUSH1 0x0 DUP9 PUSH1 0xFF AND PUSH1 0xFF AND DUP2 MSTORE PUSH1 0x20 ADD SWAP1 DUP2 MSTORE PUSH1 0x20 ADD PUSH1 0x0 KECCAK256 PUSH1 0x0 DUP6 DUP6 DUP2 MLOAD DUP2 LT PUSH2 0x1F96 JUMPI PUSH2 0x1F95 PUSH2 0x4126 JUMP JUMPDEST JUMPDEST PUSH1 0x20 MUL PUSH1 0x20 ADD ADD MLOAD PUSH1 0x20 ADD MLOAD PUSH2 0xFFFF AND PUSH2 0xFFFF AND DUP2 MSTORE PUSH1 0x20 ADD SWAP1 DUP2 MSTORE PUSH1 0x20 ADD PUSH1 0x0 KECCAK256 PUSH1 0x0 DUP6 DUP6 DUP2 MLOAD DUP2 LT PUSH2 0x1FCD JUMPI PUSH2 0x1FCC PUSH2 0x4126 JUMP JUMPDEST JUMPDEST PUSH1 0x20 MUL PUSH1 0x20 ADD ADD MLOAD PUSH1 0x40 ADD MLOAD PUSH20 0xFFFFFFFFFFFFFFFFFFFFFFFFFFFFFFFFFFFFFFFF AND PUSH20 0xFFFFFFFFFFFFFFFFFFFFFFFFFFFFFFFFFFFFFFFF AND DUP2 MSTORE PUSH1 0x20 ADD SWAP1 DUP2 MSTORE PUSH1 0x20 ADD PUSH1 0x0 KECCAK256 SLOAD PUSH2 0x25DC JUMP JUMPDEST PUSH1 0xE DUP10 PUSH1 0x40 MLOAD PUSH2 0x2029 SWAP2 SWAP1 PUSH2 0x3EBE JUMP JUMPDEST SWAP1 DUP2 MSTORE PUSH1 0x20 ADD PUSH1 0x40 MLOAD DUP1 SWAP2 SUB SWAP1 KECCAK256 PUSH1 0x0 DUP5 PUSH1 0x1 DUP2 GT ISZERO PUSH2 0x204C JUMPI PUSH2 0x204B PUSH2 0x3ED5 JUMP JUMPDEST JUMPDEST PUSH1 0x1 DUP2 GT ISZERO PUSH2 0x205E JUMPI PUSH2 0x205D PUSH2 0x3ED5 JUMP JUMPDEST JUMPDEST DUP2 MSTORE PUSH1 0x20 ADD SWAP1 DUP2 MSTORE PUSH1 0x20 ADD PUSH1 0x0 KECCAK256 PUSH1 0x0 DUP9 PUSH1 0x0 DUP2 GT ISZERO PUSH2 0x2081 JUMPI PUSH2 0x2080 PUSH2 0x3ED5 JUMP JUMPDEST JUMPDEST PUSH1 0x0 DUP2 GT ISZERO PUSH2 0x2093 JUMPI PUSH2 0x2092 PUSH2 0x3ED5 JUMP JUMPDEST JUMPDEST DUP2 MSTORE PUSH1 0x20 ADD SWAP1 DUP2 MSTORE PUSH1 0x20 ADD PUSH1 0x0 KECCAK256 PUSH1 0x0 DUP7 PUSH1 0xFF AND PUSH1 0xFF AND DUP2 MSTORE PUSH1 0x20 ADD SWAP1 DUP2 MSTORE PUSH1 0x20 ADD PUSH1 0x0 KECCAK256 PUSH1 0x0 DUP4 DUP4 DUP2 MLOAD DUP2 LT PUSH2 0x20CD JUMPI PUSH2 0x20CC PUSH2 0x4126 JUMP JUMPDEST JUMPDEST PUSH1 0x20 MUL PUSH1 0x20 ADD ADD MLOAD PUSH1 0x20 ADD MLOAD PUSH2 0xFFFF AND PUSH2 0xFFFF AND DUP2 MSTORE PUSH1 0x20 ADD SWAP1 DUP2 MSTORE PUSH1 0x20 ADD PUSH1 0x0 KECCAK256 PUSH1 0x0 DUP4 DUP4 DUP2 MLOAD DUP2 LT PUSH2 0x2104 JUMPI PUSH2 0x2103 PUSH2 0x4126 JUMP JUMPDEST JUMPDEST PUSH1 0x20 MUL PUSH1 0x20 ADD ADD MLOAD PUSH1 0x40 ADD MLOAD PUSH20 0xFFFFFFFFFFFFFFFFFFFFFFFFFFFFFFFFFFFFFFFF AND PUSH20 0xFFFFFFFFFFFFFFFFFFFFFFFFFFFFFFFFFFFFFFFF AND DUP2 MSTORE PUSH1 0x20 ADD SWAP1 DUP2 MSTORE PUSH1 0x20 ADD PUSH1 0x0 KECCAK256 PUSH1 0x0 SWAP1 SSTORE JUMPDEST DUP1 DUP1 PUSH2 0x215A SWAP1 PUSH2 0x4409 JUMP JUMPDEST SWAP2 POP POP PUSH2 0x1DF7 JUMP JUMPDEST POP POP POP POP POP DUP1 DUP1 PUSH2 0x2172 SWAP1 PUSH2 0x4184 JUMP JUMPDEST SWAP2 POP POP PUSH2 0x1C25 JUMP JUMPDEST POP POP DUP1 DUP1 PUSH2 0x2187 SWAP1 PUSH2 0x4184 JUMP JUMPDEST SWAP2 POP POP PUSH2 0x1BFC JUMP JUMPDEST POP POP JUMP JUMPDEST PUSH1 0x0 DUP7 PUSH1 0x1 DUP2 GT ISZERO PUSH2 0x21A8 JUMPI PUSH2 0x21A7 PUSH2 0x3ED5 JUMP JUMPDEST JUMPDEST PUSH1 0x0 PUSH1 0x1 DUP2 GT ISZERO PUSH2 0x21BC JUMPI PUSH2 0x21BB PUSH2 0x3ED5 JUMP JUMPDEST JUMPDEST EQ PUSH2 0x21C8 JUMPI PUSH1 0x0 PUSH2 0x21CB JUMP JUMPDEST PUSH1 0x1 JUMPDEST SWAP1 POP PUSH1 0x0 PUSH1 0xC DUP10 PUSH1 0x40 MLOAD PUSH2 0x21DF SWAP2 SWAP1 PUSH2 0x3EBE JUMP JUMPDEST SWAP1 DUP2 MSTORE PUSH1 0x20 ADD PUSH1 0x40 MLOAD DUP1 SWAP2 SUB SWAP1 KECCAK256 PUSH1 0x0 DUP4 PUSH1 0x1 DUP2 GT ISZERO PUSH2 0x2202 JUMPI PUSH2 0x2201 PUSH2 0x3ED5 JUMP JUMPDEST JUMPDEST PUSH1 0x1 DUP2 GT ISZERO PUSH2 0x2214 JUMPI PUSH2 0x2213 PUSH2 0x3ED5 JUMP JUMPDEST JUMPDEST DUP2 MSTORE PUSH1 0x20 ADD SWAP1 DUP2 MSTORE PUSH1 0x20 ADD PUSH1 0x0 KECCAK256 PUSH1 0x0 DUP9 PUSH1 0x0 DUP2 GT ISZERO PUSH2 0x2237 JUMPI PUSH2 0x2236 PUSH2 0x3ED5 JUMP JUMPDEST JUMPDEST PUSH1 0x0 DUP2 GT ISZERO PUSH2 0x2249 JUMPI PUSH2 0x2248 PUSH2 0x3ED5 JUMP JUMPDEST JUMPDEST DUP2 MSTORE PUSH1 0x20 ADD SWAP1 DUP2 MSTORE PUSH1 0x20 ADD PUSH1 0x0 KECCAK256 PUSH1 0x0 DUP8 PUSH1 0xFF AND PUSH1 0xFF AND DUP2 MSTORE PUSH1 0x20 ADD SWAP1 DUP2 MSTORE PUSH1 0x20 ADD PUSH1 0x0 KECCAK256 PUSH1 0x0 DUP7 PUSH2 0xFFFF AND PUSH2 0xFFFF AND DUP2 MSTORE PUSH1 0x20 ADD SWAP1 DUP2 MSTORE PUSH1 0x20 ADD PUSH1 0x0 KECCAK256 DUP1 SLOAD DUP1 PUSH1 0x20 MUL PUSH1 0x20 ADD PUSH1 0x40 MLOAD SWAP1 DUP2 ADD PUSH1 0x40 MSTORE DUP1 SWAP3 SWAP2 SWAP1 DUP2 DUP2 MSTORE PUSH1 0x20 ADD PUSH1 0x0 SWAP1 JUMPDEST DUP3 DUP3 LT ISZERO PUSH2 0x2339 JUMPI DUP4 DUP3 SWAP1 PUSH1 0x0 MSTORE PUSH1 0x20 PUSH1 0x0 KECCAK256 SWAP1 PUSH1 0x2 MUL ADD PUSH1 0x40 MLOAD DUP1 PUSH1 0x40 ADD PUSH1 0x40 MSTORE SWAP1 DUP2 PUSH1 0x0 DUP3 ADD SLOAD DUP2 MSTORE PUSH1 0x20 ADD PUSH1 0x1 DUP3 ADD PUSH1 0x0 SWAP1 SLOAD SWAP1 PUSH2 0x100 EXP SWAP1 DIV PUSH20 0xFFFFFFFFFFFFFFFFFFFFFFFFFFFFFFFFFFFFFFFF AND PUSH20 0xFFFFFFFFFFFFFFFFFFFFFFFFFFFFFFFFFFFFFFFF AND PUSH20 0xFFFFFFFFFFFFFFFFFFFFFFFFFFFFFFFFFFFFFFFF AND DUP2 MSTORE POP POP DUP2 MSTORE PUSH1 0x20 ADD SWAP1 PUSH1 0x1 ADD SWAP1 PUSH2 0x22A7 JUMP JUMPDEST POP POP POP POP SWAP1 POP PUSH1 0x0 DUP2 MLOAD EQ ISZERO PUSH2 0x235F JUMPI PUSH2 0x2358 DUP10 DUP10 DUP10 DUP10 DUP10 DUP10 DUP10 PUSH2 0x27BD JUMP JUMPDEST POP POP PUSH2 0x25D3 JUMP JUMPDEST PUSH1 0x0 DUP5 SWAP1 POP PUSH1 0x0 JUMPDEST DUP3 MLOAD DUP2 LT ISZERO PUSH2 0x25A5 JUMPI PUSH1 0x0 DUP4 DUP3 DUP2 MLOAD DUP2 LT PUSH2 0x2385 JUMPI PUSH2 0x2384 PUSH2 0x4126 JUMP JUMPDEST JUMPDEST PUSH1 0x20 MUL PUSH1 0x20 ADD ADD MLOAD PUSH1 0x0 ADD MLOAD DUP4 GT ISZERO PUSH2 0x23CC JUMPI DUP4 DUP3 DUP2 MLOAD DUP2 LT PUSH2 0x23AB JUMPI PUSH2 0x23AA PUSH2 0x4126 JUMP JUMPDEST JUMPDEST PUSH1 0x20 MUL PUSH1 0x20 ADD ADD MLOAD PUSH1 0x0 ADD MLOAD SWAP1 POP DUP1 DUP4 PUSH2 0x23C5 SWAP2 SWAP1 PUSH2 0x47B6 JUMP JUMPDEST SWAP3 POP PUSH2 0x23DE JUMP JUMPDEST DUP3 SWAP1 POP DUP1 DUP4 PUSH2 0x23DB SWAP2 SWAP1 PUSH2 0x47B6 JUMP JUMPDEST SWAP3 POP JUMPDEST PUSH2 0x240B DUP13 DUP7 DUP13 DUP13 DUP13 DUP7 DUP11 DUP10 DUP2 MLOAD DUP2 LT PUSH2 0x23FA JUMPI PUSH2 0x23F9 PUSH2 0x4126 JUMP JUMPDEST JUMPDEST PUSH1 0x20 MUL PUSH1 0x20 ADD ADD MLOAD PUSH1 0x20 ADD MLOAD PUSH2 0x2968 JUMP JUMPDEST DUP4 DUP3 DUP2 MLOAD DUP2 LT PUSH2 0x241E JUMPI PUSH2 0x241D PUSH2 0x4126 JUMP JUMPDEST JUMPDEST PUSH1 0x20 MUL PUSH1 0x20 ADD ADD MLOAD PUSH1 0x0 ADD MLOAD DUP2 EQ ISZERO PUSH2 0x24BC JUMPI PUSH32 0xADE976E65F3978AA3968AF04901755321152BA32B08EE0175E035760C11C1B5 DUP13 DUP7 DUP13 DUP13 DUP13 DUP7 DUP11 DUP10 DUP2 MLOAD DUP2 LT PUSH2 0x246B JUMPI PUSH2 0x246A PUSH2 0x4126 JUMP JUMPDEST JUMPDEST PUSH1 0x20 MUL PUSH1 0x20 ADD ADD MLOAD PUSH1 0x20 ADD MLOAD PUSH1 0x40 MLOAD PUSH2 0x248A SWAP8 SWAP7 SWAP6 SWAP5 SWAP4 SWAP3 SWAP2 SWAP1 PUSH2 0x47EA JUMP JUMPDEST PUSH1 0x40 MLOAD DUP1 SWAP2 SUB SWAP1 LOG1 DUP4 DUP3 DUP2 MLOAD DUP2 LT PUSH2 0x24A5 JUMPI PUSH2 0x24A4 PUSH2 0x4126 JUMP JUMPDEST JUMPDEST PUSH1 0x20 MUL PUSH1 0x20 ADD ADD PUSH2 0x24B4 PUSH2 0x3439 JUMP JUMPDEST DUP2 MSTORE POP PUSH2 0x256F JUMP JUMPDEST DUP1 DUP5 DUP4 DUP2 MLOAD DUP2 LT PUSH2 0x24D0 JUMPI PUSH2 0x24CF PUSH2 0x4126 JUMP JUMPDEST JUMPDEST PUSH1 0x20 MUL PUSH1 0x20 ADD ADD MLOAD PUSH1 0x0 ADD DUP2 DUP2 MLOAD PUSH2 0x24E8 SWAP2 SWAP1 PUSH2 0x47B6 JUMP JUMPDEST SWAP2 POP DUP2 DUP2 MSTORE POP POP PUSH32 0x3F3925F6AFE1AB09977BA289DC98C6334B2773372C1F7EAF605CEDB85C643F01 DUP13 DUP7 DUP13 DUP13 DUP13 DUP10 DUP9 DUP2 MLOAD DUP2 LT PUSH2 0x2528 JUMPI PUSH2 0x2527 PUSH2 0x4126 JUMP JUMPDEST JUMPDEST PUSH1 0x20 MUL PUSH1 0x20 ADD ADD MLOAD PUSH1 0x0 ADD MLOAD DUP11 DUP10 DUP2 MLOAD DUP2 LT PUSH2 0x2547 JUMPI PUSH2 0x2546 PUSH2 0x4126 JUMP JUMPDEST JUMPDEST PUSH1 0x20 MUL PUSH1 0x20 ADD ADD MLOAD PUSH1 0x20 ADD MLOAD PUSH1 0x40 MLOAD PUSH2 0x2566 SWAP8 SWAP7 SWAP6 SWAP5 SWAP4 SWAP3 SWAP2 SWAP1 PUSH2 0x47EA JUMP JUMPDEST PUSH1 0x40 MLOAD DUP1 SWAP2 SUB SWAP1 LOG1 JUMPDEST PUSH1 0x0 DUP4 EQ ISZERO PUSH2 0x2591 JUMPI PUSH2 0x2587 DUP13 DUP13 DUP13 DUP13 DUP13 DUP13 DUP13 PUSH2 0x2968 JUMP JUMPDEST POP POP POP POP POP PUSH2 0x25D3 JUMP JUMPDEST POP DUP1 DUP1 PUSH2 0x259D SWAP1 PUSH2 0x4409 JUMP JUMPDEST SWAP2 POP POP PUSH2 0x2367 JUMP JUMPDEST POP PUSH2 0x25C0 DUP11 DUP11 DUP11 DUP11 DUP11 DUP7 DUP12 PUSH2 0x25BA SWAP2 SWAP1 PUSH2 0x47B6 JUMP JUMPDEST DUP11 PUSH2 0x2968 JUMP JUMPDEST PUSH2 0x25CF DUP11 DUP11 DUP11 DUP11 DUP11 DUP7 DUP11 PUSH2 0x27BD JUMP JUMPDEST POP POP POP JUMPDEST POP POP POP POP POP POP POP JUMP JUMPDEST DUP2 PUSH20 0xFFFFFFFFFFFFFFFFFFFFFFFFFFFFFFFFFFFFFFFF AND PUSH2 0x8FC DUP3 SWAP1 DUP2 ISZERO MUL SWAP1 PUSH1 0x40 MLOAD PUSH1 0x0 PUSH1 0x40 MLOAD DUP1 DUP4 SUB DUP2 DUP6 DUP9 DUP9 CALL SWAP4 POP POP POP POP ISZERO DUP1 ISZERO PUSH2 0x2622 JUMPI RETURNDATASIZE PUSH1 0x0 DUP1 RETURNDATACOPY RETURNDATASIZE PUSH1 0x0 REVERT JUMPDEST POP POP POP JUMP JUMPDEST PUSH1 0x0 CALLER SWAP1 POP SWAP1 JUMP JUMPDEST PUSH1 0x0 DUP1 PUSH1 0x0 SWAP1 SLOAD SWAP1 PUSH2 0x100 EXP SWAP1 DIV PUSH20 0xFFFFFFFFFFFFFFFFFFFFFFFFFFFFFFFFFFFFFFFF AND SWAP1 POP DUP2 PUSH1 0x0 DUP1 PUSH2 0x100 EXP DUP2 SLOAD DUP2 PUSH20 0xFFFFFFFFFFFFFFFFFFFFFFFFFFFFFFFFFFFFFFFF MUL NOT AND SWAP1 DUP4 PUSH20 0xFFFFFFFFFFFFFFFFFFFFFFFFFFFFFFFFFFFFFFFF AND MUL OR SWAP1 SSTORE POP DUP2 PUSH20 0xFFFFFFFFFFFFFFFFFFFFFFFFFFFFFFFFFFFFFFFF AND DUP2 PUSH20 0xFFFFFFFFFFFFFFFFFFFFFFFFFFFFFFFFFFFFFFFF AND PUSH32 0x8BE0079C531659141344CD1FD0A4F28419497F9722A3DAAFE3B4186F6B6457E0 PUSH1 0x40 MLOAD PUSH1 0x40 MLOAD DUP1 SWAP2 SUB SWAP1 LOG3 POP POP JUMP JUMPDEST PUSH2 0x26FB PUSH2 0x3469 JUMP JUMPDEST PUSH2 0x2703 PUSH2 0x3469 JUMP JUMPDEST PUSH2 0x271A DUP6 DUP6 DUP6 DUP5 PUSH2 0x2CBA SWAP1 SWAP4 SWAP3 SWAP2 SWAP1 PUSH4 0xFFFFFFFF AND JUMP JUMPDEST SWAP2 POP POP SWAP4 SWAP3 POP POP POP JUMP JUMPDEST PUSH2 0x273B DUP3 DUP5 PUSH1 0x80 ADD MLOAD PUSH2 0x2D6A SWAP1 SWAP2 SWAP1 PUSH4 0xFFFFFFFF AND JUMP JUMPDEST PUSH2 0x2752 DUP2 DUP5 PUSH1 0x80 ADD MLOAD PUSH2 0x2D6A SWAP1 SWAP2 SWAP1 PUSH4 0xFFFFFFFF AND JUMP JUMPDEST POP POP POP JUMP JUMPDEST PUSH1 0x0 PUSH2 0x276E DUP5 DUP5 DUP5 PUSH1 0x1 PUSH4 0x40429946 PUSH1 0xE0 SHL PUSH2 0x2D8F JUMP JUMPDEST SWAP1 POP SWAP4 SWAP3 POP POP POP JUMP JUMPDEST PUSH1 0x0 PUSH2 0xFFF DUP8 DUP4 DUP9 DUP9 DUP9 DUP9 PUSH1 0x40 MLOAD PUSH1 0x20 ADD PUSH2 0x2797 SWAP7 SWAP6 SWAP5 SWAP4 SWAP3 SWAP2 SWAP1 PUSH2 0x4860 JUMP JUMPDEST PUSH1 0x40 MLOAD PUSH1 0x20 DUP2 DUP4 SUB SUB DUP2 MSTORE SWAP1 PUSH1 0x40 MSTORE DUP1 MLOAD SWAP1 PUSH1 0x20 ADD KECCAK256 PUSH1 0x0 SHR AND SWAP1 POP SWAP7 SWAP6 POP POP POP POP POP POP JUMP JUMPDEST PUSH1 0xC DUP8 PUSH1 0x40 MLOAD PUSH2 0x27CD SWAP2 SWAP1 PUSH2 0x3EBE JUMP JUMPDEST SWAP1 DUP2 MSTORE PUSH1 0x20 ADD PUSH1 0x40 MLOAD DUP1 SWAP2 SUB SWAP1 KECCAK256 PUSH1 0x0 DUP8 PUSH1 0x1 DUP2 GT ISZERO PUSH2 0x27F0 JUMPI PUSH2 0x27EF PUSH2 0x3ED5 JUMP JUMPDEST JUMPDEST PUSH1 0x1 DUP2 GT ISZERO PUSH2 0x2802 JUMPI PUSH2 0x2801 PUSH2 0x3ED5 JUMP JUMPDEST JUMPDEST DUP2 MSTORE PUSH1 0x20 ADD SWAP1 DUP2 MSTORE PUSH1 0x20 ADD PUSH1 0x0 KECCAK256 PUSH1 0x0 DUP7 PUSH1 0x0 DUP2 GT ISZERO PUSH2 0x2825 JUMPI PUSH2 0x2824 PUSH2 0x3ED5 JUMP JUMPDEST JUMPDEST PUSH1 0x0 DUP2 GT ISZERO PUSH2 0x2837 JUMPI PUSH2 0x2836 PUSH2 0x3ED5 JUMP JUMPDEST JUMPDEST DUP2 MSTORE PUSH1 0x20 ADD SWAP1 DUP2 MSTORE PUSH1 0x20 ADD PUSH1 0x0 KECCAK256 PUSH1 0x0 DUP6 PUSH1 0xFF AND PUSH1 0xFF AND DUP2 MSTORE PUSH1 0x20 ADD SWAP1 DUP2 MSTORE PUSH1 0x20 ADD PUSH1 0x0 KECCAK256 PUSH1 0x0 DUP5 PUSH2 0xFFFF AND PUSH2 0xFFFF AND DUP2 MSTORE PUSH1 0x20 ADD SWAP1 DUP2 MSTORE PUSH1 0x20 ADD PUSH1 0x0 KECCAK256 PUSH1 0x40 MLOAD DUP1 PUSH1 0x40 ADD PUSH1 0x40 MSTORE DUP1 DUP5 DUP2 MSTORE PUSH1 0x20 ADD DUP4 PUSH20 0xFFFFFFFFFFFFFFFFFFFFFFFFFFFFFFFFFFFFFFFF AND DUP2 MSTORE POP SWAP1 DUP1 PUSH1 0x1 DUP2 SLOAD ADD DUP1 DUP3 SSTORE DUP1 SWAP2 POP POP PUSH1 0x1 SWAP1 SUB SWAP1 PUSH1 0x0 MSTORE PUSH1 0x20 PUSH1 0x0 KECCAK256 SWAP1 PUSH1 0x2 MUL ADD PUSH1 0x0 SWAP1 SWAP2 SWAP1 SWAP2 SWAP1 SWAP2 POP PUSH1 0x0 DUP3 ADD MLOAD DUP2 PUSH1 0x0 ADD SSTORE PUSH1 0x20 DUP3 ADD MLOAD DUP2 PUSH1 0x1 ADD PUSH1 0x0 PUSH2 0x100 EXP DUP2 SLOAD DUP2 PUSH20 0xFFFFFFFFFFFFFFFFFFFFFFFFFFFFFFFFFFFFFFFF MUL NOT AND SWAP1 DUP4 PUSH20 0xFFFFFFFFFFFFFFFFFFFFFFFFFFFFFFFFFFFFFFFF AND MUL OR SWAP1 SSTORE POP POP POP PUSH32 0xD9EAD39440C1245780B4D6D60AA95D35BBAC48E0D9CDF2B29E0E33F5E75AEDBE DUP8 DUP8 DUP8 DUP8 DUP8 DUP8 DUP8 PUSH1 0x40 MLOAD PUSH2 0x2957 SWAP8 SWAP7 SWAP6 SWAP5 SWAP4 SWAP3 SWAP2 SWAP1 PUSH2 0x47EA JUMP JUMPDEST PUSH1 0x40 MLOAD DUP1 SWAP2 SUB SWAP1 LOG1 POP POP POP POP POP POP POP JUMP JUMPDEST PUSH1 0x0 DUP3 SWAP1 POP PUSH1 0x0 PUSH1 0x1 DUP2 GT ISZERO PUSH2 0x2981 JUMPI PUSH2 0x2980 PUSH2 0x3ED5 JUMP JUMPDEST JUMPDEST DUP8 PUSH1 0x1 DUP2 GT ISZERO PUSH2 0x2994 JUMPI PUSH2 0x2993 PUSH2 0x3ED5 JUMP JUMPDEST JUMPDEST EQ ISZERO PUSH2 0x29C5 JUMPI PUSH2 0x3E8 DUP1 DUP6 PUSH2 0x29A9 SWAP2 SWAP1 PUSH2 0x45C1 JUMP JUMPDEST PUSH2 0xFFFF AND DUP5 PUSH2 0x29B8 SWAP2 SWAP1 PUSH2 0x41E2 JUMP JUMPDEST PUSH2 0x29C2 SWAP2 SWAP1 PUSH2 0x45F5 JUMP JUMPDEST SWAP1 POP JUMPDEST DUP1 PUSH1 0xE DUP10 PUSH1 0x40 MLOAD PUSH2 0x29D6 SWAP2 SWAP1 PUSH2 0x3EBE JUMP JUMPDEST SWAP1 DUP2 MSTORE PUSH1 0x20 ADD PUSH1 0x40 MLOAD DUP1 SWAP2 SUB SWAP1 KECCAK256 PUSH1 0x0 DUP10 PUSH1 0x1 DUP2 GT ISZERO PUSH2 0x29F9 JUMPI PUSH2 0x29F8 PUSH2 0x3ED5 JUMP JUMPDEST JUMPDEST PUSH1 0x1 DUP2 GT ISZERO PUSH2 0x2A0B JUMPI PUSH2 0x2A0A PUSH2 0x3ED5 JUMP JUMPDEST JUMPDEST DUP2 MSTORE PUSH1 0x20 ADD SWAP1 DUP2 MSTORE PUSH1 0x20 ADD PUSH1 0x0 KECCAK256 PUSH1 0x0 DUP9 PUSH1 0x0 DUP2 GT ISZERO PUSH2 0x2A2E JUMPI PUSH2 0x2A2D PUSH2 0x3ED5 JUMP JUMPDEST JUMPDEST PUSH1 0x0 DUP2 GT ISZERO PUSH2 0x2A40 JUMPI PUSH2 0x2A3F PUSH2 0x3ED5 JUMP JUMPDEST JUMPDEST DUP2 MSTORE PUSH1 0x20 ADD SWAP1 DUP2 MSTORE PUSH1 0x20 ADD PUSH1 0x0 KECCAK256 PUSH1 0x0 DUP8 PUSH1 0xFF AND PUSH1 0xFF AND DUP2 MSTORE PUSH1 0x20 ADD SWAP1 DUP2 MSTORE PUSH1 0x20 ADD PUSH1 0x0 KECCAK256 PUSH1 0x0 DUP7 PUSH2 0xFFFF AND PUSH2 0xFFFF AND DUP2 MSTORE PUSH1 0x20 ADD SWAP1 DUP2 MSTORE PUSH1 0x20 ADD PUSH1 0x0 KECCAK256 PUSH1 0x0 DUP5 PUSH20 0xFFFFFFFFFFFFFFFFFFFFFFFFFFFFFFFFFFFFFFFF AND PUSH20 0xFFFFFFFFFFFFFFFFFFFFFFFFFFFFFFFFFFFFFFFF AND DUP2 MSTORE PUSH1 0x20 ADD SWAP1 DUP2 MSTORE PUSH1 0x20 ADD PUSH1 0x0 KECCAK256 PUSH1 0x0 DUP3 DUP3 SLOAD PUSH2 0x2ACA SWAP2 SWAP1 PUSH2 0x423C JUMP JUMPDEST SWAP3 POP POP DUP2 SWAP1 SSTORE POP PUSH1 0xD DUP9 PUSH1 0x40 MLOAD PUSH2 0x2AE1 SWAP2 SWAP1 PUSH2 0x3EBE JUMP JUMPDEST SWAP1 DUP2 MSTORE PUSH1 0x20 ADD PUSH1 0x40 MLOAD DUP1 SWAP2 SUB SWAP1 KECCAK256 PUSH1 0x0 DUP9 PUSH1 0x1 DUP2 GT ISZERO PUSH2 0x2B04 JUMPI PUSH2 0x2B03 PUSH2 0x3ED5 JUMP JUMPDEST JUMPDEST PUSH1 0x1 DUP2 GT ISZERO PUSH2 0x2B16 JUMPI PUSH2 0x2B15 PUSH2 0x3ED5 JUMP JUMPDEST JUMPDEST DUP2 MSTORE PUSH1 0x20 ADD SWAP1 DUP2 MSTORE PUSH1 0x20 ADD PUSH1 0x0 KECCAK256 PUSH1 0x0 DUP8 PUSH1 0x0 DUP2 GT ISZERO PUSH2 0x2B39 JUMPI PUSH2 0x2B38 PUSH2 0x3ED5 JUMP JUMPDEST JUMPDEST PUSH1 0x0 DUP2 GT ISZERO PUSH2 0x2B4B JUMPI PUSH2 0x2B4A PUSH2 0x3ED5 JUMP JUMPDEST JUMPDEST DUP2 MSTORE PUSH1 0x20 ADD SWAP1 DUP2 MSTORE PUSH1 0x20 ADD PUSH1 0x0 KECCAK256 PUSH1 0x0 DUP7 PUSH1 0xFF AND PUSH1 0xFF AND DUP2 MSTORE PUSH1 0x20 ADD SWAP1 DUP2 MSTORE PUSH1 0x20 ADD PUSH1 0x0 KECCAK256 PUSH1 0x40 MLOAD DUP1 PUSH1 0x80 ADD PUSH1 0x40 MSTORE DUP1 DUP6 DUP2 MSTORE PUSH1 0x20 ADD DUP7 PUSH2 0xFFFF AND DUP2 MSTORE PUSH1 0x20 ADD DUP5 PUSH20 0xFFFFFFFFFFFFFFFFFFFFFFFFFFFFFFFFFFFFFFFF AND DUP2 MSTORE PUSH1 0x20 ADD PUSH1 0x0 ISZERO ISZERO DUP2 MSTORE POP SWAP1 DUP1 PUSH1 0x1 DUP2 SLOAD ADD DUP1 DUP3 SSTORE DUP1 SWAP2 POP POP PUSH1 0x1 SWAP1 SUB SWAP1 PUSH1 0x0 MSTORE PUSH1 0x20 PUSH1 0x0 KECCAK256 SWAP1 PUSH1 0x2 MUL ADD PUSH1 0x0 SWAP1 SWAP2 SWAP1 SWAP2 SWAP1 SWAP2 POP PUSH1 0x0 DUP3 ADD MLOAD DUP2 PUSH1 0x0 ADD SSTORE PUSH1 0x20 DUP3 ADD MLOAD DUP2 PUSH1 0x1 ADD PUSH1 0x0 PUSH2 0x100 EXP DUP2 SLOAD DUP2 PUSH2 0xFFFF MUL NOT AND SWAP1 DUP4 PUSH2 0xFFFF AND MUL OR SWAP1 SSTORE POP PUSH1 0x40 DUP3 ADD MLOAD DUP2 PUSH1 0x1 ADD PUSH1 0x2 PUSH2 0x100 EXP DUP2 SLOAD DUP2 PUSH20 0xFFFFFFFFFFFFFFFFFFFFFFFFFFFFFFFFFFFFFFFF MUL NOT AND SWAP1 DUP4 PUSH20 0xFFFFFFFFFFFFFFFFFFFFFFFFFFFFFFFFFFFFFFFF AND MUL OR SWAP1 SSTORE POP PUSH1 0x60 DUP3 ADD MLOAD DUP2 PUSH1 0x1 ADD PUSH1 0x16 PUSH2 0x100 EXP DUP2 SLOAD DUP2 PUSH1 0xFF MUL NOT AND SWAP1 DUP4 ISZERO ISZERO MUL OR SWAP1 SSTORE POP POP POP PUSH32 0xFCA364A96D7ED643A08A7B3F2BE55B7E2993632CE10F4C978DC379198544F7D DUP9 DUP9 DUP9 DUP9 DUP9 DUP9 DUP9 PUSH1 0x40 MLOAD PUSH2 0x2CA8 SWAP8 SWAP7 SWAP6 SWAP5 SWAP4 SWAP3 SWAP2 SWAP1 PUSH2 0x47EA JUMP JUMPDEST PUSH1 0x40 MLOAD DUP1 SWAP2 SUB SWAP1 LOG1 POP POP POP POP POP POP POP POP JUMP JUMPDEST PUSH2 0x2CC2 PUSH2 0x3469 JUMP JUMPDEST PUSH2 0x2CD2 DUP6 PUSH1 0x80 ADD MLOAD PUSH2 0x100 PUSH2 0x2FF7 JUMP JUMPDEST POP DUP4 DUP6 PUSH1 0x0 ADD DUP2 DUP2 MSTORE POP POP DUP3 DUP6 PUSH1 0x20 ADD SWAP1 PUSH20 0xFFFFFFFFFFFFFFFFFFFFFFFFFFFFFFFFFFFFFFFF AND SWAP1 DUP2 PUSH20 0xFFFFFFFFFFFFFFFFFFFFFFFFFFFFFFFFFFFFFFFF AND DUP2 MSTORE POP POP DUP2 DUP6 PUSH1 0x40 ADD SWAP1 PUSH28 0xFFFFFFFFFFFFFFFFFFFFFFFFFFFFFFFFFFFFFFFFFFFFFFFFFFFFFFFF NOT AND SWAP1 DUP2 PUSH28 0xFFFFFFFFFFFFFFFFFFFFFFFFFFFFFFFFFFFFFFFFFFFFFFFFFFFFFFFF NOT AND DUP2 MSTORE POP POP DUP5 SWAP1 POP SWAP5 SWAP4 POP POP POP POP JUMP JUMPDEST PUSH2 0x2D77 DUP3 PUSH1 0x3 DUP4 MLOAD PUSH2 0x3061 JUMP JUMPDEST PUSH2 0x2D8A DUP2 DUP4 PUSH2 0x31A6 SWAP1 SWAP2 SWAP1 PUSH4 0xFFFFFFFF AND JUMP JUMPDEST POP POP POP JUMP JUMPDEST PUSH1 0x0 ADDRESS PUSH1 0x5 SLOAD PUSH1 0x40 MLOAD PUSH1 0x20 ADD PUSH2 0x2DA6 SWAP3 SWAP2 SWAP1 PUSH2 0x4943 JUMP JUMPDEST PUSH1 0x40 MLOAD PUSH1 0x20 DUP2 DUP4 SUB SUB DUP2 MSTORE SWAP1 PUSH1 0x40 MSTORE DUP1 MLOAD SWAP1 PUSH1 0x20 ADD KECCAK256 SWAP1 POP PUSH1 0x5 SLOAD DUP6 PUSH1 0x60 ADD DUP2 DUP2 MSTORE POP POP DUP6 PUSH1 0x6 PUSH1 0x0 DUP4 DUP2 MSTORE PUSH1 0x20 ADD SWAP1 DUP2 MSTORE PUSH1 0x20 ADD PUSH1 0x0 KECCAK256 PUSH1 0x0 PUSH2 0x100 EXP DUP2 SLOAD DUP2 PUSH20 0xFFFFFFFFFFFFFFFFFFFFFFFFFFFFFFFFFFFFFFFF MUL NOT AND SWAP1 DUP4 PUSH20 0xFFFFFFFFFFFFFFFFFFFFFFFFFFFFFFFFFFFFFFFF AND MUL OR SWAP1 SSTORE POP DUP1 PUSH32 0xB5E6E01E79F91267DC17B4E6314D5D4D03593D2CEEE0FBB452B750BD70EA5AF9 PUSH1 0x40 MLOAD PUSH1 0x40 MLOAD DUP1 SWAP2 SUB SWAP1 LOG2 PUSH1 0x0 DUP3 PUSH1 0x0 DUP1 DUP9 PUSH1 0x0 ADD MLOAD DUP10 PUSH1 0x20 ADD MLOAD DUP11 PUSH1 0x40 ADD MLOAD DUP12 PUSH1 0x60 ADD MLOAD DUP11 DUP14 PUSH1 0x80 ADD MLOAD PUSH1 0x0 ADD MLOAD PUSH1 0x40 MLOAD PUSH1 0x24 ADD PUSH2 0x2E84 SWAP9 SWAP8 SWAP7 SWAP6 SWAP5 SWAP4 SWAP3 SWAP2 SWAP1 PUSH2 0x49FF JUMP JUMPDEST PUSH1 0x40 MLOAD PUSH1 0x20 DUP2 DUP4 SUB SUB DUP2 MSTORE SWAP1 PUSH1 0x40 MSTORE SWAP1 PUSH28 0xFFFFFFFFFFFFFFFFFFFFFFFFFFFFFFFFFFFFFFFFFFFFFFFFFFFFFFFF NOT AND PUSH1 0x20 DUP3 ADD DUP1 MLOAD PUSH28 0xFFFFFFFFFFFFFFFFFFFFFFFFFFFFFFFFFFFFFFFFFFFFFFFFFFFFFFFF DUP4 DUP2 DUP4 AND OR DUP4 MSTORE POP POP POP POP SWAP1 POP PUSH1 0x3 PUSH1 0x0 SWAP1 SLOAD SWAP1 PUSH2 0x100 EXP SWAP1 DIV PUSH20 0xFFFFFFFFFFFFFFFFFFFFFFFFFFFFFFFFFFFFFFFF AND PUSH20 0xFFFFFFFFFFFFFFFFFFFFFFFFFFFFFFFFFFFFFFFF AND PUSH4 0x4000AEA0 DUP9 DUP8 DUP5 PUSH1 0x40 MLOAD DUP5 PUSH4 0xFFFFFFFF AND PUSH1 0xE0 SHL DUP2 MSTORE PUSH1 0x4 ADD PUSH2 0x2F42 SWAP4 SWAP3 SWAP2 SWAP1 PUSH2 0x4A84 JUMP JUMPDEST PUSH1 0x20 PUSH1 0x40 MLOAD DUP1 DUP4 SUB DUP2 PUSH1 0x0 DUP8 DUP1 EXTCODESIZE ISZERO DUP1 ISZERO PUSH2 0x2F5C JUMPI PUSH1 0x0 DUP1 REVERT JUMPDEST POP GAS CALL ISZERO DUP1 ISZERO PUSH2 0x2F70 JUMPI RETURNDATASIZE PUSH1 0x0 DUP1 RETURNDATACOPY RETURNDATASIZE PUSH1 0x0 REVERT JUMPDEST POP POP POP POP PUSH1 0x40 MLOAD RETURNDATASIZE PUSH1 0x1F NOT PUSH1 0x1F DUP3 ADD AND DUP3 ADD DUP1 PUSH1 0x40 MSTORE POP DUP2 ADD SWAP1 PUSH2 0x2F94 SWAP2 SWAP1 PUSH2 0x4AEE JUMP JUMPDEST PUSH2 0x2FD3 JUMPI PUSH1 0x40 MLOAD PUSH32 0x8C379A000000000000000000000000000000000000000000000000000000000 DUP2 MSTORE PUSH1 0x4 ADD PUSH2 0x2FCA SWAP1 PUSH2 0x4B8D JUMP JUMPDEST PUSH1 0x40 MLOAD DUP1 SWAP2 SUB SWAP1 REVERT JUMPDEST PUSH1 0x1 PUSH1 0x5 PUSH1 0x0 DUP3 DUP3 SLOAD PUSH2 0x2FE6 SWAP2 SWAP1 PUSH2 0x423C JUMP JUMPDEST SWAP3 POP POP DUP2 SWAP1 SSTORE POP POP SWAP6 SWAP5 POP POP POP POP POP JUMP JUMPDEST PUSH2 0x2FFF PUSH2 0x34D6 JUMP JUMPDEST PUSH1 0x0 PUSH1 0x20 DUP4 PUSH2 0x300E SWAP2 SWAP1 PUSH2 0x42C1 JUMP JUMPDEST EQ PUSH2 0x303A JUMPI PUSH1 0x20 DUP3 PUSH2 0x3020 SWAP2 SWAP1 PUSH2 0x42C1 JUMP JUMPDEST PUSH1 0x20 PUSH2 0x302C SWAP2 SWAP1 PUSH2 0x47B6 JUMP JUMPDEST DUP3 PUSH2 0x3037 SWAP2 SWAP1 PUSH2 0x423C JUMP JUMPDEST SWAP2 POP JUMPDEST DUP2 DUP4 PUSH1 0x20 ADD DUP2 DUP2 MSTORE POP POP PUSH1 0x40 MLOAD DUP1 DUP5 MSTORE PUSH1 0x0 DUP2 MSTORE DUP3 DUP2 ADD PUSH1 0x20 ADD PUSH1 0x40 MSTORE POP DUP3 SWAP1 POP SWAP3 SWAP2 POP POP JUMP JUMPDEST PUSH1 0x17 DUP2 GT PUSH2 0x308E JUMPI PUSH2 0x3088 DUP2 PUSH1 0x5 DUP5 PUSH1 0xFF AND SWAP1 SHL PUSH1 0xFF AND OR DUP5 PUSH2 0x31C8 SWAP1 SWAP2 SWAP1 PUSH4 0xFFFFFFFF AND JUMP JUMPDEST POP PUSH2 0x31A1 JUMP JUMPDEST PUSH1 0xFF DUP2 GT PUSH2 0x30D0 JUMPI PUSH2 0x30B3 PUSH1 0x18 PUSH1 0x5 DUP5 PUSH1 0xFF AND SWAP1 SHL OR DUP5 PUSH2 0x31C8 SWAP1 SWAP2 SWAP1 PUSH4 0xFFFFFFFF AND JUMP JUMPDEST POP PUSH2 0x30CA DUP2 PUSH1 0x1 DUP6 PUSH2 0x31E8 SWAP1 SWAP3 SWAP2 SWAP1 PUSH4 0xFFFFFFFF AND JUMP JUMPDEST POP PUSH2 0x31A0 JUMP JUMPDEST PUSH2 0xFFFF DUP2 GT PUSH2 0x3113 JUMPI PUSH2 0x30F6 PUSH1 0x19 PUSH1 0x5 DUP5 PUSH1 0xFF AND SWAP1 SHL OR DUP5 PUSH2 0x31C8 SWAP1 SWAP2 SWAP1 PUSH4 0xFFFFFFFF AND JUMP JUMPDEST POP PUSH2 0x310D DUP2 PUSH1 0x2 DUP6 PUSH2 0x31E8 SWAP1 SWAP3 SWAP2 SWAP1 PUSH4 0xFFFFFFFF AND JUMP JUMPDEST POP PUSH2 0x319F JUMP JUMPDEST PUSH4 0xFFFFFFFF DUP2 GT PUSH2 0x3158 JUMPI PUSH2 0x313B PUSH1 0x1A PUSH1 0x5 DUP5 PUSH1 0xFF AND SWAP1 SHL OR DUP5 PUSH2 0x31C8 SWAP1 SWAP2 SWAP1 PUSH4 0xFFFFFFFF AND JUMP JUMPDEST POP PUSH2 0x3152 DUP2 PUSH1 0x4 DUP6 PUSH2 0x31E8 SWAP1 SWAP3 SWAP2 SWAP1 PUSH4 0xFFFFFFFF AND JUMP JUMPDEST POP PUSH2 0x319E JUMP JUMPDEST PUSH8 0xFFFFFFFFFFFFFFFF DUP2 GT PUSH2 0x319D JUMPI PUSH2 0x3184 PUSH1 0x1B PUSH1 0x5 DUP5 PUSH1 0xFF AND SWAP1 SHL OR DUP5 PUSH2 0x31C8 SWAP1 SWAP2 SWAP1 PUSH4 0xFFFFFFFF AND JUMP JUMPDEST POP PUSH2 0x319B DUP2 PUSH1 0x8 DUP6 PUSH2 0x31E8 SWAP1 SWAP3 SWAP2 SWAP1 PUSH4 0xFFFFFFFF AND JUMP JUMPDEST POP JUMPDEST JUMPDEST JUMPDEST JUMPDEST JUMPDEST POP POP POP JUMP JUMPDEST PUSH2 0x31AE PUSH2 0x34D6 JUMP JUMPDEST PUSH2 0x31C0 DUP4 DUP5 PUSH1 0x0 ADD MLOAD MLOAD DUP5 DUP6 MLOAD PUSH2 0x320A JUMP JUMPDEST SWAP1 POP SWAP3 SWAP2 POP POP JUMP JUMPDEST PUSH2 0x31D0 PUSH2 0x34D6 JUMP JUMPDEST PUSH2 0x31E0 DUP4 DUP5 PUSH1 0x0 ADD MLOAD MLOAD DUP5 PUSH2 0x3314 JUMP JUMPDEST SWAP1 POP SWAP3 SWAP2 POP POP JUMP JUMPDEST PUSH2 0x31F0 PUSH2 0x34D6 JUMP JUMPDEST PUSH2 0x3201 DUP5 DUP6 PUSH1 0x0 ADD MLOAD MLOAD DUP6 DUP6 PUSH2 0x336B JUMP JUMPDEST SWAP1 POP SWAP4 SWAP3 POP POP POP JUMP JUMPDEST PUSH2 0x3212 PUSH2 0x34D6 JUMP JUMPDEST DUP3 MLOAD DUP3 GT ISZERO PUSH2 0x3220 JUMPI PUSH1 0x0 DUP1 REVERT JUMPDEST DUP5 PUSH1 0x20 ADD MLOAD DUP3 DUP6 PUSH2 0x3231 SWAP2 SWAP1 PUSH2 0x423C JUMP JUMPDEST GT ISZERO PUSH2 0x3266 JUMPI PUSH2 0x3265 DUP6 PUSH1 0x2 PUSH2 0x3256 DUP9 PUSH1 0x20 ADD MLOAD DUP9 DUP8 PUSH2 0x3251 SWAP2 SWAP1 PUSH2 0x423C JUMP JUMPDEST PUSH2 0x33F9 JUMP JUMPDEST PUSH2 0x3260 SWAP2 SWAP1 PUSH2 0x41E2 JUMP JUMPDEST PUSH2 0x3415 JUMP JUMPDEST JUMPDEST PUSH1 0x0 DUP1 DUP7 MLOAD DUP1 MLOAD DUP8 PUSH1 0x20 DUP4 ADD ADD SWAP4 POP DUP1 DUP9 DUP8 ADD GT ISZERO PUSH2 0x3285 JUMPI DUP8 DUP7 ADD DUP3 MSTORE JUMPDEST PUSH1 0x20 DUP8 ADD SWAP3 POP POP POP JUMPDEST PUSH1 0x20 DUP5 LT PUSH2 0x32CC JUMPI DUP1 MLOAD DUP3 MSTORE PUSH1 0x20 DUP3 PUSH2 0x32A7 SWAP2 SWAP1 PUSH2 0x423C JUMP JUMPDEST SWAP2 POP PUSH1 0x20 DUP2 PUSH2 0x32B6 SWAP2 SWAP1 PUSH2 0x423C JUMP JUMPDEST SWAP1 POP PUSH1 0x20 DUP5 PUSH2 0x32C5 SWAP2 SWAP1 PUSH2 0x47B6 JUMP JUMPDEST SWAP4 POP PUSH2 0x328E JUMP JUMPDEST PUSH1 0x0 PUSH1 0x1 DUP6 PUSH1 0x20 PUSH2 0x32DD SWAP2 SWAP1 PUSH2 0x47B6 JUMP JUMPDEST PUSH2 0x100 PUSH2 0x32EA SWAP2 SWAP1 PUSH2 0x4CE0 JUMP JUMPDEST PUSH2 0x32F4 SWAP2 SWAP1 PUSH2 0x47B6 JUMP JUMPDEST SWAP1 POP DUP1 NOT DUP3 MLOAD AND DUP2 DUP5 MLOAD AND DUP2 DUP2 OR DUP6 MSTORE POP POP DUP8 SWAP4 POP POP POP POP SWAP5 SWAP4 POP POP POP POP JUMP JUMPDEST PUSH2 0x331C PUSH2 0x34D6 JUMP JUMPDEST DUP4 PUSH1 0x20 ADD MLOAD DUP4 LT PUSH2 0x3342 JUMPI PUSH2 0x3341 DUP5 PUSH1 0x2 DUP7 PUSH1 0x20 ADD MLOAD PUSH2 0x333C SWAP2 SWAP1 PUSH2 0x41E2 JUMP JUMPDEST PUSH2 0x3415 JUMP JUMPDEST JUMPDEST DUP4 MLOAD DUP1 MLOAD PUSH1 0x20 DUP6 DUP4 ADD ADD DUP5 DUP2 MSTORE8 DUP2 DUP7 EQ ISZERO PUSH2 0x335E JUMPI PUSH1 0x1 DUP3 ADD DUP4 MSTORE JUMPDEST POP POP POP DUP4 SWAP1 POP SWAP4 SWAP3 POP POP POP JUMP JUMPDEST PUSH2 0x3373 PUSH2 0x34D6 JUMP JUMPDEST DUP5 PUSH1 0x20 ADD MLOAD DUP5 DUP4 PUSH2 0x3384 SWAP2 SWAP1 PUSH2 0x423C JUMP JUMPDEST GT ISZERO PUSH2 0x33AC JUMPI PUSH2 0x33AB DUP6 PUSH1 0x2 DUP7 DUP6 PUSH2 0x339C SWAP2 SWAP1 PUSH2 0x423C JUMP JUMPDEST PUSH2 0x33A6 SWAP2 SWAP1 PUSH2 0x41E2 JUMP JUMPDEST PUSH2 0x3415 JUMP JUMPDEST JUMPDEST PUSH1 0x0 PUSH1 0x1 DUP4 PUSH2 0x100 PUSH2 0x33BE SWAP2 SWAP1 PUSH2 0x4CE0 JUMP JUMPDEST PUSH2 0x33C8 SWAP2 SWAP1 PUSH2 0x47B6 JUMP JUMPDEST SWAP1 POP DUP6 MLOAD DUP4 DUP7 DUP3 ADD ADD DUP6 DUP4 NOT DUP3 MLOAD AND OR DUP2 MSTORE DUP2 MLOAD DUP6 DUP9 ADD GT ISZERO PUSH2 0x33EB JUMPI DUP5 DUP8 ADD DUP3 MSTORE JUMPDEST POP POP DUP6 SWAP2 POP POP SWAP5 SWAP4 POP POP POP POP JUMP JUMPDEST PUSH1 0x0 DUP2 DUP4 GT ISZERO PUSH2 0x340B JUMPI DUP3 SWAP1 POP PUSH2 0x340F JUMP JUMPDEST DUP2 SWAP1 POP JUMPDEST SWAP3 SWAP2 POP POP JUMP JUMPDEST PUSH1 0x0 DUP3 PUSH1 0x0 ADD MLOAD SWAP1 POP PUSH2 0x3428 DUP4 DUP4 PUSH2 0x2FF7 JUMP JUMPDEST POP PUSH2 0x3433 DUP4 DUP3 PUSH2 0x31A6 JUMP JUMPDEST POP POP POP POP JUMP JUMPDEST PUSH1 0x40 MLOAD DUP1 PUSH1 0x40 ADD PUSH1 0x40 MSTORE DUP1 PUSH1 0x0 DUP2 MSTORE PUSH1 0x20 ADD PUSH1 0x0 PUSH20 0xFFFFFFFFFFFFFFFFFFFFFFFFFFFFFFFFFFFFFFFF AND DUP2 MSTORE POP SWAP1 JUMP JUMPDEST PUSH1 0x40 MLOAD DUP1 PUSH1 0xA0 ADD PUSH1 0x40 MSTORE DUP1 PUSH1 0x0 DUP1 NOT AND DUP2 MSTORE PUSH1 0x20 ADD PUSH1 0x0 PUSH20 0xFFFFFFFFFFFFFFFFFFFFFFFFFFFFFFFFFFFFFFFF AND DUP2 MSTORE PUSH1 0x20 ADD PUSH1 0x0 PUSH28 0xFFFFFFFFFFFFFFFFFFFFFFFFFFFFFFFFFFFFFFFFFFFFFFFFFFFFFFFF NOT AND DUP2 MSTORE PUSH1 0x20 ADD PUSH1 0x0 DUP2 MSTORE PUSH1 0x20 ADD PUSH2 0x34D0 PUSH2 0x34D6 JUMP JUMPDEST DUP2 MSTORE POP SWAP1 JUMP JUMPDEST PUSH1 0x40 MLOAD DUP1 PUSH1 0x40 ADD PUSH1 0x40 MSTORE DUP1 PUSH1 0x60 DUP2 MSTORE PUSH1 0x20 ADD PUSH1 0x0 DUP2 MSTORE POP SWAP1 JUMP JUMPDEST PUSH1 0x0 PUSH1 0x40 MLOAD SWAP1 POP SWAP1 JUMP JUMPDEST PUSH1 0x0 DUP1 REVERT JUMPDEST PUSH1 0x0 DUP1 REVERT JUMPDEST PUSH1 0x0 DUP2 SWAP1 POP SWAP2 SWAP1 POP JUMP JUMPDEST PUSH2 0x3517 DUP2 PUSH2 0x3504 JUMP JUMPDEST DUP2 EQ PUSH2 0x3522 JUMPI PUSH1 0x0 DUP1 REVERT JUMPDEST POP JUMP JUMPDEST PUSH1 0x0 DUP2 CALLDATALOAD SWAP1 POP PUSH2 0x3534 DUP2 PUSH2 0x350E JUMP JUMPDEST SWAP3 SWAP2 POP POP JUMP JUMPDEST PUSH1 0x0 DUP1 PUSH1 0x40 DUP4 DUP6 SUB SLT ISZERO PUSH2 0x3551 JUMPI PUSH2 0x3550 PUSH2 0x34FA JUMP JUMPDEST JUMPDEST PUSH1 0x0 PUSH2 0x355F DUP6 DUP3 DUP7 ADD PUSH2 0x3525 JUMP JUMPDEST SWAP3 POP POP PUSH1 0x20 PUSH2 0x3570 DUP6 DUP3 DUP7 ADD PUSH2 0x3525 JUMP JUMPDEST SWAP2 POP POP SWAP3 POP SWAP3 SWAP1 POP JUMP JUMPDEST PUSH1 0x0 DUP1 REVERT JUMPDEST PUSH1 0x0 DUP1 REVERT JUMPDEST PUSH1 0x0 DUP1 REVERT JUMPDEST PUSH1 0x0 DUP1 DUP4 PUSH1 0x1F DUP5 ADD SLT PUSH2 0x359F JUMPI PUSH2 0x359E PUSH2 0x357A JUMP JUMPDEST JUMPDEST DUP3 CALLDATALOAD SWAP1 POP PUSH8 0xFFFFFFFFFFFFFFFF DUP2 GT ISZERO PUSH2 0x35BC JUMPI PUSH2 0x35BB PUSH2 0x357F JUMP JUMPDEST JUMPDEST PUSH1 0x20 DUP4 ADD SWAP2 POP DUP4 PUSH1 0x1 DUP3 MUL DUP4 ADD GT ISZERO PUSH2 0x35D8 JUMPI PUSH2 0x35D7 PUSH2 0x3584 JUMP JUMPDEST JUMPDEST SWAP3 POP SWAP3 SWAP1 POP JUMP JUMPDEST PUSH1 0x1 DUP2 LT PUSH2 0x35EC JUMPI PUSH1 0x0 DUP1 REVERT JUMPDEST POP JUMP JUMPDEST PUSH1 0x0 DUP2 CALLDATALOAD SWAP1 POP PUSH2 0x35FE DUP2 PUSH2 0x35DF JUMP JUMPDEST SWAP3 SWAP2 POP POP JUMP JUMPDEST PUSH1 0x0 PUSH1 0xFF DUP3 AND SWAP1 POP SWAP2 SWAP1 POP JUMP JUMPDEST PUSH2 0x361A DUP2 PUSH2 0x3604 JUMP JUMPDEST DUP2 EQ PUSH2 0x3625 JUMPI PUSH1 0x0 DUP1 REVERT JUMPDEST POP JUMP JUMPDEST PUSH1 0x0 DUP2 CALLDATALOAD SWAP1 POP PUSH2 0x3637 DUP2 PUSH2 0x3611 JUMP JUMPDEST SWAP3 SWAP2 POP POP JUMP JUMPDEST PUSH1 0x0 PUSH2 0xFFFF DUP3 AND SWAP1 POP SWAP2 SWAP1 POP JUMP JUMPDEST PUSH2 0x3654 DUP2 PUSH2 0x363D JUMP JUMPDEST DUP2 EQ PUSH2 0x365F JUMPI PUSH1 0x0 DUP1 REVERT JUMPDEST POP JUMP JUMPDEST PUSH1 0x0 DUP2 CALLDATALOAD SWAP1 POP PUSH2 0x3671 DUP2 PUSH2 0x364B JUMP JUMPDEST SWAP3 SWAP2 POP POP JUMP JUMPDEST PUSH1 0x0 DUP2 SWAP1 POP SWAP2 SWAP1 POP JUMP JUMPDEST PUSH2 0x368A DUP2 PUSH2 0x3677 JUMP JUMPDEST DUP2 EQ PUSH2 0x3695 JUMPI PUSH1 0x0 DUP1 REVERT JUMPDEST POP JUMP JUMPDEST PUSH1 0x0 DUP2 CALLDATALOAD SWAP1 POP PUSH2 0x36A7 DUP2 PUSH2 0x3681 JUMP JUMPDEST SWAP3 SWAP2 POP POP JUMP JUMPDEST PUSH1 0x0 DUP1 PUSH1 0x0 DUP1 PUSH1 0x0 DUP1 PUSH1 0xA0 DUP8 DUP10 SUB SLT ISZERO PUSH2 0x36CA JUMPI PUSH2 0x36C9 PUSH2 0x34FA JUMP JUMPDEST JUMPDEST PUSH1 0x0 DUP8 ADD CALLDATALOAD PUSH8 0xFFFFFFFFFFFFFFFF DUP2 GT ISZERO PUSH2 0x36E8 JUMPI PUSH2 0x36E7 PUSH2 0x34FF JUMP JUMPDEST JUMPDEST PUSH2 0x36F4 DUP10 DUP3 DUP11 ADD PUSH2 0x3589 JUMP JUMPDEST SWAP7 POP SWAP7 POP POP PUSH1 0x20 PUSH2 0x3707 DUP10 DUP3 DUP11 ADD PUSH2 0x35EF JUMP JUMPDEST SWAP5 POP POP PUSH1 0x40 PUSH2 0x3718 DUP10 DUP3 DUP11 ADD PUSH2 0x3628 JUMP JUMPDEST SWAP4 POP POP PUSH1 0x60 PUSH2 0x3729 DUP10 DUP3 DUP11 ADD PUSH2 0x3662 JUMP JUMPDEST SWAP3 POP POP PUSH1 0x80 PUSH2 0x373A DUP10 DUP3 DUP11 ADD PUSH2 0x3698 JUMP JUMPDEST SWAP2 POP POP SWAP3 SWAP6 POP SWAP3 SWAP6 POP SWAP3 SWAP6 JUMP JUMPDEST PUSH1 0x0 DUP1 PUSH1 0x0 PUSH1 0x40 DUP5 DUP7 SUB SLT ISZERO PUSH2 0x3760 JUMPI PUSH2 0x375F PUSH2 0x34FA JUMP JUMPDEST JUMPDEST PUSH1 0x0 DUP5 ADD CALLDATALOAD PUSH8 0xFFFFFFFFFFFFFFFF DUP2 GT ISZERO PUSH2 0x377E JUMPI PUSH2 0x377D PUSH2 0x34FF JUMP JUMPDEST JUMPDEST PUSH2 0x378A DUP7 DUP3 DUP8 ADD PUSH2 0x3589 JUMP JUMPDEST SWAP4 POP SWAP4 POP POP PUSH1 0x20 PUSH2 0x379D DUP7 DUP3 DUP8 ADD PUSH2 0x3698 JUMP JUMPDEST SWAP2 POP POP SWAP3 POP SWAP3 POP SWAP3 JUMP JUMPDEST PUSH1 0x0 PUSH20 0xFFFFFFFFFFFFFFFFFFFFFFFFFFFFFFFFFFFFFFFF DUP3 AND SWAP1 POP SWAP2 SWAP1 POP JUMP JUMPDEST PUSH1 0x0 DUP2 SWAP1 POP SWAP2 SWAP1 POP JUMP JUMPDEST PUSH1 0x0 PUSH2 0x37EC PUSH2 0x37E7 PUSH2 0x37E2 DUP5 PUSH2 0x37A7 JUMP JUMPDEST PUSH2 0x37C7 JUMP JUMPDEST PUSH2 0x37A7 JUMP JUMPDEST SWAP1 POP SWAP2 SWAP1 POP JUMP JUMPDEST PUSH1 0x0 PUSH2 0x37FE DUP3 PUSH2 0x37D1 JUMP JUMPDEST SWAP1 POP SWAP2 SWAP1 POP JUMP JUMPDEST PUSH1 0x0 PUSH2 0x3810 DUP3 PUSH2 0x37F3 JUMP JUMPDEST SWAP1 POP SWAP2 SWAP1 POP JUMP JUMPDEST PUSH2 0x3820 DUP2 PUSH2 0x3805 JUMP JUMPDEST DUP3 MSTORE POP POP JUMP JUMPDEST PUSH1 0x0 PUSH1 0x20 DUP3 ADD SWAP1 POP PUSH2 0x383B PUSH1 0x0 DUP4 ADD DUP5 PUSH2 0x3817 JUMP JUMPDEST SWAP3 SWAP2 POP POP JUMP JUMPDEST PUSH1 0x0 PUSH2 0x384C DUP3 PUSH2 0x37A7 JUMP JUMPDEST SWAP1 POP SWAP2 SWAP1 POP JUMP JUMPDEST PUSH2 0x385C DUP2 PUSH2 0x3841 JUMP JUMPDEST DUP3 MSTORE POP POP JUMP JUMPDEST PUSH1 0x0 PUSH1 0x20 DUP3 ADD SWAP1 POP PUSH2 0x3877 PUSH1 0x0 DUP4 ADD DUP5 PUSH2 0x3853 JUMP JUMPDEST SWAP3 SWAP2 POP POP JUMP JUMPDEST PUSH1 0x0 PUSH1 0x20 DUP3 DUP5 SUB SLT ISZERO PUSH2 0x3893 JUMPI PUSH2 0x3892 PUSH2 0x34FA JUMP JUMPDEST JUMPDEST PUSH1 0x0 PUSH2 0x38A1 DUP5 DUP3 DUP6 ADD PUSH2 0x3525 JUMP JUMPDEST SWAP2 POP POP SWAP3 SWAP2 POP POP JUMP JUMPDEST PUSH1 0x0 DUP2 MLOAD SWAP1 POP SWAP2 SWAP1 POP JUMP JUMPDEST PUSH1 0x0 DUP3 DUP3 MSTORE PUSH1 0x20 DUP3 ADD SWAP1 POP SWAP3 SWAP2 POP POP JUMP JUMPDEST PUSH1 0x0 JUMPDEST DUP4 DUP2 LT ISZERO PUSH2 0x38E4 JUMPI DUP1 DUP3 ADD MLOAD DUP2 DUP5 ADD MSTORE PUSH1 0x20 DUP2 ADD SWAP1 POP PUSH2 0x38C9 JUMP JUMPDEST DUP4 DUP2 GT ISZERO PUSH2 0x38F3 JUMPI PUSH1 0x0 DUP5 DUP5 ADD MSTORE JUMPDEST POP POP POP POP JUMP JUMPDEST PUSH1 0x0 PUSH1 0x1F NOT PUSH1 0x1F DUP4 ADD AND SWAP1 POP SWAP2 SWAP1 POP JUMP JUMPDEST PUSH1 0x0 PUSH2 0x3915 DUP3 PUSH2 0x38AA JUMP JUMPDEST PUSH2 0x391F DUP2 DUP6 PUSH2 0x38B5 JUMP JUMPDEST SWAP4 POP PUSH2 0x392F DUP2 DUP6 PUSH1 0x20 DUP7 ADD PUSH2 0x38C6 JUMP JUMPDEST PUSH2 0x3938 DUP2 PUSH2 0x38F9 JUMP JUMPDEST DUP5 ADD SWAP2 POP POP SWAP3 SWAP2 POP POP JUMP JUMPDEST PUSH2 0x394C DUP2 PUSH2 0x3604 JUMP JUMPDEST DUP3 MSTORE POP POP JUMP JUMPDEST PUSH1 0x0 PUSH1 0x40 DUP3 ADD SWAP1 POP DUP2 DUP2 SUB PUSH1 0x0 DUP4 ADD MSTORE PUSH2 0x396C DUP2 DUP6 PUSH2 0x390A JUMP JUMPDEST SWAP1 POP PUSH2 0x397B PUSH1 0x20 DUP4 ADD DUP5 PUSH2 0x3943 JUMP JUMPDEST SWAP4 SWAP3 POP POP POP JUMP JUMPDEST PUSH1 0x0 DUP1 REVERT JUMPDEST PUSH32 0x4E487B7100000000000000000000000000000000000000000000000000000000 PUSH1 0x0 MSTORE PUSH1 0x41 PUSH1 0x4 MSTORE PUSH1 0x24 PUSH1 0x0 REVERT JUMPDEST PUSH2 0x39BF DUP3 PUSH2 0x38F9 JUMP JUMPDEST DUP2 ADD DUP2 DUP2 LT PUSH8 0xFFFFFFFFFFFFFFFF DUP3 GT OR ISZERO PUSH2 0x39DE JUMPI PUSH2 0x39DD PUSH2 0x3987 JUMP JUMPDEST JUMPDEST DUP1 PUSH1 0x40 MSTORE POP POP POP JUMP JUMPDEST PUSH1 0x0 PUSH2 0x39F1 PUSH2 0x34F0 JUMP JUMPDEST SWAP1 POP PUSH2 0x39FD DUP3 DUP3 PUSH2 0x39B6 JUMP JUMPDEST SWAP2 SWAP1 POP JUMP JUMPDEST PUSH1 0x0 PUSH8 0xFFFFFFFFFFFFFFFF DUP3 GT ISZERO PUSH2 0x3A1D JUMPI PUSH2 0x3A1C PUSH2 0x3987 JUMP JUMPDEST JUMPDEST PUSH2 0x3A26 DUP3 PUSH2 0x38F9 JUMP JUMPDEST SWAP1 POP PUSH1 0x20 DUP2 ADD SWAP1 POP SWAP2 SWAP1 POP JUMP JUMPDEST DUP3 DUP2 DUP4 CALLDATACOPY PUSH1 0x0 DUP4 DUP4 ADD MSTORE POP POP POP JUMP JUMPDEST PUSH1 0x0 PUSH2 0x3A55 PUSH2 0x3A50 DUP5 PUSH2 0x3A02 JUMP JUMPDEST PUSH2 0x39E7 JUMP JUMPDEST SWAP1 POP DUP3 DUP2 MSTORE PUSH1 0x20 DUP2 ADD DUP5 DUP5 DUP5 ADD GT ISZERO PUSH2 0x3A71 JUMPI PUSH2 0x3A70 PUSH2 0x3982 JUMP JUMPDEST JUMPDEST PUSH2 0x3A7C DUP5 DUP3 DUP6 PUSH2 0x3A33 JUMP JUMPDEST POP SWAP4 SWAP3 POP POP POP JUMP JUMPDEST PUSH1 0x0 DUP3 PUSH1 0x1F DUP4 ADD SLT PUSH2 0x3A99 JUMPI PUSH2 0x3A98 PUSH2 0x357A JUMP JUMPDEST JUMPDEST DUP2 CALLDATALOAD PUSH2 0x3AA9 DUP5 DUP3 PUSH1 0x20 DUP7 ADD PUSH2 0x3A42 JUMP JUMPDEST SWAP2 POP POP SWAP3 SWAP2 POP POP JUMP JUMPDEST PUSH1 0x0 PUSH1 0x20 DUP3 DUP5 SUB SLT ISZERO PUSH2 0x3AC8 JUMPI PUSH2 0x3AC7 PUSH2 0x34FA JUMP JUMPDEST JUMPDEST PUSH1 0x0 DUP3 ADD CALLDATALOAD PUSH8 0xFFFFFFFFFFFFFFFF DUP2 GT ISZERO PUSH2 0x3AE6 JUMPI PUSH2 0x3AE5 PUSH2 0x34FF JUMP JUMPDEST JUMPDEST PUSH2 0x3AF2 DUP5 DUP3 DUP6 ADD PUSH2 0x3A84 JUMP JUMPDEST SWAP2 POP POP SWAP3 SWAP2 POP POP JUMP JUMPDEST PUSH2 0x3B04 DUP2 PUSH2 0x3504 JUMP JUMPDEST DUP3 MSTORE POP POP JUMP JUMPDEST PUSH1 0x0 PUSH1 0x20 DUP3 ADD SWAP1 POP PUSH2 0x3B1F PUSH1 0x0 DUP4 ADD DUP5 PUSH2 0x3AFB JUMP JUMPDEST SWAP3 SWAP2 POP POP JUMP JUMPDEST PUSH1 0x2 DUP2 LT PUSH2 0x3B32 JUMPI PUSH1 0x0 DUP1 REVERT JUMPDEST POP JUMP JUMPDEST PUSH1 0x0 DUP2 CALLDATALOAD SWAP1 POP PUSH2 0x3B44 DUP2 PUSH2 0x3B25 JUMP JUMPDEST SWAP3 SWAP2 POP POP JUMP JUMPDEST PUSH1 0x0 DUP1 PUSH1 0x0 DUP1 PUSH1 0x0 DUP1 PUSH1 0x0 PUSH1 0xC0 DUP9 DUP11 SUB SLT ISZERO PUSH2 0x3B69 JUMPI PUSH2 0x3B68 PUSH2 0x34FA JUMP JUMPDEST JUMPDEST PUSH1 0x0 DUP9 ADD CALLDATALOAD PUSH8 0xFFFFFFFFFFFFFFFF DUP2 GT ISZERO PUSH2 0x3B87 JUMPI PUSH2 0x3B86 PUSH2 0x34FF JUMP JUMPDEST JUMPDEST PUSH2 0x3B93 DUP11 DUP3 DUP12 ADD PUSH2 0x3589 JUMP JUMPDEST SWAP8 POP SWAP8 POP POP PUSH1 0x20 PUSH2 0x3BA6 DUP11 DUP3 DUP12 ADD PUSH2 0x3B35 JUMP JUMPDEST SWAP6 POP POP PUSH1 0x40 PUSH2 0x3BB7 DUP11 DUP3 DUP12 ADD PUSH2 0x35EF JUMP JUMPDEST SWAP5 POP POP PUSH1 0x60 PUSH2 0x3BC8 DUP11 DUP3 DUP12 ADD PUSH2 0x3628 JUMP JUMPDEST SWAP4 POP POP PUSH1 0x80 PUSH2 0x3BD9 DUP11 DUP3 DUP12 ADD PUSH2 0x3662 JUMP JUMPDEST SWAP3 POP POP PUSH1 0xA0 PUSH2 0x3BEA DUP11 DUP3 DUP12 ADD PUSH2 0x3698 JUMP JUMPDEST SWAP2 POP POP SWAP3 SWAP6 SWAP9 SWAP2 SWAP5 SWAP8 POP SWAP3 SWAP6 POP JUMP JUMPDEST PUSH1 0x0 DUP1 PUSH1 0x0 DUP1 PUSH1 0x0 DUP1 PUSH1 0x0 DUP1 PUSH1 0xC0 DUP10 DUP12 SUB SLT ISZERO PUSH2 0x3C19 JUMPI PUSH2 0x3C18 PUSH2 0x34FA JUMP JUMPDEST JUMPDEST PUSH1 0x0 DUP10 ADD CALLDATALOAD PUSH8 0xFFFFFFFFFFFFFFFF DUP2 GT ISZERO PUSH2 0x3C37 JUMPI PUSH2 0x3C36 PUSH2 0x34FF JUMP JUMPDEST JUMPDEST PUSH2 0x3C43 DUP12 DUP3 DUP13 ADD PUSH2 0x3589 JUMP JUMPDEST SWAP9 POP SWAP9 POP POP PUSH1 0x20 PUSH2 0x3C56 DUP12 DUP3 DUP13 ADD PUSH2 0x3B35 JUMP JUMPDEST SWAP7 POP POP PUSH1 0x40 PUSH2 0x3C67 DUP12 DUP3 DUP13 ADD PUSH2 0x35EF JUMP JUMPDEST SWAP6 POP POP PUSH1 0x60 PUSH2 0x3C78 DUP12 DUP3 DUP13 ADD PUSH2 0x3628 JUMP JUMPDEST SWAP5 POP POP PUSH1 0x80 PUSH2 0x3C89 DUP12 DUP3 DUP13 ADD PUSH2 0x3662 JUMP JUMPDEST SWAP4 POP POP PUSH1 0xA0 DUP10 ADD CALLDATALOAD PUSH8 0xFFFFFFFFFFFFFFFF DUP2 GT ISZERO PUSH2 0x3CAA JUMPI PUSH2 0x3CA9 PUSH2 0x34FF JUMP JUMPDEST JUMPDEST PUSH2 0x3CB6 DUP12 DUP3 DUP13 ADD PUSH2 0x3589 JUMP JUMPDEST SWAP3 POP SWAP3 POP POP SWAP3 SWAP6 SWAP9 POP SWAP3 SWAP6 SWAP9 SWAP1 SWAP4 SWAP7 POP JUMP JUMPDEST PUSH2 0x3CD1 DUP2 PUSH2 0x3677 JUMP JUMPDEST DUP3 MSTORE POP POP JUMP JUMPDEST PUSH1 0x0 PUSH1 0x20 DUP3 ADD SWAP1 POP PUSH2 0x3CEC PUSH1 0x0 DUP4 ADD DUP5 PUSH2 0x3CC8 JUMP JUMPDEST SWAP3 SWAP2 POP POP JUMP JUMPDEST PUSH2 0x3CFB DUP2 PUSH2 0x3841 JUMP JUMPDEST DUP2 EQ PUSH2 0x3D06 JUMPI PUSH1 0x0 DUP1 REVERT JUMPDEST POP JUMP JUMPDEST PUSH1 0x0 DUP2 CALLDATALOAD SWAP1 POP PUSH2 0x3D18 DUP2 PUSH2 0x3CF2 JUMP JUMPDEST SWAP3 SWAP2 POP POP JUMP JUMPDEST PUSH1 0x0 PUSH1 0x20 DUP3 DUP5 SUB SLT ISZERO PUSH2 0x3D34 JUMPI PUSH2 0x3D33 PUSH2 0x34FA JUMP JUMPDEST JUMPDEST PUSH1 0x0 PUSH2 0x3D42 DUP5 DUP3 DUP6 ADD PUSH2 0x3D09 JUMP JUMPDEST SWAP2 POP POP SWAP3 SWAP2 POP POP JUMP JUMPDEST PUSH1 0x0 DUP1 PUSH1 0x0 PUSH1 0x60 DUP5 DUP7 SUB SLT ISZERO PUSH2 0x3D64 JUMPI PUSH2 0x3D63 PUSH2 0x34FA JUMP JUMPDEST JUMPDEST PUSH1 0x0 DUP5 ADD CALLDATALOAD PUSH8 0xFFFFFFFFFFFFFFFF DUP2 GT ISZERO PUSH2 0x3D82 JUMPI PUSH2 0x3D81 PUSH2 0x34FF JUMP JUMPDEST JUMPDEST PUSH2 0x3D8E DUP7 DUP3 DUP8 ADD PUSH2 0x3A84 JUMP JUMPDEST SWAP4 POP POP PUSH1 0x20 PUSH2 0x3D9F DUP7 DUP3 DUP8 ADD PUSH2 0x3B35 JUMP JUMPDEST SWAP3 POP POP PUSH1 0x40 PUSH2 0x3DB0 DUP7 DUP3 DUP8 ADD PUSH2 0x3628 JUMP JUMPDEST SWAP2 POP POP SWAP3 POP SWAP3 POP SWAP3 JUMP JUMPDEST PUSH1 0x0 DUP2 ISZERO ISZERO SWAP1 POP SWAP2 SWAP1 POP JUMP JUMPDEST PUSH2 0x3DCF DUP2 PUSH2 0x3DBA JUMP JUMPDEST DUP3 MSTORE POP POP JUMP JUMPDEST PUSH1 0x0 PUSH1 0x20 DUP3 ADD SWAP1 POP PUSH2 0x3DEA PUSH1 0x0 DUP4 ADD DUP5 PUSH2 0x3DC6 JUMP JUMPDEST SWAP3 SWAP2 POP POP JUMP JUMPDEST PUSH32 0x536F75726365206D75737420626520746865206F7261636C65206F6620746865 PUSH1 0x0 DUP3 ADD MSTORE PUSH32 0x2072657175657374000000000000000000000000000000000000000000000000 PUSH1 0x20 DUP3 ADD MSTORE POP JUMP JUMPDEST PUSH1 0x0 PUSH2 0x3E4C PUSH1 0x28 DUP4 PUSH2 0x38B5 JUMP JUMPDEST SWAP2 POP PUSH2 0x3E57 DUP3 PUSH2 0x3DF0 JUMP JUMPDEST PUSH1 0x40 DUP3 ADD SWAP1 POP SWAP2 SWAP1 POP JUMP JUMPDEST PUSH1 0x0 PUSH1 0x20 DUP3 ADD SWAP1 POP DUP2 DUP2 SUB PUSH1 0x0 DUP4 ADD MSTORE PUSH2 0x3E7B DUP2 PUSH2 0x3E3F JUMP JUMPDEST SWAP1 POP SWAP2 SWAP1 POP JUMP JUMPDEST PUSH1 0x0 DUP2 SWAP1 POP SWAP3 SWAP2 POP POP JUMP JUMPDEST PUSH1 0x0 PUSH2 0x3E98 DUP3 PUSH2 0x38AA JUMP JUMPDEST PUSH2 0x3EA2 DUP2 DUP6 PUSH2 0x3E82 JUMP JUMPDEST SWAP4 POP PUSH2 0x3EB2 DUP2 DUP6 PUSH1 0x20 DUP7 ADD PUSH2 0x38C6 JUMP JUMPDEST DUP1 DUP5 ADD SWAP2 POP POP SWAP3 SWAP2 POP POP JUMP JUMPDEST PUSH1 0x0 PUSH2 0x3ECA DUP3 DUP5 PUSH2 0x3E8D JUMP JUMPDEST SWAP2 POP DUP2 SWAP1 POP SWAP3 SWAP2 POP POP JUMP JUMPDEST PUSH32 0x4E487B7100000000000000000000000000000000000000000000000000000000 PUSH1 0x0 MSTORE PUSH1 0x21 PUSH1 0x4 MSTORE PUSH1 0x24 PUSH1 0x0 REVERT JUMPDEST PUSH1 0x0 PUSH2 0x3F10 DUP4 DUP6 PUSH2 0x3E82 JUMP JUMPDEST SWAP4 POP PUSH2 0x3F1D DUP4 DUP6 DUP5 PUSH2 0x3A33 JUMP JUMPDEST DUP3 DUP5 ADD SWAP1 POP SWAP4 SWAP3 POP POP POP JUMP JUMPDEST PUSH1 0x0 PUSH2 0x3F36 DUP3 DUP5 DUP7 PUSH2 0x3F04 JUMP JUMPDEST SWAP2 POP DUP2 SWAP1 POP SWAP4 SWAP3 POP POP POP JUMP JUMPDEST PUSH1 0x0 PUSH2 0x3F4E DUP4 DUP6 PUSH2 0x38B5 JUMP JUMPDEST SWAP4 POP PUSH2 0x3F5B DUP4 DUP6 DUP5 PUSH2 0x3A33 JUMP JUMPDEST PUSH2 0x3F64 DUP4 PUSH2 0x38F9 JUMP JUMPDEST DUP5 ADD SWAP1 POP SWAP4 SWAP3 POP POP POP JUMP JUMPDEST PUSH1 0x0 PUSH1 0x20 DUP3 ADD SWAP1 POP DUP2 DUP2 SUB PUSH1 0x0 DUP4 ADD MSTORE PUSH2 0x3F8A DUP2 DUP5 DUP7 PUSH2 0x3F42 JUMP JUMPDEST SWAP1 POP SWAP4 SWAP3 POP POP POP JUMP JUMPDEST PUSH32 0x416D6F756E7420616E642073656E642076616C756520617265206E6F74206571 PUSH1 0x0 DUP3 ADD MSTORE PUSH32 0x75616C2100000000000000000000000000000000000000000000000000000000 PUSH1 0x20 DUP3 ADD MSTORE POP JUMP JUMPDEST PUSH1 0x0 PUSH2 0x3FEF PUSH1 0x24 DUP4 PUSH2 0x38B5 JUMP JUMPDEST SWAP2 POP PUSH2 0x3FFA DUP3 PUSH2 0x3F93 JUMP JUMPDEST PUSH1 0x40 DUP3 ADD SWAP1 POP SWAP2 SWAP1 POP JUMP JUMPDEST PUSH1 0x0 PUSH1 0x20 DUP3 ADD SWAP1 POP DUP2 DUP2 SUB PUSH1 0x0 DUP4 ADD MSTORE PUSH2 0x401E DUP2 PUSH2 0x3FE2 JUMP JUMPDEST SWAP1 POP SWAP2 SWAP1 POP JUMP JUMPDEST PUSH1 0x0 PUSH1 0x40 DUP3 ADD SWAP1 POP PUSH2 0x403A PUSH1 0x0 DUP4 ADD DUP6 PUSH2 0x3853 JUMP JUMPDEST PUSH2 0x4047 PUSH1 0x20 DUP4 ADD DUP5 PUSH2 0x3CC8 JUMP JUMPDEST SWAP4 SWAP3 POP POP POP JUMP JUMPDEST PUSH32 0x426574206C6F7374000000000000000000000000000000000000000000000000 PUSH1 0x0 DUP3 ADD MSTORE POP JUMP JUMPDEST PUSH1 0x0 PUSH2 0x4084 PUSH1 0x8 DUP4 PUSH2 0x38B5 JUMP JUMPDEST SWAP2 POP PUSH2 0x408F DUP3 PUSH2 0x404E JUMP JUMPDEST PUSH1 0x20 DUP3 ADD SWAP1 POP SWAP2 SWAP1 POP JUMP JUMPDEST PUSH1 0x0 PUSH1 0x20 DUP3 ADD SWAP1 POP DUP2 DUP2 SUB PUSH1 0x0 DUP4 ADD MSTORE PUSH2 0x40B3 DUP2 PUSH2 0x4077 JUMP JUMPDEST SWAP1 POP SWAP2 SWAP1 POP JUMP JUMPDEST PUSH32 0x4F776E61626C653A2063616C6C6572206973206E6F7420746865206F776E6572 PUSH1 0x0 DUP3 ADD MSTORE POP JUMP JUMPDEST PUSH1 0x0 PUSH2 0x40F0 PUSH1 0x20 DUP4 PUSH2 0x38B5 JUMP JUMPDEST SWAP2 POP PUSH2 0x40FB DUP3 PUSH2 0x40BA JUMP JUMPDEST PUSH1 0x20 DUP3 ADD SWAP1 POP SWAP2 SWAP1 POP JUMP JUMPDEST PUSH1 0x0 PUSH1 0x20 DUP3 ADD SWAP1 POP DUP2 DUP2 SUB PUSH1 0x0 DUP4 ADD MSTORE PUSH2 0x411F DUP2 PUSH2 0x40E3 JUMP JUMPDEST SWAP1 POP SWAP2 SWAP1 POP JUMP JUMPDEST PUSH32 0x4E487B7100000000000000000000000000000000000000000000000000000000 PUSH1 0x0 MSTORE PUSH1 0x32 PUSH1 0x4 MSTORE PUSH1 0x24 PUSH1 0x0 REVERT JUMPDEST PUSH32 0x4E487B7100000000000000000000000000000000000000000000000000000000 PUSH1 0x0 MSTORE PUSH1 0x11 PUSH1 0x4 MSTORE PUSH1 0x24 PUSH1 0x0 REVERT JUMPDEST PUSH1 0x0 PUSH2 0x418F DUP3 PUSH2 0x3604 JUMP JUMPDEST SWAP2 POP PUSH1 0xFF DUP3 EQ ISZERO PUSH2 0x41A3 JUMPI PUSH2 0x41A2 PUSH2 0x4155 JUMP JUMPDEST JUMPDEST PUSH1 0x1 DUP3 ADD SWAP1 POP SWAP2 SWAP1 POP JUMP JUMPDEST PUSH1 0x0 PUSH2 0x41B9 DUP3 PUSH2 0x3604 JUMP JUMPDEST SWAP2 POP PUSH2 0x41C4 DUP4 PUSH2 0x3604 JUMP JUMPDEST SWAP3 POP DUP3 DUP3 LT ISZERO PUSH2 0x41D7 JUMPI PUSH2 0x41D6 PUSH2 0x4155 JUMP JUMPDEST JUMPDEST DUP3 DUP3 SUB SWAP1 POP SWAP3 SWAP2 POP POP JUMP JUMPDEST PUSH1 0x0 PUSH2 0x41ED DUP3 PUSH2 0x3677 JUMP JUMPDEST SWAP2 POP PUSH2 0x41F8 DUP4 PUSH2 0x3677 JUMP JUMPDEST SWAP3 POP DUP2 PUSH32 0xFFFFFFFFFFFFFFFFFFFFFFFFFFFFFFFFFFFFFFFFFFFFFFFFFFFFFFFFFFFFFFFF DIV DUP4 GT DUP3 ISZERO ISZERO AND ISZERO PUSH2 0x4231 JUMPI PUSH2 0x4230 PUSH2 0x4155 JUMP JUMPDEST JUMPDEST DUP3 DUP3 MUL SWAP1 POP SWAP3 SWAP2 POP POP JUMP JUMPDEST PUSH1 0x0 PUSH2 0x4247 DUP3 PUSH2 0x3677 JUMP JUMPDEST SWAP2 POP PUSH2 0x4252 DUP4 PUSH2 0x3677 JUMP JUMPDEST SWAP3 POP DUP3 PUSH32 0xFFFFFFFFFFFFFFFFFFFFFFFFFFFFFFFFFFFFFFFFFFFFFFFFFFFFFFFFFFFFFFFF SUB DUP3 GT ISZERO PUSH2 0x4287 JUMPI PUSH2 0x4286 PUSH2 0x4155 JUMP JUMPDEST JUMPDEST DUP3 DUP3 ADD SWAP1 POP SWAP3 SWAP2 POP POP JUMP JUMPDEST PUSH32 0x4E487B7100000000000000000000000000000000000000000000000000000000 PUSH1 0x0 MSTORE PUSH1 0x12 PUSH1 0x4 MSTORE PUSH1 0x24 PUSH1 0x0 REVERT JUMPDEST PUSH1 0x0 PUSH2 0x42CC DUP3 PUSH2 0x3677 JUMP JUMPDEST SWAP2 POP PUSH2 0x42D7 DUP4 PUSH2 0x3677 JUMP JUMPDEST SWAP3 POP DUP3 PUSH2 0x42E7 JUMPI PUSH2 0x42E6 PUSH2 0x4292 JUMP JUMPDEST JUMPDEST DUP3 DUP3 MOD SWAP1 POP SWAP3 SWAP2 POP POP JUMP JUMPDEST PUSH1 0x2 DUP2 LT PUSH2 0x4303 JUMPI PUSH2 0x4302 PUSH2 0x3ED5 JUMP JUMPDEST JUMPDEST POP JUMP JUMPDEST PUSH1 0x0 DUP2 SWAP1 POP PUSH2 0x4314 DUP3 PUSH2 0x42F2 JUMP JUMPDEST SWAP2 SWAP1 POP JUMP JUMPDEST PUSH1 0x0 PUSH2 0x4324 DUP3 PUSH2 0x4306 JUMP JUMPDEST SWAP1 POP SWAP2 SWAP1 POP JUMP JUMPDEST PUSH2 0x4334 DUP2 PUSH2 0x4319 JUMP JUMPDEST DUP3 MSTORE POP POP JUMP JUMPDEST PUSH1 0x1 DUP2 LT PUSH2 0x434B JUMPI PUSH2 0x434A PUSH2 0x3ED5 JUMP JUMPDEST JUMPDEST POP JUMP JUMPDEST PUSH1 0x0 DUP2 SWAP1 POP PUSH2 0x435C DUP3 PUSH2 0x433A JUMP JUMPDEST SWAP2 SWAP1 POP JUMP JUMPDEST PUSH1 0x0 PUSH2 0x436C DUP3 PUSH2 0x434E JUMP JUMPDEST SWAP1 POP SWAP2 SWAP1 POP JUMP JUMPDEST PUSH2 0x437C DUP2 PUSH2 0x4361 JUMP JUMPDEST DUP3 MSTORE POP POP JUMP JUMPDEST PUSH2 0x438B DUP2 PUSH2 0x363D JUMP JUMPDEST DUP3 MSTORE POP POP JUMP JUMPDEST PUSH1 0x0 PUSH1 0xE0 DUP3 ADD SWAP1 POP DUP2 DUP2 SUB PUSH1 0x0 DUP4 ADD MSTORE PUSH2 0x43AC DUP2 DUP11 DUP13 PUSH2 0x3F42 JUMP JUMPDEST SWAP1 POP PUSH2 0x43BB PUSH1 0x20 DUP4 ADD DUP10 PUSH2 0x432B JUMP JUMPDEST PUSH2 0x43C8 PUSH1 0x40 DUP4 ADD DUP9 PUSH2 0x4373 JUMP JUMPDEST PUSH2 0x43D5 PUSH1 0x60 DUP4 ADD DUP8 PUSH2 0x3943 JUMP JUMPDEST PUSH2 0x43E2 PUSH1 0x80 DUP4 ADD DUP7 PUSH2 0x4382 JUMP JUMPDEST PUSH2 0x43EF PUSH1 0xA0 DUP4 ADD DUP6 PUSH2 0x3CC8 JUMP JUMPDEST PUSH2 0x43FC PUSH1 0xC0 DUP4 ADD DUP5 PUSH2 0x3853 JUMP JUMPDEST SWAP10 SWAP9 POP POP POP POP POP POP POP POP POP JUMP JUMPDEST PUSH1 0x0 PUSH2 0x4414 DUP3 PUSH2 0x3677 JUMP JUMPDEST SWAP2 POP PUSH32 0xFFFFFFFFFFFFFFFFFFFFFFFFFFFFFFFFFFFFFFFFFFFFFFFFFFFFFFFFFFFFFFFF DUP3 EQ ISZERO PUSH2 0x4447 JUMPI PUSH2 0x4446 PUSH2 0x4155 JUMP JUMPDEST JUMPDEST PUSH1 0x1 DUP3 ADD SWAP1 POP SWAP2 SWAP1 POP JUMP JUMPDEST PUSH32 0x4E6F204265740000000000000000000000000000000000000000000000000000 PUSH1 0x0 DUP3 ADD MSTORE POP JUMP JUMPDEST PUSH1 0x0 PUSH2 0x4488 PUSH1 0x6 DUP4 PUSH2 0x38B5 JUMP JUMPDEST SWAP2 POP PUSH2 0x4493 DUP3 PUSH2 0x4452 JUMP JUMPDEST PUSH1 0x20 DUP3 ADD SWAP1 POP SWAP2 SWAP1 POP JUMP JUMPDEST PUSH1 0x0 PUSH1 0x20 DUP3 ADD SWAP1 POP DUP2 DUP2 SUB PUSH1 0x0 DUP4 ADD MSTORE PUSH2 0x44B7 DUP2 PUSH2 0x447B JUMP JUMPDEST SWAP1 POP SWAP2 SWAP1 POP JUMP JUMPDEST PUSH32 0x4E6F204D61746368656420426574000000000000000000000000000000000000 PUSH1 0x0 DUP3 ADD MSTORE POP JUMP JUMPDEST PUSH1 0x0 PUSH2 0x44F4 PUSH1 0xE DUP4 PUSH2 0x38B5 JUMP JUMPDEST SWAP2 POP PUSH2 0x44FF DUP3 PUSH2 0x44BE JUMP JUMPDEST PUSH1 0x20 DUP3 ADD SWAP1 POP SWAP2 SWAP1 POP JUMP JUMPDEST PUSH1 0x0 PUSH1 0x20 DUP3 ADD SWAP1 POP DUP2 DUP2 SUB PUSH1 0x0 DUP4 ADD MSTORE PUSH2 0x4523 DUP2 PUSH2 0x44E7 JUMP JUMPDEST SWAP1 POP SWAP2 SWAP1 POP JUMP JUMPDEST PUSH1 0x0 PUSH1 0xA0 DUP3 ADD SWAP1 POP PUSH2 0x453F PUSH1 0x0 DUP4 ADD DUP11 PUSH2 0x3853 JUMP JUMPDEST PUSH2 0x454C PUSH1 0x20 DUP4 ADD DUP10 PUSH2 0x3CC8 JUMP JUMPDEST DUP2 DUP2 SUB PUSH1 0x40 DUP4 ADD MSTORE PUSH2 0x455F DUP2 DUP8 DUP10 PUSH2 0x3F42 JUMP JUMPDEST SWAP1 POP PUSH2 0x456E PUSH1 0x60 DUP4 ADD DUP7 PUSH2 0x3CC8 JUMP JUMPDEST DUP2 DUP2 SUB PUSH1 0x80 DUP4 ADD MSTORE PUSH2 0x4581 DUP2 DUP5 DUP7 PUSH2 0x3F42 JUMP JUMPDEST SWAP1 POP SWAP9 SWAP8 POP POP POP POP POP POP POP POP JUMP JUMPDEST PUSH1 0x0 PUSH1 0x40 DUP3 ADD SWAP1 POP DUP2 DUP2 SUB PUSH1 0x0 DUP4 ADD MSTORE PUSH2 0x45AA DUP2 DUP6 DUP8 PUSH2 0x3F42 JUMP JUMPDEST SWAP1 POP PUSH2 0x45B9 PUSH1 0x20 DUP4 ADD DUP5 PUSH2 0x3CC8 JUMP JUMPDEST SWAP5 SWAP4 POP POP POP POP JUMP JUMPDEST PUSH1 0x0 PUSH2 0x45CC DUP3 PUSH2 0x363D JUMP JUMPDEST SWAP2 POP PUSH2 0x45D7 DUP4 PUSH2 0x363D JUMP JUMPDEST SWAP3 POP DUP3 DUP3 LT ISZERO PUSH2 0x45EA JUMPI PUSH2 0x45E9 PUSH2 0x4155 JUMP JUMPDEST JUMPDEST DUP3 DUP3 SUB SWAP1 POP SWAP3 SWAP2 POP POP JUMP JUMPDEST PUSH1 0x0 PUSH2 0x4600 DUP3 PUSH2 0x3677 JUMP JUMPDEST SWAP2 POP PUSH2 0x460B DUP4 PUSH2 0x3677 JUMP JUMPDEST SWAP3 POP DUP3 PUSH2 0x461B JUMPI PUSH2 0x461A PUSH2 0x4292 JUMP JUMPDEST JUMPDEST DUP3 DUP3 DIV SWAP1 POP SWAP3 SWAP2 POP POP JUMP JUMPDEST PUSH32 0x4C6971696469747920616E642073656E642076616C756520617265206E6F7420 PUSH1 0x0 DUP3 ADD MSTORE PUSH32 0x657175616C210000000000000000000000000000000000000000000000000000 PUSH1 0x20 DUP3 ADD MSTORE POP JUMP JUMPDEST PUSH1 0x0 PUSH2 0x4682 PUSH1 0x26 DUP4 PUSH2 0x38B5 JUMP JUMPDEST SWAP2 POP PUSH2 0x468D DUP3 PUSH2 0x4626 JUMP JUMPDEST PUSH1 0x40 DUP3 ADD SWAP1 POP SWAP2 SWAP1 POP JUMP JUMPDEST PUSH1 0x0 PUSH1 0x20 DUP3 ADD SWAP1 POP DUP2 DUP2 SUB PUSH1 0x0 DUP4 ADD MSTORE PUSH2 0x46B1 DUP2 PUSH2 0x4675 JUMP JUMPDEST SWAP1 POP SWAP2 SWAP1 POP JUMP JUMPDEST PUSH32 0x4F776E61626C653A206E6577206F776E657220697320746865207A65726F2061 PUSH1 0x0 DUP3 ADD MSTORE PUSH32 0x6464726573730000000000000000000000000000000000000000000000000000 PUSH1 0x20 DUP3 ADD MSTORE POP JUMP JUMPDEST PUSH1 0x0 PUSH2 0x4714 PUSH1 0x26 DUP4 PUSH2 0x38B5 JUMP JUMPDEST SWAP2 POP PUSH2 0x471F DUP3 PUSH2 0x46B8 JUMP JUMPDEST PUSH1 0x40 DUP3 ADD SWAP1 POP SWAP2 SWAP1 POP JUMP JUMPDEST PUSH1 0x0 PUSH1 0x20 DUP3 ADD SWAP1 POP DUP2 DUP2 SUB PUSH1 0x0 DUP4 ADD MSTORE PUSH2 0x4743 DUP2 PUSH2 0x4707 JUMP JUMPDEST SWAP1 POP SWAP2 SWAP1 POP JUMP JUMPDEST PUSH32 0x4E6F20726573756C740000000000000000000000000000000000000000000000 PUSH1 0x0 DUP3 ADD MSTORE POP JUMP JUMPDEST PUSH1 0x0 PUSH2 0x4780 PUSH1 0x9 DUP4 PUSH2 0x38B5 JUMP JUMPDEST SWAP2 POP PUSH2 0x478B DUP3 PUSH2 0x474A JUMP JUMPDEST PUSH1 0x20 DUP3 ADD SWAP1 POP SWAP2 SWAP1 POP JUMP JUMPDEST PUSH1 0x0 PUSH1 0x20 DUP3 ADD SWAP1 POP DUP2 DUP2 SUB PUSH1 0x0 DUP4 ADD MSTORE PUSH2 0x47AF DUP2 PUSH2 0x4773 JUMP JUMPDEST SWAP1 POP SWAP2 SWAP1 POP JUMP JUMPDEST PUSH1 0x0 PUSH2 0x47C1 DUP3 PUSH2 0x3677 JUMP JUMPDEST SWAP2 POP PUSH2 0x47CC DUP4 PUSH2 0x3677 JUMP JUMPDEST SWAP3 POP DUP3 DUP3 LT ISZERO PUSH2 0x47DF JUMPI PUSH2 0x47DE PUSH2 0x4155 JUMP JUMPDEST JUMPDEST DUP3 DUP3 SUB SWAP1 POP SWAP3 SWAP2 POP POP JUMP JUMPDEST PUSH1 0x0 PUSH1 0xE0 DUP3 ADD SWAP1 POP DUP2 DUP2 SUB PUSH1 0x0 DUP4 ADD MSTORE PUSH2 0x4804 DUP2 DUP11 PUSH2 0x390A JUMP JUMPDEST SWAP1 POP PUSH2 0x4813 PUSH1 0x20 DUP4 ADD DUP10 PUSH2 0x432B JUMP JUMPDEST PUSH2 0x4820 PUSH1 0x40 DUP4 ADD DUP9 PUSH2 0x4373 JUMP JUMPDEST PUSH2 0x482D PUSH1 0x60 DUP4 ADD DUP8 PUSH2 0x3943 JUMP JUMPDEST PUSH2 0x483A PUSH1 0x80 DUP4 ADD DUP7 PUSH2 0x4382 JUMP JUMPDEST PUSH2 0x4847 PUSH1 0xA0 DUP4 ADD DUP6 PUSH2 0x3CC8 JUMP JUMPDEST PUSH2 0x4854 PUSH1 0xC0 DUP4 ADD DUP5 PUSH2 0x3853 JUMP JUMPDEST SWAP9 SWAP8 POP POP POP POP POP POP POP POP JUMP JUMPDEST PUSH1 0x0 PUSH1 0xC0 DUP3 ADD SWAP1 POP DUP2 DUP2 SUB PUSH1 0x0 DUP4 ADD MSTORE PUSH2 0x487A DUP2 DUP10 PUSH2 0x390A JUMP JUMPDEST SWAP1 POP PUSH2 0x4889 PUSH1 0x20 DUP4 ADD DUP9 PUSH2 0x3853 JUMP JUMPDEST PUSH2 0x4896 PUSH1 0x40 DUP4 ADD DUP8 PUSH2 0x432B JUMP JUMPDEST PUSH2 0x48A3 PUSH1 0x60 DUP4 ADD DUP7 PUSH2 0x4373 JUMP JUMPDEST PUSH2 0x48B0 PUSH1 0x80 DUP4 ADD DUP6 PUSH2 0x3943 JUMP JUMPDEST PUSH2 0x48BD PUSH1 0xA0 DUP4 ADD DUP5 PUSH2 0x4382 JUMP JUMPDEST SWAP8 SWAP7 POP POP POP POP POP POP POP JUMP JUMPDEST PUSH1 0x0 PUSH2 0x48D3 DUP3 PUSH2 0x37F3 JUMP JUMPDEST SWAP1 POP SWAP2 SWAP1 POP JUMP JUMPDEST PUSH1 0x0 DUP2 PUSH1 0x60 SHL SWAP1 POP SWAP2 SWAP1 POP JUMP JUMPDEST PUSH1 0x0 PUSH2 0x48F2 DUP3 PUSH2 0x48DA JUMP JUMPDEST SWAP1 POP SWAP2 SWAP1 POP JUMP JUMPDEST PUSH1 0x0 PUSH2 0x4904 DUP3 PUSH2 0x48E7 JUMP JUMPDEST SWAP1 POP SWAP2 SWAP1 POP JUMP JUMPDEST PUSH2 0x491C PUSH2 0x4917 DUP3 PUSH2 0x48C8 JUMP JUMPDEST PUSH2 0x48F9 JUMP JUMPDEST DUP3 MSTORE POP POP JUMP JUMPDEST PUSH1 0x0 DUP2 SWAP1 POP SWAP2 SWAP1 POP JUMP JUMPDEST PUSH2 0x493D PUSH2 0x4938 DUP3 PUSH2 0x3677 JUMP JUMPDEST PUSH2 0x4922 JUMP JUMPDEST DUP3 MSTORE POP POP JUMP JUMPDEST PUSH1 0x0 PUSH2 0x494F DUP3 DUP6 PUSH2 0x490B JUMP JUMPDEST PUSH1 0x14 DUP3 ADD SWAP2 POP PUSH2 0x495F DUP3 DUP5 PUSH2 0x492C JUMP JUMPDEST PUSH1 0x20 DUP3 ADD SWAP2 POP DUP2 SWAP1 POP SWAP4 SWAP3 POP POP POP JUMP JUMPDEST PUSH1 0x0 PUSH32 0xFFFFFFFF00000000000000000000000000000000000000000000000000000000 DUP3 AND SWAP1 POP SWAP2 SWAP1 POP JUMP JUMPDEST PUSH2 0x49A4 DUP2 PUSH2 0x496F JUMP JUMPDEST DUP3 MSTORE POP POP JUMP JUMPDEST PUSH1 0x0 DUP2 MLOAD SWAP1 POP SWAP2 SWAP1 POP JUMP JUMPDEST PUSH1 0x0 DUP3 DUP3 MSTORE PUSH1 0x20 DUP3 ADD SWAP1 POP SWAP3 SWAP2 POP POP JUMP JUMPDEST PUSH1 0x0 PUSH2 0x49D1 DUP3 PUSH2 0x49AA JUMP JUMPDEST PUSH2 0x49DB DUP2 DUP6 PUSH2 0x49B5 JUMP JUMPDEST SWAP4 POP PUSH2 0x49EB DUP2 DUP6 PUSH1 0x20 DUP7 ADD PUSH2 0x38C6 JUMP JUMPDEST PUSH2 0x49F4 DUP2 PUSH2 0x38F9 JUMP JUMPDEST DUP5 ADD SWAP2 POP POP SWAP3 SWAP2 POP POP JUMP JUMPDEST PUSH1 0x0 PUSH2 0x100 DUP3 ADD SWAP1 POP PUSH2 0x4A15 PUSH1 0x0 DUP4 ADD DUP12 PUSH2 0x3853 JUMP JUMPDEST PUSH2 0x4A22 PUSH1 0x20 DUP4 ADD DUP11 PUSH2 0x3CC8 JUMP JUMPDEST PUSH2 0x4A2F PUSH1 0x40 DUP4 ADD DUP10 PUSH2 0x3AFB JUMP JUMPDEST PUSH2 0x4A3C PUSH1 0x60 DUP4 ADD DUP9 PUSH2 0x3853 JUMP JUMPDEST PUSH2 0x4A49 PUSH1 0x80 DUP4 ADD DUP8 PUSH2 0x499B JUMP JUMPDEST PUSH2 0x4A56 PUSH1 0xA0 DUP4 ADD DUP7 PUSH2 0x3CC8 JUMP JUMPDEST PUSH2 0x4A63 PUSH1 0xC0 DUP4 ADD DUP6 PUSH2 0x3CC8 JUMP JUMPDEST DUP2 DUP2 SUB PUSH1 0xE0 DUP4 ADD MSTORE PUSH2 0x4A75 DUP2 DUP5 PUSH2 0x49C6 JUMP JUMPDEST SWAP1 POP SWAP10 SWAP9 POP POP POP POP POP POP POP POP POP JUMP JUMPDEST PUSH1 0x0 PUSH1 0x60 DUP3 ADD SWAP1 POP PUSH2 0x4A99 PUSH1 0x0 DUP4 ADD DUP7 PUSH2 0x3853 JUMP JUMPDEST PUSH2 0x4AA6 PUSH1 0x20 DUP4 ADD DUP6 PUSH2 0x3CC8 JUMP JUMPDEST DUP2 DUP2 SUB PUSH1 0x40 DUP4 ADD MSTORE PUSH2 0x4AB8 DUP2 DUP5 PUSH2 0x49C6 JUMP JUMPDEST SWAP1 POP SWAP5 SWAP4 POP POP POP POP JUMP JUMPDEST PUSH2 0x4ACB DUP2 PUSH2 0x3DBA JUMP JUMPDEST DUP2 EQ PUSH2 0x4AD6 JUMPI PUSH1 0x0 DUP1 REVERT JUMPDEST POP JUMP JUMPDEST PUSH1 0x0 DUP2 MLOAD SWAP1 POP PUSH2 0x4AE8 DUP2 PUSH2 0x4AC2 JUMP JUMPDEST SWAP3 SWAP2 POP POP JUMP JUMPDEST PUSH1 0x0 PUSH1 0x20 DUP3 DUP5 SUB SLT ISZERO PUSH2 0x4B04 JUMPI PUSH2 0x4B03 PUSH2 0x34FA JUMP JUMPDEST JUMPDEST PUSH1 0x0 PUSH2 0x4B12 DUP5 DUP3 DUP6 ADD PUSH2 0x4AD9 JUMP JUMPDEST SWAP2 POP POP SWAP3 SWAP2 POP POP JUMP JUMPDEST PUSH32 0x756E61626C6520746F207472616E73666572416E6443616C6C20746F206F7261 PUSH1 0x0 DUP3 ADD MSTORE PUSH32 0x636C650000000000000000000000000000000000000000000000000000000000 PUSH1 0x20 DUP3 ADD MSTORE POP JUMP JUMPDEST PUSH1 0x0 PUSH2 0x4B77 PUSH1 0x23 DUP4 PUSH2 0x38B5 JUMP JUMPDEST SWAP2 POP PUSH2 0x4B82 DUP3 PUSH2 0x4B1B JUMP JUMPDEST PUSH1 0x40 DUP3 ADD SWAP1 POP SWAP2 SWAP1 POP JUMP JUMPDEST PUSH1 0x0 PUSH1 0x20 DUP3 ADD SWAP1 POP DUP2 DUP2 SUB PUSH1 0x0 DUP4 ADD MSTORE PUSH2 0x4BA6 DUP2 PUSH2 0x4B6A JUMP JUMPDEST SWAP1 POP SWAP2 SWAP1 POP JUMP JUMPDEST PUSH1 0x0 DUP2 PUSH1 0x1 SHR SWAP1 POP SWAP2 SWAP1 POP JUMP JUMPDEST PUSH1 0x0 DUP1 DUP3 SWAP2 POP DUP4 SWAP1 POP JUMPDEST PUSH1 0x1 DUP6 GT ISZERO PUSH2 0x4C04 JUMPI DUP1 DUP7 DIV DUP2 GT ISZERO PUSH2 0x4BE0 JUMPI PUSH2 0x4BDF PUSH2 0x4155 JUMP JUMPDEST JUMPDEST PUSH1 0x1 DUP6 AND ISZERO PUSH2 0x4BEF JUMPI DUP1 DUP3 MUL SWAP2 POP JUMPDEST DUP1 DUP2 MUL SWAP1 POP PUSH2 0x4BFD DUP6 PUSH2 0x4BAD JUMP JUMPDEST SWAP5 POP PUSH2 0x4BC4 JUMP JUMPDEST SWAP5 POP SWAP5 SWAP3 POP POP POP JUMP JUMPDEST PUSH1 0x0 DUP3 PUSH2 0x4C1D JUMPI PUSH1 0x1 SWAP1 POP PUSH2 0x4CD9 JUMP JUMPDEST DUP2 PUSH2 0x4C2B JUMPI PUSH1 0x0 SWAP1 POP PUSH2 0x4CD9 JUMP JUMPDEST DUP2 PUSH1 0x1 DUP2 EQ PUSH2 0x4C41 JUMPI PUSH1 0x2 DUP2 EQ PUSH2 0x4C4B JUMPI PUSH2 0x4C7A JUMP JUMPDEST PUSH1 0x1 SWAP2 POP POP PUSH2 0x4CD9 JUMP JUMPDEST PUSH1 0xFF DUP5 GT ISZERO PUSH2 0x4C5D JUMPI PUSH2 0x4C5C PUSH2 0x4155 JUMP JUMPDEST JUMPDEST DUP4 PUSH1 0x2 EXP SWAP2 POP DUP5 DUP3 GT ISZERO PUSH2 0x4C74 JUMPI PUSH2 0x4C73 PUSH2 0x4155 JUMP JUMPDEST JUMPDEST POP PUSH2 0x4CD9 JUMP JUMPDEST POP PUSH1 0x20 DUP4 LT PUSH2 0x133 DUP4 LT AND PUSH1 0x4E DUP5 LT PUSH1 0xB DUP5 LT AND OR ISZERO PUSH2 0x4CAF JUMPI DUP3 DUP3 EXP SWAP1 POP DUP4 DUP2 GT ISZERO PUSH2 0x4CAA JUMPI PUSH2 0x4CA9 PUSH2 0x4155 JUMP JUMPDEST JUMPDEST PUSH2 0x4CD9 JUMP JUMPDEST PUSH2 0x4CBC DUP5 DUP5 DUP5 PUSH1 0x1 PUSH2 0x4BBA JUMP JUMPDEST SWAP3 POP SWAP1 POP DUP2 DUP5 DIV DUP2 GT ISZERO PUSH2 0x4CD3 JUMPI PUSH2 0x4CD2 PUSH2 0x4155 JUMP JUMPDEST JUMPDEST DUP2 DUP2 MUL SWAP1 POP JUMPDEST SWAP4 SWAP3 POP POP POP JUMP JUMPDEST PUSH1 0x0 PUSH2 0x4CEB DUP3 PUSH2 0x3677 JUMP JUMPDEST SWAP2 POP PUSH2 0x4CF6 DUP4 PUSH2 0x3677 JUMP JUMPDEST SWAP3 POP PUSH2 0x4D23 PUSH32 0xFFFFFFFFFFFFFFFFFFFFFFFFFFFFFFFFFFFFFFFFFFFFFFFFFFFFFFFFFFFFFFFF DUP5 DUP5 PUSH2 0x4C0D JUMP JUMPDEST SWAP1 POP SWAP3 SWAP2 POP POP JUMP INVALID LOG2 PUSH5 0x6970667358 0x22 SLT KECCAK256 0xD4 EXTCODECOPY DUP13 PUSH23 0xF3474524392B232E033B02ECBC871DE7D73E3E1618717B 0xAD 0xCA CALLVALUE 0x4D GT PUSH5 0x736F6C6343 STOP ADDMOD MULMOD STOP CALLER "
		},
		"gasEstimates": {
			"creation": {
				"codeDepositCost": "3961800",
				"executionCost": "infinite",
				"totalCost": "infinite"
			},
			"external": {
				"betNFT()": "infinite",
				"bytes32ToString(bytes32)": "infinite",
				"createBackBet(string,uint8,uint8,uint16,uint256)": "infinite",
				"createLayBet(string,uint8,uint8,uint16,uint256)": "infinite",
				"fulfill(bytes32,bytes32)": "infinite",
				"hasMatchWinnerWon(string,uint8,uint8)": "infinite",
				"owner()": "2633",
				"removeUnmatchedBet(string,uint8,uint8,uint8,uint16,uint256)": "infinite",
				"renounceOwnership()": "30463",
				"requestResult(string)": "infinite",
				"transferBetToNFT(string,uint8,uint8,uint8,uint16,string)": "infinite",
				"transferOwnership(address)": "30789",
				"withdrawWithNFT(string,uint256)": "infinite"
			},
			"internal": {
				"getTokenId(string memory,enum BettingAIO.BetSide,enum BettingAIO.BetType,uint8,uint16,address)": "infinite",
				"placeBet(string memory,enum BettingAIO.BetSide,enum BettingAIO.BetType,uint8,uint16,uint256,address)": "infinite",
				"placeMatchedBet(string memory,enum BettingAIO.BetSide,enum BettingAIO.BetType,uint8,uint16,uint256,address)": "infinite",
				"placeUnmatchedBet(string memory,enum BettingAIO.BetSide,enum BettingAIO.BetType,uint8,uint16,uint256,address)": "infinite",
				"transferAmount(address,uint256)": "infinite",
				"withdraw(string memory)": "infinite"
			}
		},
		"methodIdentifiers": {
			"betNFT()": "6920f52b",
			"bytes32ToString(bytes32)": "9201de55",
			"createBackBet(string,uint8,uint8,uint16,uint256)": "100a56c5",
			"createLayBet(string,uint8,uint8,uint16,uint256)": "e603c219",
			"fulfill(bytes32,bytes32)": "042f2b65",
			"hasMatchWinnerWon(string,uint8,uint8)": "f96cb2df",
			"owner()": "8da5cb5b",
			"removeUnmatchedBet(string,uint8,uint8,uint8,uint16,uint256)": "c80e476e",
			"renounceOwnership()": "715018a6",
			"requestResult(string)": "a9583d32",
			"transferBetToNFT(string,uint8,uint8,uint8,uint16,string)": "db3174ec",
			"transferOwnership(address)": "f2fde38b",
			"withdrawWithNFT(string,uint256)": "3195d58d"
		}
	},
	"abi": [
		{
			"inputs": [
				{
					"internalType": "contract BetNFT",
					"name": "_betNFT",
					"type": "address"
				}
			],
			"stateMutability": "nonpayable",
			"type": "constructor"
		},
		{
			"inputs": [
				{
					"internalType": "uint256",
					"name": "amount",
					"type": "uint256"
				}
			],
			"name": "AmountToLow",
			"type": "error"
		},
		{
			"inputs": [
				{
					"internalType": "string",
					"name": "apiId",
					"type": "string"
				}
			],
			"name": "GameAlreadyEnded",
			"type": "error"
		},
		{
			"inputs": [
				{
					"internalType": "uint256",
					"name": "odds",
					"type": "uint256"
				}
			],
			"name": "OddsToLow",
			"type": "error"
		},
		{
			"anonymous": false,
			"inputs": [
				{
					"indexed": false,
					"internalType": "string",
					"name": "apiId",
					"type": "string"
				},
				{
					"indexed": false,
					"internalType": "uint256",
					"name": "tokenId",
					"type": "uint256"
				}
			],
			"name": "BetConverted",
			"type": "event"
		},
		{
			"anonymous": false,
			"inputs": [
				{
					"indexed": true,
					"internalType": "bytes32",
					"name": "id",
					"type": "bytes32"
				}
			],
			"name": "ChainlinkCancelled",
			"type": "event"
		},
		{
			"anonymous": false,
			"inputs": [
				{
					"indexed": true,
					"internalType": "bytes32",
					"name": "id",
					"type": "bytes32"
				}
			],
			"name": "ChainlinkFulfilled",
			"type": "event"
		},
		{
			"anonymous": false,
			"inputs": [
				{
					"indexed": true,
					"internalType": "bytes32",
					"name": "id",
					"type": "bytes32"
				}
			],
			"name": "ChainlinkRequested",
			"type": "event"
		},
		{
			"anonymous": false,
			"inputs": [
				{
					"indexed": false,
					"internalType": "string",
					"name": "apiId",
					"type": "string"
				},
				{
					"indexed": false,
					"internalType": "enum BettingAIO.BetSide",
					"name": "betSide",
					"type": "uint8"
				},
				{
					"indexed": false,
					"internalType": "enum BettingAIO.BetType",
					"name": "betType",
					"type": "uint8"
				},
				{
					"indexed": false,
					"internalType": "uint8",
					"name": "selection",
					"type": "uint8"
				},
				{
					"indexed": false,
					"internalType": "uint16",
					"name": "odds",
					"type": "uint16"
				},
				{
					"indexed": false,
					"internalType": "uint256",
					"name": "amount",
					"type": "uint256"
				},
				{
					"indexed": false,
					"internalType": "address",
					"name": "from",
					"type": "address"
				}
			],
			"name": "MatchedBetPlaced",
			"type": "event"
		},
		{
			"anonymous": false,
			"inputs": [
				{
					"indexed": true,
					"internalType": "address",
					"name": "previousOwner",
					"type": "address"
				},
				{
					"indexed": true,
					"internalType": "address",
					"name": "newOwner",
					"type": "address"
				}
			],
			"name": "OwnershipTransferred",
			"type": "event"
		},
		{
			"anonymous": false,
			"inputs": [
				{
					"indexed": false,
					"internalType": "string",
					"name": "apiId",
					"type": "string"
				},
				{
					"indexed": false,
					"internalType": "enum BettingAIO.BetSide",
					"name": "betSide",
					"type": "uint8"
				},
				{
					"indexed": false,
					"internalType": "enum BettingAIO.BetType",
					"name": "betType",
					"type": "uint8"
				},
				{
					"indexed": false,
					"internalType": "uint8",
					"name": "selection",
					"type": "uint8"
				},
				{
					"indexed": false,
					"internalType": "uint16",
					"name": "odds",
					"type": "uint16"
				},
				{
					"indexed": false,
					"internalType": "uint256",
					"name": "amount",
					"type": "uint256"
				},
				{
					"indexed": false,
					"internalType": "address",
					"name": "from",
					"type": "address"
				}
			],
			"name": "UnmatchedBetPlaced",
			"type": "event"
		},
		{
			"anonymous": false,
			"inputs": [
				{
					"indexed": false,
					"internalType": "string",
					"name": "apiId",
					"type": "string"
				},
				{
					"indexed": false,
					"internalType": "enum BettingAIO.BetSide",
					"name": "betSide",
					"type": "uint8"
				},
				{
					"indexed": false,
					"internalType": "enum BettingAIO.BetType",
					"name": "betType",
					"type": "uint8"
				},
				{
					"indexed": false,
					"internalType": "uint8",
					"name": "selection",
					"type": "uint8"
				},
				{
					"indexed": false,
					"internalType": "uint16",
					"name": "odds",
					"type": "uint16"
				},
				{
					"indexed": false,
					"internalType": "uint256",
					"name": "amount",
					"type": "uint256"
				},
				{
					"indexed": false,
					"internalType": "address",
					"name": "from",
					"type": "address"
				}
			],
			"name": "UnmatchedBetRemoved",
			"type": "event"
		},
		{
			"anonymous": false,
			"inputs": [
				{
					"indexed": false,
					"internalType": "string",
					"name": "apiId",
					"type": "string"
				},
				{
					"indexed": false,
					"internalType": "enum BettingAIO.BetSide",
					"name": "betSide",
					"type": "uint8"
				},
				{
					"indexed": false,
					"internalType": "enum BettingAIO.BetType",
					"name": "betType",
					"type": "uint8"
				},
				{
					"indexed": false,
					"internalType": "uint8",
					"name": "selection",
					"type": "uint8"
				},
				{
					"indexed": false,
					"internalType": "uint16",
					"name": "odds",
					"type": "uint16"
				},
				{
					"indexed": false,
					"internalType": "uint256",
					"name": "amount",
					"type": "uint256"
				},
				{
					"indexed": false,
					"internalType": "address",
					"name": "from",
					"type": "address"
				}
			],
			"name": "UnmatchedBetUpdated",
			"type": "event"
		},
		{
			"inputs": [],
			"name": "betNFT",
			"outputs": [
				{
					"internalType": "contract BetNFT",
					"name": "",
					"type": "address"
				}
			],
			"stateMutability": "view",
			"type": "function"
		},
		{
			"inputs": [
				{
					"internalType": "bytes32",
					"name": "_bytes32",
					"type": "bytes32"
				}
			],
			"name": "bytes32ToString",
			"outputs": [
				{
					"internalType": "string",
					"name": "",
					"type": "string"
				},
				{
					"internalType": "uint8",
					"name": "",
					"type": "uint8"
				}
			],
			"stateMutability": "pure",
			"type": "function"
		},
		{
			"inputs": [
				{
					"internalType": "string",
					"name": "_objectId",
					"type": "string"
				},
				{
					"internalType": "enum BettingAIO.BetType",
					"name": "_betType",
					"type": "uint8"
				},
				{
					"internalType": "uint8",
					"name": "_selection",
					"type": "uint8"
				},
				{
					"internalType": "uint16",
					"name": "_odds",
					"type": "uint16"
				},
				{
					"internalType": "uint256",
					"name": "_amount",
					"type": "uint256"
				}
			],
			"name": "createBackBet",
			"outputs": [],
			"stateMutability": "payable",
			"type": "function"
		},
		{
			"inputs": [
				{
					"internalType": "string",
					"name": "_objectId",
					"type": "string"
				},
				{
					"internalType": "enum BettingAIO.BetType",
					"name": "_betType",
					"type": "uint8"
				},
				{
					"internalType": "uint8",
					"name": "_selection",
					"type": "uint8"
				},
				{
					"internalType": "uint16",
					"name": "_odds",
					"type": "uint16"
				},
				{
					"internalType": "uint256",
					"name": "_amount",
					"type": "uint256"
				}
			],
			"name": "createLayBet",
			"outputs": [],
			"stateMutability": "payable",
			"type": "function"
		},
		{
			"inputs": [
				{
					"internalType": "bytes32",
					"name": "_requestId",
					"type": "bytes32"
				},
				{
					"internalType": "bytes32",
					"name": "_data",
					"type": "bytes32"
				}
			],
			"name": "fulfill",
			"outputs": [],
			"stateMutability": "nonpayable",
			"type": "function"
		},
		{
			"inputs": [
				{
					"internalType": "string",
					"name": "_objectId",
					"type": "string"
				},
				{
					"internalType": "enum BettingAIO.BetSide",
					"name": "_betSide",
					"type": "uint8"
				},
				{
					"internalType": "uint8",
					"name": "_selection",
					"type": "uint8"
				}
			],
			"name": "hasMatchWinnerWon",
			"outputs": [
				{
					"internalType": "bool",
					"name": "",
					"type": "bool"
				}
			],
			"stateMutability": "view",
			"type": "function"
		},
		{
			"inputs": [],
			"name": "owner",
			"outputs": [
				{
					"internalType": "address",
					"name": "",
					"type": "address"
				}
			],
			"stateMutability": "view",
			"type": "function"
		},
		{
			"inputs": [
				{
					"internalType": "string",
					"name": "_objectId",
					"type": "string"
				},
				{
					"internalType": "enum BettingAIO.BetSide",
					"name": "_betSide",
					"type": "uint8"
				},
				{
					"internalType": "enum BettingAIO.BetType",
					"name": "_betType",
					"type": "uint8"
				},
				{
					"internalType": "uint8",
					"name": "_selection",
					"type": "uint8"
				},
				{
					"internalType": "uint16",
					"name": "_odds",
					"type": "uint16"
				},
				{
					"internalType": "uint256",
					"name": "_amount",
					"type": "uint256"
				}
			],
			"name": "removeUnmatchedBet",
			"outputs": [],
			"stateMutability": "nonpayable",
			"type": "function"
		},
		{
			"inputs": [],
			"name": "renounceOwnership",
			"outputs": [],
			"stateMutability": "nonpayable",
			"type": "function"
		},
		{
			"inputs": [
				{
					"internalType": "string",
					"name": "_objectId",
					"type": "string"
				}
			],
			"name": "requestResult",
			"outputs": [
				{
					"internalType": "bytes32",
					"name": "requestId",
					"type": "bytes32"
				}
			],
			"stateMutability": "nonpayable",
			"type": "function"
		},
		{
			"inputs": [
				{
					"internalType": "string",
					"name": "_objectId",
					"type": "string"
				},
				{
					"internalType": "enum BettingAIO.BetSide",
					"name": "_betSide",
					"type": "uint8"
				},
				{
					"internalType": "enum BettingAIO.BetType",
					"name": "_betType",
					"type": "uint8"
				},
				{
					"internalType": "uint8",
					"name": "_selection",
					"type": "uint8"
				},
				{
					"internalType": "uint16",
					"name": "_odds",
					"type": "uint16"
				},
				{
					"internalType": "string",
					"name": "_tokenURI",
					"type": "string"
				}
			],
			"name": "transferBetToNFT",
			"outputs": [
				{
					"internalType": "uint256",
					"name": "",
					"type": "uint256"
				}
			],
			"stateMutability": "nonpayable",
			"type": "function"
		},
		{
			"inputs": [
				{
					"internalType": "address",
					"name": "newOwner",
					"type": "address"
				}
			],
			"name": "transferOwnership",
			"outputs": [],
			"stateMutability": "nonpayable",
			"type": "function"
		},
		{
			"inputs": [
				{
					"internalType": "string",
					"name": "_objectId",
					"type": "string"
				},
				{
					"internalType": "uint256",
					"name": "tokenId",
					"type": "uint256"
				}
			],
			"name": "withdrawWithNFT",
			"outputs": [],
			"stateMutability": "nonpayable",
			"type": "function"
		}
	]
}