{
  "_format": "hh-sol-artifact-1",
  "contractName": "MarketPlace",
  "sourceName": "contracts/market_place.sol",
  "abi": [
    {
      "inputs": [
        {
          "internalType": "address",
          "name": "_operator",
          "type": "address"
        }
      ],
      "stateMutability": "nonpayable",
      "type": "constructor"
    },
    {
      "anonymous": false,
      "inputs": [
        {
          "indexed": true,
          "internalType": "address",
          "name": "beneficiary",
          "type": "address"
        },
        {
          "indexed": false,
          "internalType": "uint256",
          "name": "amount",
          "type": "uint256"
        }
      ],
      "name": "BalanceWithdrawn",
      "type": "event"
    },
    {
      "anonymous": false,
      "inputs": [
        {
          "indexed": true,
          "internalType": "bytes32",
          "name": "offeringId",
          "type": "bytes32"
        },
        {
          "indexed": true,
          "internalType": "address",
          "name": "buyer",
          "type": "address"
        }
      ],
      "name": "OfferingClosed",
      "type": "event"
    },
    {
      "anonymous": false,
      "inputs": [
        {
          "indexed": true,
          "internalType": "bytes32",
          "name": "offeringId",
          "type": "bytes32"
        },
        {
          "indexed": true,
          "internalType": "address",
          "name": "hostContract",
          "type": "address"
        },
        {
          "indexed": true,
          "internalType": "address",
          "name": "offerer",
          "type": "address"
        },
        {
          "indexed": false,
          "internalType": "uint256",
          "name": "tokenId",
          "type": "uint256"
        },
        {
          "indexed": false,
          "internalType": "uint256",
          "name": "price",
          "type": "uint256"
        },
        {
          "indexed": false,
          "internalType": "string",
          "name": "uri",
          "type": "string"
        }
      ],
      "name": "OfferingPlaced",
      "type": "event"
    },
    {
      "anonymous": false,
      "inputs": [
        {
          "indexed": false,
          "internalType": "address",
          "name": "previousOperator",
          "type": "address"
        },
        {
          "indexed": false,
          "internalType": "address",
          "name": "newOperator",
          "type": "address"
        }
      ],
      "name": "OperatorChanged",
      "type": "event"
    },
    {
      "inputs": [
        {
          "internalType": "address",
          "name": "_newOperator",
          "type": "address"
        }
      ],
      "name": "changeOperator",
      "outputs": [],
      "stateMutability": "nonpayable",
      "type": "function"
    },
    {
      "inputs": [
        {
          "internalType": "bytes32",
          "name": "_offeringId",
          "type": "bytes32"
        }
      ],
      "name": "closeOffering",
      "outputs": [],
      "stateMutability": "payable",
      "type": "function"
    },
    {
      "inputs": [
        {
          "internalType": "address",
          "name": "_offerer",
          "type": "address"
        },
        {
          "internalType": "address",
          "name": "_hostContract",
          "type": "address"
        },
        {
          "internalType": "uint256",
          "name": "_tokenId",
          "type": "uint256"
        },
        {
          "internalType": "uint256",
          "name": "_price",
          "type": "uint256"
        }
      ],
      "name": "placeOffering",
      "outputs": [],
      "stateMutability": "nonpayable",
      "type": "function"
    },
    {
      "inputs": [
        {
          "internalType": "address",
          "name": "_address",
          "type": "address"
        }
      ],
      "name": "viewBalances",
      "outputs": [
        {
          "internalType": "uint256",
          "name": "",
          "type": "uint256"
        }
      ],
      "stateMutability": "view",
      "type": "function"
    },
    {
      "inputs": [
        {
          "internalType": "bytes32",
          "name": "_offeringId",
          "type": "bytes32"
        }
      ],
      "name": "viewOfferingNFT",
      "outputs": [
        {
          "internalType": "address",
          "name": "",
          "type": "address"
        },
        {
          "internalType": "uint256",
          "name": "",
          "type": "uint256"
        },
        {
          "internalType": "uint256",
          "name": "",
          "type": "uint256"
        },
        {
          "internalType": "bool",
          "name": "",
          "type": "bool"
        }
      ],
      "stateMutability": "view",
      "type": "function"
    },
    {
      "inputs": [],
      "name": "withdrawBalance",
      "outputs": [],
      "stateMutability": "nonpayable",
      "type": "function"
    }
  ],
  "bytecode": "0x60806040523480156200001157600080fd5b50604051620014e3380380620014e38339818101604052810190620000379190620000e8565b806000806101000a81548173ffffffffffffffffffffffffffffffffffffffff021916908373ffffffffffffffffffffffffffffffffffffffff160217905550506200011a565b600080fd5b600073ffffffffffffffffffffffffffffffffffffffff82169050919050565b6000620000b08262000083565b9050919050565b620000c281620000a3565b8114620000ce57600080fd5b50565b600081519050620000e281620000b7565b92915050565b6000602082840312156200010157620001006200007e565b5b60006200011184828501620000d1565b91505092915050565b6113b9806200012a6000396000f3fe6080604052600436106100555760003560e01c806306394c9b1461005a578063330ef231146100835780634b5822b11461009f5780634efa247e146100dc5780635fd8c71014610105578063ec7bca541461011c575b600080fd5b34801561006657600080fd5b50610081600480360381019061007c9190610b5e565b61015c565b005b61009d60048036038101906100989190610bc1565b6102ad565b005b3480156100ab57600080fd5b506100c660048036038101906100c19190610b5e565b61056a565b6040516100d39190610c07565b60405180910390f35b3480156100e857600080fd5b5061010360048036038101906100fe9190610c4e565b6105b3565b005b34801561011157600080fd5b5061011a6108ab565b005b34801561012857600080fd5b50610143600480360381019061013e9190610bc1565b610a4e565b6040516101539493929190610cdf565b60405180910390f35b60008054906101000a900473ffffffffffffffffffffffffffffffffffffffff1673ffffffffffffffffffffffffffffffffffffffff163373ffffffffffffffffffffffffffffffffffffffff16146101ea576040517f08c379a00000000000000000000000000000000000000000000000000000000081526004016101e190610da7565b60405180910390fd5b60008060009054906101000a900473ffffffffffffffffffffffffffffffffffffffff169050816000806101000a81548173ffffffffffffffffffffffffffffffffffffffff021916908373ffffffffffffffffffffffffffffffffffffffff1602179055507fd58299b712891143e76310d5e664c4203c940a67db37cf856bdaa3c5c76a802c8160008054906101000a900473ffffffffffffffffffffffffffffffffffffffff166040516102a1929190610dc7565b60405180910390a15050565b6002600082815260200190815260200160002060030154341015610306576040517f08c379a00000000000000000000000000000000000000000000000000000000081526004016102fd90610e3c565b60405180910390fd5b600115156002600083815260200190815260200160002060040160009054906101000a900460ff1615151415610371576040517f08c379a000000000000000000000000000000000000000000000000000000000815260040161036890610ea8565b60405180910390fd5b60006002600083815260200190815260200160002060010160009054906101000a900473ffffffffffffffffffffffffffffffffffffffff1690508073ffffffffffffffffffffffffffffffffffffffff166342842e0e6002600085815260200190815260200160002060000160009054906101000a900473ffffffffffffffffffffffffffffffffffffffff163360026000878152602001908152602001600020600201546040518463ffffffff1660e01b815260040161043593929190610ec8565b600060405180830381600087803b15801561044f57600080fd5b505af1158015610463573d6000803e3d6000fd5b5050505060016002600084815260200190815260200160002060040160006101000a81548160ff02191690831515021790555034600360006002600086815260200190815260200160002060000160009054906101000a900473ffffffffffffffffffffffffffffffffffffffff1673ffffffffffffffffffffffffffffffffffffffff1673ffffffffffffffffffffffffffffffffffffffff168152602001908152602001600020600082825461051b9190610f2e565b925050819055503373ffffffffffffffffffffffffffffffffffffffff16827f0cfb1c3841b1ebe2ad43e9d641c358c0d40c4a10fc3c2ee73fd956a2658ed14460405160405180910390a35050565b6000600360008373ffffffffffffffffffffffffffffffffffffffff1673ffffffffffffffffffffffffffffffffffffffff168152602001908152602001600020549050919050565b60008054906101000a900473ffffffffffffffffffffffffffffffffffffffff1673ffffffffffffffffffffffffffffffffffffffff163373ffffffffffffffffffffffffffffffffffffffff1614610641576040517f08c379a000000000000000000000000000000000000000000000000000000000815260040161063890610ff6565b60405180910390fd5b6000600154848460405160200161065a9392919061107f565b604051602081830303815290604052805190602001209050846002600083815260200190815260200160002060000160006101000a81548173ffffffffffffffffffffffffffffffffffffffff021916908373ffffffffffffffffffffffffffffffffffffffff160217905550836002600083815260200190815260200160002060010160006101000a81548173ffffffffffffffffffffffffffffffffffffffff021916908373ffffffffffffffffffffffffffffffffffffffff16021790555082600260008381526020019081526020016000206002018190555081600260008381526020019081526020016000206003018190555060018060008282546107649190610f2e565b9250508190555060006002600083815260200190815260200160002060010160009054906101000a900473ffffffffffffffffffffffffffffffffffffffff16905060008173ffffffffffffffffffffffffffffffffffffffff1663c87b56dd866040518263ffffffff1660e01b81526004016107e19190610c07565b60006040518083038186803b1580156107f957600080fd5b505afa15801561080d573d6000803e3d6000fd5b505050506040513d6000823e3d601f19601f820116820180604052508101906108369190611226565b90508673ffffffffffffffffffffffffffffffffffffffff168673ffffffffffffffffffffffffffffffffffffffff16847fedb9bcc509764747e9a869005eece6e1a1bf4936195e4454f5f0de1f64a1b95988888660405161089a939291906112b3565b60405180910390a450505050505050565b6000600360003373ffffffffffffffffffffffffffffffffffffffff1673ffffffffffffffffffffffffffffffffffffffff168152602001908152602001600020541161092d576040517f08c379a000000000000000000000000000000000000000000000000000000000815260040161092490611363565b60405180910390fd5b6000600360003373ffffffffffffffffffffffffffffffffffffffff1673ffffffffffffffffffffffffffffffffffffffff1681526020019081526020016000205490503373ffffffffffffffffffffffffffffffffffffffff166108fc829081150290604051600060405180830381858888f193505050501580156109b7573d6000803e3d6000fd5b506000600360003373ffffffffffffffffffffffffffffffffffffffff1673ffffffffffffffffffffffffffffffffffffffff168152602001908152602001600020819055503373ffffffffffffffffffffffffffffffffffffffff167fddc398b321237a8d40ac914388309c2f52a08c134e4dc4ce61e32f57cb7d80f182604051610a439190610c07565b60405180910390a250565b6000806000806002600086815260200190815260200160002060010160009054906101000a900473ffffffffffffffffffffffffffffffffffffffff16600260008781526020019081526020016000206002015460026000888152602001908152602001600020600301546002600089815260200190815260200160002060040160009054906101000a900460ff1693509350935093509193509193565b6000604051905090565b600080fd5b600080fd5b600073ffffffffffffffffffffffffffffffffffffffff82169050919050565b6000610b2b82610b00565b9050919050565b610b3b81610b20565b8114610b4657600080fd5b50565b600081359050610b5881610b32565b92915050565b600060208284031215610b7457610b73610af6565b5b6000610b8284828501610b49565b91505092915050565b6000819050919050565b610b9e81610b8b565b8114610ba957600080fd5b50565b600081359050610bbb81610b95565b92915050565b600060208284031215610bd757610bd6610af6565b5b6000610be584828501610bac565b91505092915050565b6000819050919050565b610c0181610bee565b82525050565b6000602082019050610c1c6000830184610bf8565b92915050565b610c2b81610bee565b8114610c3657600080fd5b50565b600081359050610c4881610c22565b92915050565b60008060008060808587031215610c6857610c67610af6565b5b6000610c7687828801610b49565b9450506020610c8787828801610b49565b9350506040610c9887828801610c39565b9250506060610ca987828801610c39565b91505092959194509250565b610cbe81610b20565b82525050565b60008115159050919050565b610cd981610cc4565b82525050565b6000608082019050610cf46000830187610cb5565b610d016020830186610bf8565b610d0e6040830185610bf8565b610d1b6060830184610cd0565b95945050505050565b600082825260208201905092915050565b7f6f6e6c7920746865206f70657261746f722063616e206368616e67652074686560008201527f2063757272656e74206f70657261746f72000000000000000000000000000000602082015250565b6000610d91603183610d24565b9150610d9c82610d35565b604082019050919050565b60006020820190508181036000830152610dc081610d84565b9050919050565b6000604082019050610ddc6000830185610cb5565b610de96020830184610cb5565b9392505050565b7f4e6f7420656e6f7567682066756e647320746f20627579000000000000000000600082015250565b6000610e26601783610d24565b9150610e3182610df0565b602082019050919050565b60006020820190508181036000830152610e5581610e19565b9050919050565b7f4f66666572696e6720697320636c6f7365640000000000000000000000000000600082015250565b6000610e92601283610d24565b9150610e9d82610e5c565b602082019050919050565b60006020820190508181036000830152610ec181610e85565b9050919050565b6000606082019050610edd6000830186610cb5565b610eea6020830185610cb5565b610ef76040830184610bf8565b949350505050565b7f4e487b7100000000000000000000000000000000000000000000000000000000600052601160045260246000fd5b6000610f3982610bee565b9150610f4483610bee565b9250827fffffffffffffffffffffffffffffffffffffffffffffffffffffffffffffffff03821115610f7957610f78610eff565b5b828201905092915050565b7f4f6e6c79206f70657261746f7220644170702063616e20637265617465206f6660008201527f666572696e677300000000000000000000000000000000000000000000000000602082015250565b6000610fe0602783610d24565b9150610feb82610f84565b604082019050919050565b6000602082019050818103600083015261100f81610fd3565b9050919050565b6000819050919050565b61103161102c82610bee565b611016565b82525050565b60008160601b9050919050565b600061104f82611037565b9050919050565b600061106182611044565b9050919050565b61107961107482610b20565b611056565b82525050565b600061108b8286611020565b60208201915061109b8285611068565b6014820191506110ab8284611020565b602082019150819050949350505050565b600080fd5b600080fd5b6000601f19601f8301169050919050565b7f4e487b7100000000000000000000000000000000000000000000000000000000600052604160045260246000fd5b61110f826110c6565b810181811067ffffffffffffffff8211171561112e5761112d6110d7565b5b80604052505050565b6000611141610aec565b905061114d8282611106565b919050565b600067ffffffffffffffff82111561116d5761116c6110d7565b5b611176826110c6565b9050602081019050919050565b60005b838110156111a1578082015181840152602081019050611186565b838111156111b0576000848401525b50505050565b60006111c96111c484611152565b611137565b9050828152602081018484840111156111e5576111e46110c1565b5b6111f0848285611183565b509392505050565b600082601f83011261120d5761120c6110bc565b5b815161121d8482602086016111b6565b91505092915050565b60006020828403121561123c5761123b610af6565b5b600082015167ffffffffffffffff81111561125a57611259610afb565b5b611266848285016111f8565b91505092915050565b600081519050919050565b60006112858261126f565b61128f8185610d24565b935061129f818560208601611183565b6112a8816110c6565b840191505092915050565b60006060820190506112c86000830186610bf8565b6112d56020830185610bf8565b81810360408301526112e7818461127a565b9050949350505050565b7f596f7520646f6e2774206861766520616e792062616c616e636520746f20776960008201527f7468647261770000000000000000000000000000000000000000000000000000602082015250565b600061134d602683610d24565b9150611358826112f1565b604082019050919050565b6000602082019050818103600083015261137c81611340565b905091905056fea2646970667358221220bb4484693800f37d954344bd81a98a77ef7fabc33ff70a55079f6394a81b174d64736f6c63430008090033",
  "linkReferences": {},
  "deployedLinkReferences": {}
}