{
  "_format": "hh-sol-artifact-1",
  "contractName": "MarketMaker",
  "sourceName": "contracts/MarketMaker.sol",
  "abi": [
    {
      "inputs": [
        {
          "internalType": "contract LPNFT",
          "name": "_lpNFT",
          "type": "address"
        }
      ],
      "stateMutability": "nonpayable",
      "type": "constructor"
    },
    {
      "anonymous": false,
      "inputs": [
        {
          "indexed": false,
          "internalType": "uint256",
          "name": "tokenId",
          "type": "uint256"
        },
        {
          "indexed": false,
          "internalType": "address",
          "name": "depositer",
          "type": "address"
        },
        {
          "indexed": false,
          "internalType": "uint256",
          "name": "depositAmount",
          "type": "uint256"
        }
      ],
      "name": "DepositCompleted",
      "type": "event"
    },
    {
      "inputs": [
        {
          "internalType": "string",
          "name": "ipfs",
          "type": "string"
        }
      ],
      "name": "deposit",
      "outputs": [],
      "stateMutability": "payable",
      "type": "function"
    },
    {
      "inputs": [
        {
          "internalType": "uint256",
          "name": "tokenId",
          "type": "uint256"
        }
      ],
      "name": "getDepositValue",
      "outputs": [
        {
          "internalType": "uint256",
          "name": "",
          "type": "uint256"
        }
      ],
      "stateMutability": "view",
      "type": "function"
    },
    {
      "inputs": [],
      "name": "getTotalDeposit",
      "outputs": [
        {
          "internalType": "uint256",
          "name": "",
          "type": "uint256"
        }
      ],
      "stateMutability": "view",
      "type": "function"
    },
    {
      "inputs": [],
      "name": "lp",
      "outputs": [
        {
          "internalType": "address",
          "name": "LPAddress",
          "type": "address"
        },
        {
          "internalType": "uint256",
          "name": "depositAmount",
          "type": "uint256"
        }
      ],
      "stateMutability": "view",
      "type": "function"
    },
    {
      "inputs": [
        {
          "internalType": "uint256",
          "name": "",
          "type": "uint256"
        }
      ],
      "name": "lpDeposits",
      "outputs": [
        {
          "internalType": "address",
          "name": "LPAddress",
          "type": "address"
        },
        {
          "internalType": "uint256",
          "name": "depositAmount",
          "type": "uint256"
        }
      ],
      "stateMutability": "view",
      "type": "function"
    },
    {
      "inputs": [],
      "name": "totalDeposit",
      "outputs": [
        {
          "internalType": "uint256",
          "name": "",
          "type": "uint256"
        }
      ],
      "stateMutability": "view",
      "type": "function"
    },
    {
      "inputs": [
        {
          "internalType": "uint256",
          "name": "tokenId",
          "type": "uint256"
        }
      ],
      "name": "withdraw",
      "outputs": [],
      "stateMutability": "payable",
      "type": "function"
    }
  ],
  "bytecode": "0x608060405234801561001057600080fd5b50604051610de3380380610de3833981810160405281019061003291906100f6565b80600260006101000a81548173ffffffffffffffffffffffffffffffffffffffff021916908373ffffffffffffffffffffffffffffffffffffffff160217905550600060038190555050610123565b600080fd5b600073ffffffffffffffffffffffffffffffffffffffff82169050919050565b60006100b182610086565b9050919050565b60006100c3826100a6565b9050919050565b6100d3816100b8565b81146100de57600080fd5b50565b6000815190506100f0816100ca565b92915050565b60006020828403121561010c5761010b610081565b5b600061011a848285016100e1565b91505092915050565b610cb1806101326000396000f3fe6080604052600436106100705760003560e01c80636e8218aa1161004e5780636e8218aa146100fb578063a26e118614610138578063c022215c14610154578063f6153ccd1461017f57610070565b80632269c137146100755780632e1a7d4d146100b3578063313c06a0146100cf575b600080fd5b34801561008157600080fd5b5061009c60048036038101906100979190610748565b6101aa565b6040516100aa9291906107c5565b60405180910390f35b6100cd60048036038101906100c89190610748565b6101ee565b005b3480156100db57600080fd5b506100e461042c565b6040516100f29291906107c5565b60405180910390f35b34801561010757600080fd5b50610122600480360381019061011d9190610748565b61045e565b60405161012f91906107ee565b60405180910390f35b610152600480360381019061014d919061094f565b61047e565b005b34801561016057600080fd5b506101696106a3565b60405161017691906107ee565b60405180910390f35b34801561018b57600080fd5b506101946106ad565b6040516101a191906107ee565b60405180910390f35b60046020528060005260406000206000915090508060000160009054906101000a900473ffffffffffffffffffffffffffffffffffffffff16908060010154905082565b3373ffffffffffffffffffffffffffffffffffffffff16600260009054906101000a900473ffffffffffffffffffffffffffffffffffffffff1673ffffffffffffffffffffffffffffffffffffffff16636352211e836040518263ffffffff1660e01b815260040161026091906107ee565b60206040518083038186803b15801561027857600080fd5b505afa15801561028c573d6000803e3d6000fd5b505050506040513d601f19601f820116820180604052508101906102b091906109c4565b73ffffffffffffffffffffffffffffffffffffffff1614610306576040517f08c379a00000000000000000000000000000000000000000000000000000000081526004016102fd90610a74565b60405180910390fd5b600260009054906101000a900473ffffffffffffffffffffffffffffffffffffffff1673ffffffffffffffffffffffffffffffffffffffff1663ac7aae4233836040518363ffffffff1660e01b81526004016103639291906107c5565b600060405180830381600087803b15801561037d57600080fd5b505af1158015610391573d6000803e3d6000fd5b505050506103b53360046000848152602001908152602001600020600101546106b3565b6004600082815260200190815260200160002060010154600360008282546103dd9190610ac3565b9250508190555060046000828152602001908152602001600020600080820160006101000a81549073ffffffffffffffffffffffffffffffffffffffff02191690556001820160009055505050565b60008060000160009054906101000a900473ffffffffffffffffffffffffffffffffffffffff16908060010154905082565b600060046000838152602001908152602001600020600101549050919050565b6000600260009054906101000a900473ffffffffffffffffffffffffffffffffffffffff1673ffffffffffffffffffffffffffffffffffffffff1663e2873c006040518163ffffffff1660e01b815260040160206040518083038186803b1580156104e857600080fd5b505afa1580156104fc573d6000803e3d6000fd5b505050506040513d601f19601f820116820180604052508101906105209190610b0c565b90506000349050600260009054906101000a900473ffffffffffffffffffffffffffffffffffffffff1673ffffffffffffffffffffffffffffffffffffffff1663d3fc98643384866040518463ffffffff1660e01b815260040161058693929190610bb0565b600060405180830381600087803b1580156105a057600080fd5b505af11580156105b4573d6000803e3d6000fd5b5050505060405180604001604052803373ffffffffffffffffffffffffffffffffffffffff168152602001828152506004600084815260200190815260200160002060008201518160000160006101000a81548173ffffffffffffffffffffffffffffffffffffffff021916908373ffffffffffffffffffffffffffffffffffffffff16021790555060208201518160010155905050806003600082825461065c9190610bee565b925050819055507f56689df5b6781ed4dfe4433ada8842732f0c869c9b237df9cd77ca9bc9f902f382333460405161069693929190610c44565b60405180910390a1505050565b6000600354905090565b60035481565b8173ffffffffffffffffffffffffffffffffffffffff166108fc829081150290604051600060405180830381858888f193505050501580156106f9573d6000803e3d6000fd5b505050565b6000604051905090565b600080fd5b600080fd5b6000819050919050565b61072581610712565b811461073057600080fd5b50565b6000813590506107428161071c565b92915050565b60006020828403121561075e5761075d610708565b5b600061076c84828501610733565b91505092915050565b600073ffffffffffffffffffffffffffffffffffffffff82169050919050565b60006107a082610775565b9050919050565b6107b081610795565b82525050565b6107bf81610712565b82525050565b60006040820190506107da60008301856107a7565b6107e760208301846107b6565b9392505050565b600060208201905061080360008301846107b6565b92915050565b600080fd5b600080fd5b6000601f19601f8301169050919050565b7f4e487b7100000000000000000000000000000000000000000000000000000000600052604160045260246000fd5b61085c82610813565b810181811067ffffffffffffffff8211171561087b5761087a610824565b5b80604052505050565b600061088e6106fe565b905061089a8282610853565b919050565b600067ffffffffffffffff8211156108ba576108b9610824565b5b6108c382610813565b9050602081019050919050565b82818337600083830152505050565b60006108f26108ed8461089f565b610884565b90508281526020810184848401111561090e5761090d61080e565b5b6109198482856108d0565b509392505050565b600082601f83011261093657610935610809565b5b81356109468482602086016108df565b91505092915050565b60006020828403121561096557610964610708565b5b600082013567ffffffffffffffff8111156109835761098261070d565b5b61098f84828501610921565b91505092915050565b6109a181610795565b81146109ac57600080fd5b50565b6000815190506109be81610998565b92915050565b6000602082840312156109da576109d9610708565b5b60006109e8848285016109af565b91505092915050565b600082825260208201905092915050565b7f4d61726b65744d616b65723a207472616e736665722063616c6c65722069732060008201527f6e6f74206f776e65720000000000000000000000000000000000000000000000602082015250565b6000610a5e6029836109f1565b9150610a6982610a02565b604082019050919050565b60006020820190508181036000830152610a8d81610a51565b9050919050565b7f4e487b7100000000000000000000000000000000000000000000000000000000600052601160045260246000fd5b6000610ace82610712565b9150610ad983610712565b925082821015610aec57610aeb610a94565b5b828203905092915050565b600081519050610b068161071c565b92915050565b600060208284031215610b2257610b21610708565b5b6000610b3084828501610af7565b91505092915050565b600081519050919050565b60005b83811015610b62578082015181840152602081019050610b47565b83811115610b71576000848401525b50505050565b6000610b8282610b39565b610b8c81856109f1565b9350610b9c818560208601610b44565b610ba581610813565b840191505092915050565b6000606082019050610bc560008301866107a7565b610bd260208301856107b6565b8181036040830152610be48184610b77565b9050949350505050565b6000610bf982610712565b9150610c0483610712565b9250827fffffffffffffffffffffffffffffffffffffffffffffffffffffffffffffffff03821115610c3957610c38610a94565b5b828201905092915050565b6000606082019050610c5960008301866107b6565b610c6660208301856107a7565b610c7360408301846107b6565b94935050505056fea26469706673582212203545ce99ca8facde2bde710eb20eed458691e62a766d061f5505e58120e7752264736f6c63430008090033",
  "linkReferences": {},
  "deployedLinkReferences": {}
}