{
  "_format": "hh-sol-artifact-1",
  "contractName": "MarketMaker",
  "sourceName": "contracts/MarketMaker.sol",
  "abi": [
    {
      "inputs": [
        {
          "internalType": "contract LPNFT",
          "name": "_lpNFT",
          "type": "address"
        }
      ],
      "stateMutability": "nonpayable",
      "type": "constructor"
    },
    {
      "anonymous": false,
      "inputs": [
        {
          "indexed": false,
          "internalType": "uint256",
          "name": "tokenId",
          "type": "uint256"
        },
        {
          "indexed": false,
          "internalType": "string",
          "name": "uri",
          "type": "string"
        },
        {
          "indexed": false,
          "internalType": "uint256",
          "name": "depositAmount",
          "type": "uint256"
        }
      ],
      "name": "DepositCompleted",
      "type": "event"
    },
    {
      "anonymous": false,
      "inputs": [
        {
          "indexed": false,
          "internalType": "uint256",
          "name": "tokenId",
          "type": "uint256"
        },
        {
          "indexed": false,
          "internalType": "uint256",
          "name": "depositAmount",
          "type": "uint256"
        }
      ],
      "name": "WithdrawalCompleted",
      "type": "event"
    },
    {
      "inputs": [
        {
          "internalType": "string",
          "name": "uri",
          "type": "string"
        }
      ],
      "name": "deposit",
      "outputs": [],
      "stateMutability": "payable",
      "type": "function"
    },
    {
      "inputs": [
        {
          "internalType": "uint256",
          "name": "tokenId",
          "type": "uint256"
        }
      ],
      "name": "getDepositValue",
      "outputs": [
        {
          "internalType": "uint256",
          "name": "",
          "type": "uint256"
        }
      ],
      "stateMutability": "view",
      "type": "function"
    },
    {
      "inputs": [],
      "name": "getTotalDeposit",
      "outputs": [
        {
          "internalType": "uint256",
          "name": "",
          "type": "uint256"
        }
      ],
      "stateMutability": "view",
      "type": "function"
    },
    {
      "inputs": [],
      "name": "lp",
      "outputs": [
        {
          "internalType": "address",
          "name": "LPAddress",
          "type": "address"
        },
        {
          "internalType": "uint256",
          "name": "depositAmount",
          "type": "uint256"
        }
      ],
      "stateMutability": "view",
      "type": "function"
    },
    {
      "inputs": [
        {
          "internalType": "uint256",
          "name": "",
          "type": "uint256"
        }
      ],
      "name": "lpDeposits",
      "outputs": [
        {
          "internalType": "address",
          "name": "LPAddress",
          "type": "address"
        },
        {
          "internalType": "uint256",
          "name": "depositAmount",
          "type": "uint256"
        }
      ],
      "stateMutability": "view",
      "type": "function"
    },
    {
      "inputs": [],
      "name": "totalDeposit",
      "outputs": [
        {
          "internalType": "uint256",
          "name": "",
          "type": "uint256"
        }
      ],
      "stateMutability": "view",
      "type": "function"
    },
    {
      "inputs": [
        {
          "internalType": "uint256",
          "name": "tokenId",
          "type": "uint256"
        }
      ],
      "name": "withdraw",
      "outputs": [],
      "stateMutability": "payable",
      "type": "function"
    }
  ],
  "bytecode": "0x608060405234801561001057600080fd5b5060405162000e3f38038062000e3f833981810160405281019061003491906100f8565b80600260006101000a81548173ffffffffffffffffffffffffffffffffffffffff021916908373ffffffffffffffffffffffffffffffffffffffff160217905550600060038190555050610125565b600080fd5b600073ffffffffffffffffffffffffffffffffffffffff82169050919050565b60006100b382610088565b9050919050565b60006100c5826100a8565b9050919050565b6100d5816100ba565b81146100e057600080fd5b50565b6000815190506100f2816100cc565b92915050565b60006020828403121561010e5761010d610083565b5b600061011c848285016100e3565b91505092915050565b610d0a80620001356000396000f3fe6080604052600436106100705760003560e01c80636e8218aa1161004e5780636e8218aa146100fb578063a26e118614610138578063c022215c14610154578063f6153ccd1461017f57610070565b80632269c137146100755780632e1a7d4d146100b3578063313c06a0146100cf575b600080fd5b34801561008157600080fd5b5061009c60048036038101906100979190610771565b6101aa565b6040516100aa9291906107ee565b60405180910390f35b6100cd60048036038101906100c89190610771565b6101ee565b005b3480156100db57600080fd5b506100e4610455565b6040516100f29291906107ee565b60405180910390f35b34801561010757600080fd5b50610122600480360381019061011d9190610771565b610487565b60405161012f9190610817565b60405180910390f35b610152600480360381019061014d9190610978565b6104a7565b005b34801561016057600080fd5b506101696106cc565b6040516101769190610817565b60405180910390f35b34801561018b57600080fd5b506101946106d6565b6040516101a19190610817565b60405180910390f35b60046020528060005260406000206000915090508060000160009054906101000a900473ffffffffffffffffffffffffffffffffffffffff16908060010154905082565b3373ffffffffffffffffffffffffffffffffffffffff16600260009054906101000a900473ffffffffffffffffffffffffffffffffffffffff1673ffffffffffffffffffffffffffffffffffffffff16636352211e836040518263ffffffff1660e01b81526004016102609190610817565b60206040518083038186803b15801561027857600080fd5b505afa15801561028c573d6000803e3d6000fd5b505050506040513d601f19601f820116820180604052508101906102b091906109ed565b73ffffffffffffffffffffffffffffffffffffffff1614610306576040517f08c379a00000000000000000000000000000000000000000000000000000000081526004016102fd90610a9d565b60405180910390fd5b600260009054906101000a900473ffffffffffffffffffffffffffffffffffffffff1673ffffffffffffffffffffffffffffffffffffffff1663ac7aae4233836040518363ffffffff1660e01b81526004016103639291906107ee565b600060405180830381600087803b15801561037d57600080fd5b505af1158015610391573d6000803e3d6000fd5b505050506000600460008381526020019081526020016000206001015490506103ba33826106dc565b80600360008282546103cc9190610aec565b9250508190555060046000838152602001908152602001600020600080820160006101000a81549073ffffffffffffffffffffffffffffffffffffffff0219169055600182016000905550507f19fa96afa1fdb8725e38d43cc1e54cd04c8b0c6d56327edbf1a68fcc97f5cf698282604051610449929190610b20565b60405180910390a15050565b60008060000160009054906101000a900473ffffffffffffffffffffffffffffffffffffffff16908060010154905082565b600060046000838152602001908152602001600020600101549050919050565b6000600260009054906101000a900473ffffffffffffffffffffffffffffffffffffffff1673ffffffffffffffffffffffffffffffffffffffff1663e2873c006040518163ffffffff1660e01b815260040160206040518083038186803b15801561051157600080fd5b505afa158015610525573d6000803e3d6000fd5b505050506040513d601f19601f820116820180604052508101906105499190610b5e565b90506000349050600260009054906101000a900473ffffffffffffffffffffffffffffffffffffffff1673ffffffffffffffffffffffffffffffffffffffff1663d3fc98643384866040518463ffffffff1660e01b81526004016105af93929190610c02565b600060405180830381600087803b1580156105c957600080fd5b505af11580156105dd573d6000803e3d6000fd5b5050505060405180604001604052803373ffffffffffffffffffffffffffffffffffffffff168152602001828152506004600084815260200190815260200160002060008201518160000160006101000a81548173ffffffffffffffffffffffffffffffffffffffff021916908373ffffffffffffffffffffffffffffffffffffffff1602179055506020820151816001015590505080600360008282546106859190610c40565b925050819055507f58f404563b95470b692e55440726a70aa7629e8a5cc949a6f4a4e5d2ccf52b488284346040516106bf93929190610c96565b60405180910390a1505050565b6000600354905090565b60035481565b8173ffffffffffffffffffffffffffffffffffffffff166108fc829081150290604051600060405180830381858888f19350505050158015610722573d6000803e3d6000fd5b505050565b6000604051905090565b600080fd5b600080fd5b6000819050919050565b61074e8161073b565b811461075957600080fd5b50565b60008135905061076b81610745565b92915050565b60006020828403121561078757610786610731565b5b60006107958482850161075c565b91505092915050565b600073ffffffffffffffffffffffffffffffffffffffff82169050919050565b60006107c98261079e565b9050919050565b6107d9816107be565b82525050565b6107e88161073b565b82525050565b600060408201905061080360008301856107d0565b61081060208301846107df565b9392505050565b600060208201905061082c60008301846107df565b92915050565b600080fd5b600080fd5b6000601f19601f8301169050919050565b7f4e487b7100000000000000000000000000000000000000000000000000000000600052604160045260246000fd5b6108858261083c565b810181811067ffffffffffffffff821117156108a4576108a361084d565b5b80604052505050565b60006108b7610727565b90506108c3828261087c565b919050565b600067ffffffffffffffff8211156108e3576108e261084d565b5b6108ec8261083c565b9050602081019050919050565b82818337600083830152505050565b600061091b610916846108c8565b6108ad565b90508281526020810184848401111561093757610936610837565b5b6109428482856108f9565b509392505050565b600082601f83011261095f5761095e610832565b5b813561096f848260208601610908565b91505092915050565b60006020828403121561098e5761098d610731565b5b600082013567ffffffffffffffff8111156109ac576109ab610736565b5b6109b88482850161094a565b91505092915050565b6109ca816107be565b81146109d557600080fd5b50565b6000815190506109e7816109c1565b92915050565b600060208284031215610a0357610a02610731565b5b6000610a11848285016109d8565b91505092915050565b600082825260208201905092915050565b7f4d61726b65744d616b65723a207472616e736665722063616c6c65722069732060008201527f6e6f74206f776e65720000000000000000000000000000000000000000000000602082015250565b6000610a87602983610a1a565b9150610a9282610a2b565b604082019050919050565b60006020820190508181036000830152610ab681610a7a565b9050919050565b7f4e487b7100000000000000000000000000000000000000000000000000000000600052601160045260246000fd5b6000610af78261073b565b9150610b028361073b565b925082821015610b1557610b14610abd565b5b828203905092915050565b6000604082019050610b3560008301856107df565b610b4260208301846107df565b9392505050565b600081519050610b5881610745565b92915050565b600060208284031215610b7457610b73610731565b5b6000610b8284828501610b49565b91505092915050565b600081519050919050565b60005b83811015610bb4578082015181840152602081019050610b99565b83811115610bc3576000848401525b50505050565b6000610bd482610b8b565b610bde8185610a1a565b9350610bee818560208601610b96565b610bf78161083c565b840191505092915050565b6000606082019050610c1760008301866107d0565b610c2460208301856107df565b8181036040830152610c368184610bc9565b9050949350505050565b6000610c4b8261073b565b9150610c568361073b565b9250827fffffffffffffffffffffffffffffffffffffffffffffffffffffffffffffffff03821115610c8b57610c8a610abd565b5b828201905092915050565b6000606082019050610cab60008301866107df565b8181036020830152610cbd8185610bc9565b9050610ccc60408301846107df565b94935050505056fea2646970667358221220805d702ad920fda153c3de0c0fa6c669b5f1ea8471f3163c83b29fc739dc50f564736f6c63430008090033",
  "linkReferences": {},
  "deployedLinkReferences": {}
}