{
  "_format": "hh-sol-artifact-1",
  "contractName": "MarketMaker",
  "sourceName": "contracts/MarketMaker.sol",
  "abi": [
    {
      "inputs": [
        {
          "internalType": "contract LPNFT",
          "name": "_lpNFT",
          "type": "address"
        }
      ],
      "stateMutability": "nonpayable",
      "type": "constructor"
    },
    {
      "anonymous": false,
      "inputs": [
        {
          "indexed": false,
          "internalType": "uint256",
          "name": "tokenId",
          "type": "uint256"
        },
        {
          "indexed": false,
          "internalType": "string",
          "name": "uri",
          "type": "string"
        },
        {
          "indexed": false,
          "internalType": "uint256",
          "name": "depositAmount",
          "type": "uint256"
        }
      ],
      "name": "DepositCompleted",
      "type": "event"
    },
    {
      "anonymous": false,
      "inputs": [
        {
          "indexed": false,
          "internalType": "enum BetType",
          "name": "_betType",
          "type": "uint8"
        },
        {
          "indexed": false,
          "internalType": "uint8",
          "name": "_selection",
          "type": "uint8"
        },
        {
          "indexed": false,
          "internalType": "uint16",
          "name": "_odds",
          "type": "uint16"
        },
        {
          "indexed": false,
          "internalType": "uint256",
          "name": "amount",
          "type": "uint256"
        }
      ],
      "name": "MarketMakerCreateBackBet",
      "type": "event"
    },
    {
      "anonymous": false,
      "inputs": [
        {
          "indexed": false,
          "internalType": "enum BetType",
          "name": "_betType",
          "type": "uint8"
        },
        {
          "indexed": false,
          "internalType": "uint8",
          "name": "_selection",
          "type": "uint8"
        },
        {
          "indexed": false,
          "internalType": "uint16",
          "name": "_odds",
          "type": "uint16"
        },
        {
          "indexed": false,
          "internalType": "uint256",
          "name": "amount",
          "type": "uint256"
        }
      ],
      "name": "MarketMakerCreateLayBet",
      "type": "event"
    },
    {
      "anonymous": false,
      "inputs": [
        {
          "indexed": false,
          "internalType": "uint256",
          "name": "tokenId",
          "type": "uint256"
        },
        {
          "indexed": false,
          "internalType": "uint256",
          "name": "depositAmount",
          "type": "uint256"
        }
      ],
      "name": "WithdrawalCompleted",
      "type": "event"
    },
    {
      "inputs": [
        {
          "internalType": "address",
          "name": "bettingAddress",
          "type": "address"
        },
        {
          "internalType": "enum BetType",
          "name": "_betType",
          "type": "uint8"
        },
        {
          "internalType": "uint8",
          "name": "_selection",
          "type": "uint8"
        },
        {
          "internalType": "uint16",
          "name": "_odds",
          "type": "uint16"
        }
      ],
      "name": "createOpposingBackBet",
      "outputs": [],
      "stateMutability": "nonpayable",
      "type": "function"
    },
    {
      "inputs": [
        {
          "internalType": "address",
          "name": "bettingAddress",
          "type": "address"
        },
        {
          "internalType": "enum BetType",
          "name": "_betType",
          "type": "uint8"
        },
        {
          "internalType": "uint8",
          "name": "_selection",
          "type": "uint8"
        },
        {
          "internalType": "uint16",
          "name": "_odds",
          "type": "uint16"
        },
        {
          "internalType": "uint256",
          "name": "backBetAmount",
          "type": "uint256"
        },
        {
          "internalType": "uint256",
          "name": "liabilityAmount",
          "type": "uint256"
        }
      ],
      "name": "createOpposingLayBet",
      "outputs": [],
      "stateMutability": "nonpayable",
      "type": "function"
    },
    {
      "inputs": [
        {
          "internalType": "string",
          "name": "uri",
          "type": "string"
        }
      ],
      "name": "deposit",
      "outputs": [],
      "stateMutability": "payable",
      "type": "function"
    },
    {
      "inputs": [
        {
          "internalType": "uint256",
          "name": "tokenId",
          "type": "uint256"
        }
      ],
      "name": "getDepositValue",
      "outputs": [
        {
          "internalType": "uint256",
          "name": "",
          "type": "uint256"
        }
      ],
      "stateMutability": "view",
      "type": "function"
    },
    {
      "inputs": [],
      "name": "getTotalDeposit",
      "outputs": [
        {
          "internalType": "uint256",
          "name": "",
          "type": "uint256"
        }
      ],
      "stateMutability": "view",
      "type": "function"
    },
    {
      "inputs": [],
      "name": "lp",
      "outputs": [
        {
          "internalType": "address",
          "name": "LPAddress",
          "type": "address"
        },
        {
          "internalType": "uint256",
          "name": "depositAmount",
          "type": "uint256"
        }
      ],
      "stateMutability": "view",
      "type": "function"
    },
    {
      "inputs": [
        {
          "internalType": "uint256",
          "name": "",
          "type": "uint256"
        }
      ],
      "name": "lpDeposits",
      "outputs": [
        {
          "internalType": "address",
          "name": "LPAddress",
          "type": "address"
        },
        {
          "internalType": "uint256",
          "name": "depositAmount",
          "type": "uint256"
        }
      ],
      "stateMutability": "view",
      "type": "function"
    },
    {
      "inputs": [],
      "name": "maxAmountForAnyBet",
      "outputs": [
        {
          "internalType": "uint256",
          "name": "",
          "type": "uint256"
        }
      ],
      "stateMutability": "view",
      "type": "function"
    },
    {
      "inputs": [],
      "name": "totalDeposit",
      "outputs": [
        {
          "internalType": "uint256",
          "name": "",
          "type": "uint256"
        }
      ],
      "stateMutability": "view",
      "type": "function"
    },
    {
      "inputs": [
        {
          "internalType": "uint256",
          "name": "tokenId",
          "type": "uint256"
        }
      ],
      "name": "withdraw",
      "outputs": [],
      "stateMutability": "payable",
      "type": "function"
    }
  ],
  "bytecode": "0x60806040523480156200001157600080fd5b506040516200189c3803806200189c83398181016040528101906200003791906200021c565b80600260006101000a81548173ffffffffffffffffffffffffffffffffffffffff021916908373ffffffffffffffffffffffffffffffffffffffff1602179055506000600381905550620000cb6040518060400160405280601781526020017f436f6e7374727563746f72204d61726b65744d616b6572000000000000000000815250620000d260201b620009dc1760201c565b5062000316565b6200017281604051602401620000e99190620002f2565b6040516020818303038152906040527f41304fac000000000000000000000000000000000000000000000000000000007bffffffffffffffffffffffffffffffffffffffffffffffffffffffff19166020820180517bffffffffffffffffffffffffffffffffffffffffffffffffffffffff83818316178352505050506200017560201b60201c565b50565b60008151905060006a636f6e736f6c652e6c6f679050602083016000808483855afa5050505050565b600080fd5b600073ffffffffffffffffffffffffffffffffffffffff82169050919050565b6000620001d082620001a3565b9050919050565b6000620001e482620001c3565b9050919050565b620001f681620001d7565b81146200020257600080fd5b50565b6000815190506200021681620001eb565b92915050565b6000602082840312156200023557620002346200019e565b5b6000620002458482850162000205565b91505092915050565b600081519050919050565b600082825260208201905092915050565b60005b838110156200028a5780820151818401526020810190506200026d565b838111156200029a576000848401525b50505050565b6000601f19601f8301169050919050565b6000620002be826200024e565b620002ca818562000259565b9350620002dc8185602086016200026a565b620002e781620002a0565b840191505092915050565b600060208201905081810360008301526200030e8184620002b1565b905092915050565b61157680620003266000396000f3fe6080604052600436106100915760003560e01c80639f6192e2116100595780639f6192e214610184578063a26e1186146101ad578063c022215c146101c9578063dce9b8d2146101f4578063f6153ccd1461021d57610091565b80632269c137146100965780632e1a7d4d146100d4578063313c06a0146100f05780636e8218aa1461011c5780639049050614610159575b600080fd5b3480156100a257600080fd5b506100bd60048036038101906100b89190610bcf565b610248565b6040516100cb929190610c4c565b60405180910390f35b6100ee60048036038101906100e99190610bcf565b61028c565b005b3480156100fc57600080fd5b506101056104f3565b604051610113929190610c4c565b60405180910390f35b34801561012857600080fd5b50610143600480360381019061013e9190610bcf565b610525565b6040516101509190610c75565b60405180910390f35b34801561016557600080fd5b5061016e610545565b60405161017b9190610c75565b60405180910390f35b34801561019057600080fd5b506101ab60048036038101906101a69190610d54565b610572565b005b6101c760048036038101906101c29190610f01565b6106b4565b005b3480156101d557600080fd5b506101de6108d9565b6040516101eb9190610c75565b60405180910390f35b34801561020057600080fd5b5061021b60048036038101906102169190610f4a565b6108e3565b005b34801561022957600080fd5b506102326109d6565b60405161023f9190610c75565b60405180910390f35b60046020528060005260406000206000915090508060000160009054906101000a900473ffffffffffffffffffffffffffffffffffffffff16908060010154905082565b3373ffffffffffffffffffffffffffffffffffffffff16600260009054906101000a900473ffffffffffffffffffffffffffffffffffffffff1673ffffffffffffffffffffffffffffffffffffffff16636352211e836040518263ffffffff1660e01b81526004016102fe9190610c75565b60206040518083038186803b15801561031657600080fd5b505afa15801561032a573d6000803e3d6000fd5b505050506040513d601f19601f8201168201806040525081019061034e9190610fec565b73ffffffffffffffffffffffffffffffffffffffff16146103a4576040517f08c379a000000000000000000000000000000000000000000000000000000000815260040161039b9061109c565b60405180910390fd5b600260009054906101000a900473ffffffffffffffffffffffffffffffffffffffff1673ffffffffffffffffffffffffffffffffffffffff1663ac7aae4233836040518363ffffffff1660e01b8152600401610401929190610c4c565b600060405180830381600087803b15801561041b57600080fd5b505af115801561042f573d6000803e3d6000fd5b505050506000600460008381526020019081526020016000206001015490506104583382610a75565b806003600082825461046a91906110eb565b9250508190555060046000838152602001908152602001600020600080820160006101000a81549073ffffffffffffffffffffffffffffffffffffffff0219169055600182016000905550507f19fa96afa1fdb8725e38d43cc1e54cd04c8b0c6d56327edbf1a68fcc97f5cf6982826040516104e792919061111f565b60405180910390a15050565b60008060000160009054906101000a900473ffffffffffffffffffffffffffffffffffffffff16908060010154905082565b600060046000838152602001908152602001600020600101549050919050565b60006103e8600354111561056a576103e86003546105639190611177565b905061056f565b600090505b90565b600061057c610545565b905060008114156105c2576040517f08c379a00000000000000000000000000000000000000000000000000000000081526004016105b99061121a565b60405180910390fd5b806003546105d091906110eb565b60038190555060008590508073ffffffffffffffffffffffffffffffffffffffff1663cc2b1e4783878787876040518663ffffffff1660e01b815260040161061b94939291906112cf565b6000604051808303818588803b15801561063457600080fd5b505af1158015610648573d6000803e3d6000fd5b50505050507f4b9cc83bad147ec7898483242ae23476e1ca47a22341f5a7ff99b66a95c9860c8585858560405161068294939291906112cf565b60405180910390a16106ac6040518060600160405280602881526020016115196028913983610ac0565b505050505050565b6000600260009054906101000a900473ffffffffffffffffffffffffffffffffffffffff1673ffffffffffffffffffffffffffffffffffffffff1663e2873c006040518163ffffffff1660e01b815260040160206040518083038186803b15801561071e57600080fd5b505afa158015610732573d6000803e3d6000fd5b505050506040513d601f19601f820116820180604052508101906107569190611329565b90506000349050600260009054906101000a900473ffffffffffffffffffffffffffffffffffffffff1673ffffffffffffffffffffffffffffffffffffffff1663d3fc98643384866040518463ffffffff1660e01b81526004016107bc939291906113cd565b600060405180830381600087803b1580156107d657600080fd5b505af11580156107ea573d6000803e3d6000fd5b5050505060405180604001604052803373ffffffffffffffffffffffffffffffffffffffff168152602001828152506004600084815260200190815260200160002060008201518160000160006101000a81548173ffffffffffffffffffffffffffffffffffffffff021916908373ffffffffffffffffffffffffffffffffffffffff160217905550602082015181600101559050508060036000828254610892919061140b565b925050819055507f58f404563b95470b692e55440726a70aa7629e8a5cc949a6f4a4e5d2ccf52b488284346040516108cc93929190611461565b60405180910390a1505050565b6000600354905090565b806003546108f191906110eb565b60038190555060008690508073ffffffffffffffffffffffffffffffffffffffff16635d63dc1883888888886040518663ffffffff1660e01b815260040161093c94939291906112cf565b6000604051808303818588803b15801561095557600080fd5b505af1158015610969573d6000803e3d6000fd5b50505050507f29674eb24e7500d7244dd09ee0fcc3bd671492b2c4d801d3420e306add169fe4868686856040516109a394939291906112cf565b60405180910390a16109cd6040518060600160405280602781526020016114f26027913983610ac0565b50505050505050565b60035481565b610a72816040516024016109f0919061149f565b6040516020818303038152906040527f41304fac000000000000000000000000000000000000000000000000000000007bffffffffffffffffffffffffffffffffffffffffffffffffffffffff19166020820180517bffffffffffffffffffffffffffffffffffffffffffffffffffffffff8381831617835250505050610b5c565b50565b8173ffffffffffffffffffffffffffffffffffffffff166108fc829081150290604051600060405180830381858888f19350505050158015610abb573d6000803e3d6000fd5b505050565b610b588282604051602401610ad69291906114c1565b6040516020818303038152906040527f9710a9d0000000000000000000000000000000000000000000000000000000007bffffffffffffffffffffffffffffffffffffffffffffffffffffffff19166020820180517bffffffffffffffffffffffffffffffffffffffffffffffffffffffff8381831617835250505050610b5c565b5050565b60008151905060006a636f6e736f6c652e6c6f679050602083016000808483855afa5050505050565b6000604051905090565b600080fd5b600080fd5b6000819050919050565b610bac81610b99565b8114610bb757600080fd5b50565b600081359050610bc981610ba3565b92915050565b600060208284031215610be557610be4610b8f565b5b6000610bf384828501610bba565b91505092915050565b600073ffffffffffffffffffffffffffffffffffffffff82169050919050565b6000610c2782610bfc565b9050919050565b610c3781610c1c565b82525050565b610c4681610b99565b82525050565b6000604082019050610c616000830185610c2e565b610c6e6020830184610c3d565b9392505050565b6000602082019050610c8a6000830184610c3d565b92915050565b610c9981610c1c565b8114610ca457600080fd5b50565b600081359050610cb681610c90565b92915050565b60038110610cc957600080fd5b50565b600081359050610cdb81610cbc565b92915050565b600060ff82169050919050565b610cf781610ce1565b8114610d0257600080fd5b50565b600081359050610d1481610cee565b92915050565b600061ffff82169050919050565b610d3181610d1a565b8114610d3c57600080fd5b50565b600081359050610d4e81610d28565b92915050565b60008060008060808587031215610d6e57610d6d610b8f565b5b6000610d7c87828801610ca7565b9450506020610d8d87828801610ccc565b9350506040610d9e87828801610d05565b9250506060610daf87828801610d3f565b91505092959194509250565b600080fd5b600080fd5b6000601f19601f8301169050919050565b7f4e487b7100000000000000000000000000000000000000000000000000000000600052604160045260246000fd5b610e0e82610dc5565b810181811067ffffffffffffffff82111715610e2d57610e2c610dd6565b5b80604052505050565b6000610e40610b85565b9050610e4c8282610e05565b919050565b600067ffffffffffffffff821115610e6c57610e6b610dd6565b5b610e7582610dc5565b9050602081019050919050565b82818337600083830152505050565b6000610ea4610e9f84610e51565b610e36565b905082815260208101848484011115610ec057610ebf610dc0565b5b610ecb848285610e82565b509392505050565b600082601f830112610ee857610ee7610dbb565b5b8135610ef8848260208601610e91565b91505092915050565b600060208284031215610f1757610f16610b8f565b5b600082013567ffffffffffffffff811115610f3557610f34610b94565b5b610f4184828501610ed3565b91505092915050565b60008060008060008060c08789031215610f6757610f66610b8f565b5b6000610f7589828a01610ca7565b9650506020610f8689828a01610ccc565b9550506040610f9789828a01610d05565b9450506060610fa889828a01610d3f565b9350506080610fb989828a01610bba565b92505060a0610fca89828a01610bba565b9150509295509295509295565b600081519050610fe681610c90565b92915050565b60006020828403121561100257611001610b8f565b5b600061101084828501610fd7565b91505092915050565b600082825260208201905092915050565b7f4d61726b65744d616b65723a207472616e736665722063616c6c65722069732060008201527f6e6f74206f776e65720000000000000000000000000000000000000000000000602082015250565b6000611086602983611019565b91506110918261102a565b604082019050919050565b600060208201905081810360008301526110b581611079565b9050919050565b7f4e487b7100000000000000000000000000000000000000000000000000000000600052601160045260246000fd5b60006110f682610b99565b915061110183610b99565b925082821015611114576111136110bc565b5b828203905092915050565b60006040820190506111346000830185610c3d565b6111416020830184610c3d565b9392505050565b7f4e487b7100000000000000000000000000000000000000000000000000000000600052601260045260246000fd5b600061118282610b99565b915061118d83610b99565b92508261119d5761119c611148565b5b828204905092915050565b7f496e73756666696369656e742046756e647320696e204c69717569646974792060008201527f506f6f6c00000000000000000000000000000000000000000000000000000000602082015250565b6000611204602483611019565b915061120f826111a8565b604082019050919050565b60006020820190508181036000830152611233816111f7565b9050919050565b7f4e487b7100000000000000000000000000000000000000000000000000000000600052602160045260246000fd5b6003811061127a5761127961123a565b5b50565b600081905061128b82611269565b919050565b600061129b8261127d565b9050919050565b6112ab81611290565b82525050565b6112ba81610ce1565b82525050565b6112c981610d1a565b82525050565b60006080820190506112e460008301876112a2565b6112f160208301866112b1565b6112fe60408301856112c0565b61130b6060830184610c3d565b95945050505050565b60008151905061132381610ba3565b92915050565b60006020828403121561133f5761133e610b8f565b5b600061134d84828501611314565b91505092915050565b600081519050919050565b60005b8381101561137f578082015181840152602081019050611364565b8381111561138e576000848401525b50505050565b600061139f82611356565b6113a98185611019565b93506113b9818560208601611361565b6113c281610dc5565b840191505092915050565b60006060820190506113e26000830186610c2e565b6113ef6020830185610c3d565b81810360408301526114018184611394565b9050949350505050565b600061141682610b99565b915061142183610b99565b9250827fffffffffffffffffffffffffffffffffffffffffffffffffffffffffffffffff03821115611456576114556110bc565b5b828201905092915050565b60006060820190506114766000830186610c3d565b81810360208301526114888185611394565b90506114976040830184610c3d565b949350505050565b600060208201905081810360008301526114b98184611394565b905092915050565b600060408201905081810360008301526114db8185611394565b90506114ea6020830184610c3d565b939250505056fe6372656174654f70706f73696e674c617942657420636f6d706c657465642e20416d6f756e743d6372656174654f70706f73696e674261636b42657420636f6d706c657465642e20416d6f756e743da2646970667358221220e612de0085b40129906e31016f876239c258625a8deb3b6e98c4e031146eeb1664736f6c63430008090033",
  "linkReferences": {},
  "deployedLinkReferences": {}
}