{
  "_format": "hh-sol-artifact-1",
  "contractName": "Manager",
  "sourceName": "contracts/Manager.sol",
  "abi": [
    {
      "inputs": [
        {
          "internalType": "address",
          "name": "_qiToken",
          "type": "address"
        }
      ],
      "stateMutability": "nonpayable",
      "type": "constructor"
    },
    {
      "anonymous": false,
      "inputs": [
        {
          "indexed": false,
          "internalType": "uint256",
          "name": "gameId",
          "type": "uint256"
        },
        {
          "indexed": false,
          "internalType": "enum BenqiLossless.BetSide",
          "name": "betside",
          "type": "uint8"
        },
        {
          "indexed": false,
          "internalType": "uint256",
          "name": "amount",
          "type": "uint256"
        }
      ],
      "name": "BetPlaced",
      "type": "event"
    },
    {
      "anonymous": false,
      "inputs": [
        {
          "indexed": false,
          "internalType": "uint256",
          "name": "gameId",
          "type": "uint256"
        },
        {
          "indexed": false,
          "internalType": "address",
          "name": "gameAddress",
          "type": "address"
        }
      ],
      "name": "GameCreated",
      "type": "event"
    },
    {
      "anonymous": false,
      "inputs": [
        {
          "indexed": false,
          "internalType": "uint256",
          "name": "gameId",
          "type": "uint256"
        },
        {
          "indexed": false,
          "internalType": "uint256",
          "name": "amount",
          "type": "uint256"
        }
      ],
      "name": "GameSponsored",
      "type": "event"
    },
    {
      "anonymous": false,
      "inputs": [
        {
          "indexed": true,
          "internalType": "address",
          "name": "previousOwner",
          "type": "address"
        },
        {
          "indexed": true,
          "internalType": "address",
          "name": "newOwner",
          "type": "address"
        }
      ],
      "name": "OwnershipTransferred",
      "type": "event"
    },
    {
      "anonymous": false,
      "inputs": [
        {
          "indexed": false,
          "internalType": "uint256",
          "name": "gameId",
          "type": "uint256"
        },
        {
          "indexed": false,
          "internalType": "address",
          "name": "winner",
          "type": "address"
        },
        {
          "indexed": false,
          "internalType": "uint256",
          "name": "amount",
          "type": "uint256"
        }
      ],
      "name": "Winner",
      "type": "event"
    },
    {
      "inputs": [
        {
          "internalType": "address",
          "name": "",
          "type": "address"
        }
      ],
      "name": "addressToGameId",
      "outputs": [
        {
          "internalType": "uint256",
          "name": "",
          "type": "uint256"
        }
      ],
      "stateMutability": "view",
      "type": "function"
    },
    {
      "inputs": [
        {
          "internalType": "address",
          "name": "_qiToken",
          "type": "address"
        },
        {
          "internalType": "uint256",
          "name": "_matchStartTime",
          "type": "uint256"
        },
        {
          "internalType": "uint256",
          "name": "_matchFinishTime",
          "type": "uint256"
        }
      ],
      "name": "create",
      "outputs": [],
      "stateMutability": "nonpayable",
      "type": "function"
    },
    {
      "inputs": [
        {
          "internalType": "string",
          "name": "_object",
          "type": "string"
        },
        {
          "internalType": "address",
          "name": "_qiToken",
          "type": "address"
        },
        {
          "internalType": "uint256",
          "name": "_matchStartTime",
          "type": "uint256"
        },
        {
          "internalType": "uint256",
          "name": "_matchFinishTime",
          "type": "uint256"
        }
      ],
      "name": "createDummy",
      "outputs": [],
      "stateMutability": "nonpayable",
      "type": "function"
    },
    {
      "inputs": [
        {
          "internalType": "uint256",
          "name": "",
          "type": "uint256"
        }
      ],
      "name": "gameIdToAddress",
      "outputs": [
        {
          "internalType": "address",
          "name": "",
          "type": "address"
        }
      ],
      "stateMutability": "view",
      "type": "function"
    },
    {
      "inputs": [
        {
          "internalType": "uint256",
          "name": "",
          "type": "uint256"
        },
        {
          "internalType": "address",
          "name": "",
          "type": "address"
        }
      ],
      "name": "gameIdToPlayerIn",
      "outputs": [
        {
          "internalType": "bool",
          "name": "",
          "type": "bool"
        }
      ],
      "stateMutability": "view",
      "type": "function"
    },
    {
      "inputs": [
        {
          "internalType": "uint256",
          "name": "",
          "type": "uint256"
        },
        {
          "internalType": "uint256",
          "name": "",
          "type": "uint256"
        }
      ],
      "name": "gameIdToPlayers",
      "outputs": [
        {
          "internalType": "address",
          "name": "",
          "type": "address"
        }
      ],
      "stateMutability": "view",
      "type": "function"
    },
    {
      "inputs": [
        {
          "internalType": "uint256",
          "name": "",
          "type": "uint256"
        }
      ],
      "name": "gameIdToTokenBalance",
      "outputs": [
        {
          "internalType": "uint256",
          "name": "",
          "type": "uint256"
        }
      ],
      "stateMutability": "view",
      "type": "function"
    },
    {
      "inputs": [
        {
          "internalType": "uint256",
          "name": "",
          "type": "uint256"
        }
      ],
      "name": "games",
      "outputs": [
        {
          "internalType": "contract BenqiLossless",
          "name": "",
          "type": "address"
        }
      ],
      "stateMutability": "view",
      "type": "function"
    },
    {
      "inputs": [],
      "name": "gamesCount",
      "outputs": [
        {
          "internalType": "uint256",
          "name": "",
          "type": "uint256"
        }
      ],
      "stateMutability": "view",
      "type": "function"
    },
    {
      "inputs": [
        {
          "internalType": "uint256",
          "name": "_gameId",
          "type": "uint256"
        }
      ],
      "name": "getQiTokenBalance",
      "outputs": [
        {
          "internalType": "uint256",
          "name": "",
          "type": "uint256"
        }
      ],
      "stateMutability": "view",
      "type": "function"
    },
    {
      "inputs": [],
      "name": "owner",
      "outputs": [
        {
          "internalType": "address",
          "name": "",
          "type": "address"
        }
      ],
      "stateMutability": "view",
      "type": "function"
    },
    {
      "inputs": [
        {
          "internalType": "uint256",
          "name": "_gameId",
          "type": "uint256"
        },
        {
          "internalType": "uint256",
          "name": "_betSide",
          "type": "uint256"
        }
      ],
      "name": "placeBet",
      "outputs": [],
      "stateMutability": "payable",
      "type": "function"
    },
    {
      "inputs": [
        {
          "internalType": "string",
          "name": "_gameId",
          "type": "string"
        },
        {
          "internalType": "uint256",
          "name": "_betSide",
          "type": "uint256"
        }
      ],
      "name": "placeBetDummy",
      "outputs": [],
      "stateMutability": "payable",
      "type": "function"
    },
    {
      "inputs": [
        {
          "internalType": "address",
          "name": "",
          "type": "address"
        }
      ],
      "name": "playerToBalance",
      "outputs": [
        {
          "internalType": "uint256",
          "name": "",
          "type": "uint256"
        }
      ],
      "stateMutability": "view",
      "type": "function"
    },
    {
      "inputs": [],
      "name": "qiToken",
      "outputs": [
        {
          "internalType": "contract QiAvaxInterface",
          "name": "",
          "type": "address"
        }
      ],
      "stateMutability": "view",
      "type": "function"
    },
    {
      "inputs": [],
      "name": "renounceOwnership",
      "outputs": [],
      "stateMutability": "nonpayable",
      "type": "function"
    },
    {
      "inputs": [
        {
          "internalType": "uint256",
          "name": "_gameId",
          "type": "uint256"
        },
        {
          "internalType": "uint256",
          "name": "_winningSide",
          "type": "uint256"
        }
      ],
      "name": "setMatchWinnerAndWithdrawFromPool",
      "outputs": [],
      "stateMutability": "nonpayable",
      "type": "function"
    },
    {
      "inputs": [
        {
          "internalType": "uint256",
          "name": "_gameId",
          "type": "uint256"
        }
      ],
      "name": "sponsor",
      "outputs": [],
      "stateMutability": "payable",
      "type": "function"
    },
    {
      "inputs": [
        {
          "internalType": "string",
          "name": "",
          "type": "string"
        }
      ],
      "name": "stringToAddress",
      "outputs": [
        {
          "internalType": "address",
          "name": "",
          "type": "address"
        }
      ],
      "stateMutability": "view",
      "type": "function"
    },
    {
      "inputs": [
        {
          "internalType": "address",
          "name": "newOwner",
          "type": "address"
        }
      ],
      "name": "transferOwnership",
      "outputs": [],
      "stateMutability": "nonpayable",
      "type": "function"
    },
    {
      "inputs": [],
      "name": "withdraw",
      "outputs": [],
      "stateMutability": "nonpayable",
      "type": "function"
    },
    {
      "stateMutability": "payable",
      "type": "receive"
    }
  ],
  "bytecode": "0x60806040523480156200001157600080fd5b5060405162005da438038062005da48339818101604052810190620000379190620001dd565b620000576200004b620000a760201b60201c565b620000af60201b60201c565b600060018190555080600360006101000a81548173ffffffffffffffffffffffffffffffffffffffff021916908373ffffffffffffffffffffffffffffffffffffffff160217905550506200020f565b600033905090565b60008060009054906101000a900473ffffffffffffffffffffffffffffffffffffffff169050816000806101000a81548173ffffffffffffffffffffffffffffffffffffffff021916908373ffffffffffffffffffffffffffffffffffffffff1602179055508173ffffffffffffffffffffffffffffffffffffffff168173ffffffffffffffffffffffffffffffffffffffff167f8be0079c531659141344cd1fd0a4f28419497f9722a3daafe3b4186f6b6457e060405160405180910390a35050565b600080fd5b600073ffffffffffffffffffffffffffffffffffffffff82169050919050565b6000620001a58262000178565b9050919050565b620001b78162000198565b8114620001c357600080fd5b50565b600081519050620001d781620001ac565b92915050565b600060208284031215620001f657620001f562000173565b5b60006200020684828501620001c6565b91505092915050565b615b85806200021f6000396000f3fe6080604052600436106200014b5760003560e01c80635165da3011620000bb5780638bae704011620000795780638bae704014620004625780638da5cb5b14620004a6578063a7503ac614620004d6578063b6cce5e2146200051a578063f2fde38b146200053a578063fb632b7c14620005685762000153565b80635165da3014620003645780635a9ec3bd14620003925780636d8dae8414620003d6578063715018a6146200041a5780637a1d61a814620004345762000153565b80633ccfd60b11620001095780633ccfd60b14620002885780633d29d0db14620002a25780633ded541814620002d0578063462e4cda14620003145780634afe62b514620003445762000153565b8063117a5b90146200015857806315706fdf146200019c578063166ec72314620001e05780633687df2b146200020057806336fba40914620002445762000153565b366200015357005b600080fd5b3480156200016557600080fd5b506200018460048036038101906200017e919062001f70565b62000598565b6040516200019391906200202d565b60405180910390f35b348015620001a957600080fd5b50620001c86004803603810190620001c29190620021ac565b620005d8565b604051620001d7919062002222565b60405180910390f35b620001fe6004803603810190620001f89190620022a8565b62000621565b005b3480156200020d57600080fd5b506200022c600480360381019062000226919062001f70565b620006ed565b6040516200023b919062002222565b60405180910390f35b3480156200025157600080fd5b506200027060048036038101906200026a919062002343565b62000720565b6040516200027f9190620023a7565b60405180910390f35b3480156200029557600080fd5b50620002a06200074f565b005b348015620002af57600080fd5b50620002ce6004803603810190620002c89190620023c4565b620008a8565b005b348015620002dd57600080fd5b50620002fc6004803603810190620002f69190620023c4565b62000e10565b6040516200030b919062002222565b60405180910390f35b3480156200032157600080fd5b506200032c62000e5f565b6040516200033b919062002444565b60405180910390f35b6200036260048036038101906200035c9190620023c4565b62000e85565b005b3480156200037157600080fd5b506200039060048036038101906200038a919062002461565b62001314565b005b3480156200039f57600080fd5b50620003be6004803603810190620003b89190620024bd565b62001538565b604051620003cd919062002500565b60405180910390f35b348015620003e357600080fd5b50620004026004803603810190620003fc919062001f70565b62001550565b60405162000411919062002500565b60405180910390f35b3480156200042757600080fd5b506200043262001568565b005b3480156200044157600080fd5b506200046060048036038101906200045a91906200251d565b620015f9565b005b3480156200046f57600080fd5b506200048e6004803603810190620004889190620024bd565b62001880565b6040516200049d919062002500565b60405180910390f35b348015620004b357600080fd5b50620004be62001898565b604051620004cd919062002222565b60405180910390f35b348015620004e357600080fd5b50620005026004803603810190620004fc919062001f70565b620018c1565b60405162000511919062002500565b60405180910390f35b62000538600480360381019062000532919062001f70565b620018de565b005b3480156200054757600080fd5b50620005666004803603810190620005609190620024bd565b62001d3d565b005b3480156200057557600080fd5b506200058062001e41565b6040516200058f919062002500565b60405180910390f35b60028181548110620005a957600080fd5b906000526020600020016000915054906101000a900473ffffffffffffffffffffffffffffffffffffffff1681565b600a818051602081018201805184825260208301602085012081835280955050505050506000915054906101000a900473ffffffffffffffffffffffffffffffffffffffff1681565b60003490506000600a85856040516200063c929190620025e7565b908152602001604051809103902060009054906101000a900473ffffffffffffffffffffffffffffffffffffffff16905060008190508073ffffffffffffffffffffffffffffffffffffffff1663f231a4f63385876040518463ffffffff1660e01b8152600401620006b19392919062002602565b600060405180830381600087803b158015620006cc57600080fd5b505af1158015620006e1573d6000803e3d6000fd5b50505050505050505050565b60046020528060005260406000206000915054906101000a900473ffffffffffffffffffffffffffffffffffffffff1681565b60086020528160005260406000206020528060005260406000206000915091509054906101000a900460ff1681565b6000600760003373ffffffffffffffffffffffffffffffffffffffff1673ffffffffffffffffffffffffffffffffffffffff1681526020019081526020016000205411620007d4576040517f08c379a0000000000000000000000000000000000000000000000000000000008152600401620007cb90620026a0565b60405180910390fd5b6000600760003373ffffffffffffffffffffffffffffffffffffffff1673ffffffffffffffffffffffffffffffffffffffff1681526020019081526020016000205490506000600760003373ffffffffffffffffffffffffffffffffffffffff1673ffffffffffffffffffffffffffffffffffffffff168152602001908152602001600020819055503373ffffffffffffffffffffffffffffffffffffffff166108fc829081150290604051600060405180830381858888f19350505050158015620008a4573d6000803e3d6000fd5b5050565b620008b262001e47565b73ffffffffffffffffffffffffffffffffffffffff16620008d262001898565b73ffffffffffffffffffffffffffffffffffffffff16146200092b576040517f08c379a0000000000000000000000000000000000000000000000000000000008152600401620009229062002712565b60405180910390fd5b60006004600084815260200190815260200160002060009054906101000a900473ffffffffffffffffffffffffffffffffffffffff169050600081905060008290508073ffffffffffffffffffffffffffffffffffffffff1663f8fd067f856040518263ffffffff1660e01b8152600401620009a8919062002500565b600060405180830381600087803b158015620009c357600080fd5b505af1158015620009d8573d6000803e3d6000fd5b50505050600047905060006006600088815260200190815260200160002054905060006006600089815260200190815260200160002081905550600360009054906101000a900473ffffffffffffffffffffffffffffffffffffffff1673ffffffffffffffffffffffffffffffffffffffff1663db006a75826040518263ffffffff1660e01b815260040162000a6f919062002500565b602060405180830381600087803b15801562000a8a57600080fd5b505af115801562000a9f573d6000803e3d6000fd5b505050506040513d601f19601f8201168201806040525081019062000ac591906200274b565b50600047905060005b600960008a81526020019081526020016000208054905081101562000c41576000600960008b8152602001908152602001600020828154811062000b175762000b166200277d565b5b9060005260206000200160009054906101000a900473ffffffffffffffffffffffffffffffffffffffff1690508673ffffffffffffffffffffffffffffffffffffffff16634e33f83b826040518263ffffffff1660e01b815260040162000b7f919062002222565b60206040518083038186803b15801562000b9857600080fd5b505afa15801562000bad573d6000803e3d6000fd5b505050506040513d601f19601f8201168201806040525081019062000bd391906200274b565b600760008373ffffffffffffffffffffffffffffffffffffffff1673ffffffffffffffffffffffffffffffffffffffff168152602001908152602001600020600082825462000c239190620027db565b9250508190555050808062000c389062002838565b91505062000ace565b5060008573ffffffffffffffffffffffffffffffffffffffff1663dfbf53ae6040518163ffffffff1660e01b815260040160206040518083038186803b15801562000c8b57600080fd5b505afa15801562000ca0573d6000803e3d6000fd5b505050506040513d601f19601f8201168201806040525081019062000cc691906200289d565b90508573ffffffffffffffffffffffffffffffffffffffff16637d8820976040518163ffffffff1660e01b815260040160206040518083038186803b15801562000d0f57600080fd5b505afa15801562000d24573d6000803e3d6000fd5b505050506040513d601f19601f8201168201806040525081019062000d4a91906200274b565b848362000d589190620028cf565b62000d649190620028cf565b600760008373ffffffffffffffffffffffffffffffffffffffff1673ffffffffffffffffffffffffffffffffffffffff168152602001908152602001600020600082825462000db49190620027db565b925050819055507f1c2ae1f7e99dbbbfe25aac964f3889ea68259d88b74709f53037a6fb930bb02a8982868562000dec9190620028cf565b60405162000dfd939291906200290a565b60405180910390a1505050505050505050565b6009602052816000526040600020818154811062000e2d57600080fd5b906000526020600020016000915091509054906101000a900473ffffffffffffffffffffffffffffffffffffffff1681565b600360009054906101000a900473ffffffffffffffffffffffffffffffffffffffff1681565b600034905060006004600085815260200190815260200160002060009054906101000a900473ffffffffffffffffffffffffffffffffffffffff1690506000600360009054906101000a900473ffffffffffffffffffffffffffffffffffffffff1673ffffffffffffffffffffffffffffffffffffffff166370a08231306040518263ffffffff1660e01b815260040162000f21919062002222565b60206040518083038186803b15801562000f3a57600080fd5b505afa15801562000f4f573d6000803e3d6000fd5b505050506040513d601f19601f8201168201806040525081019062000f7591906200274b565b9050600360009054906101000a900473ffffffffffffffffffffffffffffffffffffffff1673ffffffffffffffffffffffffffffffffffffffff16631249c58b846040518263ffffffff1660e01b81526004016000604051808303818588803b15801562000fe257600080fd5b505af115801562000ff7573d6000803e3d6000fd5b50505050506000600360009054906101000a900473ffffffffffffffffffffffffffffffffffffffff1673ffffffffffffffffffffffffffffffffffffffff166370a08231306040518263ffffffff1660e01b81526004016200105b919062002222565b60206040518083038186803b1580156200107457600080fd5b505afa15801562001089573d6000803e3d6000fd5b505050506040513d601f19601f82011682018060405250810190620010af91906200274b565b90508181620010bf9190620028cf565b600660008881526020019081526020016000206000828254620010e39190620027db565b9250508190555060008390508073ffffffffffffffffffffffffffffffffffffffff1663f231a4f63387896040518463ffffffff1660e01b81526004016200112e9392919062002602565b600060405180830381600087803b1580156200114957600080fd5b505af11580156200115e573d6000803e3d6000fd5b505050506008600088815260200190815260200160002060003373ffffffffffffffffffffffffffffffffffffffff1673ffffffffffffffffffffffffffffffffffffffff16815260200190815260200160002060009054906101000a900460ff16620012a35760016008600089815260200190815260200160002060003373ffffffffffffffffffffffffffffffffffffffff1673ffffffffffffffffffffffffffffffffffffffff16815260200190815260200160002060006101000a81548160ff02191690831515021790555060096000888152602001908152602001600020339080600181540180825580915050600190039060005260206000200160009091909190916101000a81548173ffffffffffffffffffffffffffffffffffffffff021916908373ffffffffffffffffffffffffffffffffffffffff1602179055505b600060018714620012c85760028714620012bf576003620012c2565b60025b620012cb565b60015b90507fffa237b01b68a7ca7b44fcf2b5546194ab8003cd7f3e51800b3d78e3cc56633f8882886040516200130293929190620029c7565b60405180910390a15050505050505050565b6200131e62001e47565b73ffffffffffffffffffffffffffffffffffffffff166200133e62001898565b73ffffffffffffffffffffffffffffffffffffffff161462001397576040517f08c379a00000000000000000000000000000000000000000000000000000000081526004016200138e9062002712565b60405180910390fd5b6000838383604051620013aa9062001f13565b620013b89392919062002602565b604051809103906000f080158015620013d5573d6000803e3d6000fd5b50905060008190508060046000600154815260200190815260200160002060006101000a81548173ffffffffffffffffffffffffffffffffffffffff021916908373ffffffffffffffffffffffffffffffffffffffff160217905550600154600560008373ffffffffffffffffffffffffffffffffffffffff1673ffffffffffffffffffffffffffffffffffffffff168152602001908152602001600020819055506002829080600181540180825580915050600190039060005260206000200160009091909190916101000a81548173ffffffffffffffffffffffffffffffffffffffff021916908373ffffffffffffffffffffffffffffffffffffffff1602179055507fc3e0f84839dc888c892a013d10c8f9d6dc05a21a879d0ce468ca558013e9121c600154826040516200150f92919062002a04565b60405180910390a1600160008154809291906200152c9062002838565b91905055505050505050565b60076020528060005260406000206000915090505481565b60066020528060005260406000206000915090505481565b6200157262001e47565b73ffffffffffffffffffffffffffffffffffffffff166200159262001898565b73ffffffffffffffffffffffffffffffffffffffff1614620015eb576040517f08c379a0000000000000000000000000000000000000000000000000000000008152600401620015e29062002712565b60405180910390fd5b620015f7600062001e4f565b565b6200160362001e47565b73ffffffffffffffffffffffffffffffffffffffff166200162362001898565b73ffffffffffffffffffffffffffffffffffffffff16146200167c576040517f08c379a0000000000000000000000000000000000000000000000000000000008152600401620016739062002712565b60405180910390fd5b60008383836040516200168f9062001f13565b6200169d9392919062002602565b604051809103906000f080158015620016ba573d6000803e3d6000fd5b509050600081905080600a8888604051620016d7929190620025e7565b908152602001604051809103902060006101000a81548173ffffffffffffffffffffffffffffffffffffffff021916908373ffffffffffffffffffffffffffffffffffffffff1602179055508060046000600154815260200190815260200160002060006101000a81548173ffffffffffffffffffffffffffffffffffffffff021916908373ffffffffffffffffffffffffffffffffffffffff160217905550600154600560008373ffffffffffffffffffffffffffffffffffffffff1673ffffffffffffffffffffffffffffffffffffffff168152602001908152602001600020819055506002829080600181540180825580915050600190039060005260206000200160009091909190916101000a81548173ffffffffffffffffffffffffffffffffffffffff021916908373ffffffffffffffffffffffffffffffffffffffff1602179055507fc3e0f84839dc888c892a013d10c8f9d6dc05a21a879d0ce468ca558013e9121c600154826040516200185592919062002a04565b60405180910390a160016000815480929190620018729062002838565b919050555050505050505050565b60056020528060005260406000206000915090505481565b60008060009054906101000a900473ffffffffffffffffffffffffffffffffffffffff16905090565b600060066000838152602001908152602001600020549050919050565b600034905060006004600084815260200190815260200160002060009054906101000a900473ffffffffffffffffffffffffffffffffffffffff1690506000600360009054906101000a900473ffffffffffffffffffffffffffffffffffffffff1673ffffffffffffffffffffffffffffffffffffffff166370a08231306040518263ffffffff1660e01b81526004016200197a919062002222565b60206040518083038186803b1580156200199357600080fd5b505afa158015620019a8573d6000803e3d6000fd5b505050506040513d601f19601f82011682018060405250810190620019ce91906200274b565b9050600360009054906101000a900473ffffffffffffffffffffffffffffffffffffffff1673ffffffffffffffffffffffffffffffffffffffff16631249c58b846040518263ffffffff1660e01b81526004016000604051808303818588803b15801562001a3b57600080fd5b505af115801562001a50573d6000803e3d6000fd5b50505050506000600360009054906101000a900473ffffffffffffffffffffffffffffffffffffffff1673ffffffffffffffffffffffffffffffffffffffff166370a08231306040518263ffffffff1660e01b815260040162001ab4919062002222565b60206040518083038186803b15801562001acd57600080fd5b505afa15801562001ae2573d6000803e3d6000fd5b505050506040513d601f19601f8201168201806040525081019062001b0891906200274b565b9050818162001b189190620028cf565b60066000878152602001908152602001600020600082825462001b3c9190620027db565b9250508190555060008390508073ffffffffffffffffffffffffffffffffffffffff166363ceb60d86336040518363ffffffff1660e01b815260040162001b8592919062002a04565b600060405180830381600087803b15801562001ba057600080fd5b505af115801562001bb5573d6000803e3d6000fd5b505050506008600087815260200190815260200160002060003373ffffffffffffffffffffffffffffffffffffffff1673ffffffffffffffffffffffffffffffffffffffff16815260200190815260200160002060009054906101000a900460ff1662001cfa5760016008600088815260200190815260200160002060003373ffffffffffffffffffffffffffffffffffffffff1673ffffffffffffffffffffffffffffffffffffffff16815260200190815260200160002060006101000a81548160ff02191690831515021790555060096000878152602001908152602001600020339080600181540180825580915050600190039060005260206000200160009091909190916101000a81548173ffffffffffffffffffffffffffffffffffffffff021916908373ffffffffffffffffffffffffffffffffffffffff1602179055505b7f9e7c06e4c47a691ee92667ba104d6a4b76ebc64843bd344585b70546774c497b868660405162001d2d92919062002a31565b60405180910390a1505050505050565b62001d4762001e47565b73ffffffffffffffffffffffffffffffffffffffff1662001d6762001898565b73ffffffffffffffffffffffffffffffffffffffff161462001dc0576040517f08c379a000000000000000000000000000000000000000000000000000000000815260040162001db79062002712565b60405180910390fd5b600073ffffffffffffffffffffffffffffffffffffffff168173ffffffffffffffffffffffffffffffffffffffff16141562001e33576040517f08c379a000000000000000000000000000000000000000000000000000000000815260040162001e2a9062002ad4565b60405180910390fd5b62001e3e8162001e4f565b50565b60015481565b600033905090565b60008060009054906101000a900473ffffffffffffffffffffffffffffffffffffffff169050816000806101000a81548173ffffffffffffffffffffffffffffffffffffffff021916908373ffffffffffffffffffffffffffffffffffffffff1602179055508173ffffffffffffffffffffffffffffffffffffffff168173ffffffffffffffffffffffffffffffffffffffff167f8be0079c531659141344cd1fd0a4f28419497f9722a3daafe3b4186f6b6457e060405160405180910390a35050565b6130598062002af783390190565b6000604051905090565b600080fd5b600080fd5b6000819050919050565b62001f4a8162001f35565b811462001f5657600080fd5b50565b60008135905062001f6a8162001f3f565b92915050565b60006020828403121562001f895762001f8862001f2b565b5b600062001f998482850162001f59565b91505092915050565b600073ffffffffffffffffffffffffffffffffffffffff82169050919050565b6000819050919050565b600062001fed62001fe762001fe18462001fa2565b62001fc2565b62001fa2565b9050919050565b6000620020018262001fcc565b9050919050565b6000620020158262001ff4565b9050919050565b620020278162002008565b82525050565b60006020820190506200204460008301846200201c565b92915050565b600080fd5b600080fd5b6000601f19601f8301169050919050565b7f4e487b7100000000000000000000000000000000000000000000000000000000600052604160045260246000fd5b6200209f8262002054565b810181811067ffffffffffffffff82111715620020c157620020c062002065565b5b80604052505050565b6000620020d662001f21565b9050620020e4828262002094565b919050565b600067ffffffffffffffff82111562002107576200210662002065565b5b620021128262002054565b9050602081019050919050565b82818337600083830152505050565b6000620021456200213f84620020e9565b620020ca565b9050828152602081018484840111156200216457620021636200204f565b5b620021718482856200211f565b509392505050565b600082601f8301126200219157620021906200204a565b5b8135620021a38482602086016200212e565b91505092915050565b600060208284031215620021c557620021c462001f2b565b5b600082013567ffffffffffffffff811115620021e657620021e562001f30565b5b620021f48482850162002179565b91505092915050565b60006200220a8262001fa2565b9050919050565b6200221c81620021fd565b82525050565b600060208201905062002239600083018462002211565b92915050565b600080fd5b600080fd5b60008083601f8401126200226257620022616200204a565b5b8235905067ffffffffffffffff8111156200228257620022816200223f565b5b602083019150836001820283011115620022a157620022a062002244565b5b9250929050565b600080600060408486031215620022c457620022c362001f2b565b5b600084013567ffffffffffffffff811115620022e557620022e462001f30565b5b620022f38682870162002249565b93509350506020620023088682870162001f59565b9150509250925092565b6200231d81620021fd565b81146200232957600080fd5b50565b6000813590506200233d8162002312565b92915050565b600080604083850312156200235d576200235c62001f2b565b5b60006200236d8582860162001f59565b925050602062002380858286016200232c565b9150509250929050565b60008115159050919050565b620023a1816200238a565b82525050565b6000602082019050620023be600083018462002396565b92915050565b60008060408385031215620023de57620023dd62001f2b565b5b6000620023ee8582860162001f59565b9250506020620024018582860162001f59565b9150509250929050565b6000620024188262001fcc565b9050919050565b60006200242c826200240b565b9050919050565b6200243e816200241f565b82525050565b60006020820190506200245b600083018462002433565b92915050565b6000806000606084860312156200247d576200247c62001f2b565b5b60006200248d868287016200232c565b9350506020620024a08682870162001f59565b9250506040620024b38682870162001f59565b9150509250925092565b600060208284031215620024d657620024d562001f2b565b5b6000620024e6848285016200232c565b91505092915050565b620024fa8162001f35565b82525050565b6000602082019050620025176000830184620024ef565b92915050565b6000806000806000608086880312156200253c576200253b62001f2b565b5b600086013567ffffffffffffffff8111156200255d576200255c62001f30565b5b6200256b8882890162002249565b9550955050602062002580888289016200232c565b9350506040620025938882890162001f59565b9250506060620025a68882890162001f59565b9150509295509295909350565b600081905092915050565b6000620025cc8385620025b3565b9350620025db8385846200211f565b82840190509392505050565b6000620025f6828486620025be565b91508190509392505050565b600060608201905062002619600083018662002211565b620026286020830185620024ef565b620026376040830184620024ef565b949350505050565b600082825260208201905092915050565b7f62616c616e6365206973207a65726f0000000000000000000000000000000000600082015250565b600062002688600f836200263f565b9150620026958262002650565b602082019050919050565b60006020820190508181036000830152620026bb8162002679565b9050919050565b7f4f776e61626c653a2063616c6c6572206973206e6f7420746865206f776e6572600082015250565b6000620026fa6020836200263f565b91506200270782620026c2565b602082019050919050565b600060208201905081810360008301526200272d81620026eb565b9050919050565b600081519050620027458162001f3f565b92915050565b60006020828403121562002764576200276362001f2b565b5b6000620027748482850162002734565b91505092915050565b7f4e487b7100000000000000000000000000000000000000000000000000000000600052603260045260246000fd5b7f4e487b7100000000000000000000000000000000000000000000000000000000600052601160045260246000fd5b6000620027e88262001f35565b9150620027f58362001f35565b9250827fffffffffffffffffffffffffffffffffffffffffffffffffffffffffffffffff038211156200282d576200282c620027ac565b5b828201905092915050565b6000620028458262001f35565b91507fffffffffffffffffffffffffffffffffffffffffffffffffffffffffffffffff8214156200287b576200287a620027ac565b5b600182019050919050565b600081519050620028978162002312565b92915050565b600060208284031215620028b657620028b562001f2b565b5b6000620028c68482850162002886565b91505092915050565b6000620028dc8262001f35565b9150620028e98362001f35565b925082821015620028ff57620028fe620027ac565b5b828203905092915050565b6000606082019050620029216000830186620024ef565b62002930602083018562002211565b6200293f6040830184620024ef565b949350505050565b7f4e487b7100000000000000000000000000000000000000000000000000000000600052602160045260246000fd5b600481106200298a576200298962002947565b5b50565b60008190506200299d8262002976565b919050565b6000620029af826200298d565b9050919050565b620029c181620029a2565b82525050565b6000606082019050620029de6000830186620024ef565b620029ed6020830185620029b6565b620029fc6040830184620024ef565b949350505050565b600060408201905062002a1b6000830185620024ef565b62002a2a602083018462002211565b9392505050565b600060408201905062002a486000830185620024ef565b62002a576020830184620024ef565b9392505050565b7f4f776e61626c653a206e6577206f776e657220697320746865207a65726f206160008201527f6464726573730000000000000000000000000000000000000000000000000000602082015250565b600062002abc6026836200263f565b915062002ac98262002a5e565b604082019050919050565b6000602082019050818103600083015262002aef8162002aad565b905091905056fe60806040523480156200001157600080fd5b5060405162003059380380620030598339818101604052810190620000379190620002ee565b8181620000596200004d6200017d60201b60201c565b6200018560201b60201c565b60008060146101000a81548160ff021916908360018111156200008157620000806200034a565b5b02179055508160018190555080600281905550505060008060146101000a81548160ff02191690836001811115620000be57620000bd6200034a565b5b021790555082601660016101000a81548173ffffffffffffffffffffffffffffffffffffffff021916908373ffffffffffffffffffffffffffffffffffffffff1602179055506000601660006101000a81548160ff021916908360038111156200012d576200012c6200034a565b5b02179055506000601460006101000a81548173ffffffffffffffffffffffffffffffffffffffff021916908373ffffffffffffffffffffffffffffffffffffffff16021790555050505062000379565b600033905090565b60008060009054906101000a900473ffffffffffffffffffffffffffffffffffffffff169050816000806101000a81548173ffffffffffffffffffffffffffffffffffffffff021916908373ffffffffffffffffffffffffffffffffffffffff1602179055508173ffffffffffffffffffffffffffffffffffffffff168173ffffffffffffffffffffffffffffffffffffffff167f8be0079c531659141344cd1fd0a4f28419497f9722a3daafe3b4186f6b6457e060405160405180910390a35050565b600080fd5b600073ffffffffffffffffffffffffffffffffffffffff82169050919050565b60006200027b826200024e565b9050919050565b6200028d816200026e565b81146200029957600080fd5b50565b600081519050620002ad8162000282565b92915050565b6000819050919050565b620002c881620002b3565b8114620002d457600080fd5b50565b600081519050620002e881620002bd565b92915050565b6000806000606084860312156200030a576200030962000249565b5b60006200031a868287016200029c565b93505060206200032d86828701620002d7565b92505060406200034086828701620002d7565b9150509250925092565b7f4e487b7100000000000000000000000000000000000000000000000000000000600052602160045260246000fd5b612cd080620003896000396000f3fe6080604052600436106101e75760003560e01c80638da5cb5b11610102578063c7b8cad511610095578063e11f3f7711610064578063e11f3f7714610701578063e8eaca751461072c578063f2fde38b14610757578063fbf0633814610780576101ee565b8063c7b8cad514610631578063c9ca03cd1461066e578063d9d5216014610699578063dfbf53ae146106d6576101ee565b8063b3db3ced116100d1578063b3db3ced14610561578063b810fe8d1461059e578063c003aef3146105db578063c69de22414610606576101ee565b80638da5cb5b1461047f57806391c54ca4146104aa578063aa236df4146104e7578063ad9ed66e14610524576101ee565b80634e33f83b1161017a57806377c936621161014957806377c93662146103e2578063788e26e7146103ec57806379db8a13146104175780637d88209714610454576101ee565b80634e33f83b1461033a5780634ec1629e14610377578063645a0047146103a2578063715018a6146103cb576101ee565b806336201e53116101b657806336201e53146102b15780633ccfd60b146102dc57806343046844146102f3578063462e4cda1461030f576101ee565b80630873d9ec146101f357806309126f081461021e578063200d2ed21461025b5780633255d45114610286576101ee565b366101ee57005b600080fd5b3480156101ff57600080fd5b506102086107ab565b6040516102159190612313565b60405180910390f35b34801561022a57600080fd5b5061024560048036038101906102409190612391565b6107b1565b6040516102529190612313565b60405180910390f35b34801561026757600080fd5b506102706107c9565b60405161027d9190612435565b60405180910390f35b34801561029257600080fd5b5061029b6107dc565b6040516102a89190612313565b60405180910390f35b3480156102bd57600080fd5b506102c66107e2565b6040516102d39190612313565b60405180910390f35b3480156102e857600080fd5b506102f16107e8565b005b61030d60048036038101906103089190612475565b6109b2565b005b34801561031b57600080fd5b50610324610d1e565b6040516103319190612501565b60405180910390f35b34801561034657600080fd5b50610361600480360381019061035c9190612391565b610d44565b60405161036e9190612313565b60405180910390f35b34801561038357600080fd5b5061038c610d5c565b6040516103999190612313565b60405180910390f35b3480156103ae57600080fd5b506103c960048036038101906103c49190612475565b610e0e565b005b3480156103d757600080fd5b506103e061118c565b005b6103ea611214565b005b3480156103f857600080fd5b50610401611424565b60405161040e9190612313565b60405180910390f35b34801561042357600080fd5b5061043e60048036038101906104399190612548565b61142a565b60405161044b9190612313565b60405180910390f35b34801561046057600080fd5b5061046961144e565b6040516104769190612313565b60405180910390f35b34801561048b57600080fd5b50610494611454565b6040516104a19190612584565b60405180910390f35b3480156104b657600080fd5b506104d160048036038101906104cc9190612548565b61147d565b6040516104de9190612584565b60405180910390f35b3480156104f357600080fd5b5061050e60048036038101906105099190612548565b6114b0565b60405161051b9190612584565b60405180910390f35b34801561053057600080fd5b5061054b60048036038101906105469190612548565b6114e3565b6040516105589190612313565b60405180910390f35b34801561056d57600080fd5b5061058860048036038101906105839190612548565b611507565b6040516105959190612313565b60405180910390f35b3480156105aa57600080fd5b506105c560048036038101906105c09190612391565b61152b565b6040516105d29190612313565b60405180910390f35b3480156105e757600080fd5b506105f0611543565b6040516105fd9190612313565b60405180910390f35b34801561061257600080fd5b5061061b611549565b6040516106289190612313565b60405180910390f35b34801561063d57600080fd5b5061065860048036038101906106539190612391565b61154f565b6040516106659190612313565b60405180910390f35b34801561067a57600080fd5b50610683611567565b6040516106909190612313565b60405180910390f35b3480156106a557600080fd5b506106c060048036038101906106bb9190612548565b61156d565b6040516106cd9190612584565b60405180910390f35b3480156106e257600080fd5b506106eb6115a0565b6040516106f89190612584565b60405180910390f35b34801561070d57600080fd5b506107166115c6565b6040516107239190612313565b60405180910390f35b34801561073857600080fd5b506107416115cc565b60405161074e9190612313565b60405180910390f35b34801561076357600080fd5b5061077e60048036038101906107799190612391565b6115d2565b005b34801561078c57600080fd5b506107956116ca565b6040516107a291906125e7565b60405180910390f35b60085481565b60116020528060005260406000206000915090505481565b600060149054906101000a900460ff1681565b60025481565b60045481565b6001808111156107fb576107fa6123be565b5b600060149054906101000a900460ff16600181111561081d5761081c6123be565b5b1461085d576040517f08c379a00000000000000000000000000000000000000000000000000000000081526004016108549061265f565b60405180910390fd5b6000601060003373ffffffffffffffffffffffffffffffffffffffff1673ffffffffffffffffffffffffffffffffffffffff16815260200190815260200160002054116108df576040517f08c379a00000000000000000000000000000000000000000000000000000000081526004016108d6906126cb565b60405180910390fd5b6000601060003373ffffffffffffffffffffffffffffffffffffffff1673ffffffffffffffffffffffffffffffffffffffff1681526020019081526020016000205490506000601060003373ffffffffffffffffffffffffffffffffffffffff1673ffffffffffffffffffffffffffffffffffffffff168152602001908152602001600020819055503373ffffffffffffffffffffffffffffffffffffffff166108fc829081150290604051600060405180830381858888f193505050501580156109ae573d6000803e3d6000fd5b5050565b600060018111156109c6576109c56123be565b5b600060149054906101000a900460ff1660018111156109e8576109e76123be565b5b14610a28576040517f08c379a0000000000000000000000000000000000000000000000000000000008152600401610a1f90612737565b60405180910390fd5b6001544210610a6c576040517f08c379a0000000000000000000000000000000000000000000000000000000008152600401610a63906127a3565b60405180910390fd5b8060016003811115610a8157610a806123be565b5b816003811115610a9457610a936123be565b5b1480610ac35750600380811115610aae57610aad6123be565b5b816003811115610ac157610ac06123be565b5b145b80610af2575060026003811115610add57610adc6123be565b5b816003811115610af057610aef6123be565b5b145b610b31576040517f08c379a0000000000000000000000000000000000000000000000000000000008152600401610b289061280f565b60405180910390fd5b60003411610b74576040517f08c379a0000000000000000000000000000000000000000000000000000000008152600401610b6b9061287b565b60405180910390fd5b600034905060016003811115610b8d57610b8c6123be565b5b836003811115610ba057610b9f6123be565b5b1415610bb457610baf816116dd565b610c27565b600380811115610bc757610bc66123be565b5b836003811115610bda57610bd96123be565b5b1415610bee57610be98161180c565b610c26565b60026003811115610c0257610c016123be565b5b836003811115610c1557610c146123be565b5b1415610c2557610c248161193b565b5b5b5b601660019054906101000a900473ffffffffffffffffffffffffffffffffffffffff1673ffffffffffffffffffffffffffffffffffffffff16631249c58b826040518263ffffffff1660e01b81526004016000604051808303818588803b158015610c9157600080fd5b505af1158015610ca5573d6000803e3d6000fd5b50505050508060036000828254610cbc91906128ca565b9250508190555080601060003373ffffffffffffffffffffffffffffffffffffffff1673ffffffffffffffffffffffffffffffffffffffff1681526020019081526020016000206000828254610d1291906128ca565b92505081905550505050565b601660019054906101000a900473ffffffffffffffffffffffffffffffffffffffff1681565b60106020528060005260406000206000915090505481565b6000601660019054906101000a900473ffffffffffffffffffffffffffffffffffffffff1673ffffffffffffffffffffffffffffffffffffffff166370a08231306040518263ffffffff1660e01b8152600401610db99190612584565b60206040518083038186803b158015610dd157600080fd5b505afa158015610de5573d6000803e3d6000fd5b505050506040513d601f19601f82011682018060405250810190610e099190612935565b905090565b610e16611a6a565b73ffffffffffffffffffffffffffffffffffffffff16610e34611454565b73ffffffffffffffffffffffffffffffffffffffff1614610e8a576040517f08c379a0000000000000000000000000000000000000000000000000000000008152600401610e81906129ae565b60405180910390fd5b8060016003811115610e9f57610e9e6123be565b5b816003811115610eb257610eb16123be565b5b1480610ee15750600380811115610ecc57610ecb6123be565b5b816003811115610edf57610ede6123be565b5b145b80610f10575060026003811115610efb57610efa6123be565b5b816003811115610f0e57610f0d6123be565b5b145b610f4f576040517f08c379a0000000000000000000000000000000000000000000000000000000008152600401610f469061280f565b60405180910390fd5b60006001811115610f6357610f626123be565b5b600060149054906101000a900460ff166001811115610f8557610f846123be565b5b14610fc5576040517f08c379a0000000000000000000000000000000000000000000000000000000008152600401610fbc90612a1a565b60405180910390fd5b6001600060146101000a81548160ff02191690836001811115610feb57610fea6123be565b5b021790555081601660006101000a81548160ff02191690836003811115611015576110146123be565b5b02179055506000601660019054906101000a900473ffffffffffffffffffffffffffffffffffffffff1673ffffffffffffffffffffffffffffffffffffffff166370a08231306040518263ffffffff1660e01b81526004016110779190612584565b60206040518083038186803b15801561108f57600080fd5b505afa1580156110a3573d6000803e3d6000fd5b505050506040513d601f19601f820116820180604052508101906110c79190612935565b9050601660019054906101000a900473ffffffffffffffffffffffffffffffffffffffff1673ffffffffffffffffffffffffffffffffffffffff1663db006a75826040518263ffffffff1660e01b81526004016111249190612313565b602060405180830381600087803b15801561113e57600080fd5b505af1158015611152573d6000803e3d6000fd5b505050506040513d601f19601f820116820180604052508101906111769190612935565b5061117f611a72565b611187611c0c565b505050565b611194611a6a565b73ffffffffffffffffffffffffffffffffffffffff166111b2611454565b73ffffffffffffffffffffffffffffffffffffffff1614611208576040517f08c379a00000000000000000000000000000000000000000000000000000000081526004016111ff906129ae565b60405180910390fd5b6112126000611c99565b565b60006001811115611228576112276123be565b5b600060149054906101000a900460ff16600181111561124a576112496123be565b5b1461128a576040517f08c379a000000000000000000000000000000000000000000000000000000000815260040161128190612737565b60405180910390fd5b60015442106112ce576040517f08c379a00000000000000000000000000000000000000000000000000000000081526004016112c5906127a3565b60405180910390fd5b60003411611311576040517f08c379a00000000000000000000000000000000000000000000000000000000081526004016113089061287b565b60405180910390fd5b6000349050601660019054906101000a900473ffffffffffffffffffffffffffffffffffffffff1673ffffffffffffffffffffffffffffffffffffffff16631249c58b826040518263ffffffff1660e01b81526004016000604051808303818588803b15801561138057600080fd5b505af1158015611394573d6000803e3d6000fd5b505050505080600360008282546113ab91906128ca565b9250508190555080601560008282546113c491906128ca565b9250508190555080601060003373ffffffffffffffffffffffffffffffffffffffff1673ffffffffffffffffffffffffffffffffffffffff168152602001908152602001600020600082825461141a91906128ca565b9250508190555050565b60155481565b600b818154811061143a57600080fd5b906000526020600020016000915090505481565b60035481565b60008060009054906101000a900473ffffffffffffffffffffffffffffffffffffffff16905090565b600f6020528060005260406000206000915054906101000a900473ffffffffffffffffffffffffffffffffffffffff1681565b600e6020528060005260406000206000915054906101000a900473ffffffffffffffffffffffffffffffffffffffff1681565b600a81815481106114f357600080fd5b906000526020600020016000915090505481565b600c818154811061151757600080fd5b906000526020600020016000915090505481565b60136020528060005260406000206000915090505481565b60065481565b60095481565b60126020528060005260406000206000915090505481565b60015481565b600d6020528060005260406000206000915054906101000a900473ffffffffffffffffffffffffffffffffffffffff1681565b601460009054906101000a900473ffffffffffffffffffffffffffffffffffffffff1681565b60055481565b60075481565b6115da611a6a565b73ffffffffffffffffffffffffffffffffffffffff166115f8611454565b73ffffffffffffffffffffffffffffffffffffffff161461164e576040517f08c379a0000000000000000000000000000000000000000000000000000000008152600401611645906129ae565b60405180910390fd5b600073ffffffffffffffffffffffffffffffffffffffff168173ffffffffffffffffffffffffffffffffffffffff1614156116be576040517f08c379a00000000000000000000000000000000000000000000000000000000081526004016116b590612aac565b60405180910390fd5b6116c781611c99565b50565b601660009054906101000a900460ff1681565b60004290506000816001546116f29190612acc565b836116fd9190612b00565b905080601160003373ffffffffffffffffffffffffffffffffffffffff1673ffffffffffffffffffffffffffffffffffffffff168152602001908152602001600020600082825461174e91906128ca565b92505081905550806004600082825461176791906128ca565b92505081905550600a600454908060018154018082558091505060019003906000526020600020016000909190919091505533600d6000600754815260200190815260200160002060006101000a81548173ffffffffffffffffffffffffffffffffffffffff021916908373ffffffffffffffffffffffffffffffffffffffff16021790555060016007600082825461180091906128ca565b92505081905550505050565b60004290506000816001546118219190612acc565b8361182c9190612b00565b905080601360003373ffffffffffffffffffffffffffffffffffffffff1673ffffffffffffffffffffffffffffffffffffffff168152602001908152602001600020600082825461187d91906128ca565b92505081905550806006600082825461189691906128ca565b92505081905550600c600654908060018154018082558091505060019003906000526020600020016000909190919091505533600f6000600954815260200190815260200160002060006101000a81548173ffffffffffffffffffffffffffffffffffffffff021916908373ffffffffffffffffffffffffffffffffffffffff16021790555060016009600082825461192f91906128ca565b92505081905550505050565b60004290506000816001546119509190612acc565b8361195b9190612b00565b905080601260003373ffffffffffffffffffffffffffffffffffffffff1673ffffffffffffffffffffffffffffffffffffffff16815260200190815260200160002060008282546119ac91906128ca565b9250508190555080600560008282546119c591906128ca565b92505081905550600b600554908060018154018082558091505060019003906000526020600020016000909190919091505533600e6000600754815260200190815260200160002060006101000a81548173ffffffffffffffffffffffffffffffffffffffff021916908373ffffffffffffffffffffffffffffffffffffffff160217905550600160086000828254611a5e91906128ca565b92505081905550505050565b600033905090565b60016003811115611a8657611a856123be565b5b601660009054906101000a900460ff166003811115611aa857611aa76123be565b5b1415611afb57611ab6611d5d565b601460006101000a81548173ffffffffffffffffffffffffffffffffffffffff021916908373ffffffffffffffffffffffffffffffffffffffff160217905550611c0a565b600380811115611b0e57611b0d6123be565b5b601660009054906101000a900460ff166003811115611b3057611b2f6123be565b5b1415611b8357611b3e611f27565b601460006101000a81548173ffffffffffffffffffffffffffffffffffffffff021916908373ffffffffffffffffffffffffffffffffffffffff160217905550611c09565b60026003811115611b9757611b966123be565b5b601660009054906101000a900460ff166003811115611bb957611bb86123be565b5b1415611c0857611bc76120f1565b601460006101000a81548173ffffffffffffffffffffffffffffffffffffffff021916908373ffffffffffffffffffffffffffffffffffffffff1602179055505b5b5b565b600060035447611c1c9190612acc565b90508060106000601460009054906101000a900473ffffffffffffffffffffffffffffffffffffffff1673ffffffffffffffffffffffffffffffffffffffff1673ffffffffffffffffffffffffffffffffffffffff1681526020019081526020016000206000828254611c8f91906128ca565b9250508190555050565b60008060009054906101000a900473ffffffffffffffffffffffffffffffffffffffff169050816000806101000a81548173ffffffffffffffffffffffffffffffffffffffff021916908373ffffffffffffffffffffffffffffffffffffffff1602179055508173ffffffffffffffffffffffffffffffffffffffff168173ffffffffffffffffffffffffffffffffffffffff167f8be0079c531659141344cd1fd0a4f28419497f9722a3daafe3b4186f6b6457e060405160405180910390a35050565b600080611d686122bb565b905060045481611d789190612b89565b9050600a600081548110611d8f57611d8e612bba565b5b9060005260206000200154811015611ddd57600d600080815260200190815260200160002060009054906101000a900473ffffffffffffffffffffffffffffffffffffffff16915050611f24565b60006001600a80549050611df19190612acc565b905060005b818111611eea57600060028284611e0d9190612acc565b611e179190612be9565b82611e2291906128ca565b9050600a8181548110611e3857611e37612bba565b5b9060005260206000200154841015611e5e57600181611e579190612acc565b9250611ee4565b600a8181548110611e7257611e71612bba565b5b9060005260206000200154841115611e9857600181611e9191906128ca565b9150611ee3565b600d6000600183611ea991906128ca565b815260200190815260200160002060009054906101000a900473ffffffffffffffffffffffffffffffffffffffff16945050505050611f24565b5b50611df6565b600d600082815260200190815260200160002060009054906101000a900473ffffffffffffffffffffffffffffffffffffffff1693505050505b90565b600080611f326122bb565b905060065481611f429190612b89565b9050600c600081548110611f5957611f58612bba565b5b9060005260206000200154811015611fa757600f600080815260200190815260200160002060009054906101000a900473ffffffffffffffffffffffffffffffffffffffff169150506120ee565b60006001600c80549050611fbb9190612acc565b905060005b8181116120b457600060028284611fd79190612acc565b611fe19190612be9565b82611fec91906128ca565b9050600c818154811061200257612001612bba565b5b9060005260206000200154841015612028576001816120219190612acc565b92506120ae565b600c818154811061203c5761203b612bba565b5b90600052602060002001548411156120625760018161205b91906128ca565b91506120ad565b600f600060018361207391906128ca565b815260200190815260200160002060009054906101000a900473ffffffffffffffffffffffffffffffffffffffff169450505050506120ee565b5b50611fc0565b600f600082815260200190815260200160002060009054906101000a900473ffffffffffffffffffffffffffffffffffffffff1693505050505b90565b6000806120fc6122bb565b90506005548161210c9190612b89565b9050600b60008154811061212357612122612bba565b5b906000526020600020015481101561217157600e600080815260200190815260200160002060009054906101000a900473ffffffffffffffffffffffffffffffffffffffff169150506122b8565b60006001600b805490506121859190612acc565b905060005b81811161227e576000600282846121a19190612acc565b6121ab9190612be9565b826121b691906128ca565b9050600b81815481106121cc576121cb612bba565b5b90600052602060002001548410156121f2576001816121eb9190612acc565b9250612278565b600b818154811061220657612205612bba565b5b906000526020600020015484111561222c5760018161222591906128ca565b9150612277565b600e600060018361223d91906128ca565b815260200190815260200160002060009054906101000a900473ffffffffffffffffffffffffffffffffffffffff169450505050506122b8565b5b5061218a565b600e600082815260200190815260200160002060009054906101000a900473ffffffffffffffffffffffffffffffffffffffff1693505050505b90565b600044426003546001546002546040516020016122dc959493929190612c3b565b6040516020818303038152906040528051906020012060001c905090565b6000819050919050565b61230d816122fa565b82525050565b60006020820190506123286000830184612304565b92915050565b600080fd5b600073ffffffffffffffffffffffffffffffffffffffff82169050919050565b600061235e82612333565b9050919050565b61236e81612353565b811461237957600080fd5b50565b60008135905061238b81612365565b92915050565b6000602082840312156123a7576123a661232e565b5b60006123b58482850161237c565b91505092915050565b7f4e487b7100000000000000000000000000000000000000000000000000000000600052602160045260246000fd5b600281106123fe576123fd6123be565b5b50565b600081905061240f826123ed565b919050565b600061241f82612401565b9050919050565b61242f81612414565b82525050565b600060208201905061244a6000830184612426565b92915050565b6004811061245d57600080fd5b50565b60008135905061246f81612450565b92915050565b60006020828403121561248b5761248a61232e565b5b600061249984828501612460565b91505092915050565b6000819050919050565b60006124c76124c26124bd84612333565b6124a2565b612333565b9050919050565b60006124d9826124ac565b9050919050565b60006124eb826124ce565b9050919050565b6124fb816124e0565b82525050565b600060208201905061251660008301846124f2565b92915050565b612525816122fa565b811461253057600080fd5b50565b6000813590506125428161251c565b92915050565b60006020828403121561255e5761255d61232e565b5b600061256c84828501612533565b91505092915050565b61257e81612353565b82525050565b60006020820190506125996000830184612575565b92915050565b600481106125b0576125af6123be565b5b50565b60008190506125c18261259f565b919050565b60006125d1826125b3565b9050919050565b6125e1816125c6565b82525050565b60006020820190506125fc60008301846125d8565b92915050565b600082825260208201905092915050565b7f4d61746368206e6f742070616964000000000000000000000000000000000000600082015250565b6000612649600e83612602565b915061265482612613565b602082019050919050565b600060208201905081810360008301526126788161263c565b9050919050565b7f62616c616e6365206973207a65726f0000000000000000000000000000000000600082015250565b60006126b5600f83612602565b91506126c08261267f565b602082019050919050565b600060208201905081810360008301526126e4816126a8565b9050919050565b7f4d61746368206e6f74206f70656e000000000000000000000000000000000000600082015250565b6000612721600e83612602565b915061272c826126eb565b602082019050919050565b6000602082019050818103600083015261275081612714565b9050919050565b7f43616e7420706c61636520626574206e6f770000000000000000000000000000600082015250565b600061278d601283612602565b915061279882612757565b602082019050919050565b600060208201905081810360008301526127bc81612780565b9050919050565b7f696e76616c696420617267756d656e7420666f72206265737469646500000000600082015250565b60006127f9601c83612602565b9150612804826127c3565b602082019050919050565b60006020820190508181036000830152612828816127ec565b9050919050565b7f616d6f756e74206d75737420626520706f736974696600000000000000000000600082015250565b6000612865601683612602565b91506128708261282f565b602082019050919050565b6000602082019050818103600083015261289481612858565b9050919050565b7f4e487b7100000000000000000000000000000000000000000000000000000000600052601160045260246000fd5b60006128d5826122fa565b91506128e0836122fa565b9250827fffffffffffffffffffffffffffffffffffffffffffffffffffffffffffffffff038211156129155761291461289b565b5b828201905092915050565b60008151905061292f8161251c565b92915050565b60006020828403121561294b5761294a61232e565b5b600061295984828501612920565b91505092915050565b7f4f776e61626c653a2063616c6c6572206973206e6f7420746865206f776e6572600082015250565b6000612998602083612602565b91506129a382612962565b602082019050919050565b600060208201905081810360008301526129c78161298b565b9050919050565b7f43616e7420736574746c652074686973206d6174636800000000000000000000600082015250565b6000612a04601683612602565b9150612a0f826129ce565b602082019050919050565b60006020820190508181036000830152612a33816129f7565b9050919050565b7f4f776e61626c653a206e6577206f776e657220697320746865207a65726f206160008201527f6464726573730000000000000000000000000000000000000000000000000000602082015250565b6000612a96602683612602565b9150612aa182612a3a565b604082019050919050565b60006020820190508181036000830152612ac581612a89565b9050919050565b6000612ad7826122fa565b9150612ae2836122fa565b925082821015612af557612af461289b565b5b828203905092915050565b6000612b0b826122fa565b9150612b16836122fa565b9250817fffffffffffffffffffffffffffffffffffffffffffffffffffffffffffffffff0483118215151615612b4f57612b4e61289b565b5b828202905092915050565b7f4e487b7100000000000000000000000000000000000000000000000000000000600052601260045260246000fd5b6000612b94826122fa565b9150612b9f836122fa565b925082612baf57612bae612b5a565b5b828206905092915050565b7f4e487b7100000000000000000000000000000000000000000000000000000000600052603260045260246000fd5b6000612bf4826122fa565b9150612bff836122fa565b925082612c0f57612c0e612b5a565b5b828204905092915050565b6000819050919050565b612c35612c30826122fa565b612c1a565b82525050565b6000612c478288612c24565b602082019150612c578287612c24565b602082019150612c678286612c24565b602082019150612c778285612c24565b602082019150612c878284612c24565b602082019150819050969550505050505056fea2646970667358221220b13449465c76ec16315b087e9b045883b3f91d878730deee3c40ca5af585a5f164736f6c63430008090033a264697066735822122006acf4366dcecb238bd5a689bdee6fcc0f5344e976b30447519725dbf006f37464736f6c63430008090033",
  "linkReferences": {},
  "deployedLinkReferences": {}
}