{
  "_format": "hh-sol-artifact-1",
  "contractName": "MarketMakerAIO",
  "sourceName": "contracts/MarketMakerAIO.sol",
  "abi": [
    {
      "inputs": [
        {
          "internalType": "contract LPNFT",
          "name": "_lpNFT",
          "type": "address"
        }
      ],
      "stateMutability": "nonpayable",
      "type": "constructor"
    },
    {
      "anonymous": false,
      "inputs": [
        {
          "indexed": false,
          "internalType": "uint256",
          "name": "tokenId",
          "type": "uint256"
        },
        {
          "indexed": false,
          "internalType": "string",
          "name": "uri",
          "type": "string"
        },
        {
          "indexed": false,
          "internalType": "uint256",
          "name": "depositAmount",
          "type": "uint256"
        }
      ],
      "name": "DepositCompleted",
      "type": "event"
    },
    {
      "anonymous": false,
      "inputs": [
        {
          "indexed": false,
          "internalType": "enum BetType",
          "name": "_betType",
          "type": "uint8"
        },
        {
          "indexed": false,
          "internalType": "uint8",
          "name": "_selection",
          "type": "uint8"
        },
        {
          "indexed": false,
          "internalType": "uint16",
          "name": "_odds",
          "type": "uint16"
        },
        {
          "indexed": false,
          "internalType": "uint256",
          "name": "amount",
          "type": "uint256"
        }
      ],
      "name": "MarketMakerCreateBackBet",
      "type": "event"
    },
    {
      "anonymous": false,
      "inputs": [
        {
          "indexed": false,
          "internalType": "enum BetType",
          "name": "_betType",
          "type": "uint8"
        },
        {
          "indexed": false,
          "internalType": "uint8",
          "name": "_selection",
          "type": "uint8"
        },
        {
          "indexed": false,
          "internalType": "uint16",
          "name": "_odds",
          "type": "uint16"
        },
        {
          "indexed": false,
          "internalType": "uint256",
          "name": "amount",
          "type": "uint256"
        }
      ],
      "name": "MarketMakerCreateLayBet",
      "type": "event"
    },
    {
      "anonymous": false,
      "inputs": [
        {
          "indexed": false,
          "internalType": "uint256",
          "name": "tokenId",
          "type": "uint256"
        },
        {
          "indexed": false,
          "internalType": "uint256",
          "name": "depositAmount",
          "type": "uint256"
        }
      ],
      "name": "WithdrawalCompleted",
      "type": "event"
    },
    {
      "inputs": [
        {
          "internalType": "address",
          "name": "bettingAddress",
          "type": "address"
        },
        {
          "internalType": "string",
          "name": "_objectId",
          "type": "string"
        },
        {
          "internalType": "enum BetType",
          "name": "_betType",
          "type": "uint8"
        },
        {
          "internalType": "uint8",
          "name": "_selection",
          "type": "uint8"
        },
        {
          "internalType": "uint16",
          "name": "_odds",
          "type": "uint16"
        }
      ],
      "name": "createOpposingBackBet",
      "outputs": [],
      "stateMutability": "nonpayable",
      "type": "function"
    },
    {
      "inputs": [
        {
          "internalType": "address",
          "name": "bettingAddress",
          "type": "address"
        },
        {
          "internalType": "string",
          "name": "_objectId",
          "type": "string"
        },
        {
          "internalType": "enum BetType",
          "name": "_betType",
          "type": "uint8"
        },
        {
          "internalType": "uint8",
          "name": "_selection",
          "type": "uint8"
        },
        {
          "internalType": "uint16",
          "name": "_odds",
          "type": "uint16"
        },
        {
          "internalType": "uint256",
          "name": "backBetAmount",
          "type": "uint256"
        },
        {
          "internalType": "uint256",
          "name": "liabilityAmount",
          "type": "uint256"
        }
      ],
      "name": "createOpposingLayBet",
      "outputs": [],
      "stateMutability": "nonpayable",
      "type": "function"
    },
    {
      "inputs": [
        {
          "internalType": "string",
          "name": "uri",
          "type": "string"
        }
      ],
      "name": "deposit",
      "outputs": [],
      "stateMutability": "payable",
      "type": "function"
    },
    {
      "inputs": [
        {
          "internalType": "uint256",
          "name": "tokenId",
          "type": "uint256"
        }
      ],
      "name": "getDepositValue",
      "outputs": [
        {
          "internalType": "uint256",
          "name": "",
          "type": "uint256"
        }
      ],
      "stateMutability": "view",
      "type": "function"
    },
    {
      "inputs": [],
      "name": "getTotalDeposit",
      "outputs": [
        {
          "internalType": "uint256",
          "name": "",
          "type": "uint256"
        }
      ],
      "stateMutability": "view",
      "type": "function"
    },
    {
      "inputs": [],
      "name": "lp",
      "outputs": [
        {
          "internalType": "address",
          "name": "LPAddress",
          "type": "address"
        },
        {
          "internalType": "uint256",
          "name": "depositAmount",
          "type": "uint256"
        }
      ],
      "stateMutability": "view",
      "type": "function"
    },
    {
      "inputs": [
        {
          "internalType": "uint256",
          "name": "",
          "type": "uint256"
        }
      ],
      "name": "lpDeposits",
      "outputs": [
        {
          "internalType": "address",
          "name": "LPAddress",
          "type": "address"
        },
        {
          "internalType": "uint256",
          "name": "depositAmount",
          "type": "uint256"
        }
      ],
      "stateMutability": "view",
      "type": "function"
    },
    {
      "inputs": [],
      "name": "maxAmountForAnyBet",
      "outputs": [
        {
          "internalType": "uint256",
          "name": "",
          "type": "uint256"
        }
      ],
      "stateMutability": "view",
      "type": "function"
    },
    {
      "inputs": [],
      "name": "totalDeposit",
      "outputs": [
        {
          "internalType": "uint256",
          "name": "",
          "type": "uint256"
        }
      ],
      "stateMutability": "view",
      "type": "function"
    },
    {
      "inputs": [
        {
          "internalType": "uint256",
          "name": "tokenId",
          "type": "uint256"
        }
      ],
      "name": "withdraw",
      "outputs": [],
      "stateMutability": "payable",
      "type": "function"
    }
  ],
  "bytecode": "0x60806040523480156200001157600080fd5b50604051620016ae380380620016ae833981810160405281019062000037919062000105565b80600260006101000a81548173ffffffffffffffffffffffffffffffffffffffff021916908373ffffffffffffffffffffffffffffffffffffffff16021790555060006003819055505062000137565b600080fd5b600073ffffffffffffffffffffffffffffffffffffffff82169050919050565b6000620000b9826200008c565b9050919050565b6000620000cd82620000ac565b9050919050565b620000df81620000c0565b8114620000eb57600080fd5b50565b600081519050620000ff81620000d4565b92915050565b6000602082840312156200011e576200011d62000087565b5b60006200012e84828501620000ee565b91505092915050565b61156780620001476000396000f3fe6080604052600436106100915760003560e01c806390490506116100595780639049050614610182578063a26e1186146101ad578063c022215c146101c9578063d1a5f840146101f4578063f6153ccd1461021d57610091565b80631f98a2e2146100965780632269c137146100bf5780632e1a7d4d146100fd578063313c06a0146101195780636e8218aa14610145575b600080fd5b3480156100a257600080fd5b506100bd60048036038101906100b89190610bd9565b610248565b005b3480156100cb57600080fd5b506100e660048036038101906100e19190610c9b565b610364565b6040516100f4929190610ce6565b60405180910390f35b61011760048036038101906101129190610c9b565b6103a8565b005b34801561012557600080fd5b5061012e61060f565b60405161013c929190610ce6565b60405180910390f35b34801561015157600080fd5b5061016c60048036038101906101679190610c9b565b610641565b6040516101799190610d0f565b60405180910390f35b34801561018e57600080fd5b50610197610661565b6040516101a49190610d0f565b60405180910390f35b6101c760048036038101906101c29190610e6b565b61068e565b005b3480156101d557600080fd5b506101de6108b3565b6040516101eb9190610d0f565b60405180910390f35b34801561020057600080fd5b5061021b60048036038101906102169190610eb4565b6108bd565b005b34801561022957600080fd5b506102326109e3565b60405161023f9190610d0f565b60405180910390f35b60035481111561028d576040517f08c379a000000000000000000000000000000000000000000000000000000000815260040161028490610fd1565b60405180910390fd5b8060035461029b9190611020565b60038190555060008890508073ffffffffffffffffffffffffffffffffffffffff1663e603c219838a8a8a8a8a8a6040518863ffffffff1660e01b81526004016102ea96959493929190611116565b6000604051808303818588803b15801561030357600080fd5b505af1158015610317573d6000803e3d6000fd5b50505050507f29674eb24e7500d7244dd09ee0fcc3bd671492b2c4d801d3420e306add169fe4868686856040516103519493929190611172565b60405180910390a1505050505050505050565b60046020528060005260406000206000915090508060000160009054906101000a900473ffffffffffffffffffffffffffffffffffffffff16908060010154905082565b3373ffffffffffffffffffffffffffffffffffffffff16600260009054906101000a900473ffffffffffffffffffffffffffffffffffffffff1673ffffffffffffffffffffffffffffffffffffffff16636352211e836040518263ffffffff1660e01b815260040161041a9190610d0f565b60206040518083038186803b15801561043257600080fd5b505afa158015610446573d6000803e3d6000fd5b505050506040513d601f19601f8201168201806040525081019061046a91906111cc565b73ffffffffffffffffffffffffffffffffffffffff16146104c0576040517f08c379a00000000000000000000000000000000000000000000000000000000081526004016104b79061126b565b60405180910390fd5b600260009054906101000a900473ffffffffffffffffffffffffffffffffffffffff1673ffffffffffffffffffffffffffffffffffffffff1663ac7aae4233836040518363ffffffff1660e01b815260040161051d929190610ce6565b600060405180830381600087803b15801561053757600080fd5b505af115801561054b573d6000803e3d6000fd5b5050505060006004600083815260200190815260200160002060010154905061057433826109e9565b80600360008282546105869190611020565b9250508190555060046000838152602001908152602001600020600080820160006101000a81549073ffffffffffffffffffffffffffffffffffffffff0219169055600182016000905550507f19fa96afa1fdb8725e38d43cc1e54cd04c8b0c6d56327edbf1a68fcc97f5cf69828260405161060392919061128b565b60405180910390a15050565b60008060000160009054906101000a900473ffffffffffffffffffffffffffffffffffffffff16908060010154905082565b600060046000838152602001908152602001600020600101549050919050565b60006103e86003541115610686576103e860035461067f91906112e3565b905061068b565b600090505b90565b6000600260009054906101000a900473ffffffffffffffffffffffffffffffffffffffff1673ffffffffffffffffffffffffffffffffffffffff1663e2873c006040518163ffffffff1660e01b815260040160206040518083038186803b1580156106f857600080fd5b505afa15801561070c573d6000803e3d6000fd5b505050506040513d601f19601f820116820180604052508101906107309190611329565b90506000349050600260009054906101000a900473ffffffffffffffffffffffffffffffffffffffff1673ffffffffffffffffffffffffffffffffffffffff1663d3fc98643384866040518463ffffffff1660e01b8152600401610796939291906113cd565b600060405180830381600087803b1580156107b057600080fd5b505af11580156107c4573d6000803e3d6000fd5b5050505060405180604001604052803373ffffffffffffffffffffffffffffffffffffffff168152602001828152506004600084815260200190815260200160002060008201518160000160006101000a81548173ffffffffffffffffffffffffffffffffffffffff021916908373ffffffffffffffffffffffffffffffffffffffff16021790555060208201518160010155905050806003600082825461086c919061140b565b925050819055507f58f404563b95470b692e55440726a70aa7629e8a5cc949a6f4a4e5d2ccf52b488284346040516108a693929190611461565b60405180910390a1505050565b6000600354905090565b60006108c7610661565b9050600081141561090d576040517f08c379a000000000000000000000000000000000000000000000000000000000815260040161090490611511565b60405180910390fd5b8060035461091b9190611020565b60038190555060008790508073ffffffffffffffffffffffffffffffffffffffff1663100a56c5838989898989896040518863ffffffff1660e01b815260040161096a96959493929190611116565b6000604051808303818588803b15801561098357600080fd5b505af1158015610997573d6000803e3d6000fd5b50505050507f4b9cc83bad147ec7898483242ae23476e1ca47a22341f5a7ff99b66a95c9860c858585856040516109d19493929190611172565b60405180910390a15050505050505050565b60035481565b8173ffffffffffffffffffffffffffffffffffffffff166108fc829081150290604051600060405180830381858888f19350505050158015610a2f573d6000803e3d6000fd5b505050565b6000604051905090565b600080fd5b600080fd5b600073ffffffffffffffffffffffffffffffffffffffff82169050919050565b6000610a7382610a48565b9050919050565b610a8381610a68565b8114610a8e57600080fd5b50565b600081359050610aa081610a7a565b92915050565b600080fd5b600080fd5b600080fd5b60008083601f840112610acb57610aca610aa6565b5b8235905067ffffffffffffffff811115610ae857610ae7610aab565b5b602083019150836001820283011115610b0457610b03610ab0565b5b9250929050565b60038110610b1857600080fd5b50565b600081359050610b2a81610b0b565b92915050565b600060ff82169050919050565b610b4681610b30565b8114610b5157600080fd5b50565b600081359050610b6381610b3d565b92915050565b600061ffff82169050919050565b610b8081610b69565b8114610b8b57600080fd5b50565b600081359050610b9d81610b77565b92915050565b6000819050919050565b610bb681610ba3565b8114610bc157600080fd5b50565b600081359050610bd381610bad565b92915050565b60008060008060008060008060e0898b031215610bf957610bf8610a3e565b5b6000610c078b828c01610a91565b985050602089013567ffffffffffffffff811115610c2857610c27610a43565b5b610c348b828c01610ab5565b97509750506040610c478b828c01610b1b565b9550506060610c588b828c01610b54565b9450506080610c698b828c01610b8e565b93505060a0610c7a8b828c01610bc4565b92505060c0610c8b8b828c01610bc4565b9150509295985092959890939650565b600060208284031215610cb157610cb0610a3e565b5b6000610cbf84828501610bc4565b91505092915050565b610cd181610a68565b82525050565b610ce081610ba3565b82525050565b6000604082019050610cfb6000830185610cc8565b610d086020830184610cd7565b9392505050565b6000602082019050610d246000830184610cd7565b92915050565b600080fd5b6000601f19601f8301169050919050565b7f4e487b7100000000000000000000000000000000000000000000000000000000600052604160045260246000fd5b610d7882610d2f565b810181811067ffffffffffffffff82111715610d9757610d96610d40565b5b80604052505050565b6000610daa610a34565b9050610db68282610d6f565b919050565b600067ffffffffffffffff821115610dd657610dd5610d40565b5b610ddf82610d2f565b9050602081019050919050565b82818337600083830152505050565b6000610e0e610e0984610dbb565b610da0565b905082815260208101848484011115610e2a57610e29610d2a565b5b610e35848285610dec565b509392505050565b600082601f830112610e5257610e51610aa6565b5b8135610e62848260208601610dfb565b91505092915050565b600060208284031215610e8157610e80610a3e565b5b600082013567ffffffffffffffff811115610e9f57610e9e610a43565b5b610eab84828501610e3d565b91505092915050565b60008060008060008060a08789031215610ed157610ed0610a3e565b5b6000610edf89828a01610a91565b965050602087013567ffffffffffffffff811115610f0057610eff610a43565b5b610f0c89828a01610ab5565b95509550506040610f1f89828a01610b1b565b9350506060610f3089828a01610b54565b9250506080610f4189828a01610b8e565b9150509295509295509295565b600082825260208201905092915050565b7f6372656174654f70706f73696e674c61794265743a20496e737566666963696560008201527f6e742046756e647320696e204c697175696469747920506f6f6c000000000000602082015250565b6000610fbb603a83610f4e565b9150610fc682610f5f565b604082019050919050565b60006020820190508181036000830152610fea81610fae565b9050919050565b7f4e487b7100000000000000000000000000000000000000000000000000000000600052601160045260246000fd5b600061102b82610ba3565b915061103683610ba3565b92508282101561104957611048610ff1565b5b828203905092915050565b60006110608385610f4e565b935061106d838584610dec565b61107683610d2f565b840190509392505050565b7f4e487b7100000000000000000000000000000000000000000000000000000000600052602160045260246000fd5b600381106110c1576110c0611081565b5b50565b60008190506110d2826110b0565b919050565b60006110e2826110c4565b9050919050565b6110f2816110d7565b82525050565b61110181610b30565b82525050565b61111081610b69565b82525050565b600060a082019050818103600083015261113181888a611054565b905061114060208301876110e9565b61114d60408301866110f8565b61115a6060830185611107565b6111676080830184610cd7565b979650505050505050565b600060808201905061118760008301876110e9565b61119460208301866110f8565b6111a16040830185611107565b6111ae6060830184610cd7565b95945050505050565b6000815190506111c681610a7a565b92915050565b6000602082840312156111e2576111e1610a3e565b5b60006111f0848285016111b7565b91505092915050565b7f4d61726b65744d616b65723a207472616e736665722063616c6c65722069732060008201527f6e6f74206f776e65720000000000000000000000000000000000000000000000602082015250565b6000611255602983610f4e565b9150611260826111f9565b604082019050919050565b6000602082019050818103600083015261128481611248565b9050919050565b60006040820190506112a06000830185610cd7565b6112ad6020830184610cd7565b9392505050565b7f4e487b7100000000000000000000000000000000000000000000000000000000600052601260045260246000fd5b60006112ee82610ba3565b91506112f983610ba3565b925082611309576113086112b4565b5b828204905092915050565b60008151905061132381610bad565b92915050565b60006020828403121561133f5761133e610a3e565b5b600061134d84828501611314565b91505092915050565b600081519050919050565b60005b8381101561137f578082015181840152602081019050611364565b8381111561138e576000848401525b50505050565b600061139f82611356565b6113a98185610f4e565b93506113b9818560208601611361565b6113c281610d2f565b840191505092915050565b60006060820190506113e26000830186610cc8565b6113ef6020830185610cd7565b81810360408301526114018184611394565b9050949350505050565b600061141682610ba3565b915061142183610ba3565b9250827fffffffffffffffffffffffffffffffffffffffffffffffffffffffffffffffff0382111561145657611455610ff1565b5b828201905092915050565b60006060820190506114766000830186610cd7565b81810360208301526114888185611394565b90506114976040830184610cd7565b949350505050565b7f6372656174654f70706f73696e674261636b4265743a20496e7375666669636960008201527f656e742046756e647320696e204c697175696469747920506f6f6c0000000000602082015250565b60006114fb603b83610f4e565b91506115068261149f565b604082019050919050565b6000602082019050818103600083015261152a816114ee565b905091905056fea2646970667358221220ddc73b9f14bc9705ce55849a2c9ac25ebc7046d627b2c7477d12863bc3086e2b64736f6c63430008090033",
  "linkReferences": {},
  "deployedLinkReferences": {}
}