{
  "_format": "hh-sol-artifact-1",
  "contractName": "LosslessManager",
  "sourceName": "contracts/LosslessManager.sol",
  "abi": [
    {
      "inputs": [
        {
          "internalType": "address",
          "name": "_qiToken",
          "type": "address"
        }
      ],
      "stateMutability": "nonpayable",
      "type": "constructor"
    },
    {
      "anonymous": false,
      "inputs": [
        {
          "indexed": false,
          "internalType": "string",
          "name": "apiId",
          "type": "string"
        },
        {
          "indexed": false,
          "internalType": "address",
          "name": "from",
          "type": "address"
        },
        {
          "indexed": false,
          "internalType": "uint8",
          "name": "selection",
          "type": "uint8"
        },
        {
          "indexed": false,
          "internalType": "uint256",
          "name": "amount",
          "type": "uint256"
        }
      ],
      "name": "BetPlaced",
      "type": "event"
    },
    {
      "anonymous": false,
      "inputs": [
        {
          "indexed": true,
          "internalType": "bytes32",
          "name": "id",
          "type": "bytes32"
        }
      ],
      "name": "ChainlinkCancelled",
      "type": "event"
    },
    {
      "anonymous": false,
      "inputs": [
        {
          "indexed": true,
          "internalType": "bytes32",
          "name": "id",
          "type": "bytes32"
        }
      ],
      "name": "ChainlinkFulfilled",
      "type": "event"
    },
    {
      "anonymous": false,
      "inputs": [
        {
          "indexed": false,
          "internalType": "string",
          "name": "apiId",
          "type": "string"
        },
        {
          "indexed": false,
          "internalType": "uint256",
          "name": "winner",
          "type": "uint256"
        }
      ],
      "name": "ChainlinkReply",
      "type": "event"
    },
    {
      "anonymous": false,
      "inputs": [
        {
          "indexed": true,
          "internalType": "bytes32",
          "name": "id",
          "type": "bytes32"
        }
      ],
      "name": "ChainlinkRequested",
      "type": "event"
    },
    {
      "anonymous": false,
      "inputs": [
        {
          "indexed": false,
          "internalType": "string",
          "name": "apiId",
          "type": "string"
        },
        {
          "indexed": false,
          "internalType": "uint256",
          "name": "gameCount",
          "type": "uint256"
        },
        {
          "indexed": false,
          "internalType": "address",
          "name": "gameAddress",
          "type": "address"
        }
      ],
      "name": "GameCreated",
      "type": "event"
    },
    {
      "anonymous": false,
      "inputs": [
        {
          "indexed": true,
          "internalType": "address",
          "name": "previousOwner",
          "type": "address"
        },
        {
          "indexed": true,
          "internalType": "address",
          "name": "newOwner",
          "type": "address"
        }
      ],
      "name": "OwnershipTransferred",
      "type": "event"
    },
    {
      "anonymous": false,
      "inputs": [
        {
          "indexed": false,
          "internalType": "string",
          "name": "apiId",
          "type": "string"
        },
        {
          "indexed": false,
          "internalType": "address",
          "name": "winner",
          "type": "address"
        },
        {
          "indexed": false,
          "internalType": "uint256",
          "name": "amount",
          "type": "uint256"
        }
      ],
      "name": "Winner",
      "type": "event"
    },
    {
      "inputs": [
        {
          "internalType": "bytes32",
          "name": "_bytes32",
          "type": "bytes32"
        }
      ],
      "name": "bytes32ToString",
      "outputs": [
        {
          "internalType": "string",
          "name": "",
          "type": "string"
        },
        {
          "internalType": "uint256",
          "name": "",
          "type": "uint256"
        }
      ],
      "stateMutability": "pure",
      "type": "function"
    },
    {
      "inputs": [
        {
          "internalType": "string",
          "name": "_objectId",
          "type": "string"
        },
        {
          "internalType": "uint256",
          "name": "_matchStartTime",
          "type": "uint256"
        },
        {
          "internalType": "uint256",
          "name": "_matchFinishTime",
          "type": "uint256"
        }
      ],
      "name": "create",
      "outputs": [],
      "stateMutability": "nonpayable",
      "type": "function"
    },
    {
      "inputs": [
        {
          "internalType": "bytes32",
          "name": "_requestId",
          "type": "bytes32"
        },
        {
          "internalType": "bytes32",
          "name": "_data",
          "type": "bytes32"
        }
      ],
      "name": "fulfill",
      "outputs": [],
      "stateMutability": "nonpayable",
      "type": "function"
    },
    {
      "inputs": [
        {
          "internalType": "string",
          "name": "",
          "type": "string"
        }
      ],
      "name": "gameIdToAddress",
      "outputs": [
        {
          "internalType": "address",
          "name": "",
          "type": "address"
        }
      ],
      "stateMutability": "view",
      "type": "function"
    },
    {
      "inputs": [
        {
          "internalType": "string",
          "name": "",
          "type": "string"
        },
        {
          "internalType": "address",
          "name": "",
          "type": "address"
        }
      ],
      "name": "gameIdToPlayerIn",
      "outputs": [
        {
          "internalType": "bool",
          "name": "",
          "type": "bool"
        }
      ],
      "stateMutability": "view",
      "type": "function"
    },
    {
      "inputs": [
        {
          "internalType": "string",
          "name": "",
          "type": "string"
        },
        {
          "internalType": "uint256",
          "name": "",
          "type": "uint256"
        }
      ],
      "name": "gameIdToPlayers",
      "outputs": [
        {
          "internalType": "address",
          "name": "",
          "type": "address"
        }
      ],
      "stateMutability": "view",
      "type": "function"
    },
    {
      "inputs": [
        {
          "internalType": "string",
          "name": "",
          "type": "string"
        }
      ],
      "name": "gameIdToTokenBalance",
      "outputs": [
        {
          "internalType": "uint256",
          "name": "",
          "type": "uint256"
        }
      ],
      "stateMutability": "view",
      "type": "function"
    },
    {
      "inputs": [],
      "name": "gamesCount",
      "outputs": [
        {
          "internalType": "uint256",
          "name": "",
          "type": "uint256"
        }
      ],
      "stateMutability": "view",
      "type": "function"
    },
    {
      "inputs": [
        {
          "internalType": "string",
          "name": "_gameId",
          "type": "string"
        }
      ],
      "name": "getQiTokenBalance",
      "outputs": [
        {
          "internalType": "uint256",
          "name": "",
          "type": "uint256"
        }
      ],
      "stateMutability": "view",
      "type": "function"
    },
    {
      "inputs": [],
      "name": "owner",
      "outputs": [
        {
          "internalType": "address",
          "name": "",
          "type": "address"
        }
      ],
      "stateMutability": "view",
      "type": "function"
    },
    {
      "inputs": [
        {
          "internalType": "string",
          "name": "_gameId",
          "type": "string"
        },
        {
          "internalType": "uint8",
          "name": "_betSide",
          "type": "uint8"
        }
      ],
      "name": "placeBet",
      "outputs": [],
      "stateMutability": "payable",
      "type": "function"
    },
    {
      "inputs": [
        {
          "internalType": "address",
          "name": "",
          "type": "address"
        }
      ],
      "name": "playerToBalance",
      "outputs": [
        {
          "internalType": "uint256",
          "name": "",
          "type": "uint256"
        }
      ],
      "stateMutability": "view",
      "type": "function"
    },
    {
      "inputs": [],
      "name": "qiToken",
      "outputs": [
        {
          "internalType": "contract QiAvaxInterface",
          "name": "",
          "type": "address"
        }
      ],
      "stateMutability": "view",
      "type": "function"
    },
    {
      "inputs": [],
      "name": "renounceOwnership",
      "outputs": [],
      "stateMutability": "nonpayable",
      "type": "function"
    },
    {
      "inputs": [
        {
          "internalType": "string",
          "name": "_objectId",
          "type": "string"
        }
      ],
      "name": "requestResult",
      "outputs": [
        {
          "internalType": "bytes32",
          "name": "requestId",
          "type": "bytes32"
        }
      ],
      "stateMutability": "nonpayable",
      "type": "function"
    },
    {
      "inputs": [
        {
          "internalType": "string",
          "name": "_gameId",
          "type": "string"
        },
        {
          "internalType": "uint256",
          "name": "_winningSide",
          "type": "uint256"
        }
      ],
      "name": "setMatchWinnerAndWithdrawFromPool",
      "outputs": [],
      "stateMutability": "nonpayable",
      "type": "function"
    },
    {
      "inputs": [
        {
          "internalType": "address",
          "name": "newOwner",
          "type": "address"
        }
      ],
      "name": "transferOwnership",
      "outputs": [],
      "stateMutability": "nonpayable",
      "type": "function"
    },
    {
      "inputs": [],
      "name": "withdraw",
      "outputs": [],
      "stateMutability": "nonpayable",
      "type": "function"
    }
  ],
  "bytecode": "0x608060405260016005553480156200001657600080fd5b5060405162005efb38038062005efb83398181016040528101906200003c9190620002d5565b6200005c620000506200015b60201b60201c565b6200016360201b60201c565b600060078190555080600860006101000a81548173ffffffffffffffffffffffffffffffffffffffff021916908373ffffffffffffffffffffffffffffffffffffffff160217905550620000ca730b9d5d9136855f6fec3c0993fee6e9ce8a2978466200022760201b60201c565b73d5c4d9fe36d09e71940676b312d1500078e24c6a600e60006101000a81548173ffffffffffffffffffffffffffffffffffffffff021916908373ffffffffffffffffffffffffffffffffffffffff1602179055507f6665653832636365323765633435633361663464326261306239653264643032600f81905550662386f26fc100006010819055505062000307565b600033905090565b60008060009054906101000a900473ffffffffffffffffffffffffffffffffffffffff169050816000806101000a81548173ffffffffffffffffffffffffffffffffffffffff021916908373ffffffffffffffffffffffffffffffffffffffff1602179055508173ffffffffffffffffffffffffffffffffffffffff168173ffffffffffffffffffffffffffffffffffffffff167f8be0079c531659141344cd1fd0a4f28419497f9722a3daafe3b4186f6b6457e060405160405180910390a35050565b80600360006101000a81548173ffffffffffffffffffffffffffffffffffffffff021916908373ffffffffffffffffffffffffffffffffffffffff16021790555050565b600080fd5b600073ffffffffffffffffffffffffffffffffffffffff82169050919050565b60006200029d8262000270565b9050919050565b620002af8162000290565b8114620002bb57600080fd5b50565b600081519050620002cf81620002a4565b92915050565b600060208284031215620002ee57620002ed6200026b565b5b6000620002fe84828501620002be565b91505092915050565b615be480620003176000396000f3fe608060405260043610620001225760003560e01c80639070f9b511620000a3578063b5005c33116200006d578063b5005c3314620003e6578063cda3c4991462000414578063eabe4a5e1462000442578063f2fde38b1462000486578063fb632b7c14620004b45762000122565b80639070f9b514620002d55780639201de55146200031957806397911d49146200035e578063a9583d3214620003a25762000122565b8063462e4cda11620000f1578063462e4cda14620001d35780635a9ec3bd146200020357806360d3ace61462000247578063715018a6146200028b5780638da5cb5b14620002a55762000122565b8063042f2b6514620001275780631adac25114620001555780632a3ef71e14620001995780633ccfd60b14620001b9575b600080fd5b3480156200013457600080fd5b506200015360048036038101906200014d919062002485565b620004e4565b005b3480156200016257600080fd5b506200018160048036038101906200017b91906200262e565b620006e7565b6040516200019091906200269a565b60405180910390f35b620001b76004803603810190620001b191906200275e565b62000715565b005b348015620001c657600080fd5b50620001d162000bc9565b005b348015620001e057600080fd5b50620001eb62000d22565b604051620001fa919062002853565b60405180910390f35b3480156200021057600080fd5b506200022f6004803603810190620002299190620028b5565b62000d48565b6040516200023e91906200269a565b60405180910390f35b3480156200025457600080fd5b506200027360048036038101906200026d9190620028e7565b62000d60565b6040516200028291906200296a565b60405180910390f35b3480156200029857600080fd5b50620002a362000da5565b005b348015620002b257600080fd5b50620002bd62000e36565b604051620002cc919062002998565b60405180910390f35b348015620002e257600080fd5b50620003016004803603810190620002fb9190620029b5565b62000e5f565b6040516200031091906200269a565b60405180910390f35b3480156200032657600080fd5b506200034560048036038101906200033f919062002a0a565b62000e8c565b6040516200035592919062002acf565b60405180910390f35b3480156200036b57600080fd5b506200038a600480360381019062000384919062002b34565b620010b3565b60405162000399919062002998565b60405180910390f35b348015620003af57600080fd5b50620003ce6004803603810190620003c891906200262e565b62001118565b604051620003dd919062002bab565b60405180910390f35b348015620003f357600080fd5b506200041260048036038101906200040c919062002b34565b6200123c565b005b3480156200042157600080fd5b506200044060048036038101906200043a919062002bc8565b62001762565b005b3480156200044f57600080fd5b506200046e60048036038101906200046891906200262e565b620018ed565b6040516200047d919062002998565b60405180910390f35b3480156200049357600080fd5b50620004b26004803603810190620004ac9190620028b5565b62001936565b005b348015620004c157600080fd5b50620004cc62001a3a565b604051620004db91906200269a565b60405180910390f35b816006600082815260200190815260200160002060009054906101000a900473ffffffffffffffffffffffffffffffffffffffff1673ffffffffffffffffffffffffffffffffffffffff163373ffffffffffffffffffffffffffffffffffffffff161462000589576040517f08c379a0000000000000000000000000000000000000000000000000000000008152600401620005809062002cbe565b60405180910390fd5b6006600082815260200190815260200160002060006101000a81549073ffffffffffffffffffffffffffffffffffffffff0219169055807f7cc135e0cebb02c3480ae5d74d377283180a2601f8f644edf7987b009316c63a60405160405180910390a2600080620005fa8462000e8c565b915091506000600d8360405162000612919062002d22565b90815260200160405180910390208054905011156200063d576200063782826200123c565b620006a5565b6009826040516200064f919062002d22565b908152602001604051809103902060006101000a81549073ffffffffffffffffffffffffffffffffffffffff0219169055600a8260405162000692919062002d22565b9081526020016040518091039020600090555b7f770658a6d6fc5f00d81b338d6993c216f2d6d5df3a44c245006bc935e385a5408282604051620006d892919062002acf565b60405180910390a15050505050565b600a818051602081018201805184825260208301602085012081835280955050505050506000915090505481565b60003490506000600985856040516200073092919062002d64565b908152602001604051809103902060009054906101000a900473ffffffffffffffffffffffffffffffffffffffff1690506000600860009054906101000a900473ffffffffffffffffffffffffffffffffffffffff1673ffffffffffffffffffffffffffffffffffffffff166370a08231306040518263ffffffff1660e01b8152600401620007c0919062002998565b60206040518083038186803b158015620007d957600080fd5b505afa158015620007ee573d6000803e3d6000fd5b505050506040513d601f19601f8201168201806040525081019062000814919062002d96565b9050600860009054906101000a900473ffffffffffffffffffffffffffffffffffffffff1673ffffffffffffffffffffffffffffffffffffffff16631249c58b846040518263ffffffff1660e01b81526004016000604051808303818588803b1580156200088157600080fd5b505af115801562000896573d6000803e3d6000fd5b50505050506000600860009054906101000a900473ffffffffffffffffffffffffffffffffffffffff1673ffffffffffffffffffffffffffffffffffffffff166370a08231306040518263ffffffff1660e01b8152600401620008fa919062002998565b60206040518083038186803b1580156200091357600080fd5b505afa15801562000928573d6000803e3d6000fd5b505050506040513d601f19601f820116820180604052508101906200094e919062002d96565b905081816200095e919062002df7565b600a88886040516200097292919062002d64565b9081526020016040518091039020600082825462000991919062002e32565b9250508190555060008390508073ffffffffffffffffffffffffffffffffffffffff16638f8f1b7c3387896040518463ffffffff1660e01b8152600401620009dc9392919062002ea0565b600060405180830381600087803b158015620009f757600080fd5b505af115801562000a0c573d6000803e3d6000fd5b50505050600c888860405162000a2492919062002d64565b908152602001604051809103902060003373ffffffffffffffffffffffffffffffffffffffff1673ffffffffffffffffffffffffffffffffffffffff16815260200190815260200160002060009054906101000a900460ff1662000b7e576001600c898960405162000a9892919062002d64565b908152602001604051809103902060003373ffffffffffffffffffffffffffffffffffffffff1673ffffffffffffffffffffffffffffffffffffffff16815260200190815260200160002060006101000a81548160ff021916908315150217905550600d888860405162000b0e92919062002d64565b9081526020016040518091039020339080600181540180825580915050600190039060005260206000200160009091909190916101000a81548173ffffffffffffffffffffffffffffffffffffffff021916908373ffffffffffffffffffffffffffffffffffffffff1602179055505b7fbe8f8f5187fe964f536a41eda391e63ecbaee0125edc4e849f5ae97611bd6357888833898960405162000bb795949392919062002f10565b60405180910390a15050505050505050565b6000600b60003373ffffffffffffffffffffffffffffffffffffffff1673ffffffffffffffffffffffffffffffffffffffff168152602001908152602001600020541162000c4e576040517f08c379a000000000000000000000000000000000000000000000000000000000815260040162000c459062002fb6565b60405180910390fd5b6000600b60003373ffffffffffffffffffffffffffffffffffffffff1673ffffffffffffffffffffffffffffffffffffffff1681526020019081526020016000205490506000600b60003373ffffffffffffffffffffffffffffffffffffffff1673ffffffffffffffffffffffffffffffffffffffff168152602001908152602001600020819055503373ffffffffffffffffffffffffffffffffffffffff166108fc829081150290604051600060405180830381858888f1935050505015801562000d1e573d6000803e3d6000fd5b5050565b600860009054906101000a900473ffffffffffffffffffffffffffffffffffffffff1681565b600b6020528060005260406000206000915090505481565b600c828051602081018201805184825260208301602085012081835280955050505050506020528060005260406000206000915091509054906101000a900460ff1681565b62000daf62001a40565b73ffffffffffffffffffffffffffffffffffffffff1662000dcf62000e36565b73ffffffffffffffffffffffffffffffffffffffff161462000e28576040517f08c379a000000000000000000000000000000000000000000000000000000000815260040162000e1f9062003028565b60405180910390fd5b62000e34600062001a48565b565b60008060009054906101000a900473ffffffffffffffffffffffffffffffffffffffff16905090565b6000600a838360405162000e7592919062002d64565b908152602001604051809103902054905092915050565b6060600080600090506000805b60208310801562000ee95750600060f81b86846020811062000ec05762000ebf6200304a565b5b1a60f81b7effffffffffffffffffffffffffffffffffffffffffffffffffffffffffffff191614155b1562000f0557828062000efc9062003079565b93505062000e99565b600060018462000f16919062002df7565b905060008167ffffffffffffffff81111562000f375762000f36620024e7565b5b6040519080825280601f01601f19166020018201604052801562000f6a5781602001600182028036833780820191505090505b509050600094505b60208510801562000fc25750600060f81b88866020811062000f995762000f986200304a565b5b1a60f81b7effffffffffffffffffffffffffffffffffffffffffffffffffffffffffffff191614155b15620010955781851015620010315787856020811062000fe75762000fe66200304a565b5b1a60f81b8186815181106200100157620010006200304a565b5b60200101907effffffffffffffffffffffffffffffffffffffffffffffffffffffffffffff1916908160001a9053505b60308886602081106200104957620010486200304a565b5b1a60f81b60f81c6200105c9190620030c7565b60ff16935083600a8462001071919062003102565b6200107d919062002e32565b925084806200108c9062003079565b95505062000f72565b80600a84620010a5919062003192565b965096505050505050915091565b600d828051602081018201805184825260208301602085012081835280955050505050508181548110620010e657600080fd5b906000526020600020016000915091509054906101000a900473ffffffffffffffffffffffffffffffffffffffff1681565b60006200112462001a40565b73ffffffffffffffffffffffffffffffffffffffff166200114462000e36565b73ffffffffffffffffffffffffffffffffffffffff16146200119d576040517f08c379a0000000000000000000000000000000000000000000000000000000008152600401620011949062003028565b60405180910390fd5b6000620011b5600f543063042f2b6560e01b62001b0c565b9050620012036040518060400160405280600981526020017f6669787475726549640000000000000000000000000000000000000000000000815250848362001b439092919063ffffffff16565b62001234600e60009054906101000a900473ffffffffffffffffffffffffffffffffffffffff168260105462001b7a565b915050919050565b600060098360405162001250919062002d22565b908152602001604051809103902060009054906101000a900473ffffffffffffffffffffffffffffffffffffffff169050600081905060008290508073ffffffffffffffffffffffffffffffffffffffff1663f8fd067f856040518263ffffffff1660e01b8152600401620012c691906200269a565b600060405180830381600087803b158015620012e157600080fd5b505af1158015620012f6573d6000803e3d6000fd5b5050505060004790506000600a8760405162001313919062002d22565b90815260200160405180910390205490506000600a8860405162001338919062002d22565b908152602001604051809103902081905550600860009054906101000a900473ffffffffffffffffffffffffffffffffffffffff1673ffffffffffffffffffffffffffffffffffffffff1663db006a75826040518263ffffffff1660e01b8152600401620013a791906200269a565b602060405180830381600087803b158015620013c257600080fd5b505af1158015620013d7573d6000803e3d6000fd5b505050506040513d601f19601f82011682018060405250810190620013fd919062002d96565b50600047905060005b600d8960405162001418919062002d22565b90815260200160405180910390208054905081101562001593576000600d8a60405162001446919062002d22565b908152602001604051809103902082815481106200146957620014686200304a565b5b9060005260206000200160009054906101000a900473ffffffffffffffffffffffffffffffffffffffff1690508673ffffffffffffffffffffffffffffffffffffffff16634e33f83b826040518263ffffffff1660e01b8152600401620014d1919062002998565b60206040518083038186803b158015620014ea57600080fd5b505afa158015620014ff573d6000803e3d6000fd5b505050506040513d601f19601f8201168201806040525081019062001525919062002d96565b600b60008373ffffffffffffffffffffffffffffffffffffffff1673ffffffffffffffffffffffffffffffffffffffff168152602001908152602001600020600082825462001575919062002e32565b925050819055505080806200158a9062003079565b91505062001406565b5060008573ffffffffffffffffffffffffffffffffffffffff1663dfbf53ae6040518163ffffffff1660e01b815260040160206040518083038186803b158015620015dd57600080fd5b505afa158015620015f2573d6000803e3d6000fd5b505050506040513d601f19601f82011682018060405250810190620016189190620031e1565b90508573ffffffffffffffffffffffffffffffffffffffff16637d8820976040518163ffffffff1660e01b815260040160206040518083038186803b1580156200166157600080fd5b505afa15801562001676573d6000803e3d6000fd5b505050506040513d601f19601f820116820180604052508101906200169c919062002d96565b8483620016aa919062002df7565b620016b6919062002df7565b600b60008373ffffffffffffffffffffffffffffffffffffffff1673ffffffffffffffffffffffffffffffffffffffff168152602001908152602001600020600082825462001706919062002e32565b925050819055507fc13f40246d21a50ba7fbae3ff93832e7bf5c946285a29916d6dcf1ab42c0b4ae898286856200173e919062002df7565b6040516200174f9392919062003213565b60405180910390a1505050505050505050565b6200176c62001a40565b73ffffffffffffffffffffffffffffffffffffffff166200178c62000e36565b73ffffffffffffffffffffffffffffffffffffffff1614620017e5576040517f08c379a0000000000000000000000000000000000000000000000000000000008152600401620017dc9062003028565b60405180910390fd5b60008282604051620017f7906200239f565b6200180492919062003257565b604051809103906000f08015801562001821573d6000803e3d6000fd5b509050600081905080600987876040516200183e92919062002d64565b908152602001604051809103902060006101000a81548173ffffffffffffffffffffffffffffffffffffffff021916908373ffffffffffffffffffffffffffffffffffffffff1602179055507f59328f3fae9019ea9e9a32580b8b124497cfafa027b6d1fb91977cbf1b9d6fe2868660075484604051620018c3949392919062003284565b60405180910390a160076000815480929190620018e09062003079565b9190505550505050505050565b6009818051602081018201805184825260208301602085012081835280955050505050506000915054906101000a900473ffffffffffffffffffffffffffffffffffffffff1681565b6200194062001a40565b73ffffffffffffffffffffffffffffffffffffffff166200196062000e36565b73ffffffffffffffffffffffffffffffffffffffff1614620019b9576040517f08c379a0000000000000000000000000000000000000000000000000000000008152600401620019b09062003028565b60405180910390fd5b600073ffffffffffffffffffffffffffffffffffffffff168173ffffffffffffffffffffffffffffffffffffffff16141562001a2c576040517f08c379a000000000000000000000000000000000000000000000000000000000815260040162001a239062003340565b60405180910390fd5b62001a378162001a48565b50565b60075481565b600033905090565b60008060009054906101000a900473ffffffffffffffffffffffffffffffffffffffff169050816000806101000a81548173ffffffffffffffffffffffffffffffffffffffff021916908373ffffffffffffffffffffffffffffffffffffffff1602179055508173ffffffffffffffffffffffffffffffffffffffff168173ffffffffffffffffffffffffffffffffffffffff167f8be0079c531659141344cd1fd0a4f28419497f9722a3daafe3b4186f6b6457e060405160405180910390a35050565b62001b16620023ad565b62001b20620023ad565b62001b398585858462001b9c909392919063ffffffff16565b9150509392505050565b62001b5c82846080015162001c5090919063ffffffff16565b62001b7581846080015162001c5090919063ffffffff16565b505050565b600062001b938484846001634042994660e01b62001c79565b90509392505050565b62001ba6620023ad565b62001bb8856080015161010062001ef0565b508385600001818152505082856020019073ffffffffffffffffffffffffffffffffffffffff16908173ffffffffffffffffffffffffffffffffffffffff16815250508185604001907bffffffffffffffffffffffffffffffffffffffffffffffffffffffff191690817bffffffffffffffffffffffffffffffffffffffffffffffffffffffff191681525050849050949350505050565b62001c5f826003835162001f65565b62001c748183620020c590919063ffffffff16565b505050565b60003060055460405160200162001c92929190620033eb565b604051602081830303815290604052805190602001209050600554856060018181525050856006600083815260200190815260200160002060006101000a81548173ffffffffffffffffffffffffffffffffffffffff021916908373ffffffffffffffffffffffffffffffffffffffff160217905550807fb5e6e01e79f91267dc17b4e6314d5d4d03593d2ceee0fbb452b750bd70ea5af960405160405180910390a2600082600080886000015189602001518a604001518b606001518a8d608001516000015160405160240162001d72989796959493929190620034b5565b604051602081830303815290604052907bffffffffffffffffffffffffffffffffffffffffffffffffffffffff19166020820180517bffffffffffffffffffffffffffffffffffffffffffffffffffffffff83818316178352505050509050600360009054906101000a900473ffffffffffffffffffffffffffffffffffffffff1673ffffffffffffffffffffffffffffffffffffffff16634000aea08887846040518463ffffffff1660e01b815260040162001e32939291906200354a565b602060405180830381600087803b15801562001e4d57600080fd5b505af115801562001e62573d6000803e3d6000fd5b505050506040513d601f19601f8201168201806040525081019062001e889190620035bf565b62001eca576040517f08c379a000000000000000000000000000000000000000000000000000000000815260040162001ec19062003667565b60405180910390fd5b60016005600082825462001edf919062002e32565b925050819055505095945050505050565b62001efa6200241c565b600060208362001f0b919062003192565b1462001f3e5760208262001f20919062003192565b602062001f2e919062002df7565b8262001f3b919062002e32565b91505b81836020018181525050604051808452600081528281016020016040525082905092915050565b6017811162001f965762001f8f8160058460ff16901b60ff161784620020eb90919063ffffffff16565b50620020c0565b60ff811162001fde5762001fbe601860058460ff16901b1784620020eb90919063ffffffff16565b5062001fd7816001856200210f9092919063ffffffff16565b50620020bf565b61ffff8111620020275762002007601960058460ff16901b1784620020eb90919063ffffffff16565b5062002020816002856200210f9092919063ffffffff16565b50620020be565b63ffffffff8111620020725762002052601a60058460ff16901b1784620020eb90919063ffffffff16565b506200206b816004856200210f9092919063ffffffff16565b50620020bd565b67ffffffffffffffff8111620020bc57620020a1601b60058460ff16901b1784620020eb90919063ffffffff16565b50620020ba816008856200210f9092919063ffffffff16565b505b5b5b5b5b505050565b620020cf6200241c565b620020e38384600001515184855162002135565b905092915050565b620020f56200241c565b6200210783846000015151846200225c565b905092915050565b620021196200241c565b6200212c848560000151518585620022bb565b90509392505050565b6200213f6200241c565b82518211156200214e57600080fd5b8460200151828562002161919062002e32565b11156200219f576200219e8560026200218c8860200151888762002186919062002e32565b62002359565b62002198919062003102565b62002377565b5b600080865180518760208301019350808887011115620021bf5787860182525b60208701925050505b602084106200220e5780518252602082620021e4919062002e32565b9150602081620021f5919062002e32565b905060208462002206919062002df7565b9350620021c8565b6000600185602062002221919062002df7565b610100620022309190620037dd565b6200223c919062002df7565b905080198251168184511681811785525050879350505050949350505050565b620022666200241c565b8360200151831062002291576200229084600286602001516200228a919062003102565b62002377565b5b8351805160208583010184815381861415620022ae576001820183525b5050508390509392505050565b620022c56200241c565b84602001518483620022d8919062002e32565b11156200230757620023068560028685620022f4919062002e32565b62002300919062003102565b62002377565b5b60006001836101006200231b9190620037dd565b62002327919062002df7565b905085518386820101858319825116178152815185880111156200234b5784870182525b505085915050949350505050565b6000818311156200236d5782905062002371565b8190505b92915050565b6000826000015190506200238c838362001ef0565b50620023998382620020c5565b50505050565b612380806200382f83390190565b6040518060a0016040528060008019168152602001600073ffffffffffffffffffffffffffffffffffffffff16815260200160007bffffffffffffffffffffffffffffffffffffffffffffffffffffffff1916815260200160008152602001620024166200241c565b81525090565b604051806040016040528060608152602001600081525090565b6000604051905090565b600080fd5b600080fd5b6000819050919050565b6200245f816200244a565b81146200246b57600080fd5b50565b6000813590506200247f8162002454565b92915050565b600080604083850312156200249f576200249e62002440565b5b6000620024af858286016200246e565b9250506020620024c2858286016200246e565b9150509250929050565b600080fd5b600080fd5b6000601f19601f8301169050919050565b7f4e487b7100000000000000000000000000000000000000000000000000000000600052604160045260246000fd5b6200252182620024d6565b810181811067ffffffffffffffff82111715620025435762002542620024e7565b5b80604052505050565b60006200255862002436565b905062002566828262002516565b919050565b600067ffffffffffffffff821115620025895762002588620024e7565b5b6200259482620024d6565b9050602081019050919050565b82818337600083830152505050565b6000620025c7620025c1846200256b565b6200254c565b905082815260208101848484011115620025e657620025e5620024d1565b5b620025f3848285620025a1565b509392505050565b600082601f830112620026135762002612620024cc565b5b813562002625848260208601620025b0565b91505092915050565b60006020828403121562002647576200264662002440565b5b600082013567ffffffffffffffff81111562002668576200266762002445565b5b6200267684828501620025fb565b91505092915050565b6000819050919050565b62002694816200267f565b82525050565b6000602082019050620026b1600083018462002689565b92915050565b600080fd5b600080fd5b60008083601f840112620026da57620026d9620024cc565b5b8235905067ffffffffffffffff811115620026fa57620026f9620026b7565b5b602083019150836001820283011115620027195762002718620026bc565b5b9250929050565b600060ff82169050919050565b620027388162002720565b81146200274457600080fd5b50565b60008135905062002758816200272d565b92915050565b6000806000604084860312156200277a576200277962002440565b5b600084013567ffffffffffffffff8111156200279b576200279a62002445565b5b620027a986828701620026c1565b93509350506020620027be8682870162002747565b9150509250925092565b600073ffffffffffffffffffffffffffffffffffffffff82169050919050565b6000819050919050565b6000620028136200280d6200280784620027c8565b620027e8565b620027c8565b9050919050565b60006200282782620027f2565b9050919050565b60006200283b826200281a565b9050919050565b6200284d816200282e565b82525050565b60006020820190506200286a600083018462002842565b92915050565b60006200287d82620027c8565b9050919050565b6200288f8162002870565b81146200289b57600080fd5b50565b600081359050620028af8162002884565b92915050565b600060208284031215620028ce57620028cd62002440565b5b6000620028de848285016200289e565b91505092915050565b6000806040838503121562002901576200290062002440565b5b600083013567ffffffffffffffff81111562002922576200292162002445565b5b6200293085828601620025fb565b925050602062002943858286016200289e565b9150509250929050565b60008115159050919050565b62002964816200294d565b82525050565b600060208201905062002981600083018462002959565b92915050565b620029928162002870565b82525050565b6000602082019050620029af600083018462002987565b92915050565b60008060208385031215620029cf57620029ce62002440565b5b600083013567ffffffffffffffff811115620029f057620029ef62002445565b5b620029fe85828601620026c1565b92509250509250929050565b60006020828403121562002a235762002a2262002440565b5b600062002a33848285016200246e565b91505092915050565b600081519050919050565b600082825260208201905092915050565b60005b8381101562002a7857808201518184015260208101905062002a5b565b8381111562002a88576000848401525b50505050565b600062002a9b8262002a3c565b62002aa7818562002a47565b935062002ab981856020860162002a58565b62002ac481620024d6565b840191505092915050565b6000604082019050818103600083015262002aeb818562002a8e565b905062002afc602083018462002689565b9392505050565b62002b0e816200267f565b811462002b1a57600080fd5b50565b60008135905062002b2e8162002b03565b92915050565b6000806040838503121562002b4e5762002b4d62002440565b5b600083013567ffffffffffffffff81111562002b6f5762002b6e62002445565b5b62002b7d85828601620025fb565b925050602062002b908582860162002b1d565b9150509250929050565b62002ba5816200244a565b82525050565b600060208201905062002bc2600083018462002b9a565b92915050565b6000806000806060858703121562002be55762002be462002440565b5b600085013567ffffffffffffffff81111562002c065762002c0562002445565b5b62002c1487828801620026c1565b9450945050602062002c298782880162002b1d565b925050604062002c3c8782880162002b1d565b91505092959194509250565b7f536f75726365206d75737420626520746865206f7261636c65206f662074686560008201527f2072657175657374000000000000000000000000000000000000000000000000602082015250565b600062002ca660288362002a47565b915062002cb38262002c48565b604082019050919050565b6000602082019050818103600083015262002cd98162002c97565b9050919050565b600081905092915050565b600062002cf88262002a3c565b62002d04818562002ce0565b935062002d1681856020860162002a58565b80840191505092915050565b600062002d30828462002ceb565b915081905092915050565b600062002d49838562002ce0565b935062002d58838584620025a1565b82840190509392505050565b600062002d7382848662002d3b565b91508190509392505050565b60008151905062002d908162002b03565b92915050565b60006020828403121562002daf5762002dae62002440565b5b600062002dbf8482850162002d7f565b91505092915050565b7f4e487b7100000000000000000000000000000000000000000000000000000000600052601160045260246000fd5b600062002e04826200267f565b915062002e11836200267f565b92508282101562002e275762002e2662002dc8565b5b828203905092915050565b600062002e3f826200267f565b915062002e4c836200267f565b9250827fffffffffffffffffffffffffffffffffffffffffffffffffffffffffffffffff0382111562002e845762002e8362002dc8565b5b828201905092915050565b62002e9a8162002720565b82525050565b600060608201905062002eb7600083018662002987565b62002ec6602083018562002689565b62002ed5604083018462002e8f565b949350505050565b600062002eeb838562002a47565b935062002efa838584620025a1565b62002f0583620024d6565b840190509392505050565b6000608082019050818103600083015262002f2d81878962002edd565b905062002f3e602083018662002987565b62002f4d604083018562002e8f565b62002f5c606083018462002689565b9695505050505050565b7f62616c616e6365206973207a65726f0000000000000000000000000000000000600082015250565b600062002f9e600f8362002a47565b915062002fab8262002f66565b602082019050919050565b6000602082019050818103600083015262002fd18162002f8f565b9050919050565b7f4f776e61626c653a2063616c6c6572206973206e6f7420746865206f776e6572600082015250565b60006200301060208362002a47565b91506200301d8262002fd8565b602082019050919050565b60006020820190508181036000830152620030438162003001565b9050919050565b7f4e487b7100000000000000000000000000000000000000000000000000000000600052603260045260246000fd5b600062003086826200267f565b91507fffffffffffffffffffffffffffffffffffffffffffffffffffffffffffffffff821415620030bc57620030bb62002dc8565b5b600182019050919050565b6000620030d48262002720565b9150620030e18362002720565b925082821015620030f757620030f662002dc8565b5b828203905092915050565b60006200310f826200267f565b91506200311c836200267f565b9250817fffffffffffffffffffffffffffffffffffffffffffffffffffffffffffffffff048311821515161562003158576200315762002dc8565b5b828202905092915050565b7f4e487b7100000000000000000000000000000000000000000000000000000000600052601260045260246000fd5b60006200319f826200267f565b9150620031ac836200267f565b925082620031bf57620031be62003163565b5b828206905092915050565b600081519050620031db8162002884565b92915050565b600060208284031215620031fa57620031f962002440565b5b60006200320a84828501620031ca565b91505092915050565b600060608201905081810360008301526200322f818662002a8e565b905062003240602083018562002987565b6200324f604083018462002689565b949350505050565b60006040820190506200326e600083018562002689565b6200327d602083018462002689565b9392505050565b60006060820190508181036000830152620032a181868862002edd565b9050620032b2602083018562002689565b620032c1604083018462002987565b95945050505050565b7f4f776e61626c653a206e6577206f776e657220697320746865207a65726f206160008201527f6464726573730000000000000000000000000000000000000000000000000000602082015250565b60006200332860268362002a47565b91506200333582620032ca565b604082019050919050565b600060208201905081810360008301526200335b8162003319565b9050919050565b60006200336f826200281a565b9050919050565b60008160601b9050919050565b6000620033908262003376565b9050919050565b6000620033a48262003383565b9050919050565b620033c0620033ba8262003362565b62003397565b82525050565b6000819050919050565b620033e5620033df826200267f565b620033c6565b82525050565b6000620033f98285620033ab565b6014820191506200340b8284620033d0565b6020820191508190509392505050565b60007fffffffff0000000000000000000000000000000000000000000000000000000082169050919050565b62003452816200341b565b82525050565b600081519050919050565b600082825260208201905092915050565b6000620034818262003458565b6200348d818562003463565b93506200349f81856020860162002a58565b620034aa81620024d6565b840191505092915050565b600061010082019050620034cd600083018b62002987565b620034dc602083018a62002689565b620034eb604083018962002b9a565b620034fa606083018862002987565b62003509608083018762003447565b6200351860a083018662002689565b6200352760c083018562002689565b81810360e08301526200353b818462003474565b90509998505050505050505050565b600060608201905062003561600083018662002987565b62003570602083018562002689565b818103604083015262003584818462003474565b9050949350505050565b62003599816200294d565b8114620035a557600080fd5b50565b600081519050620035b9816200358e565b92915050565b600060208284031215620035d857620035d762002440565b5b6000620035e884828501620035a8565b91505092915050565b7f756e61626c6520746f207472616e73666572416e6443616c6c20746f206f726160008201527f636c650000000000000000000000000000000000000000000000000000000000602082015250565b60006200364f60238362002a47565b91506200365c82620035f1565b604082019050919050565b60006020820190508181036000830152620036828162003640565b9050919050565b60008160011c9050919050565b6000808291508390505b6001851115620036e857808604811115620036c057620036bf62002dc8565b5b6001851615620036d05780820291505b8081029050620036e08562003689565b9450620036a0565b94509492505050565b600082620037035760019050620037d6565b81620037135760009050620037d6565b81600181146200372c576002811462003737576200376d565b6001915050620037d6565b60ff8411156200374c576200374b62002dc8565b5b8360020a91508482111562003766576200376562002dc8565b5b50620037d6565b5060208310610133831016604e8410600b8410161715620037a75782820a905083811115620037a157620037a062002dc8565b5b620037d6565b620037b6848484600162003696565b92509050818404811115620037d057620037cf62002dc8565b5b81810290505b9392505050565b6000620037ea826200267f565b9150620037f7836200267f565b9250620038267fffffffffffffffffffffffffffffffffffffffffffffffffffffffffffffffff8484620036f1565b90509291505056fe60806040523480156200001157600080fd5b506040516200238038038062002380833981810160405281019062000037919062000247565b8181620000596200004d6200013b60201b60201c565b6200014360201b60201c565b60008060146101000a81548160ff021916908360018111156200008157620000806200028e565b5b02179055508160018190555080600281905550505060008060146101000a81548160ff02191690836001811115620000be57620000bd6200028e565b5b02179055506000601660006101000a81548160ff02191690836003811115620000ec57620000eb6200028e565b5b02179055506000601460006101000a81548173ffffffffffffffffffffffffffffffffffffffff021916908373ffffffffffffffffffffffffffffffffffffffff1602179055505050620002bd565b600033905090565b60008060009054906101000a900473ffffffffffffffffffffffffffffffffffffffff169050816000806101000a81548173ffffffffffffffffffffffffffffffffffffffff021916908373ffffffffffffffffffffffffffffffffffffffff1602179055508173ffffffffffffffffffffffffffffffffffffffff168173ffffffffffffffffffffffffffffffffffffffff167f8be0079c531659141344cd1fd0a4f28419497f9722a3daafe3b4186f6b6457e060405160405180910390a35050565b600080fd5b6000819050919050565b62000221816200020c565b81146200022d57600080fd5b50565b600081519050620002418162000216565b92915050565b6000806040838503121562000261576200026062000207565b5b6000620002718582860162000230565b9250506020620002848582860162000230565b9150509250929050565b7f4e487b7100000000000000000000000000000000000000000000000000000000600052602160045260246000fd5b6120b380620002cd6000396000f3fe608060405234801561001057600080fd5b50600436106101cf5760003560e01c8063aa236df411610104578063c9ca03cd116100a2578063e8eaca7511610071578063e8eaca751461055e578063f2fde38b1461057c578063f8fd067f14610598578063fbf06338146105b4576101cf565b8063c9ca03cd146104d4578063d9d52160146104f2578063dfbf53ae14610522578063e11f3f7714610540576101cf565b8063b810fe8d116100de578063b810fe8d14610438578063c003aef314610468578063c69de22414610486578063c7b8cad5146104a4576101cf565b8063aa236df4146103a8578063ad9ed66e146103d8578063b3db3ced14610408576101cf565b8063715018a6116101715780637d8820971161014b5780637d882097146103205780638da5cb5b1461033e5780638f8f1b7c1461035c57806391c54ca414610378576101cf565b8063715018a6146102c8578063788e26e7146102d257806379db8a13146102f0576101cf565b80633255d451116101ad5780633255d4511461024057806336201e531461025e5780634e33f83b1461027c57806363ceb60d146102ac576101cf565b80630873d9ec146101d457806309126f08146101f2578063200d2ed214610222575b600080fd5b6101dc6105d2565b6040516101e99190611954565b60405180910390f35b61020c600480360381019061020791906119d2565b6105d8565b6040516102199190611954565b60405180910390f35b61022a6105f0565b6040516102379190611a76565b60405180910390f35b610248610603565b6040516102559190611954565b60405180910390f35b610266610609565b6040516102739190611954565b60405180910390f35b610296600480360381019061029191906119d2565b61060f565b6040516102a39190611954565b60405180910390f35b6102c660048036038101906102c19190611abd565b610627565b005b6102d0610772565b005b6102da6107fa565b6040516102e79190611954565b60405180910390f35b61030a60048036038101906103059190611afd565b610800565b6040516103179190611954565b60405180910390f35b610328610824565b6040516103359190611954565b60405180910390f35b61034661082a565b6040516103539190611b39565b60405180910390f35b61037660048036038101906103719190611b8d565b610853565b005b610392600480360381019061038d9190611afd565b6109d5565b60405161039f9190611b39565b60405180910390f35b6103c260048036038101906103bd9190611afd565b610a08565b6040516103cf9190611b39565b60405180910390f35b6103f260048036038101906103ed9190611afd565b610a3b565b6040516103ff9190611954565b60405180910390f35b610422600480360381019061041d9190611afd565b610a5f565b60405161042f9190611954565b60405180910390f35b610452600480360381019061044d91906119d2565b610a83565b60405161045f9190611954565b60405180910390f35b610470610a9b565b60405161047d9190611954565b60405180910390f35b61048e610aa1565b60405161049b9190611954565b60405180910390f35b6104be60048036038101906104b991906119d2565b610aa7565b6040516104cb9190611954565b60405180910390f35b6104dc610abf565b6040516104e99190611954565b60405180910390f35b61050c60048036038101906105079190611afd565b610ac5565b6040516105199190611b39565b60405180910390f35b61052a610af8565b6040516105379190611b39565b60405180910390f35b610548610b1e565b6040516105559190611954565b60405180910390f35b610566610b24565b6040516105739190611954565b60405180910390f35b610596600480360381019061059191906119d2565b610b2a565b005b6105b260048036038101906105ad9190611afd565b610c22565b005b6105bc610d95565b6040516105c99190611c28565b60405180910390f35b60085481565b60116020528060005260406000206000915090505481565b600060149054906101000a900460ff1681565b60025481565b60045481565b60106020528060005260406000206000915090505481565b61062f610da8565b73ffffffffffffffffffffffffffffffffffffffff1661064d61082a565b73ffffffffffffffffffffffffffffffffffffffff16146106a3576040517f08c379a000000000000000000000000000000000000000000000000000000000815260040161069a90611ca0565b60405180910390fd5b600082116106e6576040517f08c379a00000000000000000000000000000000000000000000000000000000081526004016106dd90611d0c565b60405180910390fd5b81600360008282546106f89190611d5b565b9250508190555081601560008282546107119190611d5b565b9250508190555081601060008373ffffffffffffffffffffffffffffffffffffffff1673ffffffffffffffffffffffffffffffffffffffff16815260200190815260200160002060008282546107679190611d5b565b925050819055505050565b61077a610da8565b73ffffffffffffffffffffffffffffffffffffffff1661079861082a565b73ffffffffffffffffffffffffffffffffffffffff16146107ee576040517f08c379a00000000000000000000000000000000000000000000000000000000081526004016107e590611ca0565b60405180910390fd5b6107f86000610db0565b565b60155481565b600b818154811061081057600080fd5b906000526020600020016000915090505481565b60035481565b60008060009054906101000a900473ffffffffffffffffffffffffffffffffffffffff16905090565b61085b610da8565b73ffffffffffffffffffffffffffffffffffffffff1661087961082a565b73ffffffffffffffffffffffffffffffffffffffff16146108cf576040517f08c379a00000000000000000000000000000000000000000000000000000000081526004016108c690611ca0565b60405180910390fd5b60008211610912576040517f08c379a000000000000000000000000000000000000000000000000000000000815260040161090990611d0c565b60405180910390fd5b60018160ff16141561092d576109288383610e74565b610961565b60038160ff161415610948576109438383610fa4565b610960565b60028160ff16141561095f5761095e83836110d4565b5b5b5b81600360008282546109739190611d5b565b9250508190555081601060008573ffffffffffffffffffffffffffffffffffffffff1673ffffffffffffffffffffffffffffffffffffffff16815260200190815260200160002060008282546109c99190611d5b565b92505081905550505050565b600f6020528060005260406000206000915054906101000a900473ffffffffffffffffffffffffffffffffffffffff1681565b600e6020528060005260406000206000915054906101000a900473ffffffffffffffffffffffffffffffffffffffff1681565b600a8181548110610a4b57600080fd5b906000526020600020016000915090505481565b600c8181548110610a6f57600080fd5b906000526020600020016000915090505481565b60136020528060005260406000206000915090505481565b60065481565b60095481565b60126020528060005260406000206000915090505481565b60015481565b600d6020528060005260406000206000915054906101000a900473ffffffffffffffffffffffffffffffffffffffff1681565b601460009054906101000a900473ffffffffffffffffffffffffffffffffffffffff1681565b60055481565b60075481565b610b32610da8565b73ffffffffffffffffffffffffffffffffffffffff16610b5061082a565b73ffffffffffffffffffffffffffffffffffffffff1614610ba6576040517f08c379a0000000000000000000000000000000000000000000000000000000008152600401610b9d90611ca0565b60405180910390fd5b600073ffffffffffffffffffffffffffffffffffffffff168173ffffffffffffffffffffffffffffffffffffffff161415610c16576040517f08c379a0000000000000000000000000000000000000000000000000000000008152600401610c0d90611e23565b60405180910390fd5b610c1f81610db0565b50565b610c2a610da8565b73ffffffffffffffffffffffffffffffffffffffff16610c4861082a565b73ffffffffffffffffffffffffffffffffffffffff1614610c9e576040517f08c379a0000000000000000000000000000000000000000000000000000000008152600401610c9590611ca0565b60405180910390fd5b60006001811115610cb257610cb16119ff565b5b600060149054906101000a900460ff166001811115610cd457610cd36119ff565b5b14610d14576040517f08c379a0000000000000000000000000000000000000000000000000000000008152600401610d0b90611e8f565b60405180910390fd5b6001600060146101000a81548160ff02191690836001811115610d3a57610d396119ff565b5b021790555060018114610d5e5760028114610d56576003610d59565b60025b610d61565b60015b601660006101000a81548160ff02191690836003811115610d8557610d846119ff565b5b0217905550610d92611204565b50565b601660009054906101000a900460ff1681565b600033905090565b60008060009054906101000a900473ffffffffffffffffffffffffffffffffffffffff169050816000806101000a81548173ffffffffffffffffffffffffffffffffffffffff021916908373ffffffffffffffffffffffffffffffffffffffff1602179055508173ffffffffffffffffffffffffffffffffffffffff168173ffffffffffffffffffffffffffffffffffffffff167f8be0079c531659141344cd1fd0a4f28419497f9722a3daafe3b4186f6b6457e060405160405180910390a35050565b6000429050600081600154610e899190611eaf565b83610e949190611ee3565b905080601160008673ffffffffffffffffffffffffffffffffffffffff1673ffffffffffffffffffffffffffffffffffffffff1681526020019081526020016000206000828254610ee59190611d5b565b925050819055508060046000828254610efe9190611d5b565b92505081905550600a600454908060018154018082558091505060019003906000526020600020016000909190919091505583600d6000600754815260200190815260200160002060006101000a81548173ffffffffffffffffffffffffffffffffffffffff021916908373ffffffffffffffffffffffffffffffffffffffff160217905550600160076000828254610f979190611d5b565b9250508190555050505050565b6000429050600081600154610fb99190611eaf565b83610fc49190611ee3565b905080601360008673ffffffffffffffffffffffffffffffffffffffff1673ffffffffffffffffffffffffffffffffffffffff16815260200190815260200160002060008282546110159190611d5b565b92505081905550806006600082825461102e9190611d5b565b92505081905550600c600654908060018154018082558091505060019003906000526020600020016000909190919091505583600f6000600954815260200190815260200160002060006101000a81548173ffffffffffffffffffffffffffffffffffffffff021916908373ffffffffffffffffffffffffffffffffffffffff1602179055506001600960008282546110c79190611d5b565b9250508190555050505050565b60004290506000816001546110e99190611eaf565b836110f49190611ee3565b905080601260008673ffffffffffffffffffffffffffffffffffffffff1673ffffffffffffffffffffffffffffffffffffffff16815260200190815260200160002060008282546111459190611d5b565b92505081905550806005600082825461115e9190611d5b565b92505081905550600b600554908060018154018082558091505060019003906000526020600020016000909190919091505583600e6000600754815260200190815260200160002060006101000a81548173ffffffffffffffffffffffffffffffffffffffff021916908373ffffffffffffffffffffffffffffffffffffffff1602179055506001600860008282546111f79190611d5b565b9250508190555050505050565b60016003811115611218576112176119ff565b5b601660009054906101000a900460ff16600381111561123a576112396119ff565b5b141561128d5761124861139e565b601460006101000a81548173ffffffffffffffffffffffffffffffffffffffff021916908373ffffffffffffffffffffffffffffffffffffffff16021790555061139c565b6003808111156112a05761129f6119ff565b5b601660009054906101000a900460ff1660038111156112c2576112c16119ff565b5b1415611315576112d0611568565b601460006101000a81548173ffffffffffffffffffffffffffffffffffffffff021916908373ffffffffffffffffffffffffffffffffffffffff16021790555061139b565b60026003811115611329576113286119ff565b5b601660009054906101000a900460ff16600381111561134b5761134a6119ff565b5b141561139a57611359611732565b601460006101000a81548173ffffffffffffffffffffffffffffffffffffffff021916908373ffffffffffffffffffffffffffffffffffffffff1602179055505b5b5b565b6000806113a96118fc565b9050600454816113b99190611f6c565b9050600a6000815481106113d0576113cf611f9d565b5b906000526020600020015481101561141e57600d600080815260200190815260200160002060009054906101000a900473ffffffffffffffffffffffffffffffffffffffff16915050611565565b60006001600a805490506114329190611eaf565b905060005b81811161152b5760006002828461144e9190611eaf565b6114589190611fcc565b826114639190611d5b565b9050600a818154811061147957611478611f9d565b5b906000526020600020015484101561149f576001816114989190611eaf565b9250611525565b600a81815481106114b3576114b2611f9d565b5b90600052602060002001548411156114d9576001816114d29190611d5b565b9150611524565b600d60006001836114ea9190611d5b565b815260200190815260200160002060009054906101000a900473ffffffffffffffffffffffffffffffffffffffff16945050505050611565565b5b50611437565b600d600082815260200190815260200160002060009054906101000a900473ffffffffffffffffffffffffffffffffffffffff1693505050505b90565b6000806115736118fc565b9050600654816115839190611f6c565b9050600c60008154811061159a57611599611f9d565b5b90600052602060002001548110156115e857600f600080815260200190815260200160002060009054906101000a900473ffffffffffffffffffffffffffffffffffffffff1691505061172f565b60006001600c805490506115fc9190611eaf565b905060005b8181116116f5576000600282846116189190611eaf565b6116229190611fcc565b8261162d9190611d5b565b9050600c818154811061164357611642611f9d565b5b9060005260206000200154841015611669576001816116629190611eaf565b92506116ef565b600c818154811061167d5761167c611f9d565b5b90600052602060002001548411156116a35760018161169c9190611d5b565b91506116ee565b600f60006001836116b49190611d5b565b815260200190815260200160002060009054906101000a900473ffffffffffffffffffffffffffffffffffffffff1694505050505061172f565b5b50611601565b600f600082815260200190815260200160002060009054906101000a900473ffffffffffffffffffffffffffffffffffffffff1693505050505b90565b60008061173d6118fc565b90506005548161174d9190611f6c565b9050600b60008154811061176457611763611f9d565b5b90600052602060002001548110156117b257600e600080815260200190815260200160002060009054906101000a900473ffffffffffffffffffffffffffffffffffffffff169150506118f9565b60006001600b805490506117c69190611eaf565b905060005b8181116118bf576000600282846117e29190611eaf565b6117ec9190611fcc565b826117f79190611d5b565b9050600b818154811061180d5761180c611f9d565b5b90600052602060002001548410156118335760018161182c9190611eaf565b92506118b9565b600b818154811061184757611846611f9d565b5b906000526020600020015484111561186d576001816118669190611d5b565b91506118b8565b600e600060018361187e9190611d5b565b815260200190815260200160002060009054906101000a900473ffffffffffffffffffffffffffffffffffffffff169450505050506118f9565b5b506117cb565b600e600082815260200190815260200160002060009054906101000a900473ffffffffffffffffffffffffffffffffffffffff1693505050505b90565b6000444260035460015460025460405160200161191d95949392919061201e565b6040516020818303038152906040528051906020012060001c905090565b6000819050919050565b61194e8161193b565b82525050565b60006020820190506119696000830184611945565b92915050565b600080fd5b600073ffffffffffffffffffffffffffffffffffffffff82169050919050565b600061199f82611974565b9050919050565b6119af81611994565b81146119ba57600080fd5b50565b6000813590506119cc816119a6565b92915050565b6000602082840312156119e8576119e761196f565b5b60006119f6848285016119bd565b91505092915050565b7f4e487b7100000000000000000000000000000000000000000000000000000000600052602160045260246000fd5b60028110611a3f57611a3e6119ff565b5b50565b6000819050611a5082611a2e565b919050565b6000611a6082611a42565b9050919050565b611a7081611a55565b82525050565b6000602082019050611a8b6000830184611a67565b92915050565b611a9a8161193b565b8114611aa557600080fd5b50565b600081359050611ab781611a91565b92915050565b60008060408385031215611ad457611ad361196f565b5b6000611ae285828601611aa8565b9250506020611af3858286016119bd565b9150509250929050565b600060208284031215611b1357611b1261196f565b5b6000611b2184828501611aa8565b91505092915050565b611b3381611994565b82525050565b6000602082019050611b4e6000830184611b2a565b92915050565b600060ff82169050919050565b611b6a81611b54565b8114611b7557600080fd5b50565b600081359050611b8781611b61565b92915050565b600080600060608486031215611ba657611ba561196f565b5b6000611bb4868287016119bd565b9350506020611bc586828701611aa8565b9250506040611bd686828701611b78565b9150509250925092565b60048110611bf157611bf06119ff565b5b50565b6000819050611c0282611be0565b919050565b6000611c1282611bf4565b9050919050565b611c2281611c07565b82525050565b6000602082019050611c3d6000830184611c19565b92915050565b600082825260208201905092915050565b7f4f776e61626c653a2063616c6c6572206973206e6f7420746865206f776e6572600082015250565b6000611c8a602083611c43565b9150611c9582611c54565b602082019050919050565b60006020820190508181036000830152611cb981611c7d565b9050919050565b7f616d6f756e74206d75737420626520706f736974696600000000000000000000600082015250565b6000611cf6601683611c43565b9150611d0182611cc0565b602082019050919050565b60006020820190508181036000830152611d2581611ce9565b9050919050565b7f4e487b7100000000000000000000000000000000000000000000000000000000600052601160045260246000fd5b6000611d668261193b565b9150611d718361193b565b9250827fffffffffffffffffffffffffffffffffffffffffffffffffffffffffffffffff03821115611da657611da5611d2c565b5b828201905092915050565b7f4f776e61626c653a206e6577206f776e657220697320746865207a65726f206160008201527f6464726573730000000000000000000000000000000000000000000000000000602082015250565b6000611e0d602683611c43565b9150611e1882611db1565b604082019050919050565b60006020820190508181036000830152611e3c81611e00565b9050919050565b7f43616e7420736574746c652074686973206d6174636800000000000000000000600082015250565b6000611e79601683611c43565b9150611e8482611e43565b602082019050919050565b60006020820190508181036000830152611ea881611e6c565b9050919050565b6000611eba8261193b565b9150611ec58361193b565b925082821015611ed857611ed7611d2c565b5b828203905092915050565b6000611eee8261193b565b9150611ef98361193b565b9250817fffffffffffffffffffffffffffffffffffffffffffffffffffffffffffffffff0483118215151615611f3257611f31611d2c565b5b828202905092915050565b7f4e487b7100000000000000000000000000000000000000000000000000000000600052601260045260246000fd5b6000611f778261193b565b9150611f828361193b565b925082611f9257611f91611f3d565b5b828206905092915050565b7f4e487b7100000000000000000000000000000000000000000000000000000000600052603260045260246000fd5b6000611fd78261193b565b9150611fe28361193b565b925082611ff257611ff1611f3d565b5b828204905092915050565b6000819050919050565b6120186120138261193b565b611ffd565b82525050565b600061202a8288612007565b60208201915061203a8287612007565b60208201915061204a8286612007565b60208201915061205a8285612007565b60208201915061206a8284612007565b602082019150819050969550505050505056fea2646970667358221220c020542e66a1e938f22a0149a1d4cc883cbdc85fefdf5103a5ebf4e577c29e1164736f6c63430008090033a26469706673582212203202b2d5c3b89fcc4b06cfd87f1839164c19c782bc529b4a22713710a28b28c664736f6c63430008090033",
  "linkReferences": {},
  "deployedLinkReferences": {}
}