{
  "_format": "hh-sol-artifact-1",
  "contractName": "LosslessManager",
  "sourceName": "contracts/LosslessManager.sol",
  "abi": [
    {
      "inputs": [
        {
          "internalType": "address",
          "name": "_qiToken",
          "type": "address"
        }
      ],
      "stateMutability": "nonpayable",
      "type": "constructor"
    },
    {
      "anonymous": false,
      "inputs": [
        {
          "indexed": false,
          "internalType": "string",
          "name": "gameId",
          "type": "string"
        },
        {
          "indexed": false,
          "internalType": "enum BenqiLossless.BetSide",
          "name": "betside",
          "type": "uint8"
        },
        {
          "indexed": false,
          "internalType": "uint256",
          "name": "amount",
          "type": "uint256"
        }
      ],
      "name": "BetPlaced",
      "type": "event"
    },
    {
      "anonymous": false,
      "inputs": [
        {
          "indexed": false,
          "internalType": "string",
          "name": "gameId",
          "type": "string"
        },
        {
          "indexed": false,
          "internalType": "uint256",
          "name": "gameCount",
          "type": "uint256"
        },
        {
          "indexed": false,
          "internalType": "address",
          "name": "gameAddress",
          "type": "address"
        }
      ],
      "name": "GameCreated",
      "type": "event"
    },
    {
      "anonymous": false,
      "inputs": [
        {
          "indexed": false,
          "internalType": "string",
          "name": "gameId",
          "type": "string"
        },
        {
          "indexed": false,
          "internalType": "uint256",
          "name": "amount",
          "type": "uint256"
        }
      ],
      "name": "GameSponsored",
      "type": "event"
    },
    {
      "anonymous": false,
      "inputs": [
        {
          "indexed": true,
          "internalType": "address",
          "name": "previousOwner",
          "type": "address"
        },
        {
          "indexed": true,
          "internalType": "address",
          "name": "newOwner",
          "type": "address"
        }
      ],
      "name": "OwnershipTransferred",
      "type": "event"
    },
    {
      "anonymous": false,
      "inputs": [
        {
          "indexed": false,
          "internalType": "string",
          "name": "gameId",
          "type": "string"
        },
        {
          "indexed": false,
          "internalType": "address",
          "name": "winner",
          "type": "address"
        },
        {
          "indexed": false,
          "internalType": "uint256",
          "name": "amount",
          "type": "uint256"
        }
      ],
      "name": "Winner",
      "type": "event"
    },
    {
      "inputs": [
        {
          "internalType": "string",
          "name": "_objectId",
          "type": "string"
        },
        {
          "internalType": "uint256",
          "name": "_matchStartTime",
          "type": "uint256"
        },
        {
          "internalType": "uint256",
          "name": "_matchFinishTime",
          "type": "uint256"
        }
      ],
      "name": "create",
      "outputs": [],
      "stateMutability": "nonpayable",
      "type": "function"
    },
    {
      "inputs": [
        {
          "internalType": "string",
          "name": "",
          "type": "string"
        }
      ],
      "name": "gameIdToAddress",
      "outputs": [
        {
          "internalType": "address",
          "name": "",
          "type": "address"
        }
      ],
      "stateMutability": "view",
      "type": "function"
    },
    {
      "inputs": [
        {
          "internalType": "string",
          "name": "",
          "type": "string"
        },
        {
          "internalType": "address",
          "name": "",
          "type": "address"
        }
      ],
      "name": "gameIdToPlayerIn",
      "outputs": [
        {
          "internalType": "bool",
          "name": "",
          "type": "bool"
        }
      ],
      "stateMutability": "view",
      "type": "function"
    },
    {
      "inputs": [
        {
          "internalType": "string",
          "name": "",
          "type": "string"
        },
        {
          "internalType": "uint256",
          "name": "",
          "type": "uint256"
        }
      ],
      "name": "gameIdToPlayers",
      "outputs": [
        {
          "internalType": "address",
          "name": "",
          "type": "address"
        }
      ],
      "stateMutability": "view",
      "type": "function"
    },
    {
      "inputs": [
        {
          "internalType": "string",
          "name": "",
          "type": "string"
        }
      ],
      "name": "gameIdToTokenBalance",
      "outputs": [
        {
          "internalType": "uint256",
          "name": "",
          "type": "uint256"
        }
      ],
      "stateMutability": "view",
      "type": "function"
    },
    {
      "inputs": [],
      "name": "gamesCount",
      "outputs": [
        {
          "internalType": "uint256",
          "name": "",
          "type": "uint256"
        }
      ],
      "stateMutability": "view",
      "type": "function"
    },
    {
      "inputs": [
        {
          "internalType": "string",
          "name": "_gameId",
          "type": "string"
        }
      ],
      "name": "getGameAddress",
      "outputs": [
        {
          "internalType": "address",
          "name": "",
          "type": "address"
        }
      ],
      "stateMutability": "view",
      "type": "function"
    },
    {
      "inputs": [
        {
          "internalType": "string",
          "name": "_gameId",
          "type": "string"
        }
      ],
      "name": "getQiTokenBalance",
      "outputs": [
        {
          "internalType": "uint256",
          "name": "",
          "type": "uint256"
        }
      ],
      "stateMutability": "view",
      "type": "function"
    },
    {
      "inputs": [],
      "name": "getQiTokenBalanceOfContract",
      "outputs": [
        {
          "internalType": "uint256",
          "name": "",
          "type": "uint256"
        }
      ],
      "stateMutability": "view",
      "type": "function"
    },
    {
      "inputs": [],
      "name": "mintQiToken",
      "outputs": [],
      "stateMutability": "payable",
      "type": "function"
    },
    {
      "inputs": [],
      "name": "owner",
      "outputs": [
        {
          "internalType": "address",
          "name": "",
          "type": "address"
        }
      ],
      "stateMutability": "view",
      "type": "function"
    },
    {
      "inputs": [
        {
          "internalType": "string",
          "name": "_gameId",
          "type": "string"
        },
        {
          "internalType": "uint256",
          "name": "_betSide",
          "type": "uint256"
        }
      ],
      "name": "placeBet",
      "outputs": [],
      "stateMutability": "payable",
      "type": "function"
    },
    {
      "inputs": [
        {
          "internalType": "string",
          "name": "_gameId",
          "type": "string"
        },
        {
          "internalType": "uint256",
          "name": "_betSide",
          "type": "uint256"
        }
      ],
      "name": "placeBetDummy",
      "outputs": [],
      "stateMutability": "payable",
      "type": "function"
    },
    {
      "inputs": [
        {
          "internalType": "address",
          "name": "",
          "type": "address"
        }
      ],
      "name": "playerToBalance",
      "outputs": [
        {
          "internalType": "uint256",
          "name": "",
          "type": "uint256"
        }
      ],
      "stateMutability": "view",
      "type": "function"
    },
    {
      "inputs": [],
      "name": "qiToken",
      "outputs": [
        {
          "internalType": "contract QiAvaxInterface",
          "name": "",
          "type": "address"
        }
      ],
      "stateMutability": "view",
      "type": "function"
    },
    {
      "inputs": [],
      "name": "renounceOwnership",
      "outputs": [],
      "stateMutability": "nonpayable",
      "type": "function"
    },
    {
      "inputs": [
        {
          "internalType": "string",
          "name": "_gameId",
          "type": "string"
        },
        {
          "internalType": "uint256",
          "name": "_winningSide",
          "type": "uint256"
        }
      ],
      "name": "setMatchWinnerAndWithdrawFromPool",
      "outputs": [],
      "stateMutability": "nonpayable",
      "type": "function"
    },
    {
      "inputs": [
        {
          "internalType": "string",
          "name": "_gameId",
          "type": "string"
        }
      ],
      "name": "sponsor",
      "outputs": [],
      "stateMutability": "payable",
      "type": "function"
    },
    {
      "inputs": [
        {
          "internalType": "address",
          "name": "newOwner",
          "type": "address"
        }
      ],
      "name": "transferOwnership",
      "outputs": [],
      "stateMutability": "nonpayable",
      "type": "function"
    },
    {
      "inputs": [],
      "name": "withdraw",
      "outputs": [],
      "stateMutability": "nonpayable",
      "type": "function"
    },
    {
      "stateMutability": "payable",
      "type": "receive"
    }
  ],
  "bytecode": "0x60806040523480156200001157600080fd5b5060405162004f7a38038062004f7a8339818101604052810190620000379190620001dd565b620000576200004b620000a760201b60201c565b620000af60201b60201c565b600060018190555080600260006101000a81548173ffffffffffffffffffffffffffffffffffffffff021916908373ffffffffffffffffffffffffffffffffffffffff160217905550506200020f565b600033905090565b60008060009054906101000a900473ffffffffffffffffffffffffffffffffffffffff169050816000806101000a81548173ffffffffffffffffffffffffffffffffffffffff021916908373ffffffffffffffffffffffffffffffffffffffff1602179055508173ffffffffffffffffffffffffffffffffffffffff168173ffffffffffffffffffffffffffffffffffffffff167f8be0079c531659141344cd1fd0a4f28419497f9722a3daafe3b4186f6b6457e060405160405180910390a35050565b600080fd5b600073ffffffffffffffffffffffffffffffffffffffff82169050919050565b6000620001a58262000178565b9050919050565b620001b78162000198565b8114620001c357600080fd5b50565b600081519050620001d781620001ac565b92915050565b600060208284031215620001f657620001f562000173565b5b60006200020684828501620001c6565b91505092915050565b614d5b806200021f6000396000f3fe6080604052600436106200013f5760003560e01c80638da5cb5b11620000af578063cda3c499116200006d578063cda3c4991462000422578063d76f2a1e1462000450578063eabe4a5e1462000470578063f2fde38b14620004b4578063fb632b7c14620004e25762000147565b80638da5cb5b146200030c5780639070f9b5146200033c57806397911d491462000380578063b5005c3314620003c4578063b93bd9a914620003f25762000147565b80633ccfd60b11620000fd5780633ccfd60b1462000220578063462e4cda146200023a5780635a9ec3bd146200026a57806360d3ace614620002ae578063715018a614620002f25762000147565b80630164d7c4146200014c5780630a1ad3451462000158578063166ec72314620001785780631adac25114620001985780632c7865f014620001dc5762000147565b366200014757005b600080fd5b6200015662000512565b005b62000176600480360381019062000170919062001e3a565b62000599565b005b62000196600480360381019062000190919062001eca565b62000a46565b005b348015620001a557600080fd5b50620001c46004803603810190620001be919062002091565b62000b12565b604051620001d39190620020f3565b60405180910390f35b348015620001e957600080fd5b5062000208600480360381019062000202919062001e3a565b62000b40565b60405162000217919062002155565b60405180910390f35b3480156200022d57600080fd5b506200023862000b8d565b005b3480156200024757600080fd5b506200025262000ce6565b604051620002619190620021dd565b60405180910390f35b3480156200027757600080fd5b506200029660048036038101906200029091906200222b565b62000d0c565b604051620002a59190620020f3565b60405180910390f35b348015620002bb57600080fd5b50620002da6004803603810190620002d491906200225d565b62000d24565b604051620002e99190620022e0565b60405180910390f35b348015620002ff57600080fd5b506200030a62000d69565b005b3480156200031957600080fd5b506200032462000dfa565b60405162000333919062002155565b60405180910390f35b3480156200034957600080fd5b5062000368600480360381019062000362919062001e3a565b62000e23565b604051620003779190620020f3565b60405180910390f35b3480156200038d57600080fd5b50620003ac6004803603810190620003a69190620022fd565b62000e50565b604051620003bb919062002155565b60405180910390f35b348015620003d157600080fd5b50620003f06004803603810190620003ea919062001eca565b62000eb5565b005b348015620003ff57600080fd5b506200040a6200146b565b604051620004199190620020f3565b60405180910390f35b3480156200042f57600080fd5b506200044e600480360381019062000448919062002363565b62001523565b005b6200046e600480360381019062000468919062001eca565b620016ae565b005b3480156200047d57600080fd5b506200049c600480360381019062000496919062002091565b62001b8b565b604051620004ab919062002155565b60405180910390f35b348015620004c157600080fd5b50620004e06004803603810190620004da91906200222b565b62001bd4565b005b348015620004ef57600080fd5b50620004fa62001cd8565b604051620005099190620020f3565b60405180910390f35b600260009054906101000a900473ffffffffffffffffffffffffffffffffffffffff1673ffffffffffffffffffffffffffffffffffffffff16631249c58b346040518263ffffffff1660e01b81526004016000604051808303818588803b1580156200057d57600080fd5b505af115801562000592573d6000803e3d6000fd5b5050505050565b6000349050600060038484604051620005b492919062002417565b908152602001604051809103902060009054906101000a900473ffffffffffffffffffffffffffffffffffffffff1690506000600260009054906101000a900473ffffffffffffffffffffffffffffffffffffffff1673ffffffffffffffffffffffffffffffffffffffff166370a08231306040518263ffffffff1660e01b815260040162000644919062002155565b60206040518083038186803b1580156200065d57600080fd5b505afa15801562000672573d6000803e3d6000fd5b505050506040513d601f19601f8201168201806040525081019062000698919062002449565b9050600260009054906101000a900473ffffffffffffffffffffffffffffffffffffffff1673ffffffffffffffffffffffffffffffffffffffff16631249c58b846040518263ffffffff1660e01b81526004016000604051808303818588803b1580156200070557600080fd5b505af11580156200071a573d6000803e3d6000fd5b50505050506000600260009054906101000a900473ffffffffffffffffffffffffffffffffffffffff1673ffffffffffffffffffffffffffffffffffffffff166370a08231306040518263ffffffff1660e01b81526004016200077e919062002155565b60206040518083038186803b1580156200079757600080fd5b505afa158015620007ac573d6000803e3d6000fd5b505050506040513d601f19601f82011682018060405250810190620007d2919062002449565b90508181620007e29190620024aa565b60048787604051620007f692919062002417565b90815260200160405180910390206000828254620008159190620024e5565b9250508190555060008390508073ffffffffffffffffffffffffffffffffffffffff166363ceb60d86336040518363ffffffff1660e01b81526004016200085e92919062002542565b600060405180830381600087803b1580156200087957600080fd5b505af11580156200088e573d6000803e3d6000fd5b5050505060068787604051620008a692919062002417565b908152602001604051809103902060003373ffffffffffffffffffffffffffffffffffffffff1673ffffffffffffffffffffffffffffffffffffffff16815260200190815260200160002060009054906101000a900460ff1662000a00576001600688886040516200091a92919062002417565b908152602001604051809103902060003373ffffffffffffffffffffffffffffffffffffffff1673ffffffffffffffffffffffffffffffffffffffff16815260200190815260200160002060006101000a81548160ff021916908315150217905550600787876040516200099092919062002417565b9081526020016040518091039020339080600181540180825580915050600190039060005260206000200160009091909190916101000a81548173ffffffffffffffffffffffffffffffffffffffff021916908373ffffffffffffffffffffffffffffffffffffffff1602179055505b7facdbcebaab0bb39b1e7f333c4b6414a1cb5e7b10eb01e75218d855422ff5e6ce87878760405162000a3593929190620025b3565b60405180910390a150505050505050565b600034905060006003858560405162000a6192919062002417565b908152602001604051809103902060009054906101000a900473ffffffffffffffffffffffffffffffffffffffff16905060008190508073ffffffffffffffffffffffffffffffffffffffff1663f231a4f63385876040518463ffffffff1660e01b815260040162000ad693929190620025e9565b600060405180830381600087803b15801562000af157600080fd5b505af115801562000b06573d6000803e3d6000fd5b50505050505050505050565b6004818051602081018201805184825260208301602085012081835280955050505050506000915090505481565b60006003838360405162000b5692919062002417565b908152602001604051809103902060009054906101000a900473ffffffffffffffffffffffffffffffffffffffff16905092915050565b6000600560003373ffffffffffffffffffffffffffffffffffffffff1673ffffffffffffffffffffffffffffffffffffffff168152602001908152602001600020541162000c12576040517f08c379a000000000000000000000000000000000000000000000000000000000815260040162000c099062002676565b60405180910390fd5b6000600560003373ffffffffffffffffffffffffffffffffffffffff1673ffffffffffffffffffffffffffffffffffffffff1681526020019081526020016000205490506000600560003373ffffffffffffffffffffffffffffffffffffffff1673ffffffffffffffffffffffffffffffffffffffff168152602001908152602001600020819055503373ffffffffffffffffffffffffffffffffffffffff166108fc829081150290604051600060405180830381858888f1935050505015801562000ce2573d6000803e3d6000fd5b5050565b600260009054906101000a900473ffffffffffffffffffffffffffffffffffffffff1681565b60056020528060005260406000206000915090505481565b6006828051602081018201805184825260208301602085012081835280955050505050506020528060005260406000206000915091509054906101000a900460ff1681565b62000d7362001cde565b73ffffffffffffffffffffffffffffffffffffffff1662000d9362000dfa565b73ffffffffffffffffffffffffffffffffffffffff161462000dec576040517f08c379a000000000000000000000000000000000000000000000000000000000815260040162000de390620026e8565b60405180910390fd5b62000df8600062001ce6565b565b60008060009054906101000a900473ffffffffffffffffffffffffffffffffffffffff16905090565b60006004838360405162000e3992919062002417565b908152602001604051809103902054905092915050565b600782805160208101820180518482526020830160208501208183528095505050505050818154811062000e8357600080fd5b906000526020600020016000915091509054906101000a900473ffffffffffffffffffffffffffffffffffffffff1681565b62000ebf62001cde565b73ffffffffffffffffffffffffffffffffffffffff1662000edf62000dfa565b73ffffffffffffffffffffffffffffffffffffffff161462000f38576040517f08c379a000000000000000000000000000000000000000000000000000000000815260040162000f2f90620026e8565b60405180910390fd5b60006003848460405162000f4e92919062002417565b908152602001604051809103902060009054906101000a900473ffffffffffffffffffffffffffffffffffffffff169050600081905060008290508073ffffffffffffffffffffffffffffffffffffffff1663f8fd067f856040518263ffffffff1660e01b815260040162000fc49190620020f3565b600060405180830381600087803b15801562000fdf57600080fd5b505af115801562000ff4573d6000803e3d6000fd5b5050505060004790506000600488886040516200101392919062002417565b90815260200160405180910390205490506000600489896040516200103a92919062002417565b908152602001604051809103902081905550600260009054906101000a900473ffffffffffffffffffffffffffffffffffffffff1673ffffffffffffffffffffffffffffffffffffffff1663db006a75826040518263ffffffff1660e01b8152600401620010a99190620020f3565b602060405180830381600087803b158015620010c457600080fd5b505af1158015620010d9573d6000803e3d6000fd5b505050506040513d601f19601f82011682018060405250810190620010ff919062002449565b50600047905060005b60078a8a6040516200111c92919062002417565b9081526020016040518091039020805490508110156200129957600060078b8b6040516200114c92919062002417565b908152602001604051809103902082815481106200116f576200116e6200270a565b5b9060005260206000200160009054906101000a900473ffffffffffffffffffffffffffffffffffffffff1690508673ffffffffffffffffffffffffffffffffffffffff16634e33f83b826040518263ffffffff1660e01b8152600401620011d7919062002155565b60206040518083038186803b158015620011f057600080fd5b505afa15801562001205573d6000803e3d6000fd5b505050506040513d601f19601f820116820180604052508101906200122b919062002449565b600560008373ffffffffffffffffffffffffffffffffffffffff1673ffffffffffffffffffffffffffffffffffffffff16815260200190815260200160002060008282546200127b9190620024e5565b92505081905550508080620012909062002739565b91505062001108565b5060008573ffffffffffffffffffffffffffffffffffffffff1663dfbf53ae6040518163ffffffff1660e01b815260040160206040518083038186803b158015620012e357600080fd5b505afa158015620012f8573d6000803e3d6000fd5b505050506040513d601f19601f820116820180604052508101906200131e91906200279e565b90508573ffffffffffffffffffffffffffffffffffffffff16637d8820976040518163ffffffff1660e01b815260040160206040518083038186803b1580156200136757600080fd5b505afa1580156200137c573d6000803e3d6000fd5b505050506040513d601f19601f82011682018060405250810190620013a2919062002449565b8483620013b09190620024aa565b620013bc9190620024aa565b600560008373ffffffffffffffffffffffffffffffffffffffff1673ffffffffffffffffffffffffffffffffffffffff16815260200190815260200160002060008282546200140c9190620024e5565b925050819055507fc13f40246d21a50ba7fbae3ff93832e7bf5c946285a29916d6dcf1ab42c0b4ae8a8a838786620014459190620024aa565b604051620014579493929190620027d0565b60405180910390a150505050505050505050565b6000600260009054906101000a900473ffffffffffffffffffffffffffffffffffffffff1673ffffffffffffffffffffffffffffffffffffffff166370a08231306040518263ffffffff1660e01b8152600401620014ca919062002155565b60206040518083038186803b158015620014e357600080fd5b505afa158015620014f8573d6000803e3d6000fd5b505050506040513d601f19601f820116820180604052508101906200151e919062002449565b905090565b6200152d62001cde565b73ffffffffffffffffffffffffffffffffffffffff166200154d62000dfa565b73ffffffffffffffffffffffffffffffffffffffff1614620015a6576040517f08c379a00000000000000000000000000000000000000000000000000000000081526004016200159d90620026e8565b60405180910390fd5b60008282604051620015b89062001daa565b620015c592919062002816565b604051809103906000f080158015620015e2573d6000803e3d6000fd5b50905060008190508060038787604051620015ff92919062002417565b908152602001604051809103902060006101000a81548173ffffffffffffffffffffffffffffffffffffffff021916908373ffffffffffffffffffffffffffffffffffffffff1602179055507f59328f3fae9019ea9e9a32580b8b124497cfafa027b6d1fb91977cbf1b9d6fe286866001548460405162001684949392919062002843565b60405180910390a160016000815480929190620016a19062002739565b9190505550505050505050565b6000349050600060038585604051620016c992919062002417565b908152602001604051809103902060009054906101000a900473ffffffffffffffffffffffffffffffffffffffff1690506000600260009054906101000a900473ffffffffffffffffffffffffffffffffffffffff1673ffffffffffffffffffffffffffffffffffffffff166370a08231306040518263ffffffff1660e01b815260040162001759919062002155565b60206040518083038186803b1580156200177257600080fd5b505afa15801562001787573d6000803e3d6000fd5b505050506040513d601f19601f82011682018060405250810190620017ad919062002449565b9050600260009054906101000a900473ffffffffffffffffffffffffffffffffffffffff1673ffffffffffffffffffffffffffffffffffffffff16631249c58b846040518263ffffffff1660e01b81526004016000604051808303818588803b1580156200181a57600080fd5b505af11580156200182f573d6000803e3d6000fd5b50505050506000600260009054906101000a900473ffffffffffffffffffffffffffffffffffffffff1673ffffffffffffffffffffffffffffffffffffffff166370a08231306040518263ffffffff1660e01b815260040162001893919062002155565b60206040518083038186803b158015620018ac57600080fd5b505afa158015620018c1573d6000803e3d6000fd5b505050506040513d601f19601f82011682018060405250810190620018e7919062002449565b90508181620018f79190620024aa565b600488886040516200190b92919062002417565b908152602001604051809103902060008282546200192a9190620024e5565b9250508190555060008390508073ffffffffffffffffffffffffffffffffffffffff1663f231a4f63387896040518463ffffffff1660e01b81526004016200197593929190620025e9565b600060405180830381600087803b1580156200199057600080fd5b505af1158015620019a5573d6000803e3d6000fd5b5050505060068888604051620019bd92919062002417565b908152602001604051809103902060003373ffffffffffffffffffffffffffffffffffffffff1673ffffffffffffffffffffffffffffffffffffffff16815260200190815260200160002060009054906101000a900460ff1662001b175760016006898960405162001a3192919062002417565b908152602001604051809103902060003373ffffffffffffffffffffffffffffffffffffffff1673ffffffffffffffffffffffffffffffffffffffff16815260200190815260200160002060006101000a81548160ff0219169083151502179055506007888860405162001aa792919062002417565b9081526020016040518091039020339080600181540180825580915050600190039060005260206000200160009091909190916101000a81548173ffffffffffffffffffffffffffffffffffffffff021916908373ffffffffffffffffffffffffffffffffffffffff1602179055505b60006001871462001b3c576002871462001b3357600362001b36565b60025b62001b3f565b60015b90507f735b1c239849c4eccd5fe3089b58e461deb3809f9e480c5e6b44ec4a16347d7c8989838960405162001b78949392919062002909565b60405180910390a1505050505050505050565b6003818051602081018201805184825260208301602085012081835280955050505050506000915054906101000a900473ffffffffffffffffffffffffffffffffffffffff1681565b62001bde62001cde565b73ffffffffffffffffffffffffffffffffffffffff1662001bfe62000dfa565b73ffffffffffffffffffffffffffffffffffffffff161462001c57576040517f08c379a000000000000000000000000000000000000000000000000000000000815260040162001c4e90620026e8565b60405180910390fd5b600073ffffffffffffffffffffffffffffffffffffffff168173ffffffffffffffffffffffffffffffffffffffff16141562001cca576040517f08c379a000000000000000000000000000000000000000000000000000000000815260040162001cc190620029c5565b60405180910390fd5b62001cd58162001ce6565b50565b60015481565b600033905090565b60008060009054906101000a900473ffffffffffffffffffffffffffffffffffffffff169050816000806101000a81548173ffffffffffffffffffffffffffffffffffffffff021916908373ffffffffffffffffffffffffffffffffffffffff1602179055508173ffffffffffffffffffffffffffffffffffffffff168173ffffffffffffffffffffffffffffffffffffffff167f8be0079c531659141344cd1fd0a4f28419497f9722a3daafe3b4186f6b6457e060405160405180910390a35050565b61233e80620029e883390190565b6000604051905090565b600080fd5b600080fd5b600080fd5b600080fd5b600080fd5b60008083601f84011262001df45762001df362001dcc565b5b8235905067ffffffffffffffff81111562001e145762001e1362001dd1565b5b60208301915083600182028301111562001e335762001e3262001dd6565b5b9250929050565b6000806020838503121562001e545762001e5362001dc2565b5b600083013567ffffffffffffffff81111562001e755762001e7462001dc7565b5b62001e838582860162001ddb565b92509250509250929050565b6000819050919050565b62001ea48162001e8f565b811462001eb057600080fd5b50565b60008135905062001ec48162001e99565b92915050565b60008060006040848603121562001ee65762001ee562001dc2565b5b600084013567ffffffffffffffff81111562001f075762001f0662001dc7565b5b62001f158682870162001ddb565b9350935050602062001f2a8682870162001eb3565b9150509250925092565b600080fd5b6000601f19601f8301169050919050565b7f4e487b7100000000000000000000000000000000000000000000000000000000600052604160045260246000fd5b62001f848262001f39565b810181811067ffffffffffffffff8211171562001fa65762001fa562001f4a565b5b80604052505050565b600062001fbb62001db8565b905062001fc9828262001f79565b919050565b600067ffffffffffffffff82111562001fec5762001feb62001f4a565b5b62001ff78262001f39565b9050602081019050919050565b82818337600083830152505050565b60006200202a620020248462001fce565b62001faf565b90508281526020810184848401111562002049576200204862001f34565b5b6200205684828562002004565b509392505050565b600082601f83011262002076576200207562001dcc565b5b81356200208884826020860162002013565b91505092915050565b600060208284031215620020aa57620020a962001dc2565b5b600082013567ffffffffffffffff811115620020cb57620020ca62001dc7565b5b620020d9848285016200205e565b91505092915050565b620020ed8162001e8f565b82525050565b60006020820190506200210a6000830184620020e2565b92915050565b600073ffffffffffffffffffffffffffffffffffffffff82169050919050565b60006200213d8262002110565b9050919050565b6200214f8162002130565b82525050565b60006020820190506200216c600083018462002144565b92915050565b6000819050919050565b60006200219d62002197620021918462002110565b62002172565b62002110565b9050919050565b6000620021b1826200217c565b9050919050565b6000620021c582620021a4565b9050919050565b620021d781620021b8565b82525050565b6000602082019050620021f46000830184620021cc565b92915050565b620022058162002130565b81146200221157600080fd5b50565b6000813590506200222581620021fa565b92915050565b60006020828403121562002244576200224362001dc2565b5b6000620022548482850162002214565b91505092915050565b6000806040838503121562002277576200227662001dc2565b5b600083013567ffffffffffffffff81111562002298576200229762001dc7565b5b620022a6858286016200205e565b9250506020620022b98582860162002214565b9150509250929050565b60008115159050919050565b620022da81620022c3565b82525050565b6000602082019050620022f76000830184620022cf565b92915050565b6000806040838503121562002317576200231662001dc2565b5b600083013567ffffffffffffffff81111562002338576200233762001dc7565b5b62002346858286016200205e565b9250506020620023598582860162001eb3565b9150509250929050565b6000806000806060858703121562002380576200237f62001dc2565b5b600085013567ffffffffffffffff811115620023a157620023a062001dc7565b5b620023af8782880162001ddb565b94509450506020620023c48782880162001eb3565b9250506040620023d78782880162001eb3565b91505092959194509250565b600081905092915050565b6000620023fc8385620023e3565b93506200240b83858462002004565b82840190509392505050565b600062002426828486620023ee565b91508190509392505050565b600081519050620024438162001e99565b92915050565b60006020828403121562002462576200246162001dc2565b5b6000620024728482850162002432565b91505092915050565b7f4e487b7100000000000000000000000000000000000000000000000000000000600052601160045260246000fd5b6000620024b78262001e8f565b9150620024c48362001e8f565b925082821015620024da57620024d96200247b565b5b828203905092915050565b6000620024f28262001e8f565b9150620024ff8362001e8f565b9250827fffffffffffffffffffffffffffffffffffffffffffffffffffffffffffffffff038211156200253757620025366200247b565b5b828201905092915050565b6000604082019050620025596000830185620020e2565b62002568602083018462002144565b9392505050565b600082825260208201905092915050565b60006200258e83856200256f565b93506200259d83858462002004565b620025a88362001f39565b840190509392505050565b60006040820190508181036000830152620025d081858762002580565b9050620025e16020830184620020e2565b949350505050565b600060608201905062002600600083018662002144565b6200260f6020830185620020e2565b6200261e6040830184620020e2565b949350505050565b7f62616c616e6365206973207a65726f0000000000000000000000000000000000600082015250565b60006200265e600f836200256f565b91506200266b8262002626565b602082019050919050565b6000602082019050818103600083015262002691816200264f565b9050919050565b7f4f776e61626c653a2063616c6c6572206973206e6f7420746865206f776e6572600082015250565b6000620026d06020836200256f565b9150620026dd8262002698565b602082019050919050565b600060208201905081810360008301526200270381620026c1565b9050919050565b7f4e487b7100000000000000000000000000000000000000000000000000000000600052603260045260246000fd5b6000620027468262001e8f565b91507fffffffffffffffffffffffffffffffffffffffffffffffffffffffffffffffff8214156200277c576200277b6200247b565b5b600182019050919050565b6000815190506200279881620021fa565b92915050565b600060208284031215620027b757620027b662001dc2565b5b6000620027c78482850162002787565b91505092915050565b60006060820190508181036000830152620027ed81868862002580565b9050620027fe602083018562002144565b6200280d6040830184620020e2565b95945050505050565b60006040820190506200282d6000830185620020e2565b6200283c6020830184620020e2565b9392505050565b600060608201905081810360008301526200286081868862002580565b9050620028716020830185620020e2565b62002880604083018462002144565b95945050505050565b7f4e487b7100000000000000000000000000000000000000000000000000000000600052602160045260246000fd5b60048110620028cc57620028cb62002889565b5b50565b6000819050620028df82620028b8565b919050565b6000620028f182620028cf565b9050919050565b6200290381620028e4565b82525050565b600060608201905081810360008301526200292681868862002580565b9050620029376020830185620028f8565b620029466040830184620020e2565b95945050505050565b7f4f776e61626c653a206e6577206f776e657220697320746865207a65726f206160008201527f6464726573730000000000000000000000000000000000000000000000000000602082015250565b6000620029ad6026836200256f565b9150620029ba826200294f565b604082019050919050565b60006020820190508181036000830152620029e0816200299e565b905091905056fe60806040523480156200001157600080fd5b506040516200233e3803806200233e833981810160405281019062000037919062000247565b8181620000596200004d6200013b60201b60201c565b6200014360201b60201c565b60008060146101000a81548160ff021916908360018111156200008157620000806200028e565b5b02179055508160018190555080600281905550505060008060146101000a81548160ff02191690836001811115620000be57620000bd6200028e565b5b02179055506000601660006101000a81548160ff02191690836003811115620000ec57620000eb6200028e565b5b02179055506000601460006101000a81548173ffffffffffffffffffffffffffffffffffffffff021916908373ffffffffffffffffffffffffffffffffffffffff1602179055505050620002bd565b600033905090565b60008060009054906101000a900473ffffffffffffffffffffffffffffffffffffffff169050816000806101000a81548173ffffffffffffffffffffffffffffffffffffffff021916908373ffffffffffffffffffffffffffffffffffffffff1602179055508173ffffffffffffffffffffffffffffffffffffffff168173ffffffffffffffffffffffffffffffffffffffff167f8be0079c531659141344cd1fd0a4f28419497f9722a3daafe3b4186f6b6457e060405160405180910390a35050565b600080fd5b6000819050919050565b62000221816200020c565b81146200022d57600080fd5b50565b600081519050620002418162000216565b92915050565b6000806040838503121562000261576200026062000207565b5b6000620002718582860162000230565b9250506020620002848582860162000230565b9150509250929050565b7f4e487b7100000000000000000000000000000000000000000000000000000000600052602160045260246000fd5b61207180620002cd6000396000f3fe608060405234801561001057600080fd5b50600436106101cf5760003560e01c8063ad9ed66e11610104578063d9d52160116100a2578063f231a4f611610071578063f231a4f614610560578063f2fde38b1461057c578063f8fd067f14610598578063fbf06338146105b4576101cf565b8063d9d52160146104d6578063dfbf53ae14610506578063e11f3f7714610524578063e8eaca7514610542576101cf565b8063c003aef3116100de578063c003aef31461044c578063c69de2241461046a578063c7b8cad514610488578063c9ca03cd146104b8576101cf565b8063ad9ed66e146103bc578063b3db3ced146103ec578063b810fe8d1461041c576101cf565b8063715018a6116101715780637d8820971161014b5780637d882097146103205780638da5cb5b1461033e57806391c54ca41461035c578063aa236df41461038c576101cf565b8063715018a6146102c8578063788e26e7146102d257806379db8a13146102f0576101cf565b80633255d451116101ad5780633255d4511461024057806336201e531461025e5780634e33f83b1461027c57806363ceb60d146102ac576101cf565b80630873d9ec146101d457806309126f08146101f2578063200d2ed214610222575b600080fd5b6101dc6105d2565b6040516101e9919061194b565b60405180910390f35b61020c600480360381019061020791906119c9565b6105d8565b604051610219919061194b565b60405180910390f35b61022a6105f0565b6040516102379190611a6d565b60405180910390f35b610248610603565b604051610255919061194b565b60405180910390f35b610266610609565b604051610273919061194b565b60405180910390f35b610296600480360381019061029191906119c9565b61060f565b6040516102a3919061194b565b60405180910390f35b6102c660048036038101906102c19190611ab4565b610627565b005b6102d0610772565b005b6102da6107fa565b6040516102e7919061194b565b60405180910390f35b61030a60048036038101906103059190611af4565b610800565b604051610317919061194b565b60405180910390f35b610328610824565b604051610335919061194b565b60405180910390f35b61034661082a565b6040516103539190611b30565b60405180910390f35b61037660048036038101906103719190611af4565b610853565b6040516103839190611b30565b60405180910390f35b6103a660048036038101906103a19190611af4565b610886565b6040516103b39190611b30565b60405180910390f35b6103d660048036038101906103d19190611af4565b6108b9565b6040516103e3919061194b565b60405180910390f35b61040660048036038101906104019190611af4565b6108dd565b604051610413919061194b565b60405180910390f35b610436600480360381019061043191906119c9565b610901565b604051610443919061194b565b60405180910390f35b610454610919565b604051610461919061194b565b60405180910390f35b61047261091f565b60405161047f919061194b565b60405180910390f35b6104a2600480360381019061049d91906119c9565b610925565b6040516104af919061194b565b60405180910390f35b6104c061093d565b6040516104cd919061194b565b60405180910390f35b6104f060048036038101906104eb9190611af4565b610943565b6040516104fd9190611b30565b60405180910390f35b61050e610976565b60405161051b9190611b30565b60405180910390f35b61052c61099c565b604051610539919061194b565b60405180910390f35b61054a6109a2565b604051610557919061194b565b60405180910390f35b61057a60048036038101906105759190611b4b565b6109a8565b005b610596600480360381019061059191906119c9565b610b21565b005b6105b260048036038101906105ad9190611af4565b610c19565b005b6105bc610d8c565b6040516105c99190611be6565b60405180910390f35b60085481565b60116020528060005260406000206000915090505481565b600060149054906101000a900460ff1681565b60025481565b60045481565b60106020528060005260406000206000915090505481565b61062f610d9f565b73ffffffffffffffffffffffffffffffffffffffff1661064d61082a565b73ffffffffffffffffffffffffffffffffffffffff16146106a3576040517f08c379a000000000000000000000000000000000000000000000000000000000815260040161069a90611c5e565b60405180910390fd5b600082116106e6576040517f08c379a00000000000000000000000000000000000000000000000000000000081526004016106dd90611cca565b60405180910390fd5b81600360008282546106f89190611d19565b9250508190555081601560008282546107119190611d19565b9250508190555081601060008373ffffffffffffffffffffffffffffffffffffffff1673ffffffffffffffffffffffffffffffffffffffff16815260200190815260200160002060008282546107679190611d19565b925050819055505050565b61077a610d9f565b73ffffffffffffffffffffffffffffffffffffffff1661079861082a565b73ffffffffffffffffffffffffffffffffffffffff16146107ee576040517f08c379a00000000000000000000000000000000000000000000000000000000081526004016107e590611c5e565b60405180910390fd5b6107f86000610da7565b565b60155481565b600b818154811061081057600080fd5b906000526020600020016000915090505481565b60035481565b60008060009054906101000a900473ffffffffffffffffffffffffffffffffffffffff16905090565b600f6020528060005260406000206000915054906101000a900473ffffffffffffffffffffffffffffffffffffffff1681565b600e6020528060005260406000206000915054906101000a900473ffffffffffffffffffffffffffffffffffffffff1681565b600a81815481106108c957600080fd5b906000526020600020016000915090505481565b600c81815481106108ed57600080fd5b906000526020600020016000915090505481565b60136020528060005260406000206000915090505481565b60065481565b60095481565b60126020528060005260406000206000915090505481565b60015481565b600d6020528060005260406000206000915054906101000a900473ffffffffffffffffffffffffffffffffffffffff1681565b601460009054906101000a900473ffffffffffffffffffffffffffffffffffffffff1681565b60055481565b60075481565b6109b0610d9f565b73ffffffffffffffffffffffffffffffffffffffff166109ce61082a565b73ffffffffffffffffffffffffffffffffffffffff1614610a24576040517f08c379a0000000000000000000000000000000000000000000000000000000008152600401610a1b90611c5e565b60405180910390fd5b60008211610a67576040517f08c379a0000000000000000000000000000000000000000000000000000000008152600401610a5e90611cca565b60405180910390fd5b6001811415610a7f57610a7a8383610e6b565b610aad565b6003811415610a9757610a928383610f9b565b610aac565b6002811415610aab57610aaa83836110cb565b5b5b5b8160036000828254610abf9190611d19565b9250508190555081601060008573ffffffffffffffffffffffffffffffffffffffff1673ffffffffffffffffffffffffffffffffffffffff1681526020019081526020016000206000828254610b159190611d19565b92505081905550505050565b610b29610d9f565b73ffffffffffffffffffffffffffffffffffffffff16610b4761082a565b73ffffffffffffffffffffffffffffffffffffffff1614610b9d576040517f08c379a0000000000000000000000000000000000000000000000000000000008152600401610b9490611c5e565b60405180910390fd5b600073ffffffffffffffffffffffffffffffffffffffff168173ffffffffffffffffffffffffffffffffffffffff161415610c0d576040517f08c379a0000000000000000000000000000000000000000000000000000000008152600401610c0490611de1565b60405180910390fd5b610c1681610da7565b50565b610c21610d9f565b73ffffffffffffffffffffffffffffffffffffffff16610c3f61082a565b73ffffffffffffffffffffffffffffffffffffffff1614610c95576040517f08c379a0000000000000000000000000000000000000000000000000000000008152600401610c8c90611c5e565b60405180910390fd5b60006001811115610ca957610ca86119f6565b5b600060149054906101000a900460ff166001811115610ccb57610cca6119f6565b5b14610d0b576040517f08c379a0000000000000000000000000000000000000000000000000000000008152600401610d0290611e4d565b60405180910390fd5b6001600060146101000a81548160ff02191690836001811115610d3157610d306119f6565b5b021790555060018114610d555760028114610d4d576003610d50565b60025b610d58565b60015b601660006101000a81548160ff02191690836003811115610d7c57610d7b6119f6565b5b0217905550610d896111fb565b50565b601660009054906101000a900460ff1681565b600033905090565b60008060009054906101000a900473ffffffffffffffffffffffffffffffffffffffff169050816000806101000a81548173ffffffffffffffffffffffffffffffffffffffff021916908373ffffffffffffffffffffffffffffffffffffffff1602179055508173ffffffffffffffffffffffffffffffffffffffff168173ffffffffffffffffffffffffffffffffffffffff167f8be0079c531659141344cd1fd0a4f28419497f9722a3daafe3b4186f6b6457e060405160405180910390a35050565b6000429050600081600154610e809190611e6d565b83610e8b9190611ea1565b905080601160008673ffffffffffffffffffffffffffffffffffffffff1673ffffffffffffffffffffffffffffffffffffffff1681526020019081526020016000206000828254610edc9190611d19565b925050819055508060046000828254610ef59190611d19565b92505081905550600a600454908060018154018082558091505060019003906000526020600020016000909190919091505583600d6000600754815260200190815260200160002060006101000a81548173ffffffffffffffffffffffffffffffffffffffff021916908373ffffffffffffffffffffffffffffffffffffffff160217905550600160076000828254610f8e9190611d19565b9250508190555050505050565b6000429050600081600154610fb09190611e6d565b83610fbb9190611ea1565b905080601360008673ffffffffffffffffffffffffffffffffffffffff1673ffffffffffffffffffffffffffffffffffffffff168152602001908152602001600020600082825461100c9190611d19565b9250508190555080600660008282546110259190611d19565b92505081905550600c600654908060018154018082558091505060019003906000526020600020016000909190919091505583600f6000600954815260200190815260200160002060006101000a81548173ffffffffffffffffffffffffffffffffffffffff021916908373ffffffffffffffffffffffffffffffffffffffff1602179055506001600960008282546110be9190611d19565b9250508190555050505050565b60004290506000816001546110e09190611e6d565b836110eb9190611ea1565b905080601260008673ffffffffffffffffffffffffffffffffffffffff1673ffffffffffffffffffffffffffffffffffffffff168152602001908152602001600020600082825461113c9190611d19565b9250508190555080600560008282546111559190611d19565b92505081905550600b600554908060018154018082558091505060019003906000526020600020016000909190919091505583600e6000600754815260200190815260200160002060006101000a81548173ffffffffffffffffffffffffffffffffffffffff021916908373ffffffffffffffffffffffffffffffffffffffff1602179055506001600860008282546111ee9190611d19565b9250508190555050505050565b6001600381111561120f5761120e6119f6565b5b601660009054906101000a900460ff166003811115611231576112306119f6565b5b14156112845761123f611395565b601460006101000a81548173ffffffffffffffffffffffffffffffffffffffff021916908373ffffffffffffffffffffffffffffffffffffffff160217905550611393565b600380811115611297576112966119f6565b5b601660009054906101000a900460ff1660038111156112b9576112b86119f6565b5b141561130c576112c761155f565b601460006101000a81548173ffffffffffffffffffffffffffffffffffffffff021916908373ffffffffffffffffffffffffffffffffffffffff160217905550611392565b600260038111156113205761131f6119f6565b5b601660009054906101000a900460ff166003811115611342576113416119f6565b5b141561139157611350611729565b601460006101000a81548173ffffffffffffffffffffffffffffffffffffffff021916908373ffffffffffffffffffffffffffffffffffffffff1602179055505b5b5b565b6000806113a06118f3565b9050600454816113b09190611f2a565b9050600a6000815481106113c7576113c6611f5b565b5b906000526020600020015481101561141557600d600080815260200190815260200160002060009054906101000a900473ffffffffffffffffffffffffffffffffffffffff1691505061155c565b60006001600a805490506114299190611e6d565b905060005b818111611522576000600282846114459190611e6d565b61144f9190611f8a565b8261145a9190611d19565b9050600a81815481106114705761146f611f5b565b5b90600052602060002001548410156114965760018161148f9190611e6d565b925061151c565b600a81815481106114aa576114a9611f5b565b5b90600052602060002001548411156114d0576001816114c99190611d19565b915061151b565b600d60006001836114e19190611d19565b815260200190815260200160002060009054906101000a900473ffffffffffffffffffffffffffffffffffffffff1694505050505061155c565b5b5061142e565b600d600082815260200190815260200160002060009054906101000a900473ffffffffffffffffffffffffffffffffffffffff1693505050505b90565b60008061156a6118f3565b90506006548161157a9190611f2a565b9050600c60008154811061159157611590611f5b565b5b90600052602060002001548110156115df57600f600080815260200190815260200160002060009054906101000a900473ffffffffffffffffffffffffffffffffffffffff16915050611726565b60006001600c805490506115f39190611e6d565b905060005b8181116116ec5760006002828461160f9190611e6d565b6116199190611f8a565b826116249190611d19565b9050600c818154811061163a57611639611f5b565b5b9060005260206000200154841015611660576001816116599190611e6d565b92506116e6565b600c818154811061167457611673611f5b565b5b906000526020600020015484111561169a576001816116939190611d19565b91506116e5565b600f60006001836116ab9190611d19565b815260200190815260200160002060009054906101000a900473ffffffffffffffffffffffffffffffffffffffff16945050505050611726565b5b506115f8565b600f600082815260200190815260200160002060009054906101000a900473ffffffffffffffffffffffffffffffffffffffff1693505050505b90565b6000806117346118f3565b9050600554816117449190611f2a565b9050600b60008154811061175b5761175a611f5b565b5b90600052602060002001548110156117a957600e600080815260200190815260200160002060009054906101000a900473ffffffffffffffffffffffffffffffffffffffff169150506118f0565b60006001600b805490506117bd9190611e6d565b905060005b8181116118b6576000600282846117d99190611e6d565b6117e39190611f8a565b826117ee9190611d19565b9050600b818154811061180457611803611f5b565b5b906000526020600020015484101561182a576001816118239190611e6d565b92506118b0565b600b818154811061183e5761183d611f5b565b5b90600052602060002001548411156118645760018161185d9190611d19565b91506118af565b600e60006001836118759190611d19565b815260200190815260200160002060009054906101000a900473ffffffffffffffffffffffffffffffffffffffff169450505050506118f0565b5b506117c2565b600e600082815260200190815260200160002060009054906101000a900473ffffffffffffffffffffffffffffffffffffffff1693505050505b90565b60004442600354600154600254604051602001611914959493929190611fdc565b6040516020818303038152906040528051906020012060001c905090565b6000819050919050565b61194581611932565b82525050565b6000602082019050611960600083018461193c565b92915050565b600080fd5b600073ffffffffffffffffffffffffffffffffffffffff82169050919050565b60006119968261196b565b9050919050565b6119a68161198b565b81146119b157600080fd5b50565b6000813590506119c38161199d565b92915050565b6000602082840312156119df576119de611966565b5b60006119ed848285016119b4565b91505092915050565b7f4e487b7100000000000000000000000000000000000000000000000000000000600052602160045260246000fd5b60028110611a3657611a356119f6565b5b50565b6000819050611a4782611a25565b919050565b6000611a5782611a39565b9050919050565b611a6781611a4c565b82525050565b6000602082019050611a826000830184611a5e565b92915050565b611a9181611932565b8114611a9c57600080fd5b50565b600081359050611aae81611a88565b92915050565b60008060408385031215611acb57611aca611966565b5b6000611ad985828601611a9f565b9250506020611aea858286016119b4565b9150509250929050565b600060208284031215611b0a57611b09611966565b5b6000611b1884828501611a9f565b91505092915050565b611b2a8161198b565b82525050565b6000602082019050611b456000830184611b21565b92915050565b600080600060608486031215611b6457611b63611966565b5b6000611b72868287016119b4565b9350506020611b8386828701611a9f565b9250506040611b9486828701611a9f565b9150509250925092565b60048110611baf57611bae6119f6565b5b50565b6000819050611bc082611b9e565b919050565b6000611bd082611bb2565b9050919050565b611be081611bc5565b82525050565b6000602082019050611bfb6000830184611bd7565b92915050565b600082825260208201905092915050565b7f4f776e61626c653a2063616c6c6572206973206e6f7420746865206f776e6572600082015250565b6000611c48602083611c01565b9150611c5382611c12565b602082019050919050565b60006020820190508181036000830152611c7781611c3b565b9050919050565b7f616d6f756e74206d75737420626520706f736974696600000000000000000000600082015250565b6000611cb4601683611c01565b9150611cbf82611c7e565b602082019050919050565b60006020820190508181036000830152611ce381611ca7565b9050919050565b7f4e487b7100000000000000000000000000000000000000000000000000000000600052601160045260246000fd5b6000611d2482611932565b9150611d2f83611932565b9250827fffffffffffffffffffffffffffffffffffffffffffffffffffffffffffffffff03821115611d6457611d63611cea565b5b828201905092915050565b7f4f776e61626c653a206e6577206f776e657220697320746865207a65726f206160008201527f6464726573730000000000000000000000000000000000000000000000000000602082015250565b6000611dcb602683611c01565b9150611dd682611d6f565b604082019050919050565b60006020820190508181036000830152611dfa81611dbe565b9050919050565b7f43616e7420736574746c652074686973206d6174636800000000000000000000600082015250565b6000611e37601683611c01565b9150611e4282611e01565b602082019050919050565b60006020820190508181036000830152611e6681611e2a565b9050919050565b6000611e7882611932565b9150611e8383611932565b925082821015611e9657611e95611cea565b5b828203905092915050565b6000611eac82611932565b9150611eb783611932565b9250817fffffffffffffffffffffffffffffffffffffffffffffffffffffffffffffffff0483118215151615611ef057611eef611cea565b5b828202905092915050565b7f4e487b7100000000000000000000000000000000000000000000000000000000600052601260045260246000fd5b6000611f3582611932565b9150611f4083611932565b925082611f5057611f4f611efb565b5b828206905092915050565b7f4e487b7100000000000000000000000000000000000000000000000000000000600052603260045260246000fd5b6000611f9582611932565b9150611fa083611932565b925082611fb057611faf611efb565b5b828204905092915050565b6000819050919050565b611fd6611fd182611932565b611fbb565b82525050565b6000611fe88288611fc5565b602082019150611ff88287611fc5565b6020820191506120088286611fc5565b6020820191506120188285611fc5565b6020820191506120288284611fc5565b602082019150819050969550505050505056fea26469706673582212204803e8249294b8d674bfaa59c8881b784560e2cac171387397d8a4bc065aae7264736f6c63430008090033a26469706673582212204c35c67aae4b348f3760464761b9d9934d6f0aae2f3b2321ae49cf119f27de9c64736f6c63430008090033",
  "linkReferences": {},
  "deployedLinkReferences": {}
}