{
  "_format": "hh-sol-artifact-1",
  "contractName": "LosslessManager",
  "sourceName": "contracts/LosslessManager.sol",
  "abi": [
    {
      "inputs": [
        {
          "internalType": "address",
          "name": "_qiToken",
          "type": "address"
        }
      ],
      "stateMutability": "nonpayable",
      "type": "constructor"
    },
    {
      "anonymous": false,
      "inputs": [
        {
          "indexed": false,
          "internalType": "string",
          "name": "gameId",
          "type": "string"
        },
        {
          "indexed": false,
          "internalType": "enum BenqiLossless.BetSide",
          "name": "betside",
          "type": "uint8"
        },
        {
          "indexed": false,
          "internalType": "uint256",
          "name": "amount",
          "type": "uint256"
        }
      ],
      "name": "BetPlaced",
      "type": "event"
    },
    {
      "anonymous": false,
      "inputs": [
        {
          "indexed": true,
          "internalType": "bytes32",
          "name": "id",
          "type": "bytes32"
        }
      ],
      "name": "ChainlinkCancelled",
      "type": "event"
    },
    {
      "anonymous": false,
      "inputs": [
        {
          "indexed": true,
          "internalType": "bytes32",
          "name": "id",
          "type": "bytes32"
        }
      ],
      "name": "ChainlinkFulfilled",
      "type": "event"
    },
    {
      "anonymous": false,
      "inputs": [
        {
          "indexed": false,
          "internalType": "string",
          "name": "gameId",
          "type": "string"
        },
        {
          "indexed": false,
          "internalType": "uint256",
          "name": "winner",
          "type": "uint256"
        }
      ],
      "name": "ChainlinkReply",
      "type": "event"
    },
    {
      "anonymous": false,
      "inputs": [
        {
          "indexed": true,
          "internalType": "bytes32",
          "name": "id",
          "type": "bytes32"
        }
      ],
      "name": "ChainlinkRequested",
      "type": "event"
    },
    {
      "anonymous": false,
      "inputs": [
        {
          "indexed": false,
          "internalType": "string",
          "name": "gameId",
          "type": "string"
        },
        {
          "indexed": false,
          "internalType": "uint256",
          "name": "gameCount",
          "type": "uint256"
        },
        {
          "indexed": false,
          "internalType": "address",
          "name": "gameAddress",
          "type": "address"
        }
      ],
      "name": "GameCreated",
      "type": "event"
    },
    {
      "anonymous": false,
      "inputs": [
        {
          "indexed": true,
          "internalType": "address",
          "name": "previousOwner",
          "type": "address"
        },
        {
          "indexed": true,
          "internalType": "address",
          "name": "newOwner",
          "type": "address"
        }
      ],
      "name": "OwnershipTransferred",
      "type": "event"
    },
    {
      "anonymous": false,
      "inputs": [
        {
          "indexed": false,
          "internalType": "string",
          "name": "gameId",
          "type": "string"
        },
        {
          "indexed": false,
          "internalType": "address",
          "name": "winner",
          "type": "address"
        },
        {
          "indexed": false,
          "internalType": "uint256",
          "name": "amount",
          "type": "uint256"
        }
      ],
      "name": "Winner",
      "type": "event"
    },
    {
      "inputs": [
        {
          "internalType": "bytes32",
          "name": "_bytes32",
          "type": "bytes32"
        }
      ],
      "name": "bytes32ToString",
      "outputs": [
        {
          "internalType": "string",
          "name": "",
          "type": "string"
        },
        {
          "internalType": "uint256",
          "name": "",
          "type": "uint256"
        }
      ],
      "stateMutability": "pure",
      "type": "function"
    },
    {
      "inputs": [
        {
          "internalType": "string",
          "name": "_objectId",
          "type": "string"
        },
        {
          "internalType": "uint256",
          "name": "_matchStartTime",
          "type": "uint256"
        },
        {
          "internalType": "uint256",
          "name": "_matchFinishTime",
          "type": "uint256"
        }
      ],
      "name": "create",
      "outputs": [],
      "stateMutability": "nonpayable",
      "type": "function"
    },
    {
      "inputs": [
        {
          "internalType": "bytes32",
          "name": "_requestId",
          "type": "bytes32"
        },
        {
          "internalType": "bytes32",
          "name": "_data",
          "type": "bytes32"
        }
      ],
      "name": "fulfill",
      "outputs": [],
      "stateMutability": "nonpayable",
      "type": "function"
    },
    {
      "inputs": [
        {
          "internalType": "string",
          "name": "",
          "type": "string"
        }
      ],
      "name": "gameIdToAddress",
      "outputs": [
        {
          "internalType": "address",
          "name": "",
          "type": "address"
        }
      ],
      "stateMutability": "view",
      "type": "function"
    },
    {
      "inputs": [
        {
          "internalType": "string",
          "name": "",
          "type": "string"
        },
        {
          "internalType": "address",
          "name": "",
          "type": "address"
        }
      ],
      "name": "gameIdToPlayerIn",
      "outputs": [
        {
          "internalType": "bool",
          "name": "",
          "type": "bool"
        }
      ],
      "stateMutability": "view",
      "type": "function"
    },
    {
      "inputs": [
        {
          "internalType": "string",
          "name": "",
          "type": "string"
        },
        {
          "internalType": "uint256",
          "name": "",
          "type": "uint256"
        }
      ],
      "name": "gameIdToPlayers",
      "outputs": [
        {
          "internalType": "address",
          "name": "",
          "type": "address"
        }
      ],
      "stateMutability": "view",
      "type": "function"
    },
    {
      "inputs": [
        {
          "internalType": "string",
          "name": "",
          "type": "string"
        }
      ],
      "name": "gameIdToTokenBalance",
      "outputs": [
        {
          "internalType": "uint256",
          "name": "",
          "type": "uint256"
        }
      ],
      "stateMutability": "view",
      "type": "function"
    },
    {
      "inputs": [],
      "name": "gamesCount",
      "outputs": [
        {
          "internalType": "uint256",
          "name": "",
          "type": "uint256"
        }
      ],
      "stateMutability": "view",
      "type": "function"
    },
    {
      "inputs": [
        {
          "internalType": "string",
          "name": "_gameId",
          "type": "string"
        }
      ],
      "name": "getQiTokenBalance",
      "outputs": [
        {
          "internalType": "uint256",
          "name": "",
          "type": "uint256"
        }
      ],
      "stateMutability": "view",
      "type": "function"
    },
    {
      "inputs": [],
      "name": "owner",
      "outputs": [
        {
          "internalType": "address",
          "name": "",
          "type": "address"
        }
      ],
      "stateMutability": "view",
      "type": "function"
    },
    {
      "inputs": [
        {
          "internalType": "string",
          "name": "_gameId",
          "type": "string"
        },
        {
          "internalType": "uint256",
          "name": "_betSide",
          "type": "uint256"
        }
      ],
      "name": "placeBet",
      "outputs": [],
      "stateMutability": "payable",
      "type": "function"
    },
    {
      "inputs": [
        {
          "internalType": "address",
          "name": "",
          "type": "address"
        }
      ],
      "name": "playerToBalance",
      "outputs": [
        {
          "internalType": "uint256",
          "name": "",
          "type": "uint256"
        }
      ],
      "stateMutability": "view",
      "type": "function"
    },
    {
      "inputs": [],
      "name": "qiToken",
      "outputs": [
        {
          "internalType": "contract QiAvaxInterface",
          "name": "",
          "type": "address"
        }
      ],
      "stateMutability": "view",
      "type": "function"
    },
    {
      "inputs": [],
      "name": "renounceOwnership",
      "outputs": [],
      "stateMutability": "nonpayable",
      "type": "function"
    },
    {
      "inputs": [
        {
          "internalType": "string",
          "name": "_objectId",
          "type": "string"
        }
      ],
      "name": "requestResult",
      "outputs": [
        {
          "internalType": "bytes32",
          "name": "requestId",
          "type": "bytes32"
        }
      ],
      "stateMutability": "nonpayable",
      "type": "function"
    },
    {
      "inputs": [
        {
          "internalType": "string",
          "name": "_gameId",
          "type": "string"
        },
        {
          "internalType": "uint256",
          "name": "_winningSide",
          "type": "uint256"
        }
      ],
      "name": "setMatchWinnerAndWithdrawFromPool",
      "outputs": [],
      "stateMutability": "nonpayable",
      "type": "function"
    },
    {
      "inputs": [
        {
          "internalType": "address",
          "name": "newOwner",
          "type": "address"
        }
      ],
      "name": "transferOwnership",
      "outputs": [],
      "stateMutability": "nonpayable",
      "type": "function"
    },
    {
      "inputs": [],
      "name": "withdraw",
      "outputs": [],
      "stateMutability": "nonpayable",
      "type": "function"
    }
  ],
  "bytecode": "0x608060405260016005553480156200001657600080fd5b5060405162005f1038038062005f1083398181016040528101906200003c9190620002d5565b6200005c620000506200015b60201b60201c565b6200016360201b60201c565b600060078190555080600860006101000a81548173ffffffffffffffffffffffffffffffffffffffff021916908373ffffffffffffffffffffffffffffffffffffffff160217905550620000ca730b9d5d9136855f6fec3c0993fee6e9ce8a2978466200022760201b60201c565b73d5c4d9fe36d09e71940676b312d1500078e24c6a600e60006101000a81548173ffffffffffffffffffffffffffffffffffffffff021916908373ffffffffffffffffffffffffffffffffffffffff1602179055507f6665653832636365323765633435633361663464326261306239653264643032600f81905550662386f26fc100006010819055505062000307565b600033905090565b60008060009054906101000a900473ffffffffffffffffffffffffffffffffffffffff169050816000806101000a81548173ffffffffffffffffffffffffffffffffffffffff021916908373ffffffffffffffffffffffffffffffffffffffff1602179055508173ffffffffffffffffffffffffffffffffffffffff168173ffffffffffffffffffffffffffffffffffffffff167f8be0079c531659141344cd1fd0a4f28419497f9722a3daafe3b4186f6b6457e060405160405180910390a35050565b80600360006101000a81548173ffffffffffffffffffffffffffffffffffffffff021916908373ffffffffffffffffffffffffffffffffffffffff16021790555050565b600080fd5b600073ffffffffffffffffffffffffffffffffffffffff82169050919050565b60006200029d8262000270565b9050919050565b620002af8162000290565b8114620002bb57600080fd5b50565b600081519050620002cf81620002a4565b92915050565b600060208284031215620002ee57620002ed6200026b565b5b6000620002fe84828501620002be565b91505092915050565b615bf980620003176000396000f3fe608060405260043610620001225760003560e01c80639201de5511620000a3578063cda3c499116200006d578063cda3c49914620003f4578063d76f2a1e1462000422578063eabe4a5e1462000442578063f2fde38b1462000486578063fb632b7c14620004b45762000122565b80639201de5514620002f957806397911d49146200033e578063a9583d321462000382578063b5005c3314620003c65762000122565b80635a9ec3bd11620000f15780635a9ec3bd14620001e357806360d3ace61462000227578063715018a6146200026b5780638da5cb5b14620002855780639070f9b514620002b55762000122565b8063042f2b6514620001275780631adac25114620001555780633ccfd60b1462000199578063462e4cda14620001b3575b600080fd5b3480156200013457600080fd5b506200015360048036038101906200014d9190620024ae565b620004e4565b005b3480156200016257600080fd5b506200018160048036038101906200017b919062002657565b620006e7565b604051620001909190620026c3565b60405180910390f35b348015620001a657600080fd5b50620001b162000715565b005b348015620001c057600080fd5b50620001cb6200086e565b604051620001da91906200276b565b60405180910390f35b348015620001f057600080fd5b506200020f6004803603810190620002099190620027cd565b62000894565b6040516200021e9190620026c3565b60405180910390f35b3480156200023457600080fd5b506200025360048036038101906200024d9190620027ff565b620008ac565b60405162000262919062002882565b60405180910390f35b3480156200027857600080fd5b5062000283620008f1565b005b3480156200029257600080fd5b506200029d62000982565b604051620002ac9190620028b0565b60405180910390f35b348015620002c257600080fd5b50620002e16004803603810190620002db919062002936565b620009ab565b604051620002f09190620026c3565b60405180910390f35b3480156200030657600080fd5b506200032560048036038101906200031f91906200298b565b620009d8565b6040516200033592919062002a50565b60405180910390f35b3480156200034b57600080fd5b506200036a600480360381019062000364919062002ab5565b62000bff565b604051620003799190620028b0565b60405180910390f35b3480156200038f57600080fd5b50620003ae6004803603810190620003a8919062002657565b62000c64565b604051620003bd919062002b2c565b60405180910390f35b348015620003d357600080fd5b50620003f26004803603810190620003ec919062002ab5565b62000d88565b005b3480156200040157600080fd5b506200042060048036038101906200041a919062002b49565b620012ae565b005b6200044060048036038101906200043a919062002bc9565b62001439565b005b3480156200044f57600080fd5b506200046e600480360381019062000468919062002657565b62001916565b6040516200047d9190620028b0565b60405180910390f35b3480156200049357600080fd5b50620004b26004803603810190620004ac9190620027cd565b6200195f565b005b348015620004c157600080fd5b50620004cc62001a63565b604051620004db9190620026c3565b60405180910390f35b816006600082815260200190815260200160002060009054906101000a900473ffffffffffffffffffffffffffffffffffffffff1673ffffffffffffffffffffffffffffffffffffffff163373ffffffffffffffffffffffffffffffffffffffff161462000589576040517f08c379a0000000000000000000000000000000000000000000000000000000008152600401620005809062002ca9565b60405180910390fd5b6006600082815260200190815260200160002060006101000a81549073ffffffffffffffffffffffffffffffffffffffff0219169055807f7cc135e0cebb02c3480ae5d74d377283180a2601f8f644edf7987b009316c63a60405160405180910390a2600080620005fa84620009d8565b915091506000600d8360405162000612919062002d0d565b90815260200160405180910390208054905011156200063d5762000637828262000d88565b620006a5565b6009826040516200064f919062002d0d565b908152602001604051809103902060006101000a81549073ffffffffffffffffffffffffffffffffffffffff0219169055600a8260405162000692919062002d0d565b9081526020016040518091039020600090555b7f770658a6d6fc5f00d81b338d6993c216f2d6d5df3a44c245006bc935e385a5408282604051620006d892919062002a50565b60405180910390a15050505050565b600a818051602081018201805184825260208301602085012081835280955050505050506000915090505481565b6000600b60003373ffffffffffffffffffffffffffffffffffffffff1673ffffffffffffffffffffffffffffffffffffffff16815260200190815260200160002054116200079a576040517f08c379a0000000000000000000000000000000000000000000000000000000008152600401620007919062002d76565b60405180910390fd5b6000600b60003373ffffffffffffffffffffffffffffffffffffffff1673ffffffffffffffffffffffffffffffffffffffff1681526020019081526020016000205490506000600b60003373ffffffffffffffffffffffffffffffffffffffff1673ffffffffffffffffffffffffffffffffffffffff168152602001908152602001600020819055503373ffffffffffffffffffffffffffffffffffffffff166108fc829081150290604051600060405180830381858888f193505050501580156200086a573d6000803e3d6000fd5b5050565b600860009054906101000a900473ffffffffffffffffffffffffffffffffffffffff1681565b600b6020528060005260406000206000915090505481565b600c828051602081018201805184825260208301602085012081835280955050505050506020528060005260406000206000915091509054906101000a900460ff1681565b620008fb62001a69565b73ffffffffffffffffffffffffffffffffffffffff166200091b62000982565b73ffffffffffffffffffffffffffffffffffffffff161462000974576040517f08c379a00000000000000000000000000000000000000000000000000000000081526004016200096b9062002de8565b60405180910390fd5b62000980600062001a71565b565b60008060009054906101000a900473ffffffffffffffffffffffffffffffffffffffff16905090565b6000600a8383604051620009c192919062002e33565b908152602001604051809103902054905092915050565b6060600080600090506000805b60208310801562000a355750600060f81b86846020811062000a0c5762000a0b62002e4e565b5b1a60f81b7effffffffffffffffffffffffffffffffffffffffffffffffffffffffffffff191614155b1562000a5157828062000a489062002eac565b935050620009e5565b600060018462000a62919062002efa565b905060008167ffffffffffffffff81111562000a835762000a8262002510565b5b6040519080825280601f01601f19166020018201604052801562000ab65781602001600182028036833780820191505090505b509050600094505b60208510801562000b0e5750600060f81b88866020811062000ae55762000ae462002e4e565b5b1a60f81b7effffffffffffffffffffffffffffffffffffffffffffffffffffffffffffff191614155b1562000be1578185101562000b7d5787856020811062000b335762000b3262002e4e565b5b1a60f81b81868151811062000b4d5762000b4c62002e4e565b5b60200101907effffffffffffffffffffffffffffffffffffffffffffffffffffffffffffff1916908160001a9053505b603088866020811062000b955762000b9462002e4e565b5b1a60f81b60f81c62000ba8919062002f42565b60ff16935083600a8462000bbd919062002f7d565b62000bc9919062002fde565b9250848062000bd89062002eac565b95505062000abe565b80600a8462000bf191906200306a565b965096505050505050915091565b600d82805160208101820180518482526020830160208501208183528095505050505050818154811062000c3257600080fd5b906000526020600020016000915091509054906101000a900473ffffffffffffffffffffffffffffffffffffffff1681565b600062000c7062001a69565b73ffffffffffffffffffffffffffffffffffffffff1662000c9062000982565b73ffffffffffffffffffffffffffffffffffffffff161462000ce9576040517f08c379a000000000000000000000000000000000000000000000000000000000815260040162000ce09062002de8565b60405180910390fd5b600062000d01600f543063042f2b6560e01b62001b35565b905062000d4f6040518060400160405280600981526020017f6669787475726549640000000000000000000000000000000000000000000000815250848362001b6c9092919063ffffffff16565b62000d80600e60009054906101000a900473ffffffffffffffffffffffffffffffffffffffff168260105462001ba3565b915050919050565b600060098360405162000d9c919062002d0d565b908152602001604051809103902060009054906101000a900473ffffffffffffffffffffffffffffffffffffffff169050600081905060008290508073ffffffffffffffffffffffffffffffffffffffff1663f8fd067f856040518263ffffffff1660e01b815260040162000e129190620026c3565b600060405180830381600087803b15801562000e2d57600080fd5b505af115801562000e42573d6000803e3d6000fd5b5050505060004790506000600a8760405162000e5f919062002d0d565b90815260200160405180910390205490506000600a8860405162000e84919062002d0d565b908152602001604051809103902081905550600860009054906101000a900473ffffffffffffffffffffffffffffffffffffffff1673ffffffffffffffffffffffffffffffffffffffff1663db006a75826040518263ffffffff1660e01b815260040162000ef39190620026c3565b602060405180830381600087803b15801562000f0e57600080fd5b505af115801562000f23573d6000803e3d6000fd5b505050506040513d601f19601f8201168201806040525081019062000f499190620030b9565b50600047905060005b600d8960405162000f64919062002d0d565b908152602001604051809103902080549050811015620010df576000600d8a60405162000f92919062002d0d565b9081526020016040518091039020828154811062000fb55762000fb462002e4e565b5b9060005260206000200160009054906101000a900473ffffffffffffffffffffffffffffffffffffffff1690508673ffffffffffffffffffffffffffffffffffffffff16634e33f83b826040518263ffffffff1660e01b81526004016200101d9190620028b0565b60206040518083038186803b1580156200103657600080fd5b505afa1580156200104b573d6000803e3d6000fd5b505050506040513d601f19601f82011682018060405250810190620010719190620030b9565b600b60008373ffffffffffffffffffffffffffffffffffffffff1673ffffffffffffffffffffffffffffffffffffffff1681526020019081526020016000206000828254620010c1919062002fde565b92505081905550508080620010d69062002eac565b91505062000f52565b5060008573ffffffffffffffffffffffffffffffffffffffff1663dfbf53ae6040518163ffffffff1660e01b815260040160206040518083038186803b1580156200112957600080fd5b505afa1580156200113e573d6000803e3d6000fd5b505050506040513d601f19601f8201168201806040525081019062001164919062003102565b90508573ffffffffffffffffffffffffffffffffffffffff16637d8820976040518163ffffffff1660e01b815260040160206040518083038186803b158015620011ad57600080fd5b505afa158015620011c2573d6000803e3d6000fd5b505050506040513d601f19601f82011682018060405250810190620011e89190620030b9565b8483620011f6919062002efa565b62001202919062002efa565b600b60008373ffffffffffffffffffffffffffffffffffffffff1673ffffffffffffffffffffffffffffffffffffffff168152602001908152602001600020600082825462001252919062002fde565b925050819055507fc13f40246d21a50ba7fbae3ff93832e7bf5c946285a29916d6dcf1ab42c0b4ae898286856200128a919062002efa565b6040516200129b9392919062003134565b60405180910390a1505050505050505050565b620012b862001a69565b73ffffffffffffffffffffffffffffffffffffffff16620012d862000982565b73ffffffffffffffffffffffffffffffffffffffff161462001331576040517f08c379a0000000000000000000000000000000000000000000000000000000008152600401620013289062002de8565b60405180910390fd5b600082826040516200134390620023c8565b6200135092919062003178565b604051809103906000f0801580156200136d573d6000803e3d6000fd5b509050600081905080600987876040516200138a92919062002e33565b908152602001604051809103902060006101000a81548173ffffffffffffffffffffffffffffffffffffffff021916908373ffffffffffffffffffffffffffffffffffffffff1602179055507f59328f3fae9019ea9e9a32580b8b124497cfafa027b6d1fb91977cbf1b9d6fe28686600754846040516200140f9493929190620031d8565b60405180910390a1600760008154809291906200142c9062002eac565b9190505550505050505050565b60003490506000600985856040516200145492919062002e33565b908152602001604051809103902060009054906101000a900473ffffffffffffffffffffffffffffffffffffffff1690506000600860009054906101000a900473ffffffffffffffffffffffffffffffffffffffff1673ffffffffffffffffffffffffffffffffffffffff166370a08231306040518263ffffffff1660e01b8152600401620014e49190620028b0565b60206040518083038186803b158015620014fd57600080fd5b505afa15801562001512573d6000803e3d6000fd5b505050506040513d601f19601f82011682018060405250810190620015389190620030b9565b9050600860009054906101000a900473ffffffffffffffffffffffffffffffffffffffff1673ffffffffffffffffffffffffffffffffffffffff16631249c58b846040518263ffffffff1660e01b81526004016000604051808303818588803b158015620015a557600080fd5b505af1158015620015ba573d6000803e3d6000fd5b50505050506000600860009054906101000a900473ffffffffffffffffffffffffffffffffffffffff1673ffffffffffffffffffffffffffffffffffffffff166370a08231306040518263ffffffff1660e01b81526004016200161e9190620028b0565b60206040518083038186803b1580156200163757600080fd5b505afa1580156200164c573d6000803e3d6000fd5b505050506040513d601f19601f82011682018060405250810190620016729190620030b9565b9050818162001682919062002efa565b600a88886040516200169692919062002e33565b90815260200160405180910390206000828254620016b5919062002fde565b9250508190555060008390508073ffffffffffffffffffffffffffffffffffffffff1663f231a4f63387896040518463ffffffff1660e01b815260040162001700939291906200321e565b600060405180830381600087803b1580156200171b57600080fd5b505af115801562001730573d6000803e3d6000fd5b50505050600c88886040516200174892919062002e33565b908152602001604051809103902060003373ffffffffffffffffffffffffffffffffffffffff1673ffffffffffffffffffffffffffffffffffffffff16815260200190815260200160002060009054906101000a900460ff16620018a2576001600c8989604051620017bc92919062002e33565b908152602001604051809103902060003373ffffffffffffffffffffffffffffffffffffffff1673ffffffffffffffffffffffffffffffffffffffff16815260200190815260200160002060006101000a81548160ff021916908315150217905550600d88886040516200183292919062002e33565b9081526020016040518091039020339080600181540180825580915050600190039060005260206000200160009091909190916101000a81548173ffffffffffffffffffffffffffffffffffffffff021916908373ffffffffffffffffffffffffffffffffffffffff1602179055505b600060018714620018c75760028714620018be576003620018c1565b60025b620018ca565b60015b90507f735b1c239849c4eccd5fe3089b58e461deb3809f9e480c5e6b44ec4a16347d7c89898389604051620019039493929190620032db565b60405180910390a1505050505050505050565b6009818051602081018201805184825260208301602085012081835280955050505050506000915054906101000a900473ffffffffffffffffffffffffffffffffffffffff1681565b6200196962001a69565b73ffffffffffffffffffffffffffffffffffffffff166200198962000982565b73ffffffffffffffffffffffffffffffffffffffff1614620019e2576040517f08c379a0000000000000000000000000000000000000000000000000000000008152600401620019d99062002de8565b60405180910390fd5b600073ffffffffffffffffffffffffffffffffffffffff168173ffffffffffffffffffffffffffffffffffffffff16141562001a55576040517f08c379a000000000000000000000000000000000000000000000000000000000815260040162001a4c9062003397565b60405180910390fd5b62001a608162001a71565b50565b60075481565b600033905090565b60008060009054906101000a900473ffffffffffffffffffffffffffffffffffffffff169050816000806101000a81548173ffffffffffffffffffffffffffffffffffffffff021916908373ffffffffffffffffffffffffffffffffffffffff1602179055508173ffffffffffffffffffffffffffffffffffffffff168173ffffffffffffffffffffffffffffffffffffffff167f8be0079c531659141344cd1fd0a4f28419497f9722a3daafe3b4186f6b6457e060405160405180910390a35050565b62001b3f620023d6565b62001b49620023d6565b62001b628585858462001bc5909392919063ffffffff16565b9150509392505050565b62001b8582846080015162001c7990919063ffffffff16565b62001b9e81846080015162001c7990919063ffffffff16565b505050565b600062001bbc8484846001634042994660e01b62001ca2565b90509392505050565b62001bcf620023d6565b62001be1856080015161010062001f19565b508385600001818152505082856020019073ffffffffffffffffffffffffffffffffffffffff16908173ffffffffffffffffffffffffffffffffffffffff16815250508185604001907bffffffffffffffffffffffffffffffffffffffffffffffffffffffff191690817bffffffffffffffffffffffffffffffffffffffffffffffffffffffff191681525050849050949350505050565b62001c88826003835162001f8e565b62001c9d8183620020ee90919063ffffffff16565b505050565b60003060055460405160200162001cbb92919062003442565b604051602081830303815290604052805190602001209050600554856060018181525050856006600083815260200190815260200160002060006101000a81548173ffffffffffffffffffffffffffffffffffffffff021916908373ffffffffffffffffffffffffffffffffffffffff160217905550807fb5e6e01e79f91267dc17b4e6314d5d4d03593d2ceee0fbb452b750bd70ea5af960405160405180910390a2600082600080886000015189602001518a604001518b606001518a8d608001516000015160405160240162001d9b9897969594939291906200350c565b604051602081830303815290604052907bffffffffffffffffffffffffffffffffffffffffffffffffffffffff19166020820180517bffffffffffffffffffffffffffffffffffffffffffffffffffffffff83818316178352505050509050600360009054906101000a900473ffffffffffffffffffffffffffffffffffffffff1673ffffffffffffffffffffffffffffffffffffffff16634000aea08887846040518463ffffffff1660e01b815260040162001e5b93929190620035a1565b602060405180830381600087803b15801562001e7657600080fd5b505af115801562001e8b573d6000803e3d6000fd5b505050506040513d601f19601f8201168201806040525081019062001eb1919062003616565b62001ef3576040517f08c379a000000000000000000000000000000000000000000000000000000000815260040162001eea90620036be565b60405180910390fd5b60016005600082825462001f08919062002fde565b925050819055505095945050505050565b62001f2362002445565b600060208362001f3491906200306a565b1462001f675760208262001f4991906200306a565b602062001f57919062002efa565b8262001f64919062002fde565b91505b81836020018181525050604051808452600081528281016020016040525082905092915050565b6017811162001fbf5762001fb88160058460ff16901b60ff1617846200211490919063ffffffff16565b50620020e9565b60ff8111620020075762001fe7601860058460ff16901b17846200211490919063ffffffff16565b506200200081600185620021389092919063ffffffff16565b50620020e8565b61ffff8111620020505762002030601960058460ff16901b17846200211490919063ffffffff16565b506200204981600285620021389092919063ffffffff16565b50620020e7565b63ffffffff81116200209b576200207b601a60058460ff16901b17846200211490919063ffffffff16565b506200209481600485620021389092919063ffffffff16565b50620020e6565b67ffffffffffffffff8111620020e557620020ca601b60058460ff16901b17846200211490919063ffffffff16565b50620020e381600885620021389092919063ffffffff16565b505b5b5b5b5b505050565b620020f862002445565b6200210c838460000151518485516200215e565b905092915050565b6200211e62002445565b62002130838460000151518462002285565b905092915050565b6200214262002445565b62002155848560000151518585620022e4565b90509392505050565b6200216862002445565b82518211156200217757600080fd5b846020015182856200218a919062002fde565b1115620021c857620021c7856002620021b588602001518887620021af919062002fde565b62002382565b620021c1919062002f7d565b620023a0565b5b600080865180518760208301019350808887011115620021e85787860182525b60208701925050505b602084106200223757805182526020826200220d919062002fde565b91506020816200221e919062002fde565b90506020846200222f919062002efa565b9350620021f1565b600060018560206200224a919062002efa565b61010062002259919062003834565b62002265919062002efa565b905080198251168184511681811785525050879350505050949350505050565b6200228f62002445565b83602001518310620022ba57620022b98460028660200151620022b3919062002f7d565b620023a0565b5b8351805160208583010184815381861415620022d7576001820183525b5050508390509392505050565b620022ee62002445565b8460200151848362002301919062002fde565b111562002330576200232f85600286856200231d919062002fde565b62002329919062002f7d565b620023a0565b5b600060018361010062002344919062003834565b62002350919062002efa565b90508551838682010185831982511617815281518588011115620023745784870182525b505085915050949350505050565b60008183111562002396578290506200239a565b8190505b92915050565b600082600001519050620023b5838362001f19565b50620023c28382620020ee565b50505050565b61233e806200388683390190565b6040518060a0016040528060008019168152602001600073ffffffffffffffffffffffffffffffffffffffff16815260200160007bffffffffffffffffffffffffffffffffffffffffffffffffffffffff19168152602001600081526020016200243f62002445565b81525090565b604051806040016040528060608152602001600081525090565b6000604051905090565b600080fd5b600080fd5b6000819050919050565b620024888162002473565b81146200249457600080fd5b50565b600081359050620024a8816200247d565b92915050565b60008060408385031215620024c857620024c762002469565b5b6000620024d88582860162002497565b9250506020620024eb8582860162002497565b9150509250929050565b600080fd5b600080fd5b6000601f19601f8301169050919050565b7f4e487b7100000000000000000000000000000000000000000000000000000000600052604160045260246000fd5b6200254a82620024ff565b810181811067ffffffffffffffff821117156200256c576200256b62002510565b5b80604052505050565b6000620025816200245f565b90506200258f82826200253f565b919050565b600067ffffffffffffffff821115620025b257620025b162002510565b5b620025bd82620024ff565b9050602081019050919050565b82818337600083830152505050565b6000620025f0620025ea8462002594565b62002575565b9050828152602081018484840111156200260f576200260e620024fa565b5b6200261c848285620025ca565b509392505050565b600082601f8301126200263c576200263b620024f5565b5b81356200264e848260208601620025d9565b91505092915050565b60006020828403121562002670576200266f62002469565b5b600082013567ffffffffffffffff8111156200269157620026906200246e565b5b6200269f8482850162002624565b91505092915050565b6000819050919050565b620026bd81620026a8565b82525050565b6000602082019050620026da6000830184620026b2565b92915050565b600073ffffffffffffffffffffffffffffffffffffffff82169050919050565b6000819050919050565b60006200272b620027256200271f84620026e0565b62002700565b620026e0565b9050919050565b60006200273f826200270a565b9050919050565b6000620027538262002732565b9050919050565b620027658162002746565b82525050565b60006020820190506200278260008301846200275a565b92915050565b60006200279582620026e0565b9050919050565b620027a78162002788565b8114620027b357600080fd5b50565b600081359050620027c7816200279c565b92915050565b600060208284031215620027e657620027e562002469565b5b6000620027f684828501620027b6565b91505092915050565b6000806040838503121562002819576200281862002469565b5b600083013567ffffffffffffffff8111156200283a57620028396200246e565b5b620028488582860162002624565b92505060206200285b85828601620027b6565b9150509250929050565b60008115159050919050565b6200287c8162002865565b82525050565b600060208201905062002899600083018462002871565b92915050565b620028aa8162002788565b82525050565b6000602082019050620028c760008301846200289f565b92915050565b600080fd5b600080fd5b60008083601f840112620028f057620028ef620024f5565b5b8235905067ffffffffffffffff81111562002910576200290f620028cd565b5b6020830191508360018202830111156200292f576200292e620028d2565b5b9250929050565b6000806020838503121562002950576200294f62002469565b5b600083013567ffffffffffffffff8111156200297157620029706200246e565b5b6200297f85828601620028d7565b92509250509250929050565b600060208284031215620029a457620029a362002469565b5b6000620029b48482850162002497565b91505092915050565b600081519050919050565b600082825260208201905092915050565b60005b83811015620029f9578082015181840152602081019050620029dc565b8381111562002a09576000848401525b50505050565b600062002a1c82620029bd565b62002a288185620029c8565b935062002a3a818560208601620029d9565b62002a4581620024ff565b840191505092915050565b6000604082019050818103600083015262002a6c818562002a0f565b905062002a7d6020830184620026b2565b9392505050565b62002a8f81620026a8565b811462002a9b57600080fd5b50565b60008135905062002aaf8162002a84565b92915050565b6000806040838503121562002acf5762002ace62002469565b5b600083013567ffffffffffffffff81111562002af05762002aef6200246e565b5b62002afe8582860162002624565b925050602062002b118582860162002a9e565b9150509250929050565b62002b268162002473565b82525050565b600060208201905062002b43600083018462002b1b565b92915050565b6000806000806060858703121562002b665762002b6562002469565b5b600085013567ffffffffffffffff81111562002b875762002b866200246e565b5b62002b9587828801620028d7565b9450945050602062002baa8782880162002a9e565b925050604062002bbd8782880162002a9e565b91505092959194509250565b60008060006040848603121562002be55762002be462002469565b5b600084013567ffffffffffffffff81111562002c065762002c056200246e565b5b62002c1486828701620028d7565b9350935050602062002c298682870162002a9e565b9150509250925092565b7f536f75726365206d75737420626520746865206f7261636c65206f662074686560008201527f2072657175657374000000000000000000000000000000000000000000000000602082015250565b600062002c91602883620029c8565b915062002c9e8262002c33565b604082019050919050565b6000602082019050818103600083015262002cc48162002c82565b9050919050565b600081905092915050565b600062002ce382620029bd565b62002cef818562002ccb565b935062002d01818560208601620029d9565b80840191505092915050565b600062002d1b828462002cd6565b915081905092915050565b7f62616c616e6365206973207a65726f0000000000000000000000000000000000600082015250565b600062002d5e600f83620029c8565b915062002d6b8262002d26565b602082019050919050565b6000602082019050818103600083015262002d918162002d4f565b9050919050565b7f4f776e61626c653a2063616c6c6572206973206e6f7420746865206f776e6572600082015250565b600062002dd0602083620029c8565b915062002ddd8262002d98565b602082019050919050565b6000602082019050818103600083015262002e038162002dc1565b9050919050565b600062002e18838562002ccb565b935062002e27838584620025ca565b82840190509392505050565b600062002e4282848662002e0a565b91508190509392505050565b7f4e487b7100000000000000000000000000000000000000000000000000000000600052603260045260246000fd5b7f4e487b7100000000000000000000000000000000000000000000000000000000600052601160045260246000fd5b600062002eb982620026a8565b91507fffffffffffffffffffffffffffffffffffffffffffffffffffffffffffffffff82141562002eef5762002eee62002e7d565b5b600182019050919050565b600062002f0782620026a8565b915062002f1483620026a8565b92508282101562002f2a5762002f2962002e7d565b5b828203905092915050565b600060ff82169050919050565b600062002f4f8262002f35565b915062002f5c8362002f35565b92508282101562002f725762002f7162002e7d565b5b828203905092915050565b600062002f8a82620026a8565b915062002f9783620026a8565b9250817fffffffffffffffffffffffffffffffffffffffffffffffffffffffffffffffff048311821515161562002fd35762002fd262002e7d565b5b828202905092915050565b600062002feb82620026a8565b915062002ff883620026a8565b9250827fffffffffffffffffffffffffffffffffffffffffffffffffffffffffffffffff0382111562003030576200302f62002e7d565b5b828201905092915050565b7f4e487b7100000000000000000000000000000000000000000000000000000000600052601260045260246000fd5b60006200307782620026a8565b91506200308483620026a8565b9250826200309757620030966200303b565b5b828206905092915050565b600081519050620030b38162002a84565b92915050565b600060208284031215620030d257620030d162002469565b5b6000620030e284828501620030a2565b91505092915050565b600081519050620030fc816200279c565b92915050565b6000602082840312156200311b576200311a62002469565b5b60006200312b84828501620030eb565b91505092915050565b6000606082019050818103600083015262003150818662002a0f565b90506200316160208301856200289f565b620031706040830184620026b2565b949350505050565b60006040820190506200318f6000830185620026b2565b6200319e6020830184620026b2565b9392505050565b6000620031b38385620029c8565b9350620031c2838584620025ca565b620031cd83620024ff565b840190509392505050565b60006060820190508181036000830152620031f5818688620031a5565b9050620032066020830185620026b2565b6200321560408301846200289f565b95945050505050565b60006060820190506200323560008301866200289f565b620032446020830185620026b2565b620032536040830184620026b2565b949350505050565b7f4e487b7100000000000000000000000000000000000000000000000000000000600052602160045260246000fd5b600481106200329e576200329d6200325b565b5b50565b6000819050620032b1826200328a565b919050565b6000620032c382620032a1565b9050919050565b620032d581620032b6565b82525050565b60006060820190508181036000830152620032f8818688620031a5565b9050620033096020830185620032ca565b620033186040830184620026b2565b95945050505050565b7f4f776e61626c653a206e6577206f776e657220697320746865207a65726f206160008201527f6464726573730000000000000000000000000000000000000000000000000000602082015250565b60006200337f602683620029c8565b91506200338c8262003321565b604082019050919050565b60006020820190508181036000830152620033b28162003370565b9050919050565b6000620033c68262002732565b9050919050565b60008160601b9050919050565b6000620033e782620033cd565b9050919050565b6000620033fb82620033da565b9050919050565b620034176200341182620033b9565b620033ee565b82525050565b6000819050919050565b6200343c6200343682620026a8565b6200341d565b82525050565b600062003450828562003402565b60148201915062003462828462003427565b6020820191508190509392505050565b60007fffffffff0000000000000000000000000000000000000000000000000000000082169050919050565b620034a98162003472565b82525050565b600081519050919050565b600082825260208201905092915050565b6000620034d882620034af565b620034e48185620034ba565b9350620034f6818560208601620029d9565b6200350181620024ff565b840191505092915050565b60006101008201905062003524600083018b6200289f565b62003533602083018a620026b2565b62003542604083018962002b1b565b6200355160608301886200289f565b6200356060808301876200349e565b6200356f60a0830186620026b2565b6200357e60c0830185620026b2565b81810360e0830152620035928184620034cb565b90509998505050505050505050565b6000606082019050620035b860008301866200289f565b620035c76020830185620026b2565b8181036040830152620035db8184620034cb565b9050949350505050565b620035f08162002865565b8114620035fc57600080fd5b50565b6000815190506200361081620035e5565b92915050565b6000602082840312156200362f576200362e62002469565b5b60006200363f84828501620035ff565b91505092915050565b7f756e61626c6520746f207472616e73666572416e6443616c6c20746f206f726160008201527f636c650000000000000000000000000000000000000000000000000000000000602082015250565b6000620036a6602383620029c8565b9150620036b38262003648565b604082019050919050565b60006020820190508181036000830152620036d98162003697565b9050919050565b60008160011c9050919050565b6000808291508390505b60018511156200373f5780860481111562003717576200371662002e7d565b5b6001851615620037275780820291505b80810290506200373785620036e0565b9450620036f7565b94509492505050565b6000826200375a57600190506200382d565b816200376a57600090506200382d565b81600181146200378357600281146200378e57620037c4565b60019150506200382d565b60ff841115620037a357620037a262002e7d565b5b8360020a915084821115620037bd57620037bc62002e7d565b5b506200382d565b5060208310610133831016604e8410600b8410161715620037fe5782820a905083811115620037f857620037f762002e7d565b5b6200382d565b6200380d8484846001620036ed565b9250905081840481111562003827576200382662002e7d565b5b81810290505b9392505050565b60006200384182620026a8565b91506200384e83620026a8565b92506200387d7fffffffffffffffffffffffffffffffffffffffffffffffffffffffffffffffff848462003748565b90509291505056fe60806040523480156200001157600080fd5b506040516200233e3803806200233e833981810160405281019062000037919062000247565b8181620000596200004d6200013b60201b60201c565b6200014360201b60201c565b60008060146101000a81548160ff021916908360018111156200008157620000806200028e565b5b02179055508160018190555080600281905550505060008060146101000a81548160ff02191690836001811115620000be57620000bd6200028e565b5b02179055506000601660006101000a81548160ff02191690836003811115620000ec57620000eb6200028e565b5b02179055506000601460006101000a81548173ffffffffffffffffffffffffffffffffffffffff021916908373ffffffffffffffffffffffffffffffffffffffff1602179055505050620002bd565b600033905090565b60008060009054906101000a900473ffffffffffffffffffffffffffffffffffffffff169050816000806101000a81548173ffffffffffffffffffffffffffffffffffffffff021916908373ffffffffffffffffffffffffffffffffffffffff1602179055508173ffffffffffffffffffffffffffffffffffffffff168173ffffffffffffffffffffffffffffffffffffffff167f8be0079c531659141344cd1fd0a4f28419497f9722a3daafe3b4186f6b6457e060405160405180910390a35050565b600080fd5b6000819050919050565b62000221816200020c565b81146200022d57600080fd5b50565b600081519050620002418162000216565b92915050565b6000806040838503121562000261576200026062000207565b5b6000620002718582860162000230565b9250506020620002848582860162000230565b9150509250929050565b7f4e487b7100000000000000000000000000000000000000000000000000000000600052602160045260246000fd5b61207180620002cd6000396000f3fe608060405234801561001057600080fd5b50600436106101cf5760003560e01c8063ad9ed66e11610104578063d9d52160116100a2578063f231a4f611610071578063f231a4f614610560578063f2fde38b1461057c578063f8fd067f14610598578063fbf06338146105b4576101cf565b8063d9d52160146104d6578063dfbf53ae14610506578063e11f3f7714610524578063e8eaca7514610542576101cf565b8063c003aef3116100de578063c003aef31461044c578063c69de2241461046a578063c7b8cad514610488578063c9ca03cd146104b8576101cf565b8063ad9ed66e146103bc578063b3db3ced146103ec578063b810fe8d1461041c576101cf565b8063715018a6116101715780637d8820971161014b5780637d882097146103205780638da5cb5b1461033e57806391c54ca41461035c578063aa236df41461038c576101cf565b8063715018a6146102c8578063788e26e7146102d257806379db8a13146102f0576101cf565b80633255d451116101ad5780633255d4511461024057806336201e531461025e5780634e33f83b1461027c57806363ceb60d146102ac576101cf565b80630873d9ec146101d457806309126f08146101f2578063200d2ed214610222575b600080fd5b6101dc6105d2565b6040516101e9919061194b565b60405180910390f35b61020c600480360381019061020791906119c9565b6105d8565b604051610219919061194b565b60405180910390f35b61022a6105f0565b6040516102379190611a6d565b60405180910390f35b610248610603565b604051610255919061194b565b60405180910390f35b610266610609565b604051610273919061194b565b60405180910390f35b610296600480360381019061029191906119c9565b61060f565b6040516102a3919061194b565b60405180910390f35b6102c660048036038101906102c19190611ab4565b610627565b005b6102d0610772565b005b6102da6107fa565b6040516102e7919061194b565b60405180910390f35b61030a60048036038101906103059190611af4565b610800565b604051610317919061194b565b60405180910390f35b610328610824565b604051610335919061194b565b60405180910390f35b61034661082a565b6040516103539190611b30565b60405180910390f35b61037660048036038101906103719190611af4565b610853565b6040516103839190611b30565b60405180910390f35b6103a660048036038101906103a19190611af4565b610886565b6040516103b39190611b30565b60405180910390f35b6103d660048036038101906103d19190611af4565b6108b9565b6040516103e3919061194b565b60405180910390f35b61040660048036038101906104019190611af4565b6108dd565b604051610413919061194b565b60405180910390f35b610436600480360381019061043191906119c9565b610901565b604051610443919061194b565b60405180910390f35b610454610919565b604051610461919061194b565b60405180910390f35b61047261091f565b60405161047f919061194b565b60405180910390f35b6104a2600480360381019061049d91906119c9565b610925565b6040516104af919061194b565b60405180910390f35b6104c061093d565b6040516104cd919061194b565b60405180910390f35b6104f060048036038101906104eb9190611af4565b610943565b6040516104fd9190611b30565b60405180910390f35b61050e610976565b60405161051b9190611b30565b60405180910390f35b61052c61099c565b604051610539919061194b565b60405180910390f35b61054a6109a2565b604051610557919061194b565b60405180910390f35b61057a60048036038101906105759190611b4b565b6109a8565b005b610596600480360381019061059191906119c9565b610b21565b005b6105b260048036038101906105ad9190611af4565b610c19565b005b6105bc610d8c565b6040516105c99190611be6565b60405180910390f35b60085481565b60116020528060005260406000206000915090505481565b600060149054906101000a900460ff1681565b60025481565b60045481565b60106020528060005260406000206000915090505481565b61062f610d9f565b73ffffffffffffffffffffffffffffffffffffffff1661064d61082a565b73ffffffffffffffffffffffffffffffffffffffff16146106a3576040517f08c379a000000000000000000000000000000000000000000000000000000000815260040161069a90611c5e565b60405180910390fd5b600082116106e6576040517f08c379a00000000000000000000000000000000000000000000000000000000081526004016106dd90611cca565b60405180910390fd5b81600360008282546106f89190611d19565b9250508190555081601560008282546107119190611d19565b9250508190555081601060008373ffffffffffffffffffffffffffffffffffffffff1673ffffffffffffffffffffffffffffffffffffffff16815260200190815260200160002060008282546107679190611d19565b925050819055505050565b61077a610d9f565b73ffffffffffffffffffffffffffffffffffffffff1661079861082a565b73ffffffffffffffffffffffffffffffffffffffff16146107ee576040517f08c379a00000000000000000000000000000000000000000000000000000000081526004016107e590611c5e565b60405180910390fd5b6107f86000610da7565b565b60155481565b600b818154811061081057600080fd5b906000526020600020016000915090505481565b60035481565b60008060009054906101000a900473ffffffffffffffffffffffffffffffffffffffff16905090565b600f6020528060005260406000206000915054906101000a900473ffffffffffffffffffffffffffffffffffffffff1681565b600e6020528060005260406000206000915054906101000a900473ffffffffffffffffffffffffffffffffffffffff1681565b600a81815481106108c957600080fd5b906000526020600020016000915090505481565b600c81815481106108ed57600080fd5b906000526020600020016000915090505481565b60136020528060005260406000206000915090505481565b60065481565b60095481565b60126020528060005260406000206000915090505481565b60015481565b600d6020528060005260406000206000915054906101000a900473ffffffffffffffffffffffffffffffffffffffff1681565b601460009054906101000a900473ffffffffffffffffffffffffffffffffffffffff1681565b60055481565b60075481565b6109b0610d9f565b73ffffffffffffffffffffffffffffffffffffffff166109ce61082a565b73ffffffffffffffffffffffffffffffffffffffff1614610a24576040517f08c379a0000000000000000000000000000000000000000000000000000000008152600401610a1b90611c5e565b60405180910390fd5b60008211610a67576040517f08c379a0000000000000000000000000000000000000000000000000000000008152600401610a5e90611cca565b60405180910390fd5b6001811415610a7f57610a7a8383610e6b565b610aad565b6003811415610a9757610a928383610f9b565b610aac565b6002811415610aab57610aaa83836110cb565b5b5b5b8160036000828254610abf9190611d19565b9250508190555081601060008573ffffffffffffffffffffffffffffffffffffffff1673ffffffffffffffffffffffffffffffffffffffff1681526020019081526020016000206000828254610b159190611d19565b92505081905550505050565b610b29610d9f565b73ffffffffffffffffffffffffffffffffffffffff16610b4761082a565b73ffffffffffffffffffffffffffffffffffffffff1614610b9d576040517f08c379a0000000000000000000000000000000000000000000000000000000008152600401610b9490611c5e565b60405180910390fd5b600073ffffffffffffffffffffffffffffffffffffffff168173ffffffffffffffffffffffffffffffffffffffff161415610c0d576040517f08c379a0000000000000000000000000000000000000000000000000000000008152600401610c0490611de1565b60405180910390fd5b610c1681610da7565b50565b610c21610d9f565b73ffffffffffffffffffffffffffffffffffffffff16610c3f61082a565b73ffffffffffffffffffffffffffffffffffffffff1614610c95576040517f08c379a0000000000000000000000000000000000000000000000000000000008152600401610c8c90611c5e565b60405180910390fd5b60006001811115610ca957610ca86119f6565b5b600060149054906101000a900460ff166001811115610ccb57610cca6119f6565b5b14610d0b576040517f08c379a0000000000000000000000000000000000000000000000000000000008152600401610d0290611e4d565b60405180910390fd5b6001600060146101000a81548160ff02191690836001811115610d3157610d306119f6565b5b021790555060018114610d555760028114610d4d576003610d50565b60025b610d58565b60015b601660006101000a81548160ff02191690836003811115610d7c57610d7b6119f6565b5b0217905550610d896111fb565b50565b601660009054906101000a900460ff1681565b600033905090565b60008060009054906101000a900473ffffffffffffffffffffffffffffffffffffffff169050816000806101000a81548173ffffffffffffffffffffffffffffffffffffffff021916908373ffffffffffffffffffffffffffffffffffffffff1602179055508173ffffffffffffffffffffffffffffffffffffffff168173ffffffffffffffffffffffffffffffffffffffff167f8be0079c531659141344cd1fd0a4f28419497f9722a3daafe3b4186f6b6457e060405160405180910390a35050565b6000429050600081600154610e809190611e6d565b83610e8b9190611ea1565b905080601160008673ffffffffffffffffffffffffffffffffffffffff1673ffffffffffffffffffffffffffffffffffffffff1681526020019081526020016000206000828254610edc9190611d19565b925050819055508060046000828254610ef59190611d19565b92505081905550600a600454908060018154018082558091505060019003906000526020600020016000909190919091505583600d6000600754815260200190815260200160002060006101000a81548173ffffffffffffffffffffffffffffffffffffffff021916908373ffffffffffffffffffffffffffffffffffffffff160217905550600160076000828254610f8e9190611d19565b9250508190555050505050565b6000429050600081600154610fb09190611e6d565b83610fbb9190611ea1565b905080601360008673ffffffffffffffffffffffffffffffffffffffff1673ffffffffffffffffffffffffffffffffffffffff168152602001908152602001600020600082825461100c9190611d19565b9250508190555080600660008282546110259190611d19565b92505081905550600c600654908060018154018082558091505060019003906000526020600020016000909190919091505583600f6000600954815260200190815260200160002060006101000a81548173ffffffffffffffffffffffffffffffffffffffff021916908373ffffffffffffffffffffffffffffffffffffffff1602179055506001600960008282546110be9190611d19565b9250508190555050505050565b60004290506000816001546110e09190611e6d565b836110eb9190611ea1565b905080601260008673ffffffffffffffffffffffffffffffffffffffff1673ffffffffffffffffffffffffffffffffffffffff168152602001908152602001600020600082825461113c9190611d19565b9250508190555080600560008282546111559190611d19565b92505081905550600b600554908060018154018082558091505060019003906000526020600020016000909190919091505583600e6000600754815260200190815260200160002060006101000a81548173ffffffffffffffffffffffffffffffffffffffff021916908373ffffffffffffffffffffffffffffffffffffffff1602179055506001600860008282546111ee9190611d19565b9250508190555050505050565b6001600381111561120f5761120e6119f6565b5b601660009054906101000a900460ff166003811115611231576112306119f6565b5b14156112845761123f611395565b601460006101000a81548173ffffffffffffffffffffffffffffffffffffffff021916908373ffffffffffffffffffffffffffffffffffffffff160217905550611393565b600380811115611297576112966119f6565b5b601660009054906101000a900460ff1660038111156112b9576112b86119f6565b5b141561130c576112c761155f565b601460006101000a81548173ffffffffffffffffffffffffffffffffffffffff021916908373ffffffffffffffffffffffffffffffffffffffff160217905550611392565b600260038111156113205761131f6119f6565b5b601660009054906101000a900460ff166003811115611342576113416119f6565b5b141561139157611350611729565b601460006101000a81548173ffffffffffffffffffffffffffffffffffffffff021916908373ffffffffffffffffffffffffffffffffffffffff1602179055505b5b5b565b6000806113a06118f3565b9050600454816113b09190611f2a565b9050600a6000815481106113c7576113c6611f5b565b5b906000526020600020015481101561141557600d600080815260200190815260200160002060009054906101000a900473ffffffffffffffffffffffffffffffffffffffff1691505061155c565b60006001600a805490506114299190611e6d565b905060005b818111611522576000600282846114459190611e6d565b61144f9190611f8a565b8261145a9190611d19565b9050600a81815481106114705761146f611f5b565b5b90600052602060002001548410156114965760018161148f9190611e6d565b925061151c565b600a81815481106114aa576114a9611f5b565b5b90600052602060002001548411156114d0576001816114c99190611d19565b915061151b565b600d60006001836114e19190611d19565b815260200190815260200160002060009054906101000a900473ffffffffffffffffffffffffffffffffffffffff1694505050505061155c565b5b5061142e565b600d600082815260200190815260200160002060009054906101000a900473ffffffffffffffffffffffffffffffffffffffff1693505050505b90565b60008061156a6118f3565b90506006548161157a9190611f2a565b9050600c60008154811061159157611590611f5b565b5b90600052602060002001548110156115df57600f600080815260200190815260200160002060009054906101000a900473ffffffffffffffffffffffffffffffffffffffff16915050611726565b60006001600c805490506115f39190611e6d565b905060005b8181116116ec5760006002828461160f9190611e6d565b6116199190611f8a565b826116249190611d19565b9050600c818154811061163a57611639611f5b565b5b9060005260206000200154841015611660576001816116599190611e6d565b92506116e6565b600c818154811061167457611673611f5b565b5b906000526020600020015484111561169a576001816116939190611d19565b91506116e5565b600f60006001836116ab9190611d19565b815260200190815260200160002060009054906101000a900473ffffffffffffffffffffffffffffffffffffffff16945050505050611726565b5b506115f8565b600f600082815260200190815260200160002060009054906101000a900473ffffffffffffffffffffffffffffffffffffffff1693505050505b90565b6000806117346118f3565b9050600554816117449190611f2a565b9050600b60008154811061175b5761175a611f5b565b5b90600052602060002001548110156117a957600e600080815260200190815260200160002060009054906101000a900473ffffffffffffffffffffffffffffffffffffffff169150506118f0565b60006001600b805490506117bd9190611e6d565b905060005b8181116118b6576000600282846117d99190611e6d565b6117e39190611f8a565b826117ee9190611d19565b9050600b818154811061180457611803611f5b565b5b906000526020600020015484101561182a576001816118239190611e6d565b92506118b0565b600b818154811061183e5761183d611f5b565b5b90600052602060002001548411156118645760018161185d9190611d19565b91506118af565b600e60006001836118759190611d19565b815260200190815260200160002060009054906101000a900473ffffffffffffffffffffffffffffffffffffffff169450505050506118f0565b5b506117c2565b600e600082815260200190815260200160002060009054906101000a900473ffffffffffffffffffffffffffffffffffffffff1693505050505b90565b60004442600354600154600254604051602001611914959493929190611fdc565b6040516020818303038152906040528051906020012060001c905090565b6000819050919050565b61194581611932565b82525050565b6000602082019050611960600083018461193c565b92915050565b600080fd5b600073ffffffffffffffffffffffffffffffffffffffff82169050919050565b60006119968261196b565b9050919050565b6119a68161198b565b81146119b157600080fd5b50565b6000813590506119c38161199d565b92915050565b6000602082840312156119df576119de611966565b5b60006119ed848285016119b4565b91505092915050565b7f4e487b7100000000000000000000000000000000000000000000000000000000600052602160045260246000fd5b60028110611a3657611a356119f6565b5b50565b6000819050611a4782611a25565b919050565b6000611a5782611a39565b9050919050565b611a6781611a4c565b82525050565b6000602082019050611a826000830184611a5e565b92915050565b611a9181611932565b8114611a9c57600080fd5b50565b600081359050611aae81611a88565b92915050565b60008060408385031215611acb57611aca611966565b5b6000611ad985828601611a9f565b9250506020611aea858286016119b4565b9150509250929050565b600060208284031215611b0a57611b09611966565b5b6000611b1884828501611a9f565b91505092915050565b611b2a8161198b565b82525050565b6000602082019050611b456000830184611b21565b92915050565b600080600060608486031215611b6457611b63611966565b5b6000611b72868287016119b4565b9350506020611b8386828701611a9f565b9250506040611b9486828701611a9f565b9150509250925092565b60048110611baf57611bae6119f6565b5b50565b6000819050611bc082611b9e565b919050565b6000611bd082611bb2565b9050919050565b611be081611bc5565b82525050565b6000602082019050611bfb6000830184611bd7565b92915050565b600082825260208201905092915050565b7f4f776e61626c653a2063616c6c6572206973206e6f7420746865206f776e6572600082015250565b6000611c48602083611c01565b9150611c5382611c12565b602082019050919050565b60006020820190508181036000830152611c7781611c3b565b9050919050565b7f616d6f756e74206d75737420626520706f736974696600000000000000000000600082015250565b6000611cb4601683611c01565b9150611cbf82611c7e565b602082019050919050565b60006020820190508181036000830152611ce381611ca7565b9050919050565b7f4e487b7100000000000000000000000000000000000000000000000000000000600052601160045260246000fd5b6000611d2482611932565b9150611d2f83611932565b9250827fffffffffffffffffffffffffffffffffffffffffffffffffffffffffffffffff03821115611d6457611d63611cea565b5b828201905092915050565b7f4f776e61626c653a206e6577206f776e657220697320746865207a65726f206160008201527f6464726573730000000000000000000000000000000000000000000000000000602082015250565b6000611dcb602683611c01565b9150611dd682611d6f565b604082019050919050565b60006020820190508181036000830152611dfa81611dbe565b9050919050565b7f43616e7420736574746c652074686973206d6174636800000000000000000000600082015250565b6000611e37601683611c01565b9150611e4282611e01565b602082019050919050565b60006020820190508181036000830152611e6681611e2a565b9050919050565b6000611e7882611932565b9150611e8383611932565b925082821015611e9657611e95611cea565b5b828203905092915050565b6000611eac82611932565b9150611eb783611932565b9250817fffffffffffffffffffffffffffffffffffffffffffffffffffffffffffffffff0483118215151615611ef057611eef611cea565b5b828202905092915050565b7f4e487b7100000000000000000000000000000000000000000000000000000000600052601260045260246000fd5b6000611f3582611932565b9150611f4083611932565b925082611f5057611f4f611efb565b5b828206905092915050565b7f4e487b7100000000000000000000000000000000000000000000000000000000600052603260045260246000fd5b6000611f9582611932565b9150611fa083611932565b925082611fb057611faf611efb565b5b828204905092915050565b6000819050919050565b611fd6611fd182611932565b611fbb565b82525050565b6000611fe88288611fc5565b602082019150611ff88287611fc5565b6020820191506120088286611fc5565b6020820191506120188285611fc5565b6020820191506120288284611fc5565b602082019150819050969550505050505056fea26469706673582212204803e8249294b8d674bfaa59c8881b784560e2cac171387397d8a4bc065aae7264736f6c63430008090033a26469706673582212207047ed5dab8c6c8c7282cb1a343464733e22401d91fb8970330ec3a207ff55ba64736f6c63430008090033",
  "linkReferences": {},
  "deployedLinkReferences": {}
}