{
  "_format": "hh-sol-artifact-1",
  "contractName": "LPNFT",
  "sourceName": "contracts/LPNFT.sol",
  "abi": [
    {
      "inputs": [
        {
          "internalType": "string",
          "name": "_name",
          "type": "string"
        },
        {
          "internalType": "string",
          "name": "_symbol",
          "type": "string"
        }
      ],
      "stateMutability": "nonpayable",
      "type": "constructor"
    },
    {
      "anonymous": false,
      "inputs": [
        {
          "indexed": true,
          "internalType": "address",
          "name": "owner",
          "type": "address"
        },
        {
          "indexed": true,
          "internalType": "address",
          "name": "approved",
          "type": "address"
        },
        {
          "indexed": true,
          "internalType": "uint256",
          "name": "tokenId",
          "type": "uint256"
        }
      ],
      "name": "Approval",
      "type": "event"
    },
    {
      "anonymous": false,
      "inputs": [
        {
          "indexed": true,
          "internalType": "address",
          "name": "owner",
          "type": "address"
        },
        {
          "indexed": true,
          "internalType": "address",
          "name": "operator",
          "type": "address"
        },
        {
          "indexed": false,
          "internalType": "bool",
          "name": "approved",
          "type": "bool"
        }
      ],
      "name": "ApprovalForAll",
      "type": "event"
    },
    {
      "anonymous": false,
      "inputs": [
        {
          "indexed": true,
          "internalType": "address",
          "name": "previousOwner",
          "type": "address"
        },
        {
          "indexed": true,
          "internalType": "address",
          "name": "newOwner",
          "type": "address"
        }
      ],
      "name": "OwnershipTransferred",
      "type": "event"
    },
    {
      "anonymous": false,
      "inputs": [
        {
          "indexed": true,
          "internalType": "address",
          "name": "from",
          "type": "address"
        },
        {
          "indexed": true,
          "internalType": "address",
          "name": "to",
          "type": "address"
        },
        {
          "indexed": true,
          "internalType": "uint256",
          "name": "tokenId",
          "type": "uint256"
        }
      ],
      "name": "Transfer",
      "type": "event"
    },
    {
      "inputs": [
        {
          "internalType": "address",
          "name": "to",
          "type": "address"
        },
        {
          "internalType": "uint256",
          "name": "tokenId",
          "type": "uint256"
        }
      ],
      "name": "approve",
      "outputs": [],
      "stateMutability": "nonpayable",
      "type": "function"
    },
    {
      "inputs": [
        {
          "internalType": "address",
          "name": "owner",
          "type": "address"
        }
      ],
      "name": "balanceOf",
      "outputs": [
        {
          "internalType": "uint256",
          "name": "",
          "type": "uint256"
        }
      ],
      "stateMutability": "view",
      "type": "function"
    },
    {
      "inputs": [
        {
          "internalType": "uint256",
          "name": "tokenId",
          "type": "uint256"
        }
      ],
      "name": "getApproved",
      "outputs": [
        {
          "internalType": "address",
          "name": "",
          "type": "address"
        }
      ],
      "stateMutability": "view",
      "type": "function"
    },
    {
      "inputs": [],
      "name": "getNextFreeTokenId",
      "outputs": [
        {
          "internalType": "uint256",
          "name": "",
          "type": "uint256"
        }
      ],
      "stateMutability": "view",
      "type": "function"
    },
    {
      "inputs": [
        {
          "internalType": "address",
          "name": "owner",
          "type": "address"
        },
        {
          "internalType": "address",
          "name": "operator",
          "type": "address"
        }
      ],
      "name": "isApprovedForAll",
      "outputs": [
        {
          "internalType": "bool",
          "name": "",
          "type": "bool"
        }
      ],
      "stateMutability": "view",
      "type": "function"
    },
    {
      "inputs": [
        {
          "internalType": "address",
          "name": "_to",
          "type": "address"
        },
        {
          "internalType": "uint256",
          "name": "_tokenId",
          "type": "uint256"
        },
        {
          "internalType": "string",
          "name": "ipfsLocation",
          "type": "string"
        }
      ],
      "name": "mint",
      "outputs": [],
      "stateMutability": "nonpayable",
      "type": "function"
    },
    {
      "inputs": [],
      "name": "name",
      "outputs": [
        {
          "internalType": "string",
          "name": "",
          "type": "string"
        }
      ],
      "stateMutability": "view",
      "type": "function"
    },
    {
      "inputs": [],
      "name": "owner",
      "outputs": [
        {
          "internalType": "address",
          "name": "",
          "type": "address"
        }
      ],
      "stateMutability": "view",
      "type": "function"
    },
    {
      "inputs": [
        {
          "internalType": "uint256",
          "name": "tokenId",
          "type": "uint256"
        }
      ],
      "name": "ownerOf",
      "outputs": [
        {
          "internalType": "address",
          "name": "",
          "type": "address"
        }
      ],
      "stateMutability": "view",
      "type": "function"
    },
    {
      "inputs": [
        {
          "internalType": "address",
          "name": "from",
          "type": "address"
        },
        {
          "internalType": "uint256",
          "name": "tokenId",
          "type": "uint256"
        }
      ],
      "name": "redeemCollectible",
      "outputs": [],
      "stateMutability": "nonpayable",
      "type": "function"
    },
    {
      "inputs": [],
      "name": "renounceOwnership",
      "outputs": [],
      "stateMutability": "nonpayable",
      "type": "function"
    },
    {
      "inputs": [
        {
          "internalType": "address",
          "name": "from",
          "type": "address"
        },
        {
          "internalType": "address",
          "name": "to",
          "type": "address"
        },
        {
          "internalType": "uint256",
          "name": "tokenId",
          "type": "uint256"
        }
      ],
      "name": "safeTransferFrom",
      "outputs": [],
      "stateMutability": "nonpayable",
      "type": "function"
    },
    {
      "inputs": [
        {
          "internalType": "address",
          "name": "from",
          "type": "address"
        },
        {
          "internalType": "address",
          "name": "to",
          "type": "address"
        },
        {
          "internalType": "uint256",
          "name": "tokenId",
          "type": "uint256"
        },
        {
          "internalType": "bytes",
          "name": "_data",
          "type": "bytes"
        }
      ],
      "name": "safeTransferFrom",
      "outputs": [],
      "stateMutability": "nonpayable",
      "type": "function"
    },
    {
      "inputs": [
        {
          "internalType": "address",
          "name": "operator",
          "type": "address"
        },
        {
          "internalType": "bool",
          "name": "approved",
          "type": "bool"
        }
      ],
      "name": "setApprovalForAll",
      "outputs": [],
      "stateMutability": "nonpayable",
      "type": "function"
    },
    {
      "inputs": [
        {
          "internalType": "bytes4",
          "name": "interfaceId",
          "type": "bytes4"
        }
      ],
      "name": "supportsInterface",
      "outputs": [
        {
          "internalType": "bool",
          "name": "",
          "type": "bool"
        }
      ],
      "stateMutability": "view",
      "type": "function"
    },
    {
      "inputs": [],
      "name": "symbol",
      "outputs": [
        {
          "internalType": "string",
          "name": "",
          "type": "string"
        }
      ],
      "stateMutability": "view",
      "type": "function"
    },
    {
      "inputs": [
        {
          "internalType": "uint256",
          "name": "tokenId",
          "type": "uint256"
        }
      ],
      "name": "tokenURI",
      "outputs": [
        {
          "internalType": "string",
          "name": "",
          "type": "string"
        }
      ],
      "stateMutability": "view",
      "type": "function"
    },
    {
      "inputs": [
        {
          "internalType": "address",
          "name": "from",
          "type": "address"
        },
        {
          "internalType": "address",
          "name": "to",
          "type": "address"
        },
        {
          "internalType": "uint256",
          "name": "tokenId",
          "type": "uint256"
        }
      ],
      "name": "transferFrom",
      "outputs": [],
      "stateMutability": "nonpayable",
      "type": "function"
    },
    {
      "inputs": [
        {
          "internalType": "address",
          "name": "newOwner",
          "type": "address"
        }
      ],
      "name": "transferOwnership",
      "outputs": [],
      "stateMutability": "nonpayable",
      "type": "function"
    }
  ],
  "bytecode": "0x60806040523480156200001157600080fd5b50604051620038f1380380620038f18339818101604052810190620000379190620004d3565b818181600090805190602001906200005192919062000286565b5080600190805190602001906200006a92919062000286565b5050506200008d62000081620000e960201b60201c565b620000f160201b60201c565b620000d96040518060400160405280601181526020017f4465706c6f79696e67204c50204e46543a00000000000000000000000000000081525083620001b760201b62000f4f1760201c565b6001600881905550505062000655565b600033905090565b6000600660009054906101000a900473ffffffffffffffffffffffffffffffffffffffff16905081600660006101000a81548173ffffffffffffffffffffffffffffffffffffffff021916908373ffffffffffffffffffffffffffffffffffffffff1602179055508173ffffffffffffffffffffffffffffffffffffffff168173ffffffffffffffffffffffffffffffffffffffff167f8be0079c531659141344cd1fd0a4f28419497f9722a3daafe3b4186f6b6457e060405160405180910390a35050565b620002598282604051602401620001d0929190620005b5565b6040516020818303038152906040527f4b5c4277000000000000000000000000000000000000000000000000000000007bffffffffffffffffffffffffffffffffffffffffffffffffffffffff19166020820180517bffffffffffffffffffffffffffffffffffffffffffffffffffffffff83818316178352505050506200025d60201b60201c565b5050565b60008151905060006a636f6e736f6c652e6c6f679050602083016000808483855afa5050505050565b82805462000294906200061f565b90600052602060002090601f016020900481019282620002b8576000855562000304565b82601f10620002d357805160ff191683800117855562000304565b8280016001018555821562000304579182015b8281111562000303578251825591602001919060010190620002e6565b5b50905062000313919062000317565b5090565b5b808211156200033257600081600090555060010162000318565b5090565b6000604051905090565b600080fd5b600080fd5b600080fd5b600080fd5b6000601f19601f8301169050919050565b7f4e487b7100000000000000000000000000000000000000000000000000000000600052604160045260246000fd5b6200039f8262000354565b810181811067ffffffffffffffff82111715620003c157620003c062000365565b5b80604052505050565b6000620003d662000336565b9050620003e4828262000394565b919050565b600067ffffffffffffffff82111562000407576200040662000365565b5b620004128262000354565b9050602081019050919050565b60005b838110156200043f57808201518184015260208101905062000422565b838111156200044f576000848401525b50505050565b60006200046c6200046684620003e9565b620003ca565b9050828152602081018484840111156200048b576200048a6200034f565b5b620004988482856200041f565b509392505050565b600082601f830112620004b857620004b76200034a565b5b8151620004ca84826020860162000455565b91505092915050565b60008060408385031215620004ed57620004ec62000340565b5b600083015167ffffffffffffffff8111156200050e576200050d62000345565b5b6200051c85828601620004a0565b925050602083015167ffffffffffffffff81111562000540576200053f62000345565b5b6200054e85828601620004a0565b9150509250929050565b600081519050919050565b600082825260208201905092915050565b6000620005818262000558565b6200058d818562000563565b93506200059f8185602086016200041f565b620005aa8162000354565b840191505092915050565b60006040820190508181036000830152620005d1818562000574565b90508181036020830152620005e7818462000574565b90509392505050565b7f4e487b7100000000000000000000000000000000000000000000000000000000600052602260045260246000fd5b600060028204905060018216806200063857607f821691505b602082108114156200064f576200064e620005f0565b5b50919050565b61328c80620006656000396000f3fe608060405234801561001057600080fd5b50600436106101215760003560e01c80638da5cb5b116100ad578063c87b56dd11610071578063c87b56dd146102f2578063d3fc986414610322578063e2873c001461033e578063e985e9c51461035c578063f2fde38b1461038c57610121565b80638da5cb5b1461026257806395d89b4114610280578063a22cb4651461029e578063ac7aae42146102ba578063b88d4fde146102d657610121565b806323b872dd116100f457806323b872dd146101c057806342842e0e146101dc5780636352211e146101f857806370a0823114610228578063715018a61461025857610121565b806301ffc9a71461012657806306fdde0314610156578063081812fc14610174578063095ea7b3146101a4575b600080fd5b610140600480360381019061013b9190611f5c565b6103a8565b60405161014d9190611fa4565b60405180910390f35b61015e61048a565b60405161016b9190612058565b60405180910390f35b61018e600480360381019061018991906120b0565b61051c565b60405161019b919061211e565b60405180910390f35b6101be60048036038101906101b99190612165565b6105a1565b005b6101da60048036038101906101d591906121a5565b6106b9565b005b6101f660048036038101906101f191906121a5565b610719565b005b610212600480360381019061020d91906120b0565b610739565b60405161021f919061211e565b60405180910390f35b610242600480360381019061023d91906121f8565b6107eb565b60405161024f9190612234565b60405180910390f35b6102606108a3565b005b61026a61092b565b604051610277919061211e565b60405180910390f35b610288610955565b6040516102959190612058565b60405180910390f35b6102b860048036038101906102b3919061227b565b6109e7565b005b6102d460048036038101906102cf9190612165565b6109fd565b005b6102f060048036038101906102eb91906123f0565b610b45565b005b61030c600480360381019061030791906120b0565b610ba7565b6040516103199190612058565b60405180910390f35b61033c600480360381019061033791906124d3565b610c94565b005b610346610db9565b6040516103539190612234565b60405180910390f35b61037660048036038101906103719190612547565b610dc3565b6040516103839190611fa4565b60405180910390f35b6103a660048036038101906103a191906121f8565b610e57565b005b60007f80ac58cd000000000000000000000000000000000000000000000000000000007bffffffffffffffffffffffffffffffffffffffffffffffffffffffff1916827bffffffffffffffffffffffffffffffffffffffffffffffffffffffff1916148061047357507f5b5e139f000000000000000000000000000000000000000000000000000000007bffffffffffffffffffffffffffffffffffffffffffffffffffffffff1916827bffffffffffffffffffffffffffffffffffffffffffffffffffffffff1916145b80610483575061048282610feb565b5b9050919050565b606060008054610499906125b6565b80601f01602080910402602001604051908101604052809291908181526020018280546104c5906125b6565b80156105125780601f106104e757610100808354040283529160200191610512565b820191906000526020600020905b8154815290600101906020018083116104f557829003601f168201915b5050505050905090565b600061052782611055565b610566576040517f08c379a000000000000000000000000000000000000000000000000000000000815260040161055d9061265a565b60405180910390fd5b6004600083815260200190815260200160002060009054906101000a900473ffffffffffffffffffffffffffffffffffffffff169050919050565b60006105ac82610739565b90508073ffffffffffffffffffffffffffffffffffffffff168373ffffffffffffffffffffffffffffffffffffffff16141561061d576040517f08c379a0000000000000000000000000000000000000000000000000000000008152600401610614906126ec565b60405180910390fd5b8073ffffffffffffffffffffffffffffffffffffffff1661063c6110c1565b73ffffffffffffffffffffffffffffffffffffffff16148061066b575061066a816106656110c1565b610dc3565b5b6106aa576040517f08c379a00000000000000000000000000000000000000000000000000000000081526004016106a19061277e565b60405180910390fd5b6106b483836110c9565b505050565b6106ca6106c46110c1565b82611182565b610709576040517f08c379a000000000000000000000000000000000000000000000000000000000815260040161070090612810565b60405180910390fd5b610714838383611260565b505050565b61073483838360405180602001604052806000815250610b45565b505050565b6000806002600084815260200190815260200160002060009054906101000a900473ffffffffffffffffffffffffffffffffffffffff169050600073ffffffffffffffffffffffffffffffffffffffff168173ffffffffffffffffffffffffffffffffffffffff1614156107e2576040517f08c379a00000000000000000000000000000000000000000000000000000000081526004016107d9906128a2565b60405180910390fd5b80915050919050565b60008073ffffffffffffffffffffffffffffffffffffffff168273ffffffffffffffffffffffffffffffffffffffff16141561085c576040517f08c379a000000000000000000000000000000000000000000000000000000000815260040161085390612934565b60405180910390fd5b600360008373ffffffffffffffffffffffffffffffffffffffff1673ffffffffffffffffffffffffffffffffffffffff168152602001908152602001600020549050919050565b6108ab6110c1565b73ffffffffffffffffffffffffffffffffffffffff166108c961092b565b73ffffffffffffffffffffffffffffffffffffffff161461091f576040517f08c379a0000000000000000000000000000000000000000000000000000000008152600401610916906129a0565b60405180910390fd5b61092960006114bc565b565b6000600660009054906101000a900473ffffffffffffffffffffffffffffffffffffffff16905090565b606060018054610964906125b6565b80601f0160208091040260200160405190810160405280929190818152602001828054610990906125b6565b80156109dd5780601f106109b2576101008083540402835291602001916109dd565b820191906000526020600020905b8154815290600101906020018083116109c057829003601f168201915b5050505050905090565b6109f96109f26110c1565b8383611582565b5050565b610a0681611055565b610a45576040517f08c379a0000000000000000000000000000000000000000000000000000000008152600401610a3c90612a0c565b60405180910390fd5b8173ffffffffffffffffffffffffffffffffffffffff16610a6582610739565b73ffffffffffffffffffffffffffffffffffffffff1614610abb576040517f08c379a0000000000000000000000000000000000000000000000000000000008152600401610ab290612a9e565b60405180910390fd5b610afa6040518060400160405280601081526020017f547279696e6720746f206275726e3a2000000000000000000000000000000000815250826116ef565b610b038161178b565b610b416040518060400160405280600e81526020017f4275726e20636f6d706c6574656400000000000000000000000000000000000081525061189c565b5050565b610b56610b506110c1565b83611182565b610b95576040517f08c379a0000000000000000000000000000000000000000000000000000000008152600401610b8c90612810565b60405180910390fd5b610ba184848484611935565b50505050565b6060610bb282611055565b610bf1576040517f08c379a0000000000000000000000000000000000000000000000000000000008152600401610be890612b30565b60405180910390fd5b600760008381526020019081526020016000208054610c0f906125b6565b80601f0160208091040260200160405190810160405280929190818152602001828054610c3b906125b6565b8015610c885780601f10610c5d57610100808354040283529160200191610c88565b820191906000526020600020905b815481529060010190602001808311610c6b57829003601f168201915b50505050509050919050565b610d0a6040518060400160405280601381526020017f547279696e6720746f206d696e7420666f722000000000000000000000000000815250856040518060400160405280600b81526020017f20746f6b656e4964203d2000000000000000000000000000000000000000000081525086611991565b610d148484611a33565b610d526040518060400160405280600e81526020017f4d696e7420636f6d706c6574656400000000000000000000000000000000000081525061189c565b610da08383838080601f016020809104026020016040519081016040528093929190818152602001838380828437600081840152601f19601f82011690508083019250505050505050611c01565b600183610dad9190612b7f565b60088190555050505050565b6000600854905090565b6000600560008473ffffffffffffffffffffffffffffffffffffffff1673ffffffffffffffffffffffffffffffffffffffff16815260200190815260200160002060008373ffffffffffffffffffffffffffffffffffffffff1673ffffffffffffffffffffffffffffffffffffffff16815260200190815260200160002060009054906101000a900460ff16905092915050565b610e5f6110c1565b73ffffffffffffffffffffffffffffffffffffffff16610e7d61092b565b73ffffffffffffffffffffffffffffffffffffffff1614610ed3576040517f08c379a0000000000000000000000000000000000000000000000000000000008152600401610eca906129a0565b60405180910390fd5b600073ffffffffffffffffffffffffffffffffffffffff168173ffffffffffffffffffffffffffffffffffffffff161415610f43576040517f08c379a0000000000000000000000000000000000000000000000000000000008152600401610f3a90612c47565b60405180910390fd5b610f4c816114bc565b50565b610fe78282604051602401610f65929190612c67565b6040516020818303038152906040527f4b5c4277000000000000000000000000000000000000000000000000000000007bffffffffffffffffffffffffffffffffffffffffffffffffffffffff19166020820180517bffffffffffffffffffffffffffffffffffffffffffffffffffffffff8381831617835250505050611c75565b5050565b60007f01ffc9a7000000000000000000000000000000000000000000000000000000007bffffffffffffffffffffffffffffffffffffffffffffffffffffffff1916827bffffffffffffffffffffffffffffffffffffffffffffffffffffffff1916149050919050565b60008073ffffffffffffffffffffffffffffffffffffffff166002600084815260200190815260200160002060009054906101000a900473ffffffffffffffffffffffffffffffffffffffff1673ffffffffffffffffffffffffffffffffffffffff1614159050919050565b600033905090565b816004600083815260200190815260200160002060006101000a81548173ffffffffffffffffffffffffffffffffffffffff021916908373ffffffffffffffffffffffffffffffffffffffff160217905550808273ffffffffffffffffffffffffffffffffffffffff1661113c83610739565b73ffffffffffffffffffffffffffffffffffffffff167f8c5be1e5ebec7d5bd14f71427d1e84f3dd0314c0f7b2291e5b200ac8c7c3b92560405160405180910390a45050565b600061118d82611055565b6111cc576040517f08c379a00000000000000000000000000000000000000000000000000000000081526004016111c390612d10565b60405180910390fd5b60006111d783610739565b90508073ffffffffffffffffffffffffffffffffffffffff168473ffffffffffffffffffffffffffffffffffffffff16148061124657508373ffffffffffffffffffffffffffffffffffffffff1661122e8461051c565b73ffffffffffffffffffffffffffffffffffffffff16145b8061125757506112568185610dc3565b5b91505092915050565b8273ffffffffffffffffffffffffffffffffffffffff1661128082610739565b73ffffffffffffffffffffffffffffffffffffffff16146112d6576040517f08c379a00000000000000000000000000000000000000000000000000000000081526004016112cd90612da2565b60405180910390fd5b600073ffffffffffffffffffffffffffffffffffffffff168273ffffffffffffffffffffffffffffffffffffffff161415611346576040517f08c379a000000000000000000000000000000000000000000000000000000000815260040161133d90612e34565b60405180910390fd5b611351838383611c9e565b61135c6000826110c9565b6001600360008573ffffffffffffffffffffffffffffffffffffffff1673ffffffffffffffffffffffffffffffffffffffff16815260200190815260200160002060008282546113ac9190612e54565b925050819055506001600360008473ffffffffffffffffffffffffffffffffffffffff1673ffffffffffffffffffffffffffffffffffffffff16815260200190815260200160002060008282546114039190612b7f565b92505081905550816002600083815260200190815260200160002060006101000a81548173ffffffffffffffffffffffffffffffffffffffff021916908373ffffffffffffffffffffffffffffffffffffffff160217905550808273ffffffffffffffffffffffffffffffffffffffff168473ffffffffffffffffffffffffffffffffffffffff167fddf252ad1be2c89b69c2b068fc378daa952ba7f163c4a11628f55a4df523b3ef60405160405180910390a4505050565b6000600660009054906101000a900473ffffffffffffffffffffffffffffffffffffffff16905081600660006101000a81548173ffffffffffffffffffffffffffffffffffffffff021916908373ffffffffffffffffffffffffffffffffffffffff1602179055508173ffffffffffffffffffffffffffffffffffffffff168173ffffffffffffffffffffffffffffffffffffffff167f8be0079c531659141344cd1fd0a4f28419497f9722a3daafe3b4186f6b6457e060405160405180910390a35050565b8173ffffffffffffffffffffffffffffffffffffffff168373ffffffffffffffffffffffffffffffffffffffff1614156115f1576040517f08c379a00000000000000000000000000000000000000000000000000000000081526004016115e890612ed4565b60405180910390fd5b80600560008573ffffffffffffffffffffffffffffffffffffffff1673ffffffffffffffffffffffffffffffffffffffff16815260200190815260200160002060008473ffffffffffffffffffffffffffffffffffffffff1673ffffffffffffffffffffffffffffffffffffffff16815260200190815260200160002060006101000a81548160ff0219169083151502179055508173ffffffffffffffffffffffffffffffffffffffff168373ffffffffffffffffffffffffffffffffffffffff167f17307eab39ab6107e8899845ad3d59bd9653f200f220920489ca2b5937696c31836040516116e29190611fa4565b60405180910390a3505050565b6117878282604051602401611705929190612ef4565b6040516020818303038152906040527f9710a9d0000000000000000000000000000000000000000000000000000000007bffffffffffffffffffffffffffffffffffffffffffffffffffffffff19166020820180517bffffffffffffffffffffffffffffffffffffffffffffffffffffffff8381831617835250505050611c75565b5050565b600061179682610739565b90506117a481600084611c9e565b6117af6000836110c9565b6001600360008373ffffffffffffffffffffffffffffffffffffffff1673ffffffffffffffffffffffffffffffffffffffff16815260200190815260200160002060008282546117ff9190612e54565b925050819055506002600083815260200190815260200160002060006101000a81549073ffffffffffffffffffffffffffffffffffffffff021916905581600073ffffffffffffffffffffffffffffffffffffffff168273ffffffffffffffffffffffffffffffffffffffff167fddf252ad1be2c89b69c2b068fc378daa952ba7f163c4a11628f55a4df523b3ef60405160405180910390a45050565b611932816040516024016118b09190612058565b6040516020818303038152906040527f41304fac000000000000000000000000000000000000000000000000000000007bffffffffffffffffffffffffffffffffffffffffffffffffffffffff19166020820180517bffffffffffffffffffffffffffffffffffffffffffffffffffffffff8381831617835250505050611c75565b50565b611940848484611260565b61194c84848484611ca3565b61198b576040517f08c379a000000000000000000000000000000000000000000000000000000000815260040161198290612f96565b60405180910390fd5b50505050565b611a2d848484846040516024016119ab9493929190612fb6565b6040516020818303038152906040527f8f624be9000000000000000000000000000000000000000000000000000000007bffffffffffffffffffffffffffffffffffffffffffffffffffffffff19166020820180517bffffffffffffffffffffffffffffffffffffffffffffffffffffffff8381831617835250505050611c75565b50505050565b600073ffffffffffffffffffffffffffffffffffffffff168273ffffffffffffffffffffffffffffffffffffffff161415611aa3576040517f08c379a0000000000000000000000000000000000000000000000000000000008152600401611a9a90613055565b60405180910390fd5b611aac81611055565b15611aec576040517f08c379a0000000000000000000000000000000000000000000000000000000008152600401611ae3906130c1565b60405180910390fd5b611af860008383611c9e565b6001600360008473ffffffffffffffffffffffffffffffffffffffff1673ffffffffffffffffffffffffffffffffffffffff1681526020019081526020016000206000828254611b489190612b7f565b92505081905550816002600083815260200190815260200160002060006101000a81548173ffffffffffffffffffffffffffffffffffffffff021916908373ffffffffffffffffffffffffffffffffffffffff160217905550808273ffffffffffffffffffffffffffffffffffffffff16600073ffffffffffffffffffffffffffffffffffffffff167fddf252ad1be2c89b69c2b068fc378daa952ba7f163c4a11628f55a4df523b3ef60405160405180910390a45050565b611c0a82611055565b611c49576040517f08c379a0000000000000000000000000000000000000000000000000000000008152600401611c4090613153565b60405180910390fd5b80600760008481526020019081526020016000209080519060200190611c70929190611e4d565b505050565b60008151905060006a636f6e736f6c652e6c6f679050602083016000808483855afa5050505050565b505050565b6000611cc48473ffffffffffffffffffffffffffffffffffffffff16611e3a565b15611e2d578373ffffffffffffffffffffffffffffffffffffffff1663150b7a02611ced6110c1565b8786866040518563ffffffff1660e01b8152600401611d0f94939291906131c8565b602060405180830381600087803b158015611d2957600080fd5b505af1925050508015611d5a57506040513d601f19601f82011682018060405250810190611d579190613229565b60015b611ddd573d8060008114611d8a576040519150601f19603f3d011682016040523d82523d6000602084013e611d8f565b606091505b50600081511415611dd5576040517f08c379a0000000000000000000000000000000000000000000000000000000008152600401611dcc90612f96565b60405180910390fd5b805181602001fd5b63150b7a0260e01b7bffffffffffffffffffffffffffffffffffffffffffffffffffffffff1916817bffffffffffffffffffffffffffffffffffffffffffffffffffffffff191614915050611e32565b600190505b949350505050565b600080823b905060008111915050919050565b828054611e59906125b6565b90600052602060002090601f016020900481019282611e7b5760008555611ec2565b82601f10611e9457805160ff1916838001178555611ec2565b82800160010185558215611ec2579182015b82811115611ec1578251825591602001919060010190611ea6565b5b509050611ecf9190611ed3565b5090565b5b80821115611eec576000816000905550600101611ed4565b5090565b6000604051905090565b600080fd5b600080fd5b60007fffffffff0000000000000000000000000000000000000000000000000000000082169050919050565b611f3981611f04565b8114611f4457600080fd5b50565b600081359050611f5681611f30565b92915050565b600060208284031215611f7257611f71611efa565b5b6000611f8084828501611f47565b91505092915050565b60008115159050919050565b611f9e81611f89565b82525050565b6000602082019050611fb96000830184611f95565b92915050565b600081519050919050565b600082825260208201905092915050565b60005b83811015611ff9578082015181840152602081019050611fde565b83811115612008576000848401525b50505050565b6000601f19601f8301169050919050565b600061202a82611fbf565b6120348185611fca565b9350612044818560208601611fdb565b61204d8161200e565b840191505092915050565b60006020820190508181036000830152612072818461201f565b905092915050565b6000819050919050565b61208d8161207a565b811461209857600080fd5b50565b6000813590506120aa81612084565b92915050565b6000602082840312156120c6576120c5611efa565b5b60006120d48482850161209b565b91505092915050565b600073ffffffffffffffffffffffffffffffffffffffff82169050919050565b6000612108826120dd565b9050919050565b612118816120fd565b82525050565b6000602082019050612133600083018461210f565b92915050565b612142816120fd565b811461214d57600080fd5b50565b60008135905061215f81612139565b92915050565b6000806040838503121561217c5761217b611efa565b5b600061218a85828601612150565b925050602061219b8582860161209b565b9150509250929050565b6000806000606084860312156121be576121bd611efa565b5b60006121cc86828701612150565b93505060206121dd86828701612150565b92505060406121ee8682870161209b565b9150509250925092565b60006020828403121561220e5761220d611efa565b5b600061221c84828501612150565b91505092915050565b61222e8161207a565b82525050565b60006020820190506122496000830184612225565b92915050565b61225881611f89565b811461226357600080fd5b50565b6000813590506122758161224f565b92915050565b6000806040838503121561229257612291611efa565b5b60006122a085828601612150565b92505060206122b185828601612266565b9150509250929050565b600080fd5b600080fd5b7f4e487b7100000000000000000000000000000000000000000000000000000000600052604160045260246000fd5b6122fd8261200e565b810181811067ffffffffffffffff8211171561231c5761231b6122c5565b5b80604052505050565b600061232f611ef0565b905061233b82826122f4565b919050565b600067ffffffffffffffff82111561235b5761235a6122c5565b5b6123648261200e565b9050602081019050919050565b82818337600083830152505050565b600061239361238e84612340565b612325565b9050828152602081018484840111156123af576123ae6122c0565b5b6123ba848285612371565b509392505050565b600082601f8301126123d7576123d66122bb565b5b81356123e7848260208601612380565b91505092915050565b6000806000806080858703121561240a57612409611efa565b5b600061241887828801612150565b945050602061242987828801612150565b935050604061243a8782880161209b565b925050606085013567ffffffffffffffff81111561245b5761245a611eff565b5b612467878288016123c2565b91505092959194509250565b600080fd5b600080fd5b60008083601f840112612493576124926122bb565b5b8235905067ffffffffffffffff8111156124b0576124af612473565b5b6020830191508360018202830111156124cc576124cb612478565b5b9250929050565b600080600080606085870312156124ed576124ec611efa565b5b60006124fb87828801612150565b945050602061250c8782880161209b565b935050604085013567ffffffffffffffff81111561252d5761252c611eff565b5b6125398782880161247d565b925092505092959194509250565b6000806040838503121561255e5761255d611efa565b5b600061256c85828601612150565b925050602061257d85828601612150565b9150509250929050565b7f4e487b7100000000000000000000000000000000000000000000000000000000600052602260045260246000fd5b600060028204905060018216806125ce57607f821691505b602082108114156125e2576125e1612587565b5b50919050565b7f4552433732313a20617070726f76656420717565727920666f72206e6f6e657860008201527f697374656e7420746f6b656e0000000000000000000000000000000000000000602082015250565b6000612644602c83611fca565b915061264f826125e8565b604082019050919050565b6000602082019050818103600083015261267381612637565b9050919050565b7f4552433732313a20617070726f76616c20746f2063757272656e74206f776e6560008201527f7200000000000000000000000000000000000000000000000000000000000000602082015250565b60006126d6602183611fca565b91506126e18261267a565b604082019050919050565b60006020820190508181036000830152612705816126c9565b9050919050565b7f4552433732313a20617070726f76652063616c6c6572206973206e6f74206f7760008201527f6e6572206e6f7220617070726f76656420666f7220616c6c0000000000000000602082015250565b6000612768603883611fca565b91506127738261270c565b604082019050919050565b600060208201905081810360008301526127978161275b565b9050919050565b7f4552433732313a207472616e736665722063616c6c6572206973206e6f74206f60008201527f776e6572206e6f7220617070726f766564000000000000000000000000000000602082015250565b60006127fa603183611fca565b91506128058261279e565b604082019050919050565b60006020820190508181036000830152612829816127ed565b9050919050565b7f4552433732313a206f776e657220717565727920666f72206e6f6e657869737460008201527f656e7420746f6b656e0000000000000000000000000000000000000000000000602082015250565b600061288c602983611fca565b915061289782612830565b604082019050919050565b600060208201905081810360008301526128bb8161287f565b9050919050565b7f4552433732313a2062616c616e636520717565727920666f7220746865207a6560008201527f726f206164647265737300000000000000000000000000000000000000000000602082015250565b600061291e602a83611fca565b9150612929826128c2565b604082019050919050565b6000602082019050818103600083015261294d81612911565b9050919050565b7f4f776e61626c653a2063616c6c6572206973206e6f7420746865206f776e6572600082015250565b600061298a602083611fca565b915061299582612954565b602082019050919050565b600060208201905081810360008301526129b98161297d565b9050919050565b7f4552433732313a20746f6b656e20646f65736e27742065786973740000000000600082015250565b60006129f6601b83611fca565b9150612a01826129c0565b602082019050919050565b60006020820190508181036000830152612a25816129e9565b9050919050565b7f4552433732313a207472616e736665722063616c6c6572206973206e6f74206f60008201527f776e657200000000000000000000000000000000000000000000000000000000602082015250565b6000612a88602483611fca565b9150612a9382612a2c565b604082019050919050565b60006020820190508181036000830152612ab781612a7b565b9050919050565b7f4552433732314d657461646174613a2055524920717565727920666f72206e6f60008201527f6e6578697374656e7420746f6b656e0000000000000000000000000000000000602082015250565b6000612b1a602f83611fca565b9150612b2582612abe565b604082019050919050565b60006020820190508181036000830152612b4981612b0d565b9050919050565b7f4e487b7100000000000000000000000000000000000000000000000000000000600052601160045260246000fd5b6000612b8a8261207a565b9150612b958361207a565b9250827fffffffffffffffffffffffffffffffffffffffffffffffffffffffffffffffff03821115612bca57612bc9612b50565b5b828201905092915050565b7f4f776e61626c653a206e6577206f776e657220697320746865207a65726f206160008201527f6464726573730000000000000000000000000000000000000000000000000000602082015250565b6000612c31602683611fca565b9150612c3c82612bd5565b604082019050919050565b60006020820190508181036000830152612c6081612c24565b9050919050565b60006040820190508181036000830152612c81818561201f565b90508181036020830152612c95818461201f565b90509392505050565b7f4552433732313a206f70657261746f7220717565727920666f72206e6f6e657860008201527f697374656e7420746f6b656e0000000000000000000000000000000000000000602082015250565b6000612cfa602c83611fca565b9150612d0582612c9e565b604082019050919050565b60006020820190508181036000830152612d2981612ced565b9050919050565b7f4552433732313a207472616e73666572206f6620746f6b656e2074686174206960008201527f73206e6f74206f776e0000000000000000000000000000000000000000000000602082015250565b6000612d8c602983611fca565b9150612d9782612d30565b604082019050919050565b60006020820190508181036000830152612dbb81612d7f565b9050919050565b7f4552433732313a207472616e7366657220746f20746865207a65726f2061646460008201527f7265737300000000000000000000000000000000000000000000000000000000602082015250565b6000612e1e602483611fca565b9150612e2982612dc2565b604082019050919050565b60006020820190508181036000830152612e4d81612e11565b9050919050565b6000612e5f8261207a565b9150612e6a8361207a565b925082821015612e7d57612e7c612b50565b5b828203905092915050565b7f4552433732313a20617070726f766520746f2063616c6c657200000000000000600082015250565b6000612ebe601983611fca565b9150612ec982612e88565b602082019050919050565b60006020820190508181036000830152612eed81612eb1565b9050919050565b60006040820190508181036000830152612f0e818561201f565b9050612f1d6020830184612225565b9392505050565b7f4552433732313a207472616e7366657220746f206e6f6e20455243373231526560008201527f63656976657220696d706c656d656e7465720000000000000000000000000000602082015250565b6000612f80603283611fca565b9150612f8b82612f24565b604082019050919050565b60006020820190508181036000830152612faf81612f73565b9050919050565b60006080820190508181036000830152612fd0818761201f565b9050612fdf602083018661210f565b8181036040830152612ff1818561201f565b90506130006060830184612225565b95945050505050565b7f4552433732313a206d696e7420746f20746865207a65726f2061646472657373600082015250565b600061303f602083611fca565b915061304a82613009565b602082019050919050565b6000602082019050818103600083015261306e81613032565b9050919050565b7f4552433732313a20746f6b656e20616c7265616479206d696e74656400000000600082015250565b60006130ab601c83611fca565b91506130b682613075565b602082019050919050565b600060208201905081810360008301526130da8161309e565b9050919050565b7f4552433732314d657461646174613a2055524920736574206f66206e6f6e657860008201527f697374656e7420746f6b656e0000000000000000000000000000000000000000602082015250565b600061313d602c83611fca565b9150613148826130e1565b604082019050919050565b6000602082019050818103600083015261316c81613130565b9050919050565b600081519050919050565b600082825260208201905092915050565b600061319a82613173565b6131a4818561317e565b93506131b4818560208601611fdb565b6131bd8161200e565b840191505092915050565b60006080820190506131dd600083018761210f565b6131ea602083018661210f565b6131f76040830185612225565b8181036060830152613209818461318f565b905095945050505050565b60008151905061322381611f30565b92915050565b60006020828403121561323f5761323e611efa565b5b600061324d84828501613214565b9150509291505056fea26469706673582212209ca1865cb14af52fc9d9c229b3478b9f7462be17d9a187d5aefbe9bd75e257dd64736f6c63430008090033",
  "linkReferences": {},
  "deployedLinkReferences": {}
}