{
  "_format": "hh-sol-artifact-1",
  "contractName": "BenqiLossless",
  "sourceName": "contracts/BenqiLossless.sol",
  "abi": [
    {
      "inputs": [
        {
          "internalType": "uint256",
          "name": "_matchStartTime",
          "type": "uint256"
        },
        {
          "internalType": "uint256",
          "name": "_matchFinishTime",
          "type": "uint256"
        }
      ],
      "stateMutability": "nonpayable",
      "type": "constructor"
    },
    {
      "anonymous": false,
      "inputs": [
        {
          "indexed": true,
          "internalType": "address",
          "name": "previousOwner",
          "type": "address"
        },
        {
          "indexed": true,
          "internalType": "address",
          "name": "newOwner",
          "type": "address"
        }
      ],
      "name": "OwnershipTransferred",
      "type": "event"
    },
    {
      "inputs": [
        {
          "internalType": "uint256",
          "name": "",
          "type": "uint256"
        }
      ],
      "name": "awayBetPlacer",
      "outputs": [
        {
          "internalType": "address",
          "name": "",
          "type": "address"
        }
      ],
      "stateMutability": "view",
      "type": "function"
    },
    {
      "inputs": [],
      "name": "awayBets",
      "outputs": [
        {
          "internalType": "uint256",
          "name": "",
          "type": "uint256"
        }
      ],
      "stateMutability": "view",
      "type": "function"
    },
    {
      "inputs": [
        {
          "internalType": "uint256",
          "name": "",
          "type": "uint256"
        }
      ],
      "name": "awayPointsAfterBet",
      "outputs": [
        {
          "internalType": "uint256",
          "name": "",
          "type": "uint256"
        }
      ],
      "stateMutability": "view",
      "type": "function"
    },
    {
      "inputs": [],
      "name": "awayPointsTrackers",
      "outputs": [
        {
          "internalType": "uint256",
          "name": "",
          "type": "uint256"
        }
      ],
      "stateMutability": "view",
      "type": "function"
    },
    {
      "inputs": [
        {
          "internalType": "uint256",
          "name": "",
          "type": "uint256"
        }
      ],
      "name": "drawBetPlacer",
      "outputs": [
        {
          "internalType": "address",
          "name": "",
          "type": "address"
        }
      ],
      "stateMutability": "view",
      "type": "function"
    },
    {
      "inputs": [],
      "name": "drawBets",
      "outputs": [
        {
          "internalType": "uint256",
          "name": "",
          "type": "uint256"
        }
      ],
      "stateMutability": "view",
      "type": "function"
    },
    {
      "inputs": [
        {
          "internalType": "uint256",
          "name": "",
          "type": "uint256"
        }
      ],
      "name": "drawPointsAfterBet",
      "outputs": [
        {
          "internalType": "uint256",
          "name": "",
          "type": "uint256"
        }
      ],
      "stateMutability": "view",
      "type": "function"
    },
    {
      "inputs": [],
      "name": "drawPointsTrackers",
      "outputs": [
        {
          "internalType": "uint256",
          "name": "",
          "type": "uint256"
        }
      ],
      "stateMutability": "view",
      "type": "function"
    },
    {
      "inputs": [
        {
          "internalType": "uint256",
          "name": "",
          "type": "uint256"
        }
      ],
      "name": "homeBetPlacer",
      "outputs": [
        {
          "internalType": "address",
          "name": "",
          "type": "address"
        }
      ],
      "stateMutability": "view",
      "type": "function"
    },
    {
      "inputs": [],
      "name": "homeBets",
      "outputs": [
        {
          "internalType": "uint256",
          "name": "",
          "type": "uint256"
        }
      ],
      "stateMutability": "view",
      "type": "function"
    },
    {
      "inputs": [
        {
          "internalType": "uint256",
          "name": "",
          "type": "uint256"
        }
      ],
      "name": "homePointsAfterBet",
      "outputs": [
        {
          "internalType": "uint256",
          "name": "",
          "type": "uint256"
        }
      ],
      "stateMutability": "view",
      "type": "function"
    },
    {
      "inputs": [],
      "name": "homePointsTrackers",
      "outputs": [
        {
          "internalType": "uint256",
          "name": "",
          "type": "uint256"
        }
      ],
      "stateMutability": "view",
      "type": "function"
    },
    {
      "inputs": [],
      "name": "matchFinishTime",
      "outputs": [
        {
          "internalType": "uint256",
          "name": "",
          "type": "uint256"
        }
      ],
      "stateMutability": "view",
      "type": "function"
    },
    {
      "inputs": [],
      "name": "matchStartTime",
      "outputs": [
        {
          "internalType": "uint256",
          "name": "",
          "type": "uint256"
        }
      ],
      "stateMutability": "view",
      "type": "function"
    },
    {
      "inputs": [],
      "name": "owner",
      "outputs": [
        {
          "internalType": "address",
          "name": "",
          "type": "address"
        }
      ],
      "stateMutability": "view",
      "type": "function"
    },
    {
      "inputs": [
        {
          "internalType": "address",
          "name": "player",
          "type": "address"
        },
        {
          "internalType": "uint256",
          "name": "amount",
          "type": "uint256"
        },
        {
          "internalType": "uint8",
          "name": "betSide",
          "type": "uint8"
        }
      ],
      "name": "placeBet",
      "outputs": [],
      "stateMutability": "nonpayable",
      "type": "function"
    },
    {
      "inputs": [
        {
          "internalType": "address",
          "name": "",
          "type": "address"
        }
      ],
      "name": "playerAwayPoints",
      "outputs": [
        {
          "internalType": "uint256",
          "name": "",
          "type": "uint256"
        }
      ],
      "stateMutability": "view",
      "type": "function"
    },
    {
      "inputs": [
        {
          "internalType": "address",
          "name": "",
          "type": "address"
        }
      ],
      "name": "playerBalance",
      "outputs": [
        {
          "internalType": "uint256",
          "name": "",
          "type": "uint256"
        }
      ],
      "stateMutability": "view",
      "type": "function"
    },
    {
      "inputs": [
        {
          "internalType": "address",
          "name": "",
          "type": "address"
        }
      ],
      "name": "playerDrawPoints",
      "outputs": [
        {
          "internalType": "uint256",
          "name": "",
          "type": "uint256"
        }
      ],
      "stateMutability": "view",
      "type": "function"
    },
    {
      "inputs": [
        {
          "internalType": "address",
          "name": "",
          "type": "address"
        }
      ],
      "name": "playerHomePoints",
      "outputs": [
        {
          "internalType": "uint256",
          "name": "",
          "type": "uint256"
        }
      ],
      "stateMutability": "view",
      "type": "function"
    },
    {
      "inputs": [],
      "name": "renounceOwnership",
      "outputs": [],
      "stateMutability": "nonpayable",
      "type": "function"
    },
    {
      "inputs": [
        {
          "internalType": "uint256",
          "name": "_winningSide",
          "type": "uint256"
        }
      ],
      "name": "setMatchWinner",
      "outputs": [],
      "stateMutability": "nonpayable",
      "type": "function"
    },
    {
      "inputs": [
        {
          "internalType": "uint256",
          "name": "amount",
          "type": "uint256"
        },
        {
          "internalType": "address",
          "name": "player",
          "type": "address"
        }
      ],
      "name": "sponsor",
      "outputs": [],
      "stateMutability": "nonpayable",
      "type": "function"
    },
    {
      "inputs": [],
      "name": "sponsorDeposit",
      "outputs": [
        {
          "internalType": "uint256",
          "name": "",
          "type": "uint256"
        }
      ],
      "stateMutability": "view",
      "type": "function"
    },
    {
      "inputs": [],
      "name": "status",
      "outputs": [
        {
          "internalType": "enum Lossless.MatchStatus",
          "name": "",
          "type": "uint8"
        }
      ],
      "stateMutability": "view",
      "type": "function"
    },
    {
      "inputs": [],
      "name": "totalDeposits",
      "outputs": [
        {
          "internalType": "uint256",
          "name": "",
          "type": "uint256"
        }
      ],
      "stateMutability": "view",
      "type": "function"
    },
    {
      "inputs": [
        {
          "internalType": "address",
          "name": "newOwner",
          "type": "address"
        }
      ],
      "name": "transferOwnership",
      "outputs": [],
      "stateMutability": "nonpayable",
      "type": "function"
    },
    {
      "inputs": [],
      "name": "winner",
      "outputs": [
        {
          "internalType": "address",
          "name": "",
          "type": "address"
        }
      ],
      "stateMutability": "view",
      "type": "function"
    },
    {
      "inputs": [],
      "name": "winningSide",
      "outputs": [
        {
          "internalType": "enum BenqiLossless.BetSide",
          "name": "",
          "type": "uint8"
        }
      ],
      "stateMutability": "view",
      "type": "function"
    }
  ],
  "bytecode": "0x60806040523480156200001157600080fd5b506040516200238038038062002380833981810160405281019062000037919062000247565b8181620000596200004d6200013b60201b60201c565b6200014360201b60201c565b60008060146101000a81548160ff021916908360018111156200008157620000806200028e565b5b02179055508160018190555080600281905550505060008060146101000a81548160ff02191690836001811115620000be57620000bd6200028e565b5b02179055506000601660006101000a81548160ff02191690836003811115620000ec57620000eb6200028e565b5b02179055506000601460006101000a81548173ffffffffffffffffffffffffffffffffffffffff021916908373ffffffffffffffffffffffffffffffffffffffff1602179055505050620002bd565b600033905090565b60008060009054906101000a900473ffffffffffffffffffffffffffffffffffffffff169050816000806101000a81548173ffffffffffffffffffffffffffffffffffffffff021916908373ffffffffffffffffffffffffffffffffffffffff1602179055508173ffffffffffffffffffffffffffffffffffffffff168173ffffffffffffffffffffffffffffffffffffffff167f8be0079c531659141344cd1fd0a4f28419497f9722a3daafe3b4186f6b6457e060405160405180910390a35050565b600080fd5b6000819050919050565b62000221816200020c565b81146200022d57600080fd5b50565b600081519050620002418162000216565b92915050565b6000806040838503121562000261576200026062000207565b5b6000620002718582860162000230565b9250506020620002848582860162000230565b9150509250929050565b7f4e487b7100000000000000000000000000000000000000000000000000000000600052602160045260246000fd5b6120b380620002cd6000396000f3fe608060405234801561001057600080fd5b50600436106101cf5760003560e01c8063aa236df411610104578063c9ca03cd116100a2578063e8eaca7511610071578063e8eaca751461055e578063f2fde38b1461057c578063f8fd067f14610598578063fbf06338146105b4576101cf565b8063c9ca03cd146104d4578063d9d52160146104f2578063dfbf53ae14610522578063e11f3f7714610540576101cf565b8063b810fe8d116100de578063b810fe8d14610438578063c003aef314610468578063c69de22414610486578063c7b8cad5146104a4576101cf565b8063aa236df4146103a8578063ad9ed66e146103d8578063b3db3ced14610408576101cf565b8063715018a6116101715780637d8820971161014b5780637d882097146103205780638da5cb5b1461033e5780638f8f1b7c1461035c57806391c54ca414610378576101cf565b8063715018a6146102c8578063788e26e7146102d257806379db8a13146102f0576101cf565b80633255d451116101ad5780633255d4511461024057806336201e531461025e5780634e33f83b1461027c57806363ceb60d146102ac576101cf565b80630873d9ec146101d457806309126f08146101f2578063200d2ed214610222575b600080fd5b6101dc6105d2565b6040516101e99190611954565b60405180910390f35b61020c600480360381019061020791906119d2565b6105d8565b6040516102199190611954565b60405180910390f35b61022a6105f0565b6040516102379190611a76565b60405180910390f35b610248610603565b6040516102559190611954565b60405180910390f35b610266610609565b6040516102739190611954565b60405180910390f35b610296600480360381019061029191906119d2565b61060f565b6040516102a39190611954565b60405180910390f35b6102c660048036038101906102c19190611abd565b610627565b005b6102d0610772565b005b6102da6107fa565b6040516102e79190611954565b60405180910390f35b61030a60048036038101906103059190611afd565b610800565b6040516103179190611954565b60405180910390f35b610328610824565b6040516103359190611954565b60405180910390f35b61034661082a565b6040516103539190611b39565b60405180910390f35b61037660048036038101906103719190611b8d565b610853565b005b610392600480360381019061038d9190611afd565b6109d5565b60405161039f9190611b39565b60405180910390f35b6103c260048036038101906103bd9190611afd565b610a08565b6040516103cf9190611b39565b60405180910390f35b6103f260048036038101906103ed9190611afd565b610a3b565b6040516103ff9190611954565b60405180910390f35b610422600480360381019061041d9190611afd565b610a5f565b60405161042f9190611954565b60405180910390f35b610452600480360381019061044d91906119d2565b610a83565b60405161045f9190611954565b60405180910390f35b610470610a9b565b60405161047d9190611954565b60405180910390f35b61048e610aa1565b60405161049b9190611954565b60405180910390f35b6104be60048036038101906104b991906119d2565b610aa7565b6040516104cb9190611954565b60405180910390f35b6104dc610abf565b6040516104e99190611954565b60405180910390f35b61050c60048036038101906105079190611afd565b610ac5565b6040516105199190611b39565b60405180910390f35b61052a610af8565b6040516105379190611b39565b60405180910390f35b610548610b1e565b6040516105559190611954565b60405180910390f35b610566610b24565b6040516105739190611954565b60405180910390f35b610596600480360381019061059191906119d2565b610b2a565b005b6105b260048036038101906105ad9190611afd565b610c22565b005b6105bc610d95565b6040516105c99190611c28565b60405180910390f35b60085481565b60116020528060005260406000206000915090505481565b600060149054906101000a900460ff1681565b60025481565b60045481565b60106020528060005260406000206000915090505481565b61062f610da8565b73ffffffffffffffffffffffffffffffffffffffff1661064d61082a565b73ffffffffffffffffffffffffffffffffffffffff16146106a3576040517f08c379a000000000000000000000000000000000000000000000000000000000815260040161069a90611ca0565b60405180910390fd5b600082116106e6576040517f08c379a00000000000000000000000000000000000000000000000000000000081526004016106dd90611d0c565b60405180910390fd5b81600360008282546106f89190611d5b565b9250508190555081601560008282546107119190611d5b565b9250508190555081601060008373ffffffffffffffffffffffffffffffffffffffff1673ffffffffffffffffffffffffffffffffffffffff16815260200190815260200160002060008282546107679190611d5b565b925050819055505050565b61077a610da8565b73ffffffffffffffffffffffffffffffffffffffff1661079861082a565b73ffffffffffffffffffffffffffffffffffffffff16146107ee576040517f08c379a00000000000000000000000000000000000000000000000000000000081526004016107e590611ca0565b60405180910390fd5b6107f86000610db0565b565b60155481565b600b818154811061081057600080fd5b906000526020600020016000915090505481565b60035481565b60008060009054906101000a900473ffffffffffffffffffffffffffffffffffffffff16905090565b61085b610da8565b73ffffffffffffffffffffffffffffffffffffffff1661087961082a565b73ffffffffffffffffffffffffffffffffffffffff16146108cf576040517f08c379a00000000000000000000000000000000000000000000000000000000081526004016108c690611ca0565b60405180910390fd5b60008211610912576040517f08c379a000000000000000000000000000000000000000000000000000000000815260040161090990611d0c565b60405180910390fd5b60018160ff16141561092d576109288383610e74565b610961565b60038160ff161415610948576109438383610fa4565b610960565b60028160ff16141561095f5761095e83836110d4565b5b5b5b81600360008282546109739190611d5b565b9250508190555081601060008573ffffffffffffffffffffffffffffffffffffffff1673ffffffffffffffffffffffffffffffffffffffff16815260200190815260200160002060008282546109c99190611d5b565b92505081905550505050565b600f6020528060005260406000206000915054906101000a900473ffffffffffffffffffffffffffffffffffffffff1681565b600e6020528060005260406000206000915054906101000a900473ffffffffffffffffffffffffffffffffffffffff1681565b600a8181548110610a4b57600080fd5b906000526020600020016000915090505481565b600c8181548110610a6f57600080fd5b906000526020600020016000915090505481565b60136020528060005260406000206000915090505481565b60065481565b60095481565b60126020528060005260406000206000915090505481565b60015481565b600d6020528060005260406000206000915054906101000a900473ffffffffffffffffffffffffffffffffffffffff1681565b601460009054906101000a900473ffffffffffffffffffffffffffffffffffffffff1681565b60055481565b60075481565b610b32610da8565b73ffffffffffffffffffffffffffffffffffffffff16610b5061082a565b73ffffffffffffffffffffffffffffffffffffffff1614610ba6576040517f08c379a0000000000000000000000000000000000000000000000000000000008152600401610b9d90611ca0565b60405180910390fd5b600073ffffffffffffffffffffffffffffffffffffffff168173ffffffffffffffffffffffffffffffffffffffff161415610c16576040517f08c379a0000000000000000000000000000000000000000000000000000000008152600401610c0d90611e23565b60405180910390fd5b610c1f81610db0565b50565b610c2a610da8565b73ffffffffffffffffffffffffffffffffffffffff16610c4861082a565b73ffffffffffffffffffffffffffffffffffffffff1614610c9e576040517f08c379a0000000000000000000000000000000000000000000000000000000008152600401610c9590611ca0565b60405180910390fd5b60006001811115610cb257610cb16119ff565b5b600060149054906101000a900460ff166001811115610cd457610cd36119ff565b5b14610d14576040517f08c379a0000000000000000000000000000000000000000000000000000000008152600401610d0b90611e8f565b60405180910390fd5b6001600060146101000a81548160ff02191690836001811115610d3a57610d396119ff565b5b021790555060018114610d5e5760028114610d56576003610d59565b60025b610d61565b60015b601660006101000a81548160ff02191690836003811115610d8557610d846119ff565b5b0217905550610d92611204565b50565b601660009054906101000a900460ff1681565b600033905090565b60008060009054906101000a900473ffffffffffffffffffffffffffffffffffffffff169050816000806101000a81548173ffffffffffffffffffffffffffffffffffffffff021916908373ffffffffffffffffffffffffffffffffffffffff1602179055508173ffffffffffffffffffffffffffffffffffffffff168173ffffffffffffffffffffffffffffffffffffffff167f8be0079c531659141344cd1fd0a4f28419497f9722a3daafe3b4186f6b6457e060405160405180910390a35050565b6000429050600081600154610e899190611eaf565b83610e949190611ee3565b905080601160008673ffffffffffffffffffffffffffffffffffffffff1673ffffffffffffffffffffffffffffffffffffffff1681526020019081526020016000206000828254610ee59190611d5b565b925050819055508060046000828254610efe9190611d5b565b92505081905550600a600454908060018154018082558091505060019003906000526020600020016000909190919091505583600d6000600754815260200190815260200160002060006101000a81548173ffffffffffffffffffffffffffffffffffffffff021916908373ffffffffffffffffffffffffffffffffffffffff160217905550600160076000828254610f979190611d5b565b9250508190555050505050565b6000429050600081600154610fb99190611eaf565b83610fc49190611ee3565b905080601360008673ffffffffffffffffffffffffffffffffffffffff1673ffffffffffffffffffffffffffffffffffffffff16815260200190815260200160002060008282546110159190611d5b565b92505081905550806006600082825461102e9190611d5b565b92505081905550600c600654908060018154018082558091505060019003906000526020600020016000909190919091505583600f6000600954815260200190815260200160002060006101000a81548173ffffffffffffffffffffffffffffffffffffffff021916908373ffffffffffffffffffffffffffffffffffffffff1602179055506001600960008282546110c79190611d5b565b9250508190555050505050565b60004290506000816001546110e99190611eaf565b836110f49190611ee3565b905080601260008673ffffffffffffffffffffffffffffffffffffffff1673ffffffffffffffffffffffffffffffffffffffff16815260200190815260200160002060008282546111459190611d5b565b92505081905550806005600082825461115e9190611d5b565b92505081905550600b600554908060018154018082558091505060019003906000526020600020016000909190919091505583600e6000600754815260200190815260200160002060006101000a81548173ffffffffffffffffffffffffffffffffffffffff021916908373ffffffffffffffffffffffffffffffffffffffff1602179055506001600860008282546111f79190611d5b565b9250508190555050505050565b60016003811115611218576112176119ff565b5b601660009054906101000a900460ff16600381111561123a576112396119ff565b5b141561128d5761124861139e565b601460006101000a81548173ffffffffffffffffffffffffffffffffffffffff021916908373ffffffffffffffffffffffffffffffffffffffff16021790555061139c565b6003808111156112a05761129f6119ff565b5b601660009054906101000a900460ff1660038111156112c2576112c16119ff565b5b1415611315576112d0611568565b601460006101000a81548173ffffffffffffffffffffffffffffffffffffffff021916908373ffffffffffffffffffffffffffffffffffffffff16021790555061139b565b60026003811115611329576113286119ff565b5b601660009054906101000a900460ff16600381111561134b5761134a6119ff565b5b141561139a57611359611732565b601460006101000a81548173ffffffffffffffffffffffffffffffffffffffff021916908373ffffffffffffffffffffffffffffffffffffffff1602179055505b5b5b565b6000806113a96118fc565b9050600454816113b99190611f6c565b9050600a6000815481106113d0576113cf611f9d565b5b906000526020600020015481101561141e57600d600080815260200190815260200160002060009054906101000a900473ffffffffffffffffffffffffffffffffffffffff16915050611565565b60006001600a805490506114329190611eaf565b905060005b81811161152b5760006002828461144e9190611eaf565b6114589190611fcc565b826114639190611d5b565b9050600a818154811061147957611478611f9d565b5b906000526020600020015484101561149f576001816114989190611eaf565b9250611525565b600a81815481106114b3576114b2611f9d565b5b90600052602060002001548411156114d9576001816114d29190611d5b565b9150611524565b600d60006001836114ea9190611d5b565b815260200190815260200160002060009054906101000a900473ffffffffffffffffffffffffffffffffffffffff16945050505050611565565b5b50611437565b600d600082815260200190815260200160002060009054906101000a900473ffffffffffffffffffffffffffffffffffffffff1693505050505b90565b6000806115736118fc565b9050600654816115839190611f6c565b9050600c60008154811061159a57611599611f9d565b5b90600052602060002001548110156115e857600f600080815260200190815260200160002060009054906101000a900473ffffffffffffffffffffffffffffffffffffffff1691505061172f565b60006001600c805490506115fc9190611eaf565b905060005b8181116116f5576000600282846116189190611eaf565b6116229190611fcc565b8261162d9190611d5b565b9050600c818154811061164357611642611f9d565b5b9060005260206000200154841015611669576001816116629190611eaf565b92506116ef565b600c818154811061167d5761167c611f9d565b5b90600052602060002001548411156116a35760018161169c9190611d5b565b91506116ee565b600f60006001836116b49190611d5b565b815260200190815260200160002060009054906101000a900473ffffffffffffffffffffffffffffffffffffffff1694505050505061172f565b5b50611601565b600f600082815260200190815260200160002060009054906101000a900473ffffffffffffffffffffffffffffffffffffffff1693505050505b90565b60008061173d6118fc565b90506005548161174d9190611f6c565b9050600b60008154811061176457611763611f9d565b5b90600052602060002001548110156117b257600e600080815260200190815260200160002060009054906101000a900473ffffffffffffffffffffffffffffffffffffffff169150506118f9565b60006001600b805490506117c69190611eaf565b905060005b8181116118bf576000600282846117e29190611eaf565b6117ec9190611fcc565b826117f79190611d5b565b9050600b818154811061180d5761180c611f9d565b5b90600052602060002001548410156118335760018161182c9190611eaf565b92506118b9565b600b818154811061184757611846611f9d565b5b906000526020600020015484111561186d576001816118669190611d5b565b91506118b8565b600e600060018361187e9190611d5b565b815260200190815260200160002060009054906101000a900473ffffffffffffffffffffffffffffffffffffffff169450505050506118f9565b5b506117cb565b600e600082815260200190815260200160002060009054906101000a900473ffffffffffffffffffffffffffffffffffffffff1693505050505b90565b6000444260035460015460025460405160200161191d95949392919061201e565b6040516020818303038152906040528051906020012060001c905090565b6000819050919050565b61194e8161193b565b82525050565b60006020820190506119696000830184611945565b92915050565b600080fd5b600073ffffffffffffffffffffffffffffffffffffffff82169050919050565b600061199f82611974565b9050919050565b6119af81611994565b81146119ba57600080fd5b50565b6000813590506119cc816119a6565b92915050565b6000602082840312156119e8576119e761196f565b5b60006119f6848285016119bd565b91505092915050565b7f4e487b7100000000000000000000000000000000000000000000000000000000600052602160045260246000fd5b60028110611a3f57611a3e6119ff565b5b50565b6000819050611a5082611a2e565b919050565b6000611a6082611a42565b9050919050565b611a7081611a55565b82525050565b6000602082019050611a8b6000830184611a67565b92915050565b611a9a8161193b565b8114611aa557600080fd5b50565b600081359050611ab781611a91565b92915050565b60008060408385031215611ad457611ad361196f565b5b6000611ae285828601611aa8565b9250506020611af3858286016119bd565b9150509250929050565b600060208284031215611b1357611b1261196f565b5b6000611b2184828501611aa8565b91505092915050565b611b3381611994565b82525050565b6000602082019050611b4e6000830184611b2a565b92915050565b600060ff82169050919050565b611b6a81611b54565b8114611b7557600080fd5b50565b600081359050611b8781611b61565b92915050565b600080600060608486031215611ba657611ba561196f565b5b6000611bb4868287016119bd565b9350506020611bc586828701611aa8565b9250506040611bd686828701611b78565b9150509250925092565b60048110611bf157611bf06119ff565b5b50565b6000819050611c0282611be0565b919050565b6000611c1282611bf4565b9050919050565b611c2281611c07565b82525050565b6000602082019050611c3d6000830184611c19565b92915050565b600082825260208201905092915050565b7f4f776e61626c653a2063616c6c6572206973206e6f7420746865206f776e6572600082015250565b6000611c8a602083611c43565b9150611c9582611c54565b602082019050919050565b60006020820190508181036000830152611cb981611c7d565b9050919050565b7f616d6f756e74206d75737420626520706f736974696600000000000000000000600082015250565b6000611cf6601683611c43565b9150611d0182611cc0565b602082019050919050565b60006020820190508181036000830152611d2581611ce9565b9050919050565b7f4e487b7100000000000000000000000000000000000000000000000000000000600052601160045260246000fd5b6000611d668261193b565b9150611d718361193b565b9250827fffffffffffffffffffffffffffffffffffffffffffffffffffffffffffffffff03821115611da657611da5611d2c565b5b828201905092915050565b7f4f776e61626c653a206e6577206f776e657220697320746865207a65726f206160008201527f6464726573730000000000000000000000000000000000000000000000000000602082015250565b6000611e0d602683611c43565b9150611e1882611db1565b604082019050919050565b60006020820190508181036000830152611e3c81611e00565b9050919050565b7f43616e7420736574746c652074686973206d6174636800000000000000000000600082015250565b6000611e79601683611c43565b9150611e8482611e43565b602082019050919050565b60006020820190508181036000830152611ea881611e6c565b9050919050565b6000611eba8261193b565b9150611ec58361193b565b925082821015611ed857611ed7611d2c565b5b828203905092915050565b6000611eee8261193b565b9150611ef98361193b565b9250817fffffffffffffffffffffffffffffffffffffffffffffffffffffffffffffffff0483118215151615611f3257611f31611d2c565b5b828202905092915050565b7f4e487b7100000000000000000000000000000000000000000000000000000000600052601260045260246000fd5b6000611f778261193b565b9150611f828361193b565b925082611f9257611f91611f3d565b5b828206905092915050565b7f4e487b7100000000000000000000000000000000000000000000000000000000600052603260045260246000fd5b6000611fd78261193b565b9150611fe28361193b565b925082611ff257611ff1611f3d565b5b828204905092915050565b6000819050919050565b6120186120138261193b565b611ffd565b82525050565b600061202a8288612007565b60208201915061203a8287612007565b60208201915061204a8286612007565b60208201915061205a8285612007565b60208201915061206a8284612007565b602082019150819050969550505050505056fea2646970667358221220c020542e66a1e938f22a0149a1d4cc883cbdc85fefdf5103a5ebf4e577c29e1164736f6c63430008090033",
  "linkReferences": {},
  "deployedLinkReferences": {}
}