{
  "_format": "hh-sol-artifact-1",
  "contractName": "BenqiLossless",
  "sourceName": "contracts/BenqiLossless.sol",
  "abi": [
    {
      "inputs": [
        {
          "internalType": "uint256",
          "name": "_matchStartTime",
          "type": "uint256"
        },
        {
          "internalType": "uint256",
          "name": "_matchFinishTime",
          "type": "uint256"
        }
      ],
      "stateMutability": "nonpayable",
      "type": "constructor"
    },
    {
      "anonymous": false,
      "inputs": [
        {
          "indexed": true,
          "internalType": "address",
          "name": "previousOwner",
          "type": "address"
        },
        {
          "indexed": true,
          "internalType": "address",
          "name": "newOwner",
          "type": "address"
        }
      ],
      "name": "OwnershipTransferred",
      "type": "event"
    },
    {
      "inputs": [
        {
          "internalType": "uint256",
          "name": "",
          "type": "uint256"
        }
      ],
      "name": "awayBetPlacer",
      "outputs": [
        {
          "internalType": "address",
          "name": "",
          "type": "address"
        }
      ],
      "stateMutability": "view",
      "type": "function"
    },
    {
      "inputs": [],
      "name": "awayBets",
      "outputs": [
        {
          "internalType": "uint256",
          "name": "",
          "type": "uint256"
        }
      ],
      "stateMutability": "view",
      "type": "function"
    },
    {
      "inputs": [
        {
          "internalType": "uint256",
          "name": "",
          "type": "uint256"
        }
      ],
      "name": "awayPointsAfterBet",
      "outputs": [
        {
          "internalType": "uint256",
          "name": "",
          "type": "uint256"
        }
      ],
      "stateMutability": "view",
      "type": "function"
    },
    {
      "inputs": [],
      "name": "awayPointsTrackers",
      "outputs": [
        {
          "internalType": "uint256",
          "name": "",
          "type": "uint256"
        }
      ],
      "stateMutability": "view",
      "type": "function"
    },
    {
      "inputs": [
        {
          "internalType": "uint256",
          "name": "",
          "type": "uint256"
        }
      ],
      "name": "drawBetPlacer",
      "outputs": [
        {
          "internalType": "address",
          "name": "",
          "type": "address"
        }
      ],
      "stateMutability": "view",
      "type": "function"
    },
    {
      "inputs": [],
      "name": "drawBets",
      "outputs": [
        {
          "internalType": "uint256",
          "name": "",
          "type": "uint256"
        }
      ],
      "stateMutability": "view",
      "type": "function"
    },
    {
      "inputs": [
        {
          "internalType": "uint256",
          "name": "",
          "type": "uint256"
        }
      ],
      "name": "drawPointsAfterBet",
      "outputs": [
        {
          "internalType": "uint256",
          "name": "",
          "type": "uint256"
        }
      ],
      "stateMutability": "view",
      "type": "function"
    },
    {
      "inputs": [],
      "name": "drawPointsTrackers",
      "outputs": [
        {
          "internalType": "uint256",
          "name": "",
          "type": "uint256"
        }
      ],
      "stateMutability": "view",
      "type": "function"
    },
    {
      "inputs": [
        {
          "internalType": "uint256",
          "name": "",
          "type": "uint256"
        }
      ],
      "name": "homeBetPlacer",
      "outputs": [
        {
          "internalType": "address",
          "name": "",
          "type": "address"
        }
      ],
      "stateMutability": "view",
      "type": "function"
    },
    {
      "inputs": [],
      "name": "homeBets",
      "outputs": [
        {
          "internalType": "uint256",
          "name": "",
          "type": "uint256"
        }
      ],
      "stateMutability": "view",
      "type": "function"
    },
    {
      "inputs": [
        {
          "internalType": "uint256",
          "name": "",
          "type": "uint256"
        }
      ],
      "name": "homePointsAfterBet",
      "outputs": [
        {
          "internalType": "uint256",
          "name": "",
          "type": "uint256"
        }
      ],
      "stateMutability": "view",
      "type": "function"
    },
    {
      "inputs": [],
      "name": "homePointsTrackers",
      "outputs": [
        {
          "internalType": "uint256",
          "name": "",
          "type": "uint256"
        }
      ],
      "stateMutability": "view",
      "type": "function"
    },
    {
      "inputs": [],
      "name": "matchFinishTime",
      "outputs": [
        {
          "internalType": "uint256",
          "name": "",
          "type": "uint256"
        }
      ],
      "stateMutability": "view",
      "type": "function"
    },
    {
      "inputs": [],
      "name": "matchStartTime",
      "outputs": [
        {
          "internalType": "uint256",
          "name": "",
          "type": "uint256"
        }
      ],
      "stateMutability": "view",
      "type": "function"
    },
    {
      "inputs": [],
      "name": "owner",
      "outputs": [
        {
          "internalType": "address",
          "name": "",
          "type": "address"
        }
      ],
      "stateMutability": "view",
      "type": "function"
    },
    {
      "inputs": [
        {
          "internalType": "address",
          "name": "player",
          "type": "address"
        },
        {
          "internalType": "uint256",
          "name": "amount",
          "type": "uint256"
        },
        {
          "internalType": "uint256",
          "name": "betSide",
          "type": "uint256"
        }
      ],
      "name": "placeBet",
      "outputs": [],
      "stateMutability": "nonpayable",
      "type": "function"
    },
    {
      "inputs": [
        {
          "internalType": "address",
          "name": "",
          "type": "address"
        }
      ],
      "name": "playerAwayPoints",
      "outputs": [
        {
          "internalType": "uint256",
          "name": "",
          "type": "uint256"
        }
      ],
      "stateMutability": "view",
      "type": "function"
    },
    {
      "inputs": [
        {
          "internalType": "address",
          "name": "",
          "type": "address"
        }
      ],
      "name": "playerBalance",
      "outputs": [
        {
          "internalType": "uint256",
          "name": "",
          "type": "uint256"
        }
      ],
      "stateMutability": "view",
      "type": "function"
    },
    {
      "inputs": [
        {
          "internalType": "address",
          "name": "",
          "type": "address"
        }
      ],
      "name": "playerDrawPoints",
      "outputs": [
        {
          "internalType": "uint256",
          "name": "",
          "type": "uint256"
        }
      ],
      "stateMutability": "view",
      "type": "function"
    },
    {
      "inputs": [
        {
          "internalType": "address",
          "name": "",
          "type": "address"
        }
      ],
      "name": "playerHomePoints",
      "outputs": [
        {
          "internalType": "uint256",
          "name": "",
          "type": "uint256"
        }
      ],
      "stateMutability": "view",
      "type": "function"
    },
    {
      "inputs": [],
      "name": "renounceOwnership",
      "outputs": [],
      "stateMutability": "nonpayable",
      "type": "function"
    },
    {
      "inputs": [
        {
          "internalType": "uint256",
          "name": "_winningSide",
          "type": "uint256"
        }
      ],
      "name": "setMatchWinner",
      "outputs": [],
      "stateMutability": "nonpayable",
      "type": "function"
    },
    {
      "inputs": [
        {
          "internalType": "uint256",
          "name": "amount",
          "type": "uint256"
        },
        {
          "internalType": "address",
          "name": "player",
          "type": "address"
        }
      ],
      "name": "sponsor",
      "outputs": [],
      "stateMutability": "nonpayable",
      "type": "function"
    },
    {
      "inputs": [],
      "name": "sponsorDeposit",
      "outputs": [
        {
          "internalType": "uint256",
          "name": "",
          "type": "uint256"
        }
      ],
      "stateMutability": "view",
      "type": "function"
    },
    {
      "inputs": [],
      "name": "status",
      "outputs": [
        {
          "internalType": "enum Lossless.MatchStatus",
          "name": "",
          "type": "uint8"
        }
      ],
      "stateMutability": "view",
      "type": "function"
    },
    {
      "inputs": [],
      "name": "totalDeposits",
      "outputs": [
        {
          "internalType": "uint256",
          "name": "",
          "type": "uint256"
        }
      ],
      "stateMutability": "view",
      "type": "function"
    },
    {
      "inputs": [
        {
          "internalType": "address",
          "name": "newOwner",
          "type": "address"
        }
      ],
      "name": "transferOwnership",
      "outputs": [],
      "stateMutability": "nonpayable",
      "type": "function"
    },
    {
      "inputs": [],
      "name": "winner",
      "outputs": [
        {
          "internalType": "address",
          "name": "",
          "type": "address"
        }
      ],
      "stateMutability": "view",
      "type": "function"
    },
    {
      "inputs": [],
      "name": "winningSide",
      "outputs": [
        {
          "internalType": "enum BenqiLossless.BetSide",
          "name": "",
          "type": "uint8"
        }
      ],
      "stateMutability": "view",
      "type": "function"
    }
  ],
  "bytecode": "0x60806040523480156200001157600080fd5b506040516200233e3803806200233e833981810160405281019062000037919062000247565b8181620000596200004d6200013b60201b60201c565b6200014360201b60201c565b60008060146101000a81548160ff021916908360018111156200008157620000806200028e565b5b02179055508160018190555080600281905550505060008060146101000a81548160ff02191690836001811115620000be57620000bd6200028e565b5b02179055506000601660006101000a81548160ff02191690836003811115620000ec57620000eb6200028e565b5b02179055506000601460006101000a81548173ffffffffffffffffffffffffffffffffffffffff021916908373ffffffffffffffffffffffffffffffffffffffff1602179055505050620002bd565b600033905090565b60008060009054906101000a900473ffffffffffffffffffffffffffffffffffffffff169050816000806101000a81548173ffffffffffffffffffffffffffffffffffffffff021916908373ffffffffffffffffffffffffffffffffffffffff1602179055508173ffffffffffffffffffffffffffffffffffffffff168173ffffffffffffffffffffffffffffffffffffffff167f8be0079c531659141344cd1fd0a4f28419497f9722a3daafe3b4186f6b6457e060405160405180910390a35050565b600080fd5b6000819050919050565b62000221816200020c565b81146200022d57600080fd5b50565b600081519050620002418162000216565b92915050565b6000806040838503121562000261576200026062000207565b5b6000620002718582860162000230565b9250506020620002848582860162000230565b9150509250929050565b7f4e487b7100000000000000000000000000000000000000000000000000000000600052602160045260246000fd5b61207180620002cd6000396000f3fe608060405234801561001057600080fd5b50600436106101cf5760003560e01c8063ad9ed66e11610104578063d9d52160116100a2578063f231a4f611610071578063f231a4f614610560578063f2fde38b1461057c578063f8fd067f14610598578063fbf06338146105b4576101cf565b8063d9d52160146104d6578063dfbf53ae14610506578063e11f3f7714610524578063e8eaca7514610542576101cf565b8063c003aef3116100de578063c003aef31461044c578063c69de2241461046a578063c7b8cad514610488578063c9ca03cd146104b8576101cf565b8063ad9ed66e146103bc578063b3db3ced146103ec578063b810fe8d1461041c576101cf565b8063715018a6116101715780637d8820971161014b5780637d882097146103205780638da5cb5b1461033e57806391c54ca41461035c578063aa236df41461038c576101cf565b8063715018a6146102c8578063788e26e7146102d257806379db8a13146102f0576101cf565b80633255d451116101ad5780633255d4511461024057806336201e531461025e5780634e33f83b1461027c57806363ceb60d146102ac576101cf565b80630873d9ec146101d457806309126f08146101f2578063200d2ed214610222575b600080fd5b6101dc6105d2565b6040516101e9919061194b565b60405180910390f35b61020c600480360381019061020791906119c9565b6105d8565b604051610219919061194b565b60405180910390f35b61022a6105f0565b6040516102379190611a6d565b60405180910390f35b610248610603565b604051610255919061194b565b60405180910390f35b610266610609565b604051610273919061194b565b60405180910390f35b610296600480360381019061029191906119c9565b61060f565b6040516102a3919061194b565b60405180910390f35b6102c660048036038101906102c19190611ab4565b610627565b005b6102d0610772565b005b6102da6107fa565b6040516102e7919061194b565b60405180910390f35b61030a60048036038101906103059190611af4565b610800565b604051610317919061194b565b60405180910390f35b610328610824565b604051610335919061194b565b60405180910390f35b61034661082a565b6040516103539190611b30565b60405180910390f35b61037660048036038101906103719190611af4565b610853565b6040516103839190611b30565b60405180910390f35b6103a660048036038101906103a19190611af4565b610886565b6040516103b39190611b30565b60405180910390f35b6103d660048036038101906103d19190611af4565b6108b9565b6040516103e3919061194b565b60405180910390f35b61040660048036038101906104019190611af4565b6108dd565b604051610413919061194b565b60405180910390f35b610436600480360381019061043191906119c9565b610901565b604051610443919061194b565b60405180910390f35b610454610919565b604051610461919061194b565b60405180910390f35b61047261091f565b60405161047f919061194b565b60405180910390f35b6104a2600480360381019061049d91906119c9565b610925565b6040516104af919061194b565b60405180910390f35b6104c061093d565b6040516104cd919061194b565b60405180910390f35b6104f060048036038101906104eb9190611af4565b610943565b6040516104fd9190611b30565b60405180910390f35b61050e610976565b60405161051b9190611b30565b60405180910390f35b61052c61099c565b604051610539919061194b565b60405180910390f35b61054a6109a2565b604051610557919061194b565b60405180910390f35b61057a60048036038101906105759190611b4b565b6109a8565b005b610596600480360381019061059191906119c9565b610b21565b005b6105b260048036038101906105ad9190611af4565b610c19565b005b6105bc610d8c565b6040516105c99190611be6565b60405180910390f35b60085481565b60116020528060005260406000206000915090505481565b600060149054906101000a900460ff1681565b60025481565b60045481565b60106020528060005260406000206000915090505481565b61062f610d9f565b73ffffffffffffffffffffffffffffffffffffffff1661064d61082a565b73ffffffffffffffffffffffffffffffffffffffff16146106a3576040517f08c379a000000000000000000000000000000000000000000000000000000000815260040161069a90611c5e565b60405180910390fd5b600082116106e6576040517f08c379a00000000000000000000000000000000000000000000000000000000081526004016106dd90611cca565b60405180910390fd5b81600360008282546106f89190611d19565b9250508190555081601560008282546107119190611d19565b9250508190555081601060008373ffffffffffffffffffffffffffffffffffffffff1673ffffffffffffffffffffffffffffffffffffffff16815260200190815260200160002060008282546107679190611d19565b925050819055505050565b61077a610d9f565b73ffffffffffffffffffffffffffffffffffffffff1661079861082a565b73ffffffffffffffffffffffffffffffffffffffff16146107ee576040517f08c379a00000000000000000000000000000000000000000000000000000000081526004016107e590611c5e565b60405180910390fd5b6107f86000610da7565b565b60155481565b600b818154811061081057600080fd5b906000526020600020016000915090505481565b60035481565b60008060009054906101000a900473ffffffffffffffffffffffffffffffffffffffff16905090565b600f6020528060005260406000206000915054906101000a900473ffffffffffffffffffffffffffffffffffffffff1681565b600e6020528060005260406000206000915054906101000a900473ffffffffffffffffffffffffffffffffffffffff1681565b600a81815481106108c957600080fd5b906000526020600020016000915090505481565b600c81815481106108ed57600080fd5b906000526020600020016000915090505481565b60136020528060005260406000206000915090505481565b60065481565b60095481565b60126020528060005260406000206000915090505481565b60015481565b600d6020528060005260406000206000915054906101000a900473ffffffffffffffffffffffffffffffffffffffff1681565b601460009054906101000a900473ffffffffffffffffffffffffffffffffffffffff1681565b60055481565b60075481565b6109b0610d9f565b73ffffffffffffffffffffffffffffffffffffffff166109ce61082a565b73ffffffffffffffffffffffffffffffffffffffff1614610a24576040517f08c379a0000000000000000000000000000000000000000000000000000000008152600401610a1b90611c5e565b60405180910390fd5b60008211610a67576040517f08c379a0000000000000000000000000000000000000000000000000000000008152600401610a5e90611cca565b60405180910390fd5b6001811415610a7f57610a7a8383610e6b565b610aad565b6003811415610a9757610a928383610f9b565b610aac565b6002811415610aab57610aaa83836110cb565b5b5b5b8160036000828254610abf9190611d19565b9250508190555081601060008573ffffffffffffffffffffffffffffffffffffffff1673ffffffffffffffffffffffffffffffffffffffff1681526020019081526020016000206000828254610b159190611d19565b92505081905550505050565b610b29610d9f565b73ffffffffffffffffffffffffffffffffffffffff16610b4761082a565b73ffffffffffffffffffffffffffffffffffffffff1614610b9d576040517f08c379a0000000000000000000000000000000000000000000000000000000008152600401610b9490611c5e565b60405180910390fd5b600073ffffffffffffffffffffffffffffffffffffffff168173ffffffffffffffffffffffffffffffffffffffff161415610c0d576040517f08c379a0000000000000000000000000000000000000000000000000000000008152600401610c0490611de1565b60405180910390fd5b610c1681610da7565b50565b610c21610d9f565b73ffffffffffffffffffffffffffffffffffffffff16610c3f61082a565b73ffffffffffffffffffffffffffffffffffffffff1614610c95576040517f08c379a0000000000000000000000000000000000000000000000000000000008152600401610c8c90611c5e565b60405180910390fd5b60006001811115610ca957610ca86119f6565b5b600060149054906101000a900460ff166001811115610ccb57610cca6119f6565b5b14610d0b576040517f08c379a0000000000000000000000000000000000000000000000000000000008152600401610d0290611e4d565b60405180910390fd5b6001600060146101000a81548160ff02191690836001811115610d3157610d306119f6565b5b021790555060018114610d555760028114610d4d576003610d50565b60025b610d58565b60015b601660006101000a81548160ff02191690836003811115610d7c57610d7b6119f6565b5b0217905550610d896111fb565b50565b601660009054906101000a900460ff1681565b600033905090565b60008060009054906101000a900473ffffffffffffffffffffffffffffffffffffffff169050816000806101000a81548173ffffffffffffffffffffffffffffffffffffffff021916908373ffffffffffffffffffffffffffffffffffffffff1602179055508173ffffffffffffffffffffffffffffffffffffffff168173ffffffffffffffffffffffffffffffffffffffff167f8be0079c531659141344cd1fd0a4f28419497f9722a3daafe3b4186f6b6457e060405160405180910390a35050565b6000429050600081600154610e809190611e6d565b83610e8b9190611ea1565b905080601160008673ffffffffffffffffffffffffffffffffffffffff1673ffffffffffffffffffffffffffffffffffffffff1681526020019081526020016000206000828254610edc9190611d19565b925050819055508060046000828254610ef59190611d19565b92505081905550600a600454908060018154018082558091505060019003906000526020600020016000909190919091505583600d6000600754815260200190815260200160002060006101000a81548173ffffffffffffffffffffffffffffffffffffffff021916908373ffffffffffffffffffffffffffffffffffffffff160217905550600160076000828254610f8e9190611d19565b9250508190555050505050565b6000429050600081600154610fb09190611e6d565b83610fbb9190611ea1565b905080601360008673ffffffffffffffffffffffffffffffffffffffff1673ffffffffffffffffffffffffffffffffffffffff168152602001908152602001600020600082825461100c9190611d19565b9250508190555080600660008282546110259190611d19565b92505081905550600c600654908060018154018082558091505060019003906000526020600020016000909190919091505583600f6000600954815260200190815260200160002060006101000a81548173ffffffffffffffffffffffffffffffffffffffff021916908373ffffffffffffffffffffffffffffffffffffffff1602179055506001600960008282546110be9190611d19565b9250508190555050505050565b60004290506000816001546110e09190611e6d565b836110eb9190611ea1565b905080601260008673ffffffffffffffffffffffffffffffffffffffff1673ffffffffffffffffffffffffffffffffffffffff168152602001908152602001600020600082825461113c9190611d19565b9250508190555080600560008282546111559190611d19565b92505081905550600b600554908060018154018082558091505060019003906000526020600020016000909190919091505583600e6000600754815260200190815260200160002060006101000a81548173ffffffffffffffffffffffffffffffffffffffff021916908373ffffffffffffffffffffffffffffffffffffffff1602179055506001600860008282546111ee9190611d19565b9250508190555050505050565b6001600381111561120f5761120e6119f6565b5b601660009054906101000a900460ff166003811115611231576112306119f6565b5b14156112845761123f611395565b601460006101000a81548173ffffffffffffffffffffffffffffffffffffffff021916908373ffffffffffffffffffffffffffffffffffffffff160217905550611393565b600380811115611297576112966119f6565b5b601660009054906101000a900460ff1660038111156112b9576112b86119f6565b5b141561130c576112c761155f565b601460006101000a81548173ffffffffffffffffffffffffffffffffffffffff021916908373ffffffffffffffffffffffffffffffffffffffff160217905550611392565b600260038111156113205761131f6119f6565b5b601660009054906101000a900460ff166003811115611342576113416119f6565b5b141561139157611350611729565b601460006101000a81548173ffffffffffffffffffffffffffffffffffffffff021916908373ffffffffffffffffffffffffffffffffffffffff1602179055505b5b5b565b6000806113a06118f3565b9050600454816113b09190611f2a565b9050600a6000815481106113c7576113c6611f5b565b5b906000526020600020015481101561141557600d600080815260200190815260200160002060009054906101000a900473ffffffffffffffffffffffffffffffffffffffff1691505061155c565b60006001600a805490506114299190611e6d565b905060005b818111611522576000600282846114459190611e6d565b61144f9190611f8a565b8261145a9190611d19565b9050600a81815481106114705761146f611f5b565b5b90600052602060002001548410156114965760018161148f9190611e6d565b925061151c565b600a81815481106114aa576114a9611f5b565b5b90600052602060002001548411156114d0576001816114c99190611d19565b915061151b565b600d60006001836114e19190611d19565b815260200190815260200160002060009054906101000a900473ffffffffffffffffffffffffffffffffffffffff1694505050505061155c565b5b5061142e565b600d600082815260200190815260200160002060009054906101000a900473ffffffffffffffffffffffffffffffffffffffff1693505050505b90565b60008061156a6118f3565b90506006548161157a9190611f2a565b9050600c60008154811061159157611590611f5b565b5b90600052602060002001548110156115df57600f600080815260200190815260200160002060009054906101000a900473ffffffffffffffffffffffffffffffffffffffff16915050611726565b60006001600c805490506115f39190611e6d565b905060005b8181116116ec5760006002828461160f9190611e6d565b6116199190611f8a565b826116249190611d19565b9050600c818154811061163a57611639611f5b565b5b9060005260206000200154841015611660576001816116599190611e6d565b92506116e6565b600c818154811061167457611673611f5b565b5b906000526020600020015484111561169a576001816116939190611d19565b91506116e5565b600f60006001836116ab9190611d19565b815260200190815260200160002060009054906101000a900473ffffffffffffffffffffffffffffffffffffffff16945050505050611726565b5b506115f8565b600f600082815260200190815260200160002060009054906101000a900473ffffffffffffffffffffffffffffffffffffffff1693505050505b90565b6000806117346118f3565b9050600554816117449190611f2a565b9050600b60008154811061175b5761175a611f5b565b5b90600052602060002001548110156117a957600e600080815260200190815260200160002060009054906101000a900473ffffffffffffffffffffffffffffffffffffffff169150506118f0565b60006001600b805490506117bd9190611e6d565b905060005b8181116118b6576000600282846117d99190611e6d565b6117e39190611f8a565b826117ee9190611d19565b9050600b818154811061180457611803611f5b565b5b906000526020600020015484101561182a576001816118239190611e6d565b92506118b0565b600b818154811061183e5761183d611f5b565b5b90600052602060002001548411156118645760018161185d9190611d19565b91506118af565b600e60006001836118759190611d19565b815260200190815260200160002060009054906101000a900473ffffffffffffffffffffffffffffffffffffffff169450505050506118f0565b5b506117c2565b600e600082815260200190815260200160002060009054906101000a900473ffffffffffffffffffffffffffffffffffffffff1693505050505b90565b60004442600354600154600254604051602001611914959493929190611fdc565b6040516020818303038152906040528051906020012060001c905090565b6000819050919050565b61194581611932565b82525050565b6000602082019050611960600083018461193c565b92915050565b600080fd5b600073ffffffffffffffffffffffffffffffffffffffff82169050919050565b60006119968261196b565b9050919050565b6119a68161198b565b81146119b157600080fd5b50565b6000813590506119c38161199d565b92915050565b6000602082840312156119df576119de611966565b5b60006119ed848285016119b4565b91505092915050565b7f4e487b7100000000000000000000000000000000000000000000000000000000600052602160045260246000fd5b60028110611a3657611a356119f6565b5b50565b6000819050611a4782611a25565b919050565b6000611a5782611a39565b9050919050565b611a6781611a4c565b82525050565b6000602082019050611a826000830184611a5e565b92915050565b611a9181611932565b8114611a9c57600080fd5b50565b600081359050611aae81611a88565b92915050565b60008060408385031215611acb57611aca611966565b5b6000611ad985828601611a9f565b9250506020611aea858286016119b4565b9150509250929050565b600060208284031215611b0a57611b09611966565b5b6000611b1884828501611a9f565b91505092915050565b611b2a8161198b565b82525050565b6000602082019050611b456000830184611b21565b92915050565b600080600060608486031215611b6457611b63611966565b5b6000611b72868287016119b4565b9350506020611b8386828701611a9f565b9250506040611b9486828701611a9f565b9150509250925092565b60048110611baf57611bae6119f6565b5b50565b6000819050611bc082611b9e565b919050565b6000611bd082611bb2565b9050919050565b611be081611bc5565b82525050565b6000602082019050611bfb6000830184611bd7565b92915050565b600082825260208201905092915050565b7f4f776e61626c653a2063616c6c6572206973206e6f7420746865206f776e6572600082015250565b6000611c48602083611c01565b9150611c5382611c12565b602082019050919050565b60006020820190508181036000830152611c7781611c3b565b9050919050565b7f616d6f756e74206d75737420626520706f736974696600000000000000000000600082015250565b6000611cb4601683611c01565b9150611cbf82611c7e565b602082019050919050565b60006020820190508181036000830152611ce381611ca7565b9050919050565b7f4e487b7100000000000000000000000000000000000000000000000000000000600052601160045260246000fd5b6000611d2482611932565b9150611d2f83611932565b9250827fffffffffffffffffffffffffffffffffffffffffffffffffffffffffffffffff03821115611d6457611d63611cea565b5b828201905092915050565b7f4f776e61626c653a206e6577206f776e657220697320746865207a65726f206160008201527f6464726573730000000000000000000000000000000000000000000000000000602082015250565b6000611dcb602683611c01565b9150611dd682611d6f565b604082019050919050565b60006020820190508181036000830152611dfa81611dbe565b9050919050565b7f43616e7420736574746c652074686973206d6174636800000000000000000000600082015250565b6000611e37601683611c01565b9150611e4282611e01565b602082019050919050565b60006020820190508181036000830152611e6681611e2a565b9050919050565b6000611e7882611932565b9150611e8383611932565b925082821015611e9657611e95611cea565b5b828203905092915050565b6000611eac82611932565b9150611eb783611932565b9250817fffffffffffffffffffffffffffffffffffffffffffffffffffffffffffffffff0483118215151615611ef057611eef611cea565b5b828202905092915050565b7f4e487b7100000000000000000000000000000000000000000000000000000000600052601260045260246000fd5b6000611f3582611932565b9150611f4083611932565b925082611f5057611f4f611efb565b5b828206905092915050565b7f4e487b7100000000000000000000000000000000000000000000000000000000600052603260045260246000fd5b6000611f9582611932565b9150611fa083611932565b925082611fb057611faf611efb565b5b828204905092915050565b6000819050919050565b611fd6611fd182611932565b611fbb565b82525050565b6000611fe88288611fc5565b602082019150611ff88287611fc5565b6020820191506120088286611fc5565b6020820191506120188285611fc5565b6020820191506120288284611fc5565b602082019150819050969550505050505056fea26469706673582212204803e8249294b8d674bfaa59c8881b784560e2cac171387397d8a4bc065aae7264736f6c63430008090033",
  "linkReferences": {},
  "deployedLinkReferences": {}
}