{
  "_format": "hh-sol-artifact-1",
  "contractName": "BenqiLossless",
  "sourceName": "contracts/BenqiLossless.sol",
  "abi": [
    {
      "inputs": [
        {
          "internalType": "address",
          "name": "_qiToken",
          "type": "address"
        },
        {
          "internalType": "uint256",
          "name": "_matchStartTime",
          "type": "uint256"
        },
        {
          "internalType": "uint256",
          "name": "_matchFinishTime",
          "type": "uint256"
        }
      ],
      "stateMutability": "nonpayable",
      "type": "constructor"
    },
    {
      "anonymous": false,
      "inputs": [
        {
          "indexed": true,
          "internalType": "address",
          "name": "previousOwner",
          "type": "address"
        },
        {
          "indexed": true,
          "internalType": "address",
          "name": "newOwner",
          "type": "address"
        }
      ],
      "name": "OwnershipTransferred",
      "type": "event"
    },
    {
      "inputs": [
        {
          "internalType": "uint256",
          "name": "",
          "type": "uint256"
        }
      ],
      "name": "awayBetPlacer",
      "outputs": [
        {
          "internalType": "address",
          "name": "",
          "type": "address"
        }
      ],
      "stateMutability": "view",
      "type": "function"
    },
    {
      "inputs": [],
      "name": "awayBets",
      "outputs": [
        {
          "internalType": "uint256",
          "name": "",
          "type": "uint256"
        }
      ],
      "stateMutability": "view",
      "type": "function"
    },
    {
      "inputs": [
        {
          "internalType": "uint256",
          "name": "",
          "type": "uint256"
        }
      ],
      "name": "awayPointsAfterBet",
      "outputs": [
        {
          "internalType": "uint256",
          "name": "",
          "type": "uint256"
        }
      ],
      "stateMutability": "view",
      "type": "function"
    },
    {
      "inputs": [],
      "name": "awayPointsTrackers",
      "outputs": [
        {
          "internalType": "uint256",
          "name": "",
          "type": "uint256"
        }
      ],
      "stateMutability": "view",
      "type": "function"
    },
    {
      "inputs": [
        {
          "internalType": "uint256",
          "name": "",
          "type": "uint256"
        }
      ],
      "name": "drawBetPlacer",
      "outputs": [
        {
          "internalType": "address",
          "name": "",
          "type": "address"
        }
      ],
      "stateMutability": "view",
      "type": "function"
    },
    {
      "inputs": [],
      "name": "drawBets",
      "outputs": [
        {
          "internalType": "uint256",
          "name": "",
          "type": "uint256"
        }
      ],
      "stateMutability": "view",
      "type": "function"
    },
    {
      "inputs": [
        {
          "internalType": "uint256",
          "name": "",
          "type": "uint256"
        }
      ],
      "name": "drawPointsAfterBet",
      "outputs": [
        {
          "internalType": "uint256",
          "name": "",
          "type": "uint256"
        }
      ],
      "stateMutability": "view",
      "type": "function"
    },
    {
      "inputs": [],
      "name": "drawPointsTrackers",
      "outputs": [
        {
          "internalType": "uint256",
          "name": "",
          "type": "uint256"
        }
      ],
      "stateMutability": "view",
      "type": "function"
    },
    {
      "inputs": [],
      "name": "getQiTokenBalance",
      "outputs": [
        {
          "internalType": "uint256",
          "name": "",
          "type": "uint256"
        }
      ],
      "stateMutability": "view",
      "type": "function"
    },
    {
      "inputs": [
        {
          "internalType": "uint256",
          "name": "",
          "type": "uint256"
        }
      ],
      "name": "homeBetPlacer",
      "outputs": [
        {
          "internalType": "address",
          "name": "",
          "type": "address"
        }
      ],
      "stateMutability": "view",
      "type": "function"
    },
    {
      "inputs": [],
      "name": "homeBets",
      "outputs": [
        {
          "internalType": "uint256",
          "name": "",
          "type": "uint256"
        }
      ],
      "stateMutability": "view",
      "type": "function"
    },
    {
      "inputs": [
        {
          "internalType": "uint256",
          "name": "",
          "type": "uint256"
        }
      ],
      "name": "homePointsAfterBet",
      "outputs": [
        {
          "internalType": "uint256",
          "name": "",
          "type": "uint256"
        }
      ],
      "stateMutability": "view",
      "type": "function"
    },
    {
      "inputs": [],
      "name": "homePointsTrackers",
      "outputs": [
        {
          "internalType": "uint256",
          "name": "",
          "type": "uint256"
        }
      ],
      "stateMutability": "view",
      "type": "function"
    },
    {
      "inputs": [],
      "name": "matchFinishTime",
      "outputs": [
        {
          "internalType": "uint256",
          "name": "",
          "type": "uint256"
        }
      ],
      "stateMutability": "view",
      "type": "function"
    },
    {
      "inputs": [],
      "name": "matchStartTime",
      "outputs": [
        {
          "internalType": "uint256",
          "name": "",
          "type": "uint256"
        }
      ],
      "stateMutability": "view",
      "type": "function"
    },
    {
      "inputs": [],
      "name": "owner",
      "outputs": [
        {
          "internalType": "address",
          "name": "",
          "type": "address"
        }
      ],
      "stateMutability": "view",
      "type": "function"
    },
    {
      "inputs": [
        {
          "internalType": "enum BenqiLossless.BetSide",
          "name": "betSide",
          "type": "uint8"
        }
      ],
      "name": "placeBet",
      "outputs": [],
      "stateMutability": "payable",
      "type": "function"
    },
    {
      "inputs": [
        {
          "internalType": "address",
          "name": "",
          "type": "address"
        }
      ],
      "name": "playerAwayPoints",
      "outputs": [
        {
          "internalType": "uint256",
          "name": "",
          "type": "uint256"
        }
      ],
      "stateMutability": "view",
      "type": "function"
    },
    {
      "inputs": [
        {
          "internalType": "address",
          "name": "",
          "type": "address"
        }
      ],
      "name": "playerBalance",
      "outputs": [
        {
          "internalType": "uint256",
          "name": "",
          "type": "uint256"
        }
      ],
      "stateMutability": "view",
      "type": "function"
    },
    {
      "inputs": [
        {
          "internalType": "address",
          "name": "",
          "type": "address"
        }
      ],
      "name": "playerDrawPoints",
      "outputs": [
        {
          "internalType": "uint256",
          "name": "",
          "type": "uint256"
        }
      ],
      "stateMutability": "view",
      "type": "function"
    },
    {
      "inputs": [
        {
          "internalType": "address",
          "name": "",
          "type": "address"
        }
      ],
      "name": "playerHomePoints",
      "outputs": [
        {
          "internalType": "uint256",
          "name": "",
          "type": "uint256"
        }
      ],
      "stateMutability": "view",
      "type": "function"
    },
    {
      "inputs": [],
      "name": "qiToken",
      "outputs": [
        {
          "internalType": "contract QiAvaxInterface",
          "name": "",
          "type": "address"
        }
      ],
      "stateMutability": "view",
      "type": "function"
    },
    {
      "inputs": [],
      "name": "renounceOwnership",
      "outputs": [],
      "stateMutability": "nonpayable",
      "type": "function"
    },
    {
      "inputs": [
        {
          "internalType": "enum BenqiLossless.BetSide",
          "name": "_winningSide",
          "type": "uint8"
        }
      ],
      "name": "setMatchWinnerAndWithdrawFromPool",
      "outputs": [],
      "stateMutability": "nonpayable",
      "type": "function"
    },
    {
      "inputs": [],
      "name": "sponsor",
      "outputs": [],
      "stateMutability": "payable",
      "type": "function"
    },
    {
      "inputs": [],
      "name": "sponsorDeposit",
      "outputs": [
        {
          "internalType": "uint256",
          "name": "",
          "type": "uint256"
        }
      ],
      "stateMutability": "view",
      "type": "function"
    },
    {
      "inputs": [],
      "name": "status",
      "outputs": [
        {
          "internalType": "enum LosslessQi.MatchStatus",
          "name": "",
          "type": "uint8"
        }
      ],
      "stateMutability": "view",
      "type": "function"
    },
    {
      "inputs": [],
      "name": "totalDeposits",
      "outputs": [
        {
          "internalType": "uint256",
          "name": "",
          "type": "uint256"
        }
      ],
      "stateMutability": "view",
      "type": "function"
    },
    {
      "inputs": [
        {
          "internalType": "address",
          "name": "newOwner",
          "type": "address"
        }
      ],
      "name": "transferOwnership",
      "outputs": [],
      "stateMutability": "nonpayable",
      "type": "function"
    },
    {
      "inputs": [],
      "name": "winner",
      "outputs": [
        {
          "internalType": "address",
          "name": "",
          "type": "address"
        }
      ],
      "stateMutability": "view",
      "type": "function"
    },
    {
      "inputs": [],
      "name": "winningSide",
      "outputs": [
        {
          "internalType": "enum BenqiLossless.BetSide",
          "name": "",
          "type": "uint8"
        }
      ],
      "stateMutability": "view",
      "type": "function"
    },
    {
      "inputs": [],
      "name": "withdraw",
      "outputs": [],
      "stateMutability": "nonpayable",
      "type": "function"
    },
    {
      "stateMutability": "payable",
      "type": "receive"
    }
  ],
  "bytecode": "0x60806040523480156200001157600080fd5b5060405162003059380380620030598339818101604052810190620000379190620002ee565b8181620000596200004d6200017d60201b60201c565b6200018560201b60201c565b60008060146101000a81548160ff021916908360018111156200008157620000806200034a565b5b02179055508160018190555080600281905550505060008060146101000a81548160ff02191690836001811115620000be57620000bd6200034a565b5b021790555082601660016101000a81548173ffffffffffffffffffffffffffffffffffffffff021916908373ffffffffffffffffffffffffffffffffffffffff1602179055506000601660006101000a81548160ff021916908360038111156200012d576200012c6200034a565b5b02179055506000601460006101000a81548173ffffffffffffffffffffffffffffffffffffffff021916908373ffffffffffffffffffffffffffffffffffffffff16021790555050505062000379565b600033905090565b60008060009054906101000a900473ffffffffffffffffffffffffffffffffffffffff169050816000806101000a81548173ffffffffffffffffffffffffffffffffffffffff021916908373ffffffffffffffffffffffffffffffffffffffff1602179055508173ffffffffffffffffffffffffffffffffffffffff168173ffffffffffffffffffffffffffffffffffffffff167f8be0079c531659141344cd1fd0a4f28419497f9722a3daafe3b4186f6b6457e060405160405180910390a35050565b600080fd5b600073ffffffffffffffffffffffffffffffffffffffff82169050919050565b60006200027b826200024e565b9050919050565b6200028d816200026e565b81146200029957600080fd5b50565b600081519050620002ad8162000282565b92915050565b6000819050919050565b620002c881620002b3565b8114620002d457600080fd5b50565b600081519050620002e881620002bd565b92915050565b6000806000606084860312156200030a576200030962000249565b5b60006200031a868287016200029c565b93505060206200032d86828701620002d7565b92505060406200034086828701620002d7565b9150509250925092565b7f4e487b7100000000000000000000000000000000000000000000000000000000600052602160045260246000fd5b612cd080620003896000396000f3fe6080604052600436106101e75760003560e01c80638da5cb5b11610102578063c7b8cad511610095578063e11f3f7711610064578063e11f3f7714610701578063e8eaca751461072c578063f2fde38b14610757578063fbf0633814610780576101ee565b8063c7b8cad514610631578063c9ca03cd1461066e578063d9d5216014610699578063dfbf53ae146106d6576101ee565b8063b3db3ced116100d1578063b3db3ced14610561578063b810fe8d1461059e578063c003aef3146105db578063c69de22414610606576101ee565b80638da5cb5b1461047f57806391c54ca4146104aa578063aa236df4146104e7578063ad9ed66e14610524576101ee565b80634e33f83b1161017a57806377c936621161014957806377c93662146103e2578063788e26e7146103ec57806379db8a13146104175780637d88209714610454576101ee565b80634e33f83b1461033a5780634ec1629e14610377578063645a0047146103a2578063715018a6146103cb576101ee565b806336201e53116101b657806336201e53146102b15780633ccfd60b146102dc57806343046844146102f3578063462e4cda1461030f576101ee565b80630873d9ec146101f357806309126f081461021e578063200d2ed21461025b5780633255d45114610286576101ee565b366101ee57005b600080fd5b3480156101ff57600080fd5b506102086107ab565b6040516102159190612313565b60405180910390f35b34801561022a57600080fd5b5061024560048036038101906102409190612391565b6107b1565b6040516102529190612313565b60405180910390f35b34801561026757600080fd5b506102706107c9565b60405161027d9190612435565b60405180910390f35b34801561029257600080fd5b5061029b6107dc565b6040516102a89190612313565b60405180910390f35b3480156102bd57600080fd5b506102c66107e2565b6040516102d39190612313565b60405180910390f35b3480156102e857600080fd5b506102f16107e8565b005b61030d60048036038101906103089190612475565b6109b2565b005b34801561031b57600080fd5b50610324610d1e565b6040516103319190612501565b60405180910390f35b34801561034657600080fd5b50610361600480360381019061035c9190612391565b610d44565b60405161036e9190612313565b60405180910390f35b34801561038357600080fd5b5061038c610d5c565b6040516103999190612313565b60405180910390f35b3480156103ae57600080fd5b506103c960048036038101906103c49190612475565b610e0e565b005b3480156103d757600080fd5b506103e061118c565b005b6103ea611214565b005b3480156103f857600080fd5b50610401611424565b60405161040e9190612313565b60405180910390f35b34801561042357600080fd5b5061043e60048036038101906104399190612548565b61142a565b60405161044b9190612313565b60405180910390f35b34801561046057600080fd5b5061046961144e565b6040516104769190612313565b60405180910390f35b34801561048b57600080fd5b50610494611454565b6040516104a19190612584565b60405180910390f35b3480156104b657600080fd5b506104d160048036038101906104cc9190612548565b61147d565b6040516104de9190612584565b60405180910390f35b3480156104f357600080fd5b5061050e60048036038101906105099190612548565b6114b0565b60405161051b9190612584565b60405180910390f35b34801561053057600080fd5b5061054b60048036038101906105469190612548565b6114e3565b6040516105589190612313565b60405180910390f35b34801561056d57600080fd5b5061058860048036038101906105839190612548565b611507565b6040516105959190612313565b60405180910390f35b3480156105aa57600080fd5b506105c560048036038101906105c09190612391565b61152b565b6040516105d29190612313565b60405180910390f35b3480156105e757600080fd5b506105f0611543565b6040516105fd9190612313565b60405180910390f35b34801561061257600080fd5b5061061b611549565b6040516106289190612313565b60405180910390f35b34801561063d57600080fd5b5061065860048036038101906106539190612391565b61154f565b6040516106659190612313565b60405180910390f35b34801561067a57600080fd5b50610683611567565b6040516106909190612313565b60405180910390f35b3480156106a557600080fd5b506106c060048036038101906106bb9190612548565b61156d565b6040516106cd9190612584565b60405180910390f35b3480156106e257600080fd5b506106eb6115a0565b6040516106f89190612584565b60405180910390f35b34801561070d57600080fd5b506107166115c6565b6040516107239190612313565b60405180910390f35b34801561073857600080fd5b506107416115cc565b60405161074e9190612313565b60405180910390f35b34801561076357600080fd5b5061077e60048036038101906107799190612391565b6115d2565b005b34801561078c57600080fd5b506107956116ca565b6040516107a291906125e7565b60405180910390f35b60085481565b60116020528060005260406000206000915090505481565b600060149054906101000a900460ff1681565b60025481565b60045481565b6001808111156107fb576107fa6123be565b5b600060149054906101000a900460ff16600181111561081d5761081c6123be565b5b1461085d576040517f08c379a00000000000000000000000000000000000000000000000000000000081526004016108549061265f565b60405180910390fd5b6000601060003373ffffffffffffffffffffffffffffffffffffffff1673ffffffffffffffffffffffffffffffffffffffff16815260200190815260200160002054116108df576040517f08c379a00000000000000000000000000000000000000000000000000000000081526004016108d6906126cb565b60405180910390fd5b6000601060003373ffffffffffffffffffffffffffffffffffffffff1673ffffffffffffffffffffffffffffffffffffffff1681526020019081526020016000205490506000601060003373ffffffffffffffffffffffffffffffffffffffff1673ffffffffffffffffffffffffffffffffffffffff168152602001908152602001600020819055503373ffffffffffffffffffffffffffffffffffffffff166108fc829081150290604051600060405180830381858888f193505050501580156109ae573d6000803e3d6000fd5b5050565b600060018111156109c6576109c56123be565b5b600060149054906101000a900460ff1660018111156109e8576109e76123be565b5b14610a28576040517f08c379a0000000000000000000000000000000000000000000000000000000008152600401610a1f90612737565b60405180910390fd5b6001544210610a6c576040517f08c379a0000000000000000000000000000000000000000000000000000000008152600401610a63906127a3565b60405180910390fd5b8060016003811115610a8157610a806123be565b5b816003811115610a9457610a936123be565b5b1480610ac35750600380811115610aae57610aad6123be565b5b816003811115610ac157610ac06123be565b5b145b80610af2575060026003811115610add57610adc6123be565b5b816003811115610af057610aef6123be565b5b145b610b31576040517f08c379a0000000000000000000000000000000000000000000000000000000008152600401610b289061280f565b60405180910390fd5b60003411610b74576040517f08c379a0000000000000000000000000000000000000000000000000000000008152600401610b6b9061287b565b60405180910390fd5b600034905060016003811115610b8d57610b8c6123be565b5b836003811115610ba057610b9f6123be565b5b1415610bb457610baf816116dd565b610c27565b600380811115610bc757610bc66123be565b5b836003811115610bda57610bd96123be565b5b1415610bee57610be98161180c565b610c26565b60026003811115610c0257610c016123be565b5b836003811115610c1557610c146123be565b5b1415610c2557610c248161193b565b5b5b5b601660019054906101000a900473ffffffffffffffffffffffffffffffffffffffff1673ffffffffffffffffffffffffffffffffffffffff16631249c58b826040518263ffffffff1660e01b81526004016000604051808303818588803b158015610c9157600080fd5b505af1158015610ca5573d6000803e3d6000fd5b50505050508060036000828254610cbc91906128ca565b9250508190555080601060003373ffffffffffffffffffffffffffffffffffffffff1673ffffffffffffffffffffffffffffffffffffffff1681526020019081526020016000206000828254610d1291906128ca565b92505081905550505050565b601660019054906101000a900473ffffffffffffffffffffffffffffffffffffffff1681565b60106020528060005260406000206000915090505481565b6000601660019054906101000a900473ffffffffffffffffffffffffffffffffffffffff1673ffffffffffffffffffffffffffffffffffffffff166370a08231306040518263ffffffff1660e01b8152600401610db99190612584565b60206040518083038186803b158015610dd157600080fd5b505afa158015610de5573d6000803e3d6000fd5b505050506040513d601f19601f82011682018060405250810190610e099190612935565b905090565b610e16611a6a565b73ffffffffffffffffffffffffffffffffffffffff16610e34611454565b73ffffffffffffffffffffffffffffffffffffffff1614610e8a576040517f08c379a0000000000000000000000000000000000000000000000000000000008152600401610e81906129ae565b60405180910390fd5b8060016003811115610e9f57610e9e6123be565b5b816003811115610eb257610eb16123be565b5b1480610ee15750600380811115610ecc57610ecb6123be565b5b816003811115610edf57610ede6123be565b5b145b80610f10575060026003811115610efb57610efa6123be565b5b816003811115610f0e57610f0d6123be565b5b145b610f4f576040517f08c379a0000000000000000000000000000000000000000000000000000000008152600401610f469061280f565b60405180910390fd5b60006001811115610f6357610f626123be565b5b600060149054906101000a900460ff166001811115610f8557610f846123be565b5b14610fc5576040517f08c379a0000000000000000000000000000000000000000000000000000000008152600401610fbc90612a1a565b60405180910390fd5b6001600060146101000a81548160ff02191690836001811115610feb57610fea6123be565b5b021790555081601660006101000a81548160ff02191690836003811115611015576110146123be565b5b02179055506000601660019054906101000a900473ffffffffffffffffffffffffffffffffffffffff1673ffffffffffffffffffffffffffffffffffffffff166370a08231306040518263ffffffff1660e01b81526004016110779190612584565b60206040518083038186803b15801561108f57600080fd5b505afa1580156110a3573d6000803e3d6000fd5b505050506040513d601f19601f820116820180604052508101906110c79190612935565b9050601660019054906101000a900473ffffffffffffffffffffffffffffffffffffffff1673ffffffffffffffffffffffffffffffffffffffff1663db006a75826040518263ffffffff1660e01b81526004016111249190612313565b602060405180830381600087803b15801561113e57600080fd5b505af1158015611152573d6000803e3d6000fd5b505050506040513d601f19601f820116820180604052508101906111769190612935565b5061117f611a72565b611187611c0c565b505050565b611194611a6a565b73ffffffffffffffffffffffffffffffffffffffff166111b2611454565b73ffffffffffffffffffffffffffffffffffffffff1614611208576040517f08c379a00000000000000000000000000000000000000000000000000000000081526004016111ff906129ae565b60405180910390fd5b6112126000611c99565b565b60006001811115611228576112276123be565b5b600060149054906101000a900460ff16600181111561124a576112496123be565b5b1461128a576040517f08c379a000000000000000000000000000000000000000000000000000000000815260040161128190612737565b60405180910390fd5b60015442106112ce576040517f08c379a00000000000000000000000000000000000000000000000000000000081526004016112c5906127a3565b60405180910390fd5b60003411611311576040517f08c379a00000000000000000000000000000000000000000000000000000000081526004016113089061287b565b60405180910390fd5b6000349050601660019054906101000a900473ffffffffffffffffffffffffffffffffffffffff1673ffffffffffffffffffffffffffffffffffffffff16631249c58b826040518263ffffffff1660e01b81526004016000604051808303818588803b15801561138057600080fd5b505af1158015611394573d6000803e3d6000fd5b505050505080600360008282546113ab91906128ca565b9250508190555080601560008282546113c491906128ca565b9250508190555080601060003373ffffffffffffffffffffffffffffffffffffffff1673ffffffffffffffffffffffffffffffffffffffff168152602001908152602001600020600082825461141a91906128ca565b9250508190555050565b60155481565b600b818154811061143a57600080fd5b906000526020600020016000915090505481565b60035481565b60008060009054906101000a900473ffffffffffffffffffffffffffffffffffffffff16905090565b600f6020528060005260406000206000915054906101000a900473ffffffffffffffffffffffffffffffffffffffff1681565b600e6020528060005260406000206000915054906101000a900473ffffffffffffffffffffffffffffffffffffffff1681565b600a81815481106114f357600080fd5b906000526020600020016000915090505481565b600c818154811061151757600080fd5b906000526020600020016000915090505481565b60136020528060005260406000206000915090505481565b60065481565b60095481565b60126020528060005260406000206000915090505481565b60015481565b600d6020528060005260406000206000915054906101000a900473ffffffffffffffffffffffffffffffffffffffff1681565b601460009054906101000a900473ffffffffffffffffffffffffffffffffffffffff1681565b60055481565b60075481565b6115da611a6a565b73ffffffffffffffffffffffffffffffffffffffff166115f8611454565b73ffffffffffffffffffffffffffffffffffffffff161461164e576040517f08c379a0000000000000000000000000000000000000000000000000000000008152600401611645906129ae565b60405180910390fd5b600073ffffffffffffffffffffffffffffffffffffffff168173ffffffffffffffffffffffffffffffffffffffff1614156116be576040517f08c379a00000000000000000000000000000000000000000000000000000000081526004016116b590612aac565b60405180910390fd5b6116c781611c99565b50565b601660009054906101000a900460ff1681565b60004290506000816001546116f29190612acc565b836116fd9190612b00565b905080601160003373ffffffffffffffffffffffffffffffffffffffff1673ffffffffffffffffffffffffffffffffffffffff168152602001908152602001600020600082825461174e91906128ca565b92505081905550806004600082825461176791906128ca565b92505081905550600a600454908060018154018082558091505060019003906000526020600020016000909190919091505533600d6000600754815260200190815260200160002060006101000a81548173ffffffffffffffffffffffffffffffffffffffff021916908373ffffffffffffffffffffffffffffffffffffffff16021790555060016007600082825461180091906128ca565b92505081905550505050565b60004290506000816001546118219190612acc565b8361182c9190612b00565b905080601360003373ffffffffffffffffffffffffffffffffffffffff1673ffffffffffffffffffffffffffffffffffffffff168152602001908152602001600020600082825461187d91906128ca565b92505081905550806006600082825461189691906128ca565b92505081905550600c600654908060018154018082558091505060019003906000526020600020016000909190919091505533600f6000600954815260200190815260200160002060006101000a81548173ffffffffffffffffffffffffffffffffffffffff021916908373ffffffffffffffffffffffffffffffffffffffff16021790555060016009600082825461192f91906128ca565b92505081905550505050565b60004290506000816001546119509190612acc565b8361195b9190612b00565b905080601260003373ffffffffffffffffffffffffffffffffffffffff1673ffffffffffffffffffffffffffffffffffffffff16815260200190815260200160002060008282546119ac91906128ca565b9250508190555080600560008282546119c591906128ca565b92505081905550600b600554908060018154018082558091505060019003906000526020600020016000909190919091505533600e6000600754815260200190815260200160002060006101000a81548173ffffffffffffffffffffffffffffffffffffffff021916908373ffffffffffffffffffffffffffffffffffffffff160217905550600160086000828254611a5e91906128ca565b92505081905550505050565b600033905090565b60016003811115611a8657611a856123be565b5b601660009054906101000a900460ff166003811115611aa857611aa76123be565b5b1415611afb57611ab6611d5d565b601460006101000a81548173ffffffffffffffffffffffffffffffffffffffff021916908373ffffffffffffffffffffffffffffffffffffffff160217905550611c0a565b600380811115611b0e57611b0d6123be565b5b601660009054906101000a900460ff166003811115611b3057611b2f6123be565b5b1415611b8357611b3e611f27565b601460006101000a81548173ffffffffffffffffffffffffffffffffffffffff021916908373ffffffffffffffffffffffffffffffffffffffff160217905550611c09565b60026003811115611b9757611b966123be565b5b601660009054906101000a900460ff166003811115611bb957611bb86123be565b5b1415611c0857611bc76120f1565b601460006101000a81548173ffffffffffffffffffffffffffffffffffffffff021916908373ffffffffffffffffffffffffffffffffffffffff1602179055505b5b5b565b600060035447611c1c9190612acc565b90508060106000601460009054906101000a900473ffffffffffffffffffffffffffffffffffffffff1673ffffffffffffffffffffffffffffffffffffffff1673ffffffffffffffffffffffffffffffffffffffff1681526020019081526020016000206000828254611c8f91906128ca565b9250508190555050565b60008060009054906101000a900473ffffffffffffffffffffffffffffffffffffffff169050816000806101000a81548173ffffffffffffffffffffffffffffffffffffffff021916908373ffffffffffffffffffffffffffffffffffffffff1602179055508173ffffffffffffffffffffffffffffffffffffffff168173ffffffffffffffffffffffffffffffffffffffff167f8be0079c531659141344cd1fd0a4f28419497f9722a3daafe3b4186f6b6457e060405160405180910390a35050565b600080611d686122bb565b905060045481611d789190612b89565b9050600a600081548110611d8f57611d8e612bba565b5b9060005260206000200154811015611ddd57600d600080815260200190815260200160002060009054906101000a900473ffffffffffffffffffffffffffffffffffffffff16915050611f24565b60006001600a80549050611df19190612acc565b905060005b818111611eea57600060028284611e0d9190612acc565b611e179190612be9565b82611e2291906128ca565b9050600a8181548110611e3857611e37612bba565b5b9060005260206000200154841015611e5e57600181611e579190612acc565b9250611ee4565b600a8181548110611e7257611e71612bba565b5b9060005260206000200154841115611e9857600181611e9191906128ca565b9150611ee3565b600d6000600183611ea991906128ca565b815260200190815260200160002060009054906101000a900473ffffffffffffffffffffffffffffffffffffffff16945050505050611f24565b5b50611df6565b600d600082815260200190815260200160002060009054906101000a900473ffffffffffffffffffffffffffffffffffffffff1693505050505b90565b600080611f326122bb565b905060065481611f429190612b89565b9050600c600081548110611f5957611f58612bba565b5b9060005260206000200154811015611fa757600f600080815260200190815260200160002060009054906101000a900473ffffffffffffffffffffffffffffffffffffffff169150506120ee565b60006001600c80549050611fbb9190612acc565b905060005b8181116120b457600060028284611fd79190612acc565b611fe19190612be9565b82611fec91906128ca565b9050600c818154811061200257612001612bba565b5b9060005260206000200154841015612028576001816120219190612acc565b92506120ae565b600c818154811061203c5761203b612bba565b5b90600052602060002001548411156120625760018161205b91906128ca565b91506120ad565b600f600060018361207391906128ca565b815260200190815260200160002060009054906101000a900473ffffffffffffffffffffffffffffffffffffffff169450505050506120ee565b5b50611fc0565b600f600082815260200190815260200160002060009054906101000a900473ffffffffffffffffffffffffffffffffffffffff1693505050505b90565b6000806120fc6122bb565b90506005548161210c9190612b89565b9050600b60008154811061212357612122612bba565b5b906000526020600020015481101561217157600e600080815260200190815260200160002060009054906101000a900473ffffffffffffffffffffffffffffffffffffffff169150506122b8565b60006001600b805490506121859190612acc565b905060005b81811161227e576000600282846121a19190612acc565b6121ab9190612be9565b826121b691906128ca565b9050600b81815481106121cc576121cb612bba565b5b90600052602060002001548410156121f2576001816121eb9190612acc565b9250612278565b600b818154811061220657612205612bba565b5b906000526020600020015484111561222c5760018161222591906128ca565b9150612277565b600e600060018361223d91906128ca565b815260200190815260200160002060009054906101000a900473ffffffffffffffffffffffffffffffffffffffff169450505050506122b8565b5b5061218a565b600e600082815260200190815260200160002060009054906101000a900473ffffffffffffffffffffffffffffffffffffffff1693505050505b90565b600044426003546001546002546040516020016122dc959493929190612c3b565b6040516020818303038152906040528051906020012060001c905090565b6000819050919050565b61230d816122fa565b82525050565b60006020820190506123286000830184612304565b92915050565b600080fd5b600073ffffffffffffffffffffffffffffffffffffffff82169050919050565b600061235e82612333565b9050919050565b61236e81612353565b811461237957600080fd5b50565b60008135905061238b81612365565b92915050565b6000602082840312156123a7576123a661232e565b5b60006123b58482850161237c565b91505092915050565b7f4e487b7100000000000000000000000000000000000000000000000000000000600052602160045260246000fd5b600281106123fe576123fd6123be565b5b50565b600081905061240f826123ed565b919050565b600061241f82612401565b9050919050565b61242f81612414565b82525050565b600060208201905061244a6000830184612426565b92915050565b6004811061245d57600080fd5b50565b60008135905061246f81612450565b92915050565b60006020828403121561248b5761248a61232e565b5b600061249984828501612460565b91505092915050565b6000819050919050565b60006124c76124c26124bd84612333565b6124a2565b612333565b9050919050565b60006124d9826124ac565b9050919050565b60006124eb826124ce565b9050919050565b6124fb816124e0565b82525050565b600060208201905061251660008301846124f2565b92915050565b612525816122fa565b811461253057600080fd5b50565b6000813590506125428161251c565b92915050565b60006020828403121561255e5761255d61232e565b5b600061256c84828501612533565b91505092915050565b61257e81612353565b82525050565b60006020820190506125996000830184612575565b92915050565b600481106125b0576125af6123be565b5b50565b60008190506125c18261259f565b919050565b60006125d1826125b3565b9050919050565b6125e1816125c6565b82525050565b60006020820190506125fc60008301846125d8565b92915050565b600082825260208201905092915050565b7f4d61746368206e6f742070616964000000000000000000000000000000000000600082015250565b6000612649600e83612602565b915061265482612613565b602082019050919050565b600060208201905081810360008301526126788161263c565b9050919050565b7f62616c616e6365206973207a65726f0000000000000000000000000000000000600082015250565b60006126b5600f83612602565b91506126c08261267f565b602082019050919050565b600060208201905081810360008301526126e4816126a8565b9050919050565b7f4d61746368206e6f74206f70656e000000000000000000000000000000000000600082015250565b6000612721600e83612602565b915061272c826126eb565b602082019050919050565b6000602082019050818103600083015261275081612714565b9050919050565b7f43616e7420706c61636520626574206e6f770000000000000000000000000000600082015250565b600061278d601283612602565b915061279882612757565b602082019050919050565b600060208201905081810360008301526127bc81612780565b9050919050565b7f696e76616c696420617267756d656e7420666f72206265737469646500000000600082015250565b60006127f9601c83612602565b9150612804826127c3565b602082019050919050565b60006020820190508181036000830152612828816127ec565b9050919050565b7f616d6f756e74206d75737420626520706f736974696600000000000000000000600082015250565b6000612865601683612602565b91506128708261282f565b602082019050919050565b6000602082019050818103600083015261289481612858565b9050919050565b7f4e487b7100000000000000000000000000000000000000000000000000000000600052601160045260246000fd5b60006128d5826122fa565b91506128e0836122fa565b9250827fffffffffffffffffffffffffffffffffffffffffffffffffffffffffffffffff038211156129155761291461289b565b5b828201905092915050565b60008151905061292f8161251c565b92915050565b60006020828403121561294b5761294a61232e565b5b600061295984828501612920565b91505092915050565b7f4f776e61626c653a2063616c6c6572206973206e6f7420746865206f776e6572600082015250565b6000612998602083612602565b91506129a382612962565b602082019050919050565b600060208201905081810360008301526129c78161298b565b9050919050565b7f43616e7420736574746c652074686973206d6174636800000000000000000000600082015250565b6000612a04601683612602565b9150612a0f826129ce565b602082019050919050565b60006020820190508181036000830152612a33816129f7565b9050919050565b7f4f776e61626c653a206e6577206f776e657220697320746865207a65726f206160008201527f6464726573730000000000000000000000000000000000000000000000000000602082015250565b6000612a96602683612602565b9150612aa182612a3a565b604082019050919050565b60006020820190508181036000830152612ac581612a89565b9050919050565b6000612ad7826122fa565b9150612ae2836122fa565b925082821015612af557612af461289b565b5b828203905092915050565b6000612b0b826122fa565b9150612b16836122fa565b9250817fffffffffffffffffffffffffffffffffffffffffffffffffffffffffffffffff0483118215151615612b4f57612b4e61289b565b5b828202905092915050565b7f4e487b7100000000000000000000000000000000000000000000000000000000600052601260045260246000fd5b6000612b94826122fa565b9150612b9f836122fa565b925082612baf57612bae612b5a565b5b828206905092915050565b7f4e487b7100000000000000000000000000000000000000000000000000000000600052603260045260246000fd5b6000612bf4826122fa565b9150612bff836122fa565b925082612c0f57612c0e612b5a565b5b828204905092915050565b6000819050919050565b612c35612c30826122fa565b612c1a565b82525050565b6000612c478288612c24565b602082019150612c578287612c24565b602082019150612c678286612c24565b602082019150612c778285612c24565b602082019150612c878284612c24565b602082019150819050969550505050505056fea2646970667358221220a47869bc022f9fb63fa35e670acef60a89059160242da8e708510dbd9e3d8ece64736f6c63430008090033",
  "linkReferences": {},
  "deployedLinkReferences": {}
}