{
  "_format": "hh-sol-artifact-1",
  "contractName": "Balances",
  "sourceName": "contracts/Balances.sol",
  "abi": [
    {
      "anonymous": false,
      "inputs": [
        {
          "indexed": false,
          "internalType": "address",
          "name": "player",
          "type": "address"
        },
        {
          "indexed": false,
          "internalType": "uint256",
          "name": "amount",
          "type": "uint256"
        }
      ],
      "name": "PlayerDeposit",
      "type": "event"
    },
    {
      "anonymous": false,
      "inputs": [
        {
          "indexed": false,
          "internalType": "address",
          "name": "player",
          "type": "address"
        },
        {
          "indexed": false,
          "internalType": "uint256",
          "name": "amount",
          "type": "uint256"
        }
      ],
      "name": "PlayerWithdrawal",
      "type": "event"
    },
    {
      "inputs": [
        {
          "internalType": "uint256",
          "name": "amount",
          "type": "uint256"
        }
      ],
      "name": "deposit",
      "outputs": [],
      "stateMutability": "payable",
      "type": "function"
    },
    {
      "inputs": [
        {
          "internalType": "address",
          "name": "_player",
          "type": "address"
        }
      ],
      "name": "getBalance",
      "outputs": [
        {
          "internalType": "uint256",
          "name": "",
          "type": "uint256"
        }
      ],
      "stateMutability": "view",
      "type": "function"
    },
    {
      "inputs": [
        {
          "internalType": "uint256",
          "name": "amount",
          "type": "uint256"
        }
      ],
      "name": "withdraw",
      "outputs": [],
      "stateMutability": "nonpayable",
      "type": "function"
    },
    {
      "inputs": [],
      "name": "withdrawAll",
      "outputs": [],
      "stateMutability": "nonpayable",
      "type": "function"
    }
  ],
  "bytecode": "0x608060405234801561001057600080fd5b50610875806100206000396000f3fe60806040526004361061003f5760003560e01c80632e1a7d4d14610044578063853828b61461006d578063b6b55f2514610084578063f8b2cb4f146100a0575b600080fd5b34801561005057600080fd5b5061006b60048036038101906100669190610517565b6100dd565b005b34801561007957600080fd5b50610082610236565b005b61009e60048036038101906100999190610517565b6103c1565b005b3480156100ac57600080fd5b506100c760048036038101906100c291906105a2565b610494565b6040516100d491906105de565b60405180910390f35b806000803373ffffffffffffffffffffffffffffffffffffffff1673ffffffffffffffffffffffffffffffffffffffff16815260200190815260200160002054101561015e576040517f08c379a000000000000000000000000000000000000000000000000000000000815260040161015590610656565b60405180910390fd5b806000803373ffffffffffffffffffffffffffffffffffffffff1673ffffffffffffffffffffffffffffffffffffffff16815260200190815260200160002060008282546101ac91906106a5565b925050819055503373ffffffffffffffffffffffffffffffffffffffff166108fc829081150290604051600060405180830381858888f193505050501580156101f9573d6000803e3d6000fd5b507fcb15aee0e66e2dd6413ec4a90b1cda19a3b024148655e9017356e0a82d7e855b338260405161022b9291906106e8565b60405180910390a150565b60008060003373ffffffffffffffffffffffffffffffffffffffff1673ffffffffffffffffffffffffffffffffffffffff16815260200190815260200160002054116102b7576040517f08c379a00000000000000000000000000000000000000000000000000000000081526004016102ae9061075d565b60405180910390fd5b60008060003373ffffffffffffffffffffffffffffffffffffffff1673ffffffffffffffffffffffffffffffffffffffff16815260200190815260200160002054905060008060003373ffffffffffffffffffffffffffffffffffffffff1673ffffffffffffffffffffffffffffffffffffffff168152602001908152602001600020819055503373ffffffffffffffffffffffffffffffffffffffff166108fc829081150290604051600060405180830381858888f19350505050158015610384573d6000803e3d6000fd5b507fcb15aee0e66e2dd6413ec4a90b1cda19a3b024148655e9017356e0a82d7e855b33826040516103b69291906106e8565b60405180910390a150565b803414610403576040517f08c379a00000000000000000000000000000000000000000000000000000000081526004016103fa906107c9565b60405180910390fd5b346000803373ffffffffffffffffffffffffffffffffffffffff1673ffffffffffffffffffffffffffffffffffffffff168152602001908152602001600020600082825461045191906107e9565b925050819055507f58be02934e87dcdb08adf93a75fc2a42ebc8085dd7a32db852a7e1c21446ba1c33346040516104899291906106e8565b60405180910390a150565b60008060008373ffffffffffffffffffffffffffffffffffffffff1673ffffffffffffffffffffffffffffffffffffffff168152602001908152602001600020549050919050565b600080fd5b6000819050919050565b6104f4816104e1565b81146104ff57600080fd5b50565b600081359050610511816104eb565b92915050565b60006020828403121561052d5761052c6104dc565b5b600061053b84828501610502565b91505092915050565b600073ffffffffffffffffffffffffffffffffffffffff82169050919050565b600061056f82610544565b9050919050565b61057f81610564565b811461058a57600080fd5b50565b60008135905061059c81610576565b92915050565b6000602082840312156105b8576105b76104dc565b5b60006105c68482850161058d565b91505092915050565b6105d8816104e1565b82525050565b60006020820190506105f360008301846105cf565b92915050565b600082825260208201905092915050565b7f6e6f7420656e6f7567682066756e647300000000000000000000000000000000600082015250565b60006106406010836105f9565b915061064b8261060a565b602082019050919050565b6000602082019050818103600083015261066f81610633565b9050919050565b7f4e487b7100000000000000000000000000000000000000000000000000000000600052601160045260246000fd5b60006106b0826104e1565b91506106bb836104e1565b9250828210156106ce576106cd610676565b5b828203905092915050565b6106e281610564565b82525050565b60006040820190506106fd60008301856106d9565b61070a60208301846105cf565b9392505050565b7f6e6f2066756e6473000000000000000000000000000000000000000000000000600082015250565b60006107476008836105f9565b915061075282610711565b602082019050919050565b600060208201905081810360008301526107768161073a565b9050919050565b7f756e76616c696420616d6f756e74000000000000000000000000000000000000600082015250565b60006107b3600e836105f9565b91506107be8261077d565b602082019050919050565b600060208201905081810360008301526107e2816107a6565b9050919050565b60006107f4826104e1565b91506107ff836104e1565b9250827fffffffffffffffffffffffffffffffffffffffffffffffffffffffffffffffff0382111561083457610833610676565b5b82820190509291505056fea26469706673582212202acf68a82c42e681f7aa7514d34347226f133165f1e2a219ee6a068ac6f304e164736f6c63430008090033",
  "linkReferences": {},
  "deployedLinkReferences": {}
}