{
  "_format": "hh-sol-artifact-1",
  "contractName": "SoccerResolver",
  "sourceName": "contracts/resolvers/SoccerResolver.sol",
  "abi": [
    {
      "inputs": [
        {
          "internalType": "address",
          "name": "_oracle",
          "type": "address"
        },
        {
          "internalType": "bytes32",
          "name": "_jobId",
          "type": "bytes32"
        },
        {
          "internalType": "address",
          "name": "_link",
          "type": "address"
        }
      ],
      "stateMutability": "nonpayable",
      "type": "constructor"
    },
    {
      "anonymous": false,
      "inputs": [
        {
          "indexed": true,
          "internalType": "bytes32",
          "name": "id",
          "type": "bytes32"
        }
      ],
      "name": "ChainlinkCancelled",
      "type": "event"
    },
    {
      "anonymous": false,
      "inputs": [
        {
          "indexed": true,
          "internalType": "bytes32",
          "name": "id",
          "type": "bytes32"
        }
      ],
      "name": "ChainlinkFulfilled",
      "type": "event"
    },
    {
      "anonymous": false,
      "inputs": [
        {
          "indexed": true,
          "internalType": "bytes32",
          "name": "id",
          "type": "bytes32"
        }
      ],
      "name": "ChainlinkRequested",
      "type": "event"
    },
    {
      "anonymous": false,
      "inputs": [
        {
          "indexed": true,
          "internalType": "address",
          "name": "previousOwner",
          "type": "address"
        },
        {
          "indexed": true,
          "internalType": "address",
          "name": "newOwner",
          "type": "address"
        }
      ],
      "name": "OwnershipTransferred",
      "type": "event"
    },
    {
      "inputs": [
        {
          "internalType": "bytes32",
          "name": "_bytes32",
          "type": "bytes32"
        }
      ],
      "name": "bytes32ToString",
      "outputs": [
        {
          "internalType": "string",
          "name": "",
          "type": "string"
        },
        {
          "internalType": "uint8",
          "name": "",
          "type": "uint8"
        }
      ],
      "stateMutability": "pure",
      "type": "function"
    },
    {
      "inputs": [
        {
          "internalType": "string",
          "name": "_objectId",
          "type": "string"
        },
        {
          "internalType": "enum BetSide",
          "name": "_betSide",
          "type": "uint8"
        },
        {
          "internalType": "enum BetType",
          "name": "_betType",
          "type": "uint8"
        },
        {
          "internalType": "uint8",
          "name": "_selection",
          "type": "uint8"
        }
      ],
      "name": "checkResult",
      "outputs": [
        {
          "internalType": "bool",
          "name": "",
          "type": "bool"
        }
      ],
      "stateMutability": "nonpayable",
      "type": "function"
    },
    {
      "inputs": [
        {
          "internalType": "bytes32",
          "name": "_requestId",
          "type": "bytes32"
        },
        {
          "internalType": "bytes32",
          "name": "_data",
          "type": "bytes32"
        }
      ],
      "name": "fulfill",
      "outputs": [],
      "stateMutability": "nonpayable",
      "type": "function"
    },
    {
      "inputs": [
        {
          "internalType": "string",
          "name": "_objectId",
          "type": "string"
        },
        {
          "internalType": "enum BetSide",
          "name": "_betSide",
          "type": "uint8"
        },
        {
          "internalType": "uint8",
          "name": "_selection",
          "type": "uint8"
        }
      ],
      "name": "hasMatchWinnerWon",
      "outputs": [
        {
          "internalType": "bool",
          "name": "",
          "type": "bool"
        }
      ],
      "stateMutability": "view",
      "type": "function"
    },
    {
      "inputs": [],
      "name": "owner",
      "outputs": [
        {
          "internalType": "address",
          "name": "",
          "type": "address"
        }
      ],
      "stateMutability": "view",
      "type": "function"
    },
    {
      "inputs": [],
      "name": "renounceOwnership",
      "outputs": [],
      "stateMutability": "nonpayable",
      "type": "function"
    },
    {
      "inputs": [
        {
          "internalType": "address",
          "name": "newOwner",
          "type": "address"
        }
      ],
      "name": "transferOwnership",
      "outputs": [],
      "stateMutability": "nonpayable",
      "type": "function"
    }
  ],
  "bytecode": "0x608060405260016004553480156200001657600080fd5b50604051620029d0380380620029d083398181016040528101906200003c9190620003a0565b6200005c620000506200013960201b60201c565b6200014160201b60201c565b604051806060016040528060258152602001620029ab60259139600b600080600281111562000090576200008f620003fc565b5b6002811115620000a557620000a4620003fc565b5b81526020019081526020016000209080519060200190620000c89291906200024b565b50620000da816200020760201b60201c565b82600760006101000a81548173ffffffffffffffffffffffffffffffffffffffff021916908373ffffffffffffffffffffffffffffffffffffffff16021790555081600881905550662386f26fc1000060098190555050505062000490565b600033905090565b6000600660009054906101000a900473ffffffffffffffffffffffffffffffffffffffff16905081600660006101000a81548173ffffffffffffffffffffffffffffffffffffffff021916908373ffffffffffffffffffffffffffffffffffffffff1602179055508173ffffffffffffffffffffffffffffffffffffffff168173ffffffffffffffffffffffffffffffffffffffff167f8be0079c531659141344cd1fd0a4f28419497f9722a3daafe3b4186f6b6457e060405160405180910390a35050565b80600260006101000a81548173ffffffffffffffffffffffffffffffffffffffff021916908373ffffffffffffffffffffffffffffffffffffffff16021790555050565b82805462000259906200045a565b90600052602060002090601f0160209004810192826200027d5760008555620002c9565b82601f106200029857805160ff1916838001178555620002c9565b82800160010185558215620002c9579182015b82811115620002c8578251825591602001919060010190620002ab565b5b509050620002d89190620002dc565b5090565b5b80821115620002f7576000816000905550600101620002dd565b5090565b600080fd5b600073ffffffffffffffffffffffffffffffffffffffff82169050919050565b60006200032d8262000300565b9050919050565b6200033f8162000320565b81146200034b57600080fd5b50565b6000815190506200035f8162000334565b92915050565b6000819050919050565b6200037a8162000365565b81146200038657600080fd5b50565b6000815190506200039a816200036f565b92915050565b600080600060608486031215620003bc57620003bb620002fb565b5b6000620003cc868287016200034e565b9350506020620003df8682870162000389565b9250506040620003f2868287016200034e565b9150509250925092565b7f4e487b7100000000000000000000000000000000000000000000000000000000600052602160045260246000fd5b7f4e487b7100000000000000000000000000000000000000000000000000000000600052602260045260246000fd5b600060028204905060018216806200047357607f821691505b602082108114156200048a57620004896200042b565b5b50919050565b61250b80620004a06000396000f3fe608060405234801561001057600080fd5b506004361061007d5760003560e01c80638da5cb5b1161005b5780638da5cb5b146100d85780639201de55146100f6578063f2fde38b14610127578063f96cb2df146101435761007d565b8063042f2b6514610082578063715018a61461009e57806374506662146100a8575b600080fd5b61009c60048036038101906100979190611529565b610173565b005b6100a6610303565b005b6100c260048036038101906100bd9190611651565b61038b565b6040516100cf91906116f4565b60405180910390f35b6100e06104ab565b6040516100ed9190611750565b60405180910390f35b610110600480360381019061010b919061176b565b6104d5565b60405161011e929190611840565b60405180910390f35b610141600480360381019061013c919061189c565b6106f2565b005b61015d600480360381019061015891906118c9565b6107ea565b60405161016a91906116f4565b60405180910390f35b816005600082815260200190815260200160002060009054906101000a900473ffffffffffffffffffffffffffffffffffffffff1673ffffffffffffffffffffffffffffffffffffffff163373ffffffffffffffffffffffffffffffffffffffff1614610215576040517f08c379a000000000000000000000000000000000000000000000000000000000815260040161020c906119af565b60405180910390fd5b6005600082815260200190815260200160002060006101000a81549073ffffffffffffffffffffffffffffffffffffffff0219169055807f7cc135e0cebb02c3480ae5d74d377283180a2601f8f644edf7987b009316c63a60405160405180910390a2600080610284846104d5565b9150915080600a836040516102999190611a0b565b908152602001604051809103902060000160006101000a81548160ff021916908360ff1602179055506001600a836040516102d49190611a0b565b908152602001604051809103902060000160016101000a81548160ff0219169083151502179055505050505050565b61030b610967565b73ffffffffffffffffffffffffffffffffffffffff166103296104ab565b73ffffffffffffffffffffffffffffffffffffffff161461037f576040517f08c379a000000000000000000000000000000000000000000000000000000000815260040161037690611a6e565b60405180910390fd5b610389600061096f565b565b6000600a868660405161039f929190611ac2565b908152602001604051809103902060000160019054906101000a900460ff166103ce576103cc8686610a35565b505b6000600b60008560028111156103e7576103e6611adb565b5b60028111156103f9576103f8611adb565b5b8152602001908152602001600020805461041290611b39565b80601f016020809104026020016040519081016040528092919081815260200182805461043e90611b39565b801561048b5780601f106104605761010080835404028352916020019161048b565b820191906000526020600020905b81548152906001019060200180831161046e57829003601f168201915b5050505050905061049f8188888887610b14565b91505095945050505050565b6000600660009054906101000a900473ffffffffffffffffffffffffffffffffffffffff16905090565b6060600080600090506000805b60208360ff161080156105345750600060f81b868460ff166020811061050b5761050a611b6b565b5b1a60f81b7effffffffffffffffffffffffffffffffffffffffffffffffffffffffffffff191614155b1561054c57828061054490611bc9565b9350506104e2565b600060018461055b9190611bf3565b905060008160ff1667ffffffffffffffff81111561057c5761057b611c27565b5b6040519080825280601f01601f1916602001820160405280156105ae5781602001600182028036833780820191505090505b509050600094505b60208560ff161080156106085750600060f81b888660ff16602081106105df576105de611b6b565b5b1a60f81b7effffffffffffffffffffffffffffffffffffffffffffffffffffffffffffff191614155b156106d6578160ff168560ff16101561067b57878560ff166020811061063157610630611b6b565b5b1a60f81b818660ff168151811061064b5761064a611b6b565b5b60200101907effffffffffffffffffffffffffffffffffffffffffffffffffffffffffffff1916908160001a9053505b6030888660ff166020811061069357610692611b6b565b5b1a60f81b60f81c6106a49190611bf3565b93508360ff16600a846106b79190611c60565b6106c19190611cba565b925084806106ce90611bc9565b9550506105b6565b80600a846106e49190611d3f565b965096505050505050915091565b6106fa610967565b73ffffffffffffffffffffffffffffffffffffffff166107186104ab565b73ffffffffffffffffffffffffffffffffffffffff161461076e576040517f08c379a000000000000000000000000000000000000000000000000000000000815260040161076590611a6e565b60405180910390fd5b600073ffffffffffffffffffffffffffffffffffffffff168173ffffffffffffffffffffffffffffffffffffffff1614156107de576040517f08c379a00000000000000000000000000000000000000000000000000000000081526004016107d590611de2565b60405180910390fd5b6107e78161096f565b50565b600080600a86866040516107ff929190611ac2565b908152602001604051809103902060000160009054906101000a900460ff16905060008160ff161415610867576040517f08c379a000000000000000000000000000000000000000000000000000000000815260040161085e90611e4e565b60405180910390fd5b60008360ff1614156108bf576000600181111561088757610886611adb565b5b84600181111561089a57610899611adb565b5b14156108af5760018160ff161491505061095f565b60018160ff16141591505061095f565b60018360ff16141561091757600060018111156108df576108de611adb565b5b8460018111156108f2576108f1611adb565b5b14156109075760038160ff161491505061095f565b60038160ff16141591505061095f565b6000600181111561092b5761092a611adb565b5b84600181111561093e5761093d611adb565b5b14156109535760028160ff161491505061095f565b60028160ff1614159150505b949350505050565b600033905090565b6000600660009054906101000a900473ffffffffffffffffffffffffffffffffffffffff16905081600660006101000a81548173ffffffffffffffffffffffffffffffffffffffff021916908373ffffffffffffffffffffffffffffffffffffffff1602179055508173ffffffffffffffffffffffffffffffffffffffff168173ffffffffffffffffffffffffffffffffffffffff167f8be0079c531659141344cd1fd0a4f28419497f9722a3daafe3b4186f6b6457e060405160405180910390a35050565b600080610a4c6008543063042f2b6560e01b610c5f565b9050610adc6040518060400160405280600981526020017f666978747572654964000000000000000000000000000000000000000000000081525085858080601f016020809104026020016040519081016040528093929190818152602001838380828437600081840152601f19601f8201169050808301925050505050505083610c909092919063ffffffff16565b610b0b600760009054906101000a900473ffffffffffffffffffffffffffffffffffffffff1682600954610cc3565b91505092915050565b60008060003073ffffffffffffffffffffffffffffffffffffffff16888051906020012088888888604051602401610b4f9493929190611ee3565b604051602081830303815290604052907bffffffffffffffffffffffffffffffffffffffffffffffffffffffff19166020820180517bffffffffffffffffffffffffffffffffffffffffffffffffffffffff8381831617835250505050604051610bb99190611f6a565b600060405180830381855af49150503d8060008114610bf4576040519150601f19603f3d011682016040523d82523d6000602084013e610bf9565b606091505b509150915081610c3e576040517f08c379a0000000000000000000000000000000000000000000000000000000008152600401610c3590611fcd565b60405180910390fd5b80806020019051810190610c529190612019565b9250505095945050505050565b610c67611462565b610c6f611462565b610c8685858584610ce3909392919063ffffffff16565b9150509392505050565b610ca7828460800151610d9390919063ffffffff16565b610cbe818460800151610d9390919063ffffffff16565b505050565b6000610cda8484846001634042994660e01b610db8565b90509392505050565b610ceb611462565b610cfb8560800151610100611020565b508385600001818152505082856020019073ffffffffffffffffffffffffffffffffffffffff16908173ffffffffffffffffffffffffffffffffffffffff16815250508185604001907bffffffffffffffffffffffffffffffffffffffffffffffffffffffff191690817bffffffffffffffffffffffffffffffffffffffffffffffffffffffff191681525050849050949350505050565b610da0826003835161108a565b610db381836111cf90919063ffffffff16565b505050565b600030600454604051602001610dcf9291906120ff565b604051602081830303815290604052805190602001209050600454856060018181525050856005600083815260200190815260200160002060006101000a81548173ffffffffffffffffffffffffffffffffffffffff021916908373ffffffffffffffffffffffffffffffffffffffff160217905550807fb5e6e01e79f91267dc17b4e6314d5d4d03593d2ceee0fbb452b750bd70ea5af960405160405180910390a2600082600080886000015189602001518a604001518b606001518a8d6080015160000151604051602401610ead9897969594939291906121ce565b604051602081830303815290604052907bffffffffffffffffffffffffffffffffffffffffffffffffffffffff19166020820180517bffffffffffffffffffffffffffffffffffffffffffffffffffffffff83818316178352505050509050600260009054906101000a900473ffffffffffffffffffffffffffffffffffffffff1673ffffffffffffffffffffffffffffffffffffffff16634000aea08887846040518463ffffffff1660e01b8152600401610f6b93929190612253565b602060405180830381600087803b158015610f8557600080fd5b505af1158015610f99573d6000803e3d6000fd5b505050506040513d601f19601f82011682018060405250810190610fbd9190612019565b610ffc576040517f08c379a0000000000000000000000000000000000000000000000000000000008152600401610ff390612303565b60405180910390fd5b60016004600082825461100f9190611cba565b925050819055505095945050505050565b6110286114cf565b60006020836110379190611d3f565b14611063576020826110499190611d3f565b60206110559190612323565b826110609190611cba565b91505b81836020018181525050604051808452600081528281016020016040525082905092915050565b601781116110b7576110b18160058460ff16901b60ff1617846111f190919063ffffffff16565b506111ca565b60ff81116110f9576110dc601860058460ff16901b17846111f190919063ffffffff16565b506110f3816001856112119092919063ffffffff16565b506111c9565b61ffff811161113c5761111f601960058460ff16901b17846111f190919063ffffffff16565b50611136816002856112119092919063ffffffff16565b506111c8565b63ffffffff811161118157611164601a60058460ff16901b17846111f190919063ffffffff16565b5061117b816004856112119092919063ffffffff16565b506111c7565b67ffffffffffffffff81116111c6576111ad601b60058460ff16901b17846111f190919063ffffffff16565b506111c4816008856112119092919063ffffffff16565b505b5b5b5b5b505050565b6111d76114cf565b6111e983846000015151848551611233565b905092915050565b6111f96114cf565b611209838460000151518461133d565b905092915050565b6112196114cf565b61122a848560000151518585611394565b90509392505050565b61123b6114cf565b825182111561124957600080fd5b8460200151828561125a9190611cba565b111561128f5761128e85600261127f8860200151888761127a9190611cba565b611422565b6112899190611c60565b61143e565b5b6000808651805187602083010193508088870111156112ae5787860182525b60208701925050505b602084106112f557805182526020826112d09190611cba565b91506020816112df9190611cba565b90506020846112ee9190612323565b93506112b7565b600060018560206113069190612323565b610100611313919061248a565b61131d9190612323565b905080198251168184511681811785525050879350505050949350505050565b6113456114cf565b8360200151831061136b5761136a84600286602001516113659190611c60565b61143e565b5b8351805160208583010184815381861415611387576001820183525b5050508390509392505050565b61139c6114cf565b846020015184836113ad9190611cba565b11156113d5576113d485600286856113c59190611cba565b6113cf9190611c60565b61143e565b5b60006001836101006113e7919061248a565b6113f19190612323565b905085518386820101858319825116178152815185880111156114145784870182525b505085915050949350505050565b60008183111561143457829050611438565b8190505b92915050565b6000826000015190506114518383611020565b5061145c83826111cf565b50505050565b6040518060a0016040528060008019168152602001600073ffffffffffffffffffffffffffffffffffffffff16815260200160007bffffffffffffffffffffffffffffffffffffffffffffffffffffffff19168152602001600081526020016114c96114cf565b81525090565b604051806040016040528060608152602001600081525090565b600080fd5b600080fd5b6000819050919050565b611506816114f3565b811461151157600080fd5b50565b600081359050611523816114fd565b92915050565b600080604083850312156115405761153f6114e9565b5b600061154e85828601611514565b925050602061155f85828601611514565b9150509250929050565b600080fd5b600080fd5b600080fd5b60008083601f84011261158e5761158d611569565b5b8235905067ffffffffffffffff8111156115ab576115aa61156e565b5b6020830191508360018202830111156115c7576115c6611573565b5b9250929050565b600281106115db57600080fd5b50565b6000813590506115ed816115ce565b92915050565b6003811061160057600080fd5b50565b600081359050611612816115f3565b92915050565b600060ff82169050919050565b61162e81611618565b811461163957600080fd5b50565b60008135905061164b81611625565b92915050565b60008060008060006080868803121561166d5761166c6114e9565b5b600086013567ffffffffffffffff81111561168b5761168a6114ee565b5b61169788828901611578565b955095505060206116aa888289016115de565b93505060406116bb88828901611603565b92505060606116cc8882890161163c565b9150509295509295909350565b60008115159050919050565b6116ee816116d9565b82525050565b600060208201905061170960008301846116e5565b92915050565b600073ffffffffffffffffffffffffffffffffffffffff82169050919050565b600061173a8261170f565b9050919050565b61174a8161172f565b82525050565b60006020820190506117656000830184611741565b92915050565b600060208284031215611781576117806114e9565b5b600061178f84828501611514565b91505092915050565b600081519050919050565b600082825260208201905092915050565b60005b838110156117d25780820151818401526020810190506117b7565b838111156117e1576000848401525b50505050565b6000601f19601f8301169050919050565b600061180382611798565b61180d81856117a3565b935061181d8185602086016117b4565b611826816117e7565b840191505092915050565b61183a81611618565b82525050565b6000604082019050818103600083015261185a81856117f8565b90506118696020830184611831565b9392505050565b6118798161172f565b811461188457600080fd5b50565b60008135905061189681611870565b92915050565b6000602082840312156118b2576118b16114e9565b5b60006118c084828501611887565b91505092915050565b600080600080606085870312156118e3576118e26114e9565b5b600085013567ffffffffffffffff811115611901576119006114ee565b5b61190d87828801611578565b94509450506020611920878288016115de565b92505060406119318782880161163c565b91505092959194509250565b7f536f75726365206d75737420626520746865206f7261636c65206f662074686560008201527f2072657175657374000000000000000000000000000000000000000000000000602082015250565b60006119996028836117a3565b91506119a48261193d565b604082019050919050565b600060208201905081810360008301526119c88161198c565b9050919050565b600081905092915050565b60006119e582611798565b6119ef81856119cf565b93506119ff8185602086016117b4565b80840191505092915050565b6000611a1782846119da565b915081905092915050565b7f4f776e61626c653a2063616c6c6572206973206e6f7420746865206f776e6572600082015250565b6000611a586020836117a3565b9150611a6382611a22565b602082019050919050565b60006020820190508181036000830152611a8781611a4b565b9050919050565b82818337600083830152505050565b6000611aa983856119cf565b9350611ab6838584611a8e565b82840190509392505050565b6000611acf828486611a9d565b91508190509392505050565b7f4e487b7100000000000000000000000000000000000000000000000000000000600052602160045260246000fd5b7f4e487b7100000000000000000000000000000000000000000000000000000000600052602260045260246000fd5b60006002820490506001821680611b5157607f821691505b60208210811415611b6557611b64611b0a565b5b50919050565b7f4e487b7100000000000000000000000000000000000000000000000000000000600052603260045260246000fd5b7f4e487b7100000000000000000000000000000000000000000000000000000000600052601160045260246000fd5b6000611bd482611618565b915060ff821415611be857611be7611b9a565b5b600182019050919050565b6000611bfe82611618565b9150611c0983611618565b925082821015611c1c57611c1b611b9a565b5b828203905092915050565b7f4e487b7100000000000000000000000000000000000000000000000000000000600052604160045260246000fd5b6000819050919050565b6000611c6b82611c56565b9150611c7683611c56565b9250817fffffffffffffffffffffffffffffffffffffffffffffffffffffffffffffffff0483118215151615611caf57611cae611b9a565b5b828202905092915050565b6000611cc582611c56565b9150611cd083611c56565b9250827fffffffffffffffffffffffffffffffffffffffffffffffffffffffffffffffff03821115611d0557611d04611b9a565b5b828201905092915050565b7f4e487b7100000000000000000000000000000000000000000000000000000000600052601260045260246000fd5b6000611d4a82611c56565b9150611d5583611c56565b925082611d6557611d64611d10565b5b828206905092915050565b7f4f776e61626c653a206e6577206f776e657220697320746865207a65726f206160008201527f6464726573730000000000000000000000000000000000000000000000000000602082015250565b6000611dcc6026836117a3565b9150611dd782611d70565b604082019050919050565b60006020820190508181036000830152611dfb81611dbf565b9050919050565b7f4e6f20726573756c740000000000000000000000000000000000000000000000600082015250565b6000611e386009836117a3565b9150611e4382611e02565b602082019050919050565b60006020820190508181036000830152611e6781611e2b565b9050919050565b6000611e7a83856117a3565b9350611e87838584611a8e565b611e90836117e7565b840190509392505050565b60028110611eac57611eab611adb565b5b50565b6000819050611ebd82611e9b565b919050565b6000611ecd82611eaf565b9050919050565b611edd81611ec2565b82525050565b60006060820190508181036000830152611efe818688611e6e565b9050611f0d6020830185611ed4565b611f1a6040830184611831565b95945050505050565b600081519050919050565b600081905092915050565b6000611f4482611f23565b611f4e8185611f2e565b9350611f5e8185602086016117b4565b80840191505092915050565b6000611f768284611f39565b915081905092915050565b7f43616c6c206661696c6564000000000000000000000000000000000000000000600082015250565b6000611fb7600b836117a3565b9150611fc282611f81565b602082019050919050565b60006020820190508181036000830152611fe681611faa565b9050919050565b611ff6816116d9565b811461200157600080fd5b50565b60008151905061201381611fed565b92915050565b60006020828403121561202f5761202e6114e9565b5b600061203d84828501612004565b91505092915050565b6000819050919050565b600061206b6120666120618461170f565b612046565b61170f565b9050919050565b600061207d82612050565b9050919050565b600061208f82612072565b9050919050565b60008160601b9050919050565b60006120ae82612096565b9050919050565b60006120c0826120a3565b9050919050565b6120d86120d382612084565b6120b5565b82525050565b6000819050919050565b6120f96120f482611c56565b6120de565b82525050565b600061210b82856120c7565b60148201915061211b82846120e8565b6020820191508190509392505050565b61213481611c56565b82525050565b612143816114f3565b82525050565b60007fffffffff0000000000000000000000000000000000000000000000000000000082169050919050565b61217e81612149565b82525050565b600082825260208201905092915050565b60006121a082611f23565b6121aa8185612184565b93506121ba8185602086016117b4565b6121c3816117e7565b840191505092915050565b6000610100820190506121e4600083018b611741565b6121f1602083018a61212b565b6121fe604083018961213a565b61220b6060830188611741565b6122186080830187612175565b61222560a083018661212b565b61223260c083018561212b565b81810360e08301526122448184612195565b90509998505050505050505050565b60006060820190506122686000830186611741565b612275602083018561212b565b81810360408301526122878184612195565b9050949350505050565b7f756e61626c6520746f207472616e73666572416e6443616c6c20746f206f726160008201527f636c650000000000000000000000000000000000000000000000000000000000602082015250565b60006122ed6023836117a3565b91506122f882612291565b604082019050919050565b6000602082019050818103600083015261231c816122e0565b9050919050565b600061232e82611c56565b915061233983611c56565b92508282101561234c5761234b611b9a565b5b828203905092915050565b60008160011c9050919050565b6000808291508390505b60018511156123ae5780860481111561238a57612389611b9a565b5b60018516156123995780820291505b80810290506123a785612357565b945061236e565b94509492505050565b6000826123c75760019050612483565b816123d55760009050612483565b81600181146123eb57600281146123f557612424565b6001915050612483565b60ff84111561240757612406611b9a565b5b8360020a91508482111561241e5761241d611b9a565b5b50612483565b5060208310610133831016604e8410600b84101617156124595782820a90508381111561245457612453611b9a565b5b612483565b6124668484846001612364565b9250905081840481111561247d5761247c611b9a565b5b81810290505b9392505050565b600061249582611c56565b91506124a083611c56565b92506124cd7fffffffffffffffffffffffffffffffffffffffffffffffffffffffffffffffff84846123b7565b90509291505056fea26469706673582212206ab8224c83174899449f3067e82f398f725a09d88535c982228ae19262ac702364736f6c634300080900336861734d6174636857696e6e6572576f6e28737472696e672c75696e74382c75696e743829",
  "linkReferences": {},
  "deployedLinkReferences": {}
}