{
  "_format": "hh-sol-artifact-1",
  "contractName": "Betting",
  "sourceName": "contracts/Betting.sol",
  "abi": [
    {
      "inputs": [
        {
          "internalType": "string",
          "name": "_objectId",
          "type": "string"
        },
        {
          "internalType": "contract SoccerResolver",
          "name": "_resolver",
          "type": "address"
        },
        {
          "internalType": "contract BetNFT",
          "name": "_betNFT",
          "type": "address"
        }
      ],
      "stateMutability": "nonpayable",
      "type": "constructor"
    },
    {
      "inputs": [
        {
          "internalType": "uint256",
          "name": "amount",
          "type": "uint256"
        }
      ],
      "name": "AmountToLow",
      "type": "error"
    },
    {
      "inputs": [],
      "name": "GameAlreadyEnded",
      "type": "error"
    },
    {
      "inputs": [],
      "name": "GameNotEnded",
      "type": "error"
    },
    {
      "inputs": [
        {
          "internalType": "uint256",
          "name": "odds",
          "type": "uint256"
        }
      ],
      "name": "OddsToLow",
      "type": "error"
    },
    {
      "anonymous": false,
      "inputs": [
        {
          "indexed": false,
          "internalType": "uint256",
          "name": "tokenId",
          "type": "uint256"
        }
      ],
      "name": "BetMinted",
      "type": "event"
    },
    {
      "anonymous": false,
      "inputs": [
        {
          "indexed": false,
          "internalType": "enum BetSide",
          "name": "_betSide",
          "type": "uint8"
        },
        {
          "indexed": false,
          "internalType": "enum BetType",
          "name": "_betType",
          "type": "uint8"
        },
        {
          "indexed": false,
          "internalType": "uint8",
          "name": "_selection",
          "type": "uint8"
        },
        {
          "indexed": false,
          "internalType": "uint16",
          "name": "_odds",
          "type": "uint16"
        },
        {
          "indexed": false,
          "internalType": "uint256",
          "name": "_amount",
          "type": "uint256"
        },
        {
          "indexed": false,
          "internalType": "address",
          "name": "_fromAddr",
          "type": "address"
        }
      ],
      "name": "MatchedBetPlaced",
      "type": "event"
    },
    {
      "anonymous": false,
      "inputs": [
        {
          "indexed": true,
          "internalType": "address",
          "name": "previousOwner",
          "type": "address"
        },
        {
          "indexed": true,
          "internalType": "address",
          "name": "newOwner",
          "type": "address"
        }
      ],
      "name": "OwnershipTransferred",
      "type": "event"
    },
    {
      "anonymous": false,
      "inputs": [
        {
          "indexed": false,
          "internalType": "enum BetSide",
          "name": "_betSide",
          "type": "uint8"
        },
        {
          "indexed": false,
          "internalType": "enum BetType",
          "name": "_betType",
          "type": "uint8"
        },
        {
          "indexed": false,
          "internalType": "uint8",
          "name": "_selection",
          "type": "uint8"
        },
        {
          "indexed": false,
          "internalType": "uint16",
          "name": "_odds",
          "type": "uint16"
        },
        {
          "indexed": false,
          "internalType": "uint256",
          "name": "_amount",
          "type": "uint256"
        },
        {
          "indexed": false,
          "internalType": "address",
          "name": "_fromAddr",
          "type": "address"
        }
      ],
      "name": "UnmatchedBetPlaced",
      "type": "event"
    },
    {
      "anonymous": false,
      "inputs": [
        {
          "indexed": false,
          "internalType": "enum BetSide",
          "name": "_betSide",
          "type": "uint8"
        },
        {
          "indexed": false,
          "internalType": "enum BetType",
          "name": "_betType",
          "type": "uint8"
        },
        {
          "indexed": false,
          "internalType": "uint8",
          "name": "_selection",
          "type": "uint8"
        },
        {
          "indexed": false,
          "internalType": "uint16",
          "name": "_odds",
          "type": "uint16"
        },
        {
          "indexed": false,
          "internalType": "uint256",
          "name": "_amount",
          "type": "uint256"
        },
        {
          "indexed": false,
          "internalType": "address",
          "name": "_fromAddr",
          "type": "address"
        }
      ],
      "name": "UnmatchedBetRemoved",
      "type": "event"
    },
    {
      "anonymous": false,
      "inputs": [
        {
          "indexed": false,
          "internalType": "enum BetSide",
          "name": "_betSide",
          "type": "uint8"
        },
        {
          "indexed": false,
          "internalType": "enum BetType",
          "name": "_betType",
          "type": "uint8"
        },
        {
          "indexed": false,
          "internalType": "uint8",
          "name": "_selection",
          "type": "uint8"
        },
        {
          "indexed": false,
          "internalType": "uint16",
          "name": "_odds",
          "type": "uint16"
        },
        {
          "indexed": false,
          "internalType": "uint256",
          "name": "_amount",
          "type": "uint256"
        },
        {
          "indexed": false,
          "internalType": "address",
          "name": "_fromAddr",
          "type": "address"
        }
      ],
      "name": "UnmatchedBetUpdated",
      "type": "event"
    },
    {
      "inputs": [],
      "name": "betNFT",
      "outputs": [
        {
          "internalType": "contract BetNFT",
          "name": "",
          "type": "address"
        }
      ],
      "stateMutability": "view",
      "type": "function"
    },
    {
      "inputs": [
        {
          "internalType": "enum BetType",
          "name": "_betType",
          "type": "uint8"
        },
        {
          "internalType": "uint8",
          "name": "_selection",
          "type": "uint8"
        },
        {
          "internalType": "uint16",
          "name": "_odds",
          "type": "uint16"
        },
        {
          "internalType": "uint256",
          "name": "_amount",
          "type": "uint256"
        }
      ],
      "name": "createBackBet",
      "outputs": [],
      "stateMutability": "payable",
      "type": "function"
    },
    {
      "inputs": [
        {
          "internalType": "enum BetType",
          "name": "_betType",
          "type": "uint8"
        },
        {
          "internalType": "uint8",
          "name": "_selection",
          "type": "uint8"
        },
        {
          "internalType": "uint16",
          "name": "_odds",
          "type": "uint16"
        },
        {
          "internalType": "uint256",
          "name": "_amount",
          "type": "uint256"
        }
      ],
      "name": "createLayBet",
      "outputs": [],
      "stateMutability": "payable",
      "type": "function"
    },
    {
      "inputs": [],
      "name": "owner",
      "outputs": [
        {
          "internalType": "address",
          "name": "",
          "type": "address"
        }
      ],
      "stateMutability": "view",
      "type": "function"
    },
    {
      "inputs": [
        {
          "internalType": "enum BetSide",
          "name": "_betSide",
          "type": "uint8"
        },
        {
          "internalType": "enum BetType",
          "name": "_betType",
          "type": "uint8"
        },
        {
          "internalType": "uint8",
          "name": "_selection",
          "type": "uint8"
        },
        {
          "internalType": "uint16",
          "name": "_odds",
          "type": "uint16"
        },
        {
          "internalType": "uint256",
          "name": "_amount",
          "type": "uint256"
        }
      ],
      "name": "removeUnmatchedBet",
      "outputs": [],
      "stateMutability": "nonpayable",
      "type": "function"
    },
    {
      "inputs": [],
      "name": "renounceOwnership",
      "outputs": [],
      "stateMutability": "nonpayable",
      "type": "function"
    },
    {
      "inputs": [],
      "name": "resolver",
      "outputs": [
        {
          "internalType": "contract SoccerResolver",
          "name": "",
          "type": "address"
        }
      ],
      "stateMutability": "view",
      "type": "function"
    },
    {
      "inputs": [
        {
          "internalType": "enum BetSide",
          "name": "_betSide",
          "type": "uint8"
        },
        {
          "internalType": "enum BetType",
          "name": "_betType",
          "type": "uint8"
        },
        {
          "internalType": "uint8",
          "name": "_selection",
          "type": "uint8"
        },
        {
          "internalType": "uint16",
          "name": "_odds",
          "type": "uint16"
        },
        {
          "internalType": "string",
          "name": "_tokenURI",
          "type": "string"
        }
      ],
      "name": "transferBetToNFT",
      "outputs": [
        {
          "internalType": "uint256",
          "name": "",
          "type": "uint256"
        }
      ],
      "stateMutability": "nonpayable",
      "type": "function"
    },
    {
      "inputs": [
        {
          "internalType": "address",
          "name": "newOwner",
          "type": "address"
        }
      ],
      "name": "transferOwnership",
      "outputs": [],
      "stateMutability": "nonpayable",
      "type": "function"
    },
    {
      "inputs": [
        {
          "internalType": "uint256",
          "name": "",
          "type": "uint256"
        }
      ],
      "name": "usedBetTypes",
      "outputs": [
        {
          "internalType": "enum BetType",
          "name": "",
          "type": "uint8"
        }
      ],
      "stateMutability": "view",
      "type": "function"
    },
    {
      "inputs": [],
      "name": "withdraw",
      "outputs": [],
      "stateMutability": "nonpayable",
      "type": "function"
    },
    {
      "inputs": [
        {
          "internalType": "uint256",
          "name": "tokenId",
          "type": "uint256"
        }
      ],
      "name": "withdrawWithNFT",
      "outputs": [],
      "stateMutability": "nonpayable",
      "type": "function"
    }
  ],
  "bytecode": "0x60806040523480156200001157600080fd5b5060405162003e5238038062003e52833981810160405281019062000037919062000551565b620000576200004b6200017a60201b60201c565b6200018260201b60201c565b33600160000160006101000a81548173ffffffffffffffffffffffffffffffffffffffff021916908373ffffffffffffffffffffffffffffffffffffffff16021790555082600180019080519060200190620000b592919062000246565b506000600160020160006101000a81548160ff02191690836001811115620000e257620000e1620005cc565b5b021790555081600460006101000a81548173ffffffffffffffffffffffffffffffffffffffff021916908373ffffffffffffffffffffffffffffffffffffffff16021790555080600560006101000a81548173ffffffffffffffffffffffffffffffffffffffff021916908373ffffffffffffffffffffffffffffffffffffffff160217905550600060068190555050505062000660565b600033905090565b60008060009054906101000a900473ffffffffffffffffffffffffffffffffffffffff169050816000806101000a81548173ffffffffffffffffffffffffffffffffffffffff021916908373ffffffffffffffffffffffffffffffffffffffff1602179055508173ffffffffffffffffffffffffffffffffffffffff168173ffffffffffffffffffffffffffffffffffffffff167f8be0079c531659141344cd1fd0a4f28419497f9722a3daafe3b4186f6b6457e060405160405180910390a35050565b82805462000254906200062a565b90600052602060002090601f016020900481019282620002785760008555620002c4565b82601f106200029357805160ff1916838001178555620002c4565b82800160010185558215620002c4579182015b82811115620002c3578251825591602001919060010190620002a6565b5b509050620002d39190620002d7565b5090565b5b80821115620002f2576000816000905550600101620002d8565b5090565b6000604051905090565b600080fd5b600080fd5b600080fd5b600080fd5b6000601f19601f8301169050919050565b7f4e487b7100000000000000000000000000000000000000000000000000000000600052604160045260246000fd5b6200035f8262000314565b810181811067ffffffffffffffff8211171562000381576200038062000325565b5b80604052505050565b600062000396620002f6565b9050620003a4828262000354565b919050565b600067ffffffffffffffff821115620003c757620003c662000325565b5b620003d28262000314565b9050602081019050919050565b60005b83811015620003ff578082015181840152602081019050620003e2565b838111156200040f576000848401525b50505050565b60006200042c6200042684620003a9565b6200038a565b9050828152602081018484840111156200044b576200044a6200030f565b5b62000458848285620003df565b509392505050565b600082601f8301126200047857620004776200030a565b5b81516200048a84826020860162000415565b91505092915050565b600073ffffffffffffffffffffffffffffffffffffffff82169050919050565b6000620004c08262000493565b9050919050565b6000620004d482620004b3565b9050919050565b620004e681620004c7565b8114620004f257600080fd5b50565b6000815190506200050681620004db565b92915050565b60006200051982620004b3565b9050919050565b6200052b816200050c565b81146200053757600080fd5b50565b6000815190506200054b8162000520565b92915050565b6000806000606084860312156200056d576200056c62000300565b5b600084015167ffffffffffffffff8111156200058e576200058d62000305565b5b6200059c8682870162000460565b9350506020620005af86828701620004f5565b9250506040620005c2868287016200053a565b9150509250925092565b7f4e487b7100000000000000000000000000000000000000000000000000000000600052602160045260246000fd5b7f4e487b7100000000000000000000000000000000000000000000000000000000600052602260045260246000fd5b600060028204905060018216806200064357607f821691505b602082108114156200065a5762000659620005fb565b5b50919050565b6137e280620006706000396000f3fe6080604052600436106100a75760003560e01c8063715018a611610064578063715018a61461019b5780638da5cb5b146101b2578063cc2b1e47146101dd578063d3f0ac64146101f9578063f2b9629814610222578063f2fde38b1461025f576100a7565b806304f3bcec146100ac578063204ab184146100d75780633ccfd60b146101145780634323d1e31461012b5780635d63dc18146101545780636920f52b14610170575b600080fd5b3480156100b857600080fd5b506100c1610288565b6040516100ce919061287a565b60405180910390f35b3480156100e357600080fd5b506100fe60048036038101906100f99190612aac565b6102ae565b60405161010b9190612b5c565b60405180910390f35b34801561012057600080fd5b506101296108fb565b005b34801561013757600080fd5b50610152600480360381019061014d9190612ba3565b610945565b005b61016e60048036038101906101699190612bd0565b610af4565b005b34801561017c57600080fd5b50610185610c7b565b6040516101929190612c58565b60405180910390f35b3480156101a757600080fd5b506101b0610ca1565b005b3480156101be57600080fd5b506101c7610d29565b6040516101d49190612c94565b60405180910390f35b6101f760048036038101906101f29190612bd0565b610d52565b005b34801561020557600080fd5b50610220600480360381019061021b9190612caf565b610eac565b005b34801561022e57600080fd5b5061024960048036038101906102449190612ba3565b611229565b6040516102569190612da1565b60405180910390f35b34801561026b57600080fd5b5061028660048036038101906102819190612de8565b61125d565b005b600460009054906101000a900473ffffffffffffffffffffffffffffffffffffffff1681565b6000806000905060005b600860008960018111156102cf576102ce612d2a565b5b60018111156102e1576102e0612d2a565b5b8152602001908152602001600020600088600281111561030457610303612d2a565b5b600281111561031657610315612d2a565b5b815260200190815260200160002060008760ff1660ff168152602001908152602001600020805490508110156105de573373ffffffffffffffffffffffffffffffffffffffff16600860008a600181111561037457610373612d2a565b5b600181111561038657610385612d2a565b5b815260200190815260200160002060008960028111156103a9576103a8612d2a565b5b60028111156103bb576103ba612d2a565b5b815260200190815260200160002060008860ff1660ff16815260200190815260200160002082815481106103f2576103f1612e15565b5b906000526020600020906002020160010160029054906101000a900473ffffffffffffffffffffffffffffffffffffffff1673ffffffffffffffffffffffffffffffffffffffff1614801561050257508461ffff16600860008a600181111561045e5761045d612d2a565b5b60018111156104705761046f612d2a565b5b8152602001908152602001600020600089600281111561049357610492612d2a565b5b60028111156104a5576104a4612d2a565b5b815260200190815260200160002060008860ff1660ff16815260200190815260200160002082815481106104dc576104db612e15565b5b906000526020600020906002020160010160009054906101000a900461ffff1661ffff16145b156105cb576001600860008a60018111156105205761051f612d2a565b5b600181111561053257610531612d2a565b5b8152602001908152602001600020600089600281111561055557610554612d2a565b5b600281111561056757610566612d2a565b5b815260200190815260200160002060008860ff1660ff168152602001908152602001600020828154811061059e5761059d612e15565b5b906000526020600020906002020160010160166101000a81548160ff021916908315150217905550600191505b80806105d690612e73565b9150506102b8565b508061061f576040517f08c379a000000000000000000000000000000000000000000000000000000000815260040161061690612f19565b60405180910390fd5b600060065490506006600081548092919061063990612e73565b9190505550600061064d8989898933611355565b9050600560009054906101000a900473ffffffffffffffffffffffffffffffffffffffff1673ffffffffffffffffffffffffffffffffffffffff1663e86f6367338360018001868a6040518663ffffffff1660e01b81526004016106b59594939291906130a6565b600060405180830381600087803b1580156106cf57600080fd5b505af11580156106e3573d6000803e3d6000fd5b50505050600960008a60018111156106fe576106fd612d2a565b5b60018111156107105761070f612d2a565b5b8152602001908152602001600020600089600281111561073357610732612d2a565b5b600281111561074557610744612d2a565b5b815260200190815260200160002060008860ff1660ff16815260200190815260200160002060008761ffff1661ffff16815260200190815260200160002060003373ffffffffffffffffffffffffffffffffffffffff1673ffffffffffffffffffffffffffffffffffffffff16815260200190815260200160002054600a600083815260200190815260200160002081905550600960008a60018111156107ef576107ee612d2a565b5b600181111561080157610800612d2a565b5b8152602001908152602001600020600089600281111561082457610823612d2a565b5b600281111561083657610835612d2a565b5b815260200190815260200160002060008860ff1660ff16815260200190815260200160002060008761ffff1661ffff16815260200190815260200160002060003373ffffffffffffffffffffffffffffffffffffffff1673ffffffffffffffffffffffffffffffffffffffff168152602001908152602001600020600090557f485576c07f0e3d474fe3dd45278bf1290367e047a88a21a9b4d343547d951a8f816040516108e49190612b5c565b60405180910390a180935050505095945050505050565b6000600181111561090f5761090e612d2a565b5b600160020160009054906101000a900460ff16600181111561093457610933612d2a565b5b14156109435761094261139d565b5b565b6000600181111561095957610958612d2a565b5b600160020160009054906101000a900460ff16600181111561097e5761097d612d2a565b5b14156109b6576040517f8f86c6b300000000000000000000000000000000000000000000000000000000815260040160405180910390fd5b6109bf81611a63565b6000600b600083815260200190815260200160002060009054906101000a900460ff1690506109ed81611afc565b600560009054906101000a900473ffffffffffffffffffffffffffffffffffffffff1673ffffffffffffffffffffffffffffffffffffffff1663ac7aae4233846040518363ffffffff1660e01b8152600401610a4a929190613107565b600060405180830381600087803b158015610a6457600080fd5b505af1158015610a78573d6000803e3d6000fd5b5050505080610abc576040517f08c379a0000000000000000000000000000000000000000000000000000000008152600401610ab39061317c565b60405180910390fd5b610ad933600a600085815260200190815260200160002054611b95565b600a6000838152602001908152602001600020600090555050565b600180811115610b0757610b06612d2a565b5b600160020160009054906101000a900460ff166001811115610b2c57610b2b612d2a565b5b1415610b64576040517f919142bc00000000000000000000000000000000000000000000000000000000815260040160405180910390fd5b3460008111610baa57806040517fd59f5ff0000000000000000000000000000000000000000000000000000000008152600401610ba19190612b5c565b60405180910390fd5b8261ffff166103e88111610bf557806040517fa0c5f30c000000000000000000000000000000000000000000000000000000008152600401610bec9190612b5c565b60405180910390fd5b60006103e88086610c06919061319c565b61ffff1685610c1591906131d0565b610c1f9190613259565b9050348114610c63576040517f08c379a0000000000000000000000000000000000000000000000000000000008152600401610c5a906132fc565b60405180910390fd5b610c7260018888888833611be0565b50505050505050565b600560009054906101000a900473ffffffffffffffffffffffffffffffffffffffff1681565b610ca9612003565b73ffffffffffffffffffffffffffffffffffffffff16610cc7610d29565b73ffffffffffffffffffffffffffffffffffffffff1614610d1d576040517f08c379a0000000000000000000000000000000000000000000000000000000008152600401610d1490613368565b60405180910390fd5b610d27600061200b565b565b60008060009054906101000a900473ffffffffffffffffffffffffffffffffffffffff16905090565b600180811115610d6557610d64612d2a565b5b600160020160009054906101000a900460ff166001811115610d8a57610d89612d2a565b5b1415610dc2576040517f919142bc00000000000000000000000000000000000000000000000000000000815260040160405180910390fd5b3460008111610e0857806040517fd59f5ff0000000000000000000000000000000000000000000000000000000008152600401610dff9190612b5c565b60405180910390fd5b8261ffff166103e88111610e5357806040517fa0c5f30c000000000000000000000000000000000000000000000000000000008152600401610e4a9190612b5c565b60405180910390fd5b348314610e95576040517f08c379a0000000000000000000000000000000000000000000000000000000008152600401610e8c906133fa565b60405180910390fd5b610ea460008787878733611be0565b505050505050565b600060076000876001811115610ec557610ec4612d2a565b5b6001811115610ed757610ed6612d2a565b5b81526020019081526020016000206000866002811115610efa57610ef9612d2a565b5b6002811115610f0c57610f0b612d2a565b5b815260200190815260200160002060008560ff1660ff16815260200190815260200160002060008461ffff1661ffff168152602001908152602001600020805480602002602001604051908101604052809291908181526020016000905b82821015610ffc5783829060005260206000209060020201604051806040016040529081600082015481526020016001820160009054906101000a900473ffffffffffffffffffffffffffffffffffffffff1673ffffffffffffffffffffffffffffffffffffffff1673ffffffffffffffffffffffffffffffffffffffff168152505081526020019060010190610f6a565b5050505090506000805b82518110156111df573373ffffffffffffffffffffffffffffffffffffffff1683828151811061103957611038612e15565b5b60200260200101516020015173ffffffffffffffffffffffffffffffffffffffff1614801561108557508383828151811061107757611076612e15565b5b602002602001015160000151145b156111cc57600191507fb6c54b102e4bccaa4d9fa4a2ac89bdb9bffc6aecbdfc3baacf7cb16425c577dc8888888888336040516110c796959493929190613480565b60405180910390a16110d93385611b95565b600760008960018111156110f0576110ef612d2a565b5b600181111561110257611101612d2a565b5b8152602001908152602001600020600088600281111561112557611124612d2a565b5b600281111561113757611136612d2a565b5b815260200190815260200160002060008760ff1660ff16815260200190815260200160002060008661ffff1661ffff168152602001908152602001600020818154811061118757611186612e15565b5b90600052602060002090600202016000808201600090556001820160006101000a81549073ffffffffffffffffffffffffffffffffffffffff021916905550506111df565b80806111d790612e73565b915050611006565b5080611220576040517f08c379a00000000000000000000000000000000000000000000000000000000081526004016112179061352d565b60405180910390fd5b50505050505050565b600c818154811061123957600080fd5b9060005260206000209060209182820401919006915054906101000a900460ff1681565b611265612003565b73ffffffffffffffffffffffffffffffffffffffff16611283610d29565b73ffffffffffffffffffffffffffffffffffffffff16146112d9576040517f08c379a00000000000000000000000000000000000000000000000000000000081526004016112d090613368565b60405180910390fd5b600073ffffffffffffffffffffffffffffffffffffffff168173ffffffffffffffffffffffffffffffffffffffff161415611349576040517f08c379a0000000000000000000000000000000000000000000000000000000008152600401611340906135bf565b60405180910390fd5b6113528161200b565b50565b6000610fff600180018388888888604051602001611378969594939291906135df565b6040516020818303038152906040528051906020012060001c16905095945050505050565b60018060020160006101000a81548160ff021916908360018111156113c5576113c4612d2a565b5b021790555060005b600c80549050811015611a60576000600c82815481106113f0576113ef612e15565b5b90600052602060002090602091828204019190069054906101000a900460ff16905060005b600d600083600281111561142c5761142b612d2a565b5b600281111561143e5761143d612d2a565b5b815260200190815260200160002080549050811015611a4b576000600d60008460028111156114705761146f612d2a565b5b600281111561148257611481612d2a565b5b815260200190815260200160002082815481106114a2576114a1612e15565b5b90600052602060002090602091828204019190069054906101000a900460ff1690506000600460009054906101000a900473ffffffffffffffffffffffffffffffffffffffff1673ffffffffffffffffffffffffffffffffffffffff16637450666260018001600087866040518563ffffffff1660e01b815260040161152b9493929190613647565b602060405180830381600087803b15801561154557600080fd5b505af1158015611559573d6000803e3d6000fd5b505050506040513d601f19601f8201168201806040525081019061157d91906136cb565b905060006001151582151514611594576001611597565b60005b90506000600860008360018111156115b2576115b1612d2a565b5b60018111156115c4576115c3612d2a565b5b815260200190815260200160002060008760028111156115e7576115e6612d2a565b5b60028111156115f9576115f8612d2a565b5b815260200190815260200160002060008560ff1660ff168152602001908152602001600020805480602002602001604051908101604052809291908181526020016000905b8282101561170b5783829060005260206000209060020201604051806080016040529081600082015481526020016001820160009054906101000a900461ffff1661ffff1661ffff1681526020016001820160029054906101000a900473ffffffffffffffffffffffffffffffffffffffff1673ffffffffffffffffffffffffffffffffffffffff1673ffffffffffffffffffffffffffffffffffffffff1681526020016001820160169054906101000a900460ff1615151515815250508152602001906001019061163e565b50505050905060005b8151811015611a33578181815181106117305761172f612e15565b5b602002602001015160600151156117c957600061178c84898886868151811061175c5761175b612e15565b5b60200260200101516020015187878151811061177b5761177a612e15565b5b602002602001015160400151611355565b905061179781611a63565b6001600b600083815260200190815260200160002060006101000a81548160ff02191690831515021790555050611a20565b6119068282815181106117df576117de612e15565b5b6020026020010151604001516009600086600181111561180257611801612d2a565b5b600181111561181457611813612d2a565b5b815260200190815260200160002060008a600281111561183757611836612d2a565b5b600281111561184957611848612d2a565b5b815260200190815260200160002060008860ff1660ff168152602001908152602001600020600085858151811061188357611882612e15565b5b60200260200101516020015161ffff1661ffff16815260200190815260200160002060008585815181106118ba576118b9612e15565b5b60200260200101516040015173ffffffffffffffffffffffffffffffffffffffff1673ffffffffffffffffffffffffffffffffffffffff16815260200190815260200160002054611b95565b6009600084600181111561191d5761191c612d2a565b5b600181111561192f5761192e612d2a565b5b8152602001908152602001600020600088600281111561195257611951612d2a565b5b600281111561196457611963612d2a565b5b815260200190815260200160002060008660ff1660ff168152602001908152602001600020600083838151811061199e5761199d612e15565b5b60200260200101516020015161ffff1661ffff16815260200190815260200160002060008383815181106119d5576119d4612e15565b5b60200260200101516040015173ffffffffffffffffffffffffffffffffffffffff1673ffffffffffffffffffffffffffffffffffffffff168152602001908152602001600020600090555b8080611a2b90612e73565b915050611714565b50505050508080611a4390612e73565b915050611415565b50508080611a5890612e73565b9150506113cd565b50565b611af981604051602401611a779190612b5c565b6040516020818303038152906040527ff5b1bba9000000000000000000000000000000000000000000000000000000007bffffffffffffffffffffffffffffffffffffffffffffffffffffffff19166020820180517bffffffffffffffffffffffffffffffffffffffffffffffffffffffff83818316178352505050506120cf565b50565b611b9281604051602401611b109190613707565b6040516020818303038152906040527f32458eed000000000000000000000000000000000000000000000000000000007bffffffffffffffffffffffffffffffffffffffffffffffffffffffff19166020820180517bffffffffffffffffffffffffffffffffffffffffffffffffffffffff83818316178352505050506120cf565b50565b8173ffffffffffffffffffffffffffffffffffffffff166108fc829081150290604051600060405180830381858888f19350505050158015611bdb573d6000803e3d6000fd5b505050565b6000866001811115611bf557611bf4612d2a565b5b60006001811115611c0957611c08612d2a565b5b14611c15576000611c18565b60015b9050600060076000836001811115611c3357611c32612d2a565b5b6001811115611c4557611c44612d2a565b5b81526020019081526020016000206000886002811115611c6857611c67612d2a565b5b6002811115611c7a57611c79612d2a565b5b815260200190815260200160002060008760ff1660ff16815260200190815260200160002060008661ffff1661ffff168152602001908152602001600020805480602002602001604051908101604052809291908181526020016000905b82821015611d6a5783829060005260206000209060020201604051806040016040529081600082015481526020016001820160009054906101000a900473ffffffffffffffffffffffffffffffffffffffff1673ffffffffffffffffffffffffffffffffffffffff1673ffffffffffffffffffffffffffffffffffffffff168152505081526020019060010190611cd8565b505050509050600081511415611d8f57611d888888888888886120f8565b5050611ffb565b600084905060005b8251811015611fcf576000838281518110611db557611db4612e15565b5b602002602001015160000151831115611dfc57838281518110611ddb57611dda612e15565b5b60200260200101516000015190508083611df59190613722565b9250611e0e565b8290508083611e0b9190613722565b92505b611e3a858b8b8b85898881518110611e2957611e28612e15565b5b602002602001015160200151612284565b838281518110611e4d57611e4c612e15565b5b602002602001015160000151811415611ee9577fb6c54b102e4bccaa4d9fa4a2ac89bdb9bffc6aecbdfc3baacf7cb16425c577dc858b8b8b85898881518110611e9957611e98612e15565b5b602002602001015160200151604051611eb796959493929190613480565b60405180910390a1838281518110611ed257611ed1612e15565b5b60200260200101611ee16127cb565b815250611f9a565b80848381518110611efd57611efc612e15565b5b6020026020010151600001818151611f159190613722565b915081815250507f2d3c87b3a181302622e946eb34f10edb636e67a3df7beb58c472ac3feacb0668858b8b8b888781518110611f5457611f53612e15565b5b602002602001015160000151898881518110611f7357611f72612e15565b5b602002602001015160200151604051611f9196959493929190613480565b60405180910390a15b6000831415611fbb57611fb18b8b8b8b8b8b612284565b5050505050611ffb565b508080611fc790612e73565b915050611d97565b50611fe989898989858a611fe39190613722565b89612284565b611ff78989898985896120f8565b5050505b505050505050565b600033905090565b60008060009054906101000a900473ffffffffffffffffffffffffffffffffffffffff169050816000806101000a81548173ffffffffffffffffffffffffffffffffffffffff021916908373ffffffffffffffffffffffffffffffffffffffff1602179055508173ffffffffffffffffffffffffffffffffffffffff168173ffffffffffffffffffffffffffffffffffffffff167f8be0079c531659141344cd1fd0a4f28419497f9722a3daafe3b4186f6b6457e060405160405180910390a35050565b60008151905060006a636f6e736f6c652e6c6f679050602083016000808483855afa5050505050565b6007600087600181111561210f5761210e612d2a565b5b600181111561212157612120612d2a565b5b8152602001908152602001600020600086600281111561214457612143612d2a565b5b600281111561215657612155612d2a565b5b815260200190815260200160002060008560ff1660ff16815260200190815260200160002060008461ffff1661ffff16815260200190815260200160002060405180604001604052808481526020018373ffffffffffffffffffffffffffffffffffffffff1681525090806001815401808255809150506001900390600052602060002090600202016000909190919091506000820151816000015560208201518160010160006101000a81548173ffffffffffffffffffffffffffffffffffffffff021916908373ffffffffffffffffffffffffffffffffffffffff16021790555050507f983ea0a956e0fd28aee415ea0035b9e9ff87b3cca8a51a457e526c85c5b173ba86868686868660405161227496959493929190613480565b60405180910390a1505050505050565b600f600086600281111561229b5761229a612d2a565b5b60028111156122ad576122ac612d2a565b5b815260200190815260200160002060008560ff1660ff16815260200190815260200160002060009054906101000a900460ff166124b457600e60008660028111156122fb576122fa612d2a565b5b600281111561230d5761230c612d2a565b5b815260200190815260200160002060009054906101000a900460ff166123d257600c8590806001815401808255809150506001900390600052602060002090602091828204019190069091909190916101000a81548160ff0219169083600281111561237c5761237b612d2a565b5b02179055506001600e600087600281111561239a57612399612d2a565b5b60028111156123ac576123ab612d2a565b5b815260200190815260200160002060006101000a81548160ff0219169083151502179055505b600d60008660028111156123e9576123e8612d2a565b5b60028111156123fb576123fa612d2a565b5b81526020019081526020016000208490806001815401808255809150506001900390600052602060002090602091828204019190069091909190916101000a81548160ff021916908360ff1602179055506001600f600087600281111561246557612464612d2a565b5b600281111561247757612476612d2a565b5b815260200190815260200160002060008660ff1660ff16815260200190815260200160002060006101000a81548160ff0219169083151502179055505b6000829050600060018111156124cd576124cc612d2a565b5b8760018111156124e0576124df612d2a565b5b1415612511576103e880856124f5919061319c565b61ffff168461250491906131d0565b61250e9190613259565b90505b806009600089600181111561252957612528612d2a565b5b600181111561253b5761253a612d2a565b5b8152602001908152602001600020600088600281111561255e5761255d612d2a565b5b60028111156125705761256f612d2a565b5b815260200190815260200160002060008760ff1660ff16815260200190815260200160002060008661ffff1661ffff16815260200190815260200160002060008473ffffffffffffffffffffffffffffffffffffffff1673ffffffffffffffffffffffffffffffffffffffff16815260200190815260200160002060008282546125fa9190613756565b925050819055506008600088600181111561261857612617612d2a565b5b600181111561262a57612629612d2a565b5b8152602001908152602001600020600087600281111561264d5761264c612d2a565b5b600281111561265f5761265e612d2a565b5b815260200190815260200160002060008660ff1660ff16815260200190815260200160002060405180608001604052808581526020018661ffff1681526020018473ffffffffffffffffffffffffffffffffffffffff1681526020016000151581525090806001815401808255809150506001900390600052602060002090600202016000909190919091506000820151816000015560208201518160010160006101000a81548161ffff021916908361ffff16021790555060408201518160010160026101000a81548173ffffffffffffffffffffffffffffffffffffffff021916908373ffffffffffffffffffffffffffffffffffffffff16021790555060608201518160010160166101000a81548160ff02191690831515021790555050507fa6505fb4d47cd8da6f9fa27a9576fd9d76e171a408f045bad68b035dfc1348ad8787878787876040516127ba96959493929190613480565b60405180910390a150505050505050565b604051806040016040528060008152602001600073ffffffffffffffffffffffffffffffffffffffff1681525090565b600073ffffffffffffffffffffffffffffffffffffffff82169050919050565b6000819050919050565b600061284061283b612836846127fb565b61281b565b6127fb565b9050919050565b600061285282612825565b9050919050565b600061286482612847565b9050919050565b61287481612859565b82525050565b600060208201905061288f600083018461286b565b92915050565b6000604051905090565b600080fd5b600080fd5b600281106128b657600080fd5b50565b6000813590506128c8816128a9565b92915050565b600381106128db57600080fd5b50565b6000813590506128ed816128ce565b92915050565b600060ff82169050919050565b612909816128f3565b811461291457600080fd5b50565b60008135905061292681612900565b92915050565b600061ffff82169050919050565b6129438161292c565b811461294e57600080fd5b50565b6000813590506129608161293a565b92915050565b600080fd5b600080fd5b6000601f19601f8301169050919050565b7f4e487b7100000000000000000000000000000000000000000000000000000000600052604160045260246000fd5b6129b982612970565b810181811067ffffffffffffffff821117156129d8576129d7612981565b5b80604052505050565b60006129eb612895565b90506129f782826129b0565b919050565b600067ffffffffffffffff821115612a1757612a16612981565b5b612a2082612970565b9050602081019050919050565b82818337600083830152505050565b6000612a4f612a4a846129fc565b6129e1565b905082815260208101848484011115612a6b57612a6a61296b565b5b612a76848285612a2d565b509392505050565b600082601f830112612a9357612a92612966565b5b8135612aa3848260208601612a3c565b91505092915050565b600080600080600060a08688031215612ac857612ac761289f565b5b6000612ad6888289016128b9565b9550506020612ae7888289016128de565b9450506040612af888828901612917565b9350506060612b0988828901612951565b925050608086013567ffffffffffffffff811115612b2a57612b296128a4565b5b612b3688828901612a7e565b9150509295509295909350565b6000819050919050565b612b5681612b43565b82525050565b6000602082019050612b716000830184612b4d565b92915050565b612b8081612b43565b8114612b8b57600080fd5b50565b600081359050612b9d81612b77565b92915050565b600060208284031215612bb957612bb861289f565b5b6000612bc784828501612b8e565b91505092915050565b60008060008060808587031215612bea57612be961289f565b5b6000612bf8878288016128de565b9450506020612c0987828801612917565b9350506040612c1a87828801612951565b9250506060612c2b87828801612b8e565b91505092959194509250565b6000612c4282612847565b9050919050565b612c5281612c37565b82525050565b6000602082019050612c6d6000830184612c49565b92915050565b6000612c7e826127fb565b9050919050565b612c8e81612c73565b82525050565b6000602082019050612ca96000830184612c85565b92915050565b600080600080600060a08688031215612ccb57612cca61289f565b5b6000612cd9888289016128b9565b9550506020612cea888289016128de565b9450506040612cfb88828901612917565b9350506060612d0c88828901612951565b9250506080612d1d88828901612b8e565b9150509295509295909350565b7f4e487b7100000000000000000000000000000000000000000000000000000000600052602160045260246000fd5b60038110612d6a57612d69612d2a565b5b50565b6000819050612d7b82612d59565b919050565b6000612d8b82612d6d565b9050919050565b612d9b81612d80565b82525050565b6000602082019050612db66000830184612d92565b92915050565b612dc581612c73565b8114612dd057600080fd5b50565b600081359050612de281612dbc565b92915050565b600060208284031215612dfe57612dfd61289f565b5b6000612e0c84828501612dd3565b91505092915050565b7f4e487b7100000000000000000000000000000000000000000000000000000000600052603260045260246000fd5b7f4e487b7100000000000000000000000000000000000000000000000000000000600052601160045260246000fd5b6000612e7e82612b43565b91507fffffffffffffffffffffffffffffffffffffffffffffffffffffffffffffffff821415612eb157612eb0612e44565b5b600182019050919050565b600082825260208201905092915050565b7f4e6f204d61746368656420426574000000000000000000000000000000000000600082015250565b6000612f03600e83612ebc565b9150612f0e82612ecd565b602082019050919050565b60006020820190508181036000830152612f3281612ef6565b9050919050565b7f4e487b7100000000000000000000000000000000000000000000000000000000600052602260045260246000fd5b60006002820490506001821680612f8057607f821691505b60208210811415612f9457612f93612f39565b5b50919050565b60008190508160005260206000209050919050565b60008154612fbc81612f68565b612fc68186612ebc565b94506001821660008114612fe15760018114612ff357613026565b60ff1983168652602086019350613026565b612ffc85612f9a565b60005b8381101561301e57815481890152600182019150602081019050612fff565b808801955050505b50505092915050565b600081519050919050565b60005b8381101561305857808201518184015260208101905061303d565b83811115613067576000848401525b50505050565b60006130788261302f565b6130828185612ebc565b935061309281856020860161303a565b61309b81612970565b840191505092915050565b600060a0820190506130bb6000830188612c85565b6130c86020830187612b4d565b81810360408301526130da8186612faf565b90506130e96060830185612b4d565b81810360808301526130fb818461306d565b90509695505050505050565b600060408201905061311c6000830185612c85565b6131296020830184612b4d565b9392505050565b7f426574206c6f7374000000000000000000000000000000000000000000000000600082015250565b6000613166600883612ebc565b915061317182613130565b602082019050919050565b6000602082019050818103600083015261319581613159565b9050919050565b60006131a78261292c565b91506131b28361292c565b9250828210156131c5576131c4612e44565b5b828203905092915050565b60006131db82612b43565b91506131e683612b43565b9250817fffffffffffffffffffffffffffffffffffffffffffffffffffffffffffffffff048311821515161561321f5761321e612e44565b5b828202905092915050565b7f4e487b7100000000000000000000000000000000000000000000000000000000600052601260045260246000fd5b600061326482612b43565b915061326f83612b43565b92508261327f5761327e61322a565b5b828204905092915050565b7f4c6971696469747920616e642073656e642076616c756520617265206e6f742060008201527f657175616c210000000000000000000000000000000000000000000000000000602082015250565b60006132e6602683612ebc565b91506132f18261328a565b604082019050919050565b60006020820190508181036000830152613315816132d9565b9050919050565b7f4f776e61626c653a2063616c6c6572206973206e6f7420746865206f776e6572600082015250565b6000613352602083612ebc565b915061335d8261331c565b602082019050919050565b6000602082019050818103600083015261338181613345565b9050919050565b7f416d6f756e7420616e642073656e642076616c756520617265206e6f7420657160008201527f75616c2100000000000000000000000000000000000000000000000000000000602082015250565b60006133e4602483612ebc565b91506133ef82613388565b604082019050919050565b60006020820190508181036000830152613413816133d7565b9050919050565b6002811061342b5761342a612d2a565b5b50565b600081905061343c8261341a565b919050565b600061344c8261342e565b9050919050565b61345c81613441565b82525050565b61346b816128f3565b82525050565b61347a8161292c565b82525050565b600060c0820190506134956000830189613453565b6134a26020830188612d92565b6134af6040830187613462565b6134bc6060830186613471565b6134c96080830185612b4d565b6134d660a0830184612c85565b979650505050505050565b7f4e6f204265740000000000000000000000000000000000000000000000000000600082015250565b6000613517600683612ebc565b9150613522826134e1565b602082019050919050565b600060208201905081810360008301526135468161350a565b9050919050565b7f4f776e61626c653a206e6577206f776e657220697320746865207a65726f206160008201527f6464726573730000000000000000000000000000000000000000000000000000602082015250565b60006135a9602683612ebc565b91506135b48261354d565b604082019050919050565b600060208201905081810360008301526135d88161359c565b9050919050565b600060c08201905081810360008301526135f98189612faf565b90506136086020830188612c85565b6136156040830187613453565b6136226060830186612d92565b61362f6080830185613462565b61363c60a0830184613471565b979650505050505050565b600060808201905081810360008301526136618187612faf565b90506136706020830186613453565b61367d6040830185612d92565b61368a6060830184613462565b95945050505050565b60008115159050919050565b6136a881613693565b81146136b357600080fd5b50565b6000815190506136c58161369f565b92915050565b6000602082840312156136e1576136e061289f565b5b60006136ef848285016136b6565b91505092915050565b61370181613693565b82525050565b600060208201905061371c60008301846136f8565b92915050565b600061372d82612b43565b915061373883612b43565b92508282101561374b5761374a612e44565b5b828203905092915050565b600061376182612b43565b915061376c83612b43565b9250827fffffffffffffffffffffffffffffffffffffffffffffffffffffffffffffffff038211156137a1576137a0612e44565b5b82820190509291505056fea26469706673582212200f8386192944fd308a03f911bcde4f11db503848728cd0aaa3ab155959bcd1b864736f6c63430008090033",
  "linkReferences": {},
  "deployedLinkReferences": {}
}