{
  "_format": "hh-sol-artifact-1",
  "contractName": "Betting",
  "sourceName": "contracts/Betting.sol",
  "abi": [
    {
      "inputs": [
        {
          "internalType": "string",
          "name": "_objectId",
          "type": "string"
        },
        {
          "internalType": "contract SoccerResolver",
          "name": "_resolver",
          "type": "address"
        },
        {
          "internalType": "contract BetNFT",
          "name": "_betNFT",
          "type": "address"
        }
      ],
      "stateMutability": "nonpayable",
      "type": "constructor"
    },
    {
      "inputs": [
        {
          "internalType": "uint256",
          "name": "amount",
          "type": "uint256"
        }
      ],
      "name": "AmountToLow",
      "type": "error"
    },
    {
      "inputs": [],
      "name": "GameAlreadyEnded",
      "type": "error"
    },
    {
      "inputs": [
        {
          "internalType": "uint256",
          "name": "odds",
          "type": "uint256"
        }
      ],
      "name": "OddsToLow",
      "type": "error"
    },
    {
      "anonymous": false,
      "inputs": [
        {
          "indexed": false,
          "internalType": "uint256",
          "name": "tokenId",
          "type": "uint256"
        }
      ],
      "name": "BetMinted",
      "type": "event"
    },
    {
      "anonymous": false,
      "inputs": [
        {
          "indexed": false,
          "internalType": "enum BetSide",
          "name": "_betSide",
          "type": "uint8"
        },
        {
          "indexed": false,
          "internalType": "enum BetType",
          "name": "_betType",
          "type": "uint8"
        },
        {
          "indexed": false,
          "internalType": "uint8",
          "name": "_selection",
          "type": "uint8"
        },
        {
          "indexed": false,
          "internalType": "uint16",
          "name": "_odds",
          "type": "uint16"
        },
        {
          "indexed": false,
          "internalType": "uint256",
          "name": "_amount",
          "type": "uint256"
        },
        {
          "indexed": false,
          "internalType": "address",
          "name": "_fromAddr",
          "type": "address"
        }
      ],
      "name": "MatchedBetPlaced",
      "type": "event"
    },
    {
      "anonymous": false,
      "inputs": [
        {
          "indexed": true,
          "internalType": "address",
          "name": "previousOwner",
          "type": "address"
        },
        {
          "indexed": true,
          "internalType": "address",
          "name": "newOwner",
          "type": "address"
        }
      ],
      "name": "OwnershipTransferred",
      "type": "event"
    },
    {
      "anonymous": false,
      "inputs": [
        {
          "indexed": false,
          "internalType": "enum BetSide",
          "name": "_betSide",
          "type": "uint8"
        },
        {
          "indexed": false,
          "internalType": "enum BetType",
          "name": "_betType",
          "type": "uint8"
        },
        {
          "indexed": false,
          "internalType": "uint8",
          "name": "_selection",
          "type": "uint8"
        },
        {
          "indexed": false,
          "internalType": "uint16",
          "name": "_odds",
          "type": "uint16"
        },
        {
          "indexed": false,
          "internalType": "uint256",
          "name": "_amount",
          "type": "uint256"
        },
        {
          "indexed": false,
          "internalType": "address",
          "name": "_fromAddr",
          "type": "address"
        }
      ],
      "name": "UnmatchedBetPlaced",
      "type": "event"
    },
    {
      "anonymous": false,
      "inputs": [
        {
          "indexed": false,
          "internalType": "enum BetSide",
          "name": "_betSide",
          "type": "uint8"
        },
        {
          "indexed": false,
          "internalType": "enum BetType",
          "name": "_betType",
          "type": "uint8"
        },
        {
          "indexed": false,
          "internalType": "uint8",
          "name": "_selection",
          "type": "uint8"
        },
        {
          "indexed": false,
          "internalType": "uint16",
          "name": "_odds",
          "type": "uint16"
        },
        {
          "indexed": false,
          "internalType": "uint256",
          "name": "_amount",
          "type": "uint256"
        },
        {
          "indexed": false,
          "internalType": "address",
          "name": "_fromAddr",
          "type": "address"
        }
      ],
      "name": "UnmatchedBetRemoved",
      "type": "event"
    },
    {
      "anonymous": false,
      "inputs": [
        {
          "indexed": false,
          "internalType": "enum BetSide",
          "name": "_betSide",
          "type": "uint8"
        },
        {
          "indexed": false,
          "internalType": "enum BetType",
          "name": "_betType",
          "type": "uint8"
        },
        {
          "indexed": false,
          "internalType": "uint8",
          "name": "_selection",
          "type": "uint8"
        },
        {
          "indexed": false,
          "internalType": "uint16",
          "name": "_odds",
          "type": "uint16"
        },
        {
          "indexed": false,
          "internalType": "uint256",
          "name": "_amount",
          "type": "uint256"
        },
        {
          "indexed": false,
          "internalType": "address",
          "name": "_fromAddr",
          "type": "address"
        }
      ],
      "name": "UnmatchedBetUpdated",
      "type": "event"
    },
    {
      "inputs": [],
      "name": "betNFT",
      "outputs": [
        {
          "internalType": "contract BetNFT",
          "name": "",
          "type": "address"
        }
      ],
      "stateMutability": "view",
      "type": "function"
    },
    {
      "inputs": [
        {
          "internalType": "enum BetType",
          "name": "_betType",
          "type": "uint8"
        },
        {
          "internalType": "uint8",
          "name": "_selection",
          "type": "uint8"
        },
        {
          "internalType": "uint16",
          "name": "_odds",
          "type": "uint16"
        },
        {
          "internalType": "uint256",
          "name": "_amount",
          "type": "uint256"
        }
      ],
      "name": "createBackBet",
      "outputs": [],
      "stateMutability": "payable",
      "type": "function"
    },
    {
      "inputs": [
        {
          "internalType": "enum BetType",
          "name": "_betType",
          "type": "uint8"
        },
        {
          "internalType": "uint8",
          "name": "_selection",
          "type": "uint8"
        },
        {
          "internalType": "uint16",
          "name": "_odds",
          "type": "uint16"
        },
        {
          "internalType": "uint256",
          "name": "_amount",
          "type": "uint256"
        }
      ],
      "name": "createLayBet",
      "outputs": [],
      "stateMutability": "payable",
      "type": "function"
    },
    {
      "inputs": [],
      "name": "owner",
      "outputs": [
        {
          "internalType": "address",
          "name": "",
          "type": "address"
        }
      ],
      "stateMutability": "view",
      "type": "function"
    },
    {
      "inputs": [],
      "name": "renounceOwnership",
      "outputs": [],
      "stateMutability": "nonpayable",
      "type": "function"
    },
    {
      "inputs": [],
      "name": "resolver",
      "outputs": [
        {
          "internalType": "contract SoccerResolver",
          "name": "",
          "type": "address"
        }
      ],
      "stateMutability": "view",
      "type": "function"
    },
    {
      "inputs": [
        {
          "internalType": "enum BetSide",
          "name": "_betSide",
          "type": "uint8"
        },
        {
          "internalType": "enum BetType",
          "name": "_betType",
          "type": "uint8"
        },
        {
          "internalType": "uint8",
          "name": "_selection",
          "type": "uint8"
        },
        {
          "internalType": "uint16",
          "name": "_odds",
          "type": "uint16"
        },
        {
          "internalType": "string",
          "name": "_tokenURI",
          "type": "string"
        }
      ],
      "name": "transferBetToNFT",
      "outputs": [
        {
          "internalType": "uint256",
          "name": "",
          "type": "uint256"
        }
      ],
      "stateMutability": "nonpayable",
      "type": "function"
    },
    {
      "inputs": [
        {
          "internalType": "address",
          "name": "newOwner",
          "type": "address"
        }
      ],
      "name": "transferOwnership",
      "outputs": [],
      "stateMutability": "nonpayable",
      "type": "function"
    },
    {
      "inputs": [
        {
          "internalType": "uint256",
          "name": "",
          "type": "uint256"
        }
      ],
      "name": "usedBetTypes",
      "outputs": [
        {
          "internalType": "enum BetType",
          "name": "",
          "type": "uint8"
        }
      ],
      "stateMutability": "view",
      "type": "function"
    },
    {
      "inputs": [],
      "name": "withdraw",
      "outputs": [],
      "stateMutability": "nonpayable",
      "type": "function"
    },
    {
      "inputs": [
        {
          "internalType": "uint256",
          "name": "tokenId",
          "type": "uint256"
        }
      ],
      "name": "withdrawWithNFT",
      "outputs": [],
      "stateMutability": "payable",
      "type": "function"
    }
  ],
  "bytecode": "0x60806040523480156200001157600080fd5b506040516200379638038062003796833981810160405281019062000037919062000551565b620000576200004b6200017a60201b60201c565b6200018260201b60201c565b33600160000160006101000a81548173ffffffffffffffffffffffffffffffffffffffff021916908373ffffffffffffffffffffffffffffffffffffffff16021790555082600180019080519060200190620000b592919062000246565b506000600160020160006101000a81548160ff02191690836001811115620000e257620000e1620005cc565b5b021790555081600460006101000a81548173ffffffffffffffffffffffffffffffffffffffff021916908373ffffffffffffffffffffffffffffffffffffffff16021790555080600560006101000a81548173ffffffffffffffffffffffffffffffffffffffff021916908373ffffffffffffffffffffffffffffffffffffffff160217905550600060068190555050505062000660565b600033905090565b60008060009054906101000a900473ffffffffffffffffffffffffffffffffffffffff169050816000806101000a81548173ffffffffffffffffffffffffffffffffffffffff021916908373ffffffffffffffffffffffffffffffffffffffff1602179055508173ffffffffffffffffffffffffffffffffffffffff168173ffffffffffffffffffffffffffffffffffffffff167f8be0079c531659141344cd1fd0a4f28419497f9722a3daafe3b4186f6b6457e060405160405180910390a35050565b82805462000254906200062a565b90600052602060002090601f016020900481019282620002785760008555620002c4565b82601f106200029357805160ff1916838001178555620002c4565b82800160010185558215620002c4579182015b82811115620002c3578251825591602001919060010190620002a6565b5b509050620002d39190620002d7565b5090565b5b80821115620002f2576000816000905550600101620002d8565b5090565b6000604051905090565b600080fd5b600080fd5b600080fd5b600080fd5b6000601f19601f8301169050919050565b7f4e487b7100000000000000000000000000000000000000000000000000000000600052604160045260246000fd5b6200035f8262000314565b810181811067ffffffffffffffff8211171562000381576200038062000325565b5b80604052505050565b600062000396620002f6565b9050620003a4828262000354565b919050565b600067ffffffffffffffff821115620003c757620003c662000325565b5b620003d28262000314565b9050602081019050919050565b60005b83811015620003ff578082015181840152602081019050620003e2565b838111156200040f576000848401525b50505050565b60006200042c6200042684620003a9565b6200038a565b9050828152602081018484840111156200044b576200044a6200030f565b5b62000458848285620003df565b509392505050565b600082601f8301126200047857620004776200030a565b5b81516200048a84826020860162000415565b91505092915050565b600073ffffffffffffffffffffffffffffffffffffffff82169050919050565b6000620004c08262000493565b9050919050565b6000620004d482620004b3565b9050919050565b620004e681620004c7565b8114620004f257600080fd5b50565b6000815190506200050681620004db565b92915050565b60006200051982620004b3565b9050919050565b6200052b816200050c565b81146200053757600080fd5b50565b6000815190506200054b8162000520565b92915050565b6000806000606084860312156200056d576200056c62000300565b5b600084015167ffffffffffffffff8111156200058e576200058d62000305565b5b6200059c8682870162000460565b9350506020620005af86828701620004f5565b9250506040620005c2868287016200053a565b9150509250925092565b7f4e487b7100000000000000000000000000000000000000000000000000000000600052602160045260246000fd5b7f4e487b7100000000000000000000000000000000000000000000000000000000600052602260045260246000fd5b600060028204905060018216806200064357607f821691505b602082108114156200065a5762000659620005fb565b5b50919050565b61312680620006706000396000f3fe60806040526004361061009c5760003560e01c80636920f52b116100645780636920f52b14610158578063715018a6146101835780638da5cb5b1461019a578063cc2b1e47146101c5578063f2b96298146101e1578063f2fde38b1461021e5761009c565b806304f3bcec146100a1578063204ab184146100cc5780633ccfd60b146101095780634323d1e3146101205780635d63dc181461013c575b600080fd5b3480156100ad57600080fd5b506100b6610247565b6040516100c391906122cf565b60405180910390f35b3480156100d857600080fd5b506100f360048036038101906100ee9190612501565b61026d565b60405161010091906125b1565b60405180910390f35b34801561011557600080fd5b5061011e6108ba565b005b61013a600480360381019061013591906125f8565b610904565b005b61015660048036038101906101519190612625565b610a2a565b005b34801561016457600080fd5b5061016d610bb1565b60405161017a91906126ad565b60405180910390f35b34801561018f57600080fd5b50610198610bd7565b005b3480156101a657600080fd5b506101af610c5f565b6040516101bc91906126e9565b60405180910390f35b6101df60048036038101906101da9190612625565b610c88565b005b3480156101ed57600080fd5b50610208600480360381019061020391906125f8565b610de2565b604051610215919061277b565b60405180910390f35b34801561022a57600080fd5b50610245600480360381019061024091906127c2565b610e16565b005b600460009054906101000a900473ffffffffffffffffffffffffffffffffffffffff1681565b6000806000905060005b6008600089600181111561028e5761028d612704565b5b60018111156102a05761029f612704565b5b815260200190815260200160002060008860028111156102c3576102c2612704565b5b60028111156102d5576102d4612704565b5b815260200190815260200160002060008760ff1660ff1681526020019081526020016000208054905081101561059d573373ffffffffffffffffffffffffffffffffffffffff16600860008a600181111561033357610332612704565b5b600181111561034557610344612704565b5b8152602001908152602001600020600089600281111561036857610367612704565b5b600281111561037a57610379612704565b5b815260200190815260200160002060008860ff1660ff16815260200190815260200160002082815481106103b1576103b06127ef565b5b906000526020600020906002020160010160029054906101000a900473ffffffffffffffffffffffffffffffffffffffff1673ffffffffffffffffffffffffffffffffffffffff161480156104c157508461ffff16600860008a600181111561041d5761041c612704565b5b600181111561042f5761042e612704565b5b8152602001908152602001600020600089600281111561045257610451612704565b5b600281111561046457610463612704565b5b815260200190815260200160002060008860ff1660ff168152602001908152602001600020828154811061049b5761049a6127ef565b5b906000526020600020906002020160010160009054906101000a900461ffff1661ffff16145b1561058a576001600860008a60018111156104df576104de612704565b5b60018111156104f1576104f0612704565b5b8152602001908152602001600020600089600281111561051457610513612704565b5b600281111561052657610525612704565b5b815260200190815260200160002060008860ff1660ff168152602001908152602001600020828154811061055d5761055c6127ef565b5b906000526020600020906002020160010160166101000a81548160ff021916908315150217905550600191505b80806105959061284d565b915050610277565b50806105de576040517f08c379a00000000000000000000000000000000000000000000000000000000081526004016105d5906128f3565b60405180910390fd5b60006006549050600660008154809291906105f89061284d565b9190505550600061060c8989898933610f0e565b9050600560009054906101000a900473ffffffffffffffffffffffffffffffffffffffff1673ffffffffffffffffffffffffffffffffffffffff1663e86f6367338360018001868a6040518663ffffffff1660e01b8152600401610674959493929190612a80565b600060405180830381600087803b15801561068e57600080fd5b505af11580156106a2573d6000803e3d6000fd5b50505050600960008a60018111156106bd576106bc612704565b5b60018111156106cf576106ce612704565b5b815260200190815260200160002060008960028111156106f2576106f1612704565b5b600281111561070457610703612704565b5b815260200190815260200160002060008860ff1660ff16815260200190815260200160002060008761ffff1661ffff16815260200190815260200160002060003373ffffffffffffffffffffffffffffffffffffffff1673ffffffffffffffffffffffffffffffffffffffff16815260200190815260200160002054600a600083815260200190815260200160002081905550600960008a60018111156107ae576107ad612704565b5b60018111156107c0576107bf612704565b5b815260200190815260200160002060008960028111156107e3576107e2612704565b5b60028111156107f5576107f4612704565b5b815260200190815260200160002060008860ff1660ff16815260200190815260200160002060008761ffff1661ffff16815260200190815260200160002060003373ffffffffffffffffffffffffffffffffffffffff1673ffffffffffffffffffffffffffffffffffffffff168152602001908152602001600020600090557f485576c07f0e3d474fe3dd45278bf1290367e047a88a21a9b4d343547d951a8f816040516108a391906125b1565b60405180910390a180935050505095945050505050565b600060018111156108ce576108cd612704565b5b600160020160009054906101000a900460ff1660018111156108f3576108f2612704565b5b141561090257610901610f56565b5b565b600560009054906101000a900473ffffffffffffffffffffffffffffffffffffffff1673ffffffffffffffffffffffffffffffffffffffff1663ac7aae4233836040518363ffffffff1660e01b8152600401610961929190612ae1565b600060405180830381600087803b15801561097b57600080fd5b505af115801561098f573d6000803e3d6000fd5b50505050600b600082815260200190815260200160002060009054906101000a900460ff166109f3576040517f08c379a00000000000000000000000000000000000000000000000000000000081526004016109ea90612b56565b60405180910390fd5b610a1033600a600084815260200190815260200160002054611613565b600a60008281526020019081526020016000206000905550565b600180811115610a3d57610a3c612704565b5b600160020160009054906101000a900460ff166001811115610a6257610a61612704565b5b1415610a9a576040517f919142bc00000000000000000000000000000000000000000000000000000000815260040160405180910390fd5b3460008111610ae057806040517fd59f5ff0000000000000000000000000000000000000000000000000000000008152600401610ad791906125b1565b60405180910390fd5b8261ffff166103e88111610b2b57806040517fa0c5f30c000000000000000000000000000000000000000000000000000000008152600401610b2291906125b1565b60405180910390fd5b60006103e88086610b3c9190612b76565b61ffff1685610b4b9190612baa565b610b559190612c33565b9050348114610b99576040517f08c379a0000000000000000000000000000000000000000000000000000000008152600401610b9090612cd6565b60405180910390fd5b610ba86001888888883361165e565b50505050505050565b600560009054906101000a900473ffffffffffffffffffffffffffffffffffffffff1681565b610bdf611a81565b73ffffffffffffffffffffffffffffffffffffffff16610bfd610c5f565b73ffffffffffffffffffffffffffffffffffffffff1614610c53576040517f08c379a0000000000000000000000000000000000000000000000000000000008152600401610c4a90612d42565b60405180910390fd5b610c5d6000611a89565b565b60008060009054906101000a900473ffffffffffffffffffffffffffffffffffffffff16905090565b600180811115610c9b57610c9a612704565b5b600160020160009054906101000a900460ff166001811115610cc057610cbf612704565b5b1415610cf8576040517f919142bc00000000000000000000000000000000000000000000000000000000815260040160405180910390fd5b3460008111610d3e57806040517fd59f5ff0000000000000000000000000000000000000000000000000000000008152600401610d3591906125b1565b60405180910390fd5b8261ffff166103e88111610d8957806040517fa0c5f30c000000000000000000000000000000000000000000000000000000008152600401610d8091906125b1565b60405180910390fd5b348314610dcb576040517f08c379a0000000000000000000000000000000000000000000000000000000008152600401610dc290612dd4565b60405180910390fd5b610dda6000878787873361165e565b505050505050565b600c8181548110610df257600080fd5b9060005260206000209060209182820401919006915054906101000a900460ff1681565b610e1e611a81565b73ffffffffffffffffffffffffffffffffffffffff16610e3c610c5f565b73ffffffffffffffffffffffffffffffffffffffff1614610e92576040517f08c379a0000000000000000000000000000000000000000000000000000000008152600401610e8990612d42565b60405180910390fd5b600073ffffffffffffffffffffffffffffffffffffffff168173ffffffffffffffffffffffffffffffffffffffff161415610f02576040517f08c379a0000000000000000000000000000000000000000000000000000000008152600401610ef990612e66565b60405180910390fd5b610f0b81611a89565b50565b6000610fff600180018388888888604051602001610f3196959493929190612eec565b6040516020818303038152906040528051906020012060001c16905095945050505050565b60018060020160006101000a81548160ff02191690836001811115610f7e57610f7d612704565b5b021790555060005b600c80549050811015611610576000600c8281548110610fa957610fa86127ef565b5b90600052602060002090602091828204019190069054906101000a900460ff16905060005b600d6000836002811115610fe557610fe4612704565b5b6002811115610ff757610ff6612704565b5b8152602001908152602001600020805490508110156115fb576000600d600084600281111561102957611028612704565b5b600281111561103b5761103a612704565b5b8152602001908152602001600020828154811061105b5761105a6127ef565b5b90600052602060002090602091828204019190069054906101000a900460ff1690506000600460009054906101000a900473ffffffffffffffffffffffffffffffffffffffff1673ffffffffffffffffffffffffffffffffffffffff16637450666260018001600087866040518563ffffffff1660e01b81526004016110e49493929190612f54565b602060405180830381600087803b1580156110fe57600080fd5b505af1158015611112573d6000803e3d6000fd5b505050506040513d601f19601f820116820180604052508101906111369190612fd8565b90506000600115158215151461114d576001611150565b60005b905060006008600083600181111561116b5761116a612704565b5b600181111561117d5761117c612704565b5b815260200190815260200160002060008760028111156111a05761119f612704565b5b60028111156111b2576111b1612704565b5b815260200190815260200160002060008560ff1660ff168152602001908152602001600020805480602002602001604051908101604052809291908181526020016000905b828210156112c45783829060005260206000209060020201604051806080016040529081600082015481526020016001820160009054906101000a900461ffff1661ffff1661ffff1681526020016001820160029054906101000a900473ffffffffffffffffffffffffffffffffffffffff1673ffffffffffffffffffffffffffffffffffffffff1673ffffffffffffffffffffffffffffffffffffffff1681526020016001820160169054906101000a900460ff161515151581525050815260200190600101906111f7565b50505050905060005b81518110156115e3578181815181106112e9576112e86127ef565b5b60200260200101516060015115611379576000611345848988868681518110611315576113146127ef565b5b602002602001015160200151878781518110611334576113336127ef565b5b602002602001015160400151610f0e565b90506001600b600083815260200190815260200160002060006101000a81548160ff021916908315150217905550506115d0565b6114b682828151811061138f5761138e6127ef565b5b602002602001015160400151600960008660018111156113b2576113b1612704565b5b60018111156113c4576113c3612704565b5b815260200190815260200160002060008a60028111156113e7576113e6612704565b5b60028111156113f9576113f8612704565b5b815260200190815260200160002060008860ff1660ff1681526020019081526020016000206000858581518110611433576114326127ef565b5b60200260200101516020015161ffff1661ffff168152602001908152602001600020600085858151811061146a576114696127ef565b5b60200260200101516040015173ffffffffffffffffffffffffffffffffffffffff1673ffffffffffffffffffffffffffffffffffffffff16815260200190815260200160002054611613565b600960008460018111156114cd576114cc612704565b5b60018111156114df576114de612704565b5b8152602001908152602001600020600088600281111561150257611501612704565b5b600281111561151457611513612704565b5b815260200190815260200160002060008660ff1660ff168152602001908152602001600020600083838151811061154e5761154d6127ef565b5b60200260200101516020015161ffff1661ffff1681526020019081526020016000206000838381518110611585576115846127ef565b5b60200260200101516040015173ffffffffffffffffffffffffffffffffffffffff1673ffffffffffffffffffffffffffffffffffffffff168152602001908152602001600020600090555b80806115db9061284d565b9150506112cd565b505050505080806115f39061284d565b915050610fce565b505080806116089061284d565b915050610f86565b50565b8173ffffffffffffffffffffffffffffffffffffffff166108fc829081150290604051600060405180830381858888f19350505050158015611659573d6000803e3d6000fd5b505050565b600086600181111561167357611672612704565b5b6000600181111561168757611686612704565b5b14611693576000611696565b60015b90506000600760008360018111156116b1576116b0612704565b5b60018111156116c3576116c2612704565b5b815260200190815260200160002060008860028111156116e6576116e5612704565b5b60028111156116f8576116f7612704565b5b815260200190815260200160002060008760ff1660ff16815260200190815260200160002060008661ffff1661ffff168152602001908152602001600020805480602002602001604051908101604052809291908181526020016000905b828210156117e85783829060005260206000209060020201604051806040016040529081600082015481526020016001820160009054906101000a900473ffffffffffffffffffffffffffffffffffffffff1673ffffffffffffffffffffffffffffffffffffffff1673ffffffffffffffffffffffffffffffffffffffff168152505081526020019060010190611756565b50505050905060008151141561180d57611806888888888888611b4d565b5050611a79565b600084905060005b8251811015611a4d576000838281518110611833576118326127ef565b5b60200260200101516000015183111561187a57838281518110611859576118586127ef565b5b602002602001015160000151905080836118739190613005565b925061188c565b82905080836118899190613005565b92505b6118b8858b8b8b858988815181106118a7576118a66127ef565b5b602002602001015160200151611cd9565b8382815181106118cb576118ca6127ef565b5b602002602001015160000151811415611967577fb6c54b102e4bccaa4d9fa4a2ac89bdb9bffc6aecbdfc3baacf7cb16425c577dc858b8b8b85898881518110611917576119166127ef565b5b60200260200101516020015160405161193596959493929190613039565b60405180910390a18382815181106119505761194f6127ef565b5b6020026020010161195f612220565b815250611a18565b8084838151811061197b5761197a6127ef565b5b60200260200101516000018181516119939190613005565b915081815250507f2d3c87b3a181302622e946eb34f10edb636e67a3df7beb58c472ac3feacb0668858b8b8b8887815181106119d2576119d16127ef565b5b6020026020010151600001518988815181106119f1576119f06127ef565b5b602002602001015160200151604051611a0f96959493929190613039565b60405180910390a15b6000831415611a3957611a2f8b8b8b8b8b8b611cd9565b5050505050611a79565b508080611a459061284d565b915050611815565b50611a6789898989858a611a619190613005565b89611cd9565b611a75898989898589611b4d565b5050505b505050505050565b600033905090565b60008060009054906101000a900473ffffffffffffffffffffffffffffffffffffffff169050816000806101000a81548173ffffffffffffffffffffffffffffffffffffffff021916908373ffffffffffffffffffffffffffffffffffffffff1602179055508173ffffffffffffffffffffffffffffffffffffffff168173ffffffffffffffffffffffffffffffffffffffff167f8be0079c531659141344cd1fd0a4f28419497f9722a3daafe3b4186f6b6457e060405160405180910390a35050565b60076000876001811115611b6457611b63612704565b5b6001811115611b7657611b75612704565b5b81526020019081526020016000206000866002811115611b9957611b98612704565b5b6002811115611bab57611baa612704565b5b815260200190815260200160002060008560ff1660ff16815260200190815260200160002060008461ffff1661ffff16815260200190815260200160002060405180604001604052808481526020018373ffffffffffffffffffffffffffffffffffffffff1681525090806001815401808255809150506001900390600052602060002090600202016000909190919091506000820151816000015560208201518160010160006101000a81548173ffffffffffffffffffffffffffffffffffffffff021916908373ffffffffffffffffffffffffffffffffffffffff16021790555050507f983ea0a956e0fd28aee415ea0035b9e9ff87b3cca8a51a457e526c85c5b173ba868686868686604051611cc996959493929190613039565b60405180910390a1505050505050565b600f6000866002811115611cf057611cef612704565b5b6002811115611d0257611d01612704565b5b815260200190815260200160002060008560ff1660ff16815260200190815260200160002060009054906101000a900460ff16611f0957600e6000866002811115611d5057611d4f612704565b5b6002811115611d6257611d61612704565b5b815260200190815260200160002060009054906101000a900460ff16611e2757600c8590806001815401808255809150506001900390600052602060002090602091828204019190069091909190916101000a81548160ff02191690836002811115611dd157611dd0612704565b5b02179055506001600e6000876002811115611def57611dee612704565b5b6002811115611e0157611e00612704565b5b815260200190815260200160002060006101000a81548160ff0219169083151502179055505b600d6000866002811115611e3e57611e3d612704565b5b6002811115611e5057611e4f612704565b5b81526020019081526020016000208490806001815401808255809150506001900390600052602060002090602091828204019190069091909190916101000a81548160ff021916908360ff1602179055506001600f6000876002811115611eba57611eb9612704565b5b6002811115611ecc57611ecb612704565b5b815260200190815260200160002060008660ff1660ff16815260200190815260200160002060006101000a81548160ff0219169083151502179055505b600082905060006001811115611f2257611f21612704565b5b876001811115611f3557611f34612704565b5b1415611f66576103e88085611f4a9190612b76565b61ffff1684611f599190612baa565b611f639190612c33565b90505b8060096000896001811115611f7e57611f7d612704565b5b6001811115611f9057611f8f612704565b5b81526020019081526020016000206000886002811115611fb357611fb2612704565b5b6002811115611fc557611fc4612704565b5b815260200190815260200160002060008760ff1660ff16815260200190815260200160002060008661ffff1661ffff16815260200190815260200160002060008473ffffffffffffffffffffffffffffffffffffffff1673ffffffffffffffffffffffffffffffffffffffff168152602001908152602001600020600082825461204f919061309a565b925050819055506008600088600181111561206d5761206c612704565b5b600181111561207f5761207e612704565b5b815260200190815260200160002060008760028111156120a2576120a1612704565b5b60028111156120b4576120b3612704565b5b815260200190815260200160002060008660ff1660ff16815260200190815260200160002060405180608001604052808581526020018661ffff1681526020018473ffffffffffffffffffffffffffffffffffffffff1681526020016000151581525090806001815401808255809150506001900390600052602060002090600202016000909190919091506000820151816000015560208201518160010160006101000a81548161ffff021916908361ffff16021790555060408201518160010160026101000a81548173ffffffffffffffffffffffffffffffffffffffff021916908373ffffffffffffffffffffffffffffffffffffffff16021790555060608201518160010160166101000a81548160ff02191690831515021790555050507fa6505fb4d47cd8da6f9fa27a9576fd9d76e171a408f045bad68b035dfc1348ad87878787878760405161220f96959493929190613039565b60405180910390a150505050505050565b604051806040016040528060008152602001600073ffffffffffffffffffffffffffffffffffffffff1681525090565b600073ffffffffffffffffffffffffffffffffffffffff82169050919050565b6000819050919050565b600061229561229061228b84612250565b612270565b612250565b9050919050565b60006122a78261227a565b9050919050565b60006122b98261229c565b9050919050565b6122c9816122ae565b82525050565b60006020820190506122e460008301846122c0565b92915050565b6000604051905090565b600080fd5b600080fd5b6002811061230b57600080fd5b50565b60008135905061231d816122fe565b92915050565b6003811061233057600080fd5b50565b60008135905061234281612323565b92915050565b600060ff82169050919050565b61235e81612348565b811461236957600080fd5b50565b60008135905061237b81612355565b92915050565b600061ffff82169050919050565b61239881612381565b81146123a357600080fd5b50565b6000813590506123b58161238f565b92915050565b600080fd5b600080fd5b6000601f19601f8301169050919050565b7f4e487b7100000000000000000000000000000000000000000000000000000000600052604160045260246000fd5b61240e826123c5565b810181811067ffffffffffffffff8211171561242d5761242c6123d6565b5b80604052505050565b60006124406122ea565b905061244c8282612405565b919050565b600067ffffffffffffffff82111561246c5761246b6123d6565b5b612475826123c5565b9050602081019050919050565b82818337600083830152505050565b60006124a461249f84612451565b612436565b9050828152602081018484840111156124c0576124bf6123c0565b5b6124cb848285612482565b509392505050565b600082601f8301126124e8576124e76123bb565b5b81356124f8848260208601612491565b91505092915050565b600080600080600060a0868803121561251d5761251c6122f4565b5b600061252b8882890161230e565b955050602061253c88828901612333565b945050604061254d8882890161236c565b935050606061255e888289016123a6565b925050608086013567ffffffffffffffff81111561257f5761257e6122f9565b5b61258b888289016124d3565b9150509295509295909350565b6000819050919050565b6125ab81612598565b82525050565b60006020820190506125c660008301846125a2565b92915050565b6125d581612598565b81146125e057600080fd5b50565b6000813590506125f2816125cc565b92915050565b60006020828403121561260e5761260d6122f4565b5b600061261c848285016125e3565b91505092915050565b6000806000806080858703121561263f5761263e6122f4565b5b600061264d87828801612333565b945050602061265e8782880161236c565b935050604061266f878288016123a6565b9250506060612680878288016125e3565b91505092959194509250565b60006126978261229c565b9050919050565b6126a78161268c565b82525050565b60006020820190506126c2600083018461269e565b92915050565b60006126d382612250565b9050919050565b6126e3816126c8565b82525050565b60006020820190506126fe60008301846126da565b92915050565b7f4e487b7100000000000000000000000000000000000000000000000000000000600052602160045260246000fd5b6003811061274457612743612704565b5b50565b600081905061275582612733565b919050565b600061276582612747565b9050919050565b6127758161275a565b82525050565b6000602082019050612790600083018461276c565b92915050565b61279f816126c8565b81146127aa57600080fd5b50565b6000813590506127bc81612796565b92915050565b6000602082840312156127d8576127d76122f4565b5b60006127e6848285016127ad565b91505092915050565b7f4e487b7100000000000000000000000000000000000000000000000000000000600052603260045260246000fd5b7f4e487b7100000000000000000000000000000000000000000000000000000000600052601160045260246000fd5b600061285882612598565b91507fffffffffffffffffffffffffffffffffffffffffffffffffffffffffffffffff82141561288b5761288a61281e565b5b600182019050919050565b600082825260208201905092915050565b7f4e6f204d61746368656420426574000000000000000000000000000000000000600082015250565b60006128dd600e83612896565b91506128e8826128a7565b602082019050919050565b6000602082019050818103600083015261290c816128d0565b9050919050565b7f4e487b7100000000000000000000000000000000000000000000000000000000600052602260045260246000fd5b6000600282049050600182168061295a57607f821691505b6020821081141561296e5761296d612913565b5b50919050565b60008190508160005260206000209050919050565b6000815461299681612942565b6129a08186612896565b945060018216600081146129bb57600181146129cd57612a00565b60ff1983168652602086019350612a00565b6129d685612974565b60005b838110156129f8578154818901526001820191506020810190506129d9565b808801955050505b50505092915050565b600081519050919050565b60005b83811015612a32578082015181840152602081019050612a17565b83811115612a41576000848401525b50505050565b6000612a5282612a09565b612a5c8185612896565b9350612a6c818560208601612a14565b612a75816123c5565b840191505092915050565b600060a082019050612a9560008301886126da565b612aa260208301876125a2565b8181036040830152612ab48186612989565b9050612ac360608301856125a2565b8181036080830152612ad58184612a47565b90509695505050505050565b6000604082019050612af660008301856126da565b612b0360208301846125a2565b9392505050565b7f426574206c6f7374000000000000000000000000000000000000000000000000600082015250565b6000612b40600883612896565b9150612b4b82612b0a565b602082019050919050565b60006020820190508181036000830152612b6f81612b33565b9050919050565b6000612b8182612381565b9150612b8c83612381565b925082821015612b9f57612b9e61281e565b5b828203905092915050565b6000612bb582612598565b9150612bc083612598565b9250817fffffffffffffffffffffffffffffffffffffffffffffffffffffffffffffffff0483118215151615612bf957612bf861281e565b5b828202905092915050565b7f4e487b7100000000000000000000000000000000000000000000000000000000600052601260045260246000fd5b6000612c3e82612598565b9150612c4983612598565b925082612c5957612c58612c04565b5b828204905092915050565b7f4c6971696469747920616e642073656e642076616c756520617265206e6f742060008201527f657175616c210000000000000000000000000000000000000000000000000000602082015250565b6000612cc0602683612896565b9150612ccb82612c64565b604082019050919050565b60006020820190508181036000830152612cef81612cb3565b9050919050565b7f4f776e61626c653a2063616c6c6572206973206e6f7420746865206f776e6572600082015250565b6000612d2c602083612896565b9150612d3782612cf6565b602082019050919050565b60006020820190508181036000830152612d5b81612d1f565b9050919050565b7f416d6f756e7420616e642073656e642076616c756520617265206e6f7420657160008201527f75616c2100000000000000000000000000000000000000000000000000000000602082015250565b6000612dbe602483612896565b9150612dc982612d62565b604082019050919050565b60006020820190508181036000830152612ded81612db1565b9050919050565b7f4f776e61626c653a206e6577206f776e657220697320746865207a65726f206160008201527f6464726573730000000000000000000000000000000000000000000000000000602082015250565b6000612e50602683612896565b9150612e5b82612df4565b604082019050919050565b60006020820190508181036000830152612e7f81612e43565b9050919050565b60028110612e9757612e96612704565b5b50565b6000819050612ea882612e86565b919050565b6000612eb882612e9a565b9050919050565b612ec881612ead565b82525050565b612ed781612348565b82525050565b612ee681612381565b82525050565b600060c0820190508181036000830152612f068189612989565b9050612f1560208301886126da565b612f226040830187612ebf565b612f2f606083018661276c565b612f3c6080830185612ece565b612f4960a0830184612edd565b979650505050505050565b60006080820190508181036000830152612f6e8187612989565b9050612f7d6020830186612ebf565b612f8a604083018561276c565b612f976060830184612ece565b95945050505050565b60008115159050919050565b612fb581612fa0565b8114612fc057600080fd5b50565b600081519050612fd281612fac565b92915050565b600060208284031215612fee57612fed6122f4565b5b6000612ffc84828501612fc3565b91505092915050565b600061301082612598565b915061301b83612598565b92508282101561302e5761302d61281e565b5b828203905092915050565b600060c08201905061304e6000830189612ebf565b61305b602083018861276c565b6130686040830187612ece565b6130756060830186612edd565b61308260808301856125a2565b61308f60a08301846126da565b979650505050505050565b60006130a582612598565b91506130b083612598565b9250827fffffffffffffffffffffffffffffffffffffffffffffffffffffffffffffffff038211156130e5576130e461281e565b5b82820190509291505056fea2646970667358221220675634157545b28f318b061822bb08de8c7d69fc742e3a38dd60d276506f860b64736f6c63430008090033",
  "linkReferences": {},
  "deployedLinkReferences": {}
}