{
  "_format": "hh-sol-artifact-1",
  "contractName": "Betting",
  "sourceName": "contracts/Betting.sol",
  "abi": [
    {
      "inputs": [
        {
          "internalType": "string",
          "name": "_objectId",
          "type": "string"
        },
        {
          "internalType": "contract SoccerResolver",
          "name": "_resolver",
          "type": "address"
        },
        {
          "internalType": "contract BetNFT",
          "name": "_betNFT",
          "type": "address"
        }
      ],
      "stateMutability": "nonpayable",
      "type": "constructor"
    },
    {
      "inputs": [
        {
          "internalType": "uint256",
          "name": "amount",
          "type": "uint256"
        }
      ],
      "name": "AmountToLow",
      "type": "error"
    },
    {
      "inputs": [],
      "name": "GameAlreadyEnded",
      "type": "error"
    },
    {
      "inputs": [
        {
          "internalType": "uint256",
          "name": "odds",
          "type": "uint256"
        }
      ],
      "name": "OddsToLow",
      "type": "error"
    },
    {
      "anonymous": false,
      "inputs": [
        {
          "indexed": false,
          "internalType": "uint256",
          "name": "tokenId",
          "type": "uint256"
        }
      ],
      "name": "BetMinted",
      "type": "event"
    },
    {
      "anonymous": false,
      "inputs": [
        {
          "indexed": false,
          "internalType": "enum BetSide",
          "name": "_betSide",
          "type": "uint8"
        },
        {
          "indexed": false,
          "internalType": "enum BetType",
          "name": "_betType",
          "type": "uint8"
        },
        {
          "indexed": false,
          "internalType": "uint8",
          "name": "_selection",
          "type": "uint8"
        },
        {
          "indexed": false,
          "internalType": "uint16",
          "name": "_odds",
          "type": "uint16"
        },
        {
          "indexed": false,
          "internalType": "uint256",
          "name": "_amount",
          "type": "uint256"
        },
        {
          "indexed": false,
          "internalType": "address",
          "name": "_fromAddr",
          "type": "address"
        }
      ],
      "name": "MatchedBetPlaced",
      "type": "event"
    },
    {
      "anonymous": false,
      "inputs": [
        {
          "indexed": true,
          "internalType": "address",
          "name": "previousOwner",
          "type": "address"
        },
        {
          "indexed": true,
          "internalType": "address",
          "name": "newOwner",
          "type": "address"
        }
      ],
      "name": "OwnershipTransferred",
      "type": "event"
    },
    {
      "anonymous": false,
      "inputs": [
        {
          "indexed": false,
          "internalType": "enum BetSide",
          "name": "_betSide",
          "type": "uint8"
        },
        {
          "indexed": false,
          "internalType": "enum BetType",
          "name": "_betType",
          "type": "uint8"
        },
        {
          "indexed": false,
          "internalType": "uint8",
          "name": "_selection",
          "type": "uint8"
        },
        {
          "indexed": false,
          "internalType": "uint16",
          "name": "_odds",
          "type": "uint16"
        },
        {
          "indexed": false,
          "internalType": "uint256",
          "name": "_amount",
          "type": "uint256"
        },
        {
          "indexed": false,
          "internalType": "address",
          "name": "_fromAddr",
          "type": "address"
        }
      ],
      "name": "UnmatchedBetPlaced",
      "type": "event"
    },
    {
      "anonymous": false,
      "inputs": [
        {
          "indexed": false,
          "internalType": "enum BetSide",
          "name": "_betSide",
          "type": "uint8"
        },
        {
          "indexed": false,
          "internalType": "enum BetType",
          "name": "_betType",
          "type": "uint8"
        },
        {
          "indexed": false,
          "internalType": "uint8",
          "name": "_selection",
          "type": "uint8"
        },
        {
          "indexed": false,
          "internalType": "uint16",
          "name": "_odds",
          "type": "uint16"
        },
        {
          "indexed": false,
          "internalType": "uint256",
          "name": "_amount",
          "type": "uint256"
        },
        {
          "indexed": false,
          "internalType": "address",
          "name": "_fromAddr",
          "type": "address"
        }
      ],
      "name": "UnmatchedBetRemoved",
      "type": "event"
    },
    {
      "anonymous": false,
      "inputs": [
        {
          "indexed": false,
          "internalType": "enum BetSide",
          "name": "_betSide",
          "type": "uint8"
        },
        {
          "indexed": false,
          "internalType": "enum BetType",
          "name": "_betType",
          "type": "uint8"
        },
        {
          "indexed": false,
          "internalType": "uint8",
          "name": "_selection",
          "type": "uint8"
        },
        {
          "indexed": false,
          "internalType": "uint16",
          "name": "_odds",
          "type": "uint16"
        },
        {
          "indexed": false,
          "internalType": "uint256",
          "name": "_amount",
          "type": "uint256"
        },
        {
          "indexed": false,
          "internalType": "address",
          "name": "_fromAddr",
          "type": "address"
        }
      ],
      "name": "UnmatchedBetUpdated",
      "type": "event"
    },
    {
      "inputs": [],
      "name": "betNFT",
      "outputs": [
        {
          "internalType": "contract BetNFT",
          "name": "",
          "type": "address"
        }
      ],
      "stateMutability": "view",
      "type": "function"
    },
    {
      "inputs": [
        {
          "internalType": "enum BetType",
          "name": "_betType",
          "type": "uint8"
        },
        {
          "internalType": "uint8",
          "name": "_selection",
          "type": "uint8"
        },
        {
          "internalType": "uint16",
          "name": "_odds",
          "type": "uint16"
        },
        {
          "internalType": "uint256",
          "name": "_amount",
          "type": "uint256"
        }
      ],
      "name": "createBackBet",
      "outputs": [],
      "stateMutability": "payable",
      "type": "function"
    },
    {
      "inputs": [
        {
          "internalType": "enum BetType",
          "name": "_betType",
          "type": "uint8"
        },
        {
          "internalType": "uint8",
          "name": "_selection",
          "type": "uint8"
        },
        {
          "internalType": "uint16",
          "name": "_odds",
          "type": "uint16"
        },
        {
          "internalType": "uint256",
          "name": "_amount",
          "type": "uint256"
        }
      ],
      "name": "createLayBet",
      "outputs": [],
      "stateMutability": "payable",
      "type": "function"
    },
    {
      "inputs": [],
      "name": "owner",
      "outputs": [
        {
          "internalType": "address",
          "name": "",
          "type": "address"
        }
      ],
      "stateMutability": "view",
      "type": "function"
    },
    {
      "inputs": [
        {
          "internalType": "enum BetSide",
          "name": "_betSide",
          "type": "uint8"
        },
        {
          "internalType": "enum BetType",
          "name": "_betType",
          "type": "uint8"
        },
        {
          "internalType": "uint8",
          "name": "_selection",
          "type": "uint8"
        },
        {
          "internalType": "uint16",
          "name": "_odds",
          "type": "uint16"
        },
        {
          "internalType": "uint256",
          "name": "_amount",
          "type": "uint256"
        }
      ],
      "name": "removeUnmatchedBet",
      "outputs": [],
      "stateMutability": "nonpayable",
      "type": "function"
    },
    {
      "inputs": [],
      "name": "renounceOwnership",
      "outputs": [],
      "stateMutability": "nonpayable",
      "type": "function"
    },
    {
      "inputs": [],
      "name": "resolver",
      "outputs": [
        {
          "internalType": "contract SoccerResolver",
          "name": "",
          "type": "address"
        }
      ],
      "stateMutability": "view",
      "type": "function"
    },
    {
      "inputs": [
        {
          "internalType": "enum BetSide",
          "name": "_betSide",
          "type": "uint8"
        },
        {
          "internalType": "enum BetType",
          "name": "_betType",
          "type": "uint8"
        },
        {
          "internalType": "uint8",
          "name": "_selection",
          "type": "uint8"
        },
        {
          "internalType": "uint16",
          "name": "_odds",
          "type": "uint16"
        },
        {
          "internalType": "string",
          "name": "_tokenURI",
          "type": "string"
        }
      ],
      "name": "transferBetToNFT",
      "outputs": [
        {
          "internalType": "uint256",
          "name": "",
          "type": "uint256"
        }
      ],
      "stateMutability": "nonpayable",
      "type": "function"
    },
    {
      "inputs": [
        {
          "internalType": "address",
          "name": "newOwner",
          "type": "address"
        }
      ],
      "name": "transferOwnership",
      "outputs": [],
      "stateMutability": "nonpayable",
      "type": "function"
    },
    {
      "inputs": [
        {
          "internalType": "uint256",
          "name": "",
          "type": "uint256"
        }
      ],
      "name": "usedBetTypes",
      "outputs": [
        {
          "internalType": "enum BetType",
          "name": "",
          "type": "uint8"
        }
      ],
      "stateMutability": "view",
      "type": "function"
    },
    {
      "inputs": [],
      "name": "withdraw",
      "outputs": [],
      "stateMutability": "nonpayable",
      "type": "function"
    },
    {
      "inputs": [
        {
          "internalType": "uint256",
          "name": "tokenId",
          "type": "uint256"
        }
      ],
      "name": "withdrawWithNFT",
      "outputs": [],
      "stateMutability": "nonpayable",
      "type": "function"
    }
  ],
  "bytecode": "0x60806040523480156200001157600080fd5b5060405162003c3b38038062003c3b833981810160405281019062000037919062000551565b620000576200004b6200017a60201b60201c565b6200018260201b60201c565b33600160000160006101000a81548173ffffffffffffffffffffffffffffffffffffffff021916908373ffffffffffffffffffffffffffffffffffffffff16021790555082600180019080519060200190620000b592919062000246565b506000600160020160006101000a81548160ff02191690836001811115620000e257620000e1620005cc565b5b021790555081600460006101000a81548173ffffffffffffffffffffffffffffffffffffffff021916908373ffffffffffffffffffffffffffffffffffffffff16021790555080600560006101000a81548173ffffffffffffffffffffffffffffffffffffffff021916908373ffffffffffffffffffffffffffffffffffffffff160217905550600060068190555050505062000660565b600033905090565b60008060009054906101000a900473ffffffffffffffffffffffffffffffffffffffff169050816000806101000a81548173ffffffffffffffffffffffffffffffffffffffff021916908373ffffffffffffffffffffffffffffffffffffffff1602179055508173ffffffffffffffffffffffffffffffffffffffff168173ffffffffffffffffffffffffffffffffffffffff167f8be0079c531659141344cd1fd0a4f28419497f9722a3daafe3b4186f6b6457e060405160405180910390a35050565b82805462000254906200062a565b90600052602060002090601f016020900481019282620002785760008555620002c4565b82601f106200029357805160ff1916838001178555620002c4565b82800160010185558215620002c4579182015b82811115620002c3578251825591602001919060010190620002a6565b5b509050620002d39190620002d7565b5090565b5b80821115620002f2576000816000905550600101620002d8565b5090565b6000604051905090565b600080fd5b600080fd5b600080fd5b600080fd5b6000601f19601f8301169050919050565b7f4e487b7100000000000000000000000000000000000000000000000000000000600052604160045260246000fd5b6200035f8262000314565b810181811067ffffffffffffffff8211171562000381576200038062000325565b5b80604052505050565b600062000396620002f6565b9050620003a4828262000354565b919050565b600067ffffffffffffffff821115620003c757620003c662000325565b5b620003d28262000314565b9050602081019050919050565b60005b83811015620003ff578082015181840152602081019050620003e2565b838111156200040f576000848401525b50505050565b60006200042c6200042684620003a9565b6200038a565b9050828152602081018484840111156200044b576200044a6200030f565b5b62000458848285620003df565b509392505050565b600082601f8301126200047857620004776200030a565b5b81516200048a84826020860162000415565b91505092915050565b600073ffffffffffffffffffffffffffffffffffffffff82169050919050565b6000620004c08262000493565b9050919050565b6000620004d482620004b3565b9050919050565b620004e681620004c7565b8114620004f257600080fd5b50565b6000815190506200050681620004db565b92915050565b60006200051982620004b3565b9050919050565b6200052b816200050c565b81146200053757600080fd5b50565b6000815190506200054b8162000520565b92915050565b6000806000606084860312156200056d576200056c62000300565b5b600084015167ffffffffffffffff8111156200058e576200058d62000305565b5b6200059c8682870162000460565b9350506020620005af86828701620004f5565b9250506040620005c2868287016200053a565b9150509250925092565b7f4e487b7100000000000000000000000000000000000000000000000000000000600052602160045260246000fd5b7f4e487b7100000000000000000000000000000000000000000000000000000000600052602260045260246000fd5b600060028204905060018216806200064357607f821691505b602082108114156200065a5762000659620005fb565b5b50919050565b6135cb80620006706000396000f3fe6080604052600436106100a75760003560e01c8063715018a611610064578063715018a61461019b5780638da5cb5b146101b2578063cc2b1e47146101dd578063d3f0ac64146101f9578063f2b9629814610222578063f2fde38b1461025f576100a7565b806304f3bcec146100ac578063204ab184146100d75780633ccfd60b146101145780634323d1e31461012b5780635d63dc18146101545780636920f52b14610170575b600080fd5b3480156100b857600080fd5b506100c1610288565b6040516100ce919061268d565b60405180910390f35b3480156100e357600080fd5b506100fe60048036038101906100f991906128bf565b6102ae565b60405161010b919061296f565b60405180910390f35b34801561012057600080fd5b506101296108fb565b005b34801561013757600080fd5b50610152600480360381019061014d91906129b6565b610945565b005b61016e600480360381019061016991906129e3565b610a6b565b005b34801561017c57600080fd5b50610185610bf2565b6040516101929190612a6b565b60405180910390f35b3480156101a757600080fd5b506101b0610c18565b005b3480156101be57600080fd5b506101c7610ca0565b6040516101d49190612aa7565b60405180910390f35b6101f760048036038101906101f291906129e3565b610cc9565b005b34801561020557600080fd5b50610220600480360381019061021b9190612ac2565b610e23565b005b34801561022e57600080fd5b50610249600480360381019061024491906129b6565b6111a0565b6040516102569190612bb4565b60405180910390f35b34801561026b57600080fd5b5061028660048036038101906102819190612bfb565b6111d4565b005b600460009054906101000a900473ffffffffffffffffffffffffffffffffffffffff1681565b6000806000905060005b600860008960018111156102cf576102ce612b3d565b5b60018111156102e1576102e0612b3d565b5b8152602001908152602001600020600088600281111561030457610303612b3d565b5b600281111561031657610315612b3d565b5b815260200190815260200160002060008760ff1660ff168152602001908152602001600020805490508110156105de573373ffffffffffffffffffffffffffffffffffffffff16600860008a600181111561037457610373612b3d565b5b600181111561038657610385612b3d565b5b815260200190815260200160002060008960028111156103a9576103a8612b3d565b5b60028111156103bb576103ba612b3d565b5b815260200190815260200160002060008860ff1660ff16815260200190815260200160002082815481106103f2576103f1612c28565b5b906000526020600020906002020160010160029054906101000a900473ffffffffffffffffffffffffffffffffffffffff1673ffffffffffffffffffffffffffffffffffffffff1614801561050257508461ffff16600860008a600181111561045e5761045d612b3d565b5b60018111156104705761046f612b3d565b5b8152602001908152602001600020600089600281111561049357610492612b3d565b5b60028111156104a5576104a4612b3d565b5b815260200190815260200160002060008860ff1660ff16815260200190815260200160002082815481106104dc576104db612c28565b5b906000526020600020906002020160010160009054906101000a900461ffff1661ffff16145b156105cb576001600860008a60018111156105205761051f612b3d565b5b600181111561053257610531612b3d565b5b8152602001908152602001600020600089600281111561055557610554612b3d565b5b600281111561056757610566612b3d565b5b815260200190815260200160002060008860ff1660ff168152602001908152602001600020828154811061059e5761059d612c28565b5b906000526020600020906002020160010160166101000a81548160ff021916908315150217905550600191505b80806105d690612c86565b9150506102b8565b508061061f576040517f08c379a000000000000000000000000000000000000000000000000000000000815260040161061690612d2c565b60405180910390fd5b600060065490506006600081548092919061063990612c86565b9190505550600061064d89898989336112cc565b9050600560009054906101000a900473ffffffffffffffffffffffffffffffffffffffff1673ffffffffffffffffffffffffffffffffffffffff1663e86f6367338360018001868a6040518663ffffffff1660e01b81526004016106b5959493929190612eb9565b600060405180830381600087803b1580156106cf57600080fd5b505af11580156106e3573d6000803e3d6000fd5b50505050600960008a60018111156106fe576106fd612b3d565b5b60018111156107105761070f612b3d565b5b8152602001908152602001600020600089600281111561073357610732612b3d565b5b600281111561074557610744612b3d565b5b815260200190815260200160002060008860ff1660ff16815260200190815260200160002060008761ffff1661ffff16815260200190815260200160002060003373ffffffffffffffffffffffffffffffffffffffff1673ffffffffffffffffffffffffffffffffffffffff16815260200190815260200160002054600a600083815260200190815260200160002081905550600960008a60018111156107ef576107ee612b3d565b5b600181111561080157610800612b3d565b5b8152602001908152602001600020600089600281111561082457610823612b3d565b5b600281111561083657610835612b3d565b5b815260200190815260200160002060008860ff1660ff16815260200190815260200160002060008761ffff1661ffff16815260200190815260200160002060003373ffffffffffffffffffffffffffffffffffffffff1673ffffffffffffffffffffffffffffffffffffffff168152602001908152602001600020600090557f485576c07f0e3d474fe3dd45278bf1290367e047a88a21a9b4d343547d951a8f816040516108e4919061296f565b60405180910390a180935050505095945050505050565b6000600181111561090f5761090e612b3d565b5b600160020160009054906101000a900460ff16600181111561093457610933612b3d565b5b141561094357610942611314565b5b565b600560009054906101000a900473ffffffffffffffffffffffffffffffffffffffff1673ffffffffffffffffffffffffffffffffffffffff1663ac7aae4233836040518363ffffffff1660e01b81526004016109a2929190612f1a565b600060405180830381600087803b1580156109bc57600080fd5b505af11580156109d0573d6000803e3d6000fd5b50505050600b600082815260200190815260200160002060009054906101000a900460ff16610a34576040517f08c379a0000000000000000000000000000000000000000000000000000000008152600401610a2b90612f8f565b60405180910390fd5b610a5133600a6000848152602001908152602001600020546119d1565b600a60008281526020019081526020016000206000905550565b600180811115610a7e57610a7d612b3d565b5b600160020160009054906101000a900460ff166001811115610aa357610aa2612b3d565b5b1415610adb576040517f919142bc00000000000000000000000000000000000000000000000000000000815260040160405180910390fd5b3460008111610b2157806040517fd59f5ff0000000000000000000000000000000000000000000000000000000008152600401610b18919061296f565b60405180910390fd5b8261ffff166103e88111610b6c57806040517fa0c5f30c000000000000000000000000000000000000000000000000000000008152600401610b63919061296f565b60405180910390fd5b60006103e88086610b7d9190612faf565b61ffff1685610b8c9190612fe3565b610b96919061306c565b9050348114610bda576040517f08c379a0000000000000000000000000000000000000000000000000000000008152600401610bd19061310f565b60405180910390fd5b610be960018888888833611a1c565b50505050505050565b600560009054906101000a900473ffffffffffffffffffffffffffffffffffffffff1681565b610c20611e3f565b73ffffffffffffffffffffffffffffffffffffffff16610c3e610ca0565b73ffffffffffffffffffffffffffffffffffffffff1614610c94576040517f08c379a0000000000000000000000000000000000000000000000000000000008152600401610c8b9061317b565b60405180910390fd5b610c9e6000611e47565b565b60008060009054906101000a900473ffffffffffffffffffffffffffffffffffffffff16905090565b600180811115610cdc57610cdb612b3d565b5b600160020160009054906101000a900460ff166001811115610d0157610d00612b3d565b5b1415610d39576040517f919142bc00000000000000000000000000000000000000000000000000000000815260040160405180910390fd5b3460008111610d7f57806040517fd59f5ff0000000000000000000000000000000000000000000000000000000008152600401610d76919061296f565b60405180910390fd5b8261ffff166103e88111610dca57806040517fa0c5f30c000000000000000000000000000000000000000000000000000000008152600401610dc1919061296f565b60405180910390fd5b348314610e0c576040517f08c379a0000000000000000000000000000000000000000000000000000000008152600401610e039061320d565b60405180910390fd5b610e1b60008787878733611a1c565b505050505050565b600060076000876001811115610e3c57610e3b612b3d565b5b6001811115610e4e57610e4d612b3d565b5b81526020019081526020016000206000866002811115610e7157610e70612b3d565b5b6002811115610e8357610e82612b3d565b5b815260200190815260200160002060008560ff1660ff16815260200190815260200160002060008461ffff1661ffff168152602001908152602001600020805480602002602001604051908101604052809291908181526020016000905b82821015610f735783829060005260206000209060020201604051806040016040529081600082015481526020016001820160009054906101000a900473ffffffffffffffffffffffffffffffffffffffff1673ffffffffffffffffffffffffffffffffffffffff1673ffffffffffffffffffffffffffffffffffffffff168152505081526020019060010190610ee1565b5050505090506000805b8251811015611156573373ffffffffffffffffffffffffffffffffffffffff16838281518110610fb057610faf612c28565b5b60200260200101516020015173ffffffffffffffffffffffffffffffffffffffff16148015610ffc575083838281518110610fee57610fed612c28565b5b602002602001015160000151145b1561114357600191507fb6c54b102e4bccaa4d9fa4a2ac89bdb9bffc6aecbdfc3baacf7cb16425c577dc88888888883360405161103e96959493929190613293565b60405180910390a161105033856119d1565b6007600089600181111561106757611066612b3d565b5b600181111561107957611078612b3d565b5b8152602001908152602001600020600088600281111561109c5761109b612b3d565b5b60028111156110ae576110ad612b3d565b5b815260200190815260200160002060008760ff1660ff16815260200190815260200160002060008661ffff1661ffff16815260200190815260200160002081815481106110fe576110fd612c28565b5b90600052602060002090600202016000808201600090556001820160006101000a81549073ffffffffffffffffffffffffffffffffffffffff02191690555050611156565b808061114e90612c86565b915050610f7d565b5080611197576040517f08c379a000000000000000000000000000000000000000000000000000000000815260040161118e90613340565b60405180910390fd5b50505050505050565b600c81815481106111b057600080fd5b9060005260206000209060209182820401919006915054906101000a900460ff1681565b6111dc611e3f565b73ffffffffffffffffffffffffffffffffffffffff166111fa610ca0565b73ffffffffffffffffffffffffffffffffffffffff1614611250576040517f08c379a00000000000000000000000000000000000000000000000000000000081526004016112479061317b565b60405180910390fd5b600073ffffffffffffffffffffffffffffffffffffffff168173ffffffffffffffffffffffffffffffffffffffff1614156112c0576040517f08c379a00000000000000000000000000000000000000000000000000000000081526004016112b7906133d2565b60405180910390fd5b6112c981611e47565b50565b6000610fff6001800183888888886040516020016112ef969594939291906133f2565b6040516020818303038152906040528051906020012060001c16905095945050505050565b60018060020160006101000a81548160ff0219169083600181111561133c5761133b612b3d565b5b021790555060005b600c805490508110156119ce576000600c828154811061136757611366612c28565b5b90600052602060002090602091828204019190069054906101000a900460ff16905060005b600d60008360028111156113a3576113a2612b3d565b5b60028111156113b5576113b4612b3d565b5b8152602001908152602001600020805490508110156119b9576000600d60008460028111156113e7576113e6612b3d565b5b60028111156113f9576113f8612b3d565b5b8152602001908152602001600020828154811061141957611418612c28565b5b90600052602060002090602091828204019190069054906101000a900460ff1690506000600460009054906101000a900473ffffffffffffffffffffffffffffffffffffffff1673ffffffffffffffffffffffffffffffffffffffff16637450666260018001600087866040518563ffffffff1660e01b81526004016114a2949392919061345a565b602060405180830381600087803b1580156114bc57600080fd5b505af11580156114d0573d6000803e3d6000fd5b505050506040513d601f19601f820116820180604052508101906114f491906134de565b90506000600115158215151461150b57600161150e565b60005b905060006008600083600181111561152957611528612b3d565b5b600181111561153b5761153a612b3d565b5b8152602001908152602001600020600087600281111561155e5761155d612b3d565b5b60028111156115705761156f612b3d565b5b815260200190815260200160002060008560ff1660ff168152602001908152602001600020805480602002602001604051908101604052809291908181526020016000905b828210156116825783829060005260206000209060020201604051806080016040529081600082015481526020016001820160009054906101000a900461ffff1661ffff1661ffff1681526020016001820160029054906101000a900473ffffffffffffffffffffffffffffffffffffffff1673ffffffffffffffffffffffffffffffffffffffff1673ffffffffffffffffffffffffffffffffffffffff1681526020016001820160169054906101000a900460ff161515151581525050815260200190600101906115b5565b50505050905060005b81518110156119a1578181815181106116a7576116a6612c28565b5b602002602001015160600151156117375760006117038489888686815181106116d3576116d2612c28565b5b6020026020010151602001518787815181106116f2576116f1612c28565b5b6020026020010151604001516112cc565b90506001600b600083815260200190815260200160002060006101000a81548160ff0219169083151502179055505061198e565b61187482828151811061174d5761174c612c28565b5b602002602001015160400151600960008660018111156117705761176f612b3d565b5b600181111561178257611781612b3d565b5b815260200190815260200160002060008a60028111156117a5576117a4612b3d565b5b60028111156117b7576117b6612b3d565b5b815260200190815260200160002060008860ff1660ff16815260200190815260200160002060008585815181106117f1576117f0612c28565b5b60200260200101516020015161ffff1661ffff168152602001908152602001600020600085858151811061182857611827612c28565b5b60200260200101516040015173ffffffffffffffffffffffffffffffffffffffff1673ffffffffffffffffffffffffffffffffffffffff168152602001908152602001600020546119d1565b6009600084600181111561188b5761188a612b3d565b5b600181111561189d5761189c612b3d565b5b815260200190815260200160002060008860028111156118c0576118bf612b3d565b5b60028111156118d2576118d1612b3d565b5b815260200190815260200160002060008660ff1660ff168152602001908152602001600020600083838151811061190c5761190b612c28565b5b60200260200101516020015161ffff1661ffff168152602001908152602001600020600083838151811061194357611942612c28565b5b60200260200101516040015173ffffffffffffffffffffffffffffffffffffffff1673ffffffffffffffffffffffffffffffffffffffff168152602001908152602001600020600090555b808061199990612c86565b91505061168b565b505050505080806119b190612c86565b91505061138c565b505080806119c690612c86565b915050611344565b50565b8173ffffffffffffffffffffffffffffffffffffffff166108fc829081150290604051600060405180830381858888f19350505050158015611a17573d6000803e3d6000fd5b505050565b6000866001811115611a3157611a30612b3d565b5b60006001811115611a4557611a44612b3d565b5b14611a51576000611a54565b60015b9050600060076000836001811115611a6f57611a6e612b3d565b5b6001811115611a8157611a80612b3d565b5b81526020019081526020016000206000886002811115611aa457611aa3612b3d565b5b6002811115611ab657611ab5612b3d565b5b815260200190815260200160002060008760ff1660ff16815260200190815260200160002060008661ffff1661ffff168152602001908152602001600020805480602002602001604051908101604052809291908181526020016000905b82821015611ba65783829060005260206000209060020201604051806040016040529081600082015481526020016001820160009054906101000a900473ffffffffffffffffffffffffffffffffffffffff1673ffffffffffffffffffffffffffffffffffffffff1673ffffffffffffffffffffffffffffffffffffffff168152505081526020019060010190611b14565b505050509050600081511415611bcb57611bc4888888888888611f0b565b5050611e37565b600084905060005b8251811015611e0b576000838281518110611bf157611bf0612c28565b5b602002602001015160000151831115611c3857838281518110611c1757611c16612c28565b5b60200260200101516000015190508083611c31919061350b565b9250611c4a565b8290508083611c47919061350b565b92505b611c76858b8b8b85898881518110611c6557611c64612c28565b5b602002602001015160200151612097565b838281518110611c8957611c88612c28565b5b602002602001015160000151811415611d25577fb6c54b102e4bccaa4d9fa4a2ac89bdb9bffc6aecbdfc3baacf7cb16425c577dc858b8b8b85898881518110611cd557611cd4612c28565b5b602002602001015160200151604051611cf396959493929190613293565b60405180910390a1838281518110611d0e57611d0d612c28565b5b60200260200101611d1d6125de565b815250611dd6565b80848381518110611d3957611d38612c28565b5b6020026020010151600001818151611d51919061350b565b915081815250507f2d3c87b3a181302622e946eb34f10edb636e67a3df7beb58c472ac3feacb0668858b8b8b888781518110611d9057611d8f612c28565b5b602002602001015160000151898881518110611daf57611dae612c28565b5b602002602001015160200151604051611dcd96959493929190613293565b60405180910390a15b6000831415611df757611ded8b8b8b8b8b8b612097565b5050505050611e37565b508080611e0390612c86565b915050611bd3565b50611e2589898989858a611e1f919061350b565b89612097565b611e33898989898589611f0b565b5050505b505050505050565b600033905090565b60008060009054906101000a900473ffffffffffffffffffffffffffffffffffffffff169050816000806101000a81548173ffffffffffffffffffffffffffffffffffffffff021916908373ffffffffffffffffffffffffffffffffffffffff1602179055508173ffffffffffffffffffffffffffffffffffffffff168173ffffffffffffffffffffffffffffffffffffffff167f8be0079c531659141344cd1fd0a4f28419497f9722a3daafe3b4186f6b6457e060405160405180910390a35050565b60076000876001811115611f2257611f21612b3d565b5b6001811115611f3457611f33612b3d565b5b81526020019081526020016000206000866002811115611f5757611f56612b3d565b5b6002811115611f6957611f68612b3d565b5b815260200190815260200160002060008560ff1660ff16815260200190815260200160002060008461ffff1661ffff16815260200190815260200160002060405180604001604052808481526020018373ffffffffffffffffffffffffffffffffffffffff1681525090806001815401808255809150506001900390600052602060002090600202016000909190919091506000820151816000015560208201518160010160006101000a81548173ffffffffffffffffffffffffffffffffffffffff021916908373ffffffffffffffffffffffffffffffffffffffff16021790555050507f983ea0a956e0fd28aee415ea0035b9e9ff87b3cca8a51a457e526c85c5b173ba86868686868660405161208796959493929190613293565b60405180910390a1505050505050565b600f60008660028111156120ae576120ad612b3d565b5b60028111156120c0576120bf612b3d565b5b815260200190815260200160002060008560ff1660ff16815260200190815260200160002060009054906101000a900460ff166122c757600e600086600281111561210e5761210d612b3d565b5b60028111156121205761211f612b3d565b5b815260200190815260200160002060009054906101000a900460ff166121e557600c8590806001815401808255809150506001900390600052602060002090602091828204019190069091909190916101000a81548160ff0219169083600281111561218f5761218e612b3d565b5b02179055506001600e60008760028111156121ad576121ac612b3d565b5b60028111156121bf576121be612b3d565b5b815260200190815260200160002060006101000a81548160ff0219169083151502179055505b600d60008660028111156121fc576121fb612b3d565b5b600281111561220e5761220d612b3d565b5b81526020019081526020016000208490806001815401808255809150506001900390600052602060002090602091828204019190069091909190916101000a81548160ff021916908360ff1602179055506001600f600087600281111561227857612277612b3d565b5b600281111561228a57612289612b3d565b5b815260200190815260200160002060008660ff1660ff16815260200190815260200160002060006101000a81548160ff0219169083151502179055505b6000829050600060018111156122e0576122df612b3d565b5b8760018111156122f3576122f2612b3d565b5b1415612324576103e880856123089190612faf565b61ffff16846123179190612fe3565b612321919061306c565b90505b806009600089600181111561233c5761233b612b3d565b5b600181111561234e5761234d612b3d565b5b8152602001908152602001600020600088600281111561237157612370612b3d565b5b600281111561238357612382612b3d565b5b815260200190815260200160002060008760ff1660ff16815260200190815260200160002060008661ffff1661ffff16815260200190815260200160002060008473ffffffffffffffffffffffffffffffffffffffff1673ffffffffffffffffffffffffffffffffffffffff168152602001908152602001600020600082825461240d919061353f565b925050819055506008600088600181111561242b5761242a612b3d565b5b600181111561243d5761243c612b3d565b5b815260200190815260200160002060008760028111156124605761245f612b3d565b5b600281111561247257612471612b3d565b5b815260200190815260200160002060008660ff1660ff16815260200190815260200160002060405180608001604052808581526020018661ffff1681526020018473ffffffffffffffffffffffffffffffffffffffff1681526020016000151581525090806001815401808255809150506001900390600052602060002090600202016000909190919091506000820151816000015560208201518160010160006101000a81548161ffff021916908361ffff16021790555060408201518160010160026101000a81548173ffffffffffffffffffffffffffffffffffffffff021916908373ffffffffffffffffffffffffffffffffffffffff16021790555060608201518160010160166101000a81548160ff02191690831515021790555050507fa6505fb4d47cd8da6f9fa27a9576fd9d76e171a408f045bad68b035dfc1348ad8787878787876040516125cd96959493929190613293565b60405180910390a150505050505050565b604051806040016040528060008152602001600073ffffffffffffffffffffffffffffffffffffffff1681525090565b600073ffffffffffffffffffffffffffffffffffffffff82169050919050565b6000819050919050565b600061265361264e6126498461260e565b61262e565b61260e565b9050919050565b600061266582612638565b9050919050565b60006126778261265a565b9050919050565b6126878161266c565b82525050565b60006020820190506126a2600083018461267e565b92915050565b6000604051905090565b600080fd5b600080fd5b600281106126c957600080fd5b50565b6000813590506126db816126bc565b92915050565b600381106126ee57600080fd5b50565b600081359050612700816126e1565b92915050565b600060ff82169050919050565b61271c81612706565b811461272757600080fd5b50565b60008135905061273981612713565b92915050565b600061ffff82169050919050565b6127568161273f565b811461276157600080fd5b50565b6000813590506127738161274d565b92915050565b600080fd5b600080fd5b6000601f19601f8301169050919050565b7f4e487b7100000000000000000000000000000000000000000000000000000000600052604160045260246000fd5b6127cc82612783565b810181811067ffffffffffffffff821117156127eb576127ea612794565b5b80604052505050565b60006127fe6126a8565b905061280a82826127c3565b919050565b600067ffffffffffffffff82111561282a57612829612794565b5b61283382612783565b9050602081019050919050565b82818337600083830152505050565b600061286261285d8461280f565b6127f4565b90508281526020810184848401111561287e5761287d61277e565b5b612889848285612840565b509392505050565b600082601f8301126128a6576128a5612779565b5b81356128b684826020860161284f565b91505092915050565b600080600080600060a086880312156128db576128da6126b2565b5b60006128e9888289016126cc565b95505060206128fa888289016126f1565b945050604061290b8882890161272a565b935050606061291c88828901612764565b925050608086013567ffffffffffffffff81111561293d5761293c6126b7565b5b61294988828901612891565b9150509295509295909350565b6000819050919050565b61296981612956565b82525050565b60006020820190506129846000830184612960565b92915050565b61299381612956565b811461299e57600080fd5b50565b6000813590506129b08161298a565b92915050565b6000602082840312156129cc576129cb6126b2565b5b60006129da848285016129a1565b91505092915050565b600080600080608085870312156129fd576129fc6126b2565b5b6000612a0b878288016126f1565b9450506020612a1c8782880161272a565b9350506040612a2d87828801612764565b9250506060612a3e878288016129a1565b91505092959194509250565b6000612a558261265a565b9050919050565b612a6581612a4a565b82525050565b6000602082019050612a806000830184612a5c565b92915050565b6000612a918261260e565b9050919050565b612aa181612a86565b82525050565b6000602082019050612abc6000830184612a98565b92915050565b600080600080600060a08688031215612ade57612add6126b2565b5b6000612aec888289016126cc565b9550506020612afd888289016126f1565b9450506040612b0e8882890161272a565b9350506060612b1f88828901612764565b9250506080612b30888289016129a1565b9150509295509295909350565b7f4e487b7100000000000000000000000000000000000000000000000000000000600052602160045260246000fd5b60038110612b7d57612b7c612b3d565b5b50565b6000819050612b8e82612b6c565b919050565b6000612b9e82612b80565b9050919050565b612bae81612b93565b82525050565b6000602082019050612bc96000830184612ba5565b92915050565b612bd881612a86565b8114612be357600080fd5b50565b600081359050612bf581612bcf565b92915050565b600060208284031215612c1157612c106126b2565b5b6000612c1f84828501612be6565b91505092915050565b7f4e487b7100000000000000000000000000000000000000000000000000000000600052603260045260246000fd5b7f4e487b7100000000000000000000000000000000000000000000000000000000600052601160045260246000fd5b6000612c9182612956565b91507fffffffffffffffffffffffffffffffffffffffffffffffffffffffffffffffff821415612cc457612cc3612c57565b5b600182019050919050565b600082825260208201905092915050565b7f4e6f204d61746368656420426574000000000000000000000000000000000000600082015250565b6000612d16600e83612ccf565b9150612d2182612ce0565b602082019050919050565b60006020820190508181036000830152612d4581612d09565b9050919050565b7f4e487b7100000000000000000000000000000000000000000000000000000000600052602260045260246000fd5b60006002820490506001821680612d9357607f821691505b60208210811415612da757612da6612d4c565b5b50919050565b60008190508160005260206000209050919050565b60008154612dcf81612d7b565b612dd98186612ccf565b94506001821660008114612df45760018114612e0657612e39565b60ff1983168652602086019350612e39565b612e0f85612dad565b60005b83811015612e3157815481890152600182019150602081019050612e12565b808801955050505b50505092915050565b600081519050919050565b60005b83811015612e6b578082015181840152602081019050612e50565b83811115612e7a576000848401525b50505050565b6000612e8b82612e42565b612e958185612ccf565b9350612ea5818560208601612e4d565b612eae81612783565b840191505092915050565b600060a082019050612ece6000830188612a98565b612edb6020830187612960565b8181036040830152612eed8186612dc2565b9050612efc6060830185612960565b8181036080830152612f0e8184612e80565b90509695505050505050565b6000604082019050612f2f6000830185612a98565b612f3c6020830184612960565b9392505050565b7f426574206c6f7374000000000000000000000000000000000000000000000000600082015250565b6000612f79600883612ccf565b9150612f8482612f43565b602082019050919050565b60006020820190508181036000830152612fa881612f6c565b9050919050565b6000612fba8261273f565b9150612fc58361273f565b925082821015612fd857612fd7612c57565b5b828203905092915050565b6000612fee82612956565b9150612ff983612956565b9250817fffffffffffffffffffffffffffffffffffffffffffffffffffffffffffffffff048311821515161561303257613031612c57565b5b828202905092915050565b7f4e487b7100000000000000000000000000000000000000000000000000000000600052601260045260246000fd5b600061307782612956565b915061308283612956565b9250826130925761309161303d565b5b828204905092915050565b7f4c6971696469747920616e642073656e642076616c756520617265206e6f742060008201527f657175616c210000000000000000000000000000000000000000000000000000602082015250565b60006130f9602683612ccf565b91506131048261309d565b604082019050919050565b60006020820190508181036000830152613128816130ec565b9050919050565b7f4f776e61626c653a2063616c6c6572206973206e6f7420746865206f776e6572600082015250565b6000613165602083612ccf565b91506131708261312f565b602082019050919050565b6000602082019050818103600083015261319481613158565b9050919050565b7f416d6f756e7420616e642073656e642076616c756520617265206e6f7420657160008201527f75616c2100000000000000000000000000000000000000000000000000000000602082015250565b60006131f7602483612ccf565b91506132028261319b565b604082019050919050565b60006020820190508181036000830152613226816131ea565b9050919050565b6002811061323e5761323d612b3d565b5b50565b600081905061324f8261322d565b919050565b600061325f82613241565b9050919050565b61326f81613254565b82525050565b61327e81612706565b82525050565b61328d8161273f565b82525050565b600060c0820190506132a86000830189613266565b6132b56020830188612ba5565b6132c26040830187613275565b6132cf6060830186613284565b6132dc6080830185612960565b6132e960a0830184612a98565b979650505050505050565b7f4e6f204265740000000000000000000000000000000000000000000000000000600082015250565b600061332a600683612ccf565b9150613335826132f4565b602082019050919050565b600060208201905081810360008301526133598161331d565b9050919050565b7f4f776e61626c653a206e6577206f776e657220697320746865207a65726f206160008201527f6464726573730000000000000000000000000000000000000000000000000000602082015250565b60006133bc602683612ccf565b91506133c782613360565b604082019050919050565b600060208201905081810360008301526133eb816133af565b9050919050565b600060c082019050818103600083015261340c8189612dc2565b905061341b6020830188612a98565b6134286040830187613266565b6134356060830186612ba5565b6134426080830185613275565b61344f60a0830184613284565b979650505050505050565b600060808201905081810360008301526134748187612dc2565b90506134836020830186613266565b6134906040830185612ba5565b61349d6060830184613275565b95945050505050565b60008115159050919050565b6134bb816134a6565b81146134c657600080fd5b50565b6000815190506134d8816134b2565b92915050565b6000602082840312156134f4576134f36126b2565b5b6000613502848285016134c9565b91505092915050565b600061351682612956565b915061352183612956565b92508282101561353457613533612c57565b5b828203905092915050565b600061354a82612956565b915061355583612956565b9250827fffffffffffffffffffffffffffffffffffffffffffffffffffffffffffffffff0382111561358a57613589612c57565b5b82820190509291505056fea2646970667358221220a62a1c6bc2a73f8cc0cd4f515065ff11fdfaa4840482637c2a8724f0e05cfcec64736f6c63430008090033",
  "linkReferences": {},
  "deployedLinkReferences": {}
}