{
  "_format": "hh-sol-artifact-1",
  "contractName": "AaveLossless",
  "sourceName": "contracts/AaveLossless.sol",
  "abi": [
    {
      "inputs": [
        {
          "internalType": "address",
          "name": "_token",
          "type": "address"
        },
        {
          "internalType": "address",
          "name": "_lendingPoolAddress",
          "type": "address"
        },
        {
          "internalType": "uint256",
          "name": "_matchStartBlock",
          "type": "uint256"
        },
        {
          "internalType": "uint256",
          "name": "_matchFinishBlock",
          "type": "uint256"
        }
      ],
      "stateMutability": "nonpayable",
      "type": "constructor"
    },
    {
      "anonymous": false,
      "inputs": [
        {
          "indexed": false,
          "internalType": "address",
          "name": "player",
          "type": "address"
        },
        {
          "indexed": false,
          "internalType": "enum AaveLossless.BetSide",
          "name": "betside",
          "type": "uint8"
        },
        {
          "indexed": false,
          "internalType": "uint256",
          "name": "amount",
          "type": "uint256"
        },
        {
          "indexed": false,
          "internalType": "uint256",
          "name": "_block",
          "type": "uint256"
        }
      ],
      "name": "BetPlaced",
      "type": "event"
    },
    {
      "anonymous": false,
      "inputs": [
        {
          "indexed": true,
          "internalType": "address",
          "name": "previousOwner",
          "type": "address"
        },
        {
          "indexed": true,
          "internalType": "address",
          "name": "newOwner",
          "type": "address"
        }
      ],
      "name": "OwnershipTransferred",
      "type": "event"
    },
    {
      "anonymous": false,
      "inputs": [
        {
          "indexed": false,
          "internalType": "address",
          "name": "_winner",
          "type": "address"
        }
      ],
      "name": "Winner",
      "type": "event"
    },
    {
      "inputs": [
        {
          "internalType": "uint256",
          "name": "",
          "type": "uint256"
        }
      ],
      "name": "awayBetPlacer",
      "outputs": [
        {
          "internalType": "address",
          "name": "",
          "type": "address"
        }
      ],
      "stateMutability": "view",
      "type": "function"
    },
    {
      "inputs": [],
      "name": "awayBets",
      "outputs": [
        {
          "internalType": "uint256",
          "name": "",
          "type": "uint256"
        }
      ],
      "stateMutability": "view",
      "type": "function"
    },
    {
      "inputs": [
        {
          "internalType": "uint256",
          "name": "",
          "type": "uint256"
        }
      ],
      "name": "awayPointsAfterBet",
      "outputs": [
        {
          "internalType": "uint256",
          "name": "",
          "type": "uint256"
        }
      ],
      "stateMutability": "view",
      "type": "function"
    },
    {
      "inputs": [],
      "name": "awayPointsTrackers",
      "outputs": [
        {
          "internalType": "uint256",
          "name": "",
          "type": "uint256"
        }
      ],
      "stateMutability": "view",
      "type": "function"
    },
    {
      "inputs": [
        {
          "internalType": "uint256",
          "name": "",
          "type": "uint256"
        }
      ],
      "name": "drawBetPlacer",
      "outputs": [
        {
          "internalType": "address",
          "name": "",
          "type": "address"
        }
      ],
      "stateMutability": "view",
      "type": "function"
    },
    {
      "inputs": [],
      "name": "drawBets",
      "outputs": [
        {
          "internalType": "uint256",
          "name": "",
          "type": "uint256"
        }
      ],
      "stateMutability": "view",
      "type": "function"
    },
    {
      "inputs": [
        {
          "internalType": "uint256",
          "name": "",
          "type": "uint256"
        }
      ],
      "name": "drawPointsAfterBet",
      "outputs": [
        {
          "internalType": "uint256",
          "name": "",
          "type": "uint256"
        }
      ],
      "stateMutability": "view",
      "type": "function"
    },
    {
      "inputs": [],
      "name": "drawPointsTrackers",
      "outputs": [
        {
          "internalType": "uint256",
          "name": "",
          "type": "uint256"
        }
      ],
      "stateMutability": "view",
      "type": "function"
    },
    {
      "inputs": [
        {
          "internalType": "uint256",
          "name": "",
          "type": "uint256"
        }
      ],
      "name": "homeBetPlacer",
      "outputs": [
        {
          "internalType": "address",
          "name": "",
          "type": "address"
        }
      ],
      "stateMutability": "view",
      "type": "function"
    },
    {
      "inputs": [],
      "name": "homeBets",
      "outputs": [
        {
          "internalType": "uint256",
          "name": "",
          "type": "uint256"
        }
      ],
      "stateMutability": "view",
      "type": "function"
    },
    {
      "inputs": [
        {
          "internalType": "uint256",
          "name": "",
          "type": "uint256"
        }
      ],
      "name": "homePointsAfterBet",
      "outputs": [
        {
          "internalType": "uint256",
          "name": "",
          "type": "uint256"
        }
      ],
      "stateMutability": "view",
      "type": "function"
    },
    {
      "inputs": [],
      "name": "homePointsTrackers",
      "outputs": [
        {
          "internalType": "uint256",
          "name": "",
          "type": "uint256"
        }
      ],
      "stateMutability": "view",
      "type": "function"
    },
    {
      "inputs": [],
      "name": "lendingPool",
      "outputs": [
        {
          "internalType": "contract ILendingPool",
          "name": "",
          "type": "address"
        }
      ],
      "stateMutability": "view",
      "type": "function"
    },
    {
      "inputs": [],
      "name": "matchFinishBlock",
      "outputs": [
        {
          "internalType": "uint256",
          "name": "",
          "type": "uint256"
        }
      ],
      "stateMutability": "view",
      "type": "function"
    },
    {
      "inputs": [],
      "name": "matchStartBlock",
      "outputs": [
        {
          "internalType": "uint256",
          "name": "",
          "type": "uint256"
        }
      ],
      "stateMutability": "view",
      "type": "function"
    },
    {
      "inputs": [],
      "name": "owner",
      "outputs": [
        {
          "internalType": "address",
          "name": "",
          "type": "address"
        }
      ],
      "stateMutability": "view",
      "type": "function"
    },
    {
      "inputs": [
        {
          "internalType": "enum AaveLossless.BetSide",
          "name": "betSide",
          "type": "uint8"
        },
        {
          "internalType": "uint256",
          "name": "amount",
          "type": "uint256"
        }
      ],
      "name": "placeBet",
      "outputs": [],
      "stateMutability": "payable",
      "type": "function"
    },
    {
      "inputs": [
        {
          "internalType": "address",
          "name": "",
          "type": "address"
        }
      ],
      "name": "playerAwayPoints",
      "outputs": [
        {
          "internalType": "uint256",
          "name": "",
          "type": "uint256"
        }
      ],
      "stateMutability": "view",
      "type": "function"
    },
    {
      "inputs": [
        {
          "internalType": "address",
          "name": "",
          "type": "address"
        }
      ],
      "name": "playerBalance",
      "outputs": [
        {
          "internalType": "uint256",
          "name": "",
          "type": "uint256"
        }
      ],
      "stateMutability": "view",
      "type": "function"
    },
    {
      "inputs": [
        {
          "internalType": "address",
          "name": "",
          "type": "address"
        }
      ],
      "name": "playerDrawPoints",
      "outputs": [
        {
          "internalType": "uint256",
          "name": "",
          "type": "uint256"
        }
      ],
      "stateMutability": "view",
      "type": "function"
    },
    {
      "inputs": [
        {
          "internalType": "address",
          "name": "",
          "type": "address"
        }
      ],
      "name": "playerHomePoints",
      "outputs": [
        {
          "internalType": "uint256",
          "name": "",
          "type": "uint256"
        }
      ],
      "stateMutability": "view",
      "type": "function"
    },
    {
      "inputs": [],
      "name": "renounceOwnership",
      "outputs": [],
      "stateMutability": "nonpayable",
      "type": "function"
    },
    {
      "inputs": [
        {
          "internalType": "enum AaveLossless.BetSide",
          "name": "_winningSide",
          "type": "uint8"
        }
      ],
      "name": "setMatchWinnerAndWithdrawFromPool",
      "outputs": [],
      "stateMutability": "nonpayable",
      "type": "function"
    },
    {
      "inputs": [
        {
          "internalType": "uint256",
          "name": "amount",
          "type": "uint256"
        }
      ],
      "name": "sponsor",
      "outputs": [],
      "stateMutability": "payable",
      "type": "function"
    },
    {
      "inputs": [],
      "name": "sponsorDeposit",
      "outputs": [
        {
          "internalType": "uint256",
          "name": "",
          "type": "uint256"
        }
      ],
      "stateMutability": "view",
      "type": "function"
    },
    {
      "inputs": [],
      "name": "status",
      "outputs": [
        {
          "internalType": "enum Lossless.MatchStatus",
          "name": "",
          "type": "uint8"
        }
      ],
      "stateMutability": "view",
      "type": "function"
    },
    {
      "inputs": [],
      "name": "token",
      "outputs": [
        {
          "internalType": "address",
          "name": "",
          "type": "address"
        }
      ],
      "stateMutability": "view",
      "type": "function"
    },
    {
      "inputs": [],
      "name": "totalDeposits",
      "outputs": [
        {
          "internalType": "uint256",
          "name": "",
          "type": "uint256"
        }
      ],
      "stateMutability": "view",
      "type": "function"
    },
    {
      "inputs": [
        {
          "internalType": "address",
          "name": "newOwner",
          "type": "address"
        }
      ],
      "name": "transferOwnership",
      "outputs": [],
      "stateMutability": "nonpayable",
      "type": "function"
    },
    {
      "inputs": [],
      "name": "winner",
      "outputs": [
        {
          "internalType": "address",
          "name": "",
          "type": "address"
        }
      ],
      "stateMutability": "view",
      "type": "function"
    },
    {
      "inputs": [],
      "name": "winningSide",
      "outputs": [
        {
          "internalType": "enum AaveLossless.BetSide",
          "name": "",
          "type": "uint8"
        }
      ],
      "stateMutability": "view",
      "type": "function"
    },
    {
      "inputs": [],
      "name": "withdraw",
      "outputs": [],
      "stateMutability": "nonpayable",
      "type": "function"
    }
  ],
  "bytecode": "0x60806040523480156200001157600080fd5b506040516200322338038062003223833981810160405260808110156200003757600080fd5b8101908080519060200190929190805190602001909291908051906020019092919080519060200190929190505050818160006200007a6200026360201b60201c565b9050806000806101000a81548173ffffffffffffffffffffffffffffffffffffffff021916908373ffffffffffffffffffffffffffffffffffffffff1602179055508073ffffffffffffffffffffffffffffffffffffffff16600073ffffffffffffffffffffffffffffffffffffffff167f8be0079c531659141344cd1fd0a4f28419497f9722a3daafe3b4186f6b6457e060405160405180910390a35060008060146101000a81548160ff021916908360018111156200013757fe5b02179055508160018190555080600281905550505060008060146101000a81548160ff021916908360018111156200016b57fe5b021790555083601460006101000a81548173ffffffffffffffffffffffffffffffffffffffff021916908373ffffffffffffffffffffffffffffffffffffffff16021790555082601760016101000a81548173ffffffffffffffffffffffffffffffffffffffff021916908373ffffffffffffffffffffffffffffffffffffffff1602179055506000601760006101000a81548160ff021916908360038111156200021257fe5b02179055506000601560006101000a81548173ffffffffffffffffffffffffffffffffffffffff021916908373ffffffffffffffffffffffffffffffffffffffff160217905550505050506200026b565b600033905090565b612fa8806200027b6000396000f3fe6080604052600436106101e35760003560e01c8063b168ba4b11610102578063d9d5216011610095578063e8eaca7511610064578063e8eaca75146108e9578063f2fde38b14610914578063fbf0633814610965578063fc0c546a1461099b576101e3565b8063d9d52160146107dd578063dcb3b30e14610842578063dfbf53ae1461087d578063e11f3f77146108be576101e3565b8063c003aef3116100d1578063c003aef3146106f7578063c69de22414610722578063c734f0c31461074d578063c7b8cad514610778576101e3565b8063b168ba4b146105ea578063b3db3ced14610615578063b6cce5e214610664578063b810fe8d14610692576101e3565b8063788e26e71161017a57806391c54ca41161014957806391c54ca414610490578063a59a9973146104f5578063aa236df414610536578063ad9ed66e1461059b576101e3565b8063788e26e7146103aa57806379db8a13146103d55780637d882097146104245780638da5cb5b1461044f576101e3565b80633ccfd60b116101b65780633ccfd60b146102d95780634e33f83b146102f0578063645a004714610355578063715018a614610393576101e3565b80630873d9ec146101e857806309126f0814610213578063200d2ed21461027857806336201e53146102ae575b600080fd5b3480156101f457600080fd5b506101fd6109dc565b6040518082815260200191505060405180910390f35b34801561021f57600080fd5b506102626004803603602081101561023657600080fd5b81019080803573ffffffffffffffffffffffffffffffffffffffff1690602001909291905050506109e2565b6040518082815260200191505060405180910390f35b34801561028457600080fd5b5061028d6109fa565b6040518082600181111561029d57fe5b815260200191505060405180910390f35b3480156102ba57600080fd5b506102c3610a0d565b6040518082815260200191505060405180910390f35b3480156102e557600080fd5b506102ee610a13565b005b3480156102fc57600080fd5b5061033f6004803603602081101561031357600080fd5b81019080803573ffffffffffffffffffffffffffffffffffffffff169060200190929190505050610cbd565b6040518082815260200191505060405180910390f35b34801561036157600080fd5b506103916004803603602081101561037857600080fd5b81019080803560ff169060200190929190505050610cd5565b005b34801561039f57600080fd5b506103a861115d565b005b3480156103b657600080fd5b506103bf6112ca565b6040518082815260200191505060405180910390f35b3480156103e157600080fd5b5061040e600480360360208110156103f857600080fd5b81019080803590602001909291905050506112d0565b6040518082815260200191505060405180910390f35b34801561043057600080fd5b506104396112f1565b6040518082815260200191505060405180910390f35b34801561045b57600080fd5b506104646112f7565b604051808273ffffffffffffffffffffffffffffffffffffffff16815260200191505060405180910390f35b34801561049c57600080fd5b506104c9600480360360208110156104b357600080fd5b8101908080359060200190929190505050611320565b604051808273ffffffffffffffffffffffffffffffffffffffff16815260200191505060405180910390f35b34801561050157600080fd5b5061050a611353565b604051808273ffffffffffffffffffffffffffffffffffffffff16815260200191505060405180910390f35b34801561054257600080fd5b5061056f6004803603602081101561055957600080fd5b8101908080359060200190929190505050611379565b604051808273ffffffffffffffffffffffffffffffffffffffff16815260200191505060405180910390f35b3480156105a757600080fd5b506105d4600480360360208110156105be57600080fd5b81019080803590602001909291905050506113ac565b6040518082815260200191505060405180910390f35b3480156105f657600080fd5b506105ff6113cd565b6040518082815260200191505060405180910390f35b34801561062157600080fd5b5061064e6004803603602081101561063857600080fd5b81019080803590602001909291905050506113d3565b6040518082815260200191505060405180910390f35b6106906004803603602081101561067a57600080fd5b81019080803590602001909291905050506113f4565b005b34801561069e57600080fd5b506106e1600480360360208110156106b557600080fd5b81019080803573ffffffffffffffffffffffffffffffffffffffff169060200190929190505050611a1b565b6040518082815260200191505060405180910390f35b34801561070357600080fd5b5061070c611a33565b6040518082815260200191505060405180910390f35b34801561072e57600080fd5b50610737611a39565b6040518082815260200191505060405180910390f35b34801561075957600080fd5b50610762611a3f565b6040518082815260200191505060405180910390f35b34801561078457600080fd5b506107c76004803603602081101561079b57600080fd5b81019080803573ffffffffffffffffffffffffffffffffffffffff169060200190929190505050611a45565b6040518082815260200191505060405180910390f35b3480156107e957600080fd5b506108166004803603602081101561080057600080fd5b8101908080359060200190929190505050611a5d565b604051808273ffffffffffffffffffffffffffffffffffffffff16815260200191505060405180910390f35b61087b6004803603604081101561085857600080fd5b81019080803560ff16906020019092919080359060200190929190505050611a90565b005b34801561088957600080fd5b5061089261226b565b604051808273ffffffffffffffffffffffffffffffffffffffff16815260200191505060405180910390f35b3480156108ca57600080fd5b506108d3612291565b6040518082815260200191505060405180910390f35b3480156108f557600080fd5b506108fe612297565b6040518082815260200191505060405180910390f35b34801561092057600080fd5b506109636004803603602081101561093757600080fd5b81019080803573ffffffffffffffffffffffffffffffffffffffff16906020019092919050505061229d565b005b34801561097157600080fd5b5061097a61248f565b6040518082600381111561098a57fe5b815260200191505060405180910390f35b3480156109a757600080fd5b506109b06124a2565b604051808273ffffffffffffffffffffffffffffffffffffffff16815260200191505060405180910390f35b60085481565b60116020528060005260406000206000915090505481565b600060149054906101000a900460ff1681565b60045481565b600180811115610a1f57fe5b600060149054906101000a900460ff166001811115610a3a57fe5b14610aad576040517f08c379a000000000000000000000000000000000000000000000000000000000815260040180806020018281038252600e8152602001807f4d61746368206e6f74207061696400000000000000000000000000000000000081525060200191505060405180910390fd5b6000601060003373ffffffffffffffffffffffffffffffffffffffff1673ffffffffffffffffffffffffffffffffffffffff1681526020019081526020016000205411610b62576040517f08c379a000000000000000000000000000000000000000000000000000000000815260040180806020018281038252600f8152602001807f62616c616e6365206973207a65726f000000000000000000000000000000000081525060200191505060405180910390fd5b6000601060003373ffffffffffffffffffffffffffffffffffffffff1673ffffffffffffffffffffffffffffffffffffffff1681526020019081526020016000205490506000601060003373ffffffffffffffffffffffffffffffffffffffff1673ffffffffffffffffffffffffffffffffffffffff16815260200190815260200160002081905550601460009054906101000a900473ffffffffffffffffffffffffffffffffffffffff1673ffffffffffffffffffffffffffffffffffffffff1663a9059cbb33836040518363ffffffff1660e01b8152600401808373ffffffffffffffffffffffffffffffffffffffff16815260200182815260200192505050602060405180830381600087803b158015610c7e57600080fd5b505af1158015610c92573d6000803e3d6000fd5b505050506040513d6020811015610ca857600080fd5b81019080805190602001909291905050505050565b60106020528060005260406000206000915090505481565b6002544311610d4c576040517f08c379a00000000000000000000000000000000000000000000000000000000081526004018080602001828103825260108152602001807f47616d652069732066696e69736865640000000000000000000000000000000081525060200191505060405180910390fd5b610d546124c8565b73ffffffffffffffffffffffffffffffffffffffff16610d726112f7565b73ffffffffffffffffffffffffffffffffffffffff1614610dfb576040517f08c379a00000000000000000000000000000000000000000000000000000000081526004018080602001828103825260208152602001807f4f776e61626c653a2063616c6c6572206973206e6f7420746865206f776e657281525060200191505060405180910390fd5b8060016003811115610e0957fe5b816003811115610e1557fe5b1480610e365750600380811115610e2857fe5b816003811115610e3457fe5b145b80610e57575060026003811115610e4957fe5b816003811115610e5557fe5b145b610ec9576040517f08c379a000000000000000000000000000000000000000000000000000000000815260040180806020018281038252601c8152602001807f696e76616c696420617267756d656e7420666f7220626573746964650000000081525060200191505060405180910390fd5b60006001811115610ed657fe5b600060149054906101000a900460ff166001811115610ef157fe5b14610f64576040517f08c379a00000000000000000000000000000000000000000000000000000000081526004018080602001828103825260168152602001807f43616e7420736574746c652074686973206d617463680000000000000000000081525060200191505060405180910390fd5b6001600060146101000a81548160ff02191690836001811115610f8357fe5b021790555081601760006101000a81548160ff02191690836003811115610fa657fe5b0217905550601760019054906101000a900473ffffffffffffffffffffffffffffffffffffffff1673ffffffffffffffffffffffffffffffffffffffff166369328dec601460009054906101000a900473ffffffffffffffffffffffffffffffffffffffff167fffffffffffffffffffffffffffffffffffffffffffffffffffffffffffffffff306040518463ffffffff1660e01b8152600401808473ffffffffffffffffffffffffffffffffffffffff1681526020018381526020018273ffffffffffffffffffffffffffffffffffffffff1681526020019350505050602060405180830381600087803b15801561109e57600080fd5b505af11580156110b2573d6000803e3d6000fd5b505050506040513d60208110156110c857600080fd5b8101908080519060200190929190505050506110e26124d0565b6110ea612640565b7f745c90b656b4aafe296c8ca35aeacfe56cb96c90e1d320e5da643fff1051b6c0601560009054906101000a900473ffffffffffffffffffffffffffffffffffffffff16604051808273ffffffffffffffffffffffffffffffffffffffff16815260200191505060405180910390a15050565b6111656124c8565b73ffffffffffffffffffffffffffffffffffffffff166111836112f7565b73ffffffffffffffffffffffffffffffffffffffff161461120c576040517f08c379a00000000000000000000000000000000000000000000000000000000081526004018080602001828103825260208152602001807f4f776e61626c653a2063616c6c6572206973206e6f7420746865206f776e657281525060200191505060405180910390fd5b600073ffffffffffffffffffffffffffffffffffffffff1660008054906101000a900473ffffffffffffffffffffffffffffffffffffffff1673ffffffffffffffffffffffffffffffffffffffff167f8be0079c531659141344cd1fd0a4f28419497f9722a3daafe3b4186f6b6457e060405160405180910390a360008060006101000a81548173ffffffffffffffffffffffffffffffffffffffff021916908373ffffffffffffffffffffffffffffffffffffffff160217905550565b60165481565b600b81815481106112dd57fe5b906000526020600020016000915090505481565b60035481565b60008060009054906101000a900473ffffffffffffffffffffffffffffffffffffffff16905090565b600f6020528060005260406000206000915054906101000a900473ffffffffffffffffffffffffffffffffffffffff1681565b601760019054906101000a900473ffffffffffffffffffffffffffffffffffffffff1681565b600e6020528060005260406000206000915054906101000a900473ffffffffffffffffffffffffffffffffffffffff1681565b600a81815481106113b957fe5b906000526020600020016000915090505481565b60015481565b600c81815481106113e057fe5b906000526020600020016000915090505481565b6000600181111561140157fe5b600060149054906101000a900460ff16600181111561141c57fe5b1461148f576040517f08c379a000000000000000000000000000000000000000000000000000000000815260040180806020018281038252600e8152602001807f4d61746368206e6f74206f70656e00000000000000000000000000000000000081525060200191505060405180910390fd5b6001544310611506576040517f08c379a00000000000000000000000000000000000000000000000000000000081526004018080602001828103825260128152602001807f43616e7420706c61636520626574206e6f77000000000000000000000000000081525060200191505060405180910390fd5b6000811161157c576040517f08c379a00000000000000000000000000000000000000000000000000000000081526004018080602001828103825260168152602001807f616d6f756e74206d75737420626520706f73697469660000000000000000000081525060200191505060405180910390fd5b6000601460009054906101000a900473ffffffffffffffffffffffffffffffffffffffff1673ffffffffffffffffffffffffffffffffffffffff1663dd62ed3e33306040518363ffffffff1660e01b8152600401808373ffffffffffffffffffffffffffffffffffffffff1681526020018273ffffffffffffffffffffffffffffffffffffffff1681526020019250505060206040518083038186803b15801561162557600080fd5b505afa158015611639573d6000803e3d6000fd5b505050506040513d602081101561164f57600080fd5b81019080805190602001909291905050509050818110156116d8576040517f08c379a00000000000000000000000000000000000000000000000000000000081526004018080602001828103825260198152602001807f436865636b2074686520746f6b656e20616c6c6f77616e63650000000000000081525060200191505060405180910390fd5b601460009054906101000a900473ffffffffffffffffffffffffffffffffffffffff1673ffffffffffffffffffffffffffffffffffffffff166323b872dd3330856040518463ffffffff1660e01b8152600401808473ffffffffffffffffffffffffffffffffffffffff1681526020018373ffffffffffffffffffffffffffffffffffffffff1681526020018281526020019350505050602060405180830381600087803b15801561178957600080fd5b505af115801561179d573d6000803e3d6000fd5b505050506040513d60208110156117b357600080fd5b810190808051906020019092919050505050601460009054906101000a900473ffffffffffffffffffffffffffffffffffffffff1673ffffffffffffffffffffffffffffffffffffffff1663095ea7b3601760019054906101000a900473ffffffffffffffffffffffffffffffffffffffff16846040518363ffffffff1660e01b8152600401808373ffffffffffffffffffffffffffffffffffffffff16815260200182815260200192505050602060405180830381600087803b15801561187a57600080fd5b505af115801561188e573d6000803e3d6000fd5b505050506040513d60208110156118a457600080fd5b810190808051906020019092919050505050601760019054906101000a900473ffffffffffffffffffffffffffffffffffffffff1673ffffffffffffffffffffffffffffffffffffffff1663e8eda9df601460009054906101000a900473ffffffffffffffffffffffffffffffffffffffff16843060006040518563ffffffff1660e01b8152600401808573ffffffffffffffffffffffffffffffffffffffff1681526020018481526020018373ffffffffffffffffffffffffffffffffffffffff168152602001828152602001945050505050600060405180830381600087803b15801561199257600080fd5b505af11580156119a6573d6000803e3d6000fd5b50505050816003600082825401925050819055508160166000828254019250508190555081601060003373ffffffffffffffffffffffffffffffffffffffff1673ffffffffffffffffffffffffffffffffffffffff168152602001908152602001600020600082825401925050819055505050565b60136020528060005260406000206000915090505481565b60065481565b60095481565b60025481565b60126020528060005260406000206000915090505481565b600d6020528060005260406000206000915054906101000a900473ffffffffffffffffffffffffffffffffffffffff1681565b60006001811115611a9d57fe5b600060149054906101000a900460ff166001811115611ab857fe5b14611b2b576040517f08c379a000000000000000000000000000000000000000000000000000000000815260040180806020018281038252600e8152602001807f4d61746368206e6f74206f70656e00000000000000000000000000000000000081525060200191505060405180910390fd5b6001544310611ba2576040517f08c379a00000000000000000000000000000000000000000000000000000000081526004018080602001828103825260128152602001807f43616e7420706c61636520626574206e6f77000000000000000000000000000081525060200191505060405180910390fd5b8160016003811115611bb057fe5b816003811115611bbc57fe5b1480611bdd5750600380811115611bcf57fe5b816003811115611bdb57fe5b145b80611bfe575060026003811115611bf057fe5b816003811115611bfc57fe5b145b611c70576040517f08c379a000000000000000000000000000000000000000000000000000000000815260040180806020018281038252601c8152602001807f696e76616c696420617267756d656e7420666f7220626573746964650000000081525060200191505060405180910390fd5b60008211611ce6576040517f08c379a00000000000000000000000000000000000000000000000000000000081526004018080602001828103825260168152602001807f616d6f756e74206d75737420626520706f73697469660000000000000000000081525060200191505060405180910390fd5b60016003811115611cf357fe5b836003811115611cff57fe5b1415611d1357611d0e8261277e565b611d6a565b600380811115611d1f57fe5b836003811115611d2b57fe5b1415611d3f57611d3a82612880565b611d69565b60026003811115611d4c57fe5b836003811115611d5857fe5b1415611d6857611d6782612982565b5b5b5b6000601460009054906101000a900473ffffffffffffffffffffffffffffffffffffffff1673ffffffffffffffffffffffffffffffffffffffff1663dd62ed3e33306040518363ffffffff1660e01b8152600401808373ffffffffffffffffffffffffffffffffffffffff1681526020018273ffffffffffffffffffffffffffffffffffffffff1681526020019250505060206040518083038186803b158015611e1357600080fd5b505afa158015611e27573d6000803e3d6000fd5b505050506040513d6020811015611e3d57600080fd5b8101908080519060200190929190505050905082811015611ec6576040517f08c379a00000000000000000000000000000000000000000000000000000000081526004018080602001828103825260198152602001807f436865636b2074686520746f6b656e20616c6c6f77616e63650000000000000081525060200191505060405180910390fd5b601460009054906101000a900473ffffffffffffffffffffffffffffffffffffffff1673ffffffffffffffffffffffffffffffffffffffff166323b872dd3330866040518463ffffffff1660e01b8152600401808473ffffffffffffffffffffffffffffffffffffffff1681526020018373ffffffffffffffffffffffffffffffffffffffff1681526020018281526020019350505050602060405180830381600087803b158015611f7757600080fd5b505af1158015611f8b573d6000803e3d6000fd5b505050506040513d6020811015611fa157600080fd5b810190808051906020019092919050505050601460009054906101000a900473ffffffffffffffffffffffffffffffffffffffff1673ffffffffffffffffffffffffffffffffffffffff1663095ea7b3601760019054906101000a900473ffffffffffffffffffffffffffffffffffffffff16856040518363ffffffff1660e01b8152600401808373ffffffffffffffffffffffffffffffffffffffff16815260200182815260200192505050602060405180830381600087803b15801561206857600080fd5b505af115801561207c573d6000803e3d6000fd5b505050506040513d602081101561209257600080fd5b810190808051906020019092919050505050601760019054906101000a900473ffffffffffffffffffffffffffffffffffffffff1673ffffffffffffffffffffffffffffffffffffffff1663e8eda9df601460009054906101000a900473ffffffffffffffffffffffffffffffffffffffff16853060006040518563ffffffff1660e01b8152600401808573ffffffffffffffffffffffffffffffffffffffff1681526020018481526020018373ffffffffffffffffffffffffffffffffffffffff168152602001828152602001945050505050600060405180830381600087803b15801561218057600080fd5b505af1158015612194573d6000803e3d6000fd5b505050508260036000828254019250508190555082601060003373ffffffffffffffffffffffffffffffffffffffff1673ffffffffffffffffffffffffffffffffffffffff168152602001908152602001600020600082825401925050819055507f8d3970b91d4f8dbb1a8368398f1ac8bdd7a7fb5682c8360b7396214f65d7e55f33858543604051808573ffffffffffffffffffffffffffffffffffffffff16815260200184600381111561224657fe5b815260200183815260200182815260200194505050505060405180910390a150505050565b601560009054906101000a900473ffffffffffffffffffffffffffffffffffffffff1681565b60055481565b60075481565b6122a56124c8565b73ffffffffffffffffffffffffffffffffffffffff166122c36112f7565b73ffffffffffffffffffffffffffffffffffffffff161461234c576040517f08c379a00000000000000000000000000000000000000000000000000000000081526004018080602001828103825260208152602001807f4f776e61626c653a2063616c6c6572206973206e6f7420746865206f776e657281525060200191505060405180910390fd5b600073ffffffffffffffffffffffffffffffffffffffff168173ffffffffffffffffffffffffffffffffffffffff1614156123d2576040517f08c379a0000000000000000000000000000000000000000000000000000000008152600401808060200182810382526026815260200180612f4d6026913960400191505060405180910390fd5b8073ffffffffffffffffffffffffffffffffffffffff1660008054906101000a900473ffffffffffffffffffffffffffffffffffffffff1673ffffffffffffffffffffffffffffffffffffffff167f8be0079c531659141344cd1fd0a4f28419497f9722a3daafe3b4186f6b6457e060405160405180910390a3806000806101000a81548173ffffffffffffffffffffffffffffffffffffffff021916908373ffffffffffffffffffffffffffffffffffffffff16021790555050565b601760009054906101000a900460ff1681565b601460009054906101000a900473ffffffffffffffffffffffffffffffffffffffff1681565b600033905090565b600160038111156124dd57fe5b601760009054906101000a900460ff1660038111156124f857fe5b141561254b57612506612a84565b601560006101000a81548173ffffffffffffffffffffffffffffffffffffffff021916908373ffffffffffffffffffffffffffffffffffffffff16021790555061263e565b60038081111561255757fe5b601760009054906101000a900460ff16600381111561257257fe5b14156125c557612580612bff565b601560006101000a81548173ffffffffffffffffffffffffffffffffffffffff021916908373ffffffffffffffffffffffffffffffffffffffff16021790555061263d565b600260038111156125d257fe5b601760009054906101000a900460ff1660038111156125ed57fe5b141561263c576125fb612d7a565b601560006101000a81548173ffffffffffffffffffffffffffffffffffffffff021916908373ffffffffffffffffffffffffffffffffffffffff1602179055505b5b5b565b6000600354601460009054906101000a900473ffffffffffffffffffffffffffffffffffffffff1673ffffffffffffffffffffffffffffffffffffffff166370a08231306040518263ffffffff1660e01b8152600401808273ffffffffffffffffffffffffffffffffffffffff16815260200191505060206040518083038186803b1580156126ce57600080fd5b505afa1580156126e2573d6000803e3d6000fd5b505050506040513d60208110156126f857600080fd5b81019080805190602001909291905050500390508060106000601560009054906101000a900473ffffffffffffffffffffffffffffffffffffffff1673ffffffffffffffffffffffffffffffffffffffff1673ffffffffffffffffffffffffffffffffffffffff1681526020019081526020016000206000828254019250508190555050565b6000439050600081600154038302905080601160003373ffffffffffffffffffffffffffffffffffffffff1673ffffffffffffffffffffffffffffffffffffffff1681526020019081526020016000206000828254019250508190555080600460008282540192505081905550600a600454908060018154018082558091505060019003906000526020600020016000909190919091505533600d6000600754815260200190815260200160002060006101000a81548173ffffffffffffffffffffffffffffffffffffffff021916908373ffffffffffffffffffffffffffffffffffffffff1602179055506001600760008282540192505081905550505050565b6000439050600081600154038302905080601360003373ffffffffffffffffffffffffffffffffffffffff1673ffffffffffffffffffffffffffffffffffffffff1681526020019081526020016000206000828254019250508190555080600660008282540192505081905550600c600654908060018154018082558091505060019003906000526020600020016000909190919091505533600f6000600954815260200190815260200160002060006101000a81548173ffffffffffffffffffffffffffffffffffffffff021916908373ffffffffffffffffffffffffffffffffffffffff1602179055506001600960008282540192505081905550505050565b6000439050600081600154038302905080601260003373ffffffffffffffffffffffffffffffffffffffff1673ffffffffffffffffffffffffffffffffffffffff1681526020019081526020016000206000828254019250508190555080600560008282540192505081905550600b600554908060018154018082558091505060019003906000526020600020016000909190919091505533600e6000600754815260200190815260200160002060006101000a81548173ffffffffffffffffffffffffffffffffffffffff021916908373ffffffffffffffffffffffffffffffffffffffff1602179055506001600860008282540192505081905550505050565b600080612a8f612ef5565b90506004548181612a9c57fe5b069050600a600081548110612aad57fe5b9060005260206000200154811015612afb57600d600080815260200190815260200160002060009054906101000a900473ffffffffffffffffffffffffffffffffffffffff16915050612bfc565b60006001600a8054905003905060005b818111612bc2576000600282840381612b2057fe5b0482019050600a8181548110612b3257fe5b9060005260206000200154841015612b4f57600181039250612bbc565b600a8181548110612b5c57fe5b9060005260206000200154841115612b7957600181019150612bbb565b600d600060018301815260200190815260200160002060009054906101000a900473ffffffffffffffffffffffffffffffffffffffff16945050505050612bfc565b5b50612b0b565b600d600082815260200190815260200160002060009054906101000a900473ffffffffffffffffffffffffffffffffffffffff1693505050505b90565b600080612c0a612ef5565b90506006548181612c1757fe5b069050600c600081548110612c2857fe5b9060005260206000200154811015612c7657600f600080815260200190815260200160002060009054906101000a900473ffffffffffffffffffffffffffffffffffffffff16915050612d77565b60006001600c8054905003905060005b818111612d3d576000600282840381612c9b57fe5b0482019050600c8181548110612cad57fe5b9060005260206000200154841015612cca57600181039250612d37565b600c8181548110612cd757fe5b9060005260206000200154841115612cf457600181019150612d36565b600f600060018301815260200190815260200160002060009054906101000a900473ffffffffffffffffffffffffffffffffffffffff16945050505050612d77565b5b50612c86565b600f600082815260200190815260200160002060009054906101000a900473ffffffffffffffffffffffffffffffffffffffff1693505050505b90565b600080612d85612ef5565b90506005548181612d9257fe5b069050600b600081548110612da357fe5b9060005260206000200154811015612df157600e600080815260200190815260200160002060009054906101000a900473ffffffffffffffffffffffffffffffffffffffff16915050612ef2565b60006001600b8054905003905060005b818111612eb8576000600282840381612e1657fe5b0482019050600b8181548110612e2857fe5b9060005260206000200154841015612e4557600181039250612eb2565b600b8181548110612e5257fe5b9060005260206000200154841115612e6f57600181019150612eb1565b600e600060018301815260200190815260200160002060009054906101000a900473ffffffffffffffffffffffffffffffffffffffff16945050505050612ef2565b5b50612e01565b600e600082815260200190815260200160002060009054906101000a900473ffffffffffffffffffffffffffffffffffffffff1693505050505b90565b6000444260035460015460025460405160200180868152602001858152602001848152602001838152602001828152602001955050505050506040516020818303038152906040528051906020012060001c90509056fe4f776e61626c653a206e6577206f776e657220697320746865207a65726f2061646472657373a2646970667358221220e24a4e67122053d51fccd0291c92304e02f1a320c23c1ad25dc0403eb057c4d864736f6c634300060c0033",
  "linkReferences": {},
  "deployedLinkReferences": {}
}