{
  "_format": "hh-sol-artifact-1",
  "contractName": "BetNFT",
  "sourceName": "contracts/BetNFT.sol",
  "abi": [
    {
      "inputs": [
        {
          "internalType": "string",
          "name": "_name",
          "type": "string"
        },
        {
          "internalType": "string",
          "name": "_symbol",
          "type": "string"
        }
      ],
      "stateMutability": "nonpayable",
      "type": "constructor"
    },
    {
      "anonymous": false,
      "inputs": [
        {
          "indexed": true,
          "internalType": "address",
          "name": "owner",
          "type": "address"
        },
        {
          "indexed": true,
          "internalType": "address",
          "name": "approved",
          "type": "address"
        },
        {
          "indexed": true,
          "internalType": "uint256",
          "name": "tokenId",
          "type": "uint256"
        }
      ],
      "name": "Approval",
      "type": "event"
    },
    {
      "anonymous": false,
      "inputs": [
        {
          "indexed": true,
          "internalType": "address",
          "name": "owner",
          "type": "address"
        },
        {
          "indexed": true,
          "internalType": "address",
          "name": "operator",
          "type": "address"
        },
        {
          "indexed": false,
          "internalType": "bool",
          "name": "approved",
          "type": "bool"
        }
      ],
      "name": "ApprovalForAll",
      "type": "event"
    },
    {
      "anonymous": false,
      "inputs": [
        {
          "indexed": true,
          "internalType": "address",
          "name": "previousOwner",
          "type": "address"
        },
        {
          "indexed": true,
          "internalType": "address",
          "name": "newOwner",
          "type": "address"
        }
      ],
      "name": "OwnershipTransferred",
      "type": "event"
    },
    {
      "anonymous": false,
      "inputs": [
        {
          "indexed": true,
          "internalType": "address",
          "name": "from",
          "type": "address"
        },
        {
          "indexed": true,
          "internalType": "address",
          "name": "to",
          "type": "address"
        },
        {
          "indexed": true,
          "internalType": "uint256",
          "name": "tokenId",
          "type": "uint256"
        }
      ],
      "name": "Transfer",
      "type": "event"
    },
    {
      "inputs": [
        {
          "internalType": "address",
          "name": "to",
          "type": "address"
        },
        {
          "internalType": "uint256",
          "name": "tokenId",
          "type": "uint256"
        }
      ],
      "name": "approve",
      "outputs": [],
      "stateMutability": "nonpayable",
      "type": "function"
    },
    {
      "inputs": [
        {
          "internalType": "address",
          "name": "owner",
          "type": "address"
        }
      ],
      "name": "balanceOf",
      "outputs": [
        {
          "internalType": "uint256",
          "name": "",
          "type": "uint256"
        }
      ],
      "stateMutability": "view",
      "type": "function"
    },
    {
      "inputs": [
        {
          "internalType": "uint256",
          "name": "tokenId",
          "type": "uint256"
        }
      ],
      "name": "getApproved",
      "outputs": [
        {
          "internalType": "address",
          "name": "",
          "type": "address"
        }
      ],
      "stateMutability": "view",
      "type": "function"
    },
    {
      "inputs": [
        {
          "internalType": "uint256",
          "name": "tokenId",
          "type": "uint256"
        }
      ],
      "name": "getBetDetails",
      "outputs": [
        {
          "internalType": "string",
          "name": "matchId",
          "type": "string"
        },
        {
          "internalType": "uint256",
          "name": "betId",
          "type": "uint256"
        }
      ],
      "stateMutability": "view",
      "type": "function"
    },
    {
      "inputs": [
        {
          "internalType": "uint256",
          "name": "tokenId",
          "type": "uint256"
        }
      ],
      "name": "getTokenURI",
      "outputs": [
        {
          "internalType": "string",
          "name": "",
          "type": "string"
        }
      ],
      "stateMutability": "view",
      "type": "function"
    },
    {
      "inputs": [
        {
          "internalType": "address",
          "name": "owner",
          "type": "address"
        },
        {
          "internalType": "address",
          "name": "operator",
          "type": "address"
        }
      ],
      "name": "isApprovedForAll",
      "outputs": [
        {
          "internalType": "bool",
          "name": "",
          "type": "bool"
        }
      ],
      "stateMutability": "view",
      "type": "function"
    },
    {
      "inputs": [
        {
          "internalType": "address",
          "name": "_to",
          "type": "address"
        },
        {
          "internalType": "uint256",
          "name": "_tokenId",
          "type": "uint256"
        },
        {
          "internalType": "string",
          "name": "matchId",
          "type": "string"
        },
        {
          "internalType": "uint256",
          "name": "_betId",
          "type": "uint256"
        },
        {
          "internalType": "string",
          "name": "ipfsLocation",
          "type": "string"
        }
      ],
      "name": "mint",
      "outputs": [],
      "stateMutability": "nonpayable",
      "type": "function"
    },
    {
      "inputs": [],
      "name": "name",
      "outputs": [
        {
          "internalType": "string",
          "name": "",
          "type": "string"
        }
      ],
      "stateMutability": "view",
      "type": "function"
    },
    {
      "inputs": [],
      "name": "owner",
      "outputs": [
        {
          "internalType": "address",
          "name": "",
          "type": "address"
        }
      ],
      "stateMutability": "view",
      "type": "function"
    },
    {
      "inputs": [
        {
          "internalType": "uint256",
          "name": "tokenId",
          "type": "uint256"
        }
      ],
      "name": "ownerOf",
      "outputs": [
        {
          "internalType": "address",
          "name": "",
          "type": "address"
        }
      ],
      "stateMutability": "view",
      "type": "function"
    },
    {
      "inputs": [
        {
          "internalType": "address",
          "name": "from",
          "type": "address"
        },
        {
          "internalType": "uint256",
          "name": "tokenId",
          "type": "uint256"
        }
      ],
      "name": "redeemCollectible",
      "outputs": [],
      "stateMutability": "nonpayable",
      "type": "function"
    },
    {
      "inputs": [],
      "name": "renounceOwnership",
      "outputs": [],
      "stateMutability": "nonpayable",
      "type": "function"
    },
    {
      "inputs": [
        {
          "internalType": "address",
          "name": "from",
          "type": "address"
        },
        {
          "internalType": "address",
          "name": "to",
          "type": "address"
        },
        {
          "internalType": "uint256",
          "name": "tokenId",
          "type": "uint256"
        }
      ],
      "name": "safeTransferFrom",
      "outputs": [],
      "stateMutability": "nonpayable",
      "type": "function"
    },
    {
      "inputs": [
        {
          "internalType": "address",
          "name": "from",
          "type": "address"
        },
        {
          "internalType": "address",
          "name": "to",
          "type": "address"
        },
        {
          "internalType": "uint256",
          "name": "tokenId",
          "type": "uint256"
        },
        {
          "internalType": "bytes",
          "name": "_data",
          "type": "bytes"
        }
      ],
      "name": "safeTransferFrom",
      "outputs": [],
      "stateMutability": "nonpayable",
      "type": "function"
    },
    {
      "inputs": [
        {
          "internalType": "address",
          "name": "operator",
          "type": "address"
        },
        {
          "internalType": "bool",
          "name": "approved",
          "type": "bool"
        }
      ],
      "name": "setApprovalForAll",
      "outputs": [],
      "stateMutability": "nonpayable",
      "type": "function"
    },
    {
      "inputs": [
        {
          "internalType": "bytes4",
          "name": "interfaceId",
          "type": "bytes4"
        }
      ],
      "name": "supportsInterface",
      "outputs": [
        {
          "internalType": "bool",
          "name": "",
          "type": "bool"
        }
      ],
      "stateMutability": "view",
      "type": "function"
    },
    {
      "inputs": [],
      "name": "symbol",
      "outputs": [
        {
          "internalType": "string",
          "name": "",
          "type": "string"
        }
      ],
      "stateMutability": "view",
      "type": "function"
    },
    {
      "inputs": [
        {
          "internalType": "uint256",
          "name": "tokenId",
          "type": "uint256"
        }
      ],
      "name": "tokenURI",
      "outputs": [
        {
          "internalType": "string",
          "name": "",
          "type": "string"
        }
      ],
      "stateMutability": "view",
      "type": "function"
    },
    {
      "inputs": [
        {
          "internalType": "address",
          "name": "from",
          "type": "address"
        },
        {
          "internalType": "address",
          "name": "to",
          "type": "address"
        },
        {
          "internalType": "uint256",
          "name": "tokenId",
          "type": "uint256"
        }
      ],
      "name": "transferFrom",
      "outputs": [],
      "stateMutability": "nonpayable",
      "type": "function"
    },
    {
      "inputs": [
        {
          "internalType": "address",
          "name": "newOwner",
          "type": "address"
        }
      ],
      "name": "transferOwnership",
      "outputs": [],
      "stateMutability": "nonpayable",
      "type": "function"
    }
  ],
  "bytecode": "0x60806040523480156200001157600080fd5b5060405162003580380380620035808339818101604052810190620000379190620003b0565b818181600090805190602001906200005192919062000163565b5080600190805190602001906200006a92919062000163565b5050506200008d620000816200009560201b60201c565b6200009d60201b60201c565b50506200049a565b600033905090565b6000600660009054906101000a900473ffffffffffffffffffffffffffffffffffffffff16905081600660006101000a81548173ffffffffffffffffffffffffffffffffffffffff021916908373ffffffffffffffffffffffffffffffffffffffff1602179055508173ffffffffffffffffffffffffffffffffffffffff168173ffffffffffffffffffffffffffffffffffffffff167f8be0079c531659141344cd1fd0a4f28419497f9722a3daafe3b4186f6b6457e060405160405180910390a35050565b828054620001719062000464565b90600052602060002090601f016020900481019282620001955760008555620001e1565b82601f10620001b057805160ff1916838001178555620001e1565b82800160010185558215620001e1579182015b82811115620001e0578251825591602001919060010190620001c3565b5b509050620001f09190620001f4565b5090565b5b808211156200020f576000816000905550600101620001f5565b5090565b6000604051905090565b600080fd5b600080fd5b600080fd5b600080fd5b6000601f19601f8301169050919050565b7f4e487b7100000000000000000000000000000000000000000000000000000000600052604160045260246000fd5b6200027c8262000231565b810181811067ffffffffffffffff821117156200029e576200029d62000242565b5b80604052505050565b6000620002b362000213565b9050620002c1828262000271565b919050565b600067ffffffffffffffff821115620002e457620002e362000242565b5b620002ef8262000231565b9050602081019050919050565b60005b838110156200031c578082015181840152602081019050620002ff565b838111156200032c576000848401525b50505050565b6000620003496200034384620002c6565b620002a7565b9050828152602081018484840111156200036857620003676200022c565b5b62000375848285620002fc565b509392505050565b600082601f83011262000395576200039462000227565b5b8151620003a784826020860162000332565b91505092915050565b60008060408385031215620003ca57620003c96200021d565b5b600083015167ffffffffffffffff811115620003eb57620003ea62000222565b5b620003f9858286016200037d565b925050602083015167ffffffffffffffff8111156200041d576200041c62000222565b5b6200042b858286016200037d565b9150509250929050565b7f4e487b7100000000000000000000000000000000000000000000000000000000600052602260045260246000fd5b600060028204905060018216806200047d57607f821691505b6020821081141562000494576200049362000435565b5b50919050565b6130d680620004aa6000396000f3fe608060405234801561001057600080fd5b506004361061012c5760003560e01c8063715018a6116100ad578063b88d4fde11610071578063b88d4fde14610342578063c87b56dd1461035e578063e86f63671461038e578063e985e9c5146103aa578063f2fde38b146103da5761012c565b8063715018a6146102c45780638da5cb5b146102ce57806395d89b41146102ec578063a22cb4651461030a578063ac7aae42146103265761012c565b80633bb3a24d116100f45780633bb3a24d146101e75780633df2967e1461021757806342842e0e146102485780636352211e1461026457806370a08231146102945761012c565b806301ffc9a71461013157806306fdde0314610161578063081812fc1461017f578063095ea7b3146101af57806323b872dd146101cb575b600080fd5b61014b60048036038101906101469190611de8565b6103f6565b6040516101589190611e30565b60405180910390f35b6101696104d8565b6040516101769190611ee4565b60405180910390f35b61019960048036038101906101949190611f3c565b61056a565b6040516101a69190611faa565b60405180910390f35b6101c960048036038101906101c49190611ff1565b6105ef565b005b6101e560048036038101906101e09190612031565b610707565b005b61020160048036038101906101fc9190611f3c565b610767565b60405161020e9190611ee4565b60405180910390f35b610231600480360381019061022c9190611f3c565b610779565b60405161023f929190612093565b60405180910390f35b610262600480360381019061025d9190612031565b610884565b005b61027e60048036038101906102799190611f3c565b6108a4565b60405161028b9190611faa565b60405180910390f35b6102ae60048036038101906102a991906120c3565b610956565b6040516102bb91906120f0565b60405180910390f35b6102cc610a0e565b005b6102d6610a96565b6040516102e39190611faa565b60405180910390f35b6102f4610ac0565b6040516103019190611ee4565b60405180910390f35b610324600480360381019061031f9190612137565b610b52565b005b610340600480360381019061033b9190611ff1565b610b68565b005b61035c600480360381019061035791906122ac565b610c61565b005b61037860048036038101906103739190611f3c565b610cc3565b6040516103859190611ee4565b60405180910390f35b6103a860048036038101906103a3919061238f565b610db0565b005b6103c460048036038101906103bf919061244b565b610e57565b6040516103d19190611e30565b60405180910390f35b6103f460048036038101906103ef91906120c3565b610eeb565b005b60007f80ac58cd000000000000000000000000000000000000000000000000000000007bffffffffffffffffffffffffffffffffffffffffffffffffffffffff1916827bffffffffffffffffffffffffffffffffffffffffffffffffffffffff191614806104c157507f5b5e139f000000000000000000000000000000000000000000000000000000007bffffffffffffffffffffffffffffffffffffffffffffffffffffffff1916827bffffffffffffffffffffffffffffffffffffffffffffffffffffffff1916145b806104d157506104d082610fe3565b5b9050919050565b6060600080546104e7906124ba565b80601f0160208091040260200160405190810160405280929190818152602001828054610513906124ba565b80156105605780601f1061053557610100808354040283529160200191610560565b820191906000526020600020905b81548152906001019060200180831161054357829003601f168201915b5050505050905090565b60006105758261104d565b6105b4576040517f08c379a00000000000000000000000000000000000000000000000000000000081526004016105ab9061255e565b60405180910390fd5b6004600083815260200190815260200160002060009054906101000a900473ffffffffffffffffffffffffffffffffffffffff169050919050565b60006105fa826108a4565b90508073ffffffffffffffffffffffffffffffffffffffff168373ffffffffffffffffffffffffffffffffffffffff16141561066b576040517f08c379a0000000000000000000000000000000000000000000000000000000008152600401610662906125f0565b60405180910390fd5b8073ffffffffffffffffffffffffffffffffffffffff1661068a6110b9565b73ffffffffffffffffffffffffffffffffffffffff1614806106b957506106b8816106b36110b9565b610e57565b5b6106f8576040517f08c379a00000000000000000000000000000000000000000000000000000000081526004016106ef90612682565b60405180910390fd5b61070283836110c1565b505050565b6107186107126110b9565b8261117a565b610757576040517f08c379a000000000000000000000000000000000000000000000000000000000815260040161074e90612714565b60405180910390fd5b610762838383611258565b505050565b606061077282610cc3565b9050919050565b606060006107868361104d565b6107c5576040517f08c379a00000000000000000000000000000000000000000000000000000000081526004016107bc906127a6565b60405180910390fd5b6008600084815260200190815260200160002060000180546107e6906124ba565b80601f0160208091040260200160405190810160405280929190818152602001828054610812906124ba565b801561085f5780601f106108345761010080835404028352916020019161085f565b820191906000526020600020905b81548152906001019060200180831161084257829003601f168201915b5050505050915060086000848152602001908152602001600020600101549050915091565b61089f83838360405180602001604052806000815250610c61565b505050565b6000806002600084815260200190815260200160002060009054906101000a900473ffffffffffffffffffffffffffffffffffffffff169050600073ffffffffffffffffffffffffffffffffffffffff168173ffffffffffffffffffffffffffffffffffffffff16141561094d576040517f08c379a000000000000000000000000000000000000000000000000000000000815260040161094490612838565b60405180910390fd5b80915050919050565b60008073ffffffffffffffffffffffffffffffffffffffff168273ffffffffffffffffffffffffffffffffffffffff1614156109c7576040517f08c379a00000000000000000000000000000000000000000000000000000000081526004016109be906128ca565b60405180910390fd5b600360008373ffffffffffffffffffffffffffffffffffffffff1673ffffffffffffffffffffffffffffffffffffffff168152602001908152602001600020549050919050565b610a166110b9565b73ffffffffffffffffffffffffffffffffffffffff16610a34610a96565b73ffffffffffffffffffffffffffffffffffffffff1614610a8a576040517f08c379a0000000000000000000000000000000000000000000000000000000008152600401610a8190612936565b60405180910390fd5b610a9460006114b4565b565b6000600660009054906101000a900473ffffffffffffffffffffffffffffffffffffffff16905090565b606060018054610acf906124ba565b80601f0160208091040260200160405190810160405280929190818152602001828054610afb906124ba565b8015610b485780601f10610b1d57610100808354040283529160200191610b48565b820191906000526020600020905b815481529060010190602001808311610b2b57829003601f168201915b5050505050905090565b610b64610b5d6110b9565b838361157a565b5050565b610b718161104d565b610bb0576040517f08c379a0000000000000000000000000000000000000000000000000000000008152600401610ba7906129a2565b60405180910390fd5b8173ffffffffffffffffffffffffffffffffffffffff16610bd0826108a4565b73ffffffffffffffffffffffffffffffffffffffff1614610c26576040517f08c379a0000000000000000000000000000000000000000000000000000000008152600401610c1d90612a34565b60405180910390fd5b610c2f816116e7565b6008600082815260200190815260200160002060008082016000610c539190611c99565b600182016000905550505050565b610c72610c6c6110b9565b8361117a565b610cb1576040517f08c379a0000000000000000000000000000000000000000000000000000000008152600401610ca890612714565b60405180910390fd5b610cbd848484846117f8565b50505050565b6060610cce8261104d565b610d0d576040517f08c379a0000000000000000000000000000000000000000000000000000000008152600401610d04906127a6565b60405180910390fd5b600760008381526020019081526020016000208054610d2b906124ba565b80601f0160208091040260200160405190810160405280929190818152602001828054610d57906124ba565b8015610da45780601f10610d7957610100808354040283529160200191610da4565b820191906000526020600020905b815481529060010190602001808311610d8757829003601f168201915b50505050509050919050565b610dba8787611854565b610e4e8683838080601f016020809104026020016040519081016040528093929190818152602001838380828437600081840152601f19601f8201169050808301925050505050505087878080601f016020809104026020016040519081016040528093929190818152602001838380828437600081840152601f19601f8201169050808301925050505050505086611a22565b50505050505050565b6000600560008473ffffffffffffffffffffffffffffffffffffffff1673ffffffffffffffffffffffffffffffffffffffff16815260200190815260200160002060008373ffffffffffffffffffffffffffffffffffffffff1673ffffffffffffffffffffffffffffffffffffffff16815260200190815260200160002060009054906101000a900460ff16905092915050565b610ef36110b9565b73ffffffffffffffffffffffffffffffffffffffff16610f11610a96565b73ffffffffffffffffffffffffffffffffffffffff1614610f67576040517f08c379a0000000000000000000000000000000000000000000000000000000008152600401610f5e90612936565b60405180910390fd5b600073ffffffffffffffffffffffffffffffffffffffff168173ffffffffffffffffffffffffffffffffffffffff161415610fd7576040517f08c379a0000000000000000000000000000000000000000000000000000000008152600401610fce90612ac6565b60405180910390fd5b610fe0816114b4565b50565b60007f01ffc9a7000000000000000000000000000000000000000000000000000000007bffffffffffffffffffffffffffffffffffffffffffffffffffffffff1916827bffffffffffffffffffffffffffffffffffffffffffffffffffffffff1916149050919050565b60008073ffffffffffffffffffffffffffffffffffffffff166002600084815260200190815260200160002060009054906101000a900473ffffffffffffffffffffffffffffffffffffffff1673ffffffffffffffffffffffffffffffffffffffff1614159050919050565b600033905090565b816004600083815260200190815260200160002060006101000a81548173ffffffffffffffffffffffffffffffffffffffff021916908373ffffffffffffffffffffffffffffffffffffffff160217905550808273ffffffffffffffffffffffffffffffffffffffff16611134836108a4565b73ffffffffffffffffffffffffffffffffffffffff167f8c5be1e5ebec7d5bd14f71427d1e84f3dd0314c0f7b2291e5b200ac8c7c3b92560405160405180910390a45050565b60006111858261104d565b6111c4576040517f08c379a00000000000000000000000000000000000000000000000000000000081526004016111bb90612b58565b60405180910390fd5b60006111cf836108a4565b90508073ffffffffffffffffffffffffffffffffffffffff168473ffffffffffffffffffffffffffffffffffffffff16148061123e57508373ffffffffffffffffffffffffffffffffffffffff166112268461056a565b73ffffffffffffffffffffffffffffffffffffffff16145b8061124f575061124e8185610e57565b5b91505092915050565b8273ffffffffffffffffffffffffffffffffffffffff16611278826108a4565b73ffffffffffffffffffffffffffffffffffffffff16146112ce576040517f08c379a00000000000000000000000000000000000000000000000000000000081526004016112c590612bea565b60405180910390fd5b600073ffffffffffffffffffffffffffffffffffffffff168273ffffffffffffffffffffffffffffffffffffffff16141561133e576040517f08c379a000000000000000000000000000000000000000000000000000000000815260040161133590612c7c565b60405180910390fd5b611349838383611aea565b6113546000826110c1565b6001600360008573ffffffffffffffffffffffffffffffffffffffff1673ffffffffffffffffffffffffffffffffffffffff16815260200190815260200160002060008282546113a49190612ccb565b925050819055506001600360008473ffffffffffffffffffffffffffffffffffffffff1673ffffffffffffffffffffffffffffffffffffffff16815260200190815260200160002060008282546113fb9190612cff565b92505081905550816002600083815260200190815260200160002060006101000a81548173ffffffffffffffffffffffffffffffffffffffff021916908373ffffffffffffffffffffffffffffffffffffffff160217905550808273ffffffffffffffffffffffffffffffffffffffff168473ffffffffffffffffffffffffffffffffffffffff167fddf252ad1be2c89b69c2b068fc378daa952ba7f163c4a11628f55a4df523b3ef60405160405180910390a4505050565b6000600660009054906101000a900473ffffffffffffffffffffffffffffffffffffffff16905081600660006101000a81548173ffffffffffffffffffffffffffffffffffffffff021916908373ffffffffffffffffffffffffffffffffffffffff1602179055508173ffffffffffffffffffffffffffffffffffffffff168173ffffffffffffffffffffffffffffffffffffffff167f8be0079c531659141344cd1fd0a4f28419497f9722a3daafe3b4186f6b6457e060405160405180910390a35050565b8173ffffffffffffffffffffffffffffffffffffffff168373ffffffffffffffffffffffffffffffffffffffff1614156115e9576040517f08c379a00000000000000000000000000000000000000000000000000000000081526004016115e090612da1565b60405180910390fd5b80600560008573ffffffffffffffffffffffffffffffffffffffff1673ffffffffffffffffffffffffffffffffffffffff16815260200190815260200160002060008473ffffffffffffffffffffffffffffffffffffffff1673ffffffffffffffffffffffffffffffffffffffff16815260200190815260200160002060006101000a81548160ff0219169083151502179055508173ffffffffffffffffffffffffffffffffffffffff168373ffffffffffffffffffffffffffffffffffffffff167f17307eab39ab6107e8899845ad3d59bd9653f200f220920489ca2b5937696c31836040516116da9190611e30565b60405180910390a3505050565b60006116f2826108a4565b905061170081600084611aea565b61170b6000836110c1565b6001600360008373ffffffffffffffffffffffffffffffffffffffff1673ffffffffffffffffffffffffffffffffffffffff168152602001908152602001600020600082825461175b9190612ccb565b925050819055506002600083815260200190815260200160002060006101000a81549073ffffffffffffffffffffffffffffffffffffffff021916905581600073ffffffffffffffffffffffffffffffffffffffff168273ffffffffffffffffffffffffffffffffffffffff167fddf252ad1be2c89b69c2b068fc378daa952ba7f163c4a11628f55a4df523b3ef60405160405180910390a45050565b611803848484611258565b61180f84848484611aef565b61184e576040517f08c379a000000000000000000000000000000000000000000000000000000000815260040161184590612e33565b60405180910390fd5b50505050565b600073ffffffffffffffffffffffffffffffffffffffff168273ffffffffffffffffffffffffffffffffffffffff1614156118c4576040517f08c379a00000000000000000000000000000000000000000000000000000000081526004016118bb90612e9f565b60405180910390fd5b6118cd8161104d565b1561190d576040517f08c379a000000000000000000000000000000000000000000000000000000000815260040161190490612f0b565b60405180910390fd5b61191960008383611aea565b6001600360008473ffffffffffffffffffffffffffffffffffffffff1673ffffffffffffffffffffffffffffffffffffffff16815260200190815260200160002060008282546119699190612cff565b92505081905550816002600083815260200190815260200160002060006101000a81548173ffffffffffffffffffffffffffffffffffffffff021916908373ffffffffffffffffffffffffffffffffffffffff160217905550808273ffffffffffffffffffffffffffffffffffffffff16600073ffffffffffffffffffffffffffffffffffffffff167fddf252ad1be2c89b69c2b068fc378daa952ba7f163c4a11628f55a4df523b3ef60405160405180910390a45050565b611a2b8461104d565b611a6a576040517f08c379a0000000000000000000000000000000000000000000000000000000008152600401611a6190612f9d565b60405180910390fd5b82600760008681526020019081526020016000209080519060200190611a91929190611cd9565b50604051806040016040528083815260200182815250600860008681526020019081526020016000206000820151816000019080519060200190611ad6929190611cd9565b506020820151816001015590505050505050565b505050565b6000611b108473ffffffffffffffffffffffffffffffffffffffff16611c86565b15611c79578373ffffffffffffffffffffffffffffffffffffffff1663150b7a02611b396110b9565b8786866040518563ffffffff1660e01b8152600401611b5b9493929190613012565b602060405180830381600087803b158015611b7557600080fd5b505af1925050508015611ba657506040513d601f19601f82011682018060405250810190611ba39190613073565b60015b611c29573d8060008114611bd6576040519150601f19603f3d011682016040523d82523d6000602084013e611bdb565b606091505b50600081511415611c21576040517f08c379a0000000000000000000000000000000000000000000000000000000008152600401611c1890612e33565b60405180910390fd5b805181602001fd5b63150b7a0260e01b7bffffffffffffffffffffffffffffffffffffffffffffffffffffffff1916817bffffffffffffffffffffffffffffffffffffffffffffffffffffffff191614915050611c7e565b600190505b949350505050565b600080823b905060008111915050919050565b508054611ca5906124ba565b6000825580601f10611cb75750611cd6565b601f016020900490600052602060002090810190611cd59190611d5f565b5b50565b828054611ce5906124ba565b90600052602060002090601f016020900481019282611d075760008555611d4e565b82601f10611d2057805160ff1916838001178555611d4e565b82800160010185558215611d4e579182015b82811115611d4d578251825591602001919060010190611d32565b5b509050611d5b9190611d5f565b5090565b5b80821115611d78576000816000905550600101611d60565b5090565b6000604051905090565b600080fd5b600080fd5b60007fffffffff0000000000000000000000000000000000000000000000000000000082169050919050565b611dc581611d90565b8114611dd057600080fd5b50565b600081359050611de281611dbc565b92915050565b600060208284031215611dfe57611dfd611d86565b5b6000611e0c84828501611dd3565b91505092915050565b60008115159050919050565b611e2a81611e15565b82525050565b6000602082019050611e456000830184611e21565b92915050565b600081519050919050565b600082825260208201905092915050565b60005b83811015611e85578082015181840152602081019050611e6a565b83811115611e94576000848401525b50505050565b6000601f19601f8301169050919050565b6000611eb682611e4b565b611ec08185611e56565b9350611ed0818560208601611e67565b611ed981611e9a565b840191505092915050565b60006020820190508181036000830152611efe8184611eab565b905092915050565b6000819050919050565b611f1981611f06565b8114611f2457600080fd5b50565b600081359050611f3681611f10565b92915050565b600060208284031215611f5257611f51611d86565b5b6000611f6084828501611f27565b91505092915050565b600073ffffffffffffffffffffffffffffffffffffffff82169050919050565b6000611f9482611f69565b9050919050565b611fa481611f89565b82525050565b6000602082019050611fbf6000830184611f9b565b92915050565b611fce81611f89565b8114611fd957600080fd5b50565b600081359050611feb81611fc5565b92915050565b6000806040838503121561200857612007611d86565b5b600061201685828601611fdc565b925050602061202785828601611f27565b9150509250929050565b60008060006060848603121561204a57612049611d86565b5b600061205886828701611fdc565b935050602061206986828701611fdc565b925050604061207a86828701611f27565b9150509250925092565b61208d81611f06565b82525050565b600060408201905081810360008301526120ad8185611eab565b90506120bc6020830184612084565b9392505050565b6000602082840312156120d9576120d8611d86565b5b60006120e784828501611fdc565b91505092915050565b60006020820190506121056000830184612084565b92915050565b61211481611e15565b811461211f57600080fd5b50565b6000813590506121318161210b565b92915050565b6000806040838503121561214e5761214d611d86565b5b600061215c85828601611fdc565b925050602061216d85828601612122565b9150509250929050565b600080fd5b600080fd5b7f4e487b7100000000000000000000000000000000000000000000000000000000600052604160045260246000fd5b6121b982611e9a565b810181811067ffffffffffffffff821117156121d8576121d7612181565b5b80604052505050565b60006121eb611d7c565b90506121f782826121b0565b919050565b600067ffffffffffffffff82111561221757612216612181565b5b61222082611e9a565b9050602081019050919050565b82818337600083830152505050565b600061224f61224a846121fc565b6121e1565b90508281526020810184848401111561226b5761226a61217c565b5b61227684828561222d565b509392505050565b600082601f83011261229357612292612177565b5b81356122a384826020860161223c565b91505092915050565b600080600080608085870312156122c6576122c5611d86565b5b60006122d487828801611fdc565b94505060206122e587828801611fdc565b93505060406122f687828801611f27565b925050606085013567ffffffffffffffff81111561231757612316611d8b565b5b6123238782880161227e565b91505092959194509250565b600080fd5b600080fd5b60008083601f84011261234f5761234e612177565b5b8235905067ffffffffffffffff81111561236c5761236b61232f565b5b60208301915083600182028301111561238857612387612334565b5b9250929050565b600080600080600080600060a0888a0312156123ae576123ad611d86565b5b60006123bc8a828b01611fdc565b97505060206123cd8a828b01611f27565b965050604088013567ffffffffffffffff8111156123ee576123ed611d8b565b5b6123fa8a828b01612339565b9550955050606061240d8a828b01611f27565b935050608088013567ffffffffffffffff81111561242e5761242d611d8b565b5b61243a8a828b01612339565b925092505092959891949750929550565b6000806040838503121561246257612461611d86565b5b600061247085828601611fdc565b925050602061248185828601611fdc565b9150509250929050565b7f4e487b7100000000000000000000000000000000000000000000000000000000600052602260045260246000fd5b600060028204905060018216806124d257607f821691505b602082108114156124e6576124e561248b565b5b50919050565b7f4552433732313a20617070726f76656420717565727920666f72206e6f6e657860008201527f697374656e7420746f6b656e0000000000000000000000000000000000000000602082015250565b6000612548602c83611e56565b9150612553826124ec565b604082019050919050565b600060208201905081810360008301526125778161253b565b9050919050565b7f4552433732313a20617070726f76616c20746f2063757272656e74206f776e6560008201527f7200000000000000000000000000000000000000000000000000000000000000602082015250565b60006125da602183611e56565b91506125e58261257e565b604082019050919050565b60006020820190508181036000830152612609816125cd565b9050919050565b7f4552433732313a20617070726f76652063616c6c6572206973206e6f74206f7760008201527f6e6572206e6f7220617070726f76656420666f7220616c6c0000000000000000602082015250565b600061266c603883611e56565b915061267782612610565b604082019050919050565b6000602082019050818103600083015261269b8161265f565b9050919050565b7f4552433732313a207472616e736665722063616c6c6572206973206e6f74206f60008201527f776e6572206e6f7220617070726f766564000000000000000000000000000000602082015250565b60006126fe603183611e56565b9150612709826126a2565b604082019050919050565b6000602082019050818103600083015261272d816126f1565b9050919050565b7f4552433732314d657461646174613a2055524920717565727920666f72206e6f60008201527f6e6578697374656e7420746f6b656e0000000000000000000000000000000000602082015250565b6000612790602f83611e56565b915061279b82612734565b604082019050919050565b600060208201905081810360008301526127bf81612783565b9050919050565b7f4552433732313a206f776e657220717565727920666f72206e6f6e657869737460008201527f656e7420746f6b656e0000000000000000000000000000000000000000000000602082015250565b6000612822602983611e56565b915061282d826127c6565b604082019050919050565b6000602082019050818103600083015261285181612815565b9050919050565b7f4552433732313a2062616c616e636520717565727920666f7220746865207a6560008201527f726f206164647265737300000000000000000000000000000000000000000000602082015250565b60006128b4602a83611e56565b91506128bf82612858565b604082019050919050565b600060208201905081810360008301526128e3816128a7565b9050919050565b7f4f776e61626c653a2063616c6c6572206973206e6f7420746865206f776e6572600082015250565b6000612920602083611e56565b915061292b826128ea565b602082019050919050565b6000602082019050818103600083015261294f81612913565b9050919050565b7f4552433732313a20746f6b656e20646f65736e27742065786973740000000000600082015250565b600061298c601b83611e56565b915061299782612956565b602082019050919050565b600060208201905081810360008301526129bb8161297f565b9050919050565b7f4552433732313a207472616e736665722063616c6c6572206973206e6f74206f60008201527f776e657200000000000000000000000000000000000000000000000000000000602082015250565b6000612a1e602483611e56565b9150612a29826129c2565b604082019050919050565b60006020820190508181036000830152612a4d81612a11565b9050919050565b7f4f776e61626c653a206e6577206f776e657220697320746865207a65726f206160008201527f6464726573730000000000000000000000000000000000000000000000000000602082015250565b6000612ab0602683611e56565b9150612abb82612a54565b604082019050919050565b60006020820190508181036000830152612adf81612aa3565b9050919050565b7f4552433732313a206f70657261746f7220717565727920666f72206e6f6e657860008201527f697374656e7420746f6b656e0000000000000000000000000000000000000000602082015250565b6000612b42602c83611e56565b9150612b4d82612ae6565b604082019050919050565b60006020820190508181036000830152612b7181612b35565b9050919050565b7f4552433732313a207472616e73666572206f6620746f6b656e2074686174206960008201527f73206e6f74206f776e0000000000000000000000000000000000000000000000602082015250565b6000612bd4602983611e56565b9150612bdf82612b78565b604082019050919050565b60006020820190508181036000830152612c0381612bc7565b9050919050565b7f4552433732313a207472616e7366657220746f20746865207a65726f2061646460008201527f7265737300000000000000000000000000000000000000000000000000000000602082015250565b6000612c66602483611e56565b9150612c7182612c0a565b604082019050919050565b60006020820190508181036000830152612c9581612c59565b9050919050565b7f4e487b7100000000000000000000000000000000000000000000000000000000600052601160045260246000fd5b6000612cd682611f06565b9150612ce183611f06565b925082821015612cf457612cf3612c9c565b5b828203905092915050565b6000612d0a82611f06565b9150612d1583611f06565b9250827fffffffffffffffffffffffffffffffffffffffffffffffffffffffffffffffff03821115612d4a57612d49612c9c565b5b828201905092915050565b7f4552433732313a20617070726f766520746f2063616c6c657200000000000000600082015250565b6000612d8b601983611e56565b9150612d9682612d55565b602082019050919050565b60006020820190508181036000830152612dba81612d7e565b9050919050565b7f4552433732313a207472616e7366657220746f206e6f6e20455243373231526560008201527f63656976657220696d706c656d656e7465720000000000000000000000000000602082015250565b6000612e1d603283611e56565b9150612e2882612dc1565b604082019050919050565b60006020820190508181036000830152612e4c81612e10565b9050919050565b7f4552433732313a206d696e7420746f20746865207a65726f2061646472657373600082015250565b6000612e89602083611e56565b9150612e9482612e53565b602082019050919050565b60006020820190508181036000830152612eb881612e7c565b9050919050565b7f4552433732313a20746f6b656e20616c7265616479206d696e74656400000000600082015250565b6000612ef5601c83611e56565b9150612f0082612ebf565b602082019050919050565b60006020820190508181036000830152612f2481612ee8565b9050919050565b7f4552433732314d657461646174613a2055524920736574206f66206e6f6e657860008201527f697374656e7420746f6b656e0000000000000000000000000000000000000000602082015250565b6000612f87602c83611e56565b9150612f9282612f2b565b604082019050919050565b60006020820190508181036000830152612fb681612f7a565b9050919050565b600081519050919050565b600082825260208201905092915050565b6000612fe482612fbd565b612fee8185612fc8565b9350612ffe818560208601611e67565b61300781611e9a565b840191505092915050565b60006080820190506130276000830187611f9b565b6130346020830186611f9b565b6130416040830185612084565b81810360608301526130538184612fd9565b905095945050505050565b60008151905061306d81611dbc565b92915050565b60006020828403121561308957613088611d86565b5b60006130978482850161305e565b9150509291505056fea2646970667358221220a1e2e40bae5dfe63e1f5f8a632b5055e1ccd7794df53b83e89977ea37da647cd64736f6c63430008090033",
  "linkReferences": {},
  "deployedLinkReferences": {}
}