{
  "_format": "hh-sol-artifact-1",
  "contractName": "Games",
  "sourceName": "contracts/Draft.sol",
  "abi": [
    {
      "inputs": [
        {
          "internalType": "string",
          "name": "teams",
          "type": "string"
        }
      ],
      "stateMutability": "nonpayable",
      "type": "constructor"
    },
    {
      "anonymous": false,
      "inputs": [
        {
          "indexed": true,
          "internalType": "address",
          "name": "previousOwner",
          "type": "address"
        },
        {
          "indexed": true,
          "internalType": "address",
          "name": "newOwner",
          "type": "address"
        }
      ],
      "name": "OwnershipTransferred",
      "type": "event"
    },
    {
      "inputs": [],
      "name": "admin",
      "outputs": [
        {
          "internalType": "address",
          "name": "",
          "type": "address"
        }
      ],
      "stateMutability": "view",
      "type": "function"
    },
    {
      "inputs": [],
      "name": "awayScore",
      "outputs": [
        {
          "internalType": "uint8",
          "name": "",
          "type": "uint8"
        }
      ],
      "stateMutability": "view",
      "type": "function"
    },
    {
      "inputs": [],
      "name": "game",
      "outputs": [
        {
          "internalType": "address",
          "name": "owner",
          "type": "address"
        },
        {
          "internalType": "string",
          "name": "teams",
          "type": "string"
        },
        {
          "internalType": "enum Games.GameStatus",
          "name": "status",
          "type": "uint8"
        },
        {
          "internalType": "enum Games.Selection",
          "name": "winner",
          "type": "uint8"
        }
      ],
      "stateMutability": "view",
      "type": "function"
    },
    {
      "inputs": [],
      "name": "homeScore",
      "outputs": [
        {
          "internalType": "uint8",
          "name": "",
          "type": "uint8"
        }
      ],
      "stateMutability": "view",
      "type": "function"
    },
    {
      "inputs": [],
      "name": "owner",
      "outputs": [
        {
          "internalType": "address",
          "name": "",
          "type": "address"
        }
      ],
      "stateMutability": "view",
      "type": "function"
    },
    {
      "inputs": [
        {
          "internalType": "address",
          "name": "",
          "type": "address"
        },
        {
          "internalType": "enum Games.Selection",
          "name": "",
          "type": "uint8"
        }
      ],
      "name": "playerPayout1x2",
      "outputs": [
        {
          "internalType": "uint256",
          "name": "",
          "type": "uint256"
        }
      ],
      "stateMutability": "view",
      "type": "function"
    },
    {
      "inputs": [
        {
          "internalType": "address",
          "name": "",
          "type": "address"
        },
        {
          "internalType": "uint256",
          "name": "",
          "type": "uint256"
        }
      ],
      "name": "playerPayoutHomeHandicap1",
      "outputs": [
        {
          "internalType": "uint256",
          "name": "",
          "type": "uint256"
        }
      ],
      "stateMutability": "view",
      "type": "function"
    },
    {
      "inputs": [
        {
          "internalType": "uint256",
          "name": "",
          "type": "uint256"
        }
      ],
      "name": "players",
      "outputs": [
        {
          "internalType": "address",
          "name": "",
          "type": "address"
        }
      ],
      "stateMutability": "view",
      "type": "function"
    },
    {
      "inputs": [],
      "name": "renounceOwnership",
      "outputs": [],
      "stateMutability": "nonpayable",
      "type": "function"
    },
    {
      "inputs": [
        {
          "internalType": "address",
          "name": "newOwner",
          "type": "address"
        }
      ],
      "name": "transferOwnership",
      "outputs": [],
      "stateMutability": "nonpayable",
      "type": "function"
    }
  ],
  "bytecode": "0x60806040523480156200001157600080fd5b50604051620010a4380380620010a4833981810160405281019062000037919062000437565b620000576200004b6200011e60201b60201c565b6200012660201b60201c565b33600260000160006101000a81548173ffffffffffffffffffffffffffffffffffffffff021916908373ffffffffffffffffffffffffffffffffffffffff1602179055508060026001019080519060200190620000b6929190620001ea565b5060006002800160006101000a81548160ff02191690836001811115620000e257620000e162000488565b5b021790555060006002800160016101000a81548160ff0219169083600381111562000112576200011162000488565b5b0217905550506200051c565b600033905090565b60008060009054906101000a900473ffffffffffffffffffffffffffffffffffffffff169050816000806101000a81548173ffffffffffffffffffffffffffffffffffffffff021916908373ffffffffffffffffffffffffffffffffffffffff1602179055508173ffffffffffffffffffffffffffffffffffffffff168173ffffffffffffffffffffffffffffffffffffffff167f8be0079c531659141344cd1fd0a4f28419497f9722a3daafe3b4186f6b6457e060405160405180910390a35050565b828054620001f890620004e6565b90600052602060002090601f0160209004810192826200021c576000855562000268565b82601f106200023757805160ff191683800117855562000268565b8280016001018555821562000268579182015b82811115620002675782518255916020019190600101906200024a565b5b5090506200027791906200027b565b5090565b5b80821115620002965760008160009055506001016200027c565b5090565b6000604051905090565b600080fd5b600080fd5b600080fd5b600080fd5b6000601f19601f8301169050919050565b7f4e487b7100000000000000000000000000000000000000000000000000000000600052604160045260246000fd5b6200030382620002b8565b810181811067ffffffffffffffff82111715620003255762000324620002c9565b5b80604052505050565b60006200033a6200029a565b9050620003488282620002f8565b919050565b600067ffffffffffffffff8211156200036b576200036a620002c9565b5b6200037682620002b8565b9050602081019050919050565b60005b83811015620003a357808201518184015260208101905062000386565b83811115620003b3576000848401525b50505050565b6000620003d0620003ca846200034d565b6200032e565b905082815260208101848484011115620003ef57620003ee620002b3565b5b620003fc84828562000383565b509392505050565b600082601f8301126200041c576200041b620002ae565b5b81516200042e848260208601620003b9565b91505092915050565b60006020828403121562000450576200044f620002a4565b5b600082015167ffffffffffffffff811115620004715762000470620002a9565b5b6200047f8482850162000404565b91505092915050565b7f4e487b7100000000000000000000000000000000000000000000000000000000600052602160045260246000fd5b7f4e487b7100000000000000000000000000000000000000000000000000000000600052602260045260246000fd5b60006002820490506001821680620004ff57607f821691505b60208210811415620005165762000515620004b7565b5b50919050565b610b78806200052c6000396000f3fe608060405234801561001057600080fd5b506004361061009e5760003560e01c8063c3fe3e2811610066578063c3fe3e2814610149578063d38d96391461016a578063f2fde38b14610188578063f71d96cb146101a4578063f851a440146101d45761009e565b806363f3a258146100a35780636db5fc9c146100d3578063715018a6146100f15780638da5cb5b146100fb578063c2e639d614610119575b600080fd5b6100bd60048036038101906100b891906106a4565b6101f2565b6040516100ca91906106fd565b60405180910390f35b6100db610217565b6040516100e89190610734565b60405180910390f35b6100f961022a565b005b6101036102b2565b604051610110919061075e565b60405180910390f35b610133600480360381019061012e91906107a5565b6102db565b60405161014091906106fd565b60405180910390f35b610151610300565b604051610161949392919061093d565b60405180910390f35b6101726103e0565b60405161017f9190610734565b60405180910390f35b6101a2600480360381019061019d9190610989565b6103f3565b005b6101be60048036038101906101b991906109b6565b6104eb565b6040516101cb919061075e565b60405180910390f35b6101dc61052a565b6040516101e9919061075e565b60405180910390f35b6009602052816000526040600020602052806000526040600020600091509150505481565b600560009054906101000a900460ff1681565b610232610550565b73ffffffffffffffffffffffffffffffffffffffff166102506102b2565b73ffffffffffffffffffffffffffffffffffffffff16146102a6576040517f08c379a000000000000000000000000000000000000000000000000000000000815260040161029d90610a2f565b60405180910390fd5b6102b06000610558565b565b60008060009054906101000a900473ffffffffffffffffffffffffffffffffffffffff16905090565b600a602052816000526040600020602052806000526040600020600091509150505481565b60028060000160009054906101000a900473ffffffffffffffffffffffffffffffffffffffff169080600101805461033790610a7e565b80601f016020809104026020016040519081016040528092919081815260200182805461036390610a7e565b80156103b05780601f10610385576101008083540402835291602001916103b0565b820191906000526020600020905b81548152906001019060200180831161039357829003601f168201915b5050505050908060020160009054906101000a900460ff16908060020160019054906101000a900460ff16905084565b600560019054906101000a900460ff1681565b6103fb610550565b73ffffffffffffffffffffffffffffffffffffffff166104196102b2565b73ffffffffffffffffffffffffffffffffffffffff161461046f576040517f08c379a000000000000000000000000000000000000000000000000000000000815260040161046690610a2f565b60405180910390fd5b600073ffffffffffffffffffffffffffffffffffffffff168173ffffffffffffffffffffffffffffffffffffffff1614156104df576040517f08c379a00000000000000000000000000000000000000000000000000000000081526004016104d690610b22565b60405180910390fd5b6104e881610558565b50565b600681815481106104fb57600080fd5b906000526020600020016000915054906101000a900473ffffffffffffffffffffffffffffffffffffffff1681565b600160009054906101000a900473ffffffffffffffffffffffffffffffffffffffff1681565b600033905090565b60008060009054906101000a900473ffffffffffffffffffffffffffffffffffffffff169050816000806101000a81548173ffffffffffffffffffffffffffffffffffffffff021916908373ffffffffffffffffffffffffffffffffffffffff1602179055508173ffffffffffffffffffffffffffffffffffffffff168173ffffffffffffffffffffffffffffffffffffffff167f8be0079c531659141344cd1fd0a4f28419497f9722a3daafe3b4186f6b6457e060405160405180910390a35050565b600080fd5b600073ffffffffffffffffffffffffffffffffffffffff82169050919050565b600061064c82610621565b9050919050565b61065c81610641565b811461066757600080fd5b50565b60008135905061067981610653565b92915050565b6004811061068c57600080fd5b50565b60008135905061069e8161067f565b92915050565b600080604083850312156106bb576106ba61061c565b5b60006106c98582860161066a565b92505060206106da8582860161068f565b9150509250929050565b6000819050919050565b6106f7816106e4565b82525050565b600060208201905061071260008301846106ee565b92915050565b600060ff82169050919050565b61072e81610718565b82525050565b60006020820190506107496000830184610725565b92915050565b61075881610641565b82525050565b6000602082019050610773600083018461074f565b92915050565b610782816106e4565b811461078d57600080fd5b50565b60008135905061079f81610779565b92915050565b600080604083850312156107bc576107bb61061c565b5b60006107ca8582860161066a565b92505060206107db85828601610790565b9150509250929050565b600081519050919050565b600082825260208201905092915050565b60005b8381101561081f578082015181840152602081019050610804565b8381111561082e576000848401525b50505050565b6000601f19601f8301169050919050565b6000610850826107e5565b61085a81856107f0565b935061086a818560208601610801565b61087381610834565b840191505092915050565b7f4e487b7100000000000000000000000000000000000000000000000000000000600052602160045260246000fd5b600281106108be576108bd61087e565b5b50565b60008190506108cf826108ad565b919050565b60006108df826108c1565b9050919050565b6108ef816108d4565b82525050565b600481106109065761090561087e565b5b50565b6000819050610917826108f5565b919050565b600061092782610909565b9050919050565b6109378161091c565b82525050565b6000608082019050610952600083018761074f565b81810360208301526109648186610845565b905061097360408301856108e6565b610980606083018461092e565b95945050505050565b60006020828403121561099f5761099e61061c565b5b60006109ad8482850161066a565b91505092915050565b6000602082840312156109cc576109cb61061c565b5b60006109da84828501610790565b91505092915050565b7f4f776e61626c653a2063616c6c6572206973206e6f7420746865206f776e6572600082015250565b6000610a196020836107f0565b9150610a24826109e3565b602082019050919050565b60006020820190508181036000830152610a4881610a0c565b9050919050565b7f4e487b7100000000000000000000000000000000000000000000000000000000600052602260045260246000fd5b60006002820490506001821680610a9657607f821691505b60208210811415610aaa57610aa9610a4f565b5b50919050565b7f4f776e61626c653a206e6577206f776e657220697320746865207a65726f206160008201527f6464726573730000000000000000000000000000000000000000000000000000602082015250565b6000610b0c6026836107f0565b9150610b1782610ab0565b604082019050919050565b60006020820190508181036000830152610b3b81610aff565b905091905056fea26469706673582212202c351802c4230e66543ebaead852dbced6125f97769bfcd943816d80c62f1ff364736f6c63430008090033",
  "linkReferences": {},
  "deployedLinkReferences": {}
}