{
  "_format": "hh-sol-artifact-1",
  "contractName": "BettingAIO",
  "sourceName": "contracts/BettingAIO.sol",
  "abi": [
    {
      "inputs": [
        {
          "internalType": "contract BetNFT",
          "name": "_betNFT",
          "type": "address"
        }
      ],
      "stateMutability": "nonpayable",
      "type": "constructor"
    },
    {
      "inputs": [
        {
          "internalType": "uint256",
          "name": "amount",
          "type": "uint256"
        }
      ],
      "name": "AmountToLow",
      "type": "error"
    },
    {
      "inputs": [
        {
          "internalType": "string",
          "name": "apiId",
          "type": "string"
        }
      ],
      "name": "GameAlreadyEnded",
      "type": "error"
    },
    {
      "inputs": [
        {
          "internalType": "string",
          "name": "apiId",
          "type": "string"
        }
      ],
      "name": "GameNotEnded",
      "type": "error"
    },
    {
      "inputs": [
        {
          "internalType": "uint256",
          "name": "odds",
          "type": "uint256"
        }
      ],
      "name": "OddsToLow",
      "type": "error"
    },
    {
      "anonymous": false,
      "inputs": [
        {
          "indexed": false,
          "internalType": "string",
          "name": "apiId",
          "type": "string"
        },
        {
          "indexed": false,
          "internalType": "uint256",
          "name": "tokenId",
          "type": "uint256"
        }
      ],
      "name": "BetConverted",
      "type": "event"
    },
    {
      "anonymous": false,
      "inputs": [
        {
          "indexed": true,
          "internalType": "bytes32",
          "name": "id",
          "type": "bytes32"
        }
      ],
      "name": "ChainlinkCancelled",
      "type": "event"
    },
    {
      "anonymous": false,
      "inputs": [
        {
          "indexed": true,
          "internalType": "bytes32",
          "name": "id",
          "type": "bytes32"
        }
      ],
      "name": "ChainlinkFulfilled",
      "type": "event"
    },
    {
      "anonymous": false,
      "inputs": [
        {
          "indexed": true,
          "internalType": "bytes32",
          "name": "id",
          "type": "bytes32"
        }
      ],
      "name": "ChainlinkRequested",
      "type": "event"
    },
    {
      "anonymous": false,
      "inputs": [
        {
          "indexed": false,
          "internalType": "string",
          "name": "apiId",
          "type": "string"
        },
        {
          "indexed": false,
          "internalType": "uint8",
          "name": "result",
          "type": "uint8"
        }
      ],
      "name": "GameEnded",
      "type": "event"
    },
    {
      "anonymous": false,
      "inputs": [
        {
          "indexed": false,
          "internalType": "string",
          "name": "apiId",
          "type": "string"
        },
        {
          "indexed": false,
          "internalType": "enum BetSide",
          "name": "betSide",
          "type": "uint8"
        },
        {
          "indexed": false,
          "internalType": "enum BetType",
          "name": "betType",
          "type": "uint8"
        },
        {
          "indexed": false,
          "internalType": "uint8",
          "name": "selection",
          "type": "uint8"
        },
        {
          "indexed": false,
          "internalType": "uint16",
          "name": "odds",
          "type": "uint16"
        },
        {
          "indexed": false,
          "internalType": "uint256",
          "name": "amount",
          "type": "uint256"
        },
        {
          "indexed": false,
          "internalType": "address",
          "name": "from",
          "type": "address"
        }
      ],
      "name": "MatchedBetPlaced",
      "type": "event"
    },
    {
      "anonymous": false,
      "inputs": [
        {
          "indexed": true,
          "internalType": "address",
          "name": "previousOwner",
          "type": "address"
        },
        {
          "indexed": true,
          "internalType": "address",
          "name": "newOwner",
          "type": "address"
        }
      ],
      "name": "OwnershipTransferred",
      "type": "event"
    },
    {
      "anonymous": false,
      "inputs": [
        {
          "indexed": false,
          "internalType": "string",
          "name": "apiId",
          "type": "string"
        },
        {
          "indexed": false,
          "internalType": "enum BetSide",
          "name": "betSide",
          "type": "uint8"
        },
        {
          "indexed": false,
          "internalType": "enum BetType",
          "name": "betType",
          "type": "uint8"
        },
        {
          "indexed": false,
          "internalType": "uint8",
          "name": "selection",
          "type": "uint8"
        },
        {
          "indexed": false,
          "internalType": "uint16",
          "name": "odds",
          "type": "uint16"
        },
        {
          "indexed": false,
          "internalType": "uint256",
          "name": "amount",
          "type": "uint256"
        },
        {
          "indexed": false,
          "internalType": "address",
          "name": "from",
          "type": "address"
        }
      ],
      "name": "UnmatchedBetPlaced",
      "type": "event"
    },
    {
      "anonymous": false,
      "inputs": [
        {
          "indexed": false,
          "internalType": "string",
          "name": "apiId",
          "type": "string"
        },
        {
          "indexed": false,
          "internalType": "enum BetSide",
          "name": "betSide",
          "type": "uint8"
        },
        {
          "indexed": false,
          "internalType": "enum BetType",
          "name": "betType",
          "type": "uint8"
        },
        {
          "indexed": false,
          "internalType": "uint8",
          "name": "selection",
          "type": "uint8"
        },
        {
          "indexed": false,
          "internalType": "uint16",
          "name": "odds",
          "type": "uint16"
        },
        {
          "indexed": false,
          "internalType": "uint256",
          "name": "amount",
          "type": "uint256"
        },
        {
          "indexed": false,
          "internalType": "address",
          "name": "from",
          "type": "address"
        }
      ],
      "name": "UnmatchedBetRemoved",
      "type": "event"
    },
    {
      "anonymous": false,
      "inputs": [
        {
          "indexed": false,
          "internalType": "string",
          "name": "apiId",
          "type": "string"
        },
        {
          "indexed": false,
          "internalType": "enum BetSide",
          "name": "betSide",
          "type": "uint8"
        },
        {
          "indexed": false,
          "internalType": "enum BetType",
          "name": "betType",
          "type": "uint8"
        },
        {
          "indexed": false,
          "internalType": "uint8",
          "name": "selection",
          "type": "uint8"
        },
        {
          "indexed": false,
          "internalType": "uint16",
          "name": "odds",
          "type": "uint16"
        },
        {
          "indexed": false,
          "internalType": "uint256",
          "name": "amount",
          "type": "uint256"
        },
        {
          "indexed": false,
          "internalType": "address",
          "name": "from",
          "type": "address"
        }
      ],
      "name": "UnmatchedBetUpdated",
      "type": "event"
    },
    {
      "inputs": [],
      "name": "betNFT",
      "outputs": [
        {
          "internalType": "contract BetNFT",
          "name": "",
          "type": "address"
        }
      ],
      "stateMutability": "view",
      "type": "function"
    },
    {
      "inputs": [
        {
          "internalType": "bytes32",
          "name": "_bytes32",
          "type": "bytes32"
        }
      ],
      "name": "bytes32ToString",
      "outputs": [
        {
          "internalType": "string",
          "name": "",
          "type": "string"
        },
        {
          "internalType": "uint8",
          "name": "",
          "type": "uint8"
        }
      ],
      "stateMutability": "pure",
      "type": "function"
    },
    {
      "inputs": [
        {
          "internalType": "string",
          "name": "_objectId",
          "type": "string"
        },
        {
          "internalType": "enum BetType",
          "name": "_betType",
          "type": "uint8"
        },
        {
          "internalType": "uint8",
          "name": "_selection",
          "type": "uint8"
        },
        {
          "internalType": "uint16",
          "name": "_odds",
          "type": "uint16"
        },
        {
          "internalType": "uint256",
          "name": "_amount",
          "type": "uint256"
        }
      ],
      "name": "createBackBet",
      "outputs": [],
      "stateMutability": "payable",
      "type": "function"
    },
    {
      "inputs": [
        {
          "internalType": "string",
          "name": "_objectId",
          "type": "string"
        },
        {
          "internalType": "enum BetType",
          "name": "_betType",
          "type": "uint8"
        },
        {
          "internalType": "uint8",
          "name": "_selection",
          "type": "uint8"
        },
        {
          "internalType": "uint16",
          "name": "_odds",
          "type": "uint16"
        },
        {
          "internalType": "uint256",
          "name": "_amount",
          "type": "uint256"
        }
      ],
      "name": "createLayBet",
      "outputs": [],
      "stateMutability": "payable",
      "type": "function"
    },
    {
      "inputs": [
        {
          "internalType": "bytes32",
          "name": "_requestId",
          "type": "bytes32"
        },
        {
          "internalType": "bytes32",
          "name": "_data",
          "type": "bytes32"
        }
      ],
      "name": "fulfill",
      "outputs": [],
      "stateMutability": "nonpayable",
      "type": "function"
    },
    {
      "inputs": [
        {
          "internalType": "string",
          "name": "_objectId",
          "type": "string"
        },
        {
          "internalType": "enum BetSide",
          "name": "_betSide",
          "type": "uint8"
        },
        {
          "internalType": "uint8",
          "name": "_selection",
          "type": "uint8"
        }
      ],
      "name": "hasMatchWinnerWon",
      "outputs": [
        {
          "internalType": "bool",
          "name": "",
          "type": "bool"
        }
      ],
      "stateMutability": "view",
      "type": "function"
    },
    {
      "inputs": [],
      "name": "owner",
      "outputs": [
        {
          "internalType": "address",
          "name": "",
          "type": "address"
        }
      ],
      "stateMutability": "view",
      "type": "function"
    },
    {
      "inputs": [
        {
          "internalType": "string",
          "name": "_objectId",
          "type": "string"
        },
        {
          "internalType": "enum BetSide",
          "name": "_betSide",
          "type": "uint8"
        },
        {
          "internalType": "enum BetType",
          "name": "_betType",
          "type": "uint8"
        },
        {
          "internalType": "uint8",
          "name": "_selection",
          "type": "uint8"
        },
        {
          "internalType": "uint16",
          "name": "_odds",
          "type": "uint16"
        },
        {
          "internalType": "uint256",
          "name": "_amount",
          "type": "uint256"
        }
      ],
      "name": "removeUnmatchedBet",
      "outputs": [],
      "stateMutability": "nonpayable",
      "type": "function"
    },
    {
      "inputs": [],
      "name": "renounceOwnership",
      "outputs": [],
      "stateMutability": "nonpayable",
      "type": "function"
    },
    {
      "inputs": [
        {
          "internalType": "string",
          "name": "_objectId",
          "type": "string"
        }
      ],
      "name": "requestResult",
      "outputs": [
        {
          "internalType": "bytes32",
          "name": "requestId",
          "type": "bytes32"
        }
      ],
      "stateMutability": "nonpayable",
      "type": "function"
    },
    {
      "inputs": [
        {
          "internalType": "string",
          "name": "_objectId",
          "type": "string"
        },
        {
          "internalType": "enum BetSide",
          "name": "_betSide",
          "type": "uint8"
        },
        {
          "internalType": "enum BetType",
          "name": "_betType",
          "type": "uint8"
        },
        {
          "internalType": "uint8",
          "name": "_selection",
          "type": "uint8"
        },
        {
          "internalType": "uint16",
          "name": "_odds",
          "type": "uint16"
        },
        {
          "internalType": "string",
          "name": "_tokenURI",
          "type": "string"
        }
      ],
      "name": "transferBetToNFT",
      "outputs": [
        {
          "internalType": "uint256",
          "name": "",
          "type": "uint256"
        }
      ],
      "stateMutability": "nonpayable",
      "type": "function"
    },
    {
      "inputs": [
        {
          "internalType": "address",
          "name": "newOwner",
          "type": "address"
        }
      ],
      "name": "transferOwnership",
      "outputs": [],
      "stateMutability": "nonpayable",
      "type": "function"
    },
    {
      "inputs": [
        {
          "internalType": "string",
          "name": "_objectId",
          "type": "string"
        }
      ],
      "name": "withdraw",
      "outputs": [],
      "stateMutability": "nonpayable",
      "type": "function"
    },
    {
      "inputs": [
        {
          "internalType": "string",
          "name": "_objectId",
          "type": "string"
        },
        {
          "internalType": "uint256",
          "name": "tokenId",
          "type": "uint256"
        }
      ],
      "name": "withdrawWithNFT",
      "outputs": [],
      "stateMutability": "nonpayable",
      "type": "function"
    }
  ],
  "bytecode": "0x608060405260016005553480156200001657600080fd5b50604051620050503803806200505083398181016040528101906200003c9190620002e1565b6200005c620000506200015360201b60201c565b6200015b60201b60201c565b6200008173326c977e6efc84e512bb9c30f76e30c160ed06fb6200021f60201b60201c565b73c8d925525ca8759812d0c299b90247917d4d4b7c600760006101000a81548173ffffffffffffffffffffffffffffffffffffffff021916908373ffffffffffffffffffffffffffffffffffffffff1602179055507f3765636237343735336534313462353462323665643162393131623838643637600881905550662386f26fc1000060098190555080600a60006101000a81548173ffffffffffffffffffffffffffffffffffffffff021916908373ffffffffffffffffffffffffffffffffffffffff1602179055505062000313565b600033905090565b60008060009054906101000a900473ffffffffffffffffffffffffffffffffffffffff169050816000806101000a81548173ffffffffffffffffffffffffffffffffffffffff021916908373ffffffffffffffffffffffffffffffffffffffff1602179055508173ffffffffffffffffffffffffffffffffffffffff168173ffffffffffffffffffffffffffffffffffffffff167f8be0079c531659141344cd1fd0a4f28419497f9722a3daafe3b4186f6b6457e060405160405180910390a35050565b80600360006101000a81548173ffffffffffffffffffffffffffffffffffffffff021916908373ffffffffffffffffffffffffffffffffffffffff16021790555050565b600080fd5b600073ffffffffffffffffffffffffffffffffffffffff82169050919050565b6000620002958262000268565b9050919050565b6000620002a98262000288565b9050919050565b620002bb816200029c565b8114620002c757600080fd5b50565b600081519050620002db81620002b0565b92915050565b600060208284031215620002fa57620002f962000263565b5b60006200030a84828501620002ca565b91505092915050565b614d2d80620003236000396000f3fe6080604052600436106100dd5760003560e01c80639201de551161007f578063db3174ec11610059578063db3174ec1461028a578063e603c219146102c7578063f2fde38b146102e3578063f96cb2df1461030c576100dd565b80639201de55146101e6578063a9583d3214610224578063c80e476e14610261576100dd565b806331fb67c2116100bb57806331fb67c2146101505780636920f52b14610179578063715018a6146101a45780638da5cb5b146101bb576100dd565b8063042f2b65146100e2578063100a56c51461010b5780633195d58d14610127575b600080fd5b3480156100ee57600080fd5b5061010960048036038101906101049190613506565b610349565b005b61012560048036038101906101209190613679565b61050c565b005b34801561013357600080fd5b5061014e60048036038101906101499190613713565b6106b3565b005b34801561015c57600080fd5b50610177600480360381019061017291906138b4565b61083b565b005b34801561018557600080fd5b5061018e610e19565b60405161019b919061397c565b60405180910390f35b3480156101b057600080fd5b506101b9610e3f565b005b3480156101c757600080fd5b506101d0610ec7565b6040516101dd91906139b8565b60405180910390f35b3480156101f257600080fd5b5061020d600480360381019061020891906139d3565b610ef0565b60405161021b929190613a97565b60405180910390f35b34801561023057600080fd5b5061024b600480360381019061024691906138b4565b61110d565b6040516102589190613ad6565b60405180910390f35b34801561026d57600080fd5b5061028860048036038101906102839190613b16565b611224565b005b34801561029657600080fd5b506102b160048036038101906102ac9190613bc5565b6115e3565b6040516102be9190613ca3565b60405180910390f35b6102e160048036038101906102dc9190613679565b611d8b565b005b3480156102ef57600080fd5b5061030a60048036038101906103059190613cea565b611f5f565b005b34801561031857600080fd5b50610333600480360381019061032e9190613d17565b612057565b6040516103409190613da1565b60405180910390f35b816006600082815260200190815260200160002060009054906101000a900473ffffffffffffffffffffffffffffffffffffffff1673ffffffffffffffffffffffffffffffffffffffff163373ffffffffffffffffffffffffffffffffffffffff16146103eb576040517f08c379a00000000000000000000000000000000000000000000000000000000081526004016103e290613e2e565b60405180910390fd5b6006600082815260200190815260200160002060006101000a81549073ffffffffffffffffffffffffffffffffffffffff0219169055807f7cc135e0cebb02c3480ae5d74d377283180a2601f8f644edf7987b009316c63a60405160405180910390a260008061045a84610ef0565b915091508060128360405161046f9190613e8a565b908152602001604051809103902060006101000a81548160ff021916908360ff1602179055506001600b836040516104a79190613e8a565b908152602001604051809103902060006101000a81548160ff0219169083151502179055507f42be756ead965c57d99c68dd6dffc656fed9086b9d34c81364739614ad5222eb82826040516104fd929190613a97565b60405180910390a15050505050565b8585600b8282604051610520929190613ec6565b908152602001604051809103902060009054906101000a900460ff16156105805781816040517f1b21b921000000000000000000000000000000000000000000000000000000008152600401610577929190613f0c565b60405180910390fd5b34600081116105c657806040517fd59f5ff00000000000000000000000000000000000000000000000000000000081526004016105bd9190613ca3565b60405180910390fd5b8461ffff166103e8811161061157806040517fa0c5f30c0000000000000000000000000000000000000000000000000000000081526004016106089190613ca3565b60405180910390fd5b348514610653576040517f08c379a000000000000000000000000000000000000000000000000000000000815260040161064a90613fa2565b60405180910390fd5b6106a78a8a8080601f016020809104026020016040519081016040528093929190818152602001838380828437600081840152601f19601f8201169050808301925050505050505060008a8a8a8a3361215f565b50505050505050505050565b6000601084846040516106c7929190613ec6565b9081526020016040518091039020600083815260200190815260200160002060009054906101000a900460ff169050600a60009054906101000a900473ffffffffffffffffffffffffffffffffffffffff1673ffffffffffffffffffffffffffffffffffffffff1663ac7aae4233846040518363ffffffff1660e01b8152600401610753929190613fc2565b600060405180830381600087803b15801561076d57600080fd5b505af1158015610781573d6000803e3d6000fd5b50505050806107c5576040517f08c379a00000000000000000000000000000000000000000000000000000000081526004016107bc90614037565b60405180910390fd5b61080033600f86866040516107db929190613ec6565b90815260200160405180910390206000858152602001908152602001600020546125a8565b600f8484604051610812929190613ec6565b908152602001604051809103902060008381526020019081526020016000206000905550505050565b6108436125f3565b73ffffffffffffffffffffffffffffffffffffffff16610861610ec7565b73ffffffffffffffffffffffffffffffffffffffff16146108b7576040517f08c379a00000000000000000000000000000000000000000000000000000000081526004016108ae906140a3565b60405180910390fd5b600080600190505b60048160ff161015610e1457600081905060006108de85600084612057565b9050600060011515821515146108f55760016108f8565b60005b90506000600d8760405161090c9190613e8a565b9081526020016040518091039020600083600181111561092f5761092e6140c3565b5b6001811115610941576109406140c3565b5b81526020019081526020016000206000876002811115610964576109636140c3565b5b6002811115610976576109756140c3565b5b815260200190815260200160002060008560ff1660ff168152602001908152602001600020805480602002602001604051908101604052809291908181526020016000905b82821015610a885783829060005260206000209060020201604051806080016040529081600082015481526020016001820160009054906101000a900461ffff1661ffff1661ffff1681526020016001820160029054906101000a900473ffffffffffffffffffffffffffffffffffffffff1673ffffffffffffffffffffffffffffffffffffffff1673ffffffffffffffffffffffffffffffffffffffff1681526020016001820160169054906101000a900460ff161515151581525050815260200190600101906109bb565b50505050905060005b8151811015610dfc57818181518110610aad57610aac6140f2565b5b60200260200101516060015115610b5a576000610b0a89858a89878781518110610ada57610ad96140f2565b5b602002602001015160200151888881518110610af957610af86140f2565b5b6020026020010151604001516125fb565b9050600160108a604051610b1e9190613e8a565b9081526020016040518091039020600083815260200190815260200160002060006101000a81548160ff02191690831515021790555050610de9565b610cb3828281518110610b7057610b6f6140f2565b5b602002602001015160400151600e8a604051610b8c9190613e8a565b90815260200160405180910390206000866001811115610baf57610bae6140c3565b5b6001811115610bc157610bc06140c3565b5b815260200190815260200160002060008a6002811115610be457610be36140c3565b5b6002811115610bf657610bf56140c3565b5b815260200190815260200160002060008860ff1660ff1681526020019081526020016000206000858581518110610c3057610c2f6140f2565b5b60200260200101516020015161ffff1661ffff1681526020019081526020016000206000858581518110610c6757610c666140f2565b5b60200260200101516040015173ffffffffffffffffffffffffffffffffffffffff1673ffffffffffffffffffffffffffffffffffffffff168152602001908152602001600020546125a8565b600e88604051610cc39190613e8a565b90815260200160405180910390206000846001811115610ce657610ce56140c3565b5b6001811115610cf857610cf76140c3565b5b81526020019081526020016000206000886002811115610d1b57610d1a6140c3565b5b6002811115610d2d57610d2c6140c3565b5b815260200190815260200160002060008660ff1660ff1681526020019081526020016000206000838381518110610d6757610d666140f2565b5b60200260200101516020015161ffff1661ffff1681526020019081526020016000206000838381518110610d9e57610d9d6140f2565b5b60200260200101516040015173ffffffffffffffffffffffffffffffffffffffff1673ffffffffffffffffffffffffffffffffffffffff168152602001908152602001600020600090555b8080610df490614150565b915050610a91565b50505050508080610e0c90614199565b9150506108bf565b505050565b600a60009054906101000a900473ffffffffffffffffffffffffffffffffffffffff1681565b610e476125f3565b73ffffffffffffffffffffffffffffffffffffffff16610e65610ec7565b73ffffffffffffffffffffffffffffffffffffffff1614610ebb576040517f08c379a0000000000000000000000000000000000000000000000000000000008152600401610eb2906140a3565b60405180910390fd5b610ec56000612641565b565b60008060009054906101000a900473ffffffffffffffffffffffffffffffffffffffff16905090565b6060600080600090506000805b60208360ff16108015610f4f5750600060f81b868460ff1660208110610f2657610f256140f2565b5b1a60f81b7effffffffffffffffffffffffffffffffffffffffffffffffffffffffffffff191614155b15610f67578280610f5f90614199565b935050610efd565b6000600184610f7691906141c3565b905060008160ff1667ffffffffffffffff811115610f9757610f96613789565b5b6040519080825280601f01601f191660200182016040528015610fc95781602001600182028036833780820191505090505b509050600094505b60208560ff161080156110235750600060f81b888660ff1660208110610ffa57610ff96140f2565b5b1a60f81b7effffffffffffffffffffffffffffffffffffffffffffffffffffffffffffff191614155b156110f1578160ff168560ff16101561109657878560ff166020811061104c5761104b6140f2565b5b1a60f81b818660ff1681518110611066576110656140f2565b5b60200101907effffffffffffffffffffffffffffffffffffffffffffffffffffffffffffff1916908160001a9053505b6030888660ff16602081106110ae576110ad6140f2565b5b1a60f81b60f81c6110bf91906141c3565b93508360ff16600a846110d291906141f7565b6110dc9190614251565b925084806110e990614199565b955050610fd1565b80600a846110ff91906142d6565b965096505050505050915091565b60006111176125f3565b73ffffffffffffffffffffffffffffffffffffffff16611135610ec7565b73ffffffffffffffffffffffffffffffffffffffff161461118b576040517f08c379a0000000000000000000000000000000000000000000000000000000008152600401611182906140a3565b60405180910390fd5b60006111a16008543063042f2b6560e01b612705565b90506111ed6040518060400160405280600981526020017f666978747572654964000000000000000000000000000000000000000000000081525084836127369092919063ffffffff16565b61121c600760009054906101000a900473ffffffffffffffffffffffffffffffffffffffff1682600954612769565b915050919050565b6000600c8888604051611238929190613ec6565b9081526020016040518091039020600087600181111561125b5761125a6140c3565b5b600181111561126d5761126c6140c3565b5b815260200190815260200160002060008660028111156112905761128f6140c3565b5b60028111156112a2576112a16140c3565b5b815260200190815260200160002060008560ff1660ff16815260200190815260200160002060008461ffff1661ffff168152602001908152602001600020805480602002602001604051908101604052809291908181526020016000905b828210156113925783829060005260206000209060020201604051806040016040529081600082015481526020016001820160009054906101000a900473ffffffffffffffffffffffffffffffffffffffff1673ffffffffffffffffffffffffffffffffffffffff1673ffffffffffffffffffffffffffffffffffffffff168152505081526020019060010190611300565b5050505090506000805b8251811015611597573373ffffffffffffffffffffffffffffffffffffffff168382815181106113cf576113ce6140f2565b5b60200260200101516020015173ffffffffffffffffffffffffffffffffffffffff1614801561141b57508383828151811061140d5761140c6140f2565b5b602002602001015160000151145b1561158457600191507f0ade976e65f3978aa3968af04901755321152ba32b08ee0175e035760c11c1b58a8a8a8a8a8a8a336040516114619897969594939291906143a6565b60405180910390a161147333856125a8565b600c8a8a604051611485929190613ec6565b908152602001604051809103902060008960018111156114a8576114a76140c3565b5b60018111156114ba576114b96140c3565b5b815260200190815260200160002060008860028111156114dd576114dc6140c3565b5b60028111156114ef576114ee6140c3565b5b815260200190815260200160002060008760ff1660ff16815260200190815260200160002060008661ffff1661ffff168152602001908152602001600020818154811061153f5761153e6140f2565b5b90600052602060002090600202016000808201600090556001820160006101000a81549073ffffffffffffffffffffffffffffffffffffffff02191690555050611597565b808061158f90614150565b91505061139c565b50806115d8576040517f08c379a00000000000000000000000000000000000000000000000000000000081526004016115cf9061446a565b60405180910390fd5b505050505050505050565b6000806000905060005b600d8b8b6040516115ff929190613ec6565b908152602001604051809103902060008a6001811115611622576116216140c3565b5b6001811115611634576116336140c3565b5b81526020019081526020016000206000896002811115611657576116566140c3565b5b6002811115611669576116686140c3565b5b815260200190815260200160002060008860ff1660ff1681526020019081526020016000208054905081101561198b573373ffffffffffffffffffffffffffffffffffffffff16600d8c8c6040516116c2929190613ec6565b908152602001604051809103902060008b60018111156116e5576116e46140c3565b5b60018111156116f7576116f66140c3565b5b815260200190815260200160002060008a600281111561171a576117196140c3565b5b600281111561172c5761172b6140c3565b5b815260200190815260200160002060008960ff1660ff1681526020019081526020016000208281548110611763576117626140f2565b5b906000526020600020906002020160010160029054906101000a900473ffffffffffffffffffffffffffffffffffffffff1673ffffffffffffffffffffffffffffffffffffffff1614801561189157508561ffff16600d8c8c6040516117ca929190613ec6565b908152602001604051809103902060008b60018111156117ed576117ec6140c3565b5b60018111156117ff576117fe6140c3565b5b815260200190815260200160002060008a6002811115611822576118216140c3565b5b6002811115611834576118336140c3565b5b815260200190815260200160002060008960ff1660ff168152602001908152602001600020828154811061186b5761186a6140f2565b5b906000526020600020906002020160010160009054906101000a900461ffff1661ffff16145b15611978576001600d8c8c6040516118aa929190613ec6565b908152602001604051809103902060008b60018111156118cd576118cc6140c3565b5b60018111156118df576118de6140c3565b5b815260200190815260200160002060008a6002811115611902576119016140c3565b5b6002811115611914576119136140c3565b5b815260200190815260200160002060008960ff1660ff168152602001908152602001600020828154811061194b5761194a6140f2565b5b906000526020600020906002020160010160166101000a81548160ff021916908315150217905550600191505b808061198390614150565b9150506115ed565b50806119cc576040517f08c379a00000000000000000000000000000000000000000000000000000000081526004016119c3906144d6565b60405180910390fd5b600060118b8b6040516119e0929190613ec6565b908152602001604051809103902054905060118b8b604051611a03929190613ec6565b90815260200160405180910390206000815480929190611a2290614150565b91905055506000611a7b8c8c8080601f016020809104026020016040519081016040528093929190818152602001838380828437600081840152601f19601f820116905080830192505050505050508b8b8b8b336125fb565b9050600a60009054906101000a900473ffffffffffffffffffffffffffffffffffffffff1673ffffffffffffffffffffffffffffffffffffffff1663e86f636733838f8f878c8c6040518863ffffffff1660e01b8152600401611ae497969594939291906144f6565b600060405180830381600087803b158015611afe57600080fd5b505af1158015611b12573d6000803e3d6000fd5b50505050600e8c8c604051611b28929190613ec6565b908152602001604051809103902060008b6001811115611b4b57611b4a6140c3565b5b6001811115611b5d57611b5c6140c3565b5b815260200190815260200160002060008a6002811115611b8057611b7f6140c3565b5b6002811115611b9257611b916140c3565b5b815260200190815260200160002060008960ff1660ff16815260200190815260200160002060008861ffff1661ffff16815260200190815260200160002060003373ffffffffffffffffffffffffffffffffffffffff1673ffffffffffffffffffffffffffffffffffffffff16815260200190815260200160002054600f8d8d604051611c20929190613ec6565b9081526020016040518091039020600083815260200190815260200160002081905550600e8c8c604051611c55929190613ec6565b908152602001604051809103902060008b6001811115611c7857611c776140c3565b5b6001811115611c8a57611c896140c3565b5b815260200190815260200160002060008a6002811115611cad57611cac6140c3565b5b6002811115611cbf57611cbe6140c3565b5b815260200190815260200160002060008960ff1660ff16815260200190815260200160002060008861ffff1661ffff16815260200190815260200160002060003373ffffffffffffffffffffffffffffffffffffffff1673ffffffffffffffffffffffffffffffffffffffff168152602001908152602001600020600090557f5089770ecce0ed387baf1e3b000fcc13bd3c2205d6205f06afeb547db5f2321e8c8c83604051611d719392919061455b565b60405180910390a180935050505098975050505050505050565b8585600b8282604051611d9f929190613ec6565b908152602001604051809103902060009054906101000a900460ff1615611dff5781816040517f1b21b921000000000000000000000000000000000000000000000000000000008152600401611df6929190613f0c565b60405180910390fd5b3460008111611e4557806040517fd59f5ff0000000000000000000000000000000000000000000000000000000008152600401611e3c9190613ca3565b60405180910390fd5b8461ffff166103e88111611e9057806040517fa0c5f30c000000000000000000000000000000000000000000000000000000008152600401611e879190613ca3565b60405180910390fd5b60006103e88088611ea1919061458d565b61ffff1687611eb091906141f7565b611eba91906145c1565b9050348114611efe576040517f08c379a0000000000000000000000000000000000000000000000000000000008152600401611ef590614664565b60405180910390fd5b611f528b8b8080601f016020809104026020016040519081016040528093929190818152602001838380828437600081840152601f19601f8201169050808301925050505050505060018b8b8b8b3361215f565b5050505050505050505050565b611f676125f3565b73ffffffffffffffffffffffffffffffffffffffff16611f85610ec7565b73ffffffffffffffffffffffffffffffffffffffff1614611fdb576040517f08c379a0000000000000000000000000000000000000000000000000000000008152600401611fd2906140a3565b60405180910390fd5b600073ffffffffffffffffffffffffffffffffffffffff168173ffffffffffffffffffffffffffffffffffffffff16141561204b576040517f08c379a0000000000000000000000000000000000000000000000000000000008152600401612042906146f6565b60405180910390fd5b61205481612641565b50565b60008060128560405161206a9190613e8a565b908152602001604051809103902060009054906101000a900460ff16905060008160ff16146120ce576040517f08c379a00000000000000000000000000000000000000000000000000000000081526004016120c590614762565b60405180910390fd5b60008360ff168260ff161480156121095750600060018111156120f4576120f36140c3565b5b856001811115612107576121066140c3565b5b145b8061214957508360ff168260ff16141580156121485750600180811115612133576121326140c3565b5b856001811115612146576121456140c3565b5b145b5b1561215357600190505b80925050509392505050565b6000866001811115612174576121736140c3565b5b60006001811115612188576121876140c3565b5b14612194576000612197565b60015b90506000600c896040516121ab9190613e8a565b908152602001604051809103902060008360018111156121ce576121cd6140c3565b5b60018111156121e0576121df6140c3565b5b81526020019081526020016000206000886002811115612203576122026140c3565b5b6002811115612215576122146140c3565b5b815260200190815260200160002060008760ff1660ff16815260200190815260200160002060008661ffff1661ffff168152602001908152602001600020805480602002602001604051908101604052809291908181526020016000905b828210156123055783829060005260206000209060020201604051806040016040529081600082015481526020016001820160009054906101000a900473ffffffffffffffffffffffffffffffffffffffff1673ffffffffffffffffffffffffffffffffffffffff1673ffffffffffffffffffffffffffffffffffffffff168152505081526020019060010190612273565b50505050905060008151141561232b5761232489898989898989612789565b505061259f565b600084905060005b8251811015612571576000838281518110612351576123506140f2565b5b60200260200101516000015183111561239857838281518110612377576123766140f2565b5b602002602001015160000151905080836123919190614782565b92506123aa565b82905080836123a79190614782565b92505b6123d78c868c8c8c868a89815181106123c6576123c56140f2565b5b602002602001015160200151612934565b8382815181106123ea576123e96140f2565b5b602002602001015160000151811415612488577f0ade976e65f3978aa3968af04901755321152ba32b08ee0175e035760c11c1b58c868c8c8c868a8981518110612437576124366140f2565b5b60200260200101516020015160405161245697969594939291906147b6565b60405180910390a1838281518110612471576124706140f2565b5b60200260200101612480613405565b81525061253b565b8084838151811061249c5761249b6140f2565b5b60200260200101516000018181516124b49190614782565b915081815250507f3f3925f6afe1ab09977ba289dc98c6334b2773372c1f7eaf605cedb85c643f018c868c8c8c8988815181106124f4576124f36140f2565b5b6020026020010151600001518a8981518110612513576125126140f2565b5b60200260200101516020015160405161253297969594939291906147b6565b60405180910390a15b600083141561255d576125538c8c8c8c8c8c8c612934565b505050505061259f565b50808061256990614150565b915050612333565b5061258c8a8a8a8a8a868b6125869190614782565b8a612934565b61259b8a8a8a8a8a868a612789565b5050505b50505050505050565b8173ffffffffffffffffffffffffffffffffffffffff166108fc829081150290604051600060405180830381858888f193505050501580156125ee573d6000803e3d6000fd5b505050565b600033905090565b6000610fff87838888888860405160200161261b9695949392919061482c565b6040516020818303038152906040528051906020012060001c1690509695505050505050565b60008060009054906101000a900473ffffffffffffffffffffffffffffffffffffffff169050816000806101000a81548173ffffffffffffffffffffffffffffffffffffffff021916908373ffffffffffffffffffffffffffffffffffffffff1602179055508173ffffffffffffffffffffffffffffffffffffffff168173ffffffffffffffffffffffffffffffffffffffff167f8be0079c531659141344cd1fd0a4f28419497f9722a3daafe3b4186f6b6457e060405160405180910390a35050565b61270d613435565b612715613435565b61272c85858584612c86909392919063ffffffff16565b9150509392505050565b61274d828460800151612d3690919063ffffffff16565b612764818460800151612d3690919063ffffffff16565b505050565b60006127808484846001634042994660e01b612d5b565b90509392505050565b600c876040516127999190613e8a565b908152602001604051809103902060008760018111156127bc576127bb6140c3565b5b60018111156127ce576127cd6140c3565b5b815260200190815260200160002060008660028111156127f1576127f06140c3565b5b6002811115612803576128026140c3565b5b815260200190815260200160002060008560ff1660ff16815260200190815260200160002060008461ffff1661ffff16815260200190815260200160002060405180604001604052808481526020018373ffffffffffffffffffffffffffffffffffffffff1681525090806001815401808255809150506001900390600052602060002090600202016000909190919091506000820151816000015560208201518160010160006101000a81548173ffffffffffffffffffffffffffffffffffffffff021916908373ffffffffffffffffffffffffffffffffffffffff16021790555050507fd9ead39440c1245780b4d6d60aa95d35bbac48e0d9cdf2b29e0e33f5e75aedbe8787878787878760405161292397969594939291906147b6565b60405180910390a150505050505050565b60008290506000600181111561294d5761294c6140c3565b5b8760018111156129605761295f6140c3565b5b1415612991576103e88085612975919061458d565b61ffff168461298491906141f7565b61298e91906145c1565b90505b80600e896040516129a29190613e8a565b908152602001604051809103902060008960018111156129c5576129c46140c3565b5b60018111156129d7576129d66140c3565b5b815260200190815260200160002060008860028111156129fa576129f96140c3565b5b6002811115612a0c57612a0b6140c3565b5b815260200190815260200160002060008760ff1660ff16815260200190815260200160002060008661ffff1661ffff16815260200190815260200160002060008473ffffffffffffffffffffffffffffffffffffffff1673ffffffffffffffffffffffffffffffffffffffff1681526020019081526020016000206000828254612a969190614251565b92505081905550600d88604051612aad9190613e8a565b90815260200160405180910390206000886001811115612ad057612acf6140c3565b5b6001811115612ae257612ae16140c3565b5b81526020019081526020016000206000876002811115612b0557612b046140c3565b5b6002811115612b1757612b166140c3565b5b815260200190815260200160002060008660ff1660ff16815260200190815260200160002060405180608001604052808581526020018661ffff1681526020018473ffffffffffffffffffffffffffffffffffffffff1681526020016000151581525090806001815401808255809150506001900390600052602060002090600202016000909190919091506000820151816000015560208201518160010160006101000a81548161ffff021916908361ffff16021790555060408201518160010160026101000a81548173ffffffffffffffffffffffffffffffffffffffff021916908373ffffffffffffffffffffffffffffffffffffffff16021790555060608201518160010160166101000a81548160ff02191690831515021790555050507f0fca364a96d7ed643a08a7b3f2be55b7e2993632ce10f4c978dc379198544f7d88888888888888604051612c7497969594939291906147b6565b60405180910390a15050505050505050565b612c8e613435565b612c9e8560800151610100612fc3565b508385600001818152505082856020019073ffffffffffffffffffffffffffffffffffffffff16908173ffffffffffffffffffffffffffffffffffffffff16815250508185604001907bffffffffffffffffffffffffffffffffffffffffffffffffffffffff191690817bffffffffffffffffffffffffffffffffffffffffffffffffffffffff191681525050849050949350505050565b612d43826003835161302d565b612d56818361317290919063ffffffff16565b505050565b600030600554604051602001612d7292919061490f565b604051602081830303815290604052805190602001209050600554856060018181525050856006600083815260200190815260200160002060006101000a81548173ffffffffffffffffffffffffffffffffffffffff021916908373ffffffffffffffffffffffffffffffffffffffff160217905550807fb5e6e01e79f91267dc17b4e6314d5d4d03593d2ceee0fbb452b750bd70ea5af960405160405180910390a2600082600080886000015189602001518a604001518b606001518a8d6080015160000151604051602401612e509897969594939291906149cb565b604051602081830303815290604052907bffffffffffffffffffffffffffffffffffffffffffffffffffffffff19166020820180517bffffffffffffffffffffffffffffffffffffffffffffffffffffffff83818316178352505050509050600360009054906101000a900473ffffffffffffffffffffffffffffffffffffffff1673ffffffffffffffffffffffffffffffffffffffff16634000aea08887846040518463ffffffff1660e01b8152600401612f0e93929190614a50565b602060405180830381600087803b158015612f2857600080fd5b505af1158015612f3c573d6000803e3d6000fd5b505050506040513d601f19601f82011682018060405250810190612f609190614aba565b612f9f576040517f08c379a0000000000000000000000000000000000000000000000000000000008152600401612f9690614b59565b60405180910390fd5b600160056000828254612fb29190614251565b925050819055505095945050505050565b612fcb6134a2565b6000602083612fda91906142d6565b1461300657602082612fec91906142d6565b6020612ff89190614782565b826130039190614251565b91505b81836020018181525050604051808452600081528281016020016040525082905092915050565b6017811161305a576130548160058460ff16901b60ff16178461319490919063ffffffff16565b5061316d565b60ff811161309c5761307f601860058460ff16901b178461319490919063ffffffff16565b50613096816001856131b49092919063ffffffff16565b5061316c565b61ffff81116130df576130c2601960058460ff16901b178461319490919063ffffffff16565b506130d9816002856131b49092919063ffffffff16565b5061316b565b63ffffffff811161312457613107601a60058460ff16901b178461319490919063ffffffff16565b5061311e816004856131b49092919063ffffffff16565b5061316a565b67ffffffffffffffff811161316957613150601b60058460ff16901b178461319490919063ffffffff16565b50613167816008856131b49092919063ffffffff16565b505b5b5b5b5b505050565b61317a6134a2565b61318c838460000151518485516131d6565b905092915050565b61319c6134a2565b6131ac83846000015151846132e0565b905092915050565b6131bc6134a2565b6131cd848560000151518585613337565b90509392505050565b6131de6134a2565b82518211156131ec57600080fd5b846020015182856131fd9190614251565b1115613232576132318560026132228860200151888761321d9190614251565b6133c5565b61322c91906141f7565b6133e1565b5b6000808651805187602083010193508088870111156132515787860182525b60208701925050505b6020841061329857805182526020826132739190614251565b91506020816132829190614251565b90506020846132919190614782565b935061325a565b600060018560206132a99190614782565b6101006132b69190614cac565b6132c09190614782565b905080198251168184511681811785525050879350505050949350505050565b6132e86134a2565b8360200151831061330e5761330d846002866020015161330891906141f7565b6133e1565b5b835180516020858301018481538186141561332a576001820183525b5050508390509392505050565b61333f6134a2565b846020015184836133509190614251565b11156133785761337785600286856133689190614251565b61337291906141f7565b6133e1565b5b600060018361010061338a9190614cac565b6133949190614782565b905085518386820101858319825116178152815185880111156133b75784870182525b505085915050949350505050565b6000818311156133d7578290506133db565b8190505b92915050565b6000826000015190506133f48383612fc3565b506133ff8382613172565b50505050565b604051806040016040528060008152602001600073ffffffffffffffffffffffffffffffffffffffff1681525090565b6040518060a0016040528060008019168152602001600073ffffffffffffffffffffffffffffffffffffffff16815260200160007bffffffffffffffffffffffffffffffffffffffffffffffffffffffff191681526020016000815260200161349c6134a2565b81525090565b604051806040016040528060608152602001600081525090565b6000604051905090565b600080fd5b600080fd5b6000819050919050565b6134e3816134d0565b81146134ee57600080fd5b50565b600081359050613500816134da565b92915050565b6000806040838503121561351d5761351c6134c6565b5b600061352b858286016134f1565b925050602061353c858286016134f1565b9150509250929050565b600080fd5b600080fd5b600080fd5b60008083601f84011261356b5761356a613546565b5b8235905067ffffffffffffffff8111156135885761358761354b565b5b6020830191508360018202830111156135a4576135a3613550565b5b9250929050565b600381106135b857600080fd5b50565b6000813590506135ca816135ab565b92915050565b600060ff82169050919050565b6135e6816135d0565b81146135f157600080fd5b50565b600081359050613603816135dd565b92915050565b600061ffff82169050919050565b61362081613609565b811461362b57600080fd5b50565b60008135905061363d81613617565b92915050565b6000819050919050565b61365681613643565b811461366157600080fd5b50565b6000813590506136738161364d565b92915050565b60008060008060008060a08789031215613696576136956134c6565b5b600087013567ffffffffffffffff8111156136b4576136b36134cb565b5b6136c089828a01613555565b965096505060206136d389828a016135bb565b94505060406136e489828a016135f4565b93505060606136f589828a0161362e565b925050608061370689828a01613664565b9150509295509295509295565b60008060006040848603121561372c5761372b6134c6565b5b600084013567ffffffffffffffff81111561374a576137496134cb565b5b61375686828701613555565b9350935050602061376986828701613664565b9150509250925092565b600080fd5b6000601f19601f8301169050919050565b7f4e487b7100000000000000000000000000000000000000000000000000000000600052604160045260246000fd5b6137c182613778565b810181811067ffffffffffffffff821117156137e0576137df613789565b5b80604052505050565b60006137f36134bc565b90506137ff82826137b8565b919050565b600067ffffffffffffffff82111561381f5761381e613789565b5b61382882613778565b9050602081019050919050565b82818337600083830152505050565b600061385761385284613804565b6137e9565b90508281526020810184848401111561387357613872613773565b5b61387e848285613835565b509392505050565b600082601f83011261389b5761389a613546565b5b81356138ab848260208601613844565b91505092915050565b6000602082840312156138ca576138c96134c6565b5b600082013567ffffffffffffffff8111156138e8576138e76134cb565b5b6138f484828501613886565b91505092915050565b600073ffffffffffffffffffffffffffffffffffffffff82169050919050565b6000819050919050565b600061394261393d613938846138fd565b61391d565b6138fd565b9050919050565b600061395482613927565b9050919050565b600061396682613949565b9050919050565b6139768161395b565b82525050565b6000602082019050613991600083018461396d565b92915050565b60006139a2826138fd565b9050919050565b6139b281613997565b82525050565b60006020820190506139cd60008301846139a9565b92915050565b6000602082840312156139e9576139e86134c6565b5b60006139f7848285016134f1565b91505092915050565b600081519050919050565b600082825260208201905092915050565b60005b83811015613a3a578082015181840152602081019050613a1f565b83811115613a49576000848401525b50505050565b6000613a5a82613a00565b613a648185613a0b565b9350613a74818560208601613a1c565b613a7d81613778565b840191505092915050565b613a91816135d0565b82525050565b60006040820190508181036000830152613ab18185613a4f565b9050613ac06020830184613a88565b9392505050565b613ad0816134d0565b82525050565b6000602082019050613aeb6000830184613ac7565b92915050565b60028110613afe57600080fd5b50565b600081359050613b1081613af1565b92915050565b600080600080600080600060c0888a031215613b3557613b346134c6565b5b600088013567ffffffffffffffff811115613b5357613b526134cb565b5b613b5f8a828b01613555565b97509750506020613b728a828b01613b01565b9550506040613b838a828b016135bb565b9450506060613b948a828b016135f4565b9350506080613ba58a828b0161362e565b92505060a0613bb68a828b01613664565b91505092959891949750929550565b60008060008060008060008060c0898b031215613be557613be46134c6565b5b600089013567ffffffffffffffff811115613c0357613c026134cb565b5b613c0f8b828c01613555565b98509850506020613c228b828c01613b01565b9650506040613c338b828c016135bb565b9550506060613c448b828c016135f4565b9450506080613c558b828c0161362e565b93505060a089013567ffffffffffffffff811115613c7657613c756134cb565b5b613c828b828c01613555565b92509250509295985092959890939650565b613c9d81613643565b82525050565b6000602082019050613cb86000830184613c94565b92915050565b613cc781613997565b8114613cd257600080fd5b50565b600081359050613ce481613cbe565b92915050565b600060208284031215613d0057613cff6134c6565b5b6000613d0e84828501613cd5565b91505092915050565b600080600060608486031215613d3057613d2f6134c6565b5b600084013567ffffffffffffffff811115613d4e57613d4d6134cb565b5b613d5a86828701613886565b9350506020613d6b86828701613b01565b9250506040613d7c868287016135f4565b9150509250925092565b60008115159050919050565b613d9b81613d86565b82525050565b6000602082019050613db66000830184613d92565b92915050565b7f536f75726365206d75737420626520746865206f7261636c65206f662074686560008201527f2072657175657374000000000000000000000000000000000000000000000000602082015250565b6000613e18602883613a0b565b9150613e2382613dbc565b604082019050919050565b60006020820190508181036000830152613e4781613e0b565b9050919050565b600081905092915050565b6000613e6482613a00565b613e6e8185613e4e565b9350613e7e818560208601613a1c565b80840191505092915050565b6000613e968284613e59565b915081905092915050565b6000613ead8385613e4e565b9350613eba838584613835565b82840190509392505050565b6000613ed3828486613ea1565b91508190509392505050565b6000613eeb8385613a0b565b9350613ef8838584613835565b613f0183613778565b840190509392505050565b60006020820190508181036000830152613f27818486613edf565b90509392505050565b7f416d6f756e7420616e642073656e642076616c756520617265206e6f7420657160008201527f75616c2100000000000000000000000000000000000000000000000000000000602082015250565b6000613f8c602483613a0b565b9150613f9782613f30565b604082019050919050565b60006020820190508181036000830152613fbb81613f7f565b9050919050565b6000604082019050613fd760008301856139a9565b613fe46020830184613c94565b9392505050565b7f426574206c6f7374000000000000000000000000000000000000000000000000600082015250565b6000614021600883613a0b565b915061402c82613feb565b602082019050919050565b6000602082019050818103600083015261405081614014565b9050919050565b7f4f776e61626c653a2063616c6c6572206973206e6f7420746865206f776e6572600082015250565b600061408d602083613a0b565b915061409882614057565b602082019050919050565b600060208201905081810360008301526140bc81614080565b9050919050565b7f4e487b7100000000000000000000000000000000000000000000000000000000600052602160045260246000fd5b7f4e487b7100000000000000000000000000000000000000000000000000000000600052603260045260246000fd5b7f4e487b7100000000000000000000000000000000000000000000000000000000600052601160045260246000fd5b600061415b82613643565b91507fffffffffffffffffffffffffffffffffffffffffffffffffffffffffffffffff82141561418e5761418d614121565b5b600182019050919050565b60006141a4826135d0565b915060ff8214156141b8576141b7614121565b5b600182019050919050565b60006141ce826135d0565b91506141d9836135d0565b9250828210156141ec576141eb614121565b5b828203905092915050565b600061420282613643565b915061420d83613643565b9250817fffffffffffffffffffffffffffffffffffffffffffffffffffffffffffffffff048311821515161561424657614245614121565b5b828202905092915050565b600061425c82613643565b915061426783613643565b9250827fffffffffffffffffffffffffffffffffffffffffffffffffffffffffffffffff0382111561429c5761429b614121565b5b828201905092915050565b7f4e487b7100000000000000000000000000000000000000000000000000000000600052601260045260246000fd5b60006142e182613643565b91506142ec83613643565b9250826142fc576142fb6142a7565b5b828206905092915050565b60028110614318576143176140c3565b5b50565b600081905061432982614307565b919050565b60006143398261431b565b9050919050565b6143498161432e565b82525050565b600381106143605761435f6140c3565b5b50565b60008190506143718261434f565b919050565b600061438182614363565b9050919050565b61439181614376565b82525050565b6143a081613609565b82525050565b600060e08201905081810360008301526143c1818a8c613edf565b90506143d06020830189614340565b6143dd6040830188614388565b6143ea6060830187613a88565b6143f76080830186614397565b61440460a0830185613c94565b61441160c08301846139a9565b9998505050505050505050565b7f4e6f204265740000000000000000000000000000000000000000000000000000600082015250565b6000614454600683613a0b565b915061445f8261441e565b602082019050919050565b6000602082019050818103600083015261448381614447565b9050919050565b7f4e6f204d61746368656420426574000000000000000000000000000000000000600082015250565b60006144c0600e83613a0b565b91506144cb8261448a565b602082019050919050565b600060208201905081810360008301526144ef816144b3565b9050919050565b600060a08201905061450b600083018a6139a9565b6145186020830189613c94565b818103604083015261452b818789613edf565b905061453a6060830186613c94565b818103608083015261454d818486613edf565b905098975050505050505050565b60006040820190508181036000830152614576818587613edf565b90506145856020830184613c94565b949350505050565b600061459882613609565b91506145a383613609565b9250828210156145b6576145b5614121565b5b828203905092915050565b60006145cc82613643565b91506145d783613643565b9250826145e7576145e66142a7565b5b828204905092915050565b7f4c6971696469747920616e642073656e642076616c756520617265206e6f742060008201527f657175616c210000000000000000000000000000000000000000000000000000602082015250565b600061464e602683613a0b565b9150614659826145f2565b604082019050919050565b6000602082019050818103600083015261467d81614641565b9050919050565b7f4f776e61626c653a206e6577206f776e657220697320746865207a65726f206160008201527f6464726573730000000000000000000000000000000000000000000000000000602082015250565b60006146e0602683613a0b565b91506146eb82614684565b604082019050919050565b6000602082019050818103600083015261470f816146d3565b9050919050565b7f4e6f20726573756c740000000000000000000000000000000000000000000000600082015250565b600061474c600983613a0b565b915061475782614716565b602082019050919050565b6000602082019050818103600083015261477b8161473f565b9050919050565b600061478d82613643565b915061479883613643565b9250828210156147ab576147aa614121565b5b828203905092915050565b600060e08201905081810360008301526147d0818a613a4f565b90506147df6020830189614340565b6147ec6040830188614388565b6147f96060830187613a88565b6148066080830186614397565b61481360a0830185613c94565b61482060c08301846139a9565b98975050505050505050565b600060c08201905081810360008301526148468189613a4f565b905061485560208301886139a9565b6148626040830187614340565b61486f6060830186614388565b61487c6080830185613a88565b61488960a0830184614397565b979650505050505050565b600061489f82613949565b9050919050565b60008160601b9050919050565b60006148be826148a6565b9050919050565b60006148d0826148b3565b9050919050565b6148e86148e382614894565b6148c5565b82525050565b6000819050919050565b61490961490482613643565b6148ee565b82525050565b600061491b82856148d7565b60148201915061492b82846148f8565b6020820191508190509392505050565b60007fffffffff0000000000000000000000000000000000000000000000000000000082169050919050565b6149708161493b565b82525050565b600081519050919050565b600082825260208201905092915050565b600061499d82614976565b6149a78185614981565b93506149b7818560208601613a1c565b6149c081613778565b840191505092915050565b6000610100820190506149e1600083018b6139a9565b6149ee602083018a613c94565b6149fb6040830189613ac7565b614a0860608301886139a9565b614a156080830187614967565b614a2260a0830186613c94565b614a2f60c0830185613c94565b81810360e0830152614a418184614992565b90509998505050505050505050565b6000606082019050614a6560008301866139a9565b614a726020830185613c94565b8181036040830152614a848184614992565b9050949350505050565b614a9781613d86565b8114614aa257600080fd5b50565b600081519050614ab481614a8e565b92915050565b600060208284031215614ad057614acf6134c6565b5b6000614ade84828501614aa5565b91505092915050565b7f756e61626c6520746f207472616e73666572416e6443616c6c20746f206f726160008201527f636c650000000000000000000000000000000000000000000000000000000000602082015250565b6000614b43602383613a0b565b9150614b4e82614ae7565b604082019050919050565b60006020820190508181036000830152614b7281614b36565b9050919050565b60008160011c9050919050565b6000808291508390505b6001851115614bd057808604811115614bac57614bab614121565b5b6001851615614bbb5780820291505b8081029050614bc985614b79565b9450614b90565b94509492505050565b600082614be95760019050614ca5565b81614bf75760009050614ca5565b8160018114614c0d5760028114614c1757614c46565b6001915050614ca5565b60ff841115614c2957614c28614121565b5b8360020a915084821115614c4057614c3f614121565b5b50614ca5565b5060208310610133831016604e8410600b8410161715614c7b5782820a905083811115614c7657614c75614121565b5b614ca5565b614c888484846001614b86565b92509050818404811115614c9f57614c9e614121565b5b81810290505b9392505050565b6000614cb782613643565b9150614cc283613643565b9250614cef7fffffffffffffffffffffffffffffffffffffffffffffffffffffffffffffffff8484614bd9565b90509291505056fea2646970667358221220d56f473c8ecaf9a95ebd793d293192165355a2c961f4b0019563899e8d7bfe4b64736f6c63430008090033",
  "linkReferences": {},
  "deployedLinkReferences": {}
}