{
  "_format": "hh-sol-artifact-1",
  "contractName": "BettingAIO",
  "sourceName": "contracts/BettingAIO.sol",
  "abi": [
    {
      "inputs": [
        {
          "internalType": "contract BetNFT",
          "name": "_betNFT",
          "type": "address"
        }
      ],
      "stateMutability": "nonpayable",
      "type": "constructor"
    },
    {
      "inputs": [
        {
          "internalType": "uint256",
          "name": "amount",
          "type": "uint256"
        }
      ],
      "name": "AmountToLow",
      "type": "error"
    },
    {
      "inputs": [
        {
          "internalType": "string",
          "name": "apiId",
          "type": "string"
        }
      ],
      "name": "GameAlreadyEnded",
      "type": "error"
    },
    {
      "inputs": [
        {
          "internalType": "string",
          "name": "apiId",
          "type": "string"
        }
      ],
      "name": "GameNotEnded",
      "type": "error"
    },
    {
      "inputs": [
        {
          "internalType": "uint256",
          "name": "odds",
          "type": "uint256"
        }
      ],
      "name": "OddsToLow",
      "type": "error"
    },
    {
      "anonymous": false,
      "inputs": [
        {
          "indexed": false,
          "internalType": "string",
          "name": "apiId",
          "type": "string"
        },
        {
          "indexed": false,
          "internalType": "uint256",
          "name": "tokenId",
          "type": "uint256"
        }
      ],
      "name": "BetConverted",
      "type": "event"
    },
    {
      "anonymous": false,
      "inputs": [
        {
          "indexed": true,
          "internalType": "bytes32",
          "name": "id",
          "type": "bytes32"
        }
      ],
      "name": "ChainlinkCancelled",
      "type": "event"
    },
    {
      "anonymous": false,
      "inputs": [
        {
          "indexed": true,
          "internalType": "bytes32",
          "name": "id",
          "type": "bytes32"
        }
      ],
      "name": "ChainlinkFulfilled",
      "type": "event"
    },
    {
      "anonymous": false,
      "inputs": [
        {
          "indexed": true,
          "internalType": "bytes32",
          "name": "id",
          "type": "bytes32"
        }
      ],
      "name": "ChainlinkRequested",
      "type": "event"
    },
    {
      "anonymous": false,
      "inputs": [
        {
          "indexed": false,
          "internalType": "string",
          "name": "apiId",
          "type": "string"
        },
        {
          "indexed": false,
          "internalType": "uint8",
          "name": "result",
          "type": "uint8"
        }
      ],
      "name": "GameEnded",
      "type": "event"
    },
    {
      "anonymous": false,
      "inputs": [
        {
          "indexed": false,
          "internalType": "string",
          "name": "apiId",
          "type": "string"
        },
        {
          "indexed": false,
          "internalType": "enum BetSide",
          "name": "betSide",
          "type": "uint8"
        },
        {
          "indexed": false,
          "internalType": "enum BetType",
          "name": "betType",
          "type": "uint8"
        },
        {
          "indexed": false,
          "internalType": "uint8",
          "name": "selection",
          "type": "uint8"
        },
        {
          "indexed": false,
          "internalType": "uint16",
          "name": "odds",
          "type": "uint16"
        },
        {
          "indexed": false,
          "internalType": "uint256",
          "name": "amount",
          "type": "uint256"
        },
        {
          "indexed": false,
          "internalType": "address",
          "name": "from",
          "type": "address"
        }
      ],
      "name": "MatchedBetPlaced",
      "type": "event"
    },
    {
      "anonymous": false,
      "inputs": [
        {
          "indexed": true,
          "internalType": "address",
          "name": "previousOwner",
          "type": "address"
        },
        {
          "indexed": true,
          "internalType": "address",
          "name": "newOwner",
          "type": "address"
        }
      ],
      "name": "OwnershipTransferred",
      "type": "event"
    },
    {
      "anonymous": false,
      "inputs": [
        {
          "indexed": false,
          "internalType": "string",
          "name": "apiId",
          "type": "string"
        },
        {
          "indexed": false,
          "internalType": "enum BetSide",
          "name": "betSide",
          "type": "uint8"
        },
        {
          "indexed": false,
          "internalType": "enum BetType",
          "name": "betType",
          "type": "uint8"
        },
        {
          "indexed": false,
          "internalType": "uint8",
          "name": "selection",
          "type": "uint8"
        },
        {
          "indexed": false,
          "internalType": "uint16",
          "name": "odds",
          "type": "uint16"
        },
        {
          "indexed": false,
          "internalType": "uint256",
          "name": "amount",
          "type": "uint256"
        },
        {
          "indexed": false,
          "internalType": "address",
          "name": "from",
          "type": "address"
        }
      ],
      "name": "UnmatchedBetPlaced",
      "type": "event"
    },
    {
      "anonymous": false,
      "inputs": [
        {
          "indexed": false,
          "internalType": "string",
          "name": "apiId",
          "type": "string"
        },
        {
          "indexed": false,
          "internalType": "enum BetSide",
          "name": "betSide",
          "type": "uint8"
        },
        {
          "indexed": false,
          "internalType": "enum BetType",
          "name": "betType",
          "type": "uint8"
        },
        {
          "indexed": false,
          "internalType": "uint8",
          "name": "selection",
          "type": "uint8"
        },
        {
          "indexed": false,
          "internalType": "uint16",
          "name": "odds",
          "type": "uint16"
        },
        {
          "indexed": false,
          "internalType": "uint256",
          "name": "amount",
          "type": "uint256"
        },
        {
          "indexed": false,
          "internalType": "address",
          "name": "from",
          "type": "address"
        }
      ],
      "name": "UnmatchedBetRemoved",
      "type": "event"
    },
    {
      "anonymous": false,
      "inputs": [
        {
          "indexed": false,
          "internalType": "string",
          "name": "apiId",
          "type": "string"
        },
        {
          "indexed": false,
          "internalType": "enum BetSide",
          "name": "betSide",
          "type": "uint8"
        },
        {
          "indexed": false,
          "internalType": "enum BetType",
          "name": "betType",
          "type": "uint8"
        },
        {
          "indexed": false,
          "internalType": "uint8",
          "name": "selection",
          "type": "uint8"
        },
        {
          "indexed": false,
          "internalType": "uint16",
          "name": "odds",
          "type": "uint16"
        },
        {
          "indexed": false,
          "internalType": "uint256",
          "name": "amount",
          "type": "uint256"
        },
        {
          "indexed": false,
          "internalType": "address",
          "name": "from",
          "type": "address"
        }
      ],
      "name": "UnmatchedBetUpdated",
      "type": "event"
    },
    {
      "inputs": [],
      "name": "betNFT",
      "outputs": [
        {
          "internalType": "contract BetNFT",
          "name": "",
          "type": "address"
        }
      ],
      "stateMutability": "view",
      "type": "function"
    },
    {
      "inputs": [
        {
          "internalType": "bytes32",
          "name": "_bytes32",
          "type": "bytes32"
        }
      ],
      "name": "bytes32ToString",
      "outputs": [
        {
          "internalType": "string",
          "name": "",
          "type": "string"
        },
        {
          "internalType": "uint8",
          "name": "",
          "type": "uint8"
        }
      ],
      "stateMutability": "pure",
      "type": "function"
    },
    {
      "inputs": [
        {
          "internalType": "string",
          "name": "_objectId",
          "type": "string"
        },
        {
          "internalType": "enum BetType",
          "name": "_betType",
          "type": "uint8"
        },
        {
          "internalType": "uint8",
          "name": "_selection",
          "type": "uint8"
        },
        {
          "internalType": "uint16",
          "name": "_odds",
          "type": "uint16"
        },
        {
          "internalType": "uint256",
          "name": "_amount",
          "type": "uint256"
        }
      ],
      "name": "createBackBet",
      "outputs": [],
      "stateMutability": "payable",
      "type": "function"
    },
    {
      "inputs": [
        {
          "internalType": "string",
          "name": "_objectId",
          "type": "string"
        },
        {
          "internalType": "enum BetType",
          "name": "_betType",
          "type": "uint8"
        },
        {
          "internalType": "uint8",
          "name": "_selection",
          "type": "uint8"
        },
        {
          "internalType": "uint16",
          "name": "_odds",
          "type": "uint16"
        },
        {
          "internalType": "uint256",
          "name": "_amount",
          "type": "uint256"
        }
      ],
      "name": "createLayBet",
      "outputs": [],
      "stateMutability": "payable",
      "type": "function"
    },
    {
      "inputs": [
        {
          "internalType": "bytes32",
          "name": "_requestId",
          "type": "bytes32"
        },
        {
          "internalType": "bytes32",
          "name": "_data",
          "type": "bytes32"
        }
      ],
      "name": "fulfill",
      "outputs": [],
      "stateMutability": "nonpayable",
      "type": "function"
    },
    {
      "inputs": [
        {
          "internalType": "string",
          "name": "_objectId",
          "type": "string"
        },
        {
          "internalType": "enum BetSide",
          "name": "_betSide",
          "type": "uint8"
        },
        {
          "internalType": "uint8",
          "name": "_selection",
          "type": "uint8"
        }
      ],
      "name": "hasMatchWinnerWon",
      "outputs": [
        {
          "internalType": "bool",
          "name": "",
          "type": "bool"
        }
      ],
      "stateMutability": "view",
      "type": "function"
    },
    {
      "inputs": [],
      "name": "owner",
      "outputs": [
        {
          "internalType": "address",
          "name": "",
          "type": "address"
        }
      ],
      "stateMutability": "view",
      "type": "function"
    },
    {
      "inputs": [
        {
          "internalType": "string",
          "name": "_objectId",
          "type": "string"
        },
        {
          "internalType": "enum BetSide",
          "name": "_betSide",
          "type": "uint8"
        },
        {
          "internalType": "enum BetType",
          "name": "_betType",
          "type": "uint8"
        },
        {
          "internalType": "uint8",
          "name": "_selection",
          "type": "uint8"
        },
        {
          "internalType": "uint16",
          "name": "_odds",
          "type": "uint16"
        },
        {
          "internalType": "uint256",
          "name": "_amount",
          "type": "uint256"
        }
      ],
      "name": "removeUnmatchedBet",
      "outputs": [],
      "stateMutability": "nonpayable",
      "type": "function"
    },
    {
      "inputs": [],
      "name": "renounceOwnership",
      "outputs": [],
      "stateMutability": "nonpayable",
      "type": "function"
    },
    {
      "inputs": [
        {
          "internalType": "string",
          "name": "_objectId",
          "type": "string"
        }
      ],
      "name": "requestResult",
      "outputs": [
        {
          "internalType": "bytes32",
          "name": "requestId",
          "type": "bytes32"
        }
      ],
      "stateMutability": "nonpayable",
      "type": "function"
    },
    {
      "inputs": [
        {
          "internalType": "string",
          "name": "_objectId",
          "type": "string"
        },
        {
          "internalType": "enum BetSide",
          "name": "_betSide",
          "type": "uint8"
        },
        {
          "internalType": "enum BetType",
          "name": "_betType",
          "type": "uint8"
        },
        {
          "internalType": "uint8",
          "name": "_selection",
          "type": "uint8"
        },
        {
          "internalType": "uint16",
          "name": "_odds",
          "type": "uint16"
        },
        {
          "internalType": "string",
          "name": "_tokenURI",
          "type": "string"
        }
      ],
      "name": "transferBetToNFT",
      "outputs": [
        {
          "internalType": "uint256",
          "name": "",
          "type": "uint256"
        }
      ],
      "stateMutability": "nonpayable",
      "type": "function"
    },
    {
      "inputs": [
        {
          "internalType": "address",
          "name": "newOwner",
          "type": "address"
        }
      ],
      "name": "transferOwnership",
      "outputs": [],
      "stateMutability": "nonpayable",
      "type": "function"
    },
    {
      "inputs": [
        {
          "internalType": "string",
          "name": "_objectId",
          "type": "string"
        }
      ],
      "name": "withdraw",
      "outputs": [],
      "stateMutability": "nonpayable",
      "type": "function"
    },
    {
      "inputs": [
        {
          "internalType": "string",
          "name": "_objectId",
          "type": "string"
        },
        {
          "internalType": "uint256",
          "name": "tokenId",
          "type": "uint256"
        }
      ],
      "name": "withdrawWithNFT",
      "outputs": [],
      "stateMutability": "nonpayable",
      "type": "function"
    }
  ],
  "bytecode": "0x608060405260016005553480156200001657600080fd5b50604051620050513803806200505183398181016040528101906200003c9190620002e1565b6200005c620000506200015360201b60201c565b6200015b60201b60201c565b62000081730b9d5d9136855f6fec3c0993fee6e9ce8a2978466200021f60201b60201c565b73d5c4d9fe36d09e71940676b312d1500078e24c6a600760006101000a81548173ffffffffffffffffffffffffffffffffffffffff021916908373ffffffffffffffffffffffffffffffffffffffff1602179055507f6665653832636365323765633435633361663464326261306239653264643032600881905550662386f26fc1000060098190555080600a60006101000a81548173ffffffffffffffffffffffffffffffffffffffff021916908373ffffffffffffffffffffffffffffffffffffffff1602179055505062000313565b600033905090565b60008060009054906101000a900473ffffffffffffffffffffffffffffffffffffffff169050816000806101000a81548173ffffffffffffffffffffffffffffffffffffffff021916908373ffffffffffffffffffffffffffffffffffffffff1602179055508173ffffffffffffffffffffffffffffffffffffffff168173ffffffffffffffffffffffffffffffffffffffff167f8be0079c531659141344cd1fd0a4f28419497f9722a3daafe3b4186f6b6457e060405160405180910390a35050565b80600360006101000a81548173ffffffffffffffffffffffffffffffffffffffff021916908373ffffffffffffffffffffffffffffffffffffffff16021790555050565b600080fd5b600073ffffffffffffffffffffffffffffffffffffffff82169050919050565b6000620002958262000268565b9050919050565b6000620002a98262000288565b9050919050565b620002bb816200029c565b8114620002c757600080fd5b50565b600081519050620002db81620002b0565b92915050565b600060208284031215620002fa57620002f962000263565b5b60006200030a84828501620002ca565b91505092915050565b614d2e80620003236000396000f3fe6080604052600436106100dd5760003560e01c80639201de551161007f578063db3174ec11610059578063db3174ec1461028a578063e603c219146102c7578063f2fde38b146102e3578063f96cb2df1461030c576100dd565b80639201de55146101e6578063a9583d3214610224578063c80e476e14610261576100dd565b806331fb67c2116100bb57806331fb67c2146101505780636920f52b14610179578063715018a6146101a45780638da5cb5b146101bb576100dd565b8063042f2b65146100e2578063100a56c51461010b5780633195d58d14610127575b600080fd5b3480156100ee57600080fd5b5061010960048036038101906101049190613507565b610349565b005b6101256004803603810190610120919061367a565b61050c565b005b34801561013357600080fd5b5061014e60048036038101906101499190613714565b6106b3565b005b34801561015c57600080fd5b50610177600480360381019061017291906138b5565b61083b565b005b34801561018557600080fd5b5061018e610e19565b60405161019b919061397d565b60405180910390f35b3480156101b057600080fd5b506101b9610e3f565b005b3480156101c757600080fd5b506101d0610ec7565b6040516101dd91906139b9565b60405180910390f35b3480156101f257600080fd5b5061020d600480360381019061020891906139d4565b610ef0565b60405161021b929190613a98565b60405180910390f35b34801561023057600080fd5b5061024b600480360381019061024691906138b5565b61110d565b6040516102589190613ad7565b60405180910390f35b34801561026d57600080fd5b5061028860048036038101906102839190613b17565b611224565b005b34801561029657600080fd5b506102b160048036038101906102ac9190613bc6565b6115e3565b6040516102be9190613ca4565b60405180910390f35b6102e160048036038101906102dc919061367a565b611d8b565b005b3480156102ef57600080fd5b5061030a60048036038101906103059190613ceb565b611f5f565b005b34801561031857600080fd5b50610333600480360381019061032e9190613d18565b612057565b6040516103409190613da2565b60405180910390f35b816006600082815260200190815260200160002060009054906101000a900473ffffffffffffffffffffffffffffffffffffffff1673ffffffffffffffffffffffffffffffffffffffff163373ffffffffffffffffffffffffffffffffffffffff16146103eb576040517f08c379a00000000000000000000000000000000000000000000000000000000081526004016103e290613e2f565b60405180910390fd5b6006600082815260200190815260200160002060006101000a81549073ffffffffffffffffffffffffffffffffffffffff0219169055807f7cc135e0cebb02c3480ae5d74d377283180a2601f8f644edf7987b009316c63a60405160405180910390a260008061045a84610ef0565b915091508060128360405161046f9190613e8b565b908152602001604051809103902060006101000a81548160ff021916908360ff1602179055506001600b836040516104a79190613e8b565b908152602001604051809103902060006101000a81548160ff0219169083151502179055507f42be756ead965c57d99c68dd6dffc656fed9086b9d34c81364739614ad5222eb82826040516104fd929190613a98565b60405180910390a15050505050565b8585600b8282604051610520929190613ec7565b908152602001604051809103902060009054906101000a900460ff16156105805781816040517f1b21b921000000000000000000000000000000000000000000000000000000008152600401610577929190613f0d565b60405180910390fd5b34600081116105c657806040517fd59f5ff00000000000000000000000000000000000000000000000000000000081526004016105bd9190613ca4565b60405180910390fd5b8461ffff166103e8811161061157806040517fa0c5f30c0000000000000000000000000000000000000000000000000000000081526004016106089190613ca4565b60405180910390fd5b348514610653576040517f08c379a000000000000000000000000000000000000000000000000000000000815260040161064a90613fa3565b60405180910390fd5b6106a78a8a8080601f016020809104026020016040519081016040528093929190818152602001838380828437600081840152601f19601f8201169050808301925050505050505060008a8a8a8a33612160565b50505050505050505050565b6000601084846040516106c7929190613ec7565b9081526020016040518091039020600083815260200190815260200160002060009054906101000a900460ff169050600a60009054906101000a900473ffffffffffffffffffffffffffffffffffffffff1673ffffffffffffffffffffffffffffffffffffffff1663ac7aae4233846040518363ffffffff1660e01b8152600401610753929190613fc3565b600060405180830381600087803b15801561076d57600080fd5b505af1158015610781573d6000803e3d6000fd5b50505050806107c5576040517f08c379a00000000000000000000000000000000000000000000000000000000081526004016107bc90614038565b60405180910390fd5b61080033600f86866040516107db929190613ec7565b90815260200160405180910390206000858152602001908152602001600020546125a9565b600f8484604051610812929190613ec7565b908152602001604051809103902060008381526020019081526020016000206000905550505050565b6108436125f4565b73ffffffffffffffffffffffffffffffffffffffff16610861610ec7565b73ffffffffffffffffffffffffffffffffffffffff16146108b7576040517f08c379a00000000000000000000000000000000000000000000000000000000081526004016108ae906140a4565b60405180910390fd5b600080600190505b60048160ff161015610e1457600081905060006108de85600084612057565b9050600060011515821515146108f55760016108f8565b60005b90506000600d8760405161090c9190613e8b565b9081526020016040518091039020600083600181111561092f5761092e6140c4565b5b6001811115610941576109406140c4565b5b81526020019081526020016000206000876002811115610964576109636140c4565b5b6002811115610976576109756140c4565b5b815260200190815260200160002060008560ff1660ff168152602001908152602001600020805480602002602001604051908101604052809291908181526020016000905b82821015610a885783829060005260206000209060020201604051806080016040529081600082015481526020016001820160009054906101000a900461ffff1661ffff1661ffff1681526020016001820160029054906101000a900473ffffffffffffffffffffffffffffffffffffffff1673ffffffffffffffffffffffffffffffffffffffff1673ffffffffffffffffffffffffffffffffffffffff1681526020016001820160169054906101000a900460ff161515151581525050815260200190600101906109bb565b50505050905060005b8151811015610dfc57818181518110610aad57610aac6140f3565b5b60200260200101516060015115610b5a576000610b0a89858a89878781518110610ada57610ad96140f3565b5b602002602001015160200151888881518110610af957610af86140f3565b5b6020026020010151604001516125fc565b9050600160108a604051610b1e9190613e8b565b9081526020016040518091039020600083815260200190815260200160002060006101000a81548160ff02191690831515021790555050610de9565b610cb3828281518110610b7057610b6f6140f3565b5b602002602001015160400151600e8a604051610b8c9190613e8b565b90815260200160405180910390206000866001811115610baf57610bae6140c4565b5b6001811115610bc157610bc06140c4565b5b815260200190815260200160002060008a6002811115610be457610be36140c4565b5b6002811115610bf657610bf56140c4565b5b815260200190815260200160002060008860ff1660ff1681526020019081526020016000206000858581518110610c3057610c2f6140f3565b5b60200260200101516020015161ffff1661ffff1681526020019081526020016000206000858581518110610c6757610c666140f3565b5b60200260200101516040015173ffffffffffffffffffffffffffffffffffffffff1673ffffffffffffffffffffffffffffffffffffffff168152602001908152602001600020546125a9565b600e88604051610cc39190613e8b565b90815260200160405180910390206000846001811115610ce657610ce56140c4565b5b6001811115610cf857610cf76140c4565b5b81526020019081526020016000206000886002811115610d1b57610d1a6140c4565b5b6002811115610d2d57610d2c6140c4565b5b815260200190815260200160002060008660ff1660ff1681526020019081526020016000206000838381518110610d6757610d666140f3565b5b60200260200101516020015161ffff1661ffff1681526020019081526020016000206000838381518110610d9e57610d9d6140f3565b5b60200260200101516040015173ffffffffffffffffffffffffffffffffffffffff1673ffffffffffffffffffffffffffffffffffffffff168152602001908152602001600020600090555b8080610df490614151565b915050610a91565b50505050508080610e0c9061419a565b9150506108bf565b505050565b600a60009054906101000a900473ffffffffffffffffffffffffffffffffffffffff1681565b610e476125f4565b73ffffffffffffffffffffffffffffffffffffffff16610e65610ec7565b73ffffffffffffffffffffffffffffffffffffffff1614610ebb576040517f08c379a0000000000000000000000000000000000000000000000000000000008152600401610eb2906140a4565b60405180910390fd5b610ec56000612642565b565b60008060009054906101000a900473ffffffffffffffffffffffffffffffffffffffff16905090565b6060600080600090506000805b60208360ff16108015610f4f5750600060f81b868460ff1660208110610f2657610f256140f3565b5b1a60f81b7effffffffffffffffffffffffffffffffffffffffffffffffffffffffffffff191614155b15610f67578280610f5f9061419a565b935050610efd565b6000600184610f7691906141c4565b905060008160ff1667ffffffffffffffff811115610f9757610f9661378a565b5b6040519080825280601f01601f191660200182016040528015610fc95781602001600182028036833780820191505090505b509050600094505b60208560ff161080156110235750600060f81b888660ff1660208110610ffa57610ff96140f3565b5b1a60f81b7effffffffffffffffffffffffffffffffffffffffffffffffffffffffffffff191614155b156110f1578160ff168560ff16101561109657878560ff166020811061104c5761104b6140f3565b5b1a60f81b818660ff1681518110611066576110656140f3565b5b60200101907effffffffffffffffffffffffffffffffffffffffffffffffffffffffffffff1916908160001a9053505b6030888660ff16602081106110ae576110ad6140f3565b5b1a60f81b60f81c6110bf91906141c4565b93508360ff16600a846110d291906141f8565b6110dc9190614252565b925084806110e99061419a565b955050610fd1565b80600a846110ff91906142d7565b965096505050505050915091565b60006111176125f4565b73ffffffffffffffffffffffffffffffffffffffff16611135610ec7565b73ffffffffffffffffffffffffffffffffffffffff161461118b576040517f08c379a0000000000000000000000000000000000000000000000000000000008152600401611182906140a4565b60405180910390fd5b60006111a16008543063042f2b6560e01b612706565b90506111ed6040518060400160405280600981526020017f666978747572654964000000000000000000000000000000000000000000000081525084836127379092919063ffffffff16565b61121c600760009054906101000a900473ffffffffffffffffffffffffffffffffffffffff168260095461276a565b915050919050565b6000600c8888604051611238929190613ec7565b9081526020016040518091039020600087600181111561125b5761125a6140c4565b5b600181111561126d5761126c6140c4565b5b815260200190815260200160002060008660028111156112905761128f6140c4565b5b60028111156112a2576112a16140c4565b5b815260200190815260200160002060008560ff1660ff16815260200190815260200160002060008461ffff1661ffff168152602001908152602001600020805480602002602001604051908101604052809291908181526020016000905b828210156113925783829060005260206000209060020201604051806040016040529081600082015481526020016001820160009054906101000a900473ffffffffffffffffffffffffffffffffffffffff1673ffffffffffffffffffffffffffffffffffffffff1673ffffffffffffffffffffffffffffffffffffffff168152505081526020019060010190611300565b5050505090506000805b8251811015611597573373ffffffffffffffffffffffffffffffffffffffff168382815181106113cf576113ce6140f3565b5b60200260200101516020015173ffffffffffffffffffffffffffffffffffffffff1614801561141b57508383828151811061140d5761140c6140f3565b5b602002602001015160000151145b1561158457600191507f0ade976e65f3978aa3968af04901755321152ba32b08ee0175e035760c11c1b58a8a8a8a8a8a8a336040516114619897969594939291906143a7565b60405180910390a161147333856125a9565b600c8a8a604051611485929190613ec7565b908152602001604051809103902060008960018111156114a8576114a76140c4565b5b60018111156114ba576114b96140c4565b5b815260200190815260200160002060008860028111156114dd576114dc6140c4565b5b60028111156114ef576114ee6140c4565b5b815260200190815260200160002060008760ff1660ff16815260200190815260200160002060008661ffff1661ffff168152602001908152602001600020818154811061153f5761153e6140f3565b5b90600052602060002090600202016000808201600090556001820160006101000a81549073ffffffffffffffffffffffffffffffffffffffff02191690555050611597565b808061158f90614151565b91505061139c565b50806115d8576040517f08c379a00000000000000000000000000000000000000000000000000000000081526004016115cf9061446b565b60405180910390fd5b505050505050505050565b6000806000905060005b600d8b8b6040516115ff929190613ec7565b908152602001604051809103902060008a6001811115611622576116216140c4565b5b6001811115611634576116336140c4565b5b81526020019081526020016000206000896002811115611657576116566140c4565b5b6002811115611669576116686140c4565b5b815260200190815260200160002060008860ff1660ff1681526020019081526020016000208054905081101561198b573373ffffffffffffffffffffffffffffffffffffffff16600d8c8c6040516116c2929190613ec7565b908152602001604051809103902060008b60018111156116e5576116e46140c4565b5b60018111156116f7576116f66140c4565b5b815260200190815260200160002060008a600281111561171a576117196140c4565b5b600281111561172c5761172b6140c4565b5b815260200190815260200160002060008960ff1660ff1681526020019081526020016000208281548110611763576117626140f3565b5b906000526020600020906002020160010160029054906101000a900473ffffffffffffffffffffffffffffffffffffffff1673ffffffffffffffffffffffffffffffffffffffff1614801561189157508561ffff16600d8c8c6040516117ca929190613ec7565b908152602001604051809103902060008b60018111156117ed576117ec6140c4565b5b60018111156117ff576117fe6140c4565b5b815260200190815260200160002060008a6002811115611822576118216140c4565b5b6002811115611834576118336140c4565b5b815260200190815260200160002060008960ff1660ff168152602001908152602001600020828154811061186b5761186a6140f3565b5b906000526020600020906002020160010160009054906101000a900461ffff1661ffff16145b15611978576001600d8c8c6040516118aa929190613ec7565b908152602001604051809103902060008b60018111156118cd576118cc6140c4565b5b60018111156118df576118de6140c4565b5b815260200190815260200160002060008a6002811115611902576119016140c4565b5b6002811115611914576119136140c4565b5b815260200190815260200160002060008960ff1660ff168152602001908152602001600020828154811061194b5761194a6140f3565b5b906000526020600020906002020160010160166101000a81548160ff021916908315150217905550600191505b808061198390614151565b9150506115ed565b50806119cc576040517f08c379a00000000000000000000000000000000000000000000000000000000081526004016119c3906144d7565b60405180910390fd5b600060118b8b6040516119e0929190613ec7565b908152602001604051809103902054905060118b8b604051611a03929190613ec7565b90815260200160405180910390206000815480929190611a2290614151565b91905055506000611a7b8c8c8080601f016020809104026020016040519081016040528093929190818152602001838380828437600081840152601f19601f820116905080830192505050505050508b8b8b8b336125fc565b9050600a60009054906101000a900473ffffffffffffffffffffffffffffffffffffffff1673ffffffffffffffffffffffffffffffffffffffff1663e86f636733838f8f878c8c6040518863ffffffff1660e01b8152600401611ae497969594939291906144f7565b600060405180830381600087803b158015611afe57600080fd5b505af1158015611b12573d6000803e3d6000fd5b50505050600e8c8c604051611b28929190613ec7565b908152602001604051809103902060008b6001811115611b4b57611b4a6140c4565b5b6001811115611b5d57611b5c6140c4565b5b815260200190815260200160002060008a6002811115611b8057611b7f6140c4565b5b6002811115611b9257611b916140c4565b5b815260200190815260200160002060008960ff1660ff16815260200190815260200160002060008861ffff1661ffff16815260200190815260200160002060003373ffffffffffffffffffffffffffffffffffffffff1673ffffffffffffffffffffffffffffffffffffffff16815260200190815260200160002054600f8d8d604051611c20929190613ec7565b9081526020016040518091039020600083815260200190815260200160002081905550600e8c8c604051611c55929190613ec7565b908152602001604051809103902060008b6001811115611c7857611c776140c4565b5b6001811115611c8a57611c896140c4565b5b815260200190815260200160002060008a6002811115611cad57611cac6140c4565b5b6002811115611cbf57611cbe6140c4565b5b815260200190815260200160002060008960ff1660ff16815260200190815260200160002060008861ffff1661ffff16815260200190815260200160002060003373ffffffffffffffffffffffffffffffffffffffff1673ffffffffffffffffffffffffffffffffffffffff168152602001908152602001600020600090557f5089770ecce0ed387baf1e3b000fcc13bd3c2205d6205f06afeb547db5f2321e8c8c83604051611d719392919061455c565b60405180910390a180935050505098975050505050505050565b8585600b8282604051611d9f929190613ec7565b908152602001604051809103902060009054906101000a900460ff1615611dff5781816040517f1b21b921000000000000000000000000000000000000000000000000000000008152600401611df6929190613f0d565b60405180910390fd5b3460008111611e4557806040517fd59f5ff0000000000000000000000000000000000000000000000000000000008152600401611e3c9190613ca4565b60405180910390fd5b8461ffff166103e88111611e9057806040517fa0c5f30c000000000000000000000000000000000000000000000000000000008152600401611e879190613ca4565b60405180910390fd5b60006103e88088611ea1919061458e565b61ffff1687611eb091906141f8565b611eba91906145c2565b9050348114611efe576040517f08c379a0000000000000000000000000000000000000000000000000000000008152600401611ef590614665565b60405180910390fd5b611f528b8b8080601f016020809104026020016040519081016040528093929190818152602001838380828437600081840152601f19601f8201169050808301925050505050505060018b8b8b8b33612160565b5050505050505050505050565b611f676125f4565b73ffffffffffffffffffffffffffffffffffffffff16611f85610ec7565b73ffffffffffffffffffffffffffffffffffffffff1614611fdb576040517f08c379a0000000000000000000000000000000000000000000000000000000008152600401611fd2906140a4565b60405180910390fd5b600073ffffffffffffffffffffffffffffffffffffffff168173ffffffffffffffffffffffffffffffffffffffff16141561204b576040517f08c379a0000000000000000000000000000000000000000000000000000000008152600401612042906146f7565b60405180910390fd5b61205481612642565b50565b60008060128560405161206a9190613e8b565b908152602001604051809103902060009054906101000a900460ff16905060008160ff1614156120cf576040517f08c379a00000000000000000000000000000000000000000000000000000000081526004016120c690614763565b60405180910390fd5b60008360ff168260ff1614801561210a5750600060018111156120f5576120f46140c4565b5b856001811115612108576121076140c4565b5b145b8061214a57508360ff168260ff16141580156121495750600180811115612134576121336140c4565b5b856001811115612147576121466140c4565b5b145b5b1561215457600190505b80925050509392505050565b6000866001811115612175576121746140c4565b5b60006001811115612189576121886140c4565b5b14612195576000612198565b60015b90506000600c896040516121ac9190613e8b565b908152602001604051809103902060008360018111156121cf576121ce6140c4565b5b60018111156121e1576121e06140c4565b5b81526020019081526020016000206000886002811115612204576122036140c4565b5b6002811115612216576122156140c4565b5b815260200190815260200160002060008760ff1660ff16815260200190815260200160002060008661ffff1661ffff168152602001908152602001600020805480602002602001604051908101604052809291908181526020016000905b828210156123065783829060005260206000209060020201604051806040016040529081600082015481526020016001820160009054906101000a900473ffffffffffffffffffffffffffffffffffffffff1673ffffffffffffffffffffffffffffffffffffffff1673ffffffffffffffffffffffffffffffffffffffff168152505081526020019060010190612274565b50505050905060008151141561232c576123258989898989898961278a565b50506125a0565b600084905060005b8251811015612572576000838281518110612352576123516140f3565b5b60200260200101516000015183111561239957838281518110612378576123776140f3565b5b602002602001015160000151905080836123929190614783565b92506123ab565b82905080836123a89190614783565b92505b6123d88c868c8c8c868a89815181106123c7576123c66140f3565b5b602002602001015160200151612935565b8382815181106123eb576123ea6140f3565b5b602002602001015160000151811415612489577f0ade976e65f3978aa3968af04901755321152ba32b08ee0175e035760c11c1b58c868c8c8c868a8981518110612438576124376140f3565b5b60200260200101516020015160405161245797969594939291906147b7565b60405180910390a1838281518110612472576124716140f3565b5b60200260200101612481613406565b81525061253c565b8084838151811061249d5761249c6140f3565b5b60200260200101516000018181516124b59190614783565b915081815250507f3f3925f6afe1ab09977ba289dc98c6334b2773372c1f7eaf605cedb85c643f018c868c8c8c8988815181106124f5576124f46140f3565b5b6020026020010151600001518a8981518110612514576125136140f3565b5b60200260200101516020015160405161253397969594939291906147b7565b60405180910390a15b600083141561255e576125548c8c8c8c8c8c8c612935565b50505050506125a0565b50808061256a90614151565b915050612334565b5061258d8a8a8a8a8a868b6125879190614783565b8a612935565b61259c8a8a8a8a8a868a61278a565b5050505b50505050505050565b8173ffffffffffffffffffffffffffffffffffffffff166108fc829081150290604051600060405180830381858888f193505050501580156125ef573d6000803e3d6000fd5b505050565b600033905090565b6000610fff87838888888860405160200161261c9695949392919061482d565b6040516020818303038152906040528051906020012060001c1690509695505050505050565b60008060009054906101000a900473ffffffffffffffffffffffffffffffffffffffff169050816000806101000a81548173ffffffffffffffffffffffffffffffffffffffff021916908373ffffffffffffffffffffffffffffffffffffffff1602179055508173ffffffffffffffffffffffffffffffffffffffff168173ffffffffffffffffffffffffffffffffffffffff167f8be0079c531659141344cd1fd0a4f28419497f9722a3daafe3b4186f6b6457e060405160405180910390a35050565b61270e613436565b612716613436565b61272d85858584612c87909392919063ffffffff16565b9150509392505050565b61274e828460800151612d3790919063ffffffff16565b612765818460800151612d3790919063ffffffff16565b505050565b60006127818484846001634042994660e01b612d5c565b90509392505050565b600c8760405161279a9190613e8b565b908152602001604051809103902060008760018111156127bd576127bc6140c4565b5b60018111156127cf576127ce6140c4565b5b815260200190815260200160002060008660028111156127f2576127f16140c4565b5b6002811115612804576128036140c4565b5b815260200190815260200160002060008560ff1660ff16815260200190815260200160002060008461ffff1661ffff16815260200190815260200160002060405180604001604052808481526020018373ffffffffffffffffffffffffffffffffffffffff1681525090806001815401808255809150506001900390600052602060002090600202016000909190919091506000820151816000015560208201518160010160006101000a81548173ffffffffffffffffffffffffffffffffffffffff021916908373ffffffffffffffffffffffffffffffffffffffff16021790555050507fd9ead39440c1245780b4d6d60aa95d35bbac48e0d9cdf2b29e0e33f5e75aedbe8787878787878760405161292497969594939291906147b7565b60405180910390a150505050505050565b60008290506000600181111561294e5761294d6140c4565b5b876001811115612961576129606140c4565b5b1415612992576103e88085612976919061458e565b61ffff168461298591906141f8565b61298f91906145c2565b90505b80600e896040516129a39190613e8b565b908152602001604051809103902060008960018111156129c6576129c56140c4565b5b60018111156129d8576129d76140c4565b5b815260200190815260200160002060008860028111156129fb576129fa6140c4565b5b6002811115612a0d57612a0c6140c4565b5b815260200190815260200160002060008760ff1660ff16815260200190815260200160002060008661ffff1661ffff16815260200190815260200160002060008473ffffffffffffffffffffffffffffffffffffffff1673ffffffffffffffffffffffffffffffffffffffff1681526020019081526020016000206000828254612a979190614252565b92505081905550600d88604051612aae9190613e8b565b90815260200160405180910390206000886001811115612ad157612ad06140c4565b5b6001811115612ae357612ae26140c4565b5b81526020019081526020016000206000876002811115612b0657612b056140c4565b5b6002811115612b1857612b176140c4565b5b815260200190815260200160002060008660ff1660ff16815260200190815260200160002060405180608001604052808581526020018661ffff1681526020018473ffffffffffffffffffffffffffffffffffffffff1681526020016000151581525090806001815401808255809150506001900390600052602060002090600202016000909190919091506000820151816000015560208201518160010160006101000a81548161ffff021916908361ffff16021790555060408201518160010160026101000a81548173ffffffffffffffffffffffffffffffffffffffff021916908373ffffffffffffffffffffffffffffffffffffffff16021790555060608201518160010160166101000a81548160ff02191690831515021790555050507f0fca364a96d7ed643a08a7b3f2be55b7e2993632ce10f4c978dc379198544f7d88888888888888604051612c7597969594939291906147b7565b60405180910390a15050505050505050565b612c8f613436565b612c9f8560800151610100612fc4565b508385600001818152505082856020019073ffffffffffffffffffffffffffffffffffffffff16908173ffffffffffffffffffffffffffffffffffffffff16815250508185604001907bffffffffffffffffffffffffffffffffffffffffffffffffffffffff191690817bffffffffffffffffffffffffffffffffffffffffffffffffffffffff191681525050849050949350505050565b612d44826003835161302e565b612d57818361317390919063ffffffff16565b505050565b600030600554604051602001612d73929190614910565b604051602081830303815290604052805190602001209050600554856060018181525050856006600083815260200190815260200160002060006101000a81548173ffffffffffffffffffffffffffffffffffffffff021916908373ffffffffffffffffffffffffffffffffffffffff160217905550807fb5e6e01e79f91267dc17b4e6314d5d4d03593d2ceee0fbb452b750bd70ea5af960405160405180910390a2600082600080886000015189602001518a604001518b606001518a8d6080015160000151604051602401612e519897969594939291906149cc565b604051602081830303815290604052907bffffffffffffffffffffffffffffffffffffffffffffffffffffffff19166020820180517bffffffffffffffffffffffffffffffffffffffffffffffffffffffff83818316178352505050509050600360009054906101000a900473ffffffffffffffffffffffffffffffffffffffff1673ffffffffffffffffffffffffffffffffffffffff16634000aea08887846040518463ffffffff1660e01b8152600401612f0f93929190614a51565b602060405180830381600087803b158015612f2957600080fd5b505af1158015612f3d573d6000803e3d6000fd5b505050506040513d601f19601f82011682018060405250810190612f619190614abb565b612fa0576040517f08c379a0000000000000000000000000000000000000000000000000000000008152600401612f9790614b5a565b60405180910390fd5b600160056000828254612fb39190614252565b925050819055505095945050505050565b612fcc6134a3565b6000602083612fdb91906142d7565b1461300757602082612fed91906142d7565b6020612ff99190614783565b826130049190614252565b91505b81836020018181525050604051808452600081528281016020016040525082905092915050565b6017811161305b576130558160058460ff16901b60ff16178461319590919063ffffffff16565b5061316e565b60ff811161309d57613080601860058460ff16901b178461319590919063ffffffff16565b50613097816001856131b59092919063ffffffff16565b5061316d565b61ffff81116130e0576130c3601960058460ff16901b178461319590919063ffffffff16565b506130da816002856131b59092919063ffffffff16565b5061316c565b63ffffffff811161312557613108601a60058460ff16901b178461319590919063ffffffff16565b5061311f816004856131b59092919063ffffffff16565b5061316b565b67ffffffffffffffff811161316a57613151601b60058460ff16901b178461319590919063ffffffff16565b50613168816008856131b59092919063ffffffff16565b505b5b5b5b5b505050565b61317b6134a3565b61318d838460000151518485516131d7565b905092915050565b61319d6134a3565b6131ad83846000015151846132e1565b905092915050565b6131bd6134a3565b6131ce848560000151518585613338565b90509392505050565b6131df6134a3565b82518211156131ed57600080fd5b846020015182856131fe9190614252565b1115613233576132328560026132238860200151888761321e9190614252565b6133c6565b61322d91906141f8565b6133e2565b5b6000808651805187602083010193508088870111156132525787860182525b60208701925050505b6020841061329957805182526020826132749190614252565b91506020816132839190614252565b90506020846132929190614783565b935061325b565b600060018560206132aa9190614783565b6101006132b79190614cad565b6132c19190614783565b905080198251168184511681811785525050879350505050949350505050565b6132e96134a3565b8360200151831061330f5761330e846002866020015161330991906141f8565b6133e2565b5b835180516020858301018481538186141561332b576001820183525b5050508390509392505050565b6133406134a3565b846020015184836133519190614252565b11156133795761337885600286856133699190614252565b61337391906141f8565b6133e2565b5b600060018361010061338b9190614cad565b6133959190614783565b905085518386820101858319825116178152815185880111156133b85784870182525b505085915050949350505050565b6000818311156133d8578290506133dc565b8190505b92915050565b6000826000015190506133f58383612fc4565b506134008382613173565b50505050565b604051806040016040528060008152602001600073ffffffffffffffffffffffffffffffffffffffff1681525090565b6040518060a0016040528060008019168152602001600073ffffffffffffffffffffffffffffffffffffffff16815260200160007bffffffffffffffffffffffffffffffffffffffffffffffffffffffff191681526020016000815260200161349d6134a3565b81525090565b604051806040016040528060608152602001600081525090565b6000604051905090565b600080fd5b600080fd5b6000819050919050565b6134e4816134d1565b81146134ef57600080fd5b50565b600081359050613501816134db565b92915050565b6000806040838503121561351e5761351d6134c7565b5b600061352c858286016134f2565b925050602061353d858286016134f2565b9150509250929050565b600080fd5b600080fd5b600080fd5b60008083601f84011261356c5761356b613547565b5b8235905067ffffffffffffffff8111156135895761358861354c565b5b6020830191508360018202830111156135a5576135a4613551565b5b9250929050565b600381106135b957600080fd5b50565b6000813590506135cb816135ac565b92915050565b600060ff82169050919050565b6135e7816135d1565b81146135f257600080fd5b50565b600081359050613604816135de565b92915050565b600061ffff82169050919050565b6136218161360a565b811461362c57600080fd5b50565b60008135905061363e81613618565b92915050565b6000819050919050565b61365781613644565b811461366257600080fd5b50565b6000813590506136748161364e565b92915050565b60008060008060008060a08789031215613697576136966134c7565b5b600087013567ffffffffffffffff8111156136b5576136b46134cc565b5b6136c189828a01613556565b965096505060206136d489828a016135bc565b94505060406136e589828a016135f5565b93505060606136f689828a0161362f565b925050608061370789828a01613665565b9150509295509295509295565b60008060006040848603121561372d5761372c6134c7565b5b600084013567ffffffffffffffff81111561374b5761374a6134cc565b5b61375786828701613556565b9350935050602061376a86828701613665565b9150509250925092565b600080fd5b6000601f19601f8301169050919050565b7f4e487b7100000000000000000000000000000000000000000000000000000000600052604160045260246000fd5b6137c282613779565b810181811067ffffffffffffffff821117156137e1576137e061378a565b5b80604052505050565b60006137f46134bd565b905061380082826137b9565b919050565b600067ffffffffffffffff8211156138205761381f61378a565b5b61382982613779565b9050602081019050919050565b82818337600083830152505050565b600061385861385384613805565b6137ea565b90508281526020810184848401111561387457613873613774565b5b61387f848285613836565b509392505050565b600082601f83011261389c5761389b613547565b5b81356138ac848260208601613845565b91505092915050565b6000602082840312156138cb576138ca6134c7565b5b600082013567ffffffffffffffff8111156138e9576138e86134cc565b5b6138f584828501613887565b91505092915050565b600073ffffffffffffffffffffffffffffffffffffffff82169050919050565b6000819050919050565b600061394361393e613939846138fe565b61391e565b6138fe565b9050919050565b600061395582613928565b9050919050565b60006139678261394a565b9050919050565b6139778161395c565b82525050565b6000602082019050613992600083018461396e565b92915050565b60006139a3826138fe565b9050919050565b6139b381613998565b82525050565b60006020820190506139ce60008301846139aa565b92915050565b6000602082840312156139ea576139e96134c7565b5b60006139f8848285016134f2565b91505092915050565b600081519050919050565b600082825260208201905092915050565b60005b83811015613a3b578082015181840152602081019050613a20565b83811115613a4a576000848401525b50505050565b6000613a5b82613a01565b613a658185613a0c565b9350613a75818560208601613a1d565b613a7e81613779565b840191505092915050565b613a92816135d1565b82525050565b60006040820190508181036000830152613ab28185613a50565b9050613ac16020830184613a89565b9392505050565b613ad1816134d1565b82525050565b6000602082019050613aec6000830184613ac8565b92915050565b60028110613aff57600080fd5b50565b600081359050613b1181613af2565b92915050565b600080600080600080600060c0888a031215613b3657613b356134c7565b5b600088013567ffffffffffffffff811115613b5457613b536134cc565b5b613b608a828b01613556565b97509750506020613b738a828b01613b02565b9550506040613b848a828b016135bc565b9450506060613b958a828b016135f5565b9350506080613ba68a828b0161362f565b92505060a0613bb78a828b01613665565b91505092959891949750929550565b60008060008060008060008060c0898b031215613be657613be56134c7565b5b600089013567ffffffffffffffff811115613c0457613c036134cc565b5b613c108b828c01613556565b98509850506020613c238b828c01613b02565b9650506040613c348b828c016135bc565b9550506060613c458b828c016135f5565b9450506080613c568b828c0161362f565b93505060a089013567ffffffffffffffff811115613c7757613c766134cc565b5b613c838b828c01613556565b92509250509295985092959890939650565b613c9e81613644565b82525050565b6000602082019050613cb96000830184613c95565b92915050565b613cc881613998565b8114613cd357600080fd5b50565b600081359050613ce581613cbf565b92915050565b600060208284031215613d0157613d006134c7565b5b6000613d0f84828501613cd6565b91505092915050565b600080600060608486031215613d3157613d306134c7565b5b600084013567ffffffffffffffff811115613d4f57613d4e6134cc565b5b613d5b86828701613887565b9350506020613d6c86828701613b02565b9250506040613d7d868287016135f5565b9150509250925092565b60008115159050919050565b613d9c81613d87565b82525050565b6000602082019050613db76000830184613d93565b92915050565b7f536f75726365206d75737420626520746865206f7261636c65206f662074686560008201527f2072657175657374000000000000000000000000000000000000000000000000602082015250565b6000613e19602883613a0c565b9150613e2482613dbd565b604082019050919050565b60006020820190508181036000830152613e4881613e0c565b9050919050565b600081905092915050565b6000613e6582613a01565b613e6f8185613e4f565b9350613e7f818560208601613a1d565b80840191505092915050565b6000613e978284613e5a565b915081905092915050565b6000613eae8385613e4f565b9350613ebb838584613836565b82840190509392505050565b6000613ed4828486613ea2565b91508190509392505050565b6000613eec8385613a0c565b9350613ef9838584613836565b613f0283613779565b840190509392505050565b60006020820190508181036000830152613f28818486613ee0565b90509392505050565b7f416d6f756e7420616e642073656e642076616c756520617265206e6f7420657160008201527f75616c2100000000000000000000000000000000000000000000000000000000602082015250565b6000613f8d602483613a0c565b9150613f9882613f31565b604082019050919050565b60006020820190508181036000830152613fbc81613f80565b9050919050565b6000604082019050613fd860008301856139aa565b613fe56020830184613c95565b9392505050565b7f426574206c6f7374000000000000000000000000000000000000000000000000600082015250565b6000614022600883613a0c565b915061402d82613fec565b602082019050919050565b6000602082019050818103600083015261405181614015565b9050919050565b7f4f776e61626c653a2063616c6c6572206973206e6f7420746865206f776e6572600082015250565b600061408e602083613a0c565b915061409982614058565b602082019050919050565b600060208201905081810360008301526140bd81614081565b9050919050565b7f4e487b7100000000000000000000000000000000000000000000000000000000600052602160045260246000fd5b7f4e487b7100000000000000000000000000000000000000000000000000000000600052603260045260246000fd5b7f4e487b7100000000000000000000000000000000000000000000000000000000600052601160045260246000fd5b600061415c82613644565b91507fffffffffffffffffffffffffffffffffffffffffffffffffffffffffffffffff82141561418f5761418e614122565b5b600182019050919050565b60006141a5826135d1565b915060ff8214156141b9576141b8614122565b5b600182019050919050565b60006141cf826135d1565b91506141da836135d1565b9250828210156141ed576141ec614122565b5b828203905092915050565b600061420382613644565b915061420e83613644565b9250817fffffffffffffffffffffffffffffffffffffffffffffffffffffffffffffffff048311821515161561424757614246614122565b5b828202905092915050565b600061425d82613644565b915061426883613644565b9250827fffffffffffffffffffffffffffffffffffffffffffffffffffffffffffffffff0382111561429d5761429c614122565b5b828201905092915050565b7f4e487b7100000000000000000000000000000000000000000000000000000000600052601260045260246000fd5b60006142e282613644565b91506142ed83613644565b9250826142fd576142fc6142a8565b5b828206905092915050565b60028110614319576143186140c4565b5b50565b600081905061432a82614308565b919050565b600061433a8261431c565b9050919050565b61434a8161432f565b82525050565b60038110614361576143606140c4565b5b50565b600081905061437282614350565b919050565b600061438282614364565b9050919050565b61439281614377565b82525050565b6143a18161360a565b82525050565b600060e08201905081810360008301526143c2818a8c613ee0565b90506143d16020830189614341565b6143de6040830188614389565b6143eb6060830187613a89565b6143f86080830186614398565b61440560a0830185613c95565b61441260c08301846139aa565b9998505050505050505050565b7f4e6f204265740000000000000000000000000000000000000000000000000000600082015250565b6000614455600683613a0c565b91506144608261441f565b602082019050919050565b6000602082019050818103600083015261448481614448565b9050919050565b7f4e6f204d61746368656420426574000000000000000000000000000000000000600082015250565b60006144c1600e83613a0c565b91506144cc8261448b565b602082019050919050565b600060208201905081810360008301526144f0816144b4565b9050919050565b600060a08201905061450c600083018a6139aa565b6145196020830189613c95565b818103604083015261452c818789613ee0565b905061453b6060830186613c95565b818103608083015261454e818486613ee0565b905098975050505050505050565b60006040820190508181036000830152614577818587613ee0565b90506145866020830184613c95565b949350505050565b60006145998261360a565b91506145a48361360a565b9250828210156145b7576145b6614122565b5b828203905092915050565b60006145cd82613644565b91506145d883613644565b9250826145e8576145e76142a8565b5b828204905092915050565b7f4c6971696469747920616e642073656e642076616c756520617265206e6f742060008201527f657175616c210000000000000000000000000000000000000000000000000000602082015250565b600061464f602683613a0c565b915061465a826145f3565b604082019050919050565b6000602082019050818103600083015261467e81614642565b9050919050565b7f4f776e61626c653a206e6577206f776e657220697320746865207a65726f206160008201527f6464726573730000000000000000000000000000000000000000000000000000602082015250565b60006146e1602683613a0c565b91506146ec82614685565b604082019050919050565b60006020820190508181036000830152614710816146d4565b9050919050565b7f4e6f20726573756c740000000000000000000000000000000000000000000000600082015250565b600061474d600983613a0c565b915061475882614717565b602082019050919050565b6000602082019050818103600083015261477c81614740565b9050919050565b600061478e82613644565b915061479983613644565b9250828210156147ac576147ab614122565b5b828203905092915050565b600060e08201905081810360008301526147d1818a613a50565b90506147e06020830189614341565b6147ed6040830188614389565b6147fa6060830187613a89565b6148076080830186614398565b61481460a0830185613c95565b61482160c08301846139aa565b98975050505050505050565b600060c08201905081810360008301526148478189613a50565b905061485660208301886139aa565b6148636040830187614341565b6148706060830186614389565b61487d6080830185613a89565b61488a60a0830184614398565b979650505050505050565b60006148a08261394a565b9050919050565b60008160601b9050919050565b60006148bf826148a7565b9050919050565b60006148d1826148b4565b9050919050565b6148e96148e482614895565b6148c6565b82525050565b6000819050919050565b61490a61490582613644565b6148ef565b82525050565b600061491c82856148d8565b60148201915061492c82846148f9565b6020820191508190509392505050565b60007fffffffff0000000000000000000000000000000000000000000000000000000082169050919050565b6149718161493c565b82525050565b600081519050919050565b600082825260208201905092915050565b600061499e82614977565b6149a88185614982565b93506149b8818560208601613a1d565b6149c181613779565b840191505092915050565b6000610100820190506149e2600083018b6139aa565b6149ef602083018a613c95565b6149fc6040830189613ac8565b614a0960608301886139aa565b614a166080830187614968565b614a2360a0830186613c95565b614a3060c0830185613c95565b81810360e0830152614a428184614993565b90509998505050505050505050565b6000606082019050614a6660008301866139aa565b614a736020830185613c95565b8181036040830152614a858184614993565b9050949350505050565b614a9881613d87565b8114614aa357600080fd5b50565b600081519050614ab581614a8f565b92915050565b600060208284031215614ad157614ad06134c7565b5b6000614adf84828501614aa6565b91505092915050565b7f756e61626c6520746f207472616e73666572416e6443616c6c20746f206f726160008201527f636c650000000000000000000000000000000000000000000000000000000000602082015250565b6000614b44602383613a0c565b9150614b4f82614ae8565b604082019050919050565b60006020820190508181036000830152614b7381614b37565b9050919050565b60008160011c9050919050565b6000808291508390505b6001851115614bd157808604811115614bad57614bac614122565b5b6001851615614bbc5780820291505b8081029050614bca85614b7a565b9450614b91565b94509492505050565b600082614bea5760019050614ca6565b81614bf85760009050614ca6565b8160018114614c0e5760028114614c1857614c47565b6001915050614ca6565b60ff841115614c2a57614c29614122565b5b8360020a915084821115614c4157614c40614122565b5b50614ca6565b5060208310610133831016604e8410600b8410161715614c7c5782820a905083811115614c7757614c76614122565b5b614ca6565b614c898484846001614b87565b92509050818404811115614ca057614c9f614122565b5b81810290505b9392505050565b6000614cb882613644565b9150614cc383613644565b9250614cf07fffffffffffffffffffffffffffffffffffffffffffffffffffffffffffffffff8484614bda565b90509291505056fea26469706673582212200fd770baaa8bc46ed80f8570ca77b11164bf90910f8a200e2caacb4b5d2b5ef364736f6c63430008090033",
  "linkReferences": {},
  "deployedLinkReferences": {}
}