{
  "_format": "hh-sol-artifact-1",
  "contractName": "BettingAIO",
  "sourceName": "contracts/BettingAIO.sol",
  "abi": [
    {
      "inputs": [
        {
          "internalType": "contract BetNFT",
          "name": "_betNFT",
          "type": "address"
        }
      ],
      "stateMutability": "nonpayable",
      "type": "constructor"
    },
    {
      "inputs": [
        {
          "internalType": "uint256",
          "name": "amount",
          "type": "uint256"
        }
      ],
      "name": "AmountToLow",
      "type": "error"
    },
    {
      "inputs": [
        {
          "internalType": "string",
          "name": "apiId",
          "type": "string"
        }
      ],
      "name": "GameAlreadyEnded",
      "type": "error"
    },
    {
      "inputs": [
        {
          "internalType": "uint256",
          "name": "odds",
          "type": "uint256"
        }
      ],
      "name": "OddsToLow",
      "type": "error"
    },
    {
      "anonymous": false,
      "inputs": [
        {
          "indexed": false,
          "internalType": "string",
          "name": "apiId",
          "type": "string"
        },
        {
          "indexed": false,
          "internalType": "uint256",
          "name": "tokenId",
          "type": "uint256"
        }
      ],
      "name": "BetConverted",
      "type": "event"
    },
    {
      "anonymous": false,
      "inputs": [
        {
          "indexed": true,
          "internalType": "bytes32",
          "name": "id",
          "type": "bytes32"
        }
      ],
      "name": "ChainlinkCancelled",
      "type": "event"
    },
    {
      "anonymous": false,
      "inputs": [
        {
          "indexed": true,
          "internalType": "bytes32",
          "name": "id",
          "type": "bytes32"
        }
      ],
      "name": "ChainlinkFulfilled",
      "type": "event"
    },
    {
      "anonymous": false,
      "inputs": [
        {
          "indexed": true,
          "internalType": "bytes32",
          "name": "id",
          "type": "bytes32"
        }
      ],
      "name": "ChainlinkRequested",
      "type": "event"
    },
    {
      "anonymous": false,
      "inputs": [
        {
          "indexed": false,
          "internalType": "string",
          "name": "apiId",
          "type": "string"
        },
        {
          "indexed": false,
          "internalType": "enum BettingAIO.BetSide",
          "name": "betSide",
          "type": "uint8"
        },
        {
          "indexed": false,
          "internalType": "enum BettingAIO.BetType",
          "name": "betType",
          "type": "uint8"
        },
        {
          "indexed": false,
          "internalType": "uint8",
          "name": "selection",
          "type": "uint8"
        },
        {
          "indexed": false,
          "internalType": "uint16",
          "name": "odds",
          "type": "uint16"
        },
        {
          "indexed": false,
          "internalType": "uint256",
          "name": "amount",
          "type": "uint256"
        },
        {
          "indexed": false,
          "internalType": "address",
          "name": "from",
          "type": "address"
        }
      ],
      "name": "MatchedBetPlaced",
      "type": "event"
    },
    {
      "anonymous": false,
      "inputs": [
        {
          "indexed": true,
          "internalType": "address",
          "name": "previousOwner",
          "type": "address"
        },
        {
          "indexed": true,
          "internalType": "address",
          "name": "newOwner",
          "type": "address"
        }
      ],
      "name": "OwnershipTransferred",
      "type": "event"
    },
    {
      "anonymous": false,
      "inputs": [
        {
          "indexed": false,
          "internalType": "string",
          "name": "apiId",
          "type": "string"
        },
        {
          "indexed": false,
          "internalType": "enum BettingAIO.BetSide",
          "name": "betSide",
          "type": "uint8"
        },
        {
          "indexed": false,
          "internalType": "enum BettingAIO.BetType",
          "name": "betType",
          "type": "uint8"
        },
        {
          "indexed": false,
          "internalType": "uint8",
          "name": "selection",
          "type": "uint8"
        },
        {
          "indexed": false,
          "internalType": "uint16",
          "name": "odds",
          "type": "uint16"
        },
        {
          "indexed": false,
          "internalType": "uint256",
          "name": "amount",
          "type": "uint256"
        },
        {
          "indexed": false,
          "internalType": "address",
          "name": "from",
          "type": "address"
        }
      ],
      "name": "UnmatchedBetPlaced",
      "type": "event"
    },
    {
      "anonymous": false,
      "inputs": [
        {
          "indexed": false,
          "internalType": "string",
          "name": "apiId",
          "type": "string"
        },
        {
          "indexed": false,
          "internalType": "enum BettingAIO.BetSide",
          "name": "betSide",
          "type": "uint8"
        },
        {
          "indexed": false,
          "internalType": "enum BettingAIO.BetType",
          "name": "betType",
          "type": "uint8"
        },
        {
          "indexed": false,
          "internalType": "uint8",
          "name": "selection",
          "type": "uint8"
        },
        {
          "indexed": false,
          "internalType": "uint16",
          "name": "odds",
          "type": "uint16"
        },
        {
          "indexed": false,
          "internalType": "uint256",
          "name": "amount",
          "type": "uint256"
        },
        {
          "indexed": false,
          "internalType": "address",
          "name": "from",
          "type": "address"
        }
      ],
      "name": "UnmatchedBetRemoved",
      "type": "event"
    },
    {
      "anonymous": false,
      "inputs": [
        {
          "indexed": false,
          "internalType": "string",
          "name": "apiId",
          "type": "string"
        },
        {
          "indexed": false,
          "internalType": "enum BettingAIO.BetSide",
          "name": "betSide",
          "type": "uint8"
        },
        {
          "indexed": false,
          "internalType": "enum BettingAIO.BetType",
          "name": "betType",
          "type": "uint8"
        },
        {
          "indexed": false,
          "internalType": "uint8",
          "name": "selection",
          "type": "uint8"
        },
        {
          "indexed": false,
          "internalType": "uint16",
          "name": "odds",
          "type": "uint16"
        },
        {
          "indexed": false,
          "internalType": "uint256",
          "name": "amount",
          "type": "uint256"
        },
        {
          "indexed": false,
          "internalType": "address",
          "name": "from",
          "type": "address"
        }
      ],
      "name": "UnmatchedBetUpdated",
      "type": "event"
    },
    {
      "inputs": [],
      "name": "betNFT",
      "outputs": [
        {
          "internalType": "contract BetNFT",
          "name": "",
          "type": "address"
        }
      ],
      "stateMutability": "view",
      "type": "function"
    },
    {
      "inputs": [
        {
          "internalType": "bytes32",
          "name": "_bytes32",
          "type": "bytes32"
        }
      ],
      "name": "bytes32ToString",
      "outputs": [
        {
          "internalType": "string",
          "name": "",
          "type": "string"
        },
        {
          "internalType": "uint8",
          "name": "",
          "type": "uint8"
        }
      ],
      "stateMutability": "pure",
      "type": "function"
    },
    {
      "inputs": [
        {
          "internalType": "string",
          "name": "_objectId",
          "type": "string"
        },
        {
          "internalType": "enum BettingAIO.BetType",
          "name": "_betType",
          "type": "uint8"
        },
        {
          "internalType": "uint8",
          "name": "_selection",
          "type": "uint8"
        },
        {
          "internalType": "uint16",
          "name": "_odds",
          "type": "uint16"
        },
        {
          "internalType": "uint256",
          "name": "_amount",
          "type": "uint256"
        }
      ],
      "name": "createBackBet",
      "outputs": [],
      "stateMutability": "payable",
      "type": "function"
    },
    {
      "inputs": [
        {
          "internalType": "string",
          "name": "_objectId",
          "type": "string"
        },
        {
          "internalType": "enum BettingAIO.BetType",
          "name": "_betType",
          "type": "uint8"
        },
        {
          "internalType": "uint8",
          "name": "_selection",
          "type": "uint8"
        },
        {
          "internalType": "uint16",
          "name": "_odds",
          "type": "uint16"
        },
        {
          "internalType": "uint256",
          "name": "_amount",
          "type": "uint256"
        }
      ],
      "name": "createLayBet",
      "outputs": [],
      "stateMutability": "payable",
      "type": "function"
    },
    {
      "inputs": [
        {
          "internalType": "bytes32",
          "name": "_requestId",
          "type": "bytes32"
        },
        {
          "internalType": "bytes32",
          "name": "_data",
          "type": "bytes32"
        }
      ],
      "name": "fulfill",
      "outputs": [],
      "stateMutability": "nonpayable",
      "type": "function"
    },
    {
      "inputs": [
        {
          "internalType": "string",
          "name": "_objectId",
          "type": "string"
        },
        {
          "internalType": "enum BettingAIO.BetSide",
          "name": "_betSide",
          "type": "uint8"
        },
        {
          "internalType": "uint8",
          "name": "_selection",
          "type": "uint8"
        }
      ],
      "name": "hasMatchWinnerWon",
      "outputs": [
        {
          "internalType": "bool",
          "name": "",
          "type": "bool"
        }
      ],
      "stateMutability": "view",
      "type": "function"
    },
    {
      "inputs": [],
      "name": "owner",
      "outputs": [
        {
          "internalType": "address",
          "name": "",
          "type": "address"
        }
      ],
      "stateMutability": "view",
      "type": "function"
    },
    {
      "inputs": [
        {
          "internalType": "string",
          "name": "_objectId",
          "type": "string"
        },
        {
          "internalType": "enum BettingAIO.BetSide",
          "name": "_betSide",
          "type": "uint8"
        },
        {
          "internalType": "enum BettingAIO.BetType",
          "name": "_betType",
          "type": "uint8"
        },
        {
          "internalType": "uint8",
          "name": "_selection",
          "type": "uint8"
        },
        {
          "internalType": "uint16",
          "name": "_odds",
          "type": "uint16"
        },
        {
          "internalType": "uint256",
          "name": "_amount",
          "type": "uint256"
        }
      ],
      "name": "removeUnmatchedBet",
      "outputs": [],
      "stateMutability": "nonpayable",
      "type": "function"
    },
    {
      "inputs": [],
      "name": "renounceOwnership",
      "outputs": [],
      "stateMutability": "nonpayable",
      "type": "function"
    },
    {
      "inputs": [
        {
          "internalType": "string",
          "name": "_objectId",
          "type": "string"
        }
      ],
      "name": "requestResult",
      "outputs": [
        {
          "internalType": "bytes32",
          "name": "requestId",
          "type": "bytes32"
        }
      ],
      "stateMutability": "nonpayable",
      "type": "function"
    },
    {
      "inputs": [
        {
          "internalType": "string",
          "name": "_objectId",
          "type": "string"
        },
        {
          "internalType": "enum BettingAIO.BetSide",
          "name": "_betSide",
          "type": "uint8"
        },
        {
          "internalType": "enum BettingAIO.BetType",
          "name": "_betType",
          "type": "uint8"
        },
        {
          "internalType": "uint8",
          "name": "_selection",
          "type": "uint8"
        },
        {
          "internalType": "uint16",
          "name": "_odds",
          "type": "uint16"
        },
        {
          "internalType": "string",
          "name": "_tokenURI",
          "type": "string"
        }
      ],
      "name": "transferBetToNFT",
      "outputs": [
        {
          "internalType": "uint256",
          "name": "",
          "type": "uint256"
        }
      ],
      "stateMutability": "nonpayable",
      "type": "function"
    },
    {
      "inputs": [
        {
          "internalType": "address",
          "name": "newOwner",
          "type": "address"
        }
      ],
      "name": "transferOwnership",
      "outputs": [],
      "stateMutability": "nonpayable",
      "type": "function"
    },
    {
      "inputs": [
        {
          "internalType": "string",
          "name": "_objectId",
          "type": "string"
        },
        {
          "internalType": "uint256",
          "name": "tokenId",
          "type": "uint256"
        }
      ],
      "name": "withdrawWithNFT",
      "outputs": [],
      "stateMutability": "nonpayable",
      "type": "function"
    }
  ],
  "bytecode": "0x608060405260016005553480156200001657600080fd5b506040516200508e3803806200508e83398181016040528101906200003c9190620002e1565b6200005c620000506200015360201b60201c565b6200015b60201b60201c565b6200008173326c977e6efc84e512bb9c30f76e30c160ed06fb6200021f60201b60201c565b73c8d925525ca8759812d0c299b90247917d4d4b7c600760006101000a81548173ffffffffffffffffffffffffffffffffffffffff021916908373ffffffffffffffffffffffffffffffffffffffff1602179055507f3765636237343735336534313462353462323665643162393131623838643637600881905550662386f26fc1000060098190555080600a60006101000a81548173ffffffffffffffffffffffffffffffffffffffff021916908373ffffffffffffffffffffffffffffffffffffffff1602179055505062000313565b600033905090565b60008060009054906101000a900473ffffffffffffffffffffffffffffffffffffffff169050816000806101000a81548173ffffffffffffffffffffffffffffffffffffffff021916908373ffffffffffffffffffffffffffffffffffffffff1602179055508173ffffffffffffffffffffffffffffffffffffffff168173ffffffffffffffffffffffffffffffffffffffff167f8be0079c531659141344cd1fd0a4f28419497f9722a3daafe3b4186f6b6457e060405160405180910390a35050565b80600360006101000a81548173ffffffffffffffffffffffffffffffffffffffff021916908373ffffffffffffffffffffffffffffffffffffffff16021790555050565b600080fd5b600073ffffffffffffffffffffffffffffffffffffffff82169050919050565b6000620002958262000268565b9050919050565b6000620002a98262000288565b9050919050565b620002bb816200029c565b8114620002c757600080fd5b50565b600081519050620002db81620002b0565b92915050565b600060208284031215620002fa57620002f962000263565b5b60006200030a84828501620002ca565b91505092915050565b614d6b80620003236000396000f3fe6080604052600436106100c25760003560e01c80639201de551161007f578063db3174ec11610059578063db3174ec14610246578063e603c21914610283578063f2fde38b1461029f578063f96cb2df146102c8576100c2565b80639201de55146101a2578063a9583d32146101e0578063c80e476e1461021d576100c2565b8063042f2b65146100c7578063100a56c5146100f05780633195d58d1461010c5780636920f52b14610135578063715018a6146101605780638da5cb5b14610177575b600080fd5b3480156100d357600080fd5b506100ee60048036038101906100e99190613544565b610305565b005b61010a600480360381019061010591906136b7565b610506565b005b34801561011857600080fd5b50610133600480360381019061012e9190613751565b6106d6565b005b34801561014157600080fd5b5061014a610858565b6040516101579190613830565b60405180910390f35b34801561016c57600080fd5b5061017561087e565b005b34801561018357600080fd5b5061018c610906565b604051610199919061386c565b60405180910390f35b3480156101ae57600080fd5b506101c960048036038101906101c49190613887565b61092f565b6040516101d792919061395c565b60405180910390f35b3480156101ec57600080fd5b5061020760048036038101906102029190613abc565b610b4c565b6040516102149190613b14565b60405180910390f35b34801561022957600080fd5b50610244600480360381019061023f9190613b54565b610be6565b005b34801561025257600080fd5b5061026d60048036038101906102689190613c03565b610fa5565b60405161027a9190613ce1565b60405180910390f35b61029d600480360381019061029891906136b7565b61174d565b005b3480156102ab57600080fd5b506102c660048036038101906102c19190613d28565b61194a565b005b3480156102d457600080fd5b506102ef60048036038101906102ea9190613d55565b611a42565b6040516102fc9190613ddf565b60405180910390f35b816006600082815260200190815260200160002060009054906101000a900473ffffffffffffffffffffffffffffffffffffffff1673ffffffffffffffffffffffffffffffffffffffff163373ffffffffffffffffffffffffffffffffffffffff16146103a7576040517f08c379a000000000000000000000000000000000000000000000000000000000815260040161039e90613e6c565b60405180910390fd5b6006600082815260200190815260200160002060006101000a81549073ffffffffffffffffffffffffffffffffffffffff0219169055807f7cc135e0cebb02c3480ae5d74d377283180a2601f8f644edf7987b009316c63a60405160405180910390a26000806104168461092f565b915091508060128360405161042b9190613ec8565b908152602001604051809103902060006101000a81548160ff021916908360ff1602179055506000600181111561046557610464613edf565b5b600b836040516104759190613ec8565b908152602001604051809103902060000160009054906101000a900460ff1660018111156104a6576104a5613edf565b5b146104ff576104b482611bb9565b6001600b836040516104c69190613ec8565b908152602001604051809103902060000160006101000a81548160ff021916908360018111156104f9576104f8613edf565b5b02179055505b5050505050565b858560018081111561051b5761051a613edf565b5b600b838360405161052d929190613f33565b908152602001604051809103902060000160009054906101000a900460ff16600181111561055e5761055d613edf565b5b14156105a35781816040517f1b21b92100000000000000000000000000000000000000000000000000000000815260040161059a929190613f79565b60405180910390fd5b34600081116105e957806040517fd59f5ff00000000000000000000000000000000000000000000000000000000081526004016105e09190613ce1565b60405180910390fd5b8461ffff166103e8811161063457806040517fa0c5f30c00000000000000000000000000000000000000000000000000000000815260040161062b9190613ce1565b60405180910390fd5b348514610676576040517f08c379a000000000000000000000000000000000000000000000000000000000815260040161066d9061400f565b60405180910390fd5b6106ca8a8a8080601f016020809104026020016040519081016040528093929190818152602001838380828437600081840152601f19601f8201169050808301925050505050505060008a8a8a8a3361219d565b50505050505050505050565b600a60009054906101000a900473ffffffffffffffffffffffffffffffffffffffff1673ffffffffffffffffffffffffffffffffffffffff1663ac7aae4233836040518363ffffffff1660e01b815260040161073392919061402f565b600060405180830381600087803b15801561074d57600080fd5b505af1158015610761573d6000803e3d6000fd5b5050505060108383604051610777929190613f33565b9081526020016040518091039020600082815260200190815260200160002060009054906101000a900460ff166107e3576040517f08c379a00000000000000000000000000000000000000000000000000000000081526004016107da906140a4565b60405180910390fd5b61081e33600f85856040516107f9929190613f33565b90815260200160405180910390206000848152602001908152602001600020546125e6565b600f8383604051610830929190613f33565b9081526020016040518091039020600082815260200190815260200160002060009055505050565b600a60009054906101000a900473ffffffffffffffffffffffffffffffffffffffff1681565b610886612631565b73ffffffffffffffffffffffffffffffffffffffff166108a4610906565b73ffffffffffffffffffffffffffffffffffffffff16146108fa576040517f08c379a00000000000000000000000000000000000000000000000000000000081526004016108f190614110565b60405180910390fd5b6109046000612639565b565b60008060009054906101000a900473ffffffffffffffffffffffffffffffffffffffff16905090565b6060600080600090506000805b60208360ff1610801561098e5750600060f81b868460ff166020811061096557610964614130565b5b1a60f81b7effffffffffffffffffffffffffffffffffffffffffffffffffffffffffffff191614155b156109a657828061099e9061418e565b93505061093c565b60006001846109b591906141b8565b905060008160ff1667ffffffffffffffff8111156109d6576109d5613991565b5b6040519080825280601f01601f191660200182016040528015610a085781602001600182028036833780820191505090505b509050600094505b60208560ff16108015610a625750600060f81b888660ff1660208110610a3957610a38614130565b5b1a60f81b7effffffffffffffffffffffffffffffffffffffffffffffffffffffffffffff191614155b15610b30578160ff168560ff161015610ad557878560ff1660208110610a8b57610a8a614130565b5b1a60f81b818660ff1681518110610aa557610aa4614130565b5b60200101907effffffffffffffffffffffffffffffffffffffffffffffffffffffffffffff1916908160001a9053505b6030888660ff1660208110610aed57610aec614130565b5b1a60f81b60f81c610afe91906141b8565b93508360ff16600a84610b1191906141ec565b610b1b9190614246565b92508480610b289061418e565b955050610a10565b80600a84610b3e91906142cb565b965096505050505050915091565b600080610b636008543063042f2b6560e01b6126fd565b9050610baf6040518060400160405280600981526020017f6669787475726549640000000000000000000000000000000000000000000000815250848361272e9092919063ffffffff16565b610bde600760009054906101000a900473ffffffffffffffffffffffffffffffffffffffff1682600954612761565b915050919050565b6000600c8888604051610bfa929190613f33565b90815260200160405180910390206000876001811115610c1d57610c1c613edf565b5b6001811115610c2f57610c2e613edf565b5b81526020019081526020016000206000866000811115610c5257610c51613edf565b5b6000811115610c6457610c63613edf565b5b815260200190815260200160002060008560ff1660ff16815260200190815260200160002060008461ffff1661ffff168152602001908152602001600020805480602002602001604051908101604052809291908181526020016000905b82821015610d545783829060005260206000209060020201604051806040016040529081600082015481526020016001820160009054906101000a900473ffffffffffffffffffffffffffffffffffffffff1673ffffffffffffffffffffffffffffffffffffffff1673ffffffffffffffffffffffffffffffffffffffff168152505081526020019060010190610cc2565b5050505090506000805b8251811015610f59573373ffffffffffffffffffffffffffffffffffffffff16838281518110610d9157610d90614130565b5b60200260200101516020015173ffffffffffffffffffffffffffffffffffffffff16148015610ddd575083838281518110610dcf57610dce614130565b5b602002602001015160000151145b15610f4657600191507f0ade976e65f3978aa3968af04901755321152ba32b08ee0175e035760c11c1b58a8a8a8a8a8a8a33604051610e2398979695949392919061439b565b60405180910390a1610e3533856125e6565b600c8a8a604051610e47929190613f33565b90815260200160405180910390206000896001811115610e6a57610e69613edf565b5b6001811115610e7c57610e7b613edf565b5b81526020019081526020016000206000886000811115610e9f57610e9e613edf565b5b6000811115610eb157610eb0613edf565b5b815260200190815260200160002060008760ff1660ff16815260200190815260200160002060008661ffff1661ffff1681526020019081526020016000208181548110610f0157610f00614130565b5b90600052602060002090600202016000808201600090556001820160006101000a81549073ffffffffffffffffffffffffffffffffffffffff02191690555050610f59565b8080610f5190614413565b915050610d5e565b5080610f9a576040517f08c379a0000000000000000000000000000000000000000000000000000000008152600401610f91906144a8565b60405180910390fd5b505050505050505050565b6000806000905060005b600d8b8b604051610fc1929190613f33565b908152602001604051809103902060008a6001811115610fe457610fe3613edf565b5b6001811115610ff657610ff5613edf565b5b8152602001908152602001600020600089600081111561101957611018613edf565b5b600081111561102b5761102a613edf565b5b815260200190815260200160002060008860ff1660ff1681526020019081526020016000208054905081101561134d573373ffffffffffffffffffffffffffffffffffffffff16600d8c8c604051611084929190613f33565b908152602001604051809103902060008b60018111156110a7576110a6613edf565b5b60018111156110b9576110b8613edf565b5b815260200190815260200160002060008a60008111156110dc576110db613edf565b5b60008111156110ee576110ed613edf565b5b815260200190815260200160002060008960ff1660ff168152602001908152602001600020828154811061112557611124614130565b5b906000526020600020906002020160010160029054906101000a900473ffffffffffffffffffffffffffffffffffffffff1673ffffffffffffffffffffffffffffffffffffffff1614801561125357508561ffff16600d8c8c60405161118c929190613f33565b908152602001604051809103902060008b60018111156111af576111ae613edf565b5b60018111156111c1576111c0613edf565b5b815260200190815260200160002060008a60008111156111e4576111e3613edf565b5b60008111156111f6576111f5613edf565b5b815260200190815260200160002060008960ff1660ff168152602001908152602001600020828154811061122d5761122c614130565b5b906000526020600020906002020160010160009054906101000a900461ffff1661ffff16145b1561133a576001600d8c8c60405161126c929190613f33565b908152602001604051809103902060008b600181111561128f5761128e613edf565b5b60018111156112a1576112a0613edf565b5b815260200190815260200160002060008a60008111156112c4576112c3613edf565b5b60008111156112d6576112d5613edf565b5b815260200190815260200160002060008960ff1660ff168152602001908152602001600020828154811061130d5761130c614130565b5b906000526020600020906002020160010160166101000a81548160ff021916908315150217905550600191505b808061134590614413565b915050610faf565b508061138e576040517f08c379a000000000000000000000000000000000000000000000000000000000815260040161138590614514565b60405180910390fd5b600060118b8b6040516113a2929190613f33565b908152602001604051809103902054905060118b8b6040516113c5929190613f33565b908152602001604051809103902060008154809291906113e490614413565b9190505550600061143d8c8c8080601f016020809104026020016040519081016040528093929190818152602001838380828437600081840152601f19601f820116905080830192505050505050508b8b8b8b33612781565b9050600a60009054906101000a900473ffffffffffffffffffffffffffffffffffffffff1673ffffffffffffffffffffffffffffffffffffffff1663e86f636733838f8f878c8c6040518863ffffffff1660e01b81526004016114a69796959493929190614534565b600060405180830381600087803b1580156114c057600080fd5b505af11580156114d4573d6000803e3d6000fd5b50505050600e8c8c6040516114ea929190613f33565b908152602001604051809103902060008b600181111561150d5761150c613edf565b5b600181111561151f5761151e613edf565b5b815260200190815260200160002060008a600081111561154257611541613edf565b5b600081111561155457611553613edf565b5b815260200190815260200160002060008960ff1660ff16815260200190815260200160002060008861ffff1661ffff16815260200190815260200160002060003373ffffffffffffffffffffffffffffffffffffffff1673ffffffffffffffffffffffffffffffffffffffff16815260200190815260200160002054600f8d8d6040516115e2929190613f33565b9081526020016040518091039020600083815260200190815260200160002081905550600e8c8c604051611617929190613f33565b908152602001604051809103902060008b600181111561163a57611639613edf565b5b600181111561164c5761164b613edf565b5b815260200190815260200160002060008a600081111561166f5761166e613edf565b5b600081111561168157611680613edf565b5b815260200190815260200160002060008960ff1660ff16815260200190815260200160002060008861ffff1661ffff16815260200190815260200160002060003373ffffffffffffffffffffffffffffffffffffffff1673ffffffffffffffffffffffffffffffffffffffff168152602001908152602001600020600090557f5089770ecce0ed387baf1e3b000fcc13bd3c2205d6205f06afeb547db5f2321e8c8c8360405161173393929190614599565b60405180910390a180935050505098975050505050505050565b858560018081111561176257611761613edf565b5b600b8383604051611774929190613f33565b908152602001604051809103902060000160009054906101000a900460ff1660018111156117a5576117a4613edf565b5b14156117ea5781816040517f1b21b9210000000000000000000000000000000000000000000000000000000081526004016117e1929190613f79565b60405180910390fd5b346000811161183057806040517fd59f5ff00000000000000000000000000000000000000000000000000000000081526004016118279190613ce1565b60405180910390fd5b8461ffff166103e8811161187b57806040517fa0c5f30c0000000000000000000000000000000000000000000000000000000081526004016118729190613ce1565b60405180910390fd5b60006103e8808861188c91906145cb565b61ffff168761189b91906141ec565b6118a591906145ff565b90503481146118e9576040517f08c379a00000000000000000000000000000000000000000000000000000000081526004016118e0906146a2565b60405180910390fd5b61193d8b8b8080601f016020809104026020016040519081016040528093929190818152602001838380828437600081840152601f19601f8201169050808301925050505050505060018b8b8b8b3361219d565b5050505050505050505050565b611952612631565b73ffffffffffffffffffffffffffffffffffffffff16611970610906565b73ffffffffffffffffffffffffffffffffffffffff16146119c6576040517f08c379a00000000000000000000000000000000000000000000000000000000081526004016119bd90614110565b60405180910390fd5b600073ffffffffffffffffffffffffffffffffffffffff168173ffffffffffffffffffffffffffffffffffffffff161415611a36576040517f08c379a0000000000000000000000000000000000000000000000000000000008152600401611a2d90614734565b60405180910390fd5b611a3f81612639565b50565b600080601285604051611a559190613ec8565b908152602001604051809103902060009054906101000a900460ff16905060008160ff161415611aba576040517f08c379a0000000000000000000000000000000000000000000000000000000008152600401611ab1906147a0565b60405180910390fd5b60008360ff161415611b125760006001811115611ada57611ad9613edf565b5b846001811115611aed57611aec613edf565b5b1415611b025760018160ff1614915050611bb2565b60018160ff161415915050611bb2565b60018360ff161415611b6a5760006001811115611b3257611b31613edf565b5b846001811115611b4557611b44613edf565b5b1415611b5a5760038160ff1614915050611bb2565b60038160ff161415915050611bb2565b60006001811115611b7e57611b7d613edf565b5b846001811115611b9157611b90613edf565b5b1415611ba65760028160ff1614915050611bb2565b60028160ff1614159150505b9392505050565b6001600b82604051611bcb9190613ec8565b908152602001604051809103902060000160006101000a81548160ff02191690836001811115611bfe57611bfd613edf565b5b021790555060005b60018160ff1610156121995760008160ff166000811115611c2a57611c29613edf565b5b905060005b60038160ff1610156121845760008190506000611c4e86600084611a42565b905060006001151582151514611c65576001611c68565b60005b90506000600d88604051611c7c9190613ec8565b90815260200160405180910390206000836001811115611c9f57611c9e613edf565b5b6001811115611cb157611cb0613edf565b5b81526020019081526020016000206000876000811115611cd457611cd3613edf565b5b6000811115611ce657611ce5613edf565b5b815260200190815260200160002060008560ff1660ff168152602001908152602001600020805480602002602001604051908101604052809291908181526020016000905b82821015611df85783829060005260206000209060020201604051806080016040529081600082015481526020016001820160009054906101000a900461ffff1661ffff1661ffff1681526020016001820160029054906101000a900473ffffffffffffffffffffffffffffffffffffffff1673ffffffffffffffffffffffffffffffffffffffff1673ffffffffffffffffffffffffffffffffffffffff1681526020016001820160169054906101000a900460ff16151515158152505081526020019060010190611d2b565b50505050905060005b815181101561216c57818181518110611e1d57611e1c614130565b5b60200260200101516060015115611eca576000611e7a8a858a89878781518110611e4a57611e49614130565b5b602002602001015160200151888881518110611e6957611e68614130565b5b602002602001015160400151612781565b9050600160108b604051611e8e9190613ec8565b9081526020016040518091039020600083815260200190815260200160002060006101000a81548160ff02191690831515021790555050612159565b612023828281518110611ee057611edf614130565b5b602002602001015160400151600e8b604051611efc9190613ec8565b90815260200160405180910390206000866001811115611f1f57611f1e613edf565b5b6001811115611f3157611f30613edf565b5b815260200190815260200160002060008a6000811115611f5457611f53613edf565b5b6000811115611f6657611f65613edf565b5b815260200190815260200160002060008860ff1660ff1681526020019081526020016000206000858581518110611fa057611f9f614130565b5b60200260200101516020015161ffff1661ffff1681526020019081526020016000206000858581518110611fd757611fd6614130565b5b60200260200101516040015173ffffffffffffffffffffffffffffffffffffffff1673ffffffffffffffffffffffffffffffffffffffff168152602001908152602001600020546125e6565b600e896040516120339190613ec8565b9081526020016040518091039020600084600181111561205657612055613edf565b5b600181111561206857612067613edf565b5b8152602001908152602001600020600088600081111561208b5761208a613edf565b5b600081111561209d5761209c613edf565b5b815260200190815260200160002060008660ff1660ff16815260200190815260200160002060008383815181106120d7576120d6614130565b5b60200260200101516020015161ffff1661ffff168152602001908152602001600020600083838151811061210e5761210d614130565b5b60200260200101516040015173ffffffffffffffffffffffffffffffffffffffff1673ffffffffffffffffffffffffffffffffffffffff168152602001908152602001600020600090555b808061216490614413565b915050611e01565b5050505050808061217c9061418e565b915050611c2f565b505080806121919061418e565b915050611c06565b5050565b60008660018111156121b2576121b1613edf565b5b600060018111156121c6576121c5613edf565b5b146121d25760006121d5565b60015b90506000600c896040516121e99190613ec8565b9081526020016040518091039020600083600181111561220c5761220b613edf565b5b600181111561221e5761221d613edf565b5b8152602001908152602001600020600088600081111561224157612240613edf565b5b600081111561225357612252613edf565b5b815260200190815260200160002060008760ff1660ff16815260200190815260200160002060008661ffff1661ffff168152602001908152602001600020805480602002602001604051908101604052809291908181526020016000905b828210156123435783829060005260206000209060020201604051806040016040529081600082015481526020016001820160009054906101000a900473ffffffffffffffffffffffffffffffffffffffff1673ffffffffffffffffffffffffffffffffffffffff1673ffffffffffffffffffffffffffffffffffffffff1681525050815260200190600101906122b1565b50505050905060008151141561236957612362898989898989896127c7565b50506125dd565b600084905060005b82518110156125af57600083828151811061238f5761238e614130565b5b6020026020010151600001518311156123d6578382815181106123b5576123b4614130565b5b602002602001015160000151905080836123cf91906147c0565b92506123e8565b82905080836123e591906147c0565b92505b6124158c868c8c8c868a898151811061240457612403614130565b5b602002602001015160200151612972565b83828151811061242857612427614130565b5b6020026020010151600001518114156124c6577f0ade976e65f3978aa3968af04901755321152ba32b08ee0175e035760c11c1b58c868c8c8c868a898151811061247557612474614130565b5b60200260200101516020015160405161249497969594939291906147f4565b60405180910390a18382815181106124af576124ae614130565b5b602002602001016124be613443565b815250612579565b808483815181106124da576124d9614130565b5b60200260200101516000018181516124f291906147c0565b915081815250507f3f3925f6afe1ab09977ba289dc98c6334b2773372c1f7eaf605cedb85c643f018c868c8c8c89888151811061253257612531614130565b5b6020026020010151600001518a898151811061255157612550614130565b5b60200260200101516020015160405161257097969594939291906147f4565b60405180910390a15b600083141561259b576125918c8c8c8c8c8c8c612972565b50505050506125dd565b5080806125a790614413565b915050612371565b506125ca8a8a8a8a8a868b6125c491906147c0565b8a612972565b6125d98a8a8a8a8a868a6127c7565b5050505b50505050505050565b8173ffffffffffffffffffffffffffffffffffffffff166108fc829081150290604051600060405180830381858888f1935050505015801561262c573d6000803e3d6000fd5b505050565b600033905090565b60008060009054906101000a900473ffffffffffffffffffffffffffffffffffffffff169050816000806101000a81548173ffffffffffffffffffffffffffffffffffffffff021916908373ffffffffffffffffffffffffffffffffffffffff1602179055508173ffffffffffffffffffffffffffffffffffffffff168173ffffffffffffffffffffffffffffffffffffffff167f8be0079c531659141344cd1fd0a4f28419497f9722a3daafe3b4186f6b6457e060405160405180910390a35050565b612705613473565b61270d613473565b61272485858584612cc4909392919063ffffffff16565b9150509392505050565b612745828460800151612d7490919063ffffffff16565b61275c818460800151612d7490919063ffffffff16565b505050565b60006127788484846001634042994660e01b612d99565b90509392505050565b6000610fff8783888888886040516020016127a19695949392919061486a565b6040516020818303038152906040528051906020012060001c1690509695505050505050565b600c876040516127d79190613ec8565b908152602001604051809103902060008760018111156127fa576127f9613edf565b5b600181111561280c5761280b613edf565b5b8152602001908152602001600020600086600081111561282f5761282e613edf565b5b600081111561284157612840613edf565b5b815260200190815260200160002060008560ff1660ff16815260200190815260200160002060008461ffff1661ffff16815260200190815260200160002060405180604001604052808481526020018373ffffffffffffffffffffffffffffffffffffffff1681525090806001815401808255809150506001900390600052602060002090600202016000909190919091506000820151816000015560208201518160010160006101000a81548173ffffffffffffffffffffffffffffffffffffffff021916908373ffffffffffffffffffffffffffffffffffffffff16021790555050507fd9ead39440c1245780b4d6d60aa95d35bbac48e0d9cdf2b29e0e33f5e75aedbe8787878787878760405161296197969594939291906147f4565b60405180910390a150505050505050565b60008290506000600181111561298b5761298a613edf565b5b87600181111561299e5761299d613edf565b5b14156129cf576103e880856129b391906145cb565b61ffff16846129c291906141ec565b6129cc91906145ff565b90505b80600e896040516129e09190613ec8565b90815260200160405180910390206000896001811115612a0357612a02613edf565b5b6001811115612a1557612a14613edf565b5b81526020019081526020016000206000886000811115612a3857612a37613edf565b5b6000811115612a4a57612a49613edf565b5b815260200190815260200160002060008760ff1660ff16815260200190815260200160002060008661ffff1661ffff16815260200190815260200160002060008473ffffffffffffffffffffffffffffffffffffffff1673ffffffffffffffffffffffffffffffffffffffff1681526020019081526020016000206000828254612ad49190614246565b92505081905550600d88604051612aeb9190613ec8565b90815260200160405180910390206000886001811115612b0e57612b0d613edf565b5b6001811115612b2057612b1f613edf565b5b81526020019081526020016000206000876000811115612b4357612b42613edf565b5b6000811115612b5557612b54613edf565b5b815260200190815260200160002060008660ff1660ff16815260200190815260200160002060405180608001604052808581526020018661ffff1681526020018473ffffffffffffffffffffffffffffffffffffffff1681526020016000151581525090806001815401808255809150506001900390600052602060002090600202016000909190919091506000820151816000015560208201518160010160006101000a81548161ffff021916908361ffff16021790555060408201518160010160026101000a81548173ffffffffffffffffffffffffffffffffffffffff021916908373ffffffffffffffffffffffffffffffffffffffff16021790555060608201518160010160166101000a81548160ff02191690831515021790555050507f0fca364a96d7ed643a08a7b3f2be55b7e2993632ce10f4c978dc379198544f7d88888888888888604051612cb297969594939291906147f4565b60405180910390a15050505050505050565b612ccc613473565b612cdc8560800151610100613001565b508385600001818152505082856020019073ffffffffffffffffffffffffffffffffffffffff16908173ffffffffffffffffffffffffffffffffffffffff16815250508185604001907bffffffffffffffffffffffffffffffffffffffffffffffffffffffff191690817bffffffffffffffffffffffffffffffffffffffffffffffffffffffff191681525050849050949350505050565b612d81826003835161306b565b612d9481836131b090919063ffffffff16565b505050565b600030600554604051602001612db092919061494d565b604051602081830303815290604052805190602001209050600554856060018181525050856006600083815260200190815260200160002060006101000a81548173ffffffffffffffffffffffffffffffffffffffff021916908373ffffffffffffffffffffffffffffffffffffffff160217905550807fb5e6e01e79f91267dc17b4e6314d5d4d03593d2ceee0fbb452b750bd70ea5af960405160405180910390a2600082600080886000015189602001518a604001518b606001518a8d6080015160000151604051602401612e8e989796959493929190614a09565b604051602081830303815290604052907bffffffffffffffffffffffffffffffffffffffffffffffffffffffff19166020820180517bffffffffffffffffffffffffffffffffffffffffffffffffffffffff83818316178352505050509050600360009054906101000a900473ffffffffffffffffffffffffffffffffffffffff1673ffffffffffffffffffffffffffffffffffffffff16634000aea08887846040518463ffffffff1660e01b8152600401612f4c93929190614a8e565b602060405180830381600087803b158015612f6657600080fd5b505af1158015612f7a573d6000803e3d6000fd5b505050506040513d601f19601f82011682018060405250810190612f9e9190614af8565b612fdd576040517f08c379a0000000000000000000000000000000000000000000000000000000008152600401612fd490614b97565b60405180910390fd5b600160056000828254612ff09190614246565b925050819055505095945050505050565b6130096134e0565b600060208361301891906142cb565b146130445760208261302a91906142cb565b602061303691906147c0565b826130419190614246565b91505b81836020018181525050604051808452600081528281016020016040525082905092915050565b60178111613098576130928160058460ff16901b60ff1617846131d290919063ffffffff16565b506131ab565b60ff81116130da576130bd601860058460ff16901b17846131d290919063ffffffff16565b506130d4816001856131f29092919063ffffffff16565b506131aa565b61ffff811161311d57613100601960058460ff16901b17846131d290919063ffffffff16565b50613117816002856131f29092919063ffffffff16565b506131a9565b63ffffffff811161316257613145601a60058460ff16901b17846131d290919063ffffffff16565b5061315c816004856131f29092919063ffffffff16565b506131a8565b67ffffffffffffffff81116131a75761318e601b60058460ff16901b17846131d290919063ffffffff16565b506131a5816008856131f29092919063ffffffff16565b505b5b5b5b5b505050565b6131b86134e0565b6131ca83846000015151848551613214565b905092915050565b6131da6134e0565b6131ea838460000151518461331e565b905092915050565b6131fa6134e0565b61320b848560000151518585613375565b90509392505050565b61321c6134e0565b825182111561322a57600080fd5b8460200151828561323b9190614246565b11156132705761326f8560026132608860200151888761325b9190614246565b613403565b61326a91906141ec565b61341f565b5b60008086518051876020830101935080888701111561328f5787860182525b60208701925050505b602084106132d657805182526020826132b19190614246565b91506020816132c09190614246565b90506020846132cf91906147c0565b9350613298565b600060018560206132e791906147c0565b6101006132f49190614cea565b6132fe91906147c0565b905080198251168184511681811785525050879350505050949350505050565b6133266134e0565b8360200151831061334c5761334b846002866020015161334691906141ec565b61341f565b5b8351805160208583010184815381861415613368576001820183525b5050508390509392505050565b61337d6134e0565b8460200151848361338e9190614246565b11156133b6576133b585600286856133a69190614246565b6133b091906141ec565b61341f565b5b60006001836101006133c89190614cea565b6133d291906147c0565b905085518386820101858319825116178152815185880111156133f55784870182525b505085915050949350505050565b60008183111561341557829050613419565b8190505b92915050565b6000826000015190506134328383613001565b5061343d83826131b0565b50505050565b604051806040016040528060008152602001600073ffffffffffffffffffffffffffffffffffffffff1681525090565b6040518060a0016040528060008019168152602001600073ffffffffffffffffffffffffffffffffffffffff16815260200160007bffffffffffffffffffffffffffffffffffffffffffffffffffffffff19168152602001600081526020016134da6134e0565b81525090565b604051806040016040528060608152602001600081525090565b6000604051905090565b600080fd5b600080fd5b6000819050919050565b6135218161350e565b811461352c57600080fd5b50565b60008135905061353e81613518565b92915050565b6000806040838503121561355b5761355a613504565b5b60006135698582860161352f565b925050602061357a8582860161352f565b9150509250929050565b600080fd5b600080fd5b600080fd5b60008083601f8401126135a9576135a8613584565b5b8235905067ffffffffffffffff8111156135c6576135c5613589565b5b6020830191508360018202830111156135e2576135e161358e565b5b9250929050565b600181106135f657600080fd5b50565b600081359050613608816135e9565b92915050565b600060ff82169050919050565b6136248161360e565b811461362f57600080fd5b50565b6000813590506136418161361b565b92915050565b600061ffff82169050919050565b61365e81613647565b811461366957600080fd5b50565b60008135905061367b81613655565b92915050565b6000819050919050565b61369481613681565b811461369f57600080fd5b50565b6000813590506136b18161368b565b92915050565b60008060008060008060a087890312156136d4576136d3613504565b5b600087013567ffffffffffffffff8111156136f2576136f1613509565b5b6136fe89828a01613593565b9650965050602061371189828a016135f9565b945050604061372289828a01613632565b935050606061373389828a0161366c565b925050608061374489828a016136a2565b9150509295509295509295565b60008060006040848603121561376a57613769613504565b5b600084013567ffffffffffffffff81111561378857613787613509565b5b61379486828701613593565b935093505060206137a7868287016136a2565b9150509250925092565b600073ffffffffffffffffffffffffffffffffffffffff82169050919050565b6000819050919050565b60006137f66137f16137ec846137b1565b6137d1565b6137b1565b9050919050565b6000613808826137db565b9050919050565b600061381a826137fd565b9050919050565b61382a8161380f565b82525050565b60006020820190506138456000830184613821565b92915050565b6000613856826137b1565b9050919050565b6138668161384b565b82525050565b6000602082019050613881600083018461385d565b92915050565b60006020828403121561389d5761389c613504565b5b60006138ab8482850161352f565b91505092915050565b600081519050919050565b600082825260208201905092915050565b60005b838110156138ee5780820151818401526020810190506138d3565b838111156138fd576000848401525b50505050565b6000601f19601f8301169050919050565b600061391f826138b4565b61392981856138bf565b93506139398185602086016138d0565b61394281613903565b840191505092915050565b6139568161360e565b82525050565b600060408201905081810360008301526139768185613914565b9050613985602083018461394d565b9392505050565b600080fd5b7f4e487b7100000000000000000000000000000000000000000000000000000000600052604160045260246000fd5b6139c982613903565b810181811067ffffffffffffffff821117156139e8576139e7613991565b5b80604052505050565b60006139fb6134fa565b9050613a0782826139c0565b919050565b600067ffffffffffffffff821115613a2757613a26613991565b5b613a3082613903565b9050602081019050919050565b82818337600083830152505050565b6000613a5f613a5a84613a0c565b6139f1565b905082815260208101848484011115613a7b57613a7a61398c565b5b613a86848285613a3d565b509392505050565b600082601f830112613aa357613aa2613584565b5b8135613ab3848260208601613a4c565b91505092915050565b600060208284031215613ad257613ad1613504565b5b600082013567ffffffffffffffff811115613af057613aef613509565b5b613afc84828501613a8e565b91505092915050565b613b0e8161350e565b82525050565b6000602082019050613b296000830184613b05565b92915050565b60028110613b3c57600080fd5b50565b600081359050613b4e81613b2f565b92915050565b600080600080600080600060c0888a031215613b7357613b72613504565b5b600088013567ffffffffffffffff811115613b9157613b90613509565b5b613b9d8a828b01613593565b97509750506020613bb08a828b01613b3f565b9550506040613bc18a828b016135f9565b9450506060613bd28a828b01613632565b9350506080613be38a828b0161366c565b92505060a0613bf48a828b016136a2565b91505092959891949750929550565b60008060008060008060008060c0898b031215613c2357613c22613504565b5b600089013567ffffffffffffffff811115613c4157613c40613509565b5b613c4d8b828c01613593565b98509850506020613c608b828c01613b3f565b9650506040613c718b828c016135f9565b9550506060613c828b828c01613632565b9450506080613c938b828c0161366c565b93505060a089013567ffffffffffffffff811115613cb457613cb3613509565b5b613cc08b828c01613593565b92509250509295985092959890939650565b613cdb81613681565b82525050565b6000602082019050613cf66000830184613cd2565b92915050565b613d058161384b565b8114613d1057600080fd5b50565b600081359050613d2281613cfc565b92915050565b600060208284031215613d3e57613d3d613504565b5b6000613d4c84828501613d13565b91505092915050565b600080600060608486031215613d6e57613d6d613504565b5b600084013567ffffffffffffffff811115613d8c57613d8b613509565b5b613d9886828701613a8e565b9350506020613da986828701613b3f565b9250506040613dba86828701613632565b9150509250925092565b60008115159050919050565b613dd981613dc4565b82525050565b6000602082019050613df46000830184613dd0565b92915050565b7f536f75726365206d75737420626520746865206f7261636c65206f662074686560008201527f2072657175657374000000000000000000000000000000000000000000000000602082015250565b6000613e566028836138bf565b9150613e6182613dfa565b604082019050919050565b60006020820190508181036000830152613e8581613e49565b9050919050565b600081905092915050565b6000613ea2826138b4565b613eac8185613e8c565b9350613ebc8185602086016138d0565b80840191505092915050565b6000613ed48284613e97565b915081905092915050565b7f4e487b7100000000000000000000000000000000000000000000000000000000600052602160045260246000fd5b6000613f1a8385613e8c565b9350613f27838584613a3d565b82840190509392505050565b6000613f40828486613f0e565b91508190509392505050565b6000613f5883856138bf565b9350613f65838584613a3d565b613f6e83613903565b840190509392505050565b60006020820190508181036000830152613f94818486613f4c565b90509392505050565b7f416d6f756e7420616e642073656e642076616c756520617265206e6f7420657160008201527f75616c2100000000000000000000000000000000000000000000000000000000602082015250565b6000613ff96024836138bf565b915061400482613f9d565b604082019050919050565b6000602082019050818103600083015261402881613fec565b9050919050565b6000604082019050614044600083018561385d565b6140516020830184613cd2565b9392505050565b7f426574206c6f7374000000000000000000000000000000000000000000000000600082015250565b600061408e6008836138bf565b915061409982614058565b602082019050919050565b600060208201905081810360008301526140bd81614081565b9050919050565b7f4f776e61626c653a2063616c6c6572206973206e6f7420746865206f776e6572600082015250565b60006140fa6020836138bf565b9150614105826140c4565b602082019050919050565b60006020820190508181036000830152614129816140ed565b9050919050565b7f4e487b7100000000000000000000000000000000000000000000000000000000600052603260045260246000fd5b7f4e487b7100000000000000000000000000000000000000000000000000000000600052601160045260246000fd5b60006141998261360e565b915060ff8214156141ad576141ac61415f565b5b600182019050919050565b60006141c38261360e565b91506141ce8361360e565b9250828210156141e1576141e061415f565b5b828203905092915050565b60006141f782613681565b915061420283613681565b9250817fffffffffffffffffffffffffffffffffffffffffffffffffffffffffffffffff048311821515161561423b5761423a61415f565b5b828202905092915050565b600061425182613681565b915061425c83613681565b9250827fffffffffffffffffffffffffffffffffffffffffffffffffffffffffffffffff038211156142915761429061415f565b5b828201905092915050565b7f4e487b7100000000000000000000000000000000000000000000000000000000600052601260045260246000fd5b60006142d682613681565b91506142e183613681565b9250826142f1576142f061429c565b5b828206905092915050565b6002811061430d5761430c613edf565b5b50565b600081905061431e826142fc565b919050565b600061432e82614310565b9050919050565b61433e81614323565b82525050565b6001811061435557614354613edf565b5b50565b600081905061436682614344565b919050565b600061437682614358565b9050919050565b6143868161436b565b82525050565b61439581613647565b82525050565b600060e08201905081810360008301526143b6818a8c613f4c565b90506143c56020830189614335565b6143d2604083018861437d565b6143df606083018761394d565b6143ec608083018661438c565b6143f960a0830185613cd2565b61440660c083018461385d565b9998505050505050505050565b600061441e82613681565b91507fffffffffffffffffffffffffffffffffffffffffffffffffffffffffffffffff8214156144515761445061415f565b5b600182019050919050565b7f4e6f204265740000000000000000000000000000000000000000000000000000600082015250565b60006144926006836138bf565b915061449d8261445c565b602082019050919050565b600060208201905081810360008301526144c181614485565b9050919050565b7f4e6f204d61746368656420426574000000000000000000000000000000000000600082015250565b60006144fe600e836138bf565b9150614509826144c8565b602082019050919050565b6000602082019050818103600083015261452d816144f1565b9050919050565b600060a082019050614549600083018a61385d565b6145566020830189613cd2565b8181036040830152614569818789613f4c565b90506145786060830186613cd2565b818103608083015261458b818486613f4c565b905098975050505050505050565b600060408201905081810360008301526145b4818587613f4c565b90506145c36020830184613cd2565b949350505050565b60006145d682613647565b91506145e183613647565b9250828210156145f4576145f361415f565b5b828203905092915050565b600061460a82613681565b915061461583613681565b9250826146255761462461429c565b5b828204905092915050565b7f4c6971696469747920616e642073656e642076616c756520617265206e6f742060008201527f657175616c210000000000000000000000000000000000000000000000000000602082015250565b600061468c6026836138bf565b915061469782614630565b604082019050919050565b600060208201905081810360008301526146bb8161467f565b9050919050565b7f4f776e61626c653a206e6577206f776e657220697320746865207a65726f206160008201527f6464726573730000000000000000000000000000000000000000000000000000602082015250565b600061471e6026836138bf565b9150614729826146c2565b604082019050919050565b6000602082019050818103600083015261474d81614711565b9050919050565b7f4e6f20726573756c740000000000000000000000000000000000000000000000600082015250565b600061478a6009836138bf565b915061479582614754565b602082019050919050565b600060208201905081810360008301526147b98161477d565b9050919050565b60006147cb82613681565b91506147d683613681565b9250828210156147e9576147e861415f565b5b828203905092915050565b600060e082019050818103600083015261480e818a613914565b905061481d6020830189614335565b61482a604083018861437d565b614837606083018761394d565b614844608083018661438c565b61485160a0830185613cd2565b61485e60c083018461385d565b98975050505050505050565b600060c08201905081810360008301526148848189613914565b9050614893602083018861385d565b6148a06040830187614335565b6148ad606083018661437d565b6148ba608083018561394d565b6148c760a083018461438c565b979650505050505050565b60006148dd826137fd565b9050919050565b60008160601b9050919050565b60006148fc826148e4565b9050919050565b600061490e826148f1565b9050919050565b614926614921826148d2565b614903565b82525050565b6000819050919050565b61494761494282613681565b61492c565b82525050565b60006149598285614915565b6014820191506149698284614936565b6020820191508190509392505050565b60007fffffffff0000000000000000000000000000000000000000000000000000000082169050919050565b6149ae81614979565b82525050565b600081519050919050565b600082825260208201905092915050565b60006149db826149b4565b6149e581856149bf565b93506149f58185602086016138d0565b6149fe81613903565b840191505092915050565b600061010082019050614a1f600083018b61385d565b614a2c602083018a613cd2565b614a396040830189613b05565b614a46606083018861385d565b614a5360808301876149a5565b614a6060a0830186613cd2565b614a6d60c0830185613cd2565b81810360e0830152614a7f81846149d0565b90509998505050505050505050565b6000606082019050614aa3600083018661385d565b614ab06020830185613cd2565b8181036040830152614ac281846149d0565b9050949350505050565b614ad581613dc4565b8114614ae057600080fd5b50565b600081519050614af281614acc565b92915050565b600060208284031215614b0e57614b0d613504565b5b6000614b1c84828501614ae3565b91505092915050565b7f756e61626c6520746f207472616e73666572416e6443616c6c20746f206f726160008201527f636c650000000000000000000000000000000000000000000000000000000000602082015250565b6000614b816023836138bf565b9150614b8c82614b25565b604082019050919050565b60006020820190508181036000830152614bb081614b74565b9050919050565b60008160011c9050919050565b6000808291508390505b6001851115614c0e57808604811115614bea57614be961415f565b5b6001851615614bf95780820291505b8081029050614c0785614bb7565b9450614bce565b94509492505050565b600082614c275760019050614ce3565b81614c355760009050614ce3565b8160018114614c4b5760028114614c5557614c84565b6001915050614ce3565b60ff841115614c6757614c6661415f565b5b8360020a915084821115614c7e57614c7d61415f565b5b50614ce3565b5060208310610133831016604e8410600b8410161715614cb95782820a905083811115614cb457614cb361415f565b5b614ce3565b614cc68484846001614bc4565b92509050818404811115614cdd57614cdc61415f565b5b81810290505b9392505050565b6000614cf582613681565b9150614d0083613681565b9250614d2d7fffffffffffffffffffffffffffffffffffffffffffffffffffffffffffffffff8484614c17565b90509291505056fea264697066735822122091419ca651ed89354430f7877d6137d705b4a9b14d10bb2360b54c2425cbdc0364736f6c63430008090033",
  "linkReferences": {},
  "deployedLinkReferences": {}
}