{
  "_format": "hh-sol-artifact-1",
  "contractName": "BettingAIO",
  "sourceName": "contracts/BettingAIO.sol",
  "abi": [
    {
      "inputs": [
        {
          "internalType": "contract BetNFT",
          "name": "_betNFT",
          "type": "address"
        }
      ],
      "stateMutability": "nonpayable",
      "type": "constructor"
    },
    {
      "inputs": [
        {
          "internalType": "uint256",
          "name": "amount",
          "type": "uint256"
        }
      ],
      "name": "AmountToLow",
      "type": "error"
    },
    {
      "inputs": [
        {
          "internalType": "string",
          "name": "objectId",
          "type": "string"
        }
      ],
      "name": "GameAlreadyEnded",
      "type": "error"
    },
    {
      "inputs": [
        {
          "internalType": "uint256",
          "name": "odds",
          "type": "uint256"
        }
      ],
      "name": "OddsToLow",
      "type": "error"
    },
    {
      "anonymous": false,
      "inputs": [
        {
          "indexed": false,
          "internalType": "string",
          "name": "_objectId",
          "type": "string"
        },
        {
          "indexed": false,
          "internalType": "uint256",
          "name": "_tokenId",
          "type": "uint256"
        }
      ],
      "name": "BetConverted",
      "type": "event"
    },
    {
      "anonymous": false,
      "inputs": [
        {
          "indexed": true,
          "internalType": "bytes32",
          "name": "id",
          "type": "bytes32"
        }
      ],
      "name": "ChainlinkCancelled",
      "type": "event"
    },
    {
      "anonymous": false,
      "inputs": [
        {
          "indexed": true,
          "internalType": "bytes32",
          "name": "id",
          "type": "bytes32"
        }
      ],
      "name": "ChainlinkFulfilled",
      "type": "event"
    },
    {
      "anonymous": false,
      "inputs": [
        {
          "indexed": true,
          "internalType": "bytes32",
          "name": "id",
          "type": "bytes32"
        }
      ],
      "name": "ChainlinkRequested",
      "type": "event"
    },
    {
      "anonymous": false,
      "inputs": [
        {
          "indexed": false,
          "internalType": "string",
          "name": "_objectId",
          "type": "string"
        },
        {
          "indexed": false,
          "internalType": "enum BettingAIO.BetSide",
          "name": "_betSide",
          "type": "uint8"
        },
        {
          "indexed": false,
          "internalType": "enum BettingAIO.BetType",
          "name": "_betType",
          "type": "uint8"
        },
        {
          "indexed": false,
          "internalType": "uint8",
          "name": "_selection",
          "type": "uint8"
        },
        {
          "indexed": false,
          "internalType": "uint16",
          "name": "_odds",
          "type": "uint16"
        },
        {
          "indexed": false,
          "internalType": "uint256",
          "name": "_amount",
          "type": "uint256"
        },
        {
          "indexed": false,
          "internalType": "address",
          "name": "_from",
          "type": "address"
        }
      ],
      "name": "MatchedBetPlaced",
      "type": "event"
    },
    {
      "anonymous": false,
      "inputs": [
        {
          "indexed": true,
          "internalType": "address",
          "name": "previousOwner",
          "type": "address"
        },
        {
          "indexed": true,
          "internalType": "address",
          "name": "newOwner",
          "type": "address"
        }
      ],
      "name": "OwnershipTransferred",
      "type": "event"
    },
    {
      "anonymous": false,
      "inputs": [
        {
          "indexed": false,
          "internalType": "string",
          "name": "_objectId",
          "type": "string"
        },
        {
          "indexed": false,
          "internalType": "enum BettingAIO.BetSide",
          "name": "_betSide",
          "type": "uint8"
        },
        {
          "indexed": false,
          "internalType": "enum BettingAIO.BetType",
          "name": "_betType",
          "type": "uint8"
        },
        {
          "indexed": false,
          "internalType": "uint8",
          "name": "_selection",
          "type": "uint8"
        },
        {
          "indexed": false,
          "internalType": "uint16",
          "name": "_odds",
          "type": "uint16"
        },
        {
          "indexed": false,
          "internalType": "uint256",
          "name": "_amount",
          "type": "uint256"
        },
        {
          "indexed": false,
          "internalType": "address",
          "name": "_from",
          "type": "address"
        }
      ],
      "name": "UnmatchedBetPlaced",
      "type": "event"
    },
    {
      "anonymous": false,
      "inputs": [
        {
          "indexed": false,
          "internalType": "string",
          "name": "_objectId",
          "type": "string"
        },
        {
          "indexed": false,
          "internalType": "enum BettingAIO.BetSide",
          "name": "_betSide",
          "type": "uint8"
        },
        {
          "indexed": false,
          "internalType": "enum BettingAIO.BetType",
          "name": "_betType",
          "type": "uint8"
        },
        {
          "indexed": false,
          "internalType": "uint8",
          "name": "_selection",
          "type": "uint8"
        },
        {
          "indexed": false,
          "internalType": "uint16",
          "name": "_odds",
          "type": "uint16"
        },
        {
          "indexed": false,
          "internalType": "uint256",
          "name": "_amount",
          "type": "uint256"
        },
        {
          "indexed": false,
          "internalType": "address",
          "name": "_from",
          "type": "address"
        }
      ],
      "name": "UnmatchedBetRemoved",
      "type": "event"
    },
    {
      "anonymous": false,
      "inputs": [
        {
          "indexed": false,
          "internalType": "string",
          "name": "_objectId",
          "type": "string"
        },
        {
          "indexed": false,
          "internalType": "enum BettingAIO.BetSide",
          "name": "_betSide",
          "type": "uint8"
        },
        {
          "indexed": false,
          "internalType": "enum BettingAIO.BetType",
          "name": "_betType",
          "type": "uint8"
        },
        {
          "indexed": false,
          "internalType": "uint8",
          "name": "_selection",
          "type": "uint8"
        },
        {
          "indexed": false,
          "internalType": "uint16",
          "name": "_odds",
          "type": "uint16"
        },
        {
          "indexed": false,
          "internalType": "uint256",
          "name": "_amount",
          "type": "uint256"
        },
        {
          "indexed": false,
          "internalType": "address",
          "name": "_from",
          "type": "address"
        }
      ],
      "name": "UnmatchedBetUpdated",
      "type": "event"
    },
    {
      "inputs": [],
      "name": "betNFT",
      "outputs": [
        {
          "internalType": "contract BetNFT",
          "name": "",
          "type": "address"
        }
      ],
      "stateMutability": "view",
      "type": "function"
    },
    {
      "inputs": [
        {
          "internalType": "bytes32",
          "name": "_bytes32",
          "type": "bytes32"
        }
      ],
      "name": "bytes32ToString",
      "outputs": [
        {
          "internalType": "string",
          "name": "",
          "type": "string"
        },
        {
          "internalType": "uint8",
          "name": "",
          "type": "uint8"
        }
      ],
      "stateMutability": "pure",
      "type": "function"
    },
    {
      "inputs": [
        {
          "internalType": "string",
          "name": "_objectId",
          "type": "string"
        },
        {
          "internalType": "enum BettingAIO.BetType",
          "name": "_betType",
          "type": "uint8"
        },
        {
          "internalType": "uint8",
          "name": "_selection",
          "type": "uint8"
        },
        {
          "internalType": "uint16",
          "name": "_odds",
          "type": "uint16"
        },
        {
          "internalType": "uint256",
          "name": "_amount",
          "type": "uint256"
        }
      ],
      "name": "createBackBet",
      "outputs": [],
      "stateMutability": "payable",
      "type": "function"
    },
    {
      "inputs": [
        {
          "internalType": "string",
          "name": "_objectId",
          "type": "string"
        },
        {
          "internalType": "enum BettingAIO.BetType",
          "name": "_betType",
          "type": "uint8"
        },
        {
          "internalType": "uint8",
          "name": "_selection",
          "type": "uint8"
        },
        {
          "internalType": "uint16",
          "name": "_odds",
          "type": "uint16"
        },
        {
          "internalType": "uint256",
          "name": "_amount",
          "type": "uint256"
        }
      ],
      "name": "createLayBet",
      "outputs": [],
      "stateMutability": "payable",
      "type": "function"
    },
    {
      "inputs": [
        {
          "internalType": "bytes32",
          "name": "_requestId",
          "type": "bytes32"
        },
        {
          "internalType": "bytes32",
          "name": "_data",
          "type": "bytes32"
        }
      ],
      "name": "fulfill",
      "outputs": [],
      "stateMutability": "nonpayable",
      "type": "function"
    },
    {
      "inputs": [
        {
          "internalType": "string",
          "name": "_objectId",
          "type": "string"
        },
        {
          "internalType": "enum BettingAIO.BetSide",
          "name": "_betSide",
          "type": "uint8"
        },
        {
          "internalType": "uint8",
          "name": "_selection",
          "type": "uint8"
        }
      ],
      "name": "hasMatchWinnerWon",
      "outputs": [
        {
          "internalType": "bool",
          "name": "",
          "type": "bool"
        }
      ],
      "stateMutability": "view",
      "type": "function"
    },
    {
      "inputs": [],
      "name": "owner",
      "outputs": [
        {
          "internalType": "address",
          "name": "",
          "type": "address"
        }
      ],
      "stateMutability": "view",
      "type": "function"
    },
    {
      "inputs": [],
      "name": "renounceOwnership",
      "outputs": [],
      "stateMutability": "nonpayable",
      "type": "function"
    },
    {
      "inputs": [
        {
          "internalType": "string",
          "name": "_objectId",
          "type": "string"
        }
      ],
      "name": "requestResult",
      "outputs": [
        {
          "internalType": "bytes32",
          "name": "requestId",
          "type": "bytes32"
        }
      ],
      "stateMutability": "nonpayable",
      "type": "function"
    },
    {
      "inputs": [
        {
          "internalType": "string",
          "name": "_objectId",
          "type": "string"
        },
        {
          "internalType": "enum BettingAIO.BetSide",
          "name": "_betSide",
          "type": "uint8"
        },
        {
          "internalType": "enum BettingAIO.BetType",
          "name": "_betType",
          "type": "uint8"
        },
        {
          "internalType": "uint8",
          "name": "_selection",
          "type": "uint8"
        },
        {
          "internalType": "uint16",
          "name": "_odds",
          "type": "uint16"
        },
        {
          "internalType": "string",
          "name": "_tokenURI",
          "type": "string"
        }
      ],
      "name": "transferBetToNFT",
      "outputs": [
        {
          "internalType": "uint256",
          "name": "",
          "type": "uint256"
        }
      ],
      "stateMutability": "nonpayable",
      "type": "function"
    },
    {
      "inputs": [
        {
          "internalType": "address",
          "name": "newOwner",
          "type": "address"
        }
      ],
      "name": "transferOwnership",
      "outputs": [],
      "stateMutability": "nonpayable",
      "type": "function"
    },
    {
      "inputs": [
        {
          "internalType": "string",
          "name": "_objectId",
          "type": "string"
        },
        {
          "internalType": "uint256",
          "name": "tokenId",
          "type": "uint256"
        }
      ],
      "name": "withdrawWithNFT",
      "outputs": [],
      "stateMutability": "payable",
      "type": "function"
    }
  ],
  "bytecode": "0x608060405260016005553480156200001657600080fd5b5060405162004aeb38038062004aeb83398181016040528101906200003c9190620002e1565b6200005c620000506200015360201b60201c565b6200015b60201b60201c565b6200008173326c977e6efc84e512bb9c30f76e30c160ed06fb6200021f60201b60201c565b73c8d925525ca8759812d0c299b90247917d4d4b7c600760006101000a81548173ffffffffffffffffffffffffffffffffffffffff021916908373ffffffffffffffffffffffffffffffffffffffff1602179055507f3765636237343735336534313462353462323665643162393131623838643637600881905550662386f26fc1000060098190555080600a60006101000a81548173ffffffffffffffffffffffffffffffffffffffff021916908373ffffffffffffffffffffffffffffffffffffffff1602179055505062000313565b600033905090565b60008060009054906101000a900473ffffffffffffffffffffffffffffffffffffffff169050816000806101000a81548173ffffffffffffffffffffffffffffffffffffffff021916908373ffffffffffffffffffffffffffffffffffffffff1602179055508173ffffffffffffffffffffffffffffffffffffffff168173ffffffffffffffffffffffffffffffffffffffff167f8be0079c531659141344cd1fd0a4f28419497f9722a3daafe3b4186f6b6457e060405160405180910390a35050565b80600360006101000a81548173ffffffffffffffffffffffffffffffffffffffff021916908373ffffffffffffffffffffffffffffffffffffffff16021790555050565b600080fd5b600073ffffffffffffffffffffffffffffffffffffffff82169050919050565b6000620002958262000268565b9050919050565b6000620002a98262000288565b9050919050565b620002bb816200029c565b8114620002c757600080fd5b50565b600081519050620002db81620002b0565b92915050565b600060208284031215620002fa57620002f962000263565b5b60006200030a84828501620002ca565b91505092915050565b6147c880620003236000396000f3fe6080604052600436106100a75760003560e01c80639201de55116100645780639201de551461017a578063a9583d32146101b8578063db3174ec146101f5578063e603c21914610232578063f2fde38b1461024e578063f96cb2df14610277576100a7565b8063042f2b65146100ac578063100a56c5146100d55780633195d58d146100f15780636920f52b1461010d578063715018a6146101385780638da5cb5b1461014f575b600080fd5b3480156100b857600080fd5b506100d360048036038101906100ce9190613134565b6102b4565b005b6100ef60048036038101906100ea91906132a7565b6104b5565b005b61010b60048036038101906101069190613341565b610685565b005b34801561011957600080fd5b50610122610807565b60405161012f9190613420565b60405180910390f35b34801561014457600080fd5b5061014d61082d565b005b34801561015b57600080fd5b506101646108b5565b604051610171919061345c565b60405180910390f35b34801561018657600080fd5b506101a1600480360381019061019c9190613477565b6108de565b6040516101af92919061354c565b60405180910390f35b3480156101c457600080fd5b506101df60048036038101906101da91906136ac565b610afb565b6040516101ec9190613704565b60405180910390f35b34801561020157600080fd5b5061021c60048036038101906102179190613744565b610b95565b6040516102299190613822565b60405180910390f35b61024c600480360381019061024791906132a7565b61133d565b005b34801561025a57600080fd5b5061027560048036038101906102709190613869565b61153a565b005b34801561028357600080fd5b5061029e60048036038101906102999190613896565b611632565b6040516102ab9190613920565b60405180910390f35b816006600082815260200190815260200160002060009054906101000a900473ffffffffffffffffffffffffffffffffffffffff1673ffffffffffffffffffffffffffffffffffffffff163373ffffffffffffffffffffffffffffffffffffffff1614610356576040517f08c379a000000000000000000000000000000000000000000000000000000000815260040161034d906139ad565b60405180910390fd5b6006600082815260200190815260200160002060006101000a81549073ffffffffffffffffffffffffffffffffffffffff0219169055807f7cc135e0cebb02c3480ae5d74d377283180a2601f8f644edf7987b009316c63a60405160405180910390a26000806103c5846108de565b91509150806012836040516103da9190613a09565b908152602001604051809103902060006101000a81548160ff021916908360ff1602179055506000600181111561041457610413613a20565b5b600b836040516104249190613a09565b908152602001604051809103902060000160009054906101000a900460ff16600181111561045557610454613a20565b5b146104ae57610463826117a9565b6001600b836040516104759190613a09565b908152602001604051809103902060000160006101000a81548160ff021916908360018111156104a8576104a7613a20565b5b02179055505b5050505050565b85856001808111156104ca576104c9613a20565b5b600b83836040516104dc929190613a74565b908152602001604051809103902060000160009054906101000a900460ff16600181111561050d5761050c613a20565b5b14156105525781816040517f1b21b921000000000000000000000000000000000000000000000000000000008152600401610549929190613aba565b60405180910390fd5b346000811161059857806040517fd59f5ff000000000000000000000000000000000000000000000000000000000815260040161058f9190613822565b60405180910390fd5b8461ffff166103e881116105e357806040517fa0c5f30c0000000000000000000000000000000000000000000000000000000081526004016105da9190613822565b60405180910390fd5b348514610625576040517f08c379a000000000000000000000000000000000000000000000000000000000815260040161061c90613b50565b60405180910390fd5b6106798a8a8080601f016020809104026020016040519081016040528093929190818152602001838380828437600081840152601f19601f8201169050808301925050505050505060008a8a8a8a33611d8d565b50505050505050505050565b600a60009054906101000a900473ffffffffffffffffffffffffffffffffffffffff1673ffffffffffffffffffffffffffffffffffffffff1663ac7aae4233836040518363ffffffff1660e01b81526004016106e2929190613b70565b600060405180830381600087803b1580156106fc57600080fd5b505af1158015610710573d6000803e3d6000fd5b5050505060108383604051610726929190613a74565b9081526020016040518091039020600082815260200190815260200160002060009054906101000a900460ff16610792576040517f08c379a000000000000000000000000000000000000000000000000000000000815260040161078990613be5565b60405180910390fd5b6107cd33600f85856040516107a8929190613a74565b90815260200160405180910390206000848152602001908152602001600020546121d6565b600f83836040516107df929190613a74565b9081526020016040518091039020600082815260200190815260200160002060009055505050565b600a60009054906101000a900473ffffffffffffffffffffffffffffffffffffffff1681565b610835612221565b73ffffffffffffffffffffffffffffffffffffffff166108536108b5565b73ffffffffffffffffffffffffffffffffffffffff16146108a9576040517f08c379a00000000000000000000000000000000000000000000000000000000081526004016108a090613c51565b60405180910390fd5b6108b36000612229565b565b60008060009054906101000a900473ffffffffffffffffffffffffffffffffffffffff16905090565b6060600080600090506000805b60208360ff1610801561093d5750600060f81b868460ff166020811061091457610913613c71565b5b1a60f81b7effffffffffffffffffffffffffffffffffffffffffffffffffffffffffffff191614155b1561095557828061094d90613ccf565b9350506108eb565b60006001846109649190613cf9565b905060008160ff1667ffffffffffffffff81111561098557610984613581565b5b6040519080825280601f01601f1916602001820160405280156109b75781602001600182028036833780820191505090505b509050600094505b60208560ff16108015610a115750600060f81b888660ff16602081106109e8576109e7613c71565b5b1a60f81b7effffffffffffffffffffffffffffffffffffffffffffffffffffffffffffff191614155b15610adf578160ff168560ff161015610a8457878560ff1660208110610a3a57610a39613c71565b5b1a60f81b818660ff1681518110610a5457610a53613c71565b5b60200101907effffffffffffffffffffffffffffffffffffffffffffffffffffffffffffff1916908160001a9053505b6030888660ff1660208110610a9c57610a9b613c71565b5b1a60f81b60f81c610aad9190613cf9565b93508360ff16600a84610ac09190613d2d565b610aca9190613d87565b92508480610ad790613ccf565b9550506109bf565b80600a84610aed9190613e0c565b965096505050505050915091565b600080610b126008543063042f2b6560e01b6122ed565b9050610b5e6040518060400160405280600981526020017f6669787475726549640000000000000000000000000000000000000000000000815250848361231e9092919063ffffffff16565b610b8d600760009054906101000a900473ffffffffffffffffffffffffffffffffffffffff1682600954612351565b915050919050565b6000806000905060005b600d8b8b604051610bb1929190613a74565b908152602001604051809103902060008a6001811115610bd457610bd3613a20565b5b6001811115610be657610be5613a20565b5b81526020019081526020016000206000896000811115610c0957610c08613a20565b5b6000811115610c1b57610c1a613a20565b5b815260200190815260200160002060008860ff1660ff16815260200190815260200160002080549050811015610f3d573373ffffffffffffffffffffffffffffffffffffffff16600d8c8c604051610c74929190613a74565b908152602001604051809103902060008b6001811115610c9757610c96613a20565b5b6001811115610ca957610ca8613a20565b5b815260200190815260200160002060008a6000811115610ccc57610ccb613a20565b5b6000811115610cde57610cdd613a20565b5b815260200190815260200160002060008960ff1660ff1681526020019081526020016000208281548110610d1557610d14613c71565b5b906000526020600020906002020160010160029054906101000a900473ffffffffffffffffffffffffffffffffffffffff1673ffffffffffffffffffffffffffffffffffffffff16148015610e4357508561ffff16600d8c8c604051610d7c929190613a74565b908152602001604051809103902060008b6001811115610d9f57610d9e613a20565b5b6001811115610db157610db0613a20565b5b815260200190815260200160002060008a6000811115610dd457610dd3613a20565b5b6000811115610de657610de5613a20565b5b815260200190815260200160002060008960ff1660ff1681526020019081526020016000208281548110610e1d57610e1c613c71565b5b906000526020600020906002020160010160009054906101000a900461ffff1661ffff16145b15610f2a576001600d8c8c604051610e5c929190613a74565b908152602001604051809103902060008b6001811115610e7f57610e7e613a20565b5b6001811115610e9157610e90613a20565b5b815260200190815260200160002060008a6000811115610eb457610eb3613a20565b5b6000811115610ec657610ec5613a20565b5b815260200190815260200160002060008960ff1660ff1681526020019081526020016000208281548110610efd57610efc613c71565b5b906000526020600020906002020160010160166101000a81548160ff021916908315150217905550600191505b8080610f3590613e3d565b915050610b9f565b5080610f7e576040517f08c379a0000000000000000000000000000000000000000000000000000000008152600401610f7590613ed2565b60405180910390fd5b600060118b8b604051610f92929190613a74565b908152602001604051809103902054905060118b8b604051610fb5929190613a74565b90815260200160405180910390206000815480929190610fd490613e3d565b9190505550600061102d8c8c8080601f016020809104026020016040519081016040528093929190818152602001838380828437600081840152601f19601f820116905080830192505050505050508b8b8b8b33612371565b9050600a60009054906101000a900473ffffffffffffffffffffffffffffffffffffffff1673ffffffffffffffffffffffffffffffffffffffff1663e86f636733838f8f878c8c6040518863ffffffff1660e01b81526004016110969796959493929190613ef2565b600060405180830381600087803b1580156110b057600080fd5b505af11580156110c4573d6000803e3d6000fd5b50505050600e8c8c6040516110da929190613a74565b908152602001604051809103902060008b60018111156110fd576110fc613a20565b5b600181111561110f5761110e613a20565b5b815260200190815260200160002060008a600081111561113257611131613a20565b5b600081111561114457611143613a20565b5b815260200190815260200160002060008960ff1660ff16815260200190815260200160002060008861ffff1661ffff16815260200190815260200160002060003373ffffffffffffffffffffffffffffffffffffffff1673ffffffffffffffffffffffffffffffffffffffff16815260200190815260200160002054600f8d8d6040516111d2929190613a74565b9081526020016040518091039020600083815260200190815260200160002081905550600e8c8c604051611207929190613a74565b908152602001604051809103902060008b600181111561122a57611229613a20565b5b600181111561123c5761123b613a20565b5b815260200190815260200160002060008a600081111561125f5761125e613a20565b5b600081111561127157611270613a20565b5b815260200190815260200160002060008960ff1660ff16815260200190815260200160002060008861ffff1661ffff16815260200190815260200160002060003373ffffffffffffffffffffffffffffffffffffffff1673ffffffffffffffffffffffffffffffffffffffff168152602001908152602001600020600090557f5089770ecce0ed387baf1e3b000fcc13bd3c2205d6205f06afeb547db5f2321e8c8c8360405161132393929190613f57565b60405180910390a180935050505098975050505050505050565b858560018081111561135257611351613a20565b5b600b8383604051611364929190613a74565b908152602001604051809103902060000160009054906101000a900460ff16600181111561139557611394613a20565b5b14156113da5781816040517f1b21b9210000000000000000000000000000000000000000000000000000000081526004016113d1929190613aba565b60405180910390fd5b346000811161142057806040517fd59f5ff00000000000000000000000000000000000000000000000000000000081526004016114179190613822565b60405180910390fd5b8461ffff166103e8811161146b57806040517fa0c5f30c0000000000000000000000000000000000000000000000000000000081526004016114629190613822565b60405180910390fd5b60006103e8808861147c9190613f89565b61ffff168761148b9190613d2d565b6114959190613fbd565b90503481146114d9576040517f08c379a00000000000000000000000000000000000000000000000000000000081526004016114d090614060565b60405180910390fd5b61152d8b8b8080601f016020809104026020016040519081016040528093929190818152602001838380828437600081840152601f19601f8201169050808301925050505050505060018b8b8b8b33611d8d565b5050505050505050505050565b611542612221565b73ffffffffffffffffffffffffffffffffffffffff166115606108b5565b73ffffffffffffffffffffffffffffffffffffffff16146115b6576040517f08c379a00000000000000000000000000000000000000000000000000000000081526004016115ad90613c51565b60405180910390fd5b600073ffffffffffffffffffffffffffffffffffffffff168173ffffffffffffffffffffffffffffffffffffffff161415611626576040517f08c379a000000000000000000000000000000000000000000000000000000000815260040161161d906140f2565b60405180910390fd5b61162f81612229565b50565b6000806012856040516116459190613a09565b908152602001604051809103902060009054906101000a900460ff16905060008160ff1614156116aa576040517f08c379a00000000000000000000000000000000000000000000000000000000081526004016116a19061415e565b60405180910390fd5b60008360ff16141561170257600060018111156116ca576116c9613a20565b5b8460018111156116dd576116dc613a20565b5b14156116f25760018160ff16149150506117a2565b60018160ff1614159150506117a2565b60018360ff16141561175a576000600181111561172257611721613a20565b5b84600181111561173557611734613a20565b5b141561174a5760038160ff16149150506117a2565b60038160ff1614159150506117a2565b6000600181111561176e5761176d613a20565b5b84600181111561178157611780613a20565b5b14156117965760028160ff16149150506117a2565b60028160ff1614159150505b9392505050565b6001600b826040516117bb9190613a09565b908152602001604051809103902060000160006101000a81548160ff021916908360018111156117ee576117ed613a20565b5b021790555060005b60018160ff161015611d895760008160ff16600081111561181a57611819613a20565b5b905060005b60038160ff161015611d74576000819050600061183e86600084611632565b905060006001151582151514611855576001611858565b60005b90506000600d8860405161186c9190613a09565b9081526020016040518091039020600083600181111561188f5761188e613a20565b5b60018111156118a1576118a0613a20565b5b815260200190815260200160002060008760008111156118c4576118c3613a20565b5b60008111156118d6576118d5613a20565b5b815260200190815260200160002060008560ff1660ff168152602001908152602001600020805480602002602001604051908101604052809291908181526020016000905b828210156119e85783829060005260206000209060020201604051806080016040529081600082015481526020016001820160009054906101000a900461ffff1661ffff1661ffff1681526020016001820160029054906101000a900473ffffffffffffffffffffffffffffffffffffffff1673ffffffffffffffffffffffffffffffffffffffff1673ffffffffffffffffffffffffffffffffffffffff1681526020016001820160169054906101000a900460ff1615151515815250508152602001906001019061191b565b50505050905060005b8151811015611d5c57818181518110611a0d57611a0c613c71565b5b60200260200101516060015115611aba576000611a6a8a858a89878781518110611a3a57611a39613c71565b5b602002602001015160200151888881518110611a5957611a58613c71565b5b602002602001015160400151612371565b9050600160108b604051611a7e9190613a09565b9081526020016040518091039020600083815260200190815260200160002060006101000a81548160ff02191690831515021790555050611d49565b611c13828281518110611ad057611acf613c71565b5b602002602001015160400151600e8b604051611aec9190613a09565b90815260200160405180910390206000866001811115611b0f57611b0e613a20565b5b6001811115611b2157611b20613a20565b5b815260200190815260200160002060008a6000811115611b4457611b43613a20565b5b6000811115611b5657611b55613a20565b5b815260200190815260200160002060008860ff1660ff1681526020019081526020016000206000858581518110611b9057611b8f613c71565b5b60200260200101516020015161ffff1661ffff1681526020019081526020016000206000858581518110611bc757611bc6613c71565b5b60200260200101516040015173ffffffffffffffffffffffffffffffffffffffff1673ffffffffffffffffffffffffffffffffffffffff168152602001908152602001600020546121d6565b600e89604051611c239190613a09565b90815260200160405180910390206000846001811115611c4657611c45613a20565b5b6001811115611c5857611c57613a20565b5b81526020019081526020016000206000886000811115611c7b57611c7a613a20565b5b6000811115611c8d57611c8c613a20565b5b815260200190815260200160002060008660ff1660ff1681526020019081526020016000206000838381518110611cc757611cc6613c71565b5b60200260200101516020015161ffff1661ffff1681526020019081526020016000206000838381518110611cfe57611cfd613c71565b5b60200260200101516040015173ffffffffffffffffffffffffffffffffffffffff1673ffffffffffffffffffffffffffffffffffffffff168152602001908152602001600020600090555b8080611d5490613e3d565b9150506119f1565b50505050508080611d6c90613ccf565b91505061181f565b50508080611d8190613ccf565b9150506117f6565b5050565b6000866001811115611da257611da1613a20565b5b60006001811115611db657611db5613a20565b5b14611dc2576000611dc5565b60015b90506000600c89604051611dd99190613a09565b90815260200160405180910390206000836001811115611dfc57611dfb613a20565b5b6001811115611e0e57611e0d613a20565b5b81526020019081526020016000206000886000811115611e3157611e30613a20565b5b6000811115611e4357611e42613a20565b5b815260200190815260200160002060008760ff1660ff16815260200190815260200160002060008661ffff1661ffff168152602001908152602001600020805480602002602001604051908101604052809291908181526020016000905b82821015611f335783829060005260206000209060020201604051806040016040529081600082015481526020016001820160009054906101000a900473ffffffffffffffffffffffffffffffffffffffff1673ffffffffffffffffffffffffffffffffffffffff1673ffffffffffffffffffffffffffffffffffffffff168152505081526020019060010190611ea1565b505050509050600081511415611f5957611f52898989898989896123b7565b50506121cd565b600084905060005b825181101561219f576000838281518110611f7f57611f7e613c71565b5b602002602001015160000151831115611fc657838281518110611fa557611fa4613c71565b5b60200260200101516000015190508083611fbf919061417e565b9250611fd8565b8290508083611fd5919061417e565b92505b6120058c868c8c8c868a8981518110611ff457611ff3613c71565b5b602002602001015160200151612562565b83828151811061201857612017613c71565b5b6020026020010151600001518114156120b6577f0ade976e65f3978aa3968af04901755321152ba32b08ee0175e035760c11c1b58c868c8c8c868a898151811061206557612064613c71565b5b6020026020010151602001516040516120849796959493929190614251565b60405180910390a183828151811061209f5761209e613c71565b5b602002602001016120ae613033565b815250612169565b808483815181106120ca576120c9613c71565b5b60200260200101516000018181516120e2919061417e565b915081815250507f3f3925f6afe1ab09977ba289dc98c6334b2773372c1f7eaf605cedb85c643f018c868c8c8c89888151811061212257612121613c71565b5b6020026020010151600001518a898151811061214157612140613c71565b5b6020026020010151602001516040516121609796959493929190614251565b60405180910390a15b600083141561218b576121818c8c8c8c8c8c8c612562565b50505050506121cd565b50808061219790613e3d565b915050611f61565b506121ba8a8a8a8a8a868b6121b4919061417e565b8a612562565b6121c98a8a8a8a8a868a6123b7565b5050505b50505050505050565b8173ffffffffffffffffffffffffffffffffffffffff166108fc829081150290604051600060405180830381858888f1935050505015801561221c573d6000803e3d6000fd5b505050565b600033905090565b60008060009054906101000a900473ffffffffffffffffffffffffffffffffffffffff169050816000806101000a81548173ffffffffffffffffffffffffffffffffffffffff021916908373ffffffffffffffffffffffffffffffffffffffff1602179055508173ffffffffffffffffffffffffffffffffffffffff168173ffffffffffffffffffffffffffffffffffffffff167f8be0079c531659141344cd1fd0a4f28419497f9722a3daafe3b4186f6b6457e060405160405180910390a35050565b6122f5613063565b6122fd613063565b612314858585846128b4909392919063ffffffff16565b9150509392505050565b61233582846080015161296490919063ffffffff16565b61234c81846080015161296490919063ffffffff16565b505050565b60006123688484846001634042994660e01b612989565b90509392505050565b6000610fff878388888888604051602001612391969594939291906142c7565b6040516020818303038152906040528051906020012060001c1690509695505050505050565b600c876040516123c79190613a09565b908152602001604051809103902060008760018111156123ea576123e9613a20565b5b60018111156123fc576123fb613a20565b5b8152602001908152602001600020600086600081111561241f5761241e613a20565b5b600081111561243157612430613a20565b5b815260200190815260200160002060008560ff1660ff16815260200190815260200160002060008461ffff1661ffff16815260200190815260200160002060405180604001604052808481526020018373ffffffffffffffffffffffffffffffffffffffff1681525090806001815401808255809150506001900390600052602060002090600202016000909190919091506000820151816000015560208201518160010160006101000a81548173ffffffffffffffffffffffffffffffffffffffff021916908373ffffffffffffffffffffffffffffffffffffffff16021790555050507fd9ead39440c1245780b4d6d60aa95d35bbac48e0d9cdf2b29e0e33f5e75aedbe878787878787876040516125519796959493929190614251565b60405180910390a150505050505050565b60008290506000600181111561257b5761257a613a20565b5b87600181111561258e5761258d613a20565b5b14156125bf576103e880856125a39190613f89565b61ffff16846125b29190613d2d565b6125bc9190613fbd565b90505b80600e896040516125d09190613a09565b908152602001604051809103902060008960018111156125f3576125f2613a20565b5b600181111561260557612604613a20565b5b8152602001908152602001600020600088600081111561262857612627613a20565b5b600081111561263a57612639613a20565b5b815260200190815260200160002060008760ff1660ff16815260200190815260200160002060008661ffff1661ffff16815260200190815260200160002060008473ffffffffffffffffffffffffffffffffffffffff1673ffffffffffffffffffffffffffffffffffffffff16815260200190815260200160002060008282546126c49190613d87565b92505081905550600d886040516126db9190613a09565b908152602001604051809103902060008860018111156126fe576126fd613a20565b5b60018111156127105761270f613a20565b5b8152602001908152602001600020600087600081111561273357612732613a20565b5b600081111561274557612744613a20565b5b815260200190815260200160002060008660ff1660ff16815260200190815260200160002060405180608001604052808581526020018661ffff1681526020018473ffffffffffffffffffffffffffffffffffffffff1681526020016000151581525090806001815401808255809150506001900390600052602060002090600202016000909190919091506000820151816000015560208201518160010160006101000a81548161ffff021916908361ffff16021790555060408201518160010160026101000a81548173ffffffffffffffffffffffffffffffffffffffff021916908373ffffffffffffffffffffffffffffffffffffffff16021790555060608201518160010160166101000a81548160ff02191690831515021790555050507f0fca364a96d7ed643a08a7b3f2be55b7e2993632ce10f4c978dc379198544f7d888888888888886040516128a29796959493929190614251565b60405180910390a15050505050505050565b6128bc613063565b6128cc8560800151610100612bf1565b508385600001818152505082856020019073ffffffffffffffffffffffffffffffffffffffff16908173ffffffffffffffffffffffffffffffffffffffff16815250508185604001907bffffffffffffffffffffffffffffffffffffffffffffffffffffffff191690817bffffffffffffffffffffffffffffffffffffffffffffffffffffffff191681525050849050949350505050565b6129718260038351612c5b565b6129848183612da090919063ffffffff16565b505050565b6000306005546040516020016129a09291906143aa565b604051602081830303815290604052805190602001209050600554856060018181525050856006600083815260200190815260200160002060006101000a81548173ffffffffffffffffffffffffffffffffffffffff021916908373ffffffffffffffffffffffffffffffffffffffff160217905550807fb5e6e01e79f91267dc17b4e6314d5d4d03593d2ceee0fbb452b750bd70ea5af960405160405180910390a2600082600080886000015189602001518a604001518b606001518a8d6080015160000151604051602401612a7e989796959493929190614466565b604051602081830303815290604052907bffffffffffffffffffffffffffffffffffffffffffffffffffffffff19166020820180517bffffffffffffffffffffffffffffffffffffffffffffffffffffffff83818316178352505050509050600360009054906101000a900473ffffffffffffffffffffffffffffffffffffffff1673ffffffffffffffffffffffffffffffffffffffff16634000aea08887846040518463ffffffff1660e01b8152600401612b3c939291906144eb565b602060405180830381600087803b158015612b5657600080fd5b505af1158015612b6a573d6000803e3d6000fd5b505050506040513d601f19601f82011682018060405250810190612b8e9190614555565b612bcd576040517f08c379a0000000000000000000000000000000000000000000000000000000008152600401612bc4906145f4565b60405180910390fd5b600160056000828254612be09190613d87565b925050819055505095945050505050565b612bf96130d0565b6000602083612c089190613e0c565b14612c3457602082612c1a9190613e0c565b6020612c26919061417e565b82612c319190613d87565b91505b81836020018181525050604051808452600081528281016020016040525082905092915050565b60178111612c8857612c828160058460ff16901b60ff161784612dc290919063ffffffff16565b50612d9b565b60ff8111612cca57612cad601860058460ff16901b1784612dc290919063ffffffff16565b50612cc481600185612de29092919063ffffffff16565b50612d9a565b61ffff8111612d0d57612cf0601960058460ff16901b1784612dc290919063ffffffff16565b50612d0781600285612de29092919063ffffffff16565b50612d99565b63ffffffff8111612d5257612d35601a60058460ff16901b1784612dc290919063ffffffff16565b50612d4c81600485612de29092919063ffffffff16565b50612d98565b67ffffffffffffffff8111612d9757612d7e601b60058460ff16901b1784612dc290919063ffffffff16565b50612d9581600885612de29092919063ffffffff16565b505b5b5b5b5b505050565b612da86130d0565b612dba83846000015151848551612e04565b905092915050565b612dca6130d0565b612dda8384600001515184612f0e565b905092915050565b612dea6130d0565b612dfb848560000151518585612f65565b90509392505050565b612e0c6130d0565b8251821115612e1a57600080fd5b84602001518285612e2b9190613d87565b1115612e6057612e5f856002612e5088602001518887612e4b9190613d87565b612ff3565b612e5a9190613d2d565b61300f565b5b600080865180518760208301019350808887011115612e7f5787860182525b60208701925050505b60208410612ec65780518252602082612ea19190613d87565b9150602081612eb09190613d87565b9050602084612ebf919061417e565b9350612e88565b60006001856020612ed7919061417e565b610100612ee49190614747565b612eee919061417e565b905080198251168184511681811785525050879350505050949350505050565b612f166130d0565b83602001518310612f3c57612f3b8460028660200151612f369190613d2d565b61300f565b5b8351805160208583010184815381861415612f58576001820183525b5050508390509392505050565b612f6d6130d0565b84602001518483612f7e9190613d87565b1115612fa657612fa58560028685612f969190613d87565b612fa09190613d2d565b61300f565b5b6000600183610100612fb89190614747565b612fc2919061417e565b90508551838682010185831982511617815281518588011115612fe55784870182525b505085915050949350505050565b60008183111561300557829050613009565b8190505b92915050565b6000826000015190506130228383612bf1565b5061302d8382612da0565b50505050565b604051806040016040528060008152602001600073ffffffffffffffffffffffffffffffffffffffff1681525090565b6040518060a0016040528060008019168152602001600073ffffffffffffffffffffffffffffffffffffffff16815260200160007bffffffffffffffffffffffffffffffffffffffffffffffffffffffff19168152602001600081526020016130ca6130d0565b81525090565b604051806040016040528060608152602001600081525090565b6000604051905090565b600080fd5b600080fd5b6000819050919050565b613111816130fe565b811461311c57600080fd5b50565b60008135905061312e81613108565b92915050565b6000806040838503121561314b5761314a6130f4565b5b60006131598582860161311f565b925050602061316a8582860161311f565b9150509250929050565b600080fd5b600080fd5b600080fd5b60008083601f84011261319957613198613174565b5b8235905067ffffffffffffffff8111156131b6576131b5613179565b5b6020830191508360018202830111156131d2576131d161317e565b5b9250929050565b600181106131e657600080fd5b50565b6000813590506131f8816131d9565b92915050565b600060ff82169050919050565b613214816131fe565b811461321f57600080fd5b50565b6000813590506132318161320b565b92915050565b600061ffff82169050919050565b61324e81613237565b811461325957600080fd5b50565b60008135905061326b81613245565b92915050565b6000819050919050565b61328481613271565b811461328f57600080fd5b50565b6000813590506132a18161327b565b92915050565b60008060008060008060a087890312156132c4576132c36130f4565b5b600087013567ffffffffffffffff8111156132e2576132e16130f9565b5b6132ee89828a01613183565b9650965050602061330189828a016131e9565b945050604061331289828a01613222565b935050606061332389828a0161325c565b925050608061333489828a01613292565b9150509295509295509295565b60008060006040848603121561335a576133596130f4565b5b600084013567ffffffffffffffff811115613378576133776130f9565b5b61338486828701613183565b9350935050602061339786828701613292565b9150509250925092565b600073ffffffffffffffffffffffffffffffffffffffff82169050919050565b6000819050919050565b60006133e66133e16133dc846133a1565b6133c1565b6133a1565b9050919050565b60006133f8826133cb565b9050919050565b600061340a826133ed565b9050919050565b61341a816133ff565b82525050565b60006020820190506134356000830184613411565b92915050565b6000613446826133a1565b9050919050565b6134568161343b565b82525050565b6000602082019050613471600083018461344d565b92915050565b60006020828403121561348d5761348c6130f4565b5b600061349b8482850161311f565b91505092915050565b600081519050919050565b600082825260208201905092915050565b60005b838110156134de5780820151818401526020810190506134c3565b838111156134ed576000848401525b50505050565b6000601f19601f8301169050919050565b600061350f826134a4565b61351981856134af565b93506135298185602086016134c0565b613532816134f3565b840191505092915050565b613546816131fe565b82525050565b600060408201905081810360008301526135668185613504565b9050613575602083018461353d565b9392505050565b600080fd5b7f4e487b7100000000000000000000000000000000000000000000000000000000600052604160045260246000fd5b6135b9826134f3565b810181811067ffffffffffffffff821117156135d8576135d7613581565b5b80604052505050565b60006135eb6130ea565b90506135f782826135b0565b919050565b600067ffffffffffffffff82111561361757613616613581565b5b613620826134f3565b9050602081019050919050565b82818337600083830152505050565b600061364f61364a846135fc565b6135e1565b90508281526020810184848401111561366b5761366a61357c565b5b61367684828561362d565b509392505050565b600082601f83011261369357613692613174565b5b81356136a384826020860161363c565b91505092915050565b6000602082840312156136c2576136c16130f4565b5b600082013567ffffffffffffffff8111156136e0576136df6130f9565b5b6136ec8482850161367e565b91505092915050565b6136fe816130fe565b82525050565b600060208201905061371960008301846136f5565b92915050565b6002811061372c57600080fd5b50565b60008135905061373e8161371f565b92915050565b60008060008060008060008060c0898b031215613764576137636130f4565b5b600089013567ffffffffffffffff811115613782576137816130f9565b5b61378e8b828c01613183565b985098505060206137a18b828c0161372f565b96505060406137b28b828c016131e9565b95505060606137c38b828c01613222565b94505060806137d48b828c0161325c565b93505060a089013567ffffffffffffffff8111156137f5576137f46130f9565b5b6138018b828c01613183565b92509250509295985092959890939650565b61381c81613271565b82525050565b60006020820190506138376000830184613813565b92915050565b6138468161343b565b811461385157600080fd5b50565b6000813590506138638161383d565b92915050565b60006020828403121561387f5761387e6130f4565b5b600061388d84828501613854565b91505092915050565b6000806000606084860312156138af576138ae6130f4565b5b600084013567ffffffffffffffff8111156138cd576138cc6130f9565b5b6138d98682870161367e565b93505060206138ea8682870161372f565b92505060406138fb86828701613222565b9150509250925092565b60008115159050919050565b61391a81613905565b82525050565b60006020820190506139356000830184613911565b92915050565b7f536f75726365206d75737420626520746865206f7261636c65206f662074686560008201527f2072657175657374000000000000000000000000000000000000000000000000602082015250565b60006139976028836134af565b91506139a28261393b565b604082019050919050565b600060208201905081810360008301526139c68161398a565b9050919050565b600081905092915050565b60006139e3826134a4565b6139ed81856139cd565b93506139fd8185602086016134c0565b80840191505092915050565b6000613a1582846139d8565b915081905092915050565b7f4e487b7100000000000000000000000000000000000000000000000000000000600052602160045260246000fd5b6000613a5b83856139cd565b9350613a6883858461362d565b82840190509392505050565b6000613a81828486613a4f565b91508190509392505050565b6000613a9983856134af565b9350613aa683858461362d565b613aaf836134f3565b840190509392505050565b60006020820190508181036000830152613ad5818486613a8d565b90509392505050565b7f416d6f756e7420616e642073656e642076616c756520617265206e6f7420657160008201527f75616c2100000000000000000000000000000000000000000000000000000000602082015250565b6000613b3a6024836134af565b9150613b4582613ade565b604082019050919050565b60006020820190508181036000830152613b6981613b2d565b9050919050565b6000604082019050613b85600083018561344d565b613b926020830184613813565b9392505050565b7f426574206c6f7374000000000000000000000000000000000000000000000000600082015250565b6000613bcf6008836134af565b9150613bda82613b99565b602082019050919050565b60006020820190508181036000830152613bfe81613bc2565b9050919050565b7f4f776e61626c653a2063616c6c6572206973206e6f7420746865206f776e6572600082015250565b6000613c3b6020836134af565b9150613c4682613c05565b602082019050919050565b60006020820190508181036000830152613c6a81613c2e565b9050919050565b7f4e487b7100000000000000000000000000000000000000000000000000000000600052603260045260246000fd5b7f4e487b7100000000000000000000000000000000000000000000000000000000600052601160045260246000fd5b6000613cda826131fe565b915060ff821415613cee57613ced613ca0565b5b600182019050919050565b6000613d04826131fe565b9150613d0f836131fe565b925082821015613d2257613d21613ca0565b5b828203905092915050565b6000613d3882613271565b9150613d4383613271565b9250817fffffffffffffffffffffffffffffffffffffffffffffffffffffffffffffffff0483118215151615613d7c57613d7b613ca0565b5b828202905092915050565b6000613d9282613271565b9150613d9d83613271565b9250827fffffffffffffffffffffffffffffffffffffffffffffffffffffffffffffffff03821115613dd257613dd1613ca0565b5b828201905092915050565b7f4e487b7100000000000000000000000000000000000000000000000000000000600052601260045260246000fd5b6000613e1782613271565b9150613e2283613271565b925082613e3257613e31613ddd565b5b828206905092915050565b6000613e4882613271565b91507fffffffffffffffffffffffffffffffffffffffffffffffffffffffffffffffff821415613e7b57613e7a613ca0565b5b600182019050919050565b7f4e6f204d61746368656420426574000000000000000000000000000000000000600082015250565b6000613ebc600e836134af565b9150613ec782613e86565b602082019050919050565b60006020820190508181036000830152613eeb81613eaf565b9050919050565b600060a082019050613f07600083018a61344d565b613f146020830189613813565b8181036040830152613f27818789613a8d565b9050613f366060830186613813565b8181036080830152613f49818486613a8d565b905098975050505050505050565b60006040820190508181036000830152613f72818587613a8d565b9050613f816020830184613813565b949350505050565b6000613f9482613237565b9150613f9f83613237565b925082821015613fb257613fb1613ca0565b5b828203905092915050565b6000613fc882613271565b9150613fd383613271565b925082613fe357613fe2613ddd565b5b828204905092915050565b7f4c6971696469747920616e642073656e642076616c756520617265206e6f742060008201527f657175616c210000000000000000000000000000000000000000000000000000602082015250565b600061404a6026836134af565b915061405582613fee565b604082019050919050565b600060208201905081810360008301526140798161403d565b9050919050565b7f4f776e61626c653a206e6577206f776e657220697320746865207a65726f206160008201527f6464726573730000000000000000000000000000000000000000000000000000602082015250565b60006140dc6026836134af565b91506140e782614080565b604082019050919050565b6000602082019050818103600083015261410b816140cf565b9050919050565b7f4e6f20726573756c740000000000000000000000000000000000000000000000600082015250565b60006141486009836134af565b915061415382614112565b602082019050919050565b600060208201905081810360008301526141778161413b565b9050919050565b600061418982613271565b915061419483613271565b9250828210156141a7576141a6613ca0565b5b828203905092915050565b600281106141c3576141c2613a20565b5b50565b60008190506141d4826141b2565b919050565b60006141e4826141c6565b9050919050565b6141f4816141d9565b82525050565b6001811061420b5761420a613a20565b5b50565b600081905061421c826141fa565b919050565b600061422c8261420e565b9050919050565b61423c81614221565b82525050565b61424b81613237565b82525050565b600060e082019050818103600083015261426b818a613504565b905061427a60208301896141eb565b6142876040830188614233565b614294606083018761353d565b6142a16080830186614242565b6142ae60a0830185613813565b6142bb60c083018461344d565b98975050505050505050565b600060c08201905081810360008301526142e18189613504565b90506142f0602083018861344d565b6142fd60408301876141eb565b61430a6060830186614233565b614317608083018561353d565b61432460a0830184614242565b979650505050505050565b600061433a826133ed565b9050919050565b60008160601b9050919050565b600061435982614341565b9050919050565b600061436b8261434e565b9050919050565b61438361437e8261432f565b614360565b82525050565b6000819050919050565b6143a461439f82613271565b614389565b82525050565b60006143b68285614372565b6014820191506143c68284614393565b6020820191508190509392505050565b60007fffffffff0000000000000000000000000000000000000000000000000000000082169050919050565b61440b816143d6565b82525050565b600081519050919050565b600082825260208201905092915050565b600061443882614411565b614442818561441c565b93506144528185602086016134c0565b61445b816134f3565b840191505092915050565b60006101008201905061447c600083018b61344d565b614489602083018a613813565b61449660408301896136f5565b6144a3606083018861344d565b6144b06080830187614402565b6144bd60a0830186613813565b6144ca60c0830185613813565b81810360e08301526144dc818461442d565b90509998505050505050505050565b6000606082019050614500600083018661344d565b61450d6020830185613813565b818103604083015261451f818461442d565b9050949350505050565b61453281613905565b811461453d57600080fd5b50565b60008151905061454f81614529565b92915050565b60006020828403121561456b5761456a6130f4565b5b600061457984828501614540565b91505092915050565b7f756e61626c6520746f207472616e73666572416e6443616c6c20746f206f726160008201527f636c650000000000000000000000000000000000000000000000000000000000602082015250565b60006145de6023836134af565b91506145e982614582565b604082019050919050565b6000602082019050818103600083015261460d816145d1565b9050919050565b60008160011c9050919050565b6000808291508390505b600185111561466b5780860481111561464757614646613ca0565b5b60018516156146565780820291505b808102905061466485614614565b945061462b565b94509492505050565b6000826146845760019050614740565b816146925760009050614740565b81600181146146a857600281146146b2576146e1565b6001915050614740565b60ff8411156146c4576146c3613ca0565b5b8360020a9150848211156146db576146da613ca0565b5b50614740565b5060208310610133831016604e8410600b84101617156147165782820a90508381111561471157614710613ca0565b5b614740565b6147238484846001614621565b9250905081840481111561473a57614739613ca0565b5b81810290505b9392505050565b600061475282613271565b915061475d83613271565b925061478a7fffffffffffffffffffffffffffffffffffffffffffffffffffffffffffffffff8484614674565b90509291505056fea264697066735822122066fec2add74d3886a81a942244656d5fe1ec6adf8d1ef2465993fee7363be9dd64736f6c63430008090033",
  "linkReferences": {},
  "deployedLinkReferences": {}
}