{
	"data": {
		"bytecode": {
			"linkReferences": {},
			"object": "60806040523480156200001157600080fd5b50604051620015fa380380620015fa8339818101604052810190620000379190620001fb565b336000800160006101000a81548173ffffffffffffffffffffffffffffffffffffffff021916908373ffffffffffffffffffffffffffffffffffffffff160217905550806000600101908051906020019062000095929190620000cd565b5060008060020160006101000a81548160ff02191690836001811115620000c157620000c06200034d565b5b021790555050620003ff565b828054620000db90620002e1565b90600052602060002090601f016020900481019282620000ff57600085556200014b565b82601f106200011a57805160ff19168380011785556200014b565b828001600101855582156200014b579182015b828111156200014a5782518255916020019190600101906200012d565b5b5090506200015a91906200015e565b5090565b5b80821115620001795760008160009055506001016200015f565b5090565b6000620001946200018e8462000275565b6200024c565b905082815260208101848484011115620001b357620001b2620003df565b5b620001c0848285620002ab565b509392505050565b600082601f830112620001e057620001df620003da565b5b8151620001f28482602086016200017d565b91505092915050565b600060208284031215620002145762000213620003e9565b5b600082015167ffffffffffffffff811115620002355762000234620003e4565b5b6200024384828501620001c8565b91505092915050565b6000620002586200026b565b905062000266828262000317565b919050565b6000604051905090565b600067ffffffffffffffff821115620002935762000292620003ab565b5b6200029e82620003ee565b9050602081019050919050565b60005b83811015620002cb578082015181840152602081019050620002ae565b83811115620002db576000848401525b50505050565b60006002820490506001821680620002fa57607f821691505b602082108114156200031157620003106200037c565b5b50919050565b6200032282620003ee565b810181811067ffffffffffffffff82111715620003445762000343620003ab565b5b80604052505050565b7f4e487b7100000000000000000000000000000000000000000000000000000000600052602160045260246000fd5b7f4e487b7100000000000000000000000000000000000000000000000000000000600052602260045260246000fd5b7f4e487b7100000000000000000000000000000000000000000000000000000000600052604160045260246000fd5b600080fd5b600080fd5b600080fd5b600080fd5b6000601f19601f8301169050919050565b6111eb806200040f6000396000f3fe6080604052600436106100295760003560e01c80635d63dc181461002e578063cc2b1e471461004a575b600080fd5b61004860048036038101906100439190610c51565b610066565b005b610064600480360381019061005f9190610c51565b6101ec565b005b6001808111156100795761007861102c565b5b600060020160009054906101000a900460ff16600181111561009e5761009d61102c565b5b14156100d6576040517f919142bc00000000000000000000000000000000000000000000000000000000815260040160405180910390fd5b346000811161011c57806040517fd59f5ff00000000000000000000000000000000000000000000000000000000081526004016101139190610dea565b60405180910390fd5b8261ffff166001811161016657806040517fa0c5f30c00000000000000000000000000000000000000000000000000000000815260040161015d9190610dea565b60405180910390fd5b60006103e880866101779190610ea1565b61ffff16856101869190610e47565b6101909190610e16565b90503481146101d4576040517f08c379a00000000000000000000000000000000000000000000000000000000081526004016101cb90610daa565b60405180910390fd5b6101e360018888888833610345565b50505050505050565b6001808111156101ff576101fe61102c565b5b600060020160009054906101000a900460ff1660018111156102245761022361102c565b5b141561025c576040517f919142bc00000000000000000000000000000000000000000000000000000000815260040160405180910390fd5b34600081116102a257806040517fd59f5ff00000000000000000000000000000000000000000000000000000000081526004016102999190610dea565b60405180910390fd5b8261ffff16600181116102ec57806040517fa0c5f30c0000000000000000000000000000000000000000000000000000000081526004016102e39190610dea565b60405180910390fd5b34831461032e576040517f08c379a000000000000000000000000000000000000000000000000000000000815260040161032590610dca565b60405180910390fd5b61033d60008787878733610345565b505050505050565b600086600181111561035a5761035961102c565b5b6000600181111561036e5761036d61102c565b5b1461037a57600061037d565b60015b90506000600360008360018111156103985761039761102c565b5b60018111156103aa576103a961102c565b5b815260200190815260200160002060008860ff1660ff16815260200190815260200160002060008760ff1660ff16815260200190815260200160002060008661ffff1661ffff168152602001908152602001600020805480602002602001604051908101604052809291908181526020016000905b828210156104b15783829060005260206000209060020201604051806040016040529081600082015481526020016001820160009054906101000a900473ffffffffffffffffffffffffffffffffffffffff1673ffffffffffffffffffffffffffffffffffffffff1673ffffffffffffffffffffffffffffffffffffffff16815250508152602001906001019061041f565b5050505090506000815114156104d6576104cf888888888888610a5b565b5050610a53565b6000815167ffffffffffffffff8111156104f3576104f261108a565b5b6040519080825280602002602001820160405280156105215781602001602082028036833780820191505090505b5090506000825167ffffffffffffffff8111156105415761054061108a565b5b60405190808252806020026020018201604052801561056f5781602001602082028036833780820191505090505b509050600080600088905060005b8651811015610707578681815181106105995761059861105b565b5b60200260200101516000015182111561064557808685815181106105c0576105bf61105b565b5b6020026020010181815250508681815181106105df576105de61105b565b5b6020026020010151600001518585815181106105fe576105fd61105b565b5b60200260200101818152505084848151811061061d5761061c61105b565b5b6020026020010151826106309190610ed5565b9150838061063d90610f85565b9450506106e2565b8681815181106106585761065761105b565b5b60200260200101516000015182116106e1578086858151811061067e5761067d61105b565b5b6020026020010181815250508185858151811061069e5761069d61105b565b5b6020026020010181815250508484815181106106bd576106bc61105b565b5b6020026020010151826106d09190610ed5565b915083806106dd90610f85565b9450505b5b60008214156106f45760019250610707565b80806106ff90610f85565b91505061057d565b50816107275761071b8d8d8d8d8d8d610a5b565b50505050505050610a53565b60005b8551811015610a3c57868682815181106107475761074661105b565b5b6020026020010151815181106107605761075f61105b565b5b60200260200101516000015185828151811061077f5761077e61105b565b5b602002602001015114156108dc576107ed888e8e8e8986815181106107a7576107a661105b565b5b60200260200101518c8c88815181106107c3576107c261105b565b5b6020026020010151815181106107dc576107db61105b565b5b602002602001015160200151610bc9565b600360008960018111156108045761080361102c565b5b60018111156108165761081561102c565b5b815260200190815260200160002060008e60ff1660ff16815260200190815260200160002060008d60ff1660ff16815260200190815260200160002060008c61ffff1661ffff16815260200190815260200160002086828151811061087e5761087d61105b565b5b6020026020010151815481106108975761089661105b565b5b90600052602060002090600202016000808201600090556001820160006101000a81549073ffffffffffffffffffffffffffffffffffffffff02191690555050610a29565b61093c888e8e8e8986815181106108f6576108f561105b565b5b60200260200101518c8c88815181106109125761091161105b565b5b60200260200101518151811061092b5761092a61105b565b5b602002602001015160200151610bc9565b84818151811061094f5761094e61105b565b5b6020026020010151600360008a600181111561096e5761096d61102c565b5b60018111156109805761097f61102c565b5b815260200190815260200160002060008f60ff1660ff16815260200190815260200160002060008e60ff1660ff16815260200190815260200160002060008d61ffff1661ffff1681526020019081526020016000208783815181106109e8576109e761105b565b5b602002602001015181548110610a0157610a0061105b565b5b90600052602060002090600202016000016000828254610a219190610ed5565b925050819055505b8080610a3490610f85565b91505061072a565b50610a4b8d8d8d8d8d8d610bc9565b505050505050505b505050505050565b60036000876001811115610a7257610a7161102c565b5b6001811115610a8457610a8361102c565b5b815260200190815260200160002060008660ff1660ff16815260200190815260200160002060008560ff1660ff16815260200190815260200160002060008461ffff1661ffff16815260200190815260200160002060405180604001604052808481526020018373ffffffffffffffffffffffffffffffffffffffff1681525090806001815401808255809150506001900390600052602060002090600202016000909190919091506000820151816000015560208201518160010160006101000a81548173ffffffffffffffffffffffffffffffffffffffff021916908373ffffffffffffffffffffffffffffffffffffffff16021790555050507f983ea0a956e0fd28aee415ea0035b9e9ff87b3cca8a51a457e526c85c5b173ba868686868686604051610bb996959493929190610d49565b60405180910390a1505050505050565b7fa6505fb4d47cd8da6f9fa27a9576fd9d76e171a408f045bad68b035dfc1348ad868686868686604051610c0296959493929190610d49565b60405180910390a1505050505050565b600081359050610c2181611170565b92915050565b600081359050610c3681611187565b92915050565b600081359050610c4b8161119e565b92915050565b60008060008060808587031215610c6b57610c6a6110b9565b5b6000610c7987828801610c3c565b9450506020610c8a87828801610c3c565b9350506040610c9b87828801610c12565b9250506060610cac87828801610c27565b91505092959194509250565b610cc181610f09565b82525050565b610cd081610f73565b82525050565b6000610ce3602683610e05565b9150610cee826110be565b604082019050919050565b6000610d06602483610e05565b9150610d118261110d565b604082019050919050565b610d2581610f2e565b82525050565b610d3481610f5c565b82525050565b610d4381610f66565b82525050565b600060c082019050610d5e6000830189610cc7565b610d6b6020830188610d3a565b610d786040830187610d3a565b610d856060830186610d1c565b610d926080830185610d2b565b610d9f60a0830184610cb8565b979650505050505050565b60006020820190508181036000830152610dc381610cd6565b9050919050565b60006020820190508181036000830152610de381610cf9565b9050919050565b6000602082019050610dff6000830184610d2b565b92915050565b600082825260208201905092915050565b6000610e2182610f5c565b9150610e2c83610f5c565b925082610e3c57610e3b610ffd565b5b828204905092915050565b6000610e5282610f5c565b9150610e5d83610f5c565b9250817fffffffffffffffffffffffffffffffffffffffffffffffffffffffffffffffff0483118215151615610e9657610e95610fce565b5b828202905092915050565b6000610eac82610f2e565b9150610eb783610f2e565b925082821015610eca57610ec9610fce565b5b828203905092915050565b6000610ee082610f5c565b9150610eeb83610f5c565b925082821015610efe57610efd610fce565b5b828203905092915050565b6000610f1482610f3c565b9050919050565b6000819050610f298261115c565b919050565b600061ffff82169050919050565b600073ffffffffffffffffffffffffffffffffffffffff82169050919050565b6000819050919050565b600060ff82169050919050565b6000610f7e82610f1b565b9050919050565b6000610f9082610f5c565b91507fffffffffffffffffffffffffffffffffffffffffffffffffffffffffffffffff821415610fc357610fc2610fce565b5b600182019050919050565b7f4e487b7100000000000000000000000000000000000000000000000000000000600052601160045260246000fd5b7f4e487b7100000000000000000000000000000000000000000000000000000000600052601260045260246000fd5b7f4e487b7100000000000000000000000000000000000000000000000000000000600052602160045260246000fd5b7f4e487b7100000000000000000000000000000000000000000000000000000000600052603260045260246000fd5b7f4e487b7100000000000000000000000000000000000000000000000000000000600052604160045260246000fd5b600080fd5b7f4c6971696469747920616e642073656e642076616c756520617265206e6f742060008201527f657175616c210000000000000000000000000000000000000000000000000000602082015250565b7f416d6f756e7420616e642073656e642076616c756520617265206e6f7420657160008201527f75616c2100000000000000000000000000000000000000000000000000000000602082015250565b6002811061116d5761116c61102c565b5b50565b61117981610f2e565b811461118457600080fd5b50565b61119081610f5c565b811461119b57600080fd5b50565b6111a781610f66565b81146111b257600080fd5b5056fea2646970667358221220f9fba42a8377ff702d87b0fffb91342a4250fc8933b4187d8b074baa43690e3764736f6c63430008060033",
			"opcodes": "PUSH1 0x80 PUSH1 0x40 MSTORE CALLVALUE DUP1 ISZERO PUSH3 0x11 JUMPI PUSH1 0x0 DUP1 REVERT JUMPDEST POP PUSH1 0x40 MLOAD PUSH3 0x15FA CODESIZE SUB DUP1 PUSH3 0x15FA DUP4 CODECOPY DUP2 DUP2 ADD PUSH1 0x40 MSTORE DUP2 ADD SWAP1 PUSH3 0x37 SWAP2 SWAP1 PUSH3 0x1FB JUMP JUMPDEST CALLER PUSH1 0x0 DUP1 ADD PUSH1 0x0 PUSH2 0x100 EXP DUP2 SLOAD DUP2 PUSH20 0xFFFFFFFFFFFFFFFFFFFFFFFFFFFFFFFFFFFFFFFF MUL NOT AND SWAP1 DUP4 PUSH20 0xFFFFFFFFFFFFFFFFFFFFFFFFFFFFFFFFFFFFFFFF AND MUL OR SWAP1 SSTORE POP DUP1 PUSH1 0x0 PUSH1 0x1 ADD SWAP1 DUP1 MLOAD SWAP1 PUSH1 0x20 ADD SWAP1 PUSH3 0x95 SWAP3 SWAP2 SWAP1 PUSH3 0xCD JUMP JUMPDEST POP PUSH1 0x0 DUP1 PUSH1 0x2 ADD PUSH1 0x0 PUSH2 0x100 EXP DUP2 SLOAD DUP2 PUSH1 0xFF MUL NOT AND SWAP1 DUP4 PUSH1 0x1 DUP2 GT ISZERO PUSH3 0xC1 JUMPI PUSH3 0xC0 PUSH3 0x34D JUMP JUMPDEST JUMPDEST MUL OR SWAP1 SSTORE POP POP PUSH3 0x3FF JUMP JUMPDEST DUP3 DUP1 SLOAD PUSH3 0xDB SWAP1 PUSH3 0x2E1 JUMP JUMPDEST SWAP1 PUSH1 0x0 MSTORE PUSH1 0x20 PUSH1 0x0 KECCAK256 SWAP1 PUSH1 0x1F ADD PUSH1 0x20 SWAP1 DIV DUP2 ADD SWAP3 DUP3 PUSH3 0xFF JUMPI PUSH1 0x0 DUP6 SSTORE PUSH3 0x14B JUMP JUMPDEST DUP3 PUSH1 0x1F LT PUSH3 0x11A JUMPI DUP1 MLOAD PUSH1 0xFF NOT AND DUP4 DUP1 ADD OR DUP6 SSTORE PUSH3 0x14B JUMP JUMPDEST DUP3 DUP1 ADD PUSH1 0x1 ADD DUP6 SSTORE DUP3 ISZERO PUSH3 0x14B JUMPI SWAP2 DUP3 ADD JUMPDEST DUP3 DUP2 GT ISZERO PUSH3 0x14A JUMPI DUP3 MLOAD DUP3 SSTORE SWAP2 PUSH1 0x20 ADD SWAP2 SWAP1 PUSH1 0x1 ADD SWAP1 PUSH3 0x12D JUMP JUMPDEST JUMPDEST POP SWAP1 POP PUSH3 0x15A SWAP2 SWAP1 PUSH3 0x15E JUMP JUMPDEST POP SWAP1 JUMP JUMPDEST JUMPDEST DUP1 DUP3 GT ISZERO PUSH3 0x179 JUMPI PUSH1 0x0 DUP2 PUSH1 0x0 SWAP1 SSTORE POP PUSH1 0x1 ADD PUSH3 0x15F JUMP JUMPDEST POP SWAP1 JUMP JUMPDEST PUSH1 0x0 PUSH3 0x194 PUSH3 0x18E DUP5 PUSH3 0x275 JUMP JUMPDEST PUSH3 0x24C JUMP JUMPDEST SWAP1 POP DUP3 DUP2 MSTORE PUSH1 0x20 DUP2 ADD DUP5 DUP5 DUP5 ADD GT ISZERO PUSH3 0x1B3 JUMPI PUSH3 0x1B2 PUSH3 0x3DF JUMP JUMPDEST JUMPDEST PUSH3 0x1C0 DUP5 DUP3 DUP6 PUSH3 0x2AB JUMP JUMPDEST POP SWAP4 SWAP3 POP POP POP JUMP JUMPDEST PUSH1 0x0 DUP3 PUSH1 0x1F DUP4 ADD SLT PUSH3 0x1E0 JUMPI PUSH3 0x1DF PUSH3 0x3DA JUMP JUMPDEST JUMPDEST DUP2 MLOAD PUSH3 0x1F2 DUP5 DUP3 PUSH1 0x20 DUP7 ADD PUSH3 0x17D JUMP JUMPDEST SWAP2 POP POP SWAP3 SWAP2 POP POP JUMP JUMPDEST PUSH1 0x0 PUSH1 0x20 DUP3 DUP5 SUB SLT ISZERO PUSH3 0x214 JUMPI PUSH3 0x213 PUSH3 0x3E9 JUMP JUMPDEST JUMPDEST PUSH1 0x0 DUP3 ADD MLOAD PUSH8 0xFFFFFFFFFFFFFFFF DUP2 GT ISZERO PUSH3 0x235 JUMPI PUSH3 0x234 PUSH3 0x3E4 JUMP JUMPDEST JUMPDEST PUSH3 0x243 DUP5 DUP3 DUP6 ADD PUSH3 0x1C8 JUMP JUMPDEST SWAP2 POP POP SWAP3 SWAP2 POP POP JUMP JUMPDEST PUSH1 0x0 PUSH3 0x258 PUSH3 0x26B JUMP JUMPDEST SWAP1 POP PUSH3 0x266 DUP3 DUP3 PUSH3 0x317 JUMP JUMPDEST SWAP2 SWAP1 POP JUMP JUMPDEST PUSH1 0x0 PUSH1 0x40 MLOAD SWAP1 POP SWAP1 JUMP JUMPDEST PUSH1 0x0 PUSH8 0xFFFFFFFFFFFFFFFF DUP3 GT ISZERO PUSH3 0x293 JUMPI PUSH3 0x292 PUSH3 0x3AB JUMP JUMPDEST JUMPDEST PUSH3 0x29E DUP3 PUSH3 0x3EE JUMP JUMPDEST SWAP1 POP PUSH1 0x20 DUP2 ADD SWAP1 POP SWAP2 SWAP1 POP JUMP JUMPDEST PUSH1 0x0 JUMPDEST DUP4 DUP2 LT ISZERO PUSH3 0x2CB JUMPI DUP1 DUP3 ADD MLOAD DUP2 DUP5 ADD MSTORE PUSH1 0x20 DUP2 ADD SWAP1 POP PUSH3 0x2AE JUMP JUMPDEST DUP4 DUP2 GT ISZERO PUSH3 0x2DB JUMPI PUSH1 0x0 DUP5 DUP5 ADD MSTORE JUMPDEST POP POP POP POP JUMP JUMPDEST PUSH1 0x0 PUSH1 0x2 DUP3 DIV SWAP1 POP PUSH1 0x1 DUP3 AND DUP1 PUSH3 0x2FA JUMPI PUSH1 0x7F DUP3 AND SWAP2 POP JUMPDEST PUSH1 0x20 DUP3 LT DUP2 EQ ISZERO PUSH3 0x311 JUMPI PUSH3 0x310 PUSH3 0x37C JUMP JUMPDEST JUMPDEST POP SWAP2 SWAP1 POP JUMP JUMPDEST PUSH3 0x322 DUP3 PUSH3 0x3EE JUMP JUMPDEST DUP2 ADD DUP2 DUP2 LT PUSH8 0xFFFFFFFFFFFFFFFF DUP3 GT OR ISZERO PUSH3 0x344 JUMPI PUSH3 0x343 PUSH3 0x3AB JUMP JUMPDEST JUMPDEST DUP1 PUSH1 0x40 MSTORE POP POP POP JUMP JUMPDEST PUSH32 0x4E487B7100000000000000000000000000000000000000000000000000000000 PUSH1 0x0 MSTORE PUSH1 0x21 PUSH1 0x4 MSTORE PUSH1 0x24 PUSH1 0x0 REVERT JUMPDEST PUSH32 0x4E487B7100000000000000000000000000000000000000000000000000000000 PUSH1 0x0 MSTORE PUSH1 0x22 PUSH1 0x4 MSTORE PUSH1 0x24 PUSH1 0x0 REVERT JUMPDEST PUSH32 0x4E487B7100000000000000000000000000000000000000000000000000000000 PUSH1 0x0 MSTORE PUSH1 0x41 PUSH1 0x4 MSTORE PUSH1 0x24 PUSH1 0x0 REVERT JUMPDEST PUSH1 0x0 DUP1 REVERT JUMPDEST PUSH1 0x0 DUP1 REVERT JUMPDEST PUSH1 0x0 DUP1 REVERT JUMPDEST PUSH1 0x0 DUP1 REVERT JUMPDEST PUSH1 0x0 PUSH1 0x1F NOT PUSH1 0x1F DUP4 ADD AND SWAP1 POP SWAP2 SWAP1 POP JUMP JUMPDEST PUSH2 0x11EB DUP1 PUSH3 0x40F PUSH1 0x0 CODECOPY PUSH1 0x0 RETURN INVALID PUSH1 0x80 PUSH1 0x40 MSTORE PUSH1 0x4 CALLDATASIZE LT PUSH2 0x29 JUMPI PUSH1 0x0 CALLDATALOAD PUSH1 0xE0 SHR DUP1 PUSH4 0x5D63DC18 EQ PUSH2 0x2E JUMPI DUP1 PUSH4 0xCC2B1E47 EQ PUSH2 0x4A JUMPI JUMPDEST PUSH1 0x0 DUP1 REVERT JUMPDEST PUSH2 0x48 PUSH1 0x4 DUP1 CALLDATASIZE SUB DUP2 ADD SWAP1 PUSH2 0x43 SWAP2 SWAP1 PUSH2 0xC51 JUMP JUMPDEST PUSH2 0x66 JUMP JUMPDEST STOP JUMPDEST PUSH2 0x64 PUSH1 0x4 DUP1 CALLDATASIZE SUB DUP2 ADD SWAP1 PUSH2 0x5F SWAP2 SWAP1 PUSH2 0xC51 JUMP JUMPDEST PUSH2 0x1EC JUMP JUMPDEST STOP JUMPDEST PUSH1 0x1 DUP1 DUP2 GT ISZERO PUSH2 0x79 JUMPI PUSH2 0x78 PUSH2 0x102C JUMP JUMPDEST JUMPDEST PUSH1 0x0 PUSH1 0x2 ADD PUSH1 0x0 SWAP1 SLOAD SWAP1 PUSH2 0x100 EXP SWAP1 DIV PUSH1 0xFF AND PUSH1 0x1 DUP2 GT ISZERO PUSH2 0x9E JUMPI PUSH2 0x9D PUSH2 0x102C JUMP JUMPDEST JUMPDEST EQ ISZERO PUSH2 0xD6 JUMPI PUSH1 0x40 MLOAD PUSH32 0x919142BC00000000000000000000000000000000000000000000000000000000 DUP2 MSTORE PUSH1 0x4 ADD PUSH1 0x40 MLOAD DUP1 SWAP2 SUB SWAP1 REVERT JUMPDEST CALLVALUE PUSH1 0x0 DUP2 GT PUSH2 0x11C JUMPI DUP1 PUSH1 0x40 MLOAD PUSH32 0xD59F5FF000000000000000000000000000000000000000000000000000000000 DUP2 MSTORE PUSH1 0x4 ADD PUSH2 0x113 SWAP2 SWAP1 PUSH2 0xDEA JUMP JUMPDEST PUSH1 0x40 MLOAD DUP1 SWAP2 SUB SWAP1 REVERT JUMPDEST DUP3 PUSH2 0xFFFF AND PUSH1 0x1 DUP2 GT PUSH2 0x166 JUMPI DUP1 PUSH1 0x40 MLOAD PUSH32 0xA0C5F30C00000000000000000000000000000000000000000000000000000000 DUP2 MSTORE PUSH1 0x4 ADD PUSH2 0x15D SWAP2 SWAP1 PUSH2 0xDEA JUMP JUMPDEST PUSH1 0x40 MLOAD DUP1 SWAP2 SUB SWAP1 REVERT JUMPDEST PUSH1 0x0 PUSH2 0x3E8 DUP1 DUP7 PUSH2 0x177 SWAP2 SWAP1 PUSH2 0xEA1 JUMP JUMPDEST PUSH2 0xFFFF AND DUP6 PUSH2 0x186 SWAP2 SWAP1 PUSH2 0xE47 JUMP JUMPDEST PUSH2 0x190 SWAP2 SWAP1 PUSH2 0xE16 JUMP JUMPDEST SWAP1 POP CALLVALUE DUP2 EQ PUSH2 0x1D4 JUMPI PUSH1 0x40 MLOAD PUSH32 0x8C379A000000000000000000000000000000000000000000000000000000000 DUP2 MSTORE PUSH1 0x4 ADD PUSH2 0x1CB SWAP1 PUSH2 0xDAA JUMP JUMPDEST PUSH1 0x40 MLOAD DUP1 SWAP2 SUB SWAP1 REVERT JUMPDEST PUSH2 0x1E3 PUSH1 0x1 DUP9 DUP9 DUP9 DUP9 CALLER PUSH2 0x345 JUMP JUMPDEST POP POP POP POP POP POP POP JUMP JUMPDEST PUSH1 0x1 DUP1 DUP2 GT ISZERO PUSH2 0x1FF JUMPI PUSH2 0x1FE PUSH2 0x102C JUMP JUMPDEST JUMPDEST PUSH1 0x0 PUSH1 0x2 ADD PUSH1 0x0 SWAP1 SLOAD SWAP1 PUSH2 0x100 EXP SWAP1 DIV PUSH1 0xFF AND PUSH1 0x1 DUP2 GT ISZERO PUSH2 0x224 JUMPI PUSH2 0x223 PUSH2 0x102C JUMP JUMPDEST JUMPDEST EQ ISZERO PUSH2 0x25C JUMPI PUSH1 0x40 MLOAD PUSH32 0x919142BC00000000000000000000000000000000000000000000000000000000 DUP2 MSTORE PUSH1 0x4 ADD PUSH1 0x40 MLOAD DUP1 SWAP2 SUB SWAP1 REVERT JUMPDEST CALLVALUE PUSH1 0x0 DUP2 GT PUSH2 0x2A2 JUMPI DUP1 PUSH1 0x40 MLOAD PUSH32 0xD59F5FF000000000000000000000000000000000000000000000000000000000 DUP2 MSTORE PUSH1 0x4 ADD PUSH2 0x299 SWAP2 SWAP1 PUSH2 0xDEA JUMP JUMPDEST PUSH1 0x40 MLOAD DUP1 SWAP2 SUB SWAP1 REVERT JUMPDEST DUP3 PUSH2 0xFFFF AND PUSH1 0x1 DUP2 GT PUSH2 0x2EC JUMPI DUP1 PUSH1 0x40 MLOAD PUSH32 0xA0C5F30C00000000000000000000000000000000000000000000000000000000 DUP2 MSTORE PUSH1 0x4 ADD PUSH2 0x2E3 SWAP2 SWAP1 PUSH2 0xDEA JUMP JUMPDEST PUSH1 0x40 MLOAD DUP1 SWAP2 SUB SWAP1 REVERT JUMPDEST CALLVALUE DUP4 EQ PUSH2 0x32E JUMPI PUSH1 0x40 MLOAD PUSH32 0x8C379A000000000000000000000000000000000000000000000000000000000 DUP2 MSTORE PUSH1 0x4 ADD PUSH2 0x325 SWAP1 PUSH2 0xDCA JUMP JUMPDEST PUSH1 0x40 MLOAD DUP1 SWAP2 SUB SWAP1 REVERT JUMPDEST PUSH2 0x33D PUSH1 0x0 DUP8 DUP8 DUP8 DUP8 CALLER PUSH2 0x345 JUMP JUMPDEST POP POP POP POP POP POP JUMP JUMPDEST PUSH1 0x0 DUP7 PUSH1 0x1 DUP2 GT ISZERO PUSH2 0x35A JUMPI PUSH2 0x359 PUSH2 0x102C JUMP JUMPDEST JUMPDEST PUSH1 0x0 PUSH1 0x1 DUP2 GT ISZERO PUSH2 0x36E JUMPI PUSH2 0x36D PUSH2 0x102C JUMP JUMPDEST JUMPDEST EQ PUSH2 0x37A JUMPI PUSH1 0x0 PUSH2 0x37D JUMP JUMPDEST PUSH1 0x1 JUMPDEST SWAP1 POP PUSH1 0x0 PUSH1 0x3 PUSH1 0x0 DUP4 PUSH1 0x1 DUP2 GT ISZERO PUSH2 0x398 JUMPI PUSH2 0x397 PUSH2 0x102C JUMP JUMPDEST JUMPDEST PUSH1 0x1 DUP2 GT ISZERO PUSH2 0x3AA JUMPI PUSH2 0x3A9 PUSH2 0x102C JUMP JUMPDEST JUMPDEST DUP2 MSTORE PUSH1 0x20 ADD SWAP1 DUP2 MSTORE PUSH1 0x20 ADD PUSH1 0x0 KECCAK256 PUSH1 0x0 DUP9 PUSH1 0xFF AND PUSH1 0xFF AND DUP2 MSTORE PUSH1 0x20 ADD SWAP1 DUP2 MSTORE PUSH1 0x20 ADD PUSH1 0x0 KECCAK256 PUSH1 0x0 DUP8 PUSH1 0xFF AND PUSH1 0xFF AND DUP2 MSTORE PUSH1 0x20 ADD SWAP1 DUP2 MSTORE PUSH1 0x20 ADD PUSH1 0x0 KECCAK256 PUSH1 0x0 DUP7 PUSH2 0xFFFF AND PUSH2 0xFFFF AND DUP2 MSTORE PUSH1 0x20 ADD SWAP1 DUP2 MSTORE PUSH1 0x20 ADD PUSH1 0x0 KECCAK256 DUP1 SLOAD DUP1 PUSH1 0x20 MUL PUSH1 0x20 ADD PUSH1 0x40 MLOAD SWAP1 DUP2 ADD PUSH1 0x40 MSTORE DUP1 SWAP3 SWAP2 SWAP1 DUP2 DUP2 MSTORE PUSH1 0x20 ADD PUSH1 0x0 SWAP1 JUMPDEST DUP3 DUP3 LT ISZERO PUSH2 0x4B1 JUMPI DUP4 DUP3 SWAP1 PUSH1 0x0 MSTORE PUSH1 0x20 PUSH1 0x0 KECCAK256 SWAP1 PUSH1 0x2 MUL ADD PUSH1 0x40 MLOAD DUP1 PUSH1 0x40 ADD PUSH1 0x40 MSTORE SWAP1 DUP2 PUSH1 0x0 DUP3 ADD SLOAD DUP2 MSTORE PUSH1 0x20 ADD PUSH1 0x1 DUP3 ADD PUSH1 0x0 SWAP1 SLOAD SWAP1 PUSH2 0x100 EXP SWAP1 DIV PUSH20 0xFFFFFFFFFFFFFFFFFFFFFFFFFFFFFFFFFFFFFFFF AND PUSH20 0xFFFFFFFFFFFFFFFFFFFFFFFFFFFFFFFFFFFFFFFF AND PUSH20 0xFFFFFFFFFFFFFFFFFFFFFFFFFFFFFFFFFFFFFFFF AND DUP2 MSTORE POP POP DUP2 MSTORE PUSH1 0x20 ADD SWAP1 PUSH1 0x1 ADD SWAP1 PUSH2 0x41F JUMP JUMPDEST POP POP POP POP SWAP1 POP PUSH1 0x0 DUP2 MLOAD EQ ISZERO PUSH2 0x4D6 JUMPI PUSH2 0x4CF DUP9 DUP9 DUP9 DUP9 DUP9 DUP9 PUSH2 0xA5B JUMP JUMPDEST POP POP PUSH2 0xA53 JUMP JUMPDEST PUSH1 0x0 DUP2 MLOAD PUSH8 0xFFFFFFFFFFFFFFFF DUP2 GT ISZERO PUSH2 0x4F3 JUMPI PUSH2 0x4F2 PUSH2 0x108A JUMP JUMPDEST JUMPDEST PUSH1 0x40 MLOAD SWAP1 DUP1 DUP3 MSTORE DUP1 PUSH1 0x20 MUL PUSH1 0x20 ADD DUP3 ADD PUSH1 0x40 MSTORE DUP1 ISZERO PUSH2 0x521 JUMPI DUP2 PUSH1 0x20 ADD PUSH1 0x20 DUP3 MUL DUP1 CALLDATASIZE DUP4 CALLDATACOPY DUP1 DUP3 ADD SWAP2 POP POP SWAP1 POP JUMPDEST POP SWAP1 POP PUSH1 0x0 DUP3 MLOAD PUSH8 0xFFFFFFFFFFFFFFFF DUP2 GT ISZERO PUSH2 0x541 JUMPI PUSH2 0x540 PUSH2 0x108A JUMP JUMPDEST JUMPDEST PUSH1 0x40 MLOAD SWAP1 DUP1 DUP3 MSTORE DUP1 PUSH1 0x20 MUL PUSH1 0x20 ADD DUP3 ADD PUSH1 0x40 MSTORE DUP1 ISZERO PUSH2 0x56F JUMPI DUP2 PUSH1 0x20 ADD PUSH1 0x20 DUP3 MUL DUP1 CALLDATASIZE DUP4 CALLDATACOPY DUP1 DUP3 ADD SWAP2 POP POP SWAP1 POP JUMPDEST POP SWAP1 POP PUSH1 0x0 DUP1 PUSH1 0x0 DUP9 SWAP1 POP PUSH1 0x0 JUMPDEST DUP7 MLOAD DUP2 LT ISZERO PUSH2 0x707 JUMPI DUP7 DUP2 DUP2 MLOAD DUP2 LT PUSH2 0x599 JUMPI PUSH2 0x598 PUSH2 0x105B JUMP JUMPDEST JUMPDEST PUSH1 0x20 MUL PUSH1 0x20 ADD ADD MLOAD PUSH1 0x0 ADD MLOAD DUP3 GT ISZERO PUSH2 0x645 JUMPI DUP1 DUP7 DUP6 DUP2 MLOAD DUP2 LT PUSH2 0x5C0 JUMPI PUSH2 0x5BF PUSH2 0x105B JUMP JUMPDEST JUMPDEST PUSH1 0x20 MUL PUSH1 0x20 ADD ADD DUP2 DUP2 MSTORE POP POP DUP7 DUP2 DUP2 MLOAD DUP2 LT PUSH2 0x5DF JUMPI PUSH2 0x5DE PUSH2 0x105B JUMP JUMPDEST JUMPDEST PUSH1 0x20 MUL PUSH1 0x20 ADD ADD MLOAD PUSH1 0x0 ADD MLOAD DUP6 DUP6 DUP2 MLOAD DUP2 LT PUSH2 0x5FE JUMPI PUSH2 0x5FD PUSH2 0x105B JUMP JUMPDEST JUMPDEST PUSH1 0x20 MUL PUSH1 0x20 ADD ADD DUP2 DUP2 MSTORE POP POP DUP5 DUP5 DUP2 MLOAD DUP2 LT PUSH2 0x61D JUMPI PUSH2 0x61C PUSH2 0x105B JUMP JUMPDEST JUMPDEST PUSH1 0x20 MUL PUSH1 0x20 ADD ADD MLOAD DUP3 PUSH2 0x630 SWAP2 SWAP1 PUSH2 0xED5 JUMP JUMPDEST SWAP2 POP DUP4 DUP1 PUSH2 0x63D SWAP1 PUSH2 0xF85 JUMP JUMPDEST SWAP5 POP POP PUSH2 0x6E2 JUMP JUMPDEST DUP7 DUP2 DUP2 MLOAD DUP2 LT PUSH2 0x658 JUMPI PUSH2 0x657 PUSH2 0x105B JUMP JUMPDEST JUMPDEST PUSH1 0x20 MUL PUSH1 0x20 ADD ADD MLOAD PUSH1 0x0 ADD MLOAD DUP3 GT PUSH2 0x6E1 JUMPI DUP1 DUP7 DUP6 DUP2 MLOAD DUP2 LT PUSH2 0x67E JUMPI PUSH2 0x67D PUSH2 0x105B JUMP JUMPDEST JUMPDEST PUSH1 0x20 MUL PUSH1 0x20 ADD ADD DUP2 DUP2 MSTORE POP POP DUP2 DUP6 DUP6 DUP2 MLOAD DUP2 LT PUSH2 0x69E JUMPI PUSH2 0x69D PUSH2 0x105B JUMP JUMPDEST JUMPDEST PUSH1 0x20 MUL PUSH1 0x20 ADD ADD DUP2 DUP2 MSTORE POP POP DUP5 DUP5 DUP2 MLOAD DUP2 LT PUSH2 0x6BD JUMPI PUSH2 0x6BC PUSH2 0x105B JUMP JUMPDEST JUMPDEST PUSH1 0x20 MUL PUSH1 0x20 ADD ADD MLOAD DUP3 PUSH2 0x6D0 SWAP2 SWAP1 PUSH2 0xED5 JUMP JUMPDEST SWAP2 POP DUP4 DUP1 PUSH2 0x6DD SWAP1 PUSH2 0xF85 JUMP JUMPDEST SWAP5 POP POP JUMPDEST JUMPDEST PUSH1 0x0 DUP3 EQ ISZERO PUSH2 0x6F4 JUMPI PUSH1 0x1 SWAP3 POP PUSH2 0x707 JUMP JUMPDEST DUP1 DUP1 PUSH2 0x6FF SWAP1 PUSH2 0xF85 JUMP JUMPDEST SWAP2 POP POP PUSH2 0x57D JUMP JUMPDEST POP DUP2 PUSH2 0x727 JUMPI PUSH2 0x71B DUP14 DUP14 DUP14 DUP14 DUP14 DUP14 PUSH2 0xA5B JUMP JUMPDEST POP POP POP POP POP POP POP PUSH2 0xA53 JUMP JUMPDEST PUSH1 0x0 JUMPDEST DUP6 MLOAD DUP2 LT ISZERO PUSH2 0xA3C JUMPI DUP7 DUP7 DUP3 DUP2 MLOAD DUP2 LT PUSH2 0x747 JUMPI PUSH2 0x746 PUSH2 0x105B JUMP JUMPDEST JUMPDEST PUSH1 0x20 MUL PUSH1 0x20 ADD ADD MLOAD DUP2 MLOAD DUP2 LT PUSH2 0x760 JUMPI PUSH2 0x75F PUSH2 0x105B JUMP JUMPDEST JUMPDEST PUSH1 0x20 MUL PUSH1 0x20 ADD ADD MLOAD PUSH1 0x0 ADD MLOAD DUP6 DUP3 DUP2 MLOAD DUP2 LT PUSH2 0x77F JUMPI PUSH2 0x77E PUSH2 0x105B JUMP JUMPDEST JUMPDEST PUSH1 0x20 MUL PUSH1 0x20 ADD ADD MLOAD EQ ISZERO PUSH2 0x8DC JUMPI PUSH2 0x7ED DUP9 DUP15 DUP15 DUP15 DUP10 DUP7 DUP2 MLOAD DUP2 LT PUSH2 0x7A7 JUMPI PUSH2 0x7A6 PUSH2 0x105B JUMP JUMPDEST JUMPDEST PUSH1 0x20 MUL PUSH1 0x20 ADD ADD MLOAD DUP13 DUP13 DUP9 DUP2 MLOAD DUP2 LT PUSH2 0x7C3 JUMPI PUSH2 0x7C2 PUSH2 0x105B JUMP JUMPDEST JUMPDEST PUSH1 0x20 MUL PUSH1 0x20 ADD ADD MLOAD DUP2 MLOAD DUP2 LT PUSH2 0x7DC JUMPI PUSH2 0x7DB PUSH2 0x105B JUMP JUMPDEST JUMPDEST PUSH1 0x20 MUL PUSH1 0x20 ADD ADD MLOAD PUSH1 0x20 ADD MLOAD PUSH2 0xBC9 JUMP JUMPDEST PUSH1 0x3 PUSH1 0x0 DUP10 PUSH1 0x1 DUP2 GT ISZERO PUSH2 0x804 JUMPI PUSH2 0x803 PUSH2 0x102C JUMP JUMPDEST JUMPDEST PUSH1 0x1 DUP2 GT ISZERO PUSH2 0x816 JUMPI PUSH2 0x815 PUSH2 0x102C JUMP JUMPDEST JUMPDEST DUP2 MSTORE PUSH1 0x20 ADD SWAP1 DUP2 MSTORE PUSH1 0x20 ADD PUSH1 0x0 KECCAK256 PUSH1 0x0 DUP15 PUSH1 0xFF AND PUSH1 0xFF AND DUP2 MSTORE PUSH1 0x20 ADD SWAP1 DUP2 MSTORE PUSH1 0x20 ADD PUSH1 0x0 KECCAK256 PUSH1 0x0 DUP14 PUSH1 0xFF AND PUSH1 0xFF AND DUP2 MSTORE PUSH1 0x20 ADD SWAP1 DUP2 MSTORE PUSH1 0x20 ADD PUSH1 0x0 KECCAK256 PUSH1 0x0 DUP13 PUSH2 0xFFFF AND PUSH2 0xFFFF AND DUP2 MSTORE PUSH1 0x20 ADD SWAP1 DUP2 MSTORE PUSH1 0x20 ADD PUSH1 0x0 KECCAK256 DUP7 DUP3 DUP2 MLOAD DUP2 LT PUSH2 0x87E JUMPI PUSH2 0x87D PUSH2 0x105B JUMP JUMPDEST JUMPDEST PUSH1 0x20 MUL PUSH1 0x20 ADD ADD MLOAD DUP2 SLOAD DUP2 LT PUSH2 0x897 JUMPI PUSH2 0x896 PUSH2 0x105B JUMP JUMPDEST JUMPDEST SWAP1 PUSH1 0x0 MSTORE PUSH1 0x20 PUSH1 0x0 KECCAK256 SWAP1 PUSH1 0x2 MUL ADD PUSH1 0x0 DUP1 DUP3 ADD PUSH1 0x0 SWAP1 SSTORE PUSH1 0x1 DUP3 ADD PUSH1 0x0 PUSH2 0x100 EXP DUP2 SLOAD SWAP1 PUSH20 0xFFFFFFFFFFFFFFFFFFFFFFFFFFFFFFFFFFFFFFFF MUL NOT AND SWAP1 SSTORE POP POP PUSH2 0xA29 JUMP JUMPDEST PUSH2 0x93C DUP9 DUP15 DUP15 DUP15 DUP10 DUP7 DUP2 MLOAD DUP2 LT PUSH2 0x8F6 JUMPI PUSH2 0x8F5 PUSH2 0x105B JUMP JUMPDEST JUMPDEST PUSH1 0x20 MUL PUSH1 0x20 ADD ADD MLOAD DUP13 DUP13 DUP9 DUP2 MLOAD DUP2 LT PUSH2 0x912 JUMPI PUSH2 0x911 PUSH2 0x105B JUMP JUMPDEST JUMPDEST PUSH1 0x20 MUL PUSH1 0x20 ADD ADD MLOAD DUP2 MLOAD DUP2 LT PUSH2 0x92B JUMPI PUSH2 0x92A PUSH2 0x105B JUMP JUMPDEST JUMPDEST PUSH1 0x20 MUL PUSH1 0x20 ADD ADD MLOAD PUSH1 0x20 ADD MLOAD PUSH2 0xBC9 JUMP JUMPDEST DUP5 DUP2 DUP2 MLOAD DUP2 LT PUSH2 0x94F JUMPI PUSH2 0x94E PUSH2 0x105B JUMP JUMPDEST JUMPDEST PUSH1 0x20 MUL PUSH1 0x20 ADD ADD MLOAD PUSH1 0x3 PUSH1 0x0 DUP11 PUSH1 0x1 DUP2 GT ISZERO PUSH2 0x96E JUMPI PUSH2 0x96D PUSH2 0x102C JUMP JUMPDEST JUMPDEST PUSH1 0x1 DUP2 GT ISZERO PUSH2 0x980 JUMPI PUSH2 0x97F PUSH2 0x102C JUMP JUMPDEST JUMPDEST DUP2 MSTORE PUSH1 0x20 ADD SWAP1 DUP2 MSTORE PUSH1 0x20 ADD PUSH1 0x0 KECCAK256 PUSH1 0x0 DUP16 PUSH1 0xFF AND PUSH1 0xFF AND DUP2 MSTORE PUSH1 0x20 ADD SWAP1 DUP2 MSTORE PUSH1 0x20 ADD PUSH1 0x0 KECCAK256 PUSH1 0x0 DUP15 PUSH1 0xFF AND PUSH1 0xFF AND DUP2 MSTORE PUSH1 0x20 ADD SWAP1 DUP2 MSTORE PUSH1 0x20 ADD PUSH1 0x0 KECCAK256 PUSH1 0x0 DUP14 PUSH2 0xFFFF AND PUSH2 0xFFFF AND DUP2 MSTORE PUSH1 0x20 ADD SWAP1 DUP2 MSTORE PUSH1 0x20 ADD PUSH1 0x0 KECCAK256 DUP8 DUP4 DUP2 MLOAD DUP2 LT PUSH2 0x9E8 JUMPI PUSH2 0x9E7 PUSH2 0x105B JUMP JUMPDEST JUMPDEST PUSH1 0x20 MUL PUSH1 0x20 ADD ADD MLOAD DUP2 SLOAD DUP2 LT PUSH2 0xA01 JUMPI PUSH2 0xA00 PUSH2 0x105B JUMP JUMPDEST JUMPDEST SWAP1 PUSH1 0x0 MSTORE PUSH1 0x20 PUSH1 0x0 KECCAK256 SWAP1 PUSH1 0x2 MUL ADD PUSH1 0x0 ADD PUSH1 0x0 DUP3 DUP3 SLOAD PUSH2 0xA21 SWAP2 SWAP1 PUSH2 0xED5 JUMP JUMPDEST SWAP3 POP POP DUP2 SWAP1 SSTORE POP JUMPDEST DUP1 DUP1 PUSH2 0xA34 SWAP1 PUSH2 0xF85 JUMP JUMPDEST SWAP2 POP POP PUSH2 0x72A JUMP JUMPDEST POP PUSH2 0xA4B DUP14 DUP14 DUP14 DUP14 DUP14 DUP14 PUSH2 0xBC9 JUMP JUMPDEST POP POP POP POP POP POP POP JUMPDEST POP POP POP POP POP POP JUMP JUMPDEST PUSH1 0x3 PUSH1 0x0 DUP8 PUSH1 0x1 DUP2 GT ISZERO PUSH2 0xA72 JUMPI PUSH2 0xA71 PUSH2 0x102C JUMP JUMPDEST JUMPDEST PUSH1 0x1 DUP2 GT ISZERO PUSH2 0xA84 JUMPI PUSH2 0xA83 PUSH2 0x102C JUMP JUMPDEST JUMPDEST DUP2 MSTORE PUSH1 0x20 ADD SWAP1 DUP2 MSTORE PUSH1 0x20 ADD PUSH1 0x0 KECCAK256 PUSH1 0x0 DUP7 PUSH1 0xFF AND PUSH1 0xFF AND DUP2 MSTORE PUSH1 0x20 ADD SWAP1 DUP2 MSTORE PUSH1 0x20 ADD PUSH1 0x0 KECCAK256 PUSH1 0x0 DUP6 PUSH1 0xFF AND PUSH1 0xFF AND DUP2 MSTORE PUSH1 0x20 ADD SWAP1 DUP2 MSTORE PUSH1 0x20 ADD PUSH1 0x0 KECCAK256 PUSH1 0x0 DUP5 PUSH2 0xFFFF AND PUSH2 0xFFFF AND DUP2 MSTORE PUSH1 0x20 ADD SWAP1 DUP2 MSTORE PUSH1 0x20 ADD PUSH1 0x0 KECCAK256 PUSH1 0x40 MLOAD DUP1 PUSH1 0x40 ADD PUSH1 0x40 MSTORE DUP1 DUP5 DUP2 MSTORE PUSH1 0x20 ADD DUP4 PUSH20 0xFFFFFFFFFFFFFFFFFFFFFFFFFFFFFFFFFFFFFFFF AND DUP2 MSTORE POP SWAP1 DUP1 PUSH1 0x1 DUP2 SLOAD ADD DUP1 DUP3 SSTORE DUP1 SWAP2 POP POP PUSH1 0x1 SWAP1 SUB SWAP1 PUSH1 0x0 MSTORE PUSH1 0x20 PUSH1 0x0 KECCAK256 SWAP1 PUSH1 0x2 MUL ADD PUSH1 0x0 SWAP1 SWAP2 SWAP1 SWAP2 SWAP1 SWAP2 POP PUSH1 0x0 DUP3 ADD MLOAD DUP2 PUSH1 0x0 ADD SSTORE PUSH1 0x20 DUP3 ADD MLOAD DUP2 PUSH1 0x1 ADD PUSH1 0x0 PUSH2 0x100 EXP DUP2 SLOAD DUP2 PUSH20 0xFFFFFFFFFFFFFFFFFFFFFFFFFFFFFFFFFFFFFFFF MUL NOT AND SWAP1 DUP4 PUSH20 0xFFFFFFFFFFFFFFFFFFFFFFFFFFFFFFFFFFFFFFFF AND MUL OR SWAP1 SSTORE POP POP POP PUSH32 0x983EA0A956E0FD28AEE415EA0035B9E9FF87B3CCA8A51A457E526C85C5B173BA DUP7 DUP7 DUP7 DUP7 DUP7 DUP7 PUSH1 0x40 MLOAD PUSH2 0xBB9 SWAP7 SWAP6 SWAP5 SWAP4 SWAP3 SWAP2 SWAP1 PUSH2 0xD49 JUMP JUMPDEST PUSH1 0x40 MLOAD DUP1 SWAP2 SUB SWAP1 LOG1 POP POP POP POP POP POP JUMP JUMPDEST PUSH32 0xA6505FB4D47CD8DA6F9FA27A9576FD9D76E171A408F045BAD68B035DFC1348AD DUP7 DUP7 DUP7 DUP7 DUP7 DUP7 PUSH1 0x40 MLOAD PUSH2 0xC02 SWAP7 SWAP6 SWAP5 SWAP4 SWAP3 SWAP2 SWAP1 PUSH2 0xD49 JUMP JUMPDEST PUSH1 0x40 MLOAD DUP1 SWAP2 SUB SWAP1 LOG1 POP POP POP POP POP POP JUMP JUMPDEST PUSH1 0x0 DUP2 CALLDATALOAD SWAP1 POP PUSH2 0xC21 DUP2 PUSH2 0x1170 JUMP JUMPDEST SWAP3 SWAP2 POP POP JUMP JUMPDEST PUSH1 0x0 DUP2 CALLDATALOAD SWAP1 POP PUSH2 0xC36 DUP2 PUSH2 0x1187 JUMP JUMPDEST SWAP3 SWAP2 POP POP JUMP JUMPDEST PUSH1 0x0 DUP2 CALLDATALOAD SWAP1 POP PUSH2 0xC4B DUP2 PUSH2 0x119E JUMP JUMPDEST SWAP3 SWAP2 POP POP JUMP JUMPDEST PUSH1 0x0 DUP1 PUSH1 0x0 DUP1 PUSH1 0x80 DUP6 DUP8 SUB SLT ISZERO PUSH2 0xC6B JUMPI PUSH2 0xC6A PUSH2 0x10B9 JUMP JUMPDEST JUMPDEST PUSH1 0x0 PUSH2 0xC79 DUP8 DUP3 DUP9 ADD PUSH2 0xC3C JUMP JUMPDEST SWAP5 POP POP PUSH1 0x20 PUSH2 0xC8A DUP8 DUP3 DUP9 ADD PUSH2 0xC3C JUMP JUMPDEST SWAP4 POP POP PUSH1 0x40 PUSH2 0xC9B DUP8 DUP3 DUP9 ADD PUSH2 0xC12 JUMP JUMPDEST SWAP3 POP POP PUSH1 0x60 PUSH2 0xCAC DUP8 DUP3 DUP9 ADD PUSH2 0xC27 JUMP JUMPDEST SWAP2 POP POP SWAP3 SWAP6 SWAP2 SWAP5 POP SWAP3 POP JUMP JUMPDEST PUSH2 0xCC1 DUP2 PUSH2 0xF09 JUMP JUMPDEST DUP3 MSTORE POP POP JUMP JUMPDEST PUSH2 0xCD0 DUP2 PUSH2 0xF73 JUMP JUMPDEST DUP3 MSTORE POP POP JUMP JUMPDEST PUSH1 0x0 PUSH2 0xCE3 PUSH1 0x26 DUP4 PUSH2 0xE05 JUMP JUMPDEST SWAP2 POP PUSH2 0xCEE DUP3 PUSH2 0x10BE JUMP JUMPDEST PUSH1 0x40 DUP3 ADD SWAP1 POP SWAP2 SWAP1 POP JUMP JUMPDEST PUSH1 0x0 PUSH2 0xD06 PUSH1 0x24 DUP4 PUSH2 0xE05 JUMP JUMPDEST SWAP2 POP PUSH2 0xD11 DUP3 PUSH2 0x110D JUMP JUMPDEST PUSH1 0x40 DUP3 ADD SWAP1 POP SWAP2 SWAP1 POP JUMP JUMPDEST PUSH2 0xD25 DUP2 PUSH2 0xF2E JUMP JUMPDEST DUP3 MSTORE POP POP JUMP JUMPDEST PUSH2 0xD34 DUP2 PUSH2 0xF5C JUMP JUMPDEST DUP3 MSTORE POP POP JUMP JUMPDEST PUSH2 0xD43 DUP2 PUSH2 0xF66 JUMP JUMPDEST DUP3 MSTORE POP POP JUMP JUMPDEST PUSH1 0x0 PUSH1 0xC0 DUP3 ADD SWAP1 POP PUSH2 0xD5E PUSH1 0x0 DUP4 ADD DUP10 PUSH2 0xCC7 JUMP JUMPDEST PUSH2 0xD6B PUSH1 0x20 DUP4 ADD DUP9 PUSH2 0xD3A JUMP JUMPDEST PUSH2 0xD78 PUSH1 0x40 DUP4 ADD DUP8 PUSH2 0xD3A JUMP JUMPDEST PUSH2 0xD85 PUSH1 0x60 DUP4 ADD DUP7 PUSH2 0xD1C JUMP JUMPDEST PUSH2 0xD92 PUSH1 0x80 DUP4 ADD DUP6 PUSH2 0xD2B JUMP JUMPDEST PUSH2 0xD9F PUSH1 0xA0 DUP4 ADD DUP5 PUSH2 0xCB8 JUMP JUMPDEST SWAP8 SWAP7 POP POP POP POP POP POP POP JUMP JUMPDEST PUSH1 0x0 PUSH1 0x20 DUP3 ADD SWAP1 POP DUP2 DUP2 SUB PUSH1 0x0 DUP4 ADD MSTORE PUSH2 0xDC3 DUP2 PUSH2 0xCD6 JUMP JUMPDEST SWAP1 POP SWAP2 SWAP1 POP JUMP JUMPDEST PUSH1 0x0 PUSH1 0x20 DUP3 ADD SWAP1 POP DUP2 DUP2 SUB PUSH1 0x0 DUP4 ADD MSTORE PUSH2 0xDE3 DUP2 PUSH2 0xCF9 JUMP JUMPDEST SWAP1 POP SWAP2 SWAP1 POP JUMP JUMPDEST PUSH1 0x0 PUSH1 0x20 DUP3 ADD SWAP1 POP PUSH2 0xDFF PUSH1 0x0 DUP4 ADD DUP5 PUSH2 0xD2B JUMP JUMPDEST SWAP3 SWAP2 POP POP JUMP JUMPDEST PUSH1 0x0 DUP3 DUP3 MSTORE PUSH1 0x20 DUP3 ADD SWAP1 POP SWAP3 SWAP2 POP POP JUMP JUMPDEST PUSH1 0x0 PUSH2 0xE21 DUP3 PUSH2 0xF5C JUMP JUMPDEST SWAP2 POP PUSH2 0xE2C DUP4 PUSH2 0xF5C JUMP JUMPDEST SWAP3 POP DUP3 PUSH2 0xE3C JUMPI PUSH2 0xE3B PUSH2 0xFFD JUMP JUMPDEST JUMPDEST DUP3 DUP3 DIV SWAP1 POP SWAP3 SWAP2 POP POP JUMP JUMPDEST PUSH1 0x0 PUSH2 0xE52 DUP3 PUSH2 0xF5C JUMP JUMPDEST SWAP2 POP PUSH2 0xE5D DUP4 PUSH2 0xF5C JUMP JUMPDEST SWAP3 POP DUP2 PUSH32 0xFFFFFFFFFFFFFFFFFFFFFFFFFFFFFFFFFFFFFFFFFFFFFFFFFFFFFFFFFFFFFFFF DIV DUP4 GT DUP3 ISZERO ISZERO AND ISZERO PUSH2 0xE96 JUMPI PUSH2 0xE95 PUSH2 0xFCE JUMP JUMPDEST JUMPDEST DUP3 DUP3 MUL SWAP1 POP SWAP3 SWAP2 POP POP JUMP JUMPDEST PUSH1 0x0 PUSH2 0xEAC DUP3 PUSH2 0xF2E JUMP JUMPDEST SWAP2 POP PUSH2 0xEB7 DUP4 PUSH2 0xF2E JUMP JUMPDEST SWAP3 POP DUP3 DUP3 LT ISZERO PUSH2 0xECA JUMPI PUSH2 0xEC9 PUSH2 0xFCE JUMP JUMPDEST JUMPDEST DUP3 DUP3 SUB SWAP1 POP SWAP3 SWAP2 POP POP JUMP JUMPDEST PUSH1 0x0 PUSH2 0xEE0 DUP3 PUSH2 0xF5C JUMP JUMPDEST SWAP2 POP PUSH2 0xEEB DUP4 PUSH2 0xF5C JUMP JUMPDEST SWAP3 POP DUP3 DUP3 LT ISZERO PUSH2 0xEFE JUMPI PUSH2 0xEFD PUSH2 0xFCE JUMP JUMPDEST JUMPDEST DUP3 DUP3 SUB SWAP1 POP SWAP3 SWAP2 POP POP JUMP JUMPDEST PUSH1 0x0 PUSH2 0xF14 DUP3 PUSH2 0xF3C JUMP JUMPDEST SWAP1 POP SWAP2 SWAP1 POP JUMP JUMPDEST PUSH1 0x0 DUP2 SWAP1 POP PUSH2 0xF29 DUP3 PUSH2 0x115C JUMP JUMPDEST SWAP2 SWAP1 POP JUMP JUMPDEST PUSH1 0x0 PUSH2 0xFFFF DUP3 AND SWAP1 POP SWAP2 SWAP1 POP JUMP JUMPDEST PUSH1 0x0 PUSH20 0xFFFFFFFFFFFFFFFFFFFFFFFFFFFFFFFFFFFFFFFF DUP3 AND SWAP1 POP SWAP2 SWAP1 POP JUMP JUMPDEST PUSH1 0x0 DUP2 SWAP1 POP SWAP2 SWAP1 POP JUMP JUMPDEST PUSH1 0x0 PUSH1 0xFF DUP3 AND SWAP1 POP SWAP2 SWAP1 POP JUMP JUMPDEST PUSH1 0x0 PUSH2 0xF7E DUP3 PUSH2 0xF1B JUMP JUMPDEST SWAP1 POP SWAP2 SWAP1 POP JUMP JUMPDEST PUSH1 0x0 PUSH2 0xF90 DUP3 PUSH2 0xF5C JUMP JUMPDEST SWAP2 POP PUSH32 0xFFFFFFFFFFFFFFFFFFFFFFFFFFFFFFFFFFFFFFFFFFFFFFFFFFFFFFFFFFFFFFFF DUP3 EQ ISZERO PUSH2 0xFC3 JUMPI PUSH2 0xFC2 PUSH2 0xFCE JUMP JUMPDEST JUMPDEST PUSH1 0x1 DUP3 ADD SWAP1 POP SWAP2 SWAP1 POP JUMP JUMPDEST PUSH32 0x4E487B7100000000000000000000000000000000000000000000000000000000 PUSH1 0x0 MSTORE PUSH1 0x11 PUSH1 0x4 MSTORE PUSH1 0x24 PUSH1 0x0 REVERT JUMPDEST PUSH32 0x4E487B7100000000000000000000000000000000000000000000000000000000 PUSH1 0x0 MSTORE PUSH1 0x12 PUSH1 0x4 MSTORE PUSH1 0x24 PUSH1 0x0 REVERT JUMPDEST PUSH32 0x4E487B7100000000000000000000000000000000000000000000000000000000 PUSH1 0x0 MSTORE PUSH1 0x21 PUSH1 0x4 MSTORE PUSH1 0x24 PUSH1 0x0 REVERT JUMPDEST PUSH32 0x4E487B7100000000000000000000000000000000000000000000000000000000 PUSH1 0x0 MSTORE PUSH1 0x32 PUSH1 0x4 MSTORE PUSH1 0x24 PUSH1 0x0 REVERT JUMPDEST PUSH32 0x4E487B7100000000000000000000000000000000000000000000000000000000 PUSH1 0x0 MSTORE PUSH1 0x41 PUSH1 0x4 MSTORE PUSH1 0x24 PUSH1 0x0 REVERT JUMPDEST PUSH1 0x0 DUP1 REVERT JUMPDEST PUSH32 0x4C6971696469747920616E642073656E642076616C756520617265206E6F7420 PUSH1 0x0 DUP3 ADD MSTORE PUSH32 0x657175616C210000000000000000000000000000000000000000000000000000 PUSH1 0x20 DUP3 ADD MSTORE POP JUMP JUMPDEST PUSH32 0x416D6F756E7420616E642073656E642076616C756520617265206E6F74206571 PUSH1 0x0 DUP3 ADD MSTORE PUSH32 0x75616C2100000000000000000000000000000000000000000000000000000000 PUSH1 0x20 DUP3 ADD MSTORE POP JUMP JUMPDEST PUSH1 0x2 DUP2 LT PUSH2 0x116D JUMPI PUSH2 0x116C PUSH2 0x102C JUMP JUMPDEST JUMPDEST POP JUMP JUMPDEST PUSH2 0x1179 DUP2 PUSH2 0xF2E JUMP JUMPDEST DUP2 EQ PUSH2 0x1184 JUMPI PUSH1 0x0 DUP1 REVERT JUMPDEST POP JUMP JUMPDEST PUSH2 0x1190 DUP2 PUSH2 0xF5C JUMP JUMPDEST DUP2 EQ PUSH2 0x119B JUMPI PUSH1 0x0 DUP1 REVERT JUMPDEST POP JUMP JUMPDEST PUSH2 0x11A7 DUP2 PUSH2 0xF66 JUMP JUMPDEST DUP2 EQ PUSH2 0x11B2 JUMPI PUSH1 0x0 DUP1 REVERT JUMPDEST POP JUMP INVALID LOG2 PUSH5 0x6970667358 0x22 SLT KECCAK256 0xF9 0xFB LOG4 0x2A DUP4 PUSH24 0xFF702D87B0FFFB91342A4250FC8933B4187D8B074BAA4369 0xE CALLDATACOPY PUSH5 0x736F6C6343 STOP ADDMOD MOD STOP CALLER "
		},
		"gasEstimates": {
			"creation": {
				"codeDepositCost": "917400",
				"executionCost": "infinite",
				"totalCost": "infinite"
			},
			"external": {
				"createBackBet(uint8,uint8,uint16,uint256)": "infinite",
				"createLayBet(uint8,uint8,uint16,uint256)": "infinite"
			},
			"internal": {
				"placeBet(enum BettingContract.BetSide,uint8,uint8,uint16,uint256,address)": "infinite",
				"placeMatchedBet(enum BettingContract.BetSide,uint8,uint8,uint16,uint256,address)": "infinite",
				"placeUnmatchedBet(enum BettingContract.BetSide,uint8,uint8,uint16,uint256,address)": "infinite"
			}
		},
		"methodIdentifiers": {
			"createBackBet(uint8,uint8,uint16,uint256)": "cc2b1e47",
			"createLayBet(uint8,uint8,uint16,uint256)": "5d63dc18"
		}
	},
	"abi": [
		{
			"inputs": [
				{
					"internalType": "string",
					"name": "_objectId",
					"type": "string"
				}
			],
			"stateMutability": "nonpayable",
			"type": "constructor"
		},
		{
			"inputs": [
				{
					"internalType": "uint256",
					"name": "amount",
					"type": "uint256"
				}
			],
			"name": "AmountToLow",
			"type": "error"
		},
		{
			"inputs": [],
			"name": "GameAlreadyEnded",
			"type": "error"
		},
		{
			"inputs": [
				{
					"internalType": "uint256",
					"name": "odds",
					"type": "uint256"
				}
			],
			"name": "OddsToLow",
			"type": "error"
		},
		{
			"inputs": [],
			"name": "OnlyOwner",
			"type": "error"
		},
		{
			"anonymous": false,
			"inputs": [
				{
					"indexed": false,
					"internalType": "enum BettingContract.BetSide",
					"name": "_betSide",
					"type": "uint8"
				},
				{
					"indexed": false,
					"internalType": "uint8",
					"name": "_betType",
					"type": "uint8"
				},
				{
					"indexed": false,
					"internalType": "uint8",
					"name": "_selection",
					"type": "uint8"
				},
				{
					"indexed": false,
					"internalType": "uint16",
					"name": "_odds",
					"type": "uint16"
				},
				{
					"indexed": false,
					"internalType": "uint256",
					"name": "_amount",
					"type": "uint256"
				},
				{
					"indexed": false,
					"internalType": "address",
					"name": "_fromAddr",
					"type": "address"
				}
			],
			"name": "MatchedBetPlaced",
			"type": "event"
		},
		{
			"anonymous": false,
			"inputs": [
				{
					"indexed": false,
					"internalType": "enum BettingContract.BetSide",
					"name": "_betSide",
					"type": "uint8"
				},
				{
					"indexed": false,
					"internalType": "uint8",
					"name": "_betType",
					"type": "uint8"
				},
				{
					"indexed": false,
					"internalType": "uint8",
					"name": "_selection",
					"type": "uint8"
				},
				{
					"indexed": false,
					"internalType": "uint16",
					"name": "_odds",
					"type": "uint16"
				},
				{
					"indexed": false,
					"internalType": "uint256",
					"name": "_amount",
					"type": "uint256"
				},
				{
					"indexed": false,
					"internalType": "address",
					"name": "_fromAddr",
					"type": "address"
				}
			],
			"name": "UnmatchedBetPlaced",
			"type": "event"
		},
		{
			"inputs": [
				{
					"internalType": "uint8",
					"name": "_betType",
					"type": "uint8"
				},
				{
					"internalType": "uint8",
					"name": "_selection",
					"type": "uint8"
				},
				{
					"internalType": "uint16",
					"name": "_odds",
					"type": "uint16"
				},
				{
					"internalType": "uint256",
					"name": "_amount",
					"type": "uint256"
				}
			],
			"name": "createBackBet",
			"outputs": [],
			"stateMutability": "payable",
			"type": "function"
		},
		{
			"inputs": [
				{
					"internalType": "uint8",
					"name": "_betType",
					"type": "uint8"
				},
				{
					"internalType": "uint8",
					"name": "_selection",
					"type": "uint8"
				},
				{
					"internalType": "uint16",
					"name": "_odds",
					"type": "uint16"
				},
				{
					"internalType": "uint256",
					"name": "_amount",
					"type": "uint256"
				}
			],
			"name": "createLayBet",
			"outputs": [],
			"stateMutability": "payable",
			"type": "function"
		}
	]
}